{
	"ShockSpace/driverUtils/CSDPositionPartial.sol": {
		"CSDPositionPartial": {
			"abi": [
				{
					"inputs": [],
					"name": "DECIMAL_PRECISION",
					"outputs": [
						{
							"internalType": "uint256",
							"name": "",
							"type": "uint256"
						}
					],
					"stateMutability": "view",
					"type": "function"
				},
				{
					"inputs": [],
					"name": "agentAddress",
					"outputs": [
						{
							"internalType": "address",
							"name": "",
							"type": "address"
						}
					],
					"stateMutability": "view",
					"type": "function"
				},
				{
					"inputs": [
						{
							"internalType": "uint256",
							"name": "",
							"type": "uint256"
						}
					],
					"name": "exitParams",
					"outputs": [
						{
							"internalType": "uint256",
							"name": "stopLossPrice",
							"type": "uint256"
						},
						{
							"internalType": "uint256",
							"name": "takeProfitPrice",
							"type": "uint256"
						},
						{
							"internalType": "uint256",
							"name": "exitPrice",
							"type": "uint256"
						}
					],
					"stateMutability": "view",
					"type": "function"
				},
				{
					"inputs": [
						{
							"internalType": "address",
							"name": "",
							"type": "address"
						},
						{
							"internalType": "uint256",
							"name": "",
							"type": "uint256"
						}
					],
					"name": "makerMarginTokens",
					"outputs": [
						{
							"internalType": "address",
							"name": "",
							"type": "address"
						}
					],
					"stateMutability": "view",
					"type": "function"
				},
				{
					"inputs": [
						{
							"internalType": "address",
							"name": "",
							"type": "address"
						},
						{
							"internalType": "address",
							"name": "",
							"type": "address"
						}
					],
					"name": "makerTokenMargin",
					"outputs": [
						{
							"internalType": "uint256",
							"name": "",
							"type": "uint256"
						}
					],
					"stateMutability": "view",
					"type": "function"
				},
				{
					"inputs": [
						{
							"internalType": "uint256",
							"name": "",
							"type": "uint256"
						}
					],
					"name": "margin2",
					"outputs": [
						{
							"internalType": "uint256",
							"name": "initialLoan",
							"type": "uint256"
						}
					],
					"stateMutability": "view",
					"type": "function"
				},
				{
					"inputs": [
						{
							"internalType": "uint256",
							"name": "",
							"type": "uint256"
						}
					],
					"name": "marginParams1",
					"outputs": [
						{
							"internalType": "uint256",
							"name": "initialMargin",
							"type": "uint256"
						},
						{
							"internalType": "uint256",
							"name": "taxedMargin",
							"type": "uint256"
						},
						{
							"internalType": "uint256",
							"name": "excessMargin",
							"type": "uint256"
						},
						{
							"internalType": "uint256",
							"name": "fee",
							"type": "uint256"
						}
					],
					"stateMutability": "view",
					"type": "function"
				},
				{
					"inputs": [
						{
							"internalType": "uint256",
							"name": "",
							"type": "uint256"
						}
					],
					"name": "openInterest",
					"outputs": [
						{
							"internalType": "uint256",
							"name": "leverageAmount",
							"type": "uint256"
						},
						{
							"internalType": "uint256",
							"name": "timestamp",
							"type": "uint256"
						}
					],
					"stateMutability": "view",
					"type": "function"
				},
				{
					"inputs": [
						{
							"internalType": "uint256",
							"name": "",
							"type": "uint256"
						}
					],
					"name": "positionCore1",
					"outputs": [
						{
							"internalType": "uint256",
							"name": "positionId",
							"type": "uint256"
						},
						{
							"internalType": "address",
							"name": "listingAddress",
							"type": "address"
						},
						{
							"internalType": "address",
							"name": "makerAddress",
							"type": "address"
						},
						{
							"internalType": "uint8",
							"name": "positionType",
							"type": "uint8"
						}
					],
					"stateMutability": "view",
					"type": "function"
				},
				{
					"inputs": [
						{
							"internalType": "uint256",
							"name": "",
							"type": "uint256"
						}
					],
					"name": "positionCore2",
					"outputs": [
						{
							"internalType": "bool",
							"name": "status1",
							"type": "bool"
						},
						{
							"internalType": "uint8",
							"name": "status2",
							"type": "uint8"
						}
					],
					"stateMutability": "view",
					"type": "function"
				},
				{
					"inputs": [],
					"name": "positionCount",
					"outputs": [
						{
							"internalType": "uint256",
							"name": "",
							"type": "uint256"
						}
					],
					"stateMutability": "view",
					"type": "function"
				},
				{
					"inputs": [
						{
							"internalType": "uint256",
							"name": "",
							"type": "uint256"
						}
					],
					"name": "priceParams1",
					"outputs": [
						{
							"internalType": "uint256",
							"name": "minEntryPrice",
							"type": "uint256"
						},
						{
							"internalType": "uint256",
							"name": "maxEntryPrice",
							"type": "uint256"
						},
						{
							"internalType": "uint256",
							"name": "minPrice",
							"type": "uint256"
						},
						{
							"internalType": "uint256",
							"name": "priceAtEntry",
							"type": "uint256"
						},
						{
							"internalType": "uint8",
							"name": "leverage",
							"type": "uint8"
						}
					],
					"stateMutability": "view",
					"type": "function"
				},
				{
					"inputs": [
						{
							"internalType": "uint256",
							"name": "",
							"type": "uint256"
						}
					],
					"name": "priceParams2",
					"outputs": [
						{
							"internalType": "uint256",
							"name": "liquidationPrice",
							"type": "uint256"
						}
					],
					"stateMutability": "view",
					"type": "function"
				}
			],
			"devdoc": {
				"kind": "dev",
				"methods": {},
				"version": 1
			},
			"evm": {
				"assembly": "    /* \"ShockSpace/driverUtils/CSDPositionPartial.sol\":2488:12843  contract CSDPositionPartial is CSDUtilityPartial {... */\n  mstore(0x40, 0x80)\n  callvalue\n  dup1\n  iszero\n  tag_1\n  jumpi\n  0x00\n  dup1\n  revert\ntag_1:\n  pop\n  dataSize(sub_0)\n  dup1\n  dataOffset(sub_0)\n  0x00\n  codecopy\n  0x00\n  return\nstop\n\nsub_0: assembly {\n        /* \"ShockSpace/driverUtils/CSDPositionPartial.sol\":2488:12843  contract CSDPositionPartial is CSDUtilityPartial {... */\n      mstore(0x40, 0x80)\n      callvalue\n      dup1\n      iszero\n      tag_1\n      jumpi\n      0x00\n      dup1\n      revert\n    tag_1:\n      pop\n      jumpi(tag_2, lt(calldatasize, 0x04))\n      shr(0xe0, calldataload(0x00))\n      dup1\n      0x88e53ec8\n      gt\n      tag_16\n      jumpi\n      dup1\n      0xc22127a9\n      gt\n      tag_17\n      jumpi\n      dup1\n      0xc22127a9\n      eq\n      tag_12\n      jumpi\n      dup1\n      0xe7702d05\n      eq\n      tag_13\n      jumpi\n      dup1\n      0xf86bcb9b\n      eq\n      tag_14\n      jumpi\n      dup1\n      0xfe143615\n      eq\n      tag_15\n      jumpi\n      jump(tag_2)\n    tag_17:\n      dup1\n      0x88e53ec8\n      eq\n      tag_9\n      jumpi\n      dup1\n      0x8eff3521\n      eq\n      tag_10\n      jumpi\n      dup1\n      0xa20baee6\n      eq\n      tag_11\n      jumpi\n      jump(tag_2)\n    tag_16:\n      dup1\n      0x0cd6a4bc\n      eq\n      tag_3\n      jumpi\n      dup1\n      0x1f037096\n      eq\n      tag_4\n      jumpi\n      dup1\n      0x2235410d\n      eq\n      tag_5\n      jumpi\n      dup1\n      0x38613690\n      eq\n      tag_6\n      jumpi\n      dup1\n      0x52289738\n      eq\n      tag_7\n      jumpi\n      dup1\n      0x7bc9ec23\n      eq\n      tag_8\n      jumpi\n    tag_2:\n      0x00\n      dup1\n      revert\n        /* \"ShockSpace/driverUtils/CSDUtilityPartial.sol\":3705:3759  mapping(uint256 => PositionCore2) public positionCore2 */\n    tag_3:\n      tag_18\n      0x04\n      dup1\n      calldatasize\n      sub\n      dup2\n      add\n      swap1\n      tag_19\n      swap2\n      swap1\n      tag_20\n      jump\t// in\n    tag_19:\n      tag_21\n      jump\t// in\n    tag_18:\n      mload(0x40)\n      tag_22\n      swap3\n      swap2\n      swap1\n      tag_23\n      jump\t// in\n    tag_22:\n      mload(0x40)\n      dup1\n      swap2\n      sub\n      swap1\n      return\n        /* \"ShockSpace/driverUtils/CSDUtilityPartial.sol\":3645:3699  mapping(uint256 => PositionCore1) public positionCore1 */\n    tag_4:\n      tag_24\n      0x04\n      dup1\n      calldatasize\n      sub\n      dup2\n      add\n      swap1\n      tag_25\n      swap2\n      swap1\n      tag_20\n      jump\t// in\n    tag_25:\n      tag_26\n      jump\t// in\n    tag_24:\n      mload(0x40)\n      tag_27\n      swap5\n      swap4\n      swap3\n      swap2\n      swap1\n      tag_28\n      jump\t// in\n    tag_27:\n      mload(0x40)\n      dup1\n      swap2\n      sub\n      swap1\n      return\n        /* \"ShockSpace/driverUtils/CSDUtilityPartial.sol\":3995:4043  mapping(uint256 => ExitParams) public exitParams */\n    tag_5:\n      tag_29\n      0x04\n      dup1\n      calldatasize\n      sub\n      dup2\n      add\n      swap1\n      tag_30\n      swap2\n      swap1\n      tag_20\n      jump\t// in\n    tag_30:\n      tag_31\n      jump\t// in\n    tag_29:\n      mload(0x40)\n      tag_32\n      swap4\n      swap3\n      swap2\n      swap1\n      tag_33\n      jump\t// in\n    tag_32:\n      mload(0x40)\n      dup1\n      swap2\n      sub\n      swap1\n      return\n        /* \"ShockSpace/driverUtils/CSDUtilityPartial.sol\":2682:2709  address public agentAddress */\n    tag_6:\n      tag_34\n      tag_35\n      jump\t// in\n    tag_34:\n      mload(0x40)\n      tag_36\n      swap2\n      swap1\n      tag_37\n      jump\t// in\n    tag_36:\n      mload(0x40)\n      dup1\n      swap2\n      sub\n      swap1\n      return\n        /* \"ShockSpace/driverUtils/CSDUtilityPartial.sol\":4108:4179  mapping(address => mapping(address => uint256)) public makerTokenMargin */\n    tag_7:\n      tag_38\n      0x04\n      dup1\n      calldatasize\n      sub\n      dup2\n      add\n      swap1\n      tag_39\n      swap2\n      swap1\n      tag_40\n      jump\t// in\n    tag_39:\n      tag_41\n      jump\t// in\n    tag_38:\n      mload(0x40)\n      tag_42\n      swap2\n      swap1\n      tag_43\n      jump\t// in\n    tag_42:\n      mload(0x40)\n      dup1\n      swap2\n      sub\n      swap1\n      return\n        /* \"ShockSpace/driverUtils/CSDUtilityPartial.sol\":4185:4239  mapping(address => address[]) public makerMarginTokens */\n    tag_8:\n      tag_44\n      0x04\n      dup1\n      calldatasize\n      sub\n      dup2\n      add\n      swap1\n      tag_45\n      swap2\n      swap1\n      tag_46\n      jump\t// in\n    tag_45:\n      tag_47\n      jump\t// in\n    tag_44:\n      mload(0x40)\n      tag_48\n      swap2\n      swap1\n      tag_37\n      jump\t// in\n    tag_48:\n      mload(0x40)\n      dup1\n      swap2\n      sub\n      swap1\n      return\n        /* \"ShockSpace/driverUtils/CSDUtilityPartial.sol\":4049:4101  mapping(uint256 => OpenInterest) public openInterest */\n    tag_9:\n      tag_49\n      0x04\n      dup1\n      calldatasize\n      sub\n      dup2\n      add\n      swap1\n      tag_50\n      swap2\n      swap1\n      tag_20\n      jump\t// in\n    tag_50:\n      tag_51\n      jump\t// in\n    tag_49:\n      mload(0x40)\n      tag_52\n      swap3\n      swap2\n      swap1\n      tag_53\n      jump\t// in\n    tag_52:\n      mload(0x40)\n      dup1\n      swap2\n      sub\n      swap1\n      return\n        /* \"ShockSpace/driverUtils/CSDUtilityPartial.sol\":3941:3989  mapping(uint256 => MarginParams2) public margin2 */\n    tag_10:\n      tag_54\n      0x04\n      dup1\n      calldatasize\n      sub\n      dup2\n      add\n      swap1\n      tag_55\n      swap2\n      swap1\n      tag_20\n      jump\t// in\n    tag_55:\n      tag_56\n      jump\t// in\n    tag_54:\n      mload(0x40)\n      tag_57\n      swap2\n      swap1\n      tag_43\n      jump\t// in\n    tag_57:\n      mload(0x40)\n      dup1\n      swap2\n      sub\n      swap1\n      return\n        /* \"ShockSpace/driverUtils/CSDUtilityPartial.sol\":2628:2676  uint256 public constant DECIMAL_PRECISION = 1e18 */\n    tag_11:\n      tag_58\n      tag_59\n      jump\t// in\n    tag_58:\n      mload(0x40)\n      tag_60\n      swap2\n      swap1\n      tag_43\n      jump\t// in\n    tag_60:\n      mload(0x40)\n      dup1\n      swap2\n      sub\n      swap1\n      return\n        /* \"ShockSpace/driverUtils/CSDUtilityPartial.sol\":3823:3875  mapping(uint256 => PriceParams2) public priceParams2 */\n    tag_12:\n      tag_61\n      0x04\n      dup1\n      calldatasize\n      sub\n      dup2\n      add\n      swap1\n      tag_62\n      swap2\n      swap1\n      tag_20\n      jump\t// in\n    tag_62:\n      tag_63\n      jump\t// in\n    tag_61:\n      mload(0x40)\n      tag_64\n      swap2\n      swap1\n      tag_43\n      jump\t// in\n    tag_64:\n      mload(0x40)\n      dup1\n      swap2\n      sub\n      swap1\n      return\n        /* \"ShockSpace/driverUtils/CSDUtilityPartial.sol\":2715:2743  uint256 public positionCount */\n    tag_13:\n      tag_65\n      tag_66\n      jump\t// in\n    tag_65:\n      mload(0x40)\n      tag_67\n      swap2\n      swap1\n      tag_43\n      jump\t// in\n    tag_67:\n      mload(0x40)\n      dup1\n      swap2\n      sub\n      swap1\n      return\n        /* \"ShockSpace/driverUtils/CSDUtilityPartial.sol\":3881:3935  mapping(uint256 => MarginParams1) public marginParams1 */\n    tag_14:\n      tag_68\n      0x04\n      dup1\n      calldatasize\n      sub\n      dup2\n      add\n      swap1\n      tag_69\n      swap2\n      swap1\n      tag_20\n      jump\t// in\n    tag_69:\n      tag_70\n      jump\t// in\n    tag_68:\n      mload(0x40)\n      tag_71\n      swap5\n      swap4\n      swap3\n      swap2\n      swap1\n      tag_72\n      jump\t// in\n    tag_71:\n      mload(0x40)\n      dup1\n      swap2\n      sub\n      swap1\n      return\n        /* \"ShockSpace/driverUtils/CSDUtilityPartial.sol\":3765:3817  mapping(uint256 => PriceParams1) public priceParams1 */\n    tag_15:\n      tag_73\n      0x04\n      dup1\n      calldatasize\n      sub\n      dup2\n      add\n      swap1\n      tag_74\n      swap2\n      swap1\n      tag_20\n      jump\t// in\n    tag_74:\n      tag_75\n      jump\t// in\n    tag_73:\n      mload(0x40)\n      tag_76\n      swap6\n      swap5\n      swap4\n      swap3\n      swap2\n      swap1\n      tag_77\n      jump\t// in\n    tag_76:\n      mload(0x40)\n      dup1\n      swap2\n      sub\n      swap1\n      return\n        /* \"ShockSpace/driverUtils/CSDUtilityPartial.sol\":3705:3759  mapping(uint256 => PositionCore2) public positionCore2 */\n    tag_21:\n      mstore(0x20, 0x03)\n      dup1\n      0x00\n      mstore\n      keccak256(0x00, 0x40)\n      0x00\n      swap2\n      pop\n      swap1\n      pop\n      dup1\n      0x00\n      add\n      0x00\n      swap1\n      sload\n      swap1\n      0x0100\n      exp\n      swap1\n      div\n      0xff\n      and\n      swap1\n      dup1\n      0x00\n      add\n      0x01\n      swap1\n      sload\n      swap1\n      0x0100\n      exp\n      swap1\n      div\n      0xff\n      and\n      swap1\n      pop\n      dup3\n      jump\t// out\n        /* \"ShockSpace/driverUtils/CSDUtilityPartial.sol\":3645:3699  mapping(uint256 => PositionCore1) public positionCore1 */\n    tag_26:\n      mstore(0x20, 0x02)\n      dup1\n      0x00\n      mstore\n      keccak256(0x00, 0x40)\n      0x00\n      swap2\n      pop\n      swap1\n      pop\n      dup1\n      0x00\n      add\n      sload\n      swap1\n      dup1\n      0x01\n      add\n      0x00\n      swap1\n      sload\n      swap1\n      0x0100\n      exp\n      swap1\n      div\n      0xffffffffffffffffffffffffffffffffffffffff\n      and\n      swap1\n      dup1\n      0x02\n      add\n      0x00\n      swap1\n      sload\n      swap1\n      0x0100\n      exp\n      swap1\n      div\n      0xffffffffffffffffffffffffffffffffffffffff\n      and\n      swap1\n      dup1\n      0x02\n      add\n      0x14\n      swap1\n      sload\n      swap1\n      0x0100\n      exp\n      swap1\n      div\n      0xff\n      and\n      swap1\n      pop\n      dup5\n      jump\t// out\n        /* \"ShockSpace/driverUtils/CSDUtilityPartial.sol\":3995:4043  mapping(uint256 => ExitParams) public exitParams */\n    tag_31:\n      mstore(0x20, 0x08)\n      dup1\n      0x00\n      mstore\n      keccak256(0x00, 0x40)\n      0x00\n      swap2\n      pop\n      swap1\n      pop\n      dup1\n      0x00\n      add\n      sload\n      swap1\n      dup1\n      0x01\n      add\n      sload\n      swap1\n      dup1\n      0x02\n      add\n      sload\n      swap1\n      pop\n      dup4\n      jump\t// out\n        /* \"ShockSpace/driverUtils/CSDUtilityPartial.sol\":2682:2709  address public agentAddress */\n    tag_35:\n      0x00\n      dup1\n      sload\n      swap1\n      0x0100\n      exp\n      swap1\n      div\n      0xffffffffffffffffffffffffffffffffffffffff\n      and\n      dup2\n      jump\t// out\n        /* \"ShockSpace/driverUtils/CSDUtilityPartial.sol\":4108:4179  mapping(address => mapping(address => uint256)) public makerTokenMargin */\n    tag_41:\n      mstore(0x20, 0x0a)\n      dup2\n      0x00\n      mstore\n      mstore(0x20, keccak256(0x00, 0x40))\n      dup1\n      0x00\n      mstore\n      keccak256(0x00, 0x40)\n      0x00\n      swap2\n      pop\n      swap2\n      pop\n      pop\n      sload\n      dup2\n      jump\t// out\n        /* \"ShockSpace/driverUtils/CSDUtilityPartial.sol\":4185:4239  mapping(address => address[]) public makerMarginTokens */\n    tag_47:\n      mstore(0x20, 0x0b)\n      dup2\n      0x00\n      mstore\n      keccak256(0x00, 0x40)\n      dup2\n      dup2\n      sload\n      dup2\n      lt\n      tag_78\n      jumpi\n      0x00\n      dup1\n      revert\n    tag_78:\n      swap1\n      0x00\n      mstore\n      keccak256(0x00, 0x20)\n      add\n      0x00\n      swap2\n      pop\n      swap2\n      pop\n      swap1\n      sload\n      swap1\n      0x0100\n      exp\n      swap1\n      div\n      0xffffffffffffffffffffffffffffffffffffffff\n      and\n      dup2\n      jump\t// out\n        /* \"ShockSpace/driverUtils/CSDUtilityPartial.sol\":4049:4101  mapping(uint256 => OpenInterest) public openInterest */\n    tag_51:\n      mstore(0x20, 0x09)\n      dup1\n      0x00\n      mstore\n      keccak256(0x00, 0x40)\n      0x00\n      swap2\n      pop\n      swap1\n      pop\n      dup1\n      0x00\n      add\n      sload\n      swap1\n      dup1\n      0x01\n      add\n      sload\n      swap1\n      pop\n      dup3\n      jump\t// out\n        /* \"ShockSpace/driverUtils/CSDUtilityPartial.sol\":3941:3989  mapping(uint256 => MarginParams2) public margin2 */\n    tag_56:\n      mstore(0x20, 0x07)\n      dup1\n      0x00\n      mstore\n      keccak256(0x00, 0x40)\n      0x00\n      swap2\n      pop\n      swap1\n      pop\n      dup1\n      0x00\n      add\n      sload\n      swap1\n      pop\n      dup2\n      jump\t// out\n        /* \"ShockSpace/driverUtils/CSDUtilityPartial.sol\":2628:2676  uint256 public constant DECIMAL_PRECISION = 1e18 */\n    tag_59:\n        /* \"ShockSpace/driverUtils/CSDUtilityPartial.sol\":2672:2676  1e18 */\n      0x0de0b6b3a7640000\n        /* \"ShockSpace/driverUtils/CSDUtilityPartial.sol\":2628:2676  uint256 public constant DECIMAL_PRECISION = 1e18 */\n      dup2\n      jump\t// out\n        /* \"ShockSpace/driverUtils/CSDUtilityPartial.sol\":3823:3875  mapping(uint256 => PriceParams2) public priceParams2 */\n    tag_63:\n      mstore(0x20, 0x05)\n      dup1\n      0x00\n      mstore\n      keccak256(0x00, 0x40)\n      0x00\n      swap2\n      pop\n      swap1\n      pop\n      dup1\n      0x00\n      add\n      sload\n      swap1\n      pop\n      dup2\n      jump\t// out\n        /* \"ShockSpace/driverUtils/CSDUtilityPartial.sol\":2715:2743  uint256 public positionCount */\n    tag_66:\n      sload(0x01)\n      dup2\n      jump\t// out\n        /* \"ShockSpace/driverUtils/CSDUtilityPartial.sol\":3881:3935  mapping(uint256 => MarginParams1) public marginParams1 */\n    tag_70:\n      mstore(0x20, 0x06)\n      dup1\n      0x00\n      mstore\n      keccak256(0x00, 0x40)\n      0x00\n      swap2\n      pop\n      swap1\n      pop\n      dup1\n      0x00\n      add\n      sload\n      swap1\n      dup1\n      0x01\n      add\n      sload\n      swap1\n      dup1\n      0x02\n      add\n      sload\n      swap1\n      dup1\n      0x03\n      add\n      sload\n      swap1\n      pop\n      dup5\n      jump\t// out\n        /* \"ShockSpace/driverUtils/CSDUtilityPartial.sol\":3765:3817  mapping(uint256 => PriceParams1) public priceParams1 */\n    tag_75:\n      mstore(0x20, 0x04)\n      dup1\n      0x00\n      mstore\n      keccak256(0x00, 0x40)\n      0x00\n      swap2\n      pop\n      swap1\n      pop\n      dup1\n      0x00\n      add\n      sload\n      swap1\n      dup1\n      0x01\n      add\n      sload\n      swap1\n      dup1\n      0x02\n      add\n      sload\n      swap1\n      dup1\n      0x03\n      add\n      sload\n      swap1\n      dup1\n      0x04\n      add\n      0x00\n      swap1\n      sload\n      swap1\n      0x0100\n      exp\n      swap1\n      div\n      0xff\n      and\n      swap1\n      pop\n      dup6\n      jump\t// out\n        /* \"#utility.yul\":7:146   */\n    tag_81:\n      0x00\n        /* \"#utility.yul\":91:97   */\n      dup2\n        /* \"#utility.yul\":78:98   */\n      calldataload\n        /* \"#utility.yul\":69:98   */\n      swap1\n      pop\n        /* \"#utility.yul\":107:140   */\n      tag_83\n        /* \"#utility.yul\":134:139   */\n      dup2\n        /* \"#utility.yul\":107:140   */\n      tag_84\n      jump\t// in\n    tag_83:\n        /* \"#utility.yul\":59:146   */\n      swap3\n      swap2\n      pop\n      pop\n      jump\t// out\n        /* \"#utility.yul\":152:291   */\n    tag_85:\n      0x00\n        /* \"#utility.yul\":236:242   */\n      dup2\n        /* \"#utility.yul\":223:243   */\n      calldataload\n        /* \"#utility.yul\":214:243   */\n      swap1\n      pop\n        /* \"#utility.yul\":252:285   */\n      tag_87\n        /* \"#utility.yul\":279:284   */\n      dup2\n        /* \"#utility.yul\":252:285   */\n      tag_88\n      jump\t// in\n    tag_87:\n        /* \"#utility.yul\":204:291   */\n      swap3\n      swap2\n      pop\n      pop\n      jump\t// out\n        /* \"#utility.yul\":297:704   */\n    tag_40:\n      0x00\n      dup1\n        /* \"#utility.yul\":422:424   */\n      0x40\n        /* \"#utility.yul\":410:419   */\n      dup4\n        /* \"#utility.yul\":401:408   */\n      dup6\n        /* \"#utility.yul\":397:420   */\n      sub\n        /* \"#utility.yul\":393:425   */\n      slt\n        /* \"#utility.yul\":390:392   */\n      iszero\n      tag_90\n      jumpi\n        /* \"#utility.yul\":438:439   */\n      0x00\n        /* \"#utility.yul\":435:436   */\n      dup1\n        /* \"#utility.yul\":428:440   */\n      revert\n        /* \"#utility.yul\":390:392   */\n    tag_90:\n        /* \"#utility.yul\":481:482   */\n      0x00\n        /* \"#utility.yul\":506:559   */\n      tag_91\n        /* \"#utility.yul\":551:558   */\n      dup6\n        /* \"#utility.yul\":542:548   */\n      dup3\n        /* \"#utility.yul\":531:540   */\n      dup7\n        /* \"#utility.yul\":527:549   */\n      add\n        /* \"#utility.yul\":506:559   */\n      tag_81\n      jump\t// in\n    tag_91:\n        /* \"#utility.yul\":496:559   */\n      swap3\n      pop\n        /* \"#utility.yul\":452:569   */\n      pop\n        /* \"#utility.yul\":608:610   */\n      0x20\n        /* \"#utility.yul\":634:687   */\n      tag_92\n        /* \"#utility.yul\":679:686   */\n      dup6\n        /* \"#utility.yul\":670:676   */\n      dup3\n        /* \"#utility.yul\":659:668   */\n      dup7\n        /* \"#utility.yul\":655:677   */\n      add\n        /* \"#utility.yul\":634:687   */\n      tag_81\n      jump\t// in\n    tag_92:\n        /* \"#utility.yul\":624:687   */\n      swap2\n      pop\n        /* \"#utility.yul\":579:697   */\n      pop\n        /* \"#utility.yul\":380:704   */\n      swap3\n      pop\n      swap3\n      swap1\n      pop\n      jump\t// out\n        /* \"#utility.yul\":710:1117   */\n    tag_46:\n      0x00\n      dup1\n        /* \"#utility.yul\":835:837   */\n      0x40\n        /* \"#utility.yul\":823:832   */\n      dup4\n        /* \"#utility.yul\":814:821   */\n      dup6\n        /* \"#utility.yul\":810:833   */\n      sub\n        /* \"#utility.yul\":806:838   */\n      slt\n        /* \"#utility.yul\":803:805   */\n      iszero\n      tag_94\n      jumpi\n        /* \"#utility.yul\":851:852   */\n      0x00\n        /* \"#utility.yul\":848:849   */\n      dup1\n        /* \"#utility.yul\":841:853   */\n      revert\n        /* \"#utility.yul\":803:805   */\n    tag_94:\n        /* \"#utility.yul\":894:895   */\n      0x00\n        /* \"#utility.yul\":919:972   */\n      tag_95\n        /* \"#utility.yul\":964:971   */\n      dup6\n        /* \"#utility.yul\":955:961   */\n      dup3\n        /* \"#utility.yul\":944:953   */\n      dup7\n        /* \"#utility.yul\":940:962   */\n      add\n        /* \"#utility.yul\":919:972   */\n      tag_81\n      jump\t// in\n    tag_95:\n        /* \"#utility.yul\":909:972   */\n      swap3\n      pop\n        /* \"#utility.yul\":865:982   */\n      pop\n        /* \"#utility.yul\":1021:1023   */\n      0x20\n        /* \"#utility.yul\":1047:1100   */\n      tag_96\n        /* \"#utility.yul\":1092:1099   */\n      dup6\n        /* \"#utility.yul\":1083:1089   */\n      dup3\n        /* \"#utility.yul\":1072:1081   */\n      dup7\n        /* \"#utility.yul\":1068:1090   */\n      add\n        /* \"#utility.yul\":1047:1100   */\n      tag_85\n      jump\t// in\n    tag_96:\n        /* \"#utility.yul\":1037:1100   */\n      swap2\n      pop\n        /* \"#utility.yul\":992:1110   */\n      pop\n        /* \"#utility.yul\":793:1117   */\n      swap3\n      pop\n      swap3\n      swap1\n      pop\n      jump\t// out\n        /* \"#utility.yul\":1123:1385   */\n    tag_20:\n      0x00\n        /* \"#utility.yul\":1231:1233   */\n      0x20\n        /* \"#utility.yul\":1219:1228   */\n      dup3\n        /* \"#utility.yul\":1210:1217   */\n      dup5\n        /* \"#utility.yul\":1206:1229   */\n      sub\n        /* \"#utility.yul\":1202:1234   */\n      slt\n        /* \"#utility.yul\":1199:1201   */\n      iszero\n      tag_98\n      jumpi\n        /* \"#utility.yul\":1247:1248   */\n      0x00\n        /* \"#utility.yul\":1244:1245   */\n      dup1\n        /* \"#utility.yul\":1237:1249   */\n      revert\n        /* \"#utility.yul\":1199:1201   */\n    tag_98:\n        /* \"#utility.yul\":1290:1291   */\n      0x00\n        /* \"#utility.yul\":1315:1368   */\n      tag_99\n        /* \"#utility.yul\":1360:1367   */\n      dup5\n        /* \"#utility.yul\":1351:1357   */\n      dup3\n        /* \"#utility.yul\":1340:1349   */\n      dup6\n        /* \"#utility.yul\":1336:1358   */\n      add\n        /* \"#utility.yul\":1315:1368   */\n      tag_85\n      jump\t// in\n    tag_99:\n        /* \"#utility.yul\":1305:1368   */\n      swap2\n      pop\n        /* \"#utility.yul\":1261:1378   */\n      pop\n        /* \"#utility.yul\":1189:1385   */\n      swap3\n      swap2\n      pop\n      pop\n      jump\t// out\n        /* \"#utility.yul\":1391:1509   */\n    tag_100:\n        /* \"#utility.yul\":1478:1502   */\n      tag_102\n        /* \"#utility.yul\":1496:1501   */\n      dup2\n        /* \"#utility.yul\":1478:1502   */\n      tag_103\n      jump\t// in\n    tag_102:\n        /* \"#utility.yul\":1473:1476   */\n      dup3\n        /* \"#utility.yul\":1466:1503   */\n      mstore\n        /* \"#utility.yul\":1456:1509   */\n      pop\n      pop\n      jump\t// out\n        /* \"#utility.yul\":1515:1624   */\n    tag_104:\n        /* \"#utility.yul\":1596:1617   */\n      tag_106\n        /* \"#utility.yul\":1611:1616   */\n      dup2\n        /* \"#utility.yul\":1596:1617   */\n      tag_107\n      jump\t// in\n    tag_106:\n        /* \"#utility.yul\":1591:1594   */\n      dup3\n        /* \"#utility.yul\":1584:1618   */\n      mstore\n        /* \"#utility.yul\":1574:1624   */\n      pop\n      pop\n      jump\t// out\n        /* \"#utility.yul\":1630:1748   */\n    tag_108:\n        /* \"#utility.yul\":1717:1741   */\n      tag_110\n        /* \"#utility.yul\":1735:1740   */\n      dup2\n        /* \"#utility.yul\":1717:1741   */\n      tag_111\n      jump\t// in\n    tag_110:\n        /* \"#utility.yul\":1712:1715   */\n      dup3\n        /* \"#utility.yul\":1705:1742   */\n      mstore\n        /* \"#utility.yul\":1695:1748   */\n      pop\n      pop\n      jump\t// out\n        /* \"#utility.yul\":1754:1866   */\n    tag_112:\n        /* \"#utility.yul\":1837:1859   */\n      tag_114\n        /* \"#utility.yul\":1853:1858   */\n      dup2\n        /* \"#utility.yul\":1837:1859   */\n      tag_115\n      jump\t// in\n    tag_114:\n        /* \"#utility.yul\":1832:1835   */\n      dup3\n        /* \"#utility.yul\":1825:1860   */\n      mstore\n        /* \"#utility.yul\":1815:1866   */\n      pop\n      pop\n      jump\t// out\n        /* \"#utility.yul\":1872:2094   */\n    tag_37:\n      0x00\n        /* \"#utility.yul\":2003:2005   */\n      0x20\n        /* \"#utility.yul\":1992:2001   */\n      dup3\n        /* \"#utility.yul\":1988:2006   */\n      add\n        /* \"#utility.yul\":1980:2006   */\n      swap1\n      pop\n        /* \"#utility.yul\":2016:2087   */\n      tag_117\n        /* \"#utility.yul\":2084:2085   */\n      0x00\n        /* \"#utility.yul\":2073:2082   */\n      dup4\n        /* \"#utility.yul\":2069:2086   */\n      add\n        /* \"#utility.yul\":2060:2066   */\n      dup5\n        /* \"#utility.yul\":2016:2087   */\n      tag_100\n      jump\t// in\n    tag_117:\n        /* \"#utility.yul\":1970:2094   */\n      swap3\n      swap2\n      pop\n      pop\n      jump\t// out\n        /* \"#utility.yul\":2100:2412   */\n    tag_23:\n      0x00\n        /* \"#utility.yul\":2249:2251   */\n      0x40\n        /* \"#utility.yul\":2238:2247   */\n      dup3\n        /* \"#utility.yul\":2234:2252   */\n      add\n        /* \"#utility.yul\":2226:2252   */\n      swap1\n      pop\n        /* \"#utility.yul\":2262:2327   */\n      tag_119\n        /* \"#utility.yul\":2324:2325   */\n      0x00\n        /* \"#utility.yul\":2313:2322   */\n      dup4\n        /* \"#utility.yul\":2309:2326   */\n      add\n        /* \"#utility.yul\":2300:2306   */\n      dup6\n        /* \"#utility.yul\":2262:2327   */\n      tag_104\n      jump\t// in\n    tag_119:\n        /* \"#utility.yul\":2337:2405   */\n      tag_120\n        /* \"#utility.yul\":2401:2403   */\n      0x20\n        /* \"#utility.yul\":2390:2399   */\n      dup4\n        /* \"#utility.yul\":2386:2404   */\n      add\n        /* \"#utility.yul\":2377:2383   */\n      dup5\n        /* \"#utility.yul\":2337:2405   */\n      tag_112\n      jump\t// in\n    tag_120:\n        /* \"#utility.yul\":2216:2412   */\n      swap4\n      swap3\n      pop\n      pop\n      pop\n      jump\t// out\n        /* \"#utility.yul\":2418:2640   */\n    tag_43:\n      0x00\n        /* \"#utility.yul\":2549:2551   */\n      0x20\n        /* \"#utility.yul\":2538:2547   */\n      dup3\n        /* \"#utility.yul\":2534:2552   */\n      add\n        /* \"#utility.yul\":2526:2552   */\n      swap1\n      pop\n        /* \"#utility.yul\":2562:2633   */\n      tag_122\n        /* \"#utility.yul\":2630:2631   */\n      0x00\n        /* \"#utility.yul\":2619:2628   */\n      dup4\n        /* \"#utility.yul\":2615:2632   */\n      add\n        /* \"#utility.yul\":2606:2612   */\n      dup5\n        /* \"#utility.yul\":2562:2633   */\n      tag_108\n      jump\t// in\n    tag_122:\n        /* \"#utility.yul\":2516:2640   */\n      swap3\n      swap2\n      pop\n      pop\n      jump\t// out\n        /* \"#utility.yul\":2646:3191   */\n    tag_28:\n      0x00\n        /* \"#utility.yul\":2857:2860   */\n      0x80\n        /* \"#utility.yul\":2846:2855   */\n      dup3\n        /* \"#utility.yul\":2842:2861   */\n      add\n        /* \"#utility.yul\":2834:2861   */\n      swap1\n      pop\n        /* \"#utility.yul\":2871:2942   */\n      tag_124\n        /* \"#utility.yul\":2939:2940   */\n      0x00\n        /* \"#utility.yul\":2928:2937   */\n      dup4\n        /* \"#utility.yul\":2924:2941   */\n      add\n        /* \"#utility.yul\":2915:2921   */\n      dup8\n        /* \"#utility.yul\":2871:2942   */\n      tag_108\n      jump\t// in\n    tag_124:\n        /* \"#utility.yul\":2952:3024   */\n      tag_125\n        /* \"#utility.yul\":3020:3022   */\n      0x20\n        /* \"#utility.yul\":3009:3018   */\n      dup4\n        /* \"#utility.yul\":3005:3023   */\n      add\n        /* \"#utility.yul\":2996:3002   */\n      dup7\n        /* \"#utility.yul\":2952:3024   */\n      tag_100\n      jump\t// in\n    tag_125:\n        /* \"#utility.yul\":3034:3106   */\n      tag_126\n        /* \"#utility.yul\":3102:3104   */\n      0x40\n        /* \"#utility.yul\":3091:3100   */\n      dup4\n        /* \"#utility.yul\":3087:3105   */\n      add\n        /* \"#utility.yul\":3078:3084   */\n      dup6\n        /* \"#utility.yul\":3034:3106   */\n      tag_100\n      jump\t// in\n    tag_126:\n        /* \"#utility.yul\":3116:3184   */\n      tag_127\n        /* \"#utility.yul\":3180:3182   */\n      0x60\n        /* \"#utility.yul\":3169:3178   */\n      dup4\n        /* \"#utility.yul\":3165:3183   */\n      add\n        /* \"#utility.yul\":3156:3162   */\n      dup5\n        /* \"#utility.yul\":3116:3184   */\n      tag_112\n      jump\t// in\n    tag_127:\n        /* \"#utility.yul\":2824:3191   */\n      swap6\n      swap5\n      pop\n      pop\n      pop\n      pop\n      pop\n      jump\t// out\n        /* \"#utility.yul\":3197:3529   */\n    tag_53:\n      0x00\n        /* \"#utility.yul\":3356:3358   */\n      0x40\n        /* \"#utility.yul\":3345:3354   */\n      dup3\n        /* \"#utility.yul\":3341:3359   */\n      add\n        /* \"#utility.yul\":3333:3359   */\n      swap1\n      pop\n        /* \"#utility.yul\":3369:3440   */\n      tag_129\n        /* \"#utility.yul\":3437:3438   */\n      0x00\n        /* \"#utility.yul\":3426:3435   */\n      dup4\n        /* \"#utility.yul\":3422:3439   */\n      add\n        /* \"#utility.yul\":3413:3419   */\n      dup6\n        /* \"#utility.yul\":3369:3440   */\n      tag_108\n      jump\t// in\n    tag_129:\n        /* \"#utility.yul\":3450:3522   */\n      tag_130\n        /* \"#utility.yul\":3518:3520   */\n      0x20\n        /* \"#utility.yul\":3507:3516   */\n      dup4\n        /* \"#utility.yul\":3503:3521   */\n      add\n        /* \"#utility.yul\":3494:3500   */\n      dup5\n        /* \"#utility.yul\":3450:3522   */\n      tag_108\n      jump\t// in\n    tag_130:\n        /* \"#utility.yul\":3323:3529   */\n      swap4\n      swap3\n      pop\n      pop\n      pop\n      jump\t// out\n        /* \"#utility.yul\":3535:3977   */\n    tag_33:\n      0x00\n        /* \"#utility.yul\":3722:3724   */\n      0x60\n        /* \"#utility.yul\":3711:3720   */\n      dup3\n        /* \"#utility.yul\":3707:3725   */\n      add\n        /* \"#utility.yul\":3699:3725   */\n      swap1\n      pop\n        /* \"#utility.yul\":3735:3806   */\n      tag_132\n        /* \"#utility.yul\":3803:3804   */\n      0x00\n        /* \"#utility.yul\":3792:3801   */\n      dup4\n        /* \"#utility.yul\":3788:3805   */\n      add\n        /* \"#utility.yul\":3779:3785   */\n      dup7\n        /* \"#utility.yul\":3735:3806   */\n      tag_108\n      jump\t// in\n    tag_132:\n        /* \"#utility.yul\":3816:3888   */\n      tag_133\n        /* \"#utility.yul\":3884:3886   */\n      0x20\n        /* \"#utility.yul\":3873:3882   */\n      dup4\n        /* \"#utility.yul\":3869:3887   */\n      add\n        /* \"#utility.yul\":3860:3866   */\n      dup6\n        /* \"#utility.yul\":3816:3888   */\n      tag_108\n      jump\t// in\n    tag_133:\n        /* \"#utility.yul\":3898:3970   */\n      tag_134\n        /* \"#utility.yul\":3966:3968   */\n      0x40\n        /* \"#utility.yul\":3955:3964   */\n      dup4\n        /* \"#utility.yul\":3951:3969   */\n      add\n        /* \"#utility.yul\":3942:3948   */\n      dup5\n        /* \"#utility.yul\":3898:3970   */\n      tag_108\n      jump\t// in\n    tag_134:\n        /* \"#utility.yul\":3689:3977   */\n      swap5\n      swap4\n      pop\n      pop\n      pop\n      pop\n      jump\t// out\n        /* \"#utility.yul\":3983:4536   */\n    tag_72:\n      0x00\n        /* \"#utility.yul\":4198:4201   */\n      0x80\n        /* \"#utility.yul\":4187:4196   */\n      dup3\n        /* \"#utility.yul\":4183:4202   */\n      add\n        /* \"#utility.yul\":4175:4202   */\n      swap1\n      pop\n        /* \"#utility.yul\":4212:4283   */\n      tag_136\n        /* \"#utility.yul\":4280:4281   */\n      0x00\n        /* \"#utility.yul\":4269:4278   */\n      dup4\n        /* \"#utility.yul\":4265:4282   */\n      add\n        /* \"#utility.yul\":4256:4262   */\n      dup8\n        /* \"#utility.yul\":4212:4283   */\n      tag_108\n      jump\t// in\n    tag_136:\n        /* \"#utility.yul\":4293:4365   */\n      tag_137\n        /* \"#utility.yul\":4361:4363   */\n      0x20\n        /* \"#utility.yul\":4350:4359   */\n      dup4\n        /* \"#utility.yul\":4346:4364   */\n      add\n        /* \"#utility.yul\":4337:4343   */\n      dup7\n        /* \"#utility.yul\":4293:4365   */\n      tag_108\n      jump\t// in\n    tag_137:\n        /* \"#utility.yul\":4375:4447   */\n      tag_138\n        /* \"#utility.yul\":4443:4445   */\n      0x40\n        /* \"#utility.yul\":4432:4441   */\n      dup4\n        /* \"#utility.yul\":4428:4446   */\n      add\n        /* \"#utility.yul\":4419:4425   */\n      dup6\n        /* \"#utility.yul\":4375:4447   */\n      tag_108\n      jump\t// in\n    tag_138:\n        /* \"#utility.yul\":4457:4529   */\n      tag_139\n        /* \"#utility.yul\":4525:4527   */\n      0x60\n        /* \"#utility.yul\":4514:4523   */\n      dup4\n        /* \"#utility.yul\":4510:4528   */\n      add\n        /* \"#utility.yul\":4501:4507   */\n      dup5\n        /* \"#utility.yul\":4457:4529   */\n      tag_108\n      jump\t// in\n    tag_139:\n        /* \"#utility.yul\":4165:4536   */\n      swap6\n      swap5\n      pop\n      pop\n      pop\n      pop\n      pop\n      jump\t// out\n        /* \"#utility.yul\":4542:5198   */\n    tag_77:\n      0x00\n        /* \"#utility.yul\":4781:4784   */\n      0xa0\n        /* \"#utility.yul\":4770:4779   */\n      dup3\n        /* \"#utility.yul\":4766:4785   */\n      add\n        /* \"#utility.yul\":4758:4785   */\n      swap1\n      pop\n        /* \"#utility.yul\":4795:4866   */\n      tag_141\n        /* \"#utility.yul\":4863:4864   */\n      0x00\n        /* \"#utility.yul\":4852:4861   */\n      dup4\n        /* \"#utility.yul\":4848:4865   */\n      add\n        /* \"#utility.yul\":4839:4845   */\n      dup9\n        /* \"#utility.yul\":4795:4866   */\n      tag_108\n      jump\t// in\n    tag_141:\n        /* \"#utility.yul\":4876:4948   */\n      tag_142\n        /* \"#utility.yul\":4944:4946   */\n      0x20\n        /* \"#utility.yul\":4933:4942   */\n      dup4\n        /* \"#utility.yul\":4929:4947   */\n      add\n        /* \"#utility.yul\":4920:4926   */\n      dup8\n        /* \"#utility.yul\":4876:4948   */\n      tag_108\n      jump\t// in\n    tag_142:\n        /* \"#utility.yul\":4958:5030   */\n      tag_143\n        /* \"#utility.yul\":5026:5028   */\n      0x40\n        /* \"#utility.yul\":5015:5024   */\n      dup4\n        /* \"#utility.yul\":5011:5029   */\n      add\n        /* \"#utility.yul\":5002:5008   */\n      dup7\n        /* \"#utility.yul\":4958:5030   */\n      tag_108\n      jump\t// in\n    tag_143:\n        /* \"#utility.yul\":5040:5112   */\n      tag_144\n        /* \"#utility.yul\":5108:5110   */\n      0x60\n        /* \"#utility.yul\":5097:5106   */\n      dup4\n        /* \"#utility.yul\":5093:5111   */\n      add\n        /* \"#utility.yul\":5084:5090   */\n      dup6\n        /* \"#utility.yul\":5040:5112   */\n      tag_108\n      jump\t// in\n    tag_144:\n        /* \"#utility.yul\":5122:5191   */\n      tag_145\n        /* \"#utility.yul\":5186:5189   */\n      0x80\n        /* \"#utility.yul\":5175:5184   */\n      dup4\n        /* \"#utility.yul\":5171:5190   */\n      add\n        /* \"#utility.yul\":5162:5168   */\n      dup5\n        /* \"#utility.yul\":5122:5191   */\n      tag_112\n      jump\t// in\n    tag_145:\n        /* \"#utility.yul\":4748:5198   */\n      swap7\n      swap6\n      pop\n      pop\n      pop\n      pop\n      pop\n      pop\n      jump\t// out\n        /* \"#utility.yul\":5204:5300   */\n    tag_103:\n      0x00\n        /* \"#utility.yul\":5270:5294   */\n      tag_147\n        /* \"#utility.yul\":5288:5293   */\n      dup3\n        /* \"#utility.yul\":5270:5294   */\n      tag_148\n      jump\t// in\n    tag_147:\n        /* \"#utility.yul\":5259:5294   */\n      swap1\n      pop\n        /* \"#utility.yul\":5249:5300   */\n      swap2\n      swap1\n      pop\n      jump\t// out\n        /* \"#utility.yul\":5306:5396   */\n    tag_107:\n      0x00\n        /* \"#utility.yul\":5383:5388   */\n      dup2\n        /* \"#utility.yul\":5376:5389   */\n      iszero\n        /* \"#utility.yul\":5369:5390   */\n      iszero\n        /* \"#utility.yul\":5358:5390   */\n      swap1\n      pop\n        /* \"#utility.yul\":5348:5396   */\n      swap2\n      swap1\n      pop\n      jump\t// out\n        /* \"#utility.yul\":5402:5528   */\n    tag_148:\n      0x00\n        /* \"#utility.yul\":5479:5521   */\n      0xffffffffffffffffffffffffffffffffffffffff\n        /* \"#utility.yul\":5472:5477   */\n      dup3\n        /* \"#utility.yul\":5468:5522   */\n      and\n        /* \"#utility.yul\":5457:5522   */\n      swap1\n      pop\n        /* \"#utility.yul\":5447:5528   */\n      swap2\n      swap1\n      pop\n      jump\t// out\n        /* \"#utility.yul\":5534:5611   */\n    tag_111:\n      0x00\n        /* \"#utility.yul\":5600:5605   */\n      dup2\n        /* \"#utility.yul\":5589:5605   */\n      swap1\n      pop\n        /* \"#utility.yul\":5579:5611   */\n      swap2\n      swap1\n      pop\n      jump\t// out\n        /* \"#utility.yul\":5617:5703   */\n    tag_115:\n      0x00\n        /* \"#utility.yul\":5692:5696   */\n      0xff\n        /* \"#utility.yul\":5685:5690   */\n      dup3\n        /* \"#utility.yul\":5681:5697   */\n      and\n        /* \"#utility.yul\":5670:5697   */\n      swap1\n      pop\n        /* \"#utility.yul\":5660:5703   */\n      swap2\n      swap1\n      pop\n      jump\t// out\n        /* \"#utility.yul\":5709:5831   */\n    tag_84:\n        /* \"#utility.yul\":5782:5806   */\n      tag_154\n        /* \"#utility.yul\":5800:5805   */\n      dup2\n        /* \"#utility.yul\":5782:5806   */\n      tag_103\n      jump\t// in\n    tag_154:\n        /* \"#utility.yul\":5775:5780   */\n      dup2\n        /* \"#utility.yul\":5772:5807   */\n      eq\n        /* \"#utility.yul\":5762:5764   */\n      tag_155\n      jumpi\n        /* \"#utility.yul\":5821:5822   */\n      0x00\n        /* \"#utility.yul\":5818:5819   */\n      dup1\n        /* \"#utility.yul\":5811:5823   */\n      revert\n        /* \"#utility.yul\":5762:5764   */\n    tag_155:\n        /* \"#utility.yul\":5752:5831   */\n      pop\n      jump\t// out\n        /* \"#utility.yul\":5837:5959   */\n    tag_88:\n        /* \"#utility.yul\":5910:5934   */\n      tag_157\n        /* \"#utility.yul\":5928:5933   */\n      dup2\n        /* \"#utility.yul\":5910:5934   */\n      tag_111\n      jump\t// in\n    tag_157:\n        /* \"#utility.yul\":5903:5908   */\n      dup2\n        /* \"#utility.yul\":5900:5935   */\n      eq\n        /* \"#utility.yul\":5890:5892   */\n      tag_158\n      jumpi\n        /* \"#utility.yul\":5949:5950   */\n      0x00\n        /* \"#utility.yul\":5946:5947   */\n      dup1\n        /* \"#utility.yul\":5939:5951   */\n      revert\n        /* \"#utility.yul\":5890:5892   */\n    tag_158:\n        /* \"#utility.yul\":5880:5959   */\n      pop\n      jump\t// out\n\n    auxdata: 0xa26469706673582212206c5a92a4ee225f8e6c253614206f4aa2d9dfbb1c0d67409c069f16fae492bd8f64736f6c63430008010033\n}\n",
				"bytecode": {
					"linkReferences": {},
					"object": "608060405234801561001057600080fd5b506108d9806100206000396000f3fe608060405234801561001057600080fd5b50600436106100cf5760003560e01c806388e53ec81161008c578063c22127a911610066578063c22127a914610267578063e7702d0514610297578063f86bcb9b146102b5578063fe143615146102e8576100cf565b806388e53ec8146101e85780638eff352114610219578063a20baee614610249576100cf565b80630cd6a4bc146100d45780631f037096146101055780632235410d14610138578063386136901461016a57806352289738146101885780637bc9ec23146101b8575b600080fd5b6100ee60048036038101906100e9919061061f565b61031c565b6040516100fc92919061069f565b60405180910390f35b61011f600480360381019061011a919061061f565b61035a565b60405161012f94939291906106e3565b60405180910390f35b610152600480360381019061014d919061061f565b6103d7565b60405161016193929190610751565b60405180910390f35b610172610401565b60405161017f9190610684565b60405180910390f35b6101a2600480360381019061019d91906105a7565b610425565b6040516101af91906106c8565b60405180910390f35b6101d260048036038101906101cd91906105e3565b61044a565b6040516101df9190610684565b60405180910390f35b61020260048036038101906101fd919061061f565b610498565b604051610210929190610728565b60405180910390f35b610233600480360381019061022e919061061f565b6104bc565b60405161024091906106c8565b60405180910390f35b6102516104da565b60405161025e91906106c8565b60405180910390f35b610281600480360381019061027c919061061f565b6104e6565b60405161028e91906106c8565b60405180910390f35b61029f610504565b6040516102ac91906106c8565b60405180910390f35b6102cf60048036038101906102ca919061061f565b61050a565b6040516102df9493929190610788565b60405180910390f35b61030260048036038101906102fd919061061f565b61053a565b6040516103139594939291906107cd565b60405180910390f35b60036020528060005260406000206000915090508060000160009054906101000a900460ff16908060000160019054906101000a900460ff16905082565b60026020528060005260406000206000915090508060000154908060010160009054906101000a900473ffffffffffffffffffffffffffffffffffffffff16908060020160009054906101000a900473ffffffffffffffffffffffffffffffffffffffff16908060020160149054906101000a900460ff16905084565b60086020528060005260406000206000915090508060000154908060010154908060020154905083565b60008054906101000a900473ffffffffffffffffffffffffffffffffffffffff1681565b600a602052816000526040600020602052806000526040600020600091509150505481565b600b602052816000526040600020818154811061046657600080fd5b906000526020600020016000915091509054906101000a900473ffffffffffffffffffffffffffffffffffffffff1681565b60096020528060005260406000206000915090508060000154908060010154905082565b60076020528060005260406000206000915090508060000154905081565b670de0b6b3a764000081565b60056020528060005260406000206000915090508060000154905081565b60015481565b60066020528060005260406000206000915090508060000154908060010154908060020154908060030154905084565b60046020528060005260406000206000915090508060000154908060010154908060020154908060030154908060040160009054906101000a900460ff16905085565b60008135905061058c81610875565b92915050565b6000813590506105a18161088c565b92915050565b600080604083850312156105ba57600080fd5b60006105c88582860161057d565b92505060206105d98582860161057d565b9150509250929050565b600080604083850312156105f657600080fd5b60006106048582860161057d565b925050602061061585828601610592565b9150509250929050565b60006020828403121561063157600080fd5b600061063f84828501610592565b91505092915050565b61065181610820565b82525050565b61066081610832565b82525050565b61066f8161085e565b82525050565b61067e81610868565b82525050565b60006020820190506106996000830184610648565b92915050565b60006040820190506106b46000830185610657565b6106c16020830184610675565b9392505050565b60006020820190506106dd6000830184610666565b92915050565b60006080820190506106f86000830187610666565b6107056020830186610648565b6107126040830185610648565b61071f6060830184610675565b95945050505050565b600060408201905061073d6000830185610666565b61074a6020830184610666565b9392505050565b60006060820190506107666000830186610666565b6107736020830185610666565b6107806040830184610666565b949350505050565b600060808201905061079d6000830187610666565b6107aa6020830186610666565b6107b76040830185610666565b6107c46060830184610666565b95945050505050565b600060a0820190506107e26000830188610666565b6107ef6020830187610666565b6107fc6040830186610666565b6108096060830185610666565b6108166080830184610675565b9695505050505050565b600061082b8261083e565b9050919050565b60008115159050919050565b600073ffffffffffffffffffffffffffffffffffffffff82169050919050565b6000819050919050565b600060ff82169050919050565b61087e81610820565b811461088957600080fd5b50565b6108958161085e565b81146108a057600080fd5b5056fea26469706673582212206c5a92a4ee225f8e6c253614206f4aa2d9dfbb1c0d67409c069f16fae492bd8f64736f6c63430008010033",
					"opcodes": "PUSH1 0x80 PUSH1 0x40 MSTORE CALLVALUE DUP1 ISZERO PUSH2 0x10 JUMPI PUSH1 0x0 DUP1 REVERT JUMPDEST POP PUSH2 0x8D9 DUP1 PUSH2 0x20 PUSH1 0x0 CODECOPY PUSH1 0x0 RETURN INVALID PUSH1 0x80 PUSH1 0x40 MSTORE CALLVALUE DUP1 ISZERO PUSH2 0x10 JUMPI PUSH1 0x0 DUP1 REVERT JUMPDEST POP PUSH1 0x4 CALLDATASIZE LT PUSH2 0xCF JUMPI PUSH1 0x0 CALLDATALOAD PUSH1 0xE0 SHR DUP1 PUSH4 0x88E53EC8 GT PUSH2 0x8C JUMPI DUP1 PUSH4 0xC22127A9 GT PUSH2 0x66 JUMPI DUP1 PUSH4 0xC22127A9 EQ PUSH2 0x267 JUMPI DUP1 PUSH4 0xE7702D05 EQ PUSH2 0x297 JUMPI DUP1 PUSH4 0xF86BCB9B EQ PUSH2 0x2B5 JUMPI DUP1 PUSH4 0xFE143615 EQ PUSH2 0x2E8 JUMPI PUSH2 0xCF JUMP JUMPDEST DUP1 PUSH4 0x88E53EC8 EQ PUSH2 0x1E8 JUMPI DUP1 PUSH4 0x8EFF3521 EQ PUSH2 0x219 JUMPI DUP1 PUSH4 0xA20BAEE6 EQ PUSH2 0x249 JUMPI PUSH2 0xCF JUMP JUMPDEST DUP1 PUSH4 0xCD6A4BC EQ PUSH2 0xD4 JUMPI DUP1 PUSH4 0x1F037096 EQ PUSH2 0x105 JUMPI DUP1 PUSH4 0x2235410D EQ PUSH2 0x138 JUMPI DUP1 PUSH4 0x38613690 EQ PUSH2 0x16A JUMPI DUP1 PUSH4 0x52289738 EQ PUSH2 0x188 JUMPI DUP1 PUSH4 0x7BC9EC23 EQ PUSH2 0x1B8 JUMPI JUMPDEST PUSH1 0x0 DUP1 REVERT JUMPDEST PUSH2 0xEE PUSH1 0x4 DUP1 CALLDATASIZE SUB DUP2 ADD SWAP1 PUSH2 0xE9 SWAP2 SWAP1 PUSH2 0x61F JUMP JUMPDEST PUSH2 0x31C JUMP JUMPDEST PUSH1 0x40 MLOAD PUSH2 0xFC SWAP3 SWAP2 SWAP1 PUSH2 0x69F JUMP JUMPDEST PUSH1 0x40 MLOAD DUP1 SWAP2 SUB SWAP1 RETURN JUMPDEST PUSH2 0x11F PUSH1 0x4 DUP1 CALLDATASIZE SUB DUP2 ADD SWAP1 PUSH2 0x11A SWAP2 SWAP1 PUSH2 0x61F JUMP JUMPDEST PUSH2 0x35A JUMP JUMPDEST PUSH1 0x40 MLOAD PUSH2 0x12F SWAP5 SWAP4 SWAP3 SWAP2 SWAP1 PUSH2 0x6E3 JUMP JUMPDEST PUSH1 0x40 MLOAD DUP1 SWAP2 SUB SWAP1 RETURN JUMPDEST PUSH2 0x152 PUSH1 0x4 DUP1 CALLDATASIZE SUB DUP2 ADD SWAP1 PUSH2 0x14D SWAP2 SWAP1 PUSH2 0x61F JUMP JUMPDEST PUSH2 0x3D7 JUMP JUMPDEST PUSH1 0x40 MLOAD PUSH2 0x161 SWAP4 SWAP3 SWAP2 SWAP1 PUSH2 0x751 JUMP JUMPDEST PUSH1 0x40 MLOAD DUP1 SWAP2 SUB SWAP1 RETURN JUMPDEST PUSH2 0x172 PUSH2 0x401 JUMP JUMPDEST PUSH1 0x40 MLOAD PUSH2 0x17F SWAP2 SWAP1 PUSH2 0x684 JUMP JUMPDEST PUSH1 0x40 MLOAD DUP1 SWAP2 SUB SWAP1 RETURN JUMPDEST PUSH2 0x1A2 PUSH1 0x4 DUP1 CALLDATASIZE SUB DUP2 ADD SWAP1 PUSH2 0x19D SWAP2 SWAP1 PUSH2 0x5A7 JUMP JUMPDEST PUSH2 0x425 JUMP JUMPDEST PUSH1 0x40 MLOAD PUSH2 0x1AF SWAP2 SWAP1 PUSH2 0x6C8 JUMP JUMPDEST PUSH1 0x40 MLOAD DUP1 SWAP2 SUB SWAP1 RETURN JUMPDEST PUSH2 0x1D2 PUSH1 0x4 DUP1 CALLDATASIZE SUB DUP2 ADD SWAP1 PUSH2 0x1CD SWAP2 SWAP1 PUSH2 0x5E3 JUMP JUMPDEST PUSH2 0x44A JUMP JUMPDEST PUSH1 0x40 MLOAD PUSH2 0x1DF SWAP2 SWAP1 PUSH2 0x684 JUMP JUMPDEST PUSH1 0x40 MLOAD DUP1 SWAP2 SUB SWAP1 RETURN JUMPDEST PUSH2 0x202 PUSH1 0x4 DUP1 CALLDATASIZE SUB DUP2 ADD SWAP1 PUSH2 0x1FD SWAP2 SWAP1 PUSH2 0x61F JUMP JUMPDEST PUSH2 0x498 JUMP JUMPDEST PUSH1 0x40 MLOAD PUSH2 0x210 SWAP3 SWAP2 SWAP1 PUSH2 0x728 JUMP JUMPDEST PUSH1 0x40 MLOAD DUP1 SWAP2 SUB SWAP1 RETURN JUMPDEST PUSH2 0x233 PUSH1 0x4 DUP1 CALLDATASIZE SUB DUP2 ADD SWAP1 PUSH2 0x22E SWAP2 SWAP1 PUSH2 0x61F JUMP JUMPDEST PUSH2 0x4BC JUMP JUMPDEST PUSH1 0x40 MLOAD PUSH2 0x240 SWAP2 SWAP1 PUSH2 0x6C8 JUMP JUMPDEST PUSH1 0x40 MLOAD DUP1 SWAP2 SUB SWAP1 RETURN JUMPDEST PUSH2 0x251 PUSH2 0x4DA JUMP JUMPDEST PUSH1 0x40 MLOAD PUSH2 0x25E SWAP2 SWAP1 PUSH2 0x6C8 JUMP JUMPDEST PUSH1 0x40 MLOAD DUP1 SWAP2 SUB SWAP1 RETURN JUMPDEST PUSH2 0x281 PUSH1 0x4 DUP1 CALLDATASIZE SUB DUP2 ADD SWAP1 PUSH2 0x27C SWAP2 SWAP1 PUSH2 0x61F JUMP JUMPDEST PUSH2 0x4E6 JUMP JUMPDEST PUSH1 0x40 MLOAD PUSH2 0x28E SWAP2 SWAP1 PUSH2 0x6C8 JUMP JUMPDEST PUSH1 0x40 MLOAD DUP1 SWAP2 SUB SWAP1 RETURN JUMPDEST PUSH2 0x29F PUSH2 0x504 JUMP JUMPDEST PUSH1 0x40 MLOAD PUSH2 0x2AC SWAP2 SWAP1 PUSH2 0x6C8 JUMP JUMPDEST PUSH1 0x40 MLOAD DUP1 SWAP2 SUB SWAP1 RETURN JUMPDEST PUSH2 0x2CF PUSH1 0x4 DUP1 CALLDATASIZE SUB DUP2 ADD SWAP1 PUSH2 0x2CA SWAP2 SWAP1 PUSH2 0x61F JUMP JUMPDEST PUSH2 0x50A JUMP JUMPDEST PUSH1 0x40 MLOAD PUSH2 0x2DF SWAP5 SWAP4 SWAP3 SWAP2 SWAP1 PUSH2 0x788 JUMP JUMPDEST PUSH1 0x40 MLOAD DUP1 SWAP2 SUB SWAP1 RETURN JUMPDEST PUSH2 0x302 PUSH1 0x4 DUP1 CALLDATASIZE SUB DUP2 ADD SWAP1 PUSH2 0x2FD SWAP2 SWAP1 PUSH2 0x61F JUMP JUMPDEST PUSH2 0x53A JUMP JUMPDEST PUSH1 0x40 MLOAD PUSH2 0x313 SWAP6 SWAP5 SWAP4 SWAP3 SWAP2 SWAP1 PUSH2 0x7CD JUMP JUMPDEST PUSH1 0x40 MLOAD DUP1 SWAP2 SUB SWAP1 RETURN JUMPDEST PUSH1 0x3 PUSH1 0x20 MSTORE DUP1 PUSH1 0x0 MSTORE PUSH1 0x40 PUSH1 0x0 KECCAK256 PUSH1 0x0 SWAP2 POP SWAP1 POP DUP1 PUSH1 0x0 ADD PUSH1 0x0 SWAP1 SLOAD SWAP1 PUSH2 0x100 EXP SWAP1 DIV PUSH1 0xFF AND SWAP1 DUP1 PUSH1 0x0 ADD PUSH1 0x1 SWAP1 SLOAD SWAP1 PUSH2 0x100 EXP SWAP1 DIV PUSH1 0xFF AND SWAP1 POP DUP3 JUMP JUMPDEST PUSH1 0x2 PUSH1 0x20 MSTORE DUP1 PUSH1 0x0 MSTORE PUSH1 0x40 PUSH1 0x0 KECCAK256 PUSH1 0x0 SWAP2 POP SWAP1 POP DUP1 PUSH1 0x0 ADD SLOAD SWAP1 DUP1 PUSH1 0x1 ADD PUSH1 0x0 SWAP1 SLOAD SWAP1 PUSH2 0x100 EXP SWAP1 DIV PUSH20 0xFFFFFFFFFFFFFFFFFFFFFFFFFFFFFFFFFFFFFFFF AND SWAP1 DUP1 PUSH1 0x2 ADD PUSH1 0x0 SWAP1 SLOAD SWAP1 PUSH2 0x100 EXP SWAP1 DIV PUSH20 0xFFFFFFFFFFFFFFFFFFFFFFFFFFFFFFFFFFFFFFFF AND SWAP1 DUP1 PUSH1 0x2 ADD PUSH1 0x14 SWAP1 SLOAD SWAP1 PUSH2 0x100 EXP SWAP1 DIV PUSH1 0xFF AND SWAP1 POP DUP5 JUMP JUMPDEST PUSH1 0x8 PUSH1 0x20 MSTORE DUP1 PUSH1 0x0 MSTORE PUSH1 0x40 PUSH1 0x0 KECCAK256 PUSH1 0x0 SWAP2 POP SWAP1 POP DUP1 PUSH1 0x0 ADD SLOAD SWAP1 DUP1 PUSH1 0x1 ADD SLOAD SWAP1 DUP1 PUSH1 0x2 ADD SLOAD SWAP1 POP DUP4 JUMP JUMPDEST PUSH1 0x0 DUP1 SLOAD SWAP1 PUSH2 0x100 EXP SWAP1 DIV PUSH20 0xFFFFFFFFFFFFFFFFFFFFFFFFFFFFFFFFFFFFFFFF AND DUP2 JUMP JUMPDEST PUSH1 0xA PUSH1 0x20 MSTORE DUP2 PUSH1 0x0 MSTORE PUSH1 0x40 PUSH1 0x0 KECCAK256 PUSH1 0x20 MSTORE DUP1 PUSH1 0x0 MSTORE PUSH1 0x40 PUSH1 0x0 KECCAK256 PUSH1 0x0 SWAP2 POP SWAP2 POP POP SLOAD DUP2 JUMP JUMPDEST PUSH1 0xB PUSH1 0x20 MSTORE DUP2 PUSH1 0x0 MSTORE PUSH1 0x40 PUSH1 0x0 KECCAK256 DUP2 DUP2 SLOAD DUP2 LT PUSH2 0x466 JUMPI PUSH1 0x0 DUP1 REVERT JUMPDEST SWAP1 PUSH1 0x0 MSTORE PUSH1 0x20 PUSH1 0x0 KECCAK256 ADD PUSH1 0x0 SWAP2 POP SWAP2 POP SWAP1 SLOAD SWAP1 PUSH2 0x100 EXP SWAP1 DIV PUSH20 0xFFFFFFFFFFFFFFFFFFFFFFFFFFFFFFFFFFFFFFFF AND DUP2 JUMP JUMPDEST PUSH1 0x9 PUSH1 0x20 MSTORE DUP1 PUSH1 0x0 MSTORE PUSH1 0x40 PUSH1 0x0 KECCAK256 PUSH1 0x0 SWAP2 POP SWAP1 POP DUP1 PUSH1 0x0 ADD SLOAD SWAP1 DUP1 PUSH1 0x1 ADD SLOAD SWAP1 POP DUP3 JUMP JUMPDEST PUSH1 0x7 PUSH1 0x20 MSTORE DUP1 PUSH1 0x0 MSTORE PUSH1 0x40 PUSH1 0x0 KECCAK256 PUSH1 0x0 SWAP2 POP SWAP1 POP DUP1 PUSH1 0x0 ADD SLOAD SWAP1 POP DUP2 JUMP JUMPDEST PUSH8 0xDE0B6B3A7640000 DUP2 JUMP JUMPDEST PUSH1 0x5 PUSH1 0x20 MSTORE DUP1 PUSH1 0x0 MSTORE PUSH1 0x40 PUSH1 0x0 KECCAK256 PUSH1 0x0 SWAP2 POP SWAP1 POP DUP1 PUSH1 0x0 ADD SLOAD SWAP1 POP DUP2 JUMP JUMPDEST PUSH1 0x1 SLOAD DUP2 JUMP JUMPDEST PUSH1 0x6 PUSH1 0x20 MSTORE DUP1 PUSH1 0x0 MSTORE PUSH1 0x40 PUSH1 0x0 KECCAK256 PUSH1 0x0 SWAP2 POP SWAP1 POP DUP1 PUSH1 0x0 ADD SLOAD SWAP1 DUP1 PUSH1 0x1 ADD SLOAD SWAP1 DUP1 PUSH1 0x2 ADD SLOAD SWAP1 DUP1 PUSH1 0x3 ADD SLOAD SWAP1 POP DUP5 JUMP JUMPDEST PUSH1 0x4 PUSH1 0x20 MSTORE DUP1 PUSH1 0x0 MSTORE PUSH1 0x40 PUSH1 0x0 KECCAK256 PUSH1 0x0 SWAP2 POP SWAP1 POP DUP1 PUSH1 0x0 ADD SLOAD SWAP1 DUP1 PUSH1 0x1 ADD SLOAD SWAP1 DUP1 PUSH1 0x2 ADD SLOAD SWAP1 DUP1 PUSH1 0x3 ADD SLOAD SWAP1 DUP1 PUSH1 0x4 ADD PUSH1 0x0 SWAP1 SLOAD SWAP1 PUSH2 0x100 EXP SWAP1 DIV PUSH1 0xFF AND SWAP1 POP DUP6 JUMP JUMPDEST PUSH1 0x0 DUP2 CALLDATALOAD SWAP1 POP PUSH2 0x58C DUP2 PUSH2 0x875 JUMP JUMPDEST SWAP3 SWAP2 POP POP JUMP JUMPDEST PUSH1 0x0 DUP2 CALLDATALOAD SWAP1 POP PUSH2 0x5A1 DUP2 PUSH2 0x88C JUMP JUMPDEST SWAP3 SWAP2 POP POP JUMP JUMPDEST PUSH1 0x0 DUP1 PUSH1 0x40 DUP4 DUP6 SUB SLT ISZERO PUSH2 0x5BA JUMPI PUSH1 0x0 DUP1 REVERT JUMPDEST PUSH1 0x0 PUSH2 0x5C8 DUP6 DUP3 DUP7 ADD PUSH2 0x57D JUMP JUMPDEST SWAP3 POP POP PUSH1 0x20 PUSH2 0x5D9 DUP6 DUP3 DUP7 ADD PUSH2 0x57D JUMP JUMPDEST SWAP2 POP POP SWAP3 POP SWAP3 SWAP1 POP JUMP JUMPDEST PUSH1 0x0 DUP1 PUSH1 0x40 DUP4 DUP6 SUB SLT ISZERO PUSH2 0x5F6 JUMPI PUSH1 0x0 DUP1 REVERT JUMPDEST PUSH1 0x0 PUSH2 0x604 DUP6 DUP3 DUP7 ADD PUSH2 0x57D JUMP JUMPDEST SWAP3 POP POP PUSH1 0x20 PUSH2 0x615 DUP6 DUP3 DUP7 ADD PUSH2 0x592 JUMP JUMPDEST SWAP2 POP POP SWAP3 POP SWAP3 SWAP1 POP JUMP JUMPDEST PUSH1 0x0 PUSH1 0x20 DUP3 DUP5 SUB SLT ISZERO PUSH2 0x631 JUMPI PUSH1 0x0 DUP1 REVERT JUMPDEST PUSH1 0x0 PUSH2 0x63F DUP5 DUP3 DUP6 ADD PUSH2 0x592 JUMP JUMPDEST SWAP2 POP POP SWAP3 SWAP2 POP POP JUMP JUMPDEST PUSH2 0x651 DUP2 PUSH2 0x820 JUMP JUMPDEST DUP3 MSTORE POP POP JUMP JUMPDEST PUSH2 0x660 DUP2 PUSH2 0x832 JUMP JUMPDEST DUP3 MSTORE POP POP JUMP JUMPDEST PUSH2 0x66F DUP2 PUSH2 0x85E JUMP JUMPDEST DUP3 MSTORE POP POP JUMP JUMPDEST PUSH2 0x67E DUP2 PUSH2 0x868 JUMP JUMPDEST DUP3 MSTORE POP POP JUMP JUMPDEST PUSH1 0x0 PUSH1 0x20 DUP3 ADD SWAP1 POP PUSH2 0x699 PUSH1 0x0 DUP4 ADD DUP5 PUSH2 0x648 JUMP JUMPDEST SWAP3 SWAP2 POP POP JUMP JUMPDEST PUSH1 0x0 PUSH1 0x40 DUP3 ADD SWAP1 POP PUSH2 0x6B4 PUSH1 0x0 DUP4 ADD DUP6 PUSH2 0x657 JUMP JUMPDEST PUSH2 0x6C1 PUSH1 0x20 DUP4 ADD DUP5 PUSH2 0x675 JUMP JUMPDEST SWAP4 SWAP3 POP POP POP JUMP JUMPDEST PUSH1 0x0 PUSH1 0x20 DUP3 ADD SWAP1 POP PUSH2 0x6DD PUSH1 0x0 DUP4 ADD DUP5 PUSH2 0x666 JUMP JUMPDEST SWAP3 SWAP2 POP POP JUMP JUMPDEST PUSH1 0x0 PUSH1 0x80 DUP3 ADD SWAP1 POP PUSH2 0x6F8 PUSH1 0x0 DUP4 ADD DUP8 PUSH2 0x666 JUMP JUMPDEST PUSH2 0x705 PUSH1 0x20 DUP4 ADD DUP7 PUSH2 0x648 JUMP JUMPDEST PUSH2 0x712 PUSH1 0x40 DUP4 ADD DUP6 PUSH2 0x648 JUMP JUMPDEST PUSH2 0x71F PUSH1 0x60 DUP4 ADD DUP5 PUSH2 0x675 JUMP JUMPDEST SWAP6 SWAP5 POP POP POP POP POP JUMP JUMPDEST PUSH1 0x0 PUSH1 0x40 DUP3 ADD SWAP1 POP PUSH2 0x73D PUSH1 0x0 DUP4 ADD DUP6 PUSH2 0x666 JUMP JUMPDEST PUSH2 0x74A PUSH1 0x20 DUP4 ADD DUP5 PUSH2 0x666 JUMP JUMPDEST SWAP4 SWAP3 POP POP POP JUMP JUMPDEST PUSH1 0x0 PUSH1 0x60 DUP3 ADD SWAP1 POP PUSH2 0x766 PUSH1 0x0 DUP4 ADD DUP7 PUSH2 0x666 JUMP JUMPDEST PUSH2 0x773 PUSH1 0x20 DUP4 ADD DUP6 PUSH2 0x666 JUMP JUMPDEST PUSH2 0x780 PUSH1 0x40 DUP4 ADD DUP5 PUSH2 0x666 JUMP JUMPDEST SWAP5 SWAP4 POP POP POP POP JUMP JUMPDEST PUSH1 0x0 PUSH1 0x80 DUP3 ADD SWAP1 POP PUSH2 0x79D PUSH1 0x0 DUP4 ADD DUP8 PUSH2 0x666 JUMP JUMPDEST PUSH2 0x7AA PUSH1 0x20 DUP4 ADD DUP7 PUSH2 0x666 JUMP JUMPDEST PUSH2 0x7B7 PUSH1 0x40 DUP4 ADD DUP6 PUSH2 0x666 JUMP JUMPDEST PUSH2 0x7C4 PUSH1 0x60 DUP4 ADD DUP5 PUSH2 0x666 JUMP JUMPDEST SWAP6 SWAP5 POP POP POP POP POP JUMP JUMPDEST PUSH1 0x0 PUSH1 0xA0 DUP3 ADD SWAP1 POP PUSH2 0x7E2 PUSH1 0x0 DUP4 ADD DUP9 PUSH2 0x666 JUMP JUMPDEST PUSH2 0x7EF PUSH1 0x20 DUP4 ADD DUP8 PUSH2 0x666 JUMP JUMPDEST PUSH2 0x7FC PUSH1 0x40 DUP4 ADD DUP7 PUSH2 0x666 JUMP JUMPDEST PUSH2 0x809 PUSH1 0x60 DUP4 ADD DUP6 PUSH2 0x666 JUMP JUMPDEST PUSH2 0x816 PUSH1 0x80 DUP4 ADD DUP5 PUSH2 0x675 JUMP JUMPDEST SWAP7 SWAP6 POP POP POP POP POP POP JUMP JUMPDEST PUSH1 0x0 PUSH2 0x82B DUP3 PUSH2 0x83E JUMP JUMPDEST SWAP1 POP SWAP2 SWAP1 POP JUMP JUMPDEST PUSH1 0x0 DUP2 ISZERO ISZERO SWAP1 POP SWAP2 SWAP1 POP JUMP JUMPDEST PUSH1 0x0 PUSH20 0xFFFFFFFFFFFFFFFFFFFFFFFFFFFFFFFFFFFFFFFF DUP3 AND SWAP1 POP SWAP2 SWAP1 POP JUMP JUMPDEST PUSH1 0x0 DUP2 SWAP1 POP SWAP2 SWAP1 POP JUMP JUMPDEST PUSH1 0x0 PUSH1 0xFF DUP3 AND SWAP1 POP SWAP2 SWAP1 POP JUMP JUMPDEST PUSH2 0x87E DUP2 PUSH2 0x820 JUMP JUMPDEST DUP2 EQ PUSH2 0x889 JUMPI PUSH1 0x0 DUP1 REVERT JUMPDEST POP JUMP JUMPDEST PUSH2 0x895 DUP2 PUSH2 0x85E JUMP JUMPDEST DUP2 EQ PUSH2 0x8A0 JUMPI PUSH1 0x0 DUP1 REVERT JUMPDEST POP JUMP INVALID LOG2 PUSH5 0x6970667358 0x22 SLT KECCAK256 PUSH13 0x5A92A4EE225F8E6C253614206F 0x4A LOG2 0xD9 0xDF 0xBB SHR 0xD PUSH8 0x409C069F16FAE492 0xBD DUP16 PUSH5 0x736F6C6343 STOP ADDMOD ADD STOP CALLER "
				},
				"gasEstimates": {
					"creation": {
						"codeDepositCost": "453000",
						"executionCost": "486",
						"totalCost": "453486"
					},
					"external": {
						"DECIMAL_PRECISION()": "396",
						"agentAddress()": "1278",
						"exitParams(uint256)": "infinite",
						"makerMarginTokens(address,uint256)": "infinite",
						"makerTokenMargin(address,address)": "infinite",
						"margin2(uint256)": "infinite",
						"marginParams1(uint256)": "infinite",
						"openInterest(uint256)": "infinite",
						"positionCore1(uint256)": "infinite",
						"positionCore2(uint256)": "2526",
						"positionCount()": "1173",
						"priceParams1(uint256)": "infinite",
						"priceParams2(uint256)": "infinite"
					},
					"internal": {
						"_checkLiquidityLimitLong(address,uint256,uint8)": "infinite",
						"_checkLiquidityLimitShort(address,uint256,uint8)": "infinite",
						"_computeLoanAndLiquidationLong(uint256,uint256,address,address)": "infinite",
						"_computeLoanAndLiquidationShort(uint256,uint256,address,address)": "infinite",
						"_computePayoutLong(uint256,address,address)": "infinite",
						"_computePayoutShort(uint256,address,address)": "infinite",
						"_deductMarginAndRemoveToken(address,address,uint256,uint256)": "infinite",
						"_executePayoutUpdate(uint256,address,uint256,uint8,address)": "infinite",
						"_transferLiquidityFee(address,address,uint256,uint8)": "infinite",
						"_transferMarginToListing(address,address,address,uint256,uint256,uint256,uint8)": "infinite",
						"computeFee(uint256,uint8)": "infinite",
						"prepCloseLong(uint256,address)": "infinite",
						"prepCloseShort(uint256,address)": "infinite",
						"prepEnterLong(uint256,uint256,uint256,uint256,uint256,uint8,address,address)": "infinite",
						"prepEnterShort(uint256,uint256,uint256,uint256,uint256,uint8,address,address)": "infinite",
						"setExitParams(uint256,uint256,uint256)": "infinite"
					}
				},
				"methodIdentifiers": {
					"DECIMAL_PRECISION()": "a20baee6",
					"agentAddress()": "38613690",
					"exitParams(uint256)": "2235410d",
					"makerMarginTokens(address,uint256)": "7bc9ec23",
					"makerTokenMargin(address,address)": "52289738",
					"margin2(uint256)": "8eff3521",
					"marginParams1(uint256)": "f86bcb9b",
					"openInterest(uint256)": "88e53ec8",
					"positionCore1(uint256)": "1f037096",
					"positionCore2(uint256)": "0cd6a4bc",
					"positionCount()": "e7702d05",
					"priceParams1(uint256)": "fe143615",
					"priceParams2(uint256)": "c22127a9"
				}
			},
			"storageLayout": {
				"storage": [
					{
						"astId": 1641,
						"contract": "ShockSpace/driverUtils/CSDPositionPartial.sol:CSDPositionPartial",
						"label": "agentAddress",
						"offset": 0,
						"slot": "0",
						"type": "t_address"
					},
					{
						"astId": 1643,
						"contract": "ShockSpace/driverUtils/CSDPositionPartial.sol:CSDPositionPartial",
						"label": "positionCount",
						"offset": 0,
						"slot": "1",
						"type": "t_uint256"
					},
					{
						"astId": 1700,
						"contract": "ShockSpace/driverUtils/CSDPositionPartial.sol:CSDPositionPartial",
						"label": "positionCore1",
						"offset": 0,
						"slot": "2",
						"type": "t_mapping(t_uint256,t_struct(PositionCore1)1652_storage)"
					},
					{
						"astId": 1705,
						"contract": "ShockSpace/driverUtils/CSDPositionPartial.sol:CSDPositionPartial",
						"label": "positionCore2",
						"offset": 0,
						"slot": "3",
						"type": "t_mapping(t_uint256,t_struct(PositionCore2)1657_storage)"
					},
					{
						"astId": 1710,
						"contract": "ShockSpace/driverUtils/CSDPositionPartial.sol:CSDPositionPartial",
						"label": "priceParams1",
						"offset": 0,
						"slot": "4",
						"type": "t_mapping(t_uint256,t_struct(PriceParams1)1668_storage)"
					},
					{
						"astId": 1715,
						"contract": "ShockSpace/driverUtils/CSDPositionPartial.sol:CSDPositionPartial",
						"label": "priceParams2",
						"offset": 0,
						"slot": "5",
						"type": "t_mapping(t_uint256,t_struct(PriceParams2)1671_storage)"
					},
					{
						"astId": 1720,
						"contract": "ShockSpace/driverUtils/CSDPositionPartial.sol:CSDPositionPartial",
						"label": "marginParams1",
						"offset": 0,
						"slot": "6",
						"type": "t_mapping(t_uint256,t_struct(MarginParams1)1680_storage)"
					},
					{
						"astId": 1725,
						"contract": "ShockSpace/driverUtils/CSDPositionPartial.sol:CSDPositionPartial",
						"label": "margin2",
						"offset": 0,
						"slot": "7",
						"type": "t_mapping(t_uint256,t_struct(MarginParams2)1683_storage)"
					},
					{
						"astId": 1730,
						"contract": "ShockSpace/driverUtils/CSDPositionPartial.sol:CSDPositionPartial",
						"label": "exitParams",
						"offset": 0,
						"slot": "8",
						"type": "t_mapping(t_uint256,t_struct(ExitParams)1690_storage)"
					},
					{
						"astId": 1735,
						"contract": "ShockSpace/driverUtils/CSDPositionPartial.sol:CSDPositionPartial",
						"label": "openInterest",
						"offset": 0,
						"slot": "9",
						"type": "t_mapping(t_uint256,t_struct(OpenInterest)1695_storage)"
					},
					{
						"astId": 1741,
						"contract": "ShockSpace/driverUtils/CSDPositionPartial.sol:CSDPositionPartial",
						"label": "makerTokenMargin",
						"offset": 0,
						"slot": "10",
						"type": "t_mapping(t_address,t_mapping(t_address,t_uint256))"
					},
					{
						"astId": 1746,
						"contract": "ShockSpace/driverUtils/CSDPositionPartial.sol:CSDPositionPartial",
						"label": "makerMarginTokens",
						"offset": 0,
						"slot": "11",
						"type": "t_mapping(t_address,t_array(t_address)dyn_storage)"
					}
				],
				"types": {
					"t_address": {
						"encoding": "inplace",
						"label": "address",
						"numberOfBytes": "20"
					},
					"t_array(t_address)dyn_storage": {
						"base": "t_address",
						"encoding": "dynamic_array",
						"label": "address[]",
						"numberOfBytes": "32"
					},
					"t_bool": {
						"encoding": "inplace",
						"label": "bool",
						"numberOfBytes": "1"
					},
					"t_mapping(t_address,t_array(t_address)dyn_storage)": {
						"encoding": "mapping",
						"key": "t_address",
						"label": "mapping(address => address[])",
						"numberOfBytes": "32",
						"value": "t_array(t_address)dyn_storage"
					},
					"t_mapping(t_address,t_mapping(t_address,t_uint256))": {
						"encoding": "mapping",
						"key": "t_address",
						"label": "mapping(address => mapping(address => uint256))",
						"numberOfBytes": "32",
						"value": "t_mapping(t_address,t_uint256)"
					},
					"t_mapping(t_address,t_uint256)": {
						"encoding": "mapping",
						"key": "t_address",
						"label": "mapping(address => uint256)",
						"numberOfBytes": "32",
						"value": "t_uint256"
					},
					"t_mapping(t_uint256,t_struct(ExitParams)1690_storage)": {
						"encoding": "mapping",
						"key": "t_uint256",
						"label": "mapping(uint256 => struct CSDUtilityPartial.ExitParams)",
						"numberOfBytes": "32",
						"value": "t_struct(ExitParams)1690_storage"
					},
					"t_mapping(t_uint256,t_struct(MarginParams1)1680_storage)": {
						"encoding": "mapping",
						"key": "t_uint256",
						"label": "mapping(uint256 => struct CSDUtilityPartial.MarginParams1)",
						"numberOfBytes": "32",
						"value": "t_struct(MarginParams1)1680_storage"
					},
					"t_mapping(t_uint256,t_struct(MarginParams2)1683_storage)": {
						"encoding": "mapping",
						"key": "t_uint256",
						"label": "mapping(uint256 => struct CSDUtilityPartial.MarginParams2)",
						"numberOfBytes": "32",
						"value": "t_struct(MarginParams2)1683_storage"
					},
					"t_mapping(t_uint256,t_struct(OpenInterest)1695_storage)": {
						"encoding": "mapping",
						"key": "t_uint256",
						"label": "mapping(uint256 => struct CSDUtilityPartial.OpenInterest)",
						"numberOfBytes": "32",
						"value": "t_struct(OpenInterest)1695_storage"
					},
					"t_mapping(t_uint256,t_struct(PositionCore1)1652_storage)": {
						"encoding": "mapping",
						"key": "t_uint256",
						"label": "mapping(uint256 => struct CSDUtilityPartial.PositionCore1)",
						"numberOfBytes": "32",
						"value": "t_struct(PositionCore1)1652_storage"
					},
					"t_mapping(t_uint256,t_struct(PositionCore2)1657_storage)": {
						"encoding": "mapping",
						"key": "t_uint256",
						"label": "mapping(uint256 => struct CSDUtilityPartial.PositionCore2)",
						"numberOfBytes": "32",
						"value": "t_struct(PositionCore2)1657_storage"
					},
					"t_mapping(t_uint256,t_struct(PriceParams1)1668_storage)": {
						"encoding": "mapping",
						"key": "t_uint256",
						"label": "mapping(uint256 => struct CSDUtilityPartial.PriceParams1)",
						"numberOfBytes": "32",
						"value": "t_struct(PriceParams1)1668_storage"
					},
					"t_mapping(t_uint256,t_struct(PriceParams2)1671_storage)": {
						"encoding": "mapping",
						"key": "t_uint256",
						"label": "mapping(uint256 => struct CSDUtilityPartial.PriceParams2)",
						"numberOfBytes": "32",
						"value": "t_struct(PriceParams2)1671_storage"
					},
					"t_struct(ExitParams)1690_storage": {
						"encoding": "inplace",
						"label": "struct CSDUtilityPartial.ExitParams",
						"members": [
							{
								"astId": 1685,
								"contract": "ShockSpace/driverUtils/CSDPositionPartial.sol:CSDPositionPartial",
								"label": "stopLossPrice",
								"offset": 0,
								"slot": "0",
								"type": "t_uint256"
							},
							{
								"astId": 1687,
								"contract": "ShockSpace/driverUtils/CSDPositionPartial.sol:CSDPositionPartial",
								"label": "takeProfitPrice",
								"offset": 0,
								"slot": "1",
								"type": "t_uint256"
							},
							{
								"astId": 1689,
								"contract": "ShockSpace/driverUtils/CSDPositionPartial.sol:CSDPositionPartial",
								"label": "exitPrice",
								"offset": 0,
								"slot": "2",
								"type": "t_uint256"
							}
						],
						"numberOfBytes": "96"
					},
					"t_struct(MarginParams1)1680_storage": {
						"encoding": "inplace",
						"label": "struct CSDUtilityPartial.MarginParams1",
						"members": [
							{
								"astId": 1673,
								"contract": "ShockSpace/driverUtils/CSDPositionPartial.sol:CSDPositionPartial",
								"label": "initialMargin",
								"offset": 0,
								"slot": "0",
								"type": "t_uint256"
							},
							{
								"astId": 1675,
								"contract": "ShockSpace/driverUtils/CSDPositionPartial.sol:CSDPositionPartial",
								"label": "taxedMargin",
								"offset": 0,
								"slot": "1",
								"type": "t_uint256"
							},
							{
								"astId": 1677,
								"contract": "ShockSpace/driverUtils/CSDPositionPartial.sol:CSDPositionPartial",
								"label": "excessMargin",
								"offset": 0,
								"slot": "2",
								"type": "t_uint256"
							},
							{
								"astId": 1679,
								"contract": "ShockSpace/driverUtils/CSDPositionPartial.sol:CSDPositionPartial",
								"label": "fee",
								"offset": 0,
								"slot": "3",
								"type": "t_uint256"
							}
						],
						"numberOfBytes": "128"
					},
					"t_struct(MarginParams2)1683_storage": {
						"encoding": "inplace",
						"label": "struct CSDUtilityPartial.MarginParams2",
						"members": [
							{
								"astId": 1682,
								"contract": "ShockSpace/driverUtils/CSDPositionPartial.sol:CSDPositionPartial",
								"label": "initialLoan",
								"offset": 0,
								"slot": "0",
								"type": "t_uint256"
							}
						],
						"numberOfBytes": "32"
					},
					"t_struct(OpenInterest)1695_storage": {
						"encoding": "inplace",
						"label": "struct CSDUtilityPartial.OpenInterest",
						"members": [
							{
								"astId": 1692,
								"contract": "ShockSpace/driverUtils/CSDPositionPartial.sol:CSDPositionPartial",
								"label": "leverageAmount",
								"offset": 0,
								"slot": "0",
								"type": "t_uint256"
							},
							{
								"astId": 1694,
								"contract": "ShockSpace/driverUtils/CSDPositionPartial.sol:CSDPositionPartial",
								"label": "timestamp",
								"offset": 0,
								"slot": "1",
								"type": "t_uint256"
							}
						],
						"numberOfBytes": "64"
					},
					"t_struct(PositionCore1)1652_storage": {
						"encoding": "inplace",
						"label": "struct CSDUtilityPartial.PositionCore1",
						"members": [
							{
								"astId": 1645,
								"contract": "ShockSpace/driverUtils/CSDPositionPartial.sol:CSDPositionPartial",
								"label": "positionId",
								"offset": 0,
								"slot": "0",
								"type": "t_uint256"
							},
							{
								"astId": 1647,
								"contract": "ShockSpace/driverUtils/CSDPositionPartial.sol:CSDPositionPartial",
								"label": "listingAddress",
								"offset": 0,
								"slot": "1",
								"type": "t_address"
							},
							{
								"astId": 1649,
								"contract": "ShockSpace/driverUtils/CSDPositionPartial.sol:CSDPositionPartial",
								"label": "makerAddress",
								"offset": 0,
								"slot": "2",
								"type": "t_address"
							},
							{
								"astId": 1651,
								"contract": "ShockSpace/driverUtils/CSDPositionPartial.sol:CSDPositionPartial",
								"label": "positionType",
								"offset": 20,
								"slot": "2",
								"type": "t_uint8"
							}
						],
						"numberOfBytes": "96"
					},
					"t_struct(PositionCore2)1657_storage": {
						"encoding": "inplace",
						"label": "struct CSDUtilityPartial.PositionCore2",
						"members": [
							{
								"astId": 1654,
								"contract": "ShockSpace/driverUtils/CSDPositionPartial.sol:CSDPositionPartial",
								"label": "status1",
								"offset": 0,
								"slot": "0",
								"type": "t_bool"
							},
							{
								"astId": 1656,
								"contract": "ShockSpace/driverUtils/CSDPositionPartial.sol:CSDPositionPartial",
								"label": "status2",
								"offset": 1,
								"slot": "0",
								"type": "t_uint8"
							}
						],
						"numberOfBytes": "32"
					},
					"t_struct(PriceParams1)1668_storage": {
						"encoding": "inplace",
						"label": "struct CSDUtilityPartial.PriceParams1",
						"members": [
							{
								"astId": 1659,
								"contract": "ShockSpace/driverUtils/CSDPositionPartial.sol:CSDPositionPartial",
								"label": "minEntryPrice",
								"offset": 0,
								"slot": "0",
								"type": "t_uint256"
							},
							{
								"astId": 1661,
								"contract": "ShockSpace/driverUtils/CSDPositionPartial.sol:CSDPositionPartial",
								"label": "maxEntryPrice",
								"offset": 0,
								"slot": "1",
								"type": "t_uint256"
							},
							{
								"astId": 1663,
								"contract": "ShockSpace/driverUtils/CSDPositionPartial.sol:CSDPositionPartial",
								"label": "minPrice",
								"offset": 0,
								"slot": "2",
								"type": "t_uint256"
							},
							{
								"astId": 1665,
								"contract": "ShockSpace/driverUtils/CSDPositionPartial.sol:CSDPositionPartial",
								"label": "priceAtEntry",
								"offset": 0,
								"slot": "3",
								"type": "t_uint256"
							},
							{
								"astId": 1667,
								"contract": "ShockSpace/driverUtils/CSDPositionPartial.sol:CSDPositionPartial",
								"label": "leverage",
								"offset": 0,
								"slot": "4",
								"type": "t_uint8"
							}
						],
						"numberOfBytes": "160"
					},
					"t_struct(PriceParams2)1671_storage": {
						"encoding": "inplace",
						"label": "struct CSDUtilityPartial.PriceParams2",
						"members": [
							{
								"astId": 1670,
								"contract": "ShockSpace/driverUtils/CSDPositionPartial.sol:CSDPositionPartial",
								"label": "liquidationPrice",
								"offset": 0,
								"slot": "0",
								"type": "t_uint256"
							}
						],
						"numberOfBytes": "32"
					},
					"t_uint256": {
						"encoding": "inplace",
						"label": "uint256",
						"numberOfBytes": "32"
					},
					"t_uint8": {
						"encoding": "inplace",
						"label": "uint8",
						"numberOfBytes": "1"
					}
				}
			},
			"userdoc": {
				"kind": "user",
				"methods": {},
				"version": 1
			}
		}
	}
}