{
	"data": {
		"bytecode": {
			"linkReferences": {},
			"object": "608060405234801561001057600080fd5b506001600055614507806100256000396000f3fe608060405234801561001057600080fd5b50600436106103c45760003560e01c80638158900b116101ff578063baba1dc81161011a578063e9a3fa7d116100ad578063ed9aab511161007c578063ed9aab511461081f578063f5ff5c7614610827578063f9b44c851461082f578063fd59264a14610842576103c4565b8063e9a3fa7d146107de578063e9bfddd5146107f1578063e9c8913414610804578063eb510caf14610817576103c4565b8063cbc7854e116100e9578063cbc7854e14610780578063cbfb806014610793578063db6d7c53146107a6578063e963eb33146107b9576103c4565b8063baba1dc814610734578063bc31c1c114610747578063bcf685ed1461075a578063c794836c1461076d576103c4565b806399ac4de3116101925780639e2cb888116101615780639e2cb888146106f3578063a035b1fe14610706578063a91ee0dc1461070e578063b6dd26b714610721576103c4565b806399ac4de3146106ae5780639cd649b7146106c15780639de500b3146106d45780639e1eb73e146106dc576103c4565b80638dee80d8116101ce5780638dee80d81461065357806391776ee7146106735780639405dfdd14610693578063957faf7e1461069b576103c4565b80638158900b1461061d578063854396391461062557806388413c17146106385780638b73097b1461064b576103c4565b8063355883fc116102ef57806355fa12621161028257806360a3e7651161025157806360a3e765146105d15780636d8d6189146105e45780637d5fd394146105f757806380dd9a1f1461060a576103c4565b806355fa1262146105b157806357cbf16c146105b957806359b5994c146105c15780635f64b55b146105c9576103c4565b8063418a1adc116102be578063418a1adc146105635780634b66cd4b1461057657806350894e9f14610589578063525fa81f1461059e576103c4565b8063355883fc146104fe5780633899b14a146105235780633ad57db61461053657806340d87ebe1461054b576103c4565b8063080735de1161036757806313e2b18e1161033657806313e2b18e146104d357806327a4d4c5146104e65780632a58b330146104ee5780633221c93f146104f6576103c4565b8063080735de146104785780630a5809281461048b5780630d996f82146104ab5780630fc63d10146104be576103c4565b806302e2f156116103a357806302e2f15614610428578063039216dc1461044a57806303b63cc41461045d57806305ca6aa614610470576103c4565b8062b439f9146103c9578063015f8dd9146103de57806301cfbbb214610408575b600080fd5b6103dc6103d73660046138af565b61084a565b005b6103f16103ec36600461397f565b610977565b6040516103ff929190614197565b60405180910390f35b61041b610416366004613886565b610982565b6040516103ff9190614123565b61043b61043636600461397f565b6109b3565b6040516103ff93929190613a89565b61043b61045836600461397f565b6109e5565b6103f161046b36600461397f565b610a17565b61041b610a46565b6103f161048636600461397f565b610a4c565b61049e6104993660046135f5565b610a7b565b6040516103ff9190613b24565b61041b6104b9366004613962565b610ae8565b6104c6610c70565b6040516103ff9190613a3d565b6103dc6104e1366004613774565b610c84565b61049e611868565b61041b6118c0565b6104c66118c6565b61051161050c36600461397f565b6118d5565b6040516103ff96959493929190613a51565b61041b61053136600461397f565b61191a565b61053e61193b565b6040516103ff9190613b68565b610553611944565b6040516103ff94939291906141db565b6103f161057136600461397f565b611956565b61043b61058436600461397f565b61196f565b6105916119bd565b6040516103ff919061421e565b6103dc6105ac3660046135f5565b6119cd565b61041b611a3e565b610591611a44565b61049e611a54565b6104c6611aaa565b6103f16105df36600461397f565b611ab9565b61049e6105f23660046135f5565b611ae8565b61041b610605366004613886565b611b52565b61053e6106183660046135f5565b611b6e565b61041b611b83565b6103f161063336600461397f565b611b89565b6103dc61064636600461368d565b611ba2565b61049e611e68565b61066661066136600461397f565b611ebe565b6040516103ff91906140d1565b61068661068136600461397f565b612059565b6040516103ff9190614115565b61041b6120c9565b61043b6106a936600461397f565b6120cf565b6106666106bc36600461397f565b61211d565b6103dc6106cf36600461397f565b6121c3565b61049e6121e8565b6106e461223e565b6040516103ff939291906141c5565b61041b61070136600461397f565b61224a565b61041b61225a565b6103dc61071c3660046135f5565b612260565b61051161072f36600461397f565b6122d1565b6103f161074236600461397f565b612316565b61041b61075536600461397f565b612345565b6103dc6107683660046135f5565b61234c565b61068661077b36600461397f565b6123bd565b6103dc61078e36600461360f565b61242d565b61041b6107a136600461397f565b61265e565b6103f16107b436600461397f565b61266e565b6107cc6107c736600461397f565b612687565b6040516103ff969594939291906141f6565b6103f16107ec36600461397f565b6126cd565b61041b6107ff36600461397f565b6126e6565b6104c661081236600461397f565b6126f6565b61041b612706565b6104c661270c565b6104c661271b565b6103dc61083d366004613641565b61272a565b610553612a7b565b60025460ff16156108765760405162461bcd60e51b815260040161086d90613ed3565b60405180910390fd5b60008151116108975760405162461bcd60e51b815260040161086d90613c53565b60005b81518110156109665760006001600160a01b03168282815181106108ce57634e487b7160e01b600052603260045260246000fd5b60200260200101516001600160a01b031614156108fd5760405162461bcd60e51b815260040161086d90613e76565b600180600084848151811061092257634e487b7160e01b600052603260045260246000fd5b6020908102919091018101516001600160a01b03168252810191909152604001600020805460ff19169115159190911790558061095e81614423565b91505061089a565b50506002805460ff19166001179055565b600c54600d54915091565b6015602052816000526040600020818154811061099e57600080fd5b90600052602060002001600091509150505481565b601860205260009081526040902080546001909101546001600160a01b0391821691811690600160a01b900460ff1683565b601b60205260009081526040902080546001909101546001600160a01b0391821691811690600160a01b900460ff1683565b6000908152601a6020908152604091829020825180840190935280548084526001909101549290910182905291565b60105490565b600090815260196020908152604091829020825180840190935280548084526001909101549290910182905291565b6001600160a01b038116600090815260166020908152604091829020805483518184028101840190945280845260609392830182828015610adb57602002820191906000526020600020905b815481526020019060010190808311610ac7575b505050505090505b919050565b6000808211610b095760405162461bcd60e51b815260040161086d90613cde565b600b541580610b185750601754155b80610b2f5750610b2d42600960020154612a8a565b155b15610b3c57506000610c6a565b600083610b5857600a54600f54610b5391906143e0565b610b68565b600954600e54610b6891906143e0565b905080610b79576000915050610c6a565b600754604080516320b6982160e01b815281516000936001600160a01b0316926320b698219260048082019391829003018186803b158015610bba57600080fd5b505afa925050508015610bea575060408051601f3d908101601f19168201909252610be791810190613997565b60015b610bf957600092505050610c6a565b86610c045780610c06565b815b9250505080610c1a57600092505050610c6a565b6000612710610c2a8460056143c1565b610c349190614299565b9050600082610c4b83670de0b6b3a76400006143c1565b610c559190614299565b9050610c638161016d6143c1565b9450505050505b92915050565b60025461010090046001600160a01b031690565b610c8c612acb565b6001600160a01b03821660009081526001602052604090205460ff16610cc45760405162461bcd60e51b815260040161086d90613bd2565b600c6000805b8351811015610dc4576000848281518110610cf557634e487b7160e01b600052603260045260246000fd5b60200260200101519050806000015160ff166000148015610d285750806040015160021480610d28575080604001516003145b15610d37576001925050610dc4565b806000015160ff166001148015610d555750806020015160ff166002145b8015610d65575060008160600151115b15610d74576001925050610dc4565b806000015160ff166002148015610d925750806020015160ff166002145b8015610da2575060008160600151115b15610db1576001925050610dc4565b5080610dbc81614423565b915050610cca565b50808015610deb5750600b541580610deb5750600b54610de79062015180614281565b4210155b15610e0957600e54600955600f54600a55610e0542612af5565b600b555b60005b83518110156117cc576000848281518110610e3757634e487b7160e01b600052603260045260246000fd5b60200260200101519050806000015160ff1660001415610ee2576040810151610e665760608101518455610edd565b806040015160011415610e825760608101516001850155610edd565b806040015160021415610eb2578060600151846002016000828254610ea79190614281565b90915550610edd9050565b806040015160031415610edd578060600151846003016000828254610ed79190614281565b90915550505b6117b9565b806000015160ff16600114156112b457602081015160ff1661109b57604080820151600090815260186020522080546001600160a01b031661100f5760808201805182546001600160a01b03199081166001600160a01b0392831617845560a085015160018086018054600160a01b94169285169290921760ff60a01b19169290921790556040808601805160118054808601825560009182527f31ecc21a745e3968a04e9570e4425bc18fa8019c68028196b546d1669c200c6801919091559451909316845260156020908152908420835181548085018355918652919094209093019290925551610fd491614281565b60085560045460408084015190516000805160206144b28339815191529261100292909160019081906141a5565b60405180910390a1611095565b60608201516110955760018101805460ff60a01b19169055604082015161103890601190612b0e565b80546001600160a01b031660009081526015602052604090819020908301516110619190612b0e565b6000805160206144b283398151915260045483604001516001600060405161108c94939291906141a5565b60405180910390a15b50610edd565b806020015160ff16600114156110d357604080820151600090815260196020522060c0820151815560e0820151600190910155610edd565b806020015160ff1660021415610edd57604080820180516000908152601a6020908152838220925182526018905291909120815415801561111d575080546001600160a01b031615155b1561116757606083015180835560018701805460009061113e908490614281565b9091555050606083015160038701805460009061115c908490614281565b909155506112ad9050565b600181810154600160a01b900460ff1614156112ad576060830151825410156111a25760405162461bcd60e51b815260040161086d90613c25565b82606001518260000160008282546111ba91906143e0565b909155505060608301516001830180546000906111d8908490614281565b90915550506060830151865487906000906111f49084906143e0565b909155505081541561120757600261120a565b60035b60018201805460ff92909216600160a01b0260ff60a01b1990921691909117905581546112695761124060118460400151612b0e565b80546001600160a01b031660009081526015602052604090819020908401516112699190612b0e565b6000805160206144b2833981519152600454846040015160018460010160149054906101000a900460ff166040516112a494939291906141a5565b60405180910390a15b50506117b9565b806000015160ff166002141561164f57602081015160ff16611451576040808201516000908152601b6020522080546001600160a01b03166113d55760808201805182546001600160a01b03199081166001600160a01b0392831617845560a085015160018086018054600160a01b94169285169290921760ff60a01b19169290921790556040808601805160128054808601825560009182527fbb8a6a4669ba250d26cd7a459eca9d215f8307e33aebe50379bc5a3617ec3444019190915594519093168452601560209081529084208351815480850183559186529190942090930192909255516113a691614281565b60085560045460408084015190516000805160206144b2833981519152926110029290916000906001906141a5565b60608201516110955760018101805460ff60a01b1916905560408201516113fe90601290612b0e565b80546001600160a01b031660009081526015602052604090819020908301516114279190612b0e565b6000805160206144b2833981519152600454836040015160008060405161108c94939291906141a5565b806020015160ff1660011415611489576040808201516000908152601c6020522060c0820151815560e0820151600190910155610edd565b806020015160ff1660021415610edd57604080820180516000908152601d602090815283822092518252601b90529190912081541580156114d3575080546001600160a01b031615155b15611510576060830151808355865487906000906114f2908490614281565b9091555050606083015160028701805460009061115c908490614281565b600181810154600160a01b900460ff1614156112ad5760608301518254101561154b5760405162461bcd60e51b815260040161086d90613c25565b826060015182600001600082825461156391906143e0565b90915550506060830151600183018054600090611581908490614281565b9091555050606083015160018701805460009061159f9084906143e0565b90915550508154156115b25760026115b5565b60035b60018201805460ff92909216600160a01b0260ff60a01b199092169190911790558154611614576115eb60128460400151612b0e565b80546001600160a01b031660009081526015602052604090819020908401516116149190612b0e565b6000805160206144b2833981519152600454846040015160008460010160149054906101000a900460ff166040516112a494939291906141a5565b806000015160ff16600314156117b9576040805160c0808201835260608481015183529084018051608090811c6020850190815291516fffffffffffffffffffffffffffffffff90811695850195865260e087018051831c94860194855251169084019081524260a085019081526017805460018101825560009190915294517fc624b66cc0138b8fabc209247f72d758e1cf3343756d543badbf24212bed8c1560069096029586015591517fc624b66cc0138b8fabc209247f72d758e1cf3343756d543badbf24212bed8c1685015593517fc624b66cc0138b8fabc209247f72d758e1cf3343756d543badbf24212bed8c1784015590517fc624b66cc0138b8fabc209247f72d758e1cf3343756d543badbf24212bed8c1883015591517fc624b66cc0138b8fabc209247f72d758e1cf3343756d543badbf24212bed8c1982015590517fc624b66cc0138b8fabc209247f72d758e1cf3343756d543badbf24212bed8c1a909101555b50806117c481614423565b915050610e0c565b508154158015906117e1575060008260010154115b1561180d57600182015482546117ff90670de0b6b3a76400006143c1565b6118099190614299565b6010555b7f8bbcb78ed74088d6eabdcef17bcbddcf7339dea6adfa7bebd83304bfa04dcd3a6004548360000154846001015460405161184a939291906141c5565b60405180910390a161185a612c03565b5050611864612ee7565b5050565b606060118054806020026020016040519081016040528092919081815260200182805480156118b657602002820191906000526020600020905b8154815260200190600101908083116118a2575b5050505050905090565b60085481565b6007546001600160a01b031681565b601e602052600090815260409020805460018201546002830154600384015460048501546005909501546001600160a01b039485169593909416939192909160ff1686565b6013818154811061192a57600080fd5b600091825260209091200154905081565b60025460ff1681565b600c54600d54600e54600f5490919293565b601d602052600090815260409020805460019091015482565b600090815260186020908152604091829020825160608101845281546001600160a01b03908116808352600190930154908116938201849052600160a01b900460ff16930183905292909190565b600354600160a01b900460ff1690565b6007546001600160a01b0316156119f65760405162461bcd60e51b815260040161086d90613e47565b6001600160a01b038116611a1c5760405162461bcd60e51b815260040161086d90613d3d565b600780546001600160a01b0319166001600160a01b0392909216919091179055565b60175490565b600354600160a81b900460ff1690565b606060148054806020026020016040519081016040528092919081815260200182805480156118b657602002820191906000526020600020908154815260200190600101908083116118a2575050505050905090565b6003546001600160a01b031690565b6000908152601d6020908152604091829020825180840190935280548084526001909101549290910182905291565b6001600160a01b038116600090815260156020908152604091829020805483518184028101840190945280845260609392830182828015610adb5760200282019190600052602060002090815481526020019060010190808311610ac75750505050509050919050565b6016602052816000526040600020818154811061099e57600080fd5b60016020526000908152604090205460ff1681565b60085490565b601a602052600090815260409020805460019091015482565b611baa612acb565b6001600160a01b03821660009081526001602052604090205460ff16611be25760405162461bcd60e51b815260040161086d90613bd2565b60005b8151811015611e5f576000828281518110611c1057634e487b7160e01b600052603260045260246000fd5b6020026020010151905060006008549050816000015160ff1660001415611d2a576000818152601e6020908152604080832080546001600160a01b03808b166001600160a01b03199283161783558785018051600180860180549285169290951691909117909355888501516002850155600384018790556004840188905560058401805460ff191690556013805480850182559088527f66de8ffda797e3de9c05e8fc57b3bf0ec28a930d40b0d285d93c06501cf6a09001889055511685526016845282852080548083018255908652938520909301859055905190927fa8ee5bcd7ec950b2508f50465b08e5bd5f8ff88001514273d4fd42076c7cde1d92611d1c9286929061417e565b60405180910390a150611e3c565b816000015160ff1660011415611e24576000818152601f6020908152604080832080546001600160a01b03808b166001600160a01b03199283161783558785018051600180860180549285169290951691909117909355888501516002850155600384018790556004840188905560058401805460ff191690556014805480850182559088527fce6d7b5282bd9a3661ae061feed1dbda4e52ab073b1f9285be6e155d9c38d4ec0188905551168552601684528285208054918201815585529284209092018490555190917fa8ee5bcd7ec950b2508f50465b08e5bd5f8ff88001514273d4fd42076c7cde1d91611d1c918591819061417e565b60405162461bcd60e51b815260040161086d90613ea6565b611e47816001614281565b60085550819050611e5781614423565b915050611be5565b50611864612ee7565b606060138054806020026020016040519081016040528092919081815260200182805480156118b657602002820191906000526020600020908154815260200190600101908083116118a2575050505050905090565b611ec6613552565b601754611ee55760405162461bcd60e51b815260040161086d90613ba6565b6000196000805b601754811015611fd957600060178281548110611f1957634e487b7160e01b600052603260045260246000fd5b9060005260206000209060060201600501548610611f765760178281548110611f5257634e487b7160e01b600052603260045260246000fd5b90600052602060002090600602016005015486611f6f91906143e0565b9050611fb7565b8560178381548110611f9857634e487b7160e01b600052603260045260246000fd5b906000526020600020906006020160050154611fb491906143e0565b90505b83811015611fc6578093508192505b5080611fd181614423565b915050611eec565b5060178181548110611ffb57634e487b7160e01b600052603260045260246000fd5b90600052602060002090600602016040518060c0016040529081600082015481526020016001820154815260200160028201548152602001600382015481526020016004820154815260200160058201548152505092505050919050565b612061613588565b506000908152601e6020908152604091829020825160c08101845281546001600160a01b03908116825260018301541692810192909252600281015492820192909252600382015460608201526004820154608082015260059091015460ff1660a082015290565b60045481565b6000908152601b6020908152604091829020825160608101845281546001600160a01b03908116808352600190930154908116938201849052600160a01b900460ff16930183905292909190565b612125613552565b60175482106121465760405162461bcd60e51b815260040161086d90613c80565b6017828154811061216757634e487b7160e01b600052603260045260246000fd5b90600052602060002090600602016040518060c001604052908160008201548152602001600182015481526020016002820154815260200160038201548152602001600482015481526020016005820154815250509050919050565b600454156121e35760405162461bcd60e51b815260040161086d90613d0d565b600455565b606060128054806020026020016040519081016040528092919081815260200182805480156118b657602002820191906000526020600020908154815260200190600101908083116118a2575050505050905090565b600954600a54600b5483565b6014818154811061192a57600080fd5b60105481565b6006546001600160a01b0316156122895760405162461bcd60e51b815260040161086d90613bf7565b6001600160a01b0381166122af5760405162461bcd60e51b815260040161086d90613ca7565b600680546001600160a01b0319166001600160a01b0392909216919091179055565b601f602052600090815260409020805460018201546002830154600384015460048501546005909501546001600160a01b039485169593909416939192909160ff1686565b6000908152601c6020908152604091829020825180840190935280548084526001909101549290910182905291565b5060105490565b6005546001600160a01b0316156123755760405162461bcd60e51b815260040161086d906140a6565b6001600160a01b03811661239b5760405162461bcd60e51b815260040161086d90614011565b600580546001600160a01b0319166001600160a01b0392909216919091179055565b6123c5613588565b506000908152601f6020908152604091829020825160c08101845281546001600160a01b03908116825260018301541692810192909252600281015492820192909252600382015460608201526004820154608082015260059091015460ff1660a082015290565b60025461010090046001600160a01b031615801561245457506003546001600160a01b0316155b6124705760405162461bcd60e51b815260040161086d90613f9b565b806001600160a01b0316826001600160a01b031614156124a25760405162461bcd60e51b815260040161086d90613de1565b6001600160a01b0382161515806124c157506001600160a01b03811615155b6124dd5760405162461bcd60e51b815260040161086d90613f00565b60028054610100600160a81b0319166101006001600160a01b0385811691820292909217909255600380546001600160a01b0319169184169190911790551561259657816001600160a01b031663313ce5676040518163ffffffff1660e01b815260040160206040518083038186803b15801561255957600080fd5b505afa15801561256d573d6000803e3d6000fd5b505050506040513d601f19601f8201168201806040525081019061259191906139ba565b612599565b60125b6003805460ff92909216600160a01b0260ff60a01b199092169190911790556001600160a01b0381161561263d57806001600160a01b031663313ce5676040518163ffffffff1660e01b815260040160206040518083038186803b15801561260057600080fd5b505afa158015612614573d6000803e3d6000fd5b505050506040513d601f19601f8201168201806040525081019061263891906139ba565b612640565b60125b600360156101000a81548160ff021916908360ff1602179055505050565b6011818154811061192a57600080fd5b6019602052600090815260409020805460019091015482565b6017818154811061269757600080fd5b60009182526020909120600690910201805460018201546002830154600384015460048501546005909501549395509193909286565b601c602052600090815260409020805460019091015482565b6012818154811061192a57600080fd5b506007546001600160a01b031690565b60045490565b6006546001600160a01b031681565b6005546001600160a01b031681565b612732612acb565b6001600160a01b03841660009081526001602052604090205460ff1661276a5760405162461bcd60e51b815260040161086d90613bd2565b600c60006001600160a01b038516156127f357846001600160a01b031663313ce5676040518163ffffffff1660e01b815260040160206040518083038186803b1580156127b657600080fd5b505afa1580156127ca573d6000803e3d6000fd5b505050506040513d601f19601f820116820180604052508101906127ee91906139ba565b6127f6565b60125b905060006128048583612eee565b600b5490915015806128255750600b546128219062015180614281565b4210155b1561284357600e54600955600f54600a5561283f42612af5565b600b555b6002546001600160a01b0387811661010090920416141561295c57825481111561287f5760405162461bcd60e51b815260040161086d90614040565b8083600001600082825461289391906143e0565b92505081905550808360020160008282546128ae9190614281565b90915550506001600160a01b038616612943576000846001600160a01b0316866040516128da90613a3a565b60006040518083038185875af1925050503d8060008114612917576040519150601f19603f3d011682016040523d82523d6000602084013e61291c565b606091505b505090508061293d5760405162461bcd60e51b815260040161086d90613f37565b50612957565b6129576001600160a01b0387168587612f5c565b6129dd565b6003546001600160a01b03878116911614156129c55780836001015410156129965760405162461bcd60e51b815260040161086d90613e18565b808360010160008282546129aa91906143e0565b92505081905550808360030160008282546128ae9190614281565b60405162461bcd60e51b815260040161086d90613dba565b8254158015906129f1575060008360010154115b15612a1d5760018301548354612a0f90670de0b6b3a76400006143c1565b612a199190614299565b6010555b7f8bbcb78ed74088d6eabdcef17bcbddcf7339dea6adfa7bebd83304bfa04dcd3a60045484600001548560010154604051612a5a939291906141c5565b60405180910390a1612a6a612fb2565b505050612a75612ee7565b50505050565b600c54600d54600e54600f5484565b600080612a9a620151808561443e565b612aa490856143e0565b90506000612ab5620151808561443e565b612abf90856143e0565b91909114949350505050565b60026000541415612aee5760405162461bcd60e51b815260040161086d9061406f565b6002600055565b6000612b04620151808361443e565b610c6a90836143e0565b60005b8254811015612bfe5781838281548110612b3b57634e487b7160e01b600052603260045260246000fd5b90600052602060002001541415612bec5782548390612b5c906001906143e0565b81548110612b7a57634e487b7160e01b600052603260045260246000fd5b9060005260206000200154838281548110612ba557634e487b7160e01b600052603260045260246000fd5b906000526020600020018190555082805480612bd157634e487b7160e01b600052603160045260246000fd5b60019003818190600052602060002001600090559055612bfe565b80612bf681614423565b915050612b11565b505050565b6005546001600160a01b0316612c1857612ee5565b60005b601154811015612d7d57600060118281548110612c4857634e487b7160e01b600052603260045260246000fd5b6000918252602080832090910154808352601882526040808420815160608101835281546001600160a01b0390811682526001928301549081168287015260ff600160a01b9091048116828501908152858852601a8752968490208451808601909552805485528301549584019590955294519295509092919091161480612cd75750816040015160ff166002145b15612d6757600554600480546002546003548651602088015187516040808b0151905163dd8dca4560e01b81526001600160a01b03998a169963dd8dca4599612d3a99986101009004821697909116958e9560019591949093919290910161412c565b600060405180830381600087803b158015612d5457600080fd5b505af1925050508015612d65575060015b505b5050508080612d7590614423565b915050612c1b565b5060005b601254811015612ee357600060128281548110612dae57634e487b7160e01b600052603260045260246000fd5b6000918252602080832090910154808352601b82526040808420815160608101835281546001600160a01b0390811682526001928301549081168287015260ff600160a01b9091048116828501908152858852601d8752968490208451808601909552805485528301549584019590955294519295509092919091161480612e3d5750816040015160ff166002145b15612ecd57600554600480546002546003548651602088015187516040808b0151905163dd8dca4560e01b81526001600160a01b03998a169963dd8dca4599612ea099986101009004821697909116958e9560009591949093919290910161412c565b600060405180830381600087803b158015612eba57600080fd5b505af1925050508015612ecb575060015b505b5050508080612edb90614423565b915050612d81565b505b565b6001600055565b60008160ff1660121415612f03575081610c6a565b60128260ff161015612f3957612f1d60ff831660126143e0565b612f2890600a6142f3565b612f3290846143c1565b9050610c6a565b612f47601260ff84166143e0565b612f5290600a6142f3565b612f329084614299565b612bfe8363a9059cbb60e01b8484604051602401612f7b929190613b0b565b60408051601f198184030181529190526020810180516001600160e01b03166001600160e01b03199093169290921790915261338c565b6006546001600160a01b0316612fc757612ee5565b6000612fd460024261443e565b159050600081612fe5576012612fe8565b60115b80548060200260200160405190810160405280929190818152602001828054801561303257602002820191906000526020600020905b81548152602001906001019080831161301e575b505050505090506000826130565760025461010090046001600160a01b0316613063565b6003546001600160a01b03165b905081516000141561307757505050612ee5565b6000825167ffffffffffffffff8111156130a157634e487b7160e01b600052604160045260246000fd5b6040519080825280602002602001820160405280156130ca578160200160208202803683370190505b5090506000805b84518110156132525760008661312e57601b600087848151811061310557634e487b7160e01b600052603260045260246000fd5b6020908102919091018101518252810191909152604001600020546001600160a01b0316613177565b6018600087848151811061315257634e487b7160e01b600052603260045260246000fd5b6020908102919091018101518252810191909152604001600020546001600160a01b03165b90506001600160a01b0381161561323f576000805b848110156131f057826001600160a01b03168682815181106131be57634e487b7160e01b600052603260045260246000fd5b60200260200101516001600160a01b031614156131de57600191506131f0565b806131e881614423565b91505061318c565b508061323d578185858151811061321757634e487b7160e01b600052603260045260246000fd5b6001600160a01b03909216602092830291909101909101528361323981614423565b9450505b505b508061324a81614423565b9150506130d1565b5060008167ffffffffffffffff81111561327c57634e487b7160e01b600052604160045260246000fd5b6040519080825280602002602001820160405280156132a5578160200160208202803683370190505b50905060005b82811015613325578381815181106132d357634e487b7160e01b600052603260045260246000fd5b60200260200101518282815181106132fb57634e487b7160e01b600052603260045260246000fd5b6001600160a01b03909216602092830291909101909101528061331d81614423565b9150506132ab565b50600654604051635ab3baf160e11b81526001600160a01b039091169063b56775e2906133589087908590600401613aaf565b600060405180830381600087803b15801561337257600080fd5b505af1925050508015613383575060015b50505050505050565b60006133e1826040518060400160405280602081526020017f5361666545524332303a206c6f772d6c6576656c2063616c6c206661696c6564815250856001600160a01b031661341e9092919063ffffffff16565b90508051600014806134025750808060200190518101906134029190613946565b612bfe5760405162461bcd60e51b815260040161086d90613fc7565b606061342d8484600085613437565b90505b9392505050565b6060824710156134595760405162461bcd60e51b815260040161086d90613d74565b600080866001600160a01b031685876040516134759190613a1e565b60006040518083038185875af1925050503d80600081146134b2576040519150601f19603f3d011682016040523d82523d6000602084013e6134b7565b606091505b50915091506134c8878383876134d5565b925050505b949350505050565b6060831561350f578251613508576134ec85613519565b6135085760405162461bcd60e51b815260040161086d90613f64565b50816134cd565b6134cd8383613528565b6001600160a01b03163b151590565b8151156135385781518083602001fd5b8060405162461bcd60e51b815260040161086d9190613b73565b6040518060c001604052806000815260200160008152602001600081526020016000815260200160008152602001600081525090565b6040518060c0016040528060006001600160a01b0316815260200160006001600160a01b03168152602001600081526020016000815260200160008152602001600060ff1681525090565b80356001600160a01b0381168114610ae357600080fd5b8035610ae3816144a2565b600060208284031215613606578081fd5b613430826135d3565b60008060408385031215613621578081fd5b61362a836135d3565b9150613638602084016135d3565b90509250929050565b60008060008060808587031215613656578182fd5b61365f856135d3565b935061366d602086016135d3565b925060408501359150613682606086016135d3565b905092959194509250565b60008060408084860312156136a0578283fd5b6136a9846135d3565b925060208085013567ffffffffffffffff8111156136c5578384fd5b8501601f810187136136d5578384fd5b80356136e86136e38261425d565b61422c565b818152838101908385016060808502860187018c1015613706578889fd5b8895505b848610156137635780828d031215613720578889fd5b6137298161422c565b8235613734816144a2565b81526137418389016135d3565b818901528289013589820152845260019590950194928601929081019061370a565b50979a909950975050505050505050565b6000806040808486031215613787578283fd5b613790846135d3565b925060208085013567ffffffffffffffff8111156137ac578384fd5b8501601f810187136137bc578384fd5b80356137ca6136e38261425d565b81815283810190838501610100808502860187018c10156137e9578889fd5b8895505b848610156137635780828d031215613803578889fd5b61380c8161422c565b8235613817816144a2565b81526138248389016135ea565b8189015282890135898201526060808401359082015260806138478185016135d3565b9082015260a06138588482016135d3565b9082015260c0838101359082015260e0808401359082015284526001959095019492860192908101906137ed565b60008060408385031215613898578182fd5b6138a1836135d3565b946020939093013593505050565b600060208083850312156138c1578182fd5b823567ffffffffffffffff8111156138d7578283fd5b8301601f810185136138e7578283fd5b80356138f56136e38261425d565b8181528381019083850185840285018601891015613911578687fd5b8694505b8385101561393a57613926816135d3565b835260019490940193918501918501613915565b50979650505050505050565b600060208284031215613957578081fd5b815161343081614494565b60008060408385031215613974578182fd5b82356138a181614494565b600060208284031215613990578081fd5b5035919050565b600080604083850312156139a9578182fd5b505080516020909101519092909150565b6000602082840312156139cb578081fd5b8151613430816144a2565b80516001600160a01b0390811683526020808301519091169083015260408082015190830152606080820151908301526080808201519083015260a09081015160ff16910152565b60008251613a308184602087016143f7565b9190910192915050565b90565b6001600160a01b0391909116815260200190565b6001600160a01b03968716815294909516602085015260408401929092526060830152608082015260ff90911660a082015260c00190565b6001600160a01b03938416815291909216602082015260ff909116604082015260600190565b6001600160a01b038381168252604060208084018290528451918401829052600092858201929091906060860190855b81811015613afd578551851683529483019491830191600101613adf565b509098975050505050505050565b6001600160a01b03929092168252602082015260400190565b6020808252825182820181905260009190848201906040850190845b81811015613b5c57835183529284019291840191600101613b40565b50909695505050505050565b901515815260200190565b6000602082528251806020840152613b928160408501602087016143f7565b601f01601f19169190910160400192915050565b6020808252601290820152714e6f20686973746f726963616c206461746160701b604082015260600190565b6020808252600b908201526a526f75746572206f6e6c7960a81b604082015260600190565b602080825260149082015273149959da5cdd1c9e48185b1c9958591e481cd95d60621b604082015260600190565b602080825260149082015273496e73756666696369656e742070656e64696e6760601b604082015260600190565b602080825260139082015272139bc81c9bdd5d195c9cc81c1c9bdd9a591959606a1b604082015260600190565b6020808252600d908201526c092dcecc2d8d2c840d2dcc8caf609b1b604082015260600190565b60208082526018908201527f496e76616c696420726567697374727920616464726573730000000000000000604082015260600190565b602080825260159082015274496e76616c6964206d6178497465726174696f6e7360581b604082015260600190565b602080825260169082015275131a5cdd1a5b99c8125108185b1c9958591e481cd95d60521b604082015260600190565b60208082526019908201527f496e76616c6964206c6971756964697479206164647265737300000000000000604082015260600190565b60208082526026908201527f416464726573733a20696e73756666696369656e742062616c616e636520666f6040820152651c8818d85b1b60d21b606082015260800190565b6020808252600d908201526c24b73b30b634b2103a37b5b2b760991b604082015260600190565b60208082526018908201527f546f6b656e73206d75737420626520646966666572656e740000000000000000604082015260600190565b602080825260159082015274496e73756666696369656e74207942616c616e636560581b604082015260600190565b602080825260159082015274131a5c5d5a591a5d1e48185b1c9958591e481cd95d605a1b604082015260600190565b602080825260169082015275496e76616c696420726f75746572206164647265737360501b604082015260600190565b602080825260139082015272496e76616c6964207061796f7574207479706560681b604082015260600190565b602080825260139082015272149bdd5d195c9cc8185b1c9958591e481cd95d606a1b604082015260600190565b6020808252601a908201527f426f746820746f6b656e732063616e6e6f74206265207a65726f000000000000604082015260600190565b602080825260139082015272115512081d1c985b9cd9995c8819985a5b1959606a1b604082015260600190565b6020808252601d908201527f416464726573733a2063616c6c20746f206e6f6e2d636f6e7472616374000000604082015260600190565b602080825260129082015271151bdad95b9cc8185b1c9958591e481cd95d60721b604082015260600190565b6020808252602a908201527f5361666545524332303a204552433230206f7065726174696f6e20646964206e6040820152691bdd081cdd58d8d9595960b21b606082015260800190565b602080825260159082015274496e76616c6964206167656e74206164647265737360581b604082015260600190565b602080825260159082015274496e73756666696369656e74207842616c616e636560581b604082015260600190565b6020808252601f908201527f5265656e7472616e637947756172643a207265656e7472616e742063616c6c00604082015260600190565b6020808252601190820152701059d95b9d08185b1c9958591e481cd95d607a1b604082015260600190565b600060c082019050825182526020830151602083015260408301516040830152606083015160608301526080830151608083015260a083015160a083015292915050565b60c08101610c6a82846139d6565b90815260200190565b9889526001600160a01b0397881660208a0152958716604089015260608801949094529115156080870152841660a086015290921660c084015260e083019190915260ff166101008201526101200190565b928352901515602083015260ff16604082015260600190565b918252602082015260400190565b93845260208401929092521515604083015260ff16606082015260800190565b9283526020830191909152604082015260600190565b93845260208401929092526040830152606082015260800190565b958652602086019490945260408501929092526060840152608083015260a082015260c00190565b60ff91909116815260200190565b604051601f8201601f1916810167ffffffffffffffff811182821017156142555761425561447e565b604052919050565b600067ffffffffffffffff8211156142775761427761447e565b5060209081020190565b6000821982111561429457614294614452565b500190565b6000826142a8576142a8614468565b500490565b80825b60018086116142bf57506142ea565b8187048211156142d1576142d1614452565b808616156142de57918102915b9490941c9380026142b0565b94509492505050565b6000613430600019848460008261430c57506001613430565b8161431957506000613430565b816001811461432f576002811461433957614366565b6001915050613430565b60ff84111561434a5761434a614452565b6001841b91508482111561436057614360614452565b50613430565b5060208310610133831016604e8410600b8410161715614399575081810a8381111561439457614394614452565b613430565b6143a684848460016142ad565b8086048211156143b8576143b8614452565b02949350505050565b60008160001904831182151516156143db576143db614452565b500290565b6000828210156143f2576143f2614452565b500390565b60005b838110156144125781810151838201526020016143fa565b83811115612a755750506000910152565b600060001982141561443757614437614452565b5060010190565b60008261444d5761444d614468565b500690565b634e487b7160e01b600052601160045260246000fd5b634e487b7160e01b600052601260045260246000fd5b634e487b7160e01b600052604160045260246000fd5b8015158114612ee357600080fd5b60ff81168114612ee357600080fdfe1469fd73c723a0c016743ef5ee173237c1a5d18d44596422dc7d77b0e5657705a2646970667358221220b196fc7cb820d9a3e2116a7f96e722df72eeb11d48055f11352bf43136259cdc64736f6c63430008010033",
			"opcodes": "PUSH1 0x80 PUSH1 0x40 MSTORE CALLVALUE DUP1 ISZERO PUSH2 0x10 JUMPI PUSH1 0x0 DUP1 REVERT JUMPDEST POP PUSH1 0x1 PUSH1 0x0 SSTORE PUSH2 0x4507 DUP1 PUSH2 0x25 PUSH1 0x0 CODECOPY PUSH1 0x0 RETURN INVALID PUSH1 0x80 PUSH1 0x40 MSTORE CALLVALUE DUP1 ISZERO PUSH2 0x10 JUMPI PUSH1 0x0 DUP1 REVERT JUMPDEST POP PUSH1 0x4 CALLDATASIZE LT PUSH2 0x3C4 JUMPI PUSH1 0x0 CALLDATALOAD PUSH1 0xE0 SHR DUP1 PUSH4 0x8158900B GT PUSH2 0x1FF JUMPI DUP1 PUSH4 0xBABA1DC8 GT PUSH2 0x11A JUMPI DUP1 PUSH4 0xE9A3FA7D GT PUSH2 0xAD JUMPI DUP1 PUSH4 0xED9AAB51 GT PUSH2 0x7C JUMPI DUP1 PUSH4 0xED9AAB51 EQ PUSH2 0x81F JUMPI DUP1 PUSH4 0xF5FF5C76 EQ PUSH2 0x827 JUMPI DUP1 PUSH4 0xF9B44C85 EQ PUSH2 0x82F JUMPI DUP1 PUSH4 0xFD59264A EQ PUSH2 0x842 JUMPI PUSH2 0x3C4 JUMP JUMPDEST DUP1 PUSH4 0xE9A3FA7D EQ PUSH2 0x7DE JUMPI DUP1 PUSH4 0xE9BFDDD5 EQ PUSH2 0x7F1 JUMPI DUP1 PUSH4 0xE9C89134 EQ PUSH2 0x804 JUMPI DUP1 PUSH4 0xEB510CAF EQ PUSH2 0x817 JUMPI PUSH2 0x3C4 JUMP JUMPDEST DUP1 PUSH4 0xCBC7854E GT PUSH2 0xE9 JUMPI DUP1 PUSH4 0xCBC7854E EQ PUSH2 0x780 JUMPI DUP1 PUSH4 0xCBFB8060 EQ PUSH2 0x793 JUMPI DUP1 PUSH4 0xDB6D7C53 EQ PUSH2 0x7A6 JUMPI DUP1 PUSH4 0xE963EB33 EQ PUSH2 0x7B9 JUMPI PUSH2 0x3C4 JUMP JUMPDEST DUP1 PUSH4 0xBABA1DC8 EQ PUSH2 0x734 JUMPI DUP1 PUSH4 0xBC31C1C1 EQ PUSH2 0x747 JUMPI DUP1 PUSH4 0xBCF685ED EQ PUSH2 0x75A JUMPI DUP1 PUSH4 0xC794836C EQ PUSH2 0x76D JUMPI PUSH2 0x3C4 JUMP JUMPDEST DUP1 PUSH4 0x99AC4DE3 GT PUSH2 0x192 JUMPI DUP1 PUSH4 0x9E2CB888 GT PUSH2 0x161 JUMPI DUP1 PUSH4 0x9E2CB888 EQ PUSH2 0x6F3 JUMPI DUP1 PUSH4 0xA035B1FE EQ PUSH2 0x706 JUMPI DUP1 PUSH4 0xA91EE0DC EQ PUSH2 0x70E JUMPI DUP1 PUSH4 0xB6DD26B7 EQ PUSH2 0x721 JUMPI PUSH2 0x3C4 JUMP JUMPDEST DUP1 PUSH4 0x99AC4DE3 EQ PUSH2 0x6AE JUMPI DUP1 PUSH4 0x9CD649B7 EQ PUSH2 0x6C1 JUMPI DUP1 PUSH4 0x9DE500B3 EQ PUSH2 0x6D4 JUMPI DUP1 PUSH4 0x9E1EB73E EQ PUSH2 0x6DC JUMPI PUSH2 0x3C4 JUMP JUMPDEST DUP1 PUSH4 0x8DEE80D8 GT PUSH2 0x1CE JUMPI DUP1 PUSH4 0x8DEE80D8 EQ PUSH2 0x653 JUMPI DUP1 PUSH4 0x91776EE7 EQ PUSH2 0x673 JUMPI DUP1 PUSH4 0x9405DFDD EQ PUSH2 0x693 JUMPI DUP1 PUSH4 0x957FAF7E EQ PUSH2 0x69B JUMPI PUSH2 0x3C4 JUMP JUMPDEST DUP1 PUSH4 0x8158900B EQ PUSH2 0x61D JUMPI DUP1 PUSH4 0x85439639 EQ PUSH2 0x625 JUMPI DUP1 PUSH4 0x88413C17 EQ PUSH2 0x638 JUMPI DUP1 PUSH4 0x8B73097B EQ PUSH2 0x64B JUMPI PUSH2 0x3C4 JUMP JUMPDEST DUP1 PUSH4 0x355883FC GT PUSH2 0x2EF JUMPI DUP1 PUSH4 0x55FA1262 GT PUSH2 0x282 JUMPI DUP1 PUSH4 0x60A3E765 GT PUSH2 0x251 JUMPI DUP1 PUSH4 0x60A3E765 EQ PUSH2 0x5D1 JUMPI DUP1 PUSH4 0x6D8D6189 EQ PUSH2 0x5E4 JUMPI DUP1 PUSH4 0x7D5FD394 EQ PUSH2 0x5F7 JUMPI DUP1 PUSH4 0x80DD9A1F EQ PUSH2 0x60A JUMPI PUSH2 0x3C4 JUMP JUMPDEST DUP1 PUSH4 0x55FA1262 EQ PUSH2 0x5B1 JUMPI DUP1 PUSH4 0x57CBF16C EQ PUSH2 0x5B9 JUMPI DUP1 PUSH4 0x59B5994C EQ PUSH2 0x5C1 JUMPI DUP1 PUSH4 0x5F64B55B EQ PUSH2 0x5C9 JUMPI PUSH2 0x3C4 JUMP JUMPDEST DUP1 PUSH4 0x418A1ADC GT PUSH2 0x2BE JUMPI DUP1 PUSH4 0x418A1ADC EQ PUSH2 0x563 JUMPI DUP1 PUSH4 0x4B66CD4B EQ PUSH2 0x576 JUMPI DUP1 PUSH4 0x50894E9F EQ PUSH2 0x589 JUMPI DUP1 PUSH4 0x525FA81F EQ PUSH2 0x59E JUMPI PUSH2 0x3C4 JUMP JUMPDEST DUP1 PUSH4 0x355883FC EQ PUSH2 0x4FE JUMPI DUP1 PUSH4 0x3899B14A EQ PUSH2 0x523 JUMPI DUP1 PUSH4 0x3AD57DB6 EQ PUSH2 0x536 JUMPI DUP1 PUSH4 0x40D87EBE EQ PUSH2 0x54B JUMPI PUSH2 0x3C4 JUMP JUMPDEST DUP1 PUSH4 0x80735DE GT PUSH2 0x367 JUMPI DUP1 PUSH4 0x13E2B18E GT PUSH2 0x336 JUMPI DUP1 PUSH4 0x13E2B18E EQ PUSH2 0x4D3 JUMPI DUP1 PUSH4 0x27A4D4C5 EQ PUSH2 0x4E6 JUMPI DUP1 PUSH4 0x2A58B330 EQ PUSH2 0x4EE JUMPI DUP1 PUSH4 0x3221C93F EQ PUSH2 0x4F6 JUMPI PUSH2 0x3C4 JUMP JUMPDEST DUP1 PUSH4 0x80735DE EQ PUSH2 0x478 JUMPI DUP1 PUSH4 0xA580928 EQ PUSH2 0x48B JUMPI DUP1 PUSH4 0xD996F82 EQ PUSH2 0x4AB JUMPI DUP1 PUSH4 0xFC63D10 EQ PUSH2 0x4BE JUMPI PUSH2 0x3C4 JUMP JUMPDEST DUP1 PUSH4 0x2E2F156 GT PUSH2 0x3A3 JUMPI DUP1 PUSH4 0x2E2F156 EQ PUSH2 0x428 JUMPI DUP1 PUSH4 0x39216DC EQ PUSH2 0x44A JUMPI DUP1 PUSH4 0x3B63CC4 EQ PUSH2 0x45D JUMPI DUP1 PUSH4 0x5CA6AA6 EQ PUSH2 0x470 JUMPI PUSH2 0x3C4 JUMP JUMPDEST DUP1 PUSH3 0xB439F9 EQ PUSH2 0x3C9 JUMPI DUP1 PUSH4 0x15F8DD9 EQ PUSH2 0x3DE JUMPI DUP1 PUSH4 0x1CFBBB2 EQ PUSH2 0x408 JUMPI JUMPDEST PUSH1 0x0 DUP1 REVERT JUMPDEST PUSH2 0x3DC PUSH2 0x3D7 CALLDATASIZE PUSH1 0x4 PUSH2 0x38AF JUMP JUMPDEST PUSH2 0x84A JUMP JUMPDEST STOP JUMPDEST PUSH2 0x3F1 PUSH2 0x3EC CALLDATASIZE PUSH1 0x4 PUSH2 0x397F JUMP JUMPDEST PUSH2 0x977 JUMP JUMPDEST PUSH1 0x40 MLOAD PUSH2 0x3FF SWAP3 SWAP2 SWAP1 PUSH2 0x4197 JUMP JUMPDEST PUSH1 0x40 MLOAD DUP1 SWAP2 SUB SWAP1 RETURN JUMPDEST PUSH2 0x41B PUSH2 0x416 CALLDATASIZE PUSH1 0x4 PUSH2 0x3886 JUMP JUMPDEST PUSH2 0x982 JUMP JUMPDEST PUSH1 0x40 MLOAD PUSH2 0x3FF SWAP2 SWAP1 PUSH2 0x4123 JUMP JUMPDEST PUSH2 0x43B PUSH2 0x436 CALLDATASIZE PUSH1 0x4 PUSH2 0x397F JUMP JUMPDEST PUSH2 0x9B3 JUMP JUMPDEST PUSH1 0x40 MLOAD PUSH2 0x3FF SWAP4 SWAP3 SWAP2 SWAP1 PUSH2 0x3A89 JUMP JUMPDEST PUSH2 0x43B PUSH2 0x458 CALLDATASIZE PUSH1 0x4 PUSH2 0x397F JUMP JUMPDEST PUSH2 0x9E5 JUMP JUMPDEST PUSH2 0x3F1 PUSH2 0x46B CALLDATASIZE PUSH1 0x4 PUSH2 0x397F JUMP JUMPDEST PUSH2 0xA17 JUMP JUMPDEST PUSH2 0x41B PUSH2 0xA46 JUMP JUMPDEST PUSH2 0x3F1 PUSH2 0x486 CALLDATASIZE PUSH1 0x4 PUSH2 0x397F JUMP JUMPDEST PUSH2 0xA4C JUMP JUMPDEST PUSH2 0x49E PUSH2 0x499 CALLDATASIZE PUSH1 0x4 PUSH2 0x35F5 JUMP JUMPDEST PUSH2 0xA7B JUMP JUMPDEST PUSH1 0x40 MLOAD PUSH2 0x3FF SWAP2 SWAP1 PUSH2 0x3B24 JUMP JUMPDEST PUSH2 0x41B PUSH2 0x4B9 CALLDATASIZE PUSH1 0x4 PUSH2 0x3962 JUMP JUMPDEST PUSH2 0xAE8 JUMP JUMPDEST PUSH2 0x4C6 PUSH2 0xC70 JUMP JUMPDEST PUSH1 0x40 MLOAD PUSH2 0x3FF SWAP2 SWAP1 PUSH2 0x3A3D JUMP JUMPDEST PUSH2 0x3DC PUSH2 0x4E1 CALLDATASIZE PUSH1 0x4 PUSH2 0x3774 JUMP JUMPDEST PUSH2 0xC84 JUMP JUMPDEST PUSH2 0x49E PUSH2 0x1868 JUMP JUMPDEST PUSH2 0x41B PUSH2 0x18C0 JUMP JUMPDEST PUSH2 0x4C6 PUSH2 0x18C6 JUMP JUMPDEST PUSH2 0x511 PUSH2 0x50C CALLDATASIZE PUSH1 0x4 PUSH2 0x397F JUMP JUMPDEST PUSH2 0x18D5 JUMP JUMPDEST PUSH1 0x40 MLOAD PUSH2 0x3FF SWAP7 SWAP6 SWAP5 SWAP4 SWAP3 SWAP2 SWAP1 PUSH2 0x3A51 JUMP JUMPDEST PUSH2 0x41B PUSH2 0x531 CALLDATASIZE PUSH1 0x4 PUSH2 0x397F JUMP JUMPDEST PUSH2 0x191A JUMP JUMPDEST PUSH2 0x53E PUSH2 0x193B JUMP JUMPDEST PUSH1 0x40 MLOAD PUSH2 0x3FF SWAP2 SWAP1 PUSH2 0x3B68 JUMP JUMPDEST PUSH2 0x553 PUSH2 0x1944 JUMP JUMPDEST PUSH1 0x40 MLOAD PUSH2 0x3FF SWAP5 SWAP4 SWAP3 SWAP2 SWAP1 PUSH2 0x41DB JUMP JUMPDEST PUSH2 0x3F1 PUSH2 0x571 CALLDATASIZE PUSH1 0x4 PUSH2 0x397F JUMP JUMPDEST PUSH2 0x1956 JUMP JUMPDEST PUSH2 0x43B PUSH2 0x584 CALLDATASIZE PUSH1 0x4 PUSH2 0x397F JUMP JUMPDEST PUSH2 0x196F JUMP JUMPDEST PUSH2 0x591 PUSH2 0x19BD JUMP JUMPDEST PUSH1 0x40 MLOAD PUSH2 0x3FF SWAP2 SWAP1 PUSH2 0x421E JUMP JUMPDEST PUSH2 0x3DC PUSH2 0x5AC CALLDATASIZE PUSH1 0x4 PUSH2 0x35F5 JUMP JUMPDEST PUSH2 0x19CD JUMP JUMPDEST PUSH2 0x41B PUSH2 0x1A3E JUMP JUMPDEST PUSH2 0x591 PUSH2 0x1A44 JUMP JUMPDEST PUSH2 0x49E PUSH2 0x1A54 JUMP JUMPDEST PUSH2 0x4C6 PUSH2 0x1AAA JUMP JUMPDEST PUSH2 0x3F1 PUSH2 0x5DF CALLDATASIZE PUSH1 0x4 PUSH2 0x397F JUMP JUMPDEST PUSH2 0x1AB9 JUMP JUMPDEST PUSH2 0x49E PUSH2 0x5F2 CALLDATASIZE PUSH1 0x4 PUSH2 0x35F5 JUMP JUMPDEST PUSH2 0x1AE8 JUMP JUMPDEST PUSH2 0x41B PUSH2 0x605 CALLDATASIZE PUSH1 0x4 PUSH2 0x3886 JUMP JUMPDEST PUSH2 0x1B52 JUMP JUMPDEST PUSH2 0x53E PUSH2 0x618 CALLDATASIZE PUSH1 0x4 PUSH2 0x35F5 JUMP JUMPDEST PUSH2 0x1B6E JUMP JUMPDEST PUSH2 0x41B PUSH2 0x1B83 JUMP JUMPDEST PUSH2 0x3F1 PUSH2 0x633 CALLDATASIZE PUSH1 0x4 PUSH2 0x397F JUMP JUMPDEST PUSH2 0x1B89 JUMP JUMPDEST PUSH2 0x3DC PUSH2 0x646 CALLDATASIZE PUSH1 0x4 PUSH2 0x368D JUMP JUMPDEST PUSH2 0x1BA2 JUMP JUMPDEST PUSH2 0x49E PUSH2 0x1E68 JUMP JUMPDEST PUSH2 0x666 PUSH2 0x661 CALLDATASIZE PUSH1 0x4 PUSH2 0x397F JUMP JUMPDEST PUSH2 0x1EBE JUMP JUMPDEST PUSH1 0x40 MLOAD PUSH2 0x3FF SWAP2 SWAP1 PUSH2 0x40D1 JUMP JUMPDEST PUSH2 0x686 PUSH2 0x681 CALLDATASIZE PUSH1 0x4 PUSH2 0x397F JUMP JUMPDEST PUSH2 0x2059 JUMP JUMPDEST PUSH1 0x40 MLOAD PUSH2 0x3FF SWAP2 SWAP1 PUSH2 0x4115 JUMP JUMPDEST PUSH2 0x41B PUSH2 0x20C9 JUMP JUMPDEST PUSH2 0x43B PUSH2 0x6A9 CALLDATASIZE PUSH1 0x4 PUSH2 0x397F JUMP JUMPDEST PUSH2 0x20CF JUMP JUMPDEST PUSH2 0x666 PUSH2 0x6BC CALLDATASIZE PUSH1 0x4 PUSH2 0x397F JUMP JUMPDEST PUSH2 0x211D JUMP JUMPDEST PUSH2 0x3DC PUSH2 0x6CF CALLDATASIZE PUSH1 0x4 PUSH2 0x397F JUMP JUMPDEST PUSH2 0x21C3 JUMP JUMPDEST PUSH2 0x49E PUSH2 0x21E8 JUMP JUMPDEST PUSH2 0x6E4 PUSH2 0x223E JUMP JUMPDEST PUSH1 0x40 MLOAD PUSH2 0x3FF SWAP4 SWAP3 SWAP2 SWAP1 PUSH2 0x41C5 JUMP JUMPDEST PUSH2 0x41B PUSH2 0x701 CALLDATASIZE PUSH1 0x4 PUSH2 0x397F JUMP JUMPDEST PUSH2 0x224A JUMP JUMPDEST PUSH2 0x41B PUSH2 0x225A JUMP JUMPDEST PUSH2 0x3DC PUSH2 0x71C CALLDATASIZE PUSH1 0x4 PUSH2 0x35F5 JUMP JUMPDEST PUSH2 0x2260 JUMP JUMPDEST PUSH2 0x511 PUSH2 0x72F CALLDATASIZE PUSH1 0x4 PUSH2 0x397F JUMP JUMPDEST PUSH2 0x22D1 JUMP JUMPDEST PUSH2 0x3F1 PUSH2 0x742 CALLDATASIZE PUSH1 0x4 PUSH2 0x397F JUMP JUMPDEST PUSH2 0x2316 JUMP JUMPDEST PUSH2 0x41B PUSH2 0x755 CALLDATASIZE PUSH1 0x4 PUSH2 0x397F JUMP JUMPDEST PUSH2 0x2345 JUMP JUMPDEST PUSH2 0x3DC PUSH2 0x768 CALLDATASIZE PUSH1 0x4 PUSH2 0x35F5 JUMP JUMPDEST PUSH2 0x234C JUMP JUMPDEST PUSH2 0x686 PUSH2 0x77B CALLDATASIZE PUSH1 0x4 PUSH2 0x397F JUMP JUMPDEST PUSH2 0x23BD JUMP JUMPDEST PUSH2 0x3DC PUSH2 0x78E CALLDATASIZE PUSH1 0x4 PUSH2 0x360F JUMP JUMPDEST PUSH2 0x242D JUMP JUMPDEST PUSH2 0x41B PUSH2 0x7A1 CALLDATASIZE PUSH1 0x4 PUSH2 0x397F JUMP JUMPDEST PUSH2 0x265E JUMP JUMPDEST PUSH2 0x3F1 PUSH2 0x7B4 CALLDATASIZE PUSH1 0x4 PUSH2 0x397F JUMP JUMPDEST PUSH2 0x266E JUMP JUMPDEST PUSH2 0x7CC PUSH2 0x7C7 CALLDATASIZE PUSH1 0x4 PUSH2 0x397F JUMP JUMPDEST PUSH2 0x2687 JUMP JUMPDEST PUSH1 0x40 MLOAD PUSH2 0x3FF SWAP7 SWAP6 SWAP5 SWAP4 SWAP3 SWAP2 SWAP1 PUSH2 0x41F6 JUMP JUMPDEST PUSH2 0x3F1 PUSH2 0x7EC CALLDATASIZE PUSH1 0x4 PUSH2 0x397F JUMP JUMPDEST PUSH2 0x26CD JUMP JUMPDEST PUSH2 0x41B PUSH2 0x7FF CALLDATASIZE PUSH1 0x4 PUSH2 0x397F JUMP JUMPDEST PUSH2 0x26E6 JUMP JUMPDEST PUSH2 0x4C6 PUSH2 0x812 CALLDATASIZE PUSH1 0x4 PUSH2 0x397F JUMP JUMPDEST PUSH2 0x26F6 JUMP JUMPDEST PUSH2 0x41B PUSH2 0x2706 JUMP JUMPDEST PUSH2 0x4C6 PUSH2 0x270C JUMP JUMPDEST PUSH2 0x4C6 PUSH2 0x271B JUMP JUMPDEST PUSH2 0x3DC PUSH2 0x83D CALLDATASIZE PUSH1 0x4 PUSH2 0x3641 JUMP JUMPDEST PUSH2 0x272A JUMP JUMPDEST PUSH2 0x553 PUSH2 0x2A7B JUMP JUMPDEST PUSH1 0x2 SLOAD PUSH1 0xFF AND ISZERO PUSH2 0x876 JUMPI PUSH1 0x40 MLOAD PUSH3 0x461BCD PUSH1 0xE5 SHL DUP2 MSTORE PUSH1 0x4 ADD PUSH2 0x86D SWAP1 PUSH2 0x3ED3 JUMP JUMPDEST PUSH1 0x40 MLOAD DUP1 SWAP2 SUB SWAP1 REVERT JUMPDEST PUSH1 0x0 DUP2 MLOAD GT PUSH2 0x897 JUMPI PUSH1 0x40 MLOAD PUSH3 0x461BCD PUSH1 0xE5 SHL DUP2 MSTORE PUSH1 0x4 ADD PUSH2 0x86D SWAP1 PUSH2 0x3C53 JUMP JUMPDEST PUSH1 0x0 JUMPDEST DUP2 MLOAD DUP2 LT ISZERO PUSH2 0x966 JUMPI PUSH1 0x0 PUSH1 0x1 PUSH1 0x1 PUSH1 0xA0 SHL SUB AND DUP3 DUP3 DUP2 MLOAD DUP2 LT PUSH2 0x8CE JUMPI PUSH4 0x4E487B71 PUSH1 0xE0 SHL PUSH1 0x0 MSTORE PUSH1 0x32 PUSH1 0x4 MSTORE PUSH1 0x24 PUSH1 0x0 REVERT JUMPDEST PUSH1 0x20 MUL PUSH1 0x20 ADD ADD MLOAD PUSH1 0x1 PUSH1 0x1 PUSH1 0xA0 SHL SUB AND EQ ISZERO PUSH2 0x8FD JUMPI PUSH1 0x40 MLOAD PUSH3 0x461BCD PUSH1 0xE5 SHL DUP2 MSTORE PUSH1 0x4 ADD PUSH2 0x86D SWAP1 PUSH2 0x3E76 JUMP JUMPDEST PUSH1 0x1 DUP1 PUSH1 0x0 DUP5 DUP5 DUP2 MLOAD DUP2 LT PUSH2 0x922 JUMPI PUSH4 0x4E487B71 PUSH1 0xE0 SHL PUSH1 0x0 MSTORE PUSH1 0x32 PUSH1 0x4 MSTORE PUSH1 0x24 PUSH1 0x0 REVERT JUMPDEST PUSH1 0x20 SWAP1 DUP2 MUL SWAP2 SWAP1 SWAP2 ADD DUP2 ADD MLOAD PUSH1 0x1 PUSH1 0x1 PUSH1 0xA0 SHL SUB AND DUP3 MSTORE DUP2 ADD SWAP2 SWAP1 SWAP2 MSTORE PUSH1 0x40 ADD PUSH1 0x0 KECCAK256 DUP1 SLOAD PUSH1 0xFF NOT AND SWAP2 ISZERO ISZERO SWAP2 SWAP1 SWAP2 OR SWAP1 SSTORE DUP1 PUSH2 0x95E DUP2 PUSH2 0x4423 JUMP JUMPDEST SWAP2 POP POP PUSH2 0x89A JUMP JUMPDEST POP POP PUSH1 0x2 DUP1 SLOAD PUSH1 0xFF NOT AND PUSH1 0x1 OR SWAP1 SSTORE JUMP JUMPDEST PUSH1 0xC SLOAD PUSH1 0xD SLOAD SWAP2 POP SWAP2 JUMP JUMPDEST PUSH1 0x15 PUSH1 0x20 MSTORE DUP2 PUSH1 0x0 MSTORE PUSH1 0x40 PUSH1 0x0 KECCAK256 DUP2 DUP2 SLOAD DUP2 LT PUSH2 0x99E JUMPI PUSH1 0x0 DUP1 REVERT JUMPDEST SWAP1 PUSH1 0x0 MSTORE PUSH1 0x20 PUSH1 0x0 KECCAK256 ADD PUSH1 0x0 SWAP2 POP SWAP2 POP POP SLOAD DUP2 JUMP JUMPDEST PUSH1 0x18 PUSH1 0x20 MSTORE PUSH1 0x0 SWAP1 DUP2 MSTORE PUSH1 0x40 SWAP1 KECCAK256 DUP1 SLOAD PUSH1 0x1 SWAP1 SWAP2 ADD SLOAD PUSH1 0x1 PUSH1 0x1 PUSH1 0xA0 SHL SUB SWAP2 DUP3 AND SWAP2 DUP2 AND SWAP1 PUSH1 0x1 PUSH1 0xA0 SHL SWAP1 DIV PUSH1 0xFF AND DUP4 JUMP JUMPDEST PUSH1 0x1B PUSH1 0x20 MSTORE PUSH1 0x0 SWAP1 DUP2 MSTORE PUSH1 0x40 SWAP1 KECCAK256 DUP1 SLOAD PUSH1 0x1 SWAP1 SWAP2 ADD SLOAD PUSH1 0x1 PUSH1 0x1 PUSH1 0xA0 SHL SUB SWAP2 DUP3 AND SWAP2 DUP2 AND SWAP1 PUSH1 0x1 PUSH1 0xA0 SHL SWAP1 DIV PUSH1 0xFF AND DUP4 JUMP JUMPDEST PUSH1 0x0 SWAP1 DUP2 MSTORE PUSH1 0x1A PUSH1 0x20 SWAP1 DUP2 MSTORE PUSH1 0x40 SWAP2 DUP3 SWAP1 KECCAK256 DUP3 MLOAD DUP1 DUP5 ADD SWAP1 SWAP4 MSTORE DUP1 SLOAD DUP1 DUP5 MSTORE PUSH1 0x1 SWAP1 SWAP2 ADD SLOAD SWAP3 SWAP1 SWAP2 ADD DUP3 SWAP1 MSTORE SWAP2 JUMP JUMPDEST PUSH1 0x10 SLOAD SWAP1 JUMP JUMPDEST PUSH1 0x0 SWAP1 DUP2 MSTORE PUSH1 0x19 PUSH1 0x20 SWAP1 DUP2 MSTORE PUSH1 0x40 SWAP2 DUP3 SWAP1 KECCAK256 DUP3 MLOAD DUP1 DUP5 ADD SWAP1 SWAP4 MSTORE DUP1 SLOAD DUP1 DUP5 MSTORE PUSH1 0x1 SWAP1 SWAP2 ADD SLOAD SWAP3 SWAP1 SWAP2 ADD DUP3 SWAP1 MSTORE SWAP2 JUMP JUMPDEST PUSH1 0x1 PUSH1 0x1 PUSH1 0xA0 SHL SUB DUP2 AND PUSH1 0x0 SWAP1 DUP2 MSTORE PUSH1 0x16 PUSH1 0x20 SWAP1 DUP2 MSTORE PUSH1 0x40 SWAP2 DUP3 SWAP1 KECCAK256 DUP1 SLOAD DUP4 MLOAD DUP2 DUP5 MUL DUP2 ADD DUP5 ADD SWAP1 SWAP5 MSTORE DUP1 DUP5 MSTORE PUSH1 0x60 SWAP4 SWAP3 DUP4 ADD DUP3 DUP3 DUP1 ISZERO PUSH2 0xADB JUMPI PUSH1 0x20 MUL DUP3 ADD SWAP2 SWAP1 PUSH1 0x0 MSTORE PUSH1 0x20 PUSH1 0x0 KECCAK256 SWAP1 JUMPDEST DUP2 SLOAD DUP2 MSTORE PUSH1 0x20 ADD SWAP1 PUSH1 0x1 ADD SWAP1 DUP1 DUP4 GT PUSH2 0xAC7 JUMPI JUMPDEST POP POP POP POP POP SWAP1 POP JUMPDEST SWAP2 SWAP1 POP JUMP JUMPDEST PUSH1 0x0 DUP1 DUP3 GT PUSH2 0xB09 JUMPI PUSH1 0x40 MLOAD PUSH3 0x461BCD PUSH1 0xE5 SHL DUP2 MSTORE PUSH1 0x4 ADD PUSH2 0x86D SWAP1 PUSH2 0x3CDE JUMP JUMPDEST PUSH1 0xB SLOAD ISZERO DUP1 PUSH2 0xB18 JUMPI POP PUSH1 0x17 SLOAD ISZERO JUMPDEST DUP1 PUSH2 0xB2F JUMPI POP PUSH2 0xB2D TIMESTAMP PUSH1 0x9 PUSH1 0x2 ADD SLOAD PUSH2 0x2A8A JUMP JUMPDEST ISZERO JUMPDEST ISZERO PUSH2 0xB3C JUMPI POP PUSH1 0x0 PUSH2 0xC6A JUMP JUMPDEST PUSH1 0x0 DUP4 PUSH2 0xB58 JUMPI PUSH1 0xA SLOAD PUSH1 0xF SLOAD PUSH2 0xB53 SWAP2 SWAP1 PUSH2 0x43E0 JUMP JUMPDEST PUSH2 0xB68 JUMP JUMPDEST PUSH1 0x9 SLOAD PUSH1 0xE SLOAD PUSH2 0xB68 SWAP2 SWAP1 PUSH2 0x43E0 JUMP JUMPDEST SWAP1 POP DUP1 PUSH2 0xB79 JUMPI PUSH1 0x0 SWAP2 POP POP PUSH2 0xC6A JUMP JUMPDEST PUSH1 0x7 SLOAD PUSH1 0x40 DUP1 MLOAD PUSH4 0x20B69821 PUSH1 0xE0 SHL DUP2 MSTORE DUP2 MLOAD PUSH1 0x0 SWAP4 PUSH1 0x1 PUSH1 0x1 PUSH1 0xA0 SHL SUB AND SWAP3 PUSH4 0x20B69821 SWAP3 PUSH1 0x4 DUP1 DUP3 ADD SWAP4 SWAP2 DUP3 SWAP1 SUB ADD DUP2 DUP7 DUP1 EXTCODESIZE ISZERO DUP1 ISZERO PUSH2 0xBBA JUMPI PUSH1 0x0 DUP1 REVERT JUMPDEST POP GAS STATICCALL SWAP3 POP POP POP DUP1 ISZERO PUSH2 0xBEA JUMPI POP PUSH1 0x40 DUP1 MLOAD PUSH1 0x1F RETURNDATASIZE SWAP1 DUP2 ADD PUSH1 0x1F NOT AND DUP3 ADD SWAP1 SWAP3 MSTORE PUSH2 0xBE7 SWAP2 DUP2 ADD SWAP1 PUSH2 0x3997 JUMP JUMPDEST PUSH1 0x1 JUMPDEST PUSH2 0xBF9 JUMPI PUSH1 0x0 SWAP3 POP POP POP PUSH2 0xC6A JUMP JUMPDEST DUP7 PUSH2 0xC04 JUMPI DUP1 PUSH2 0xC06 JUMP JUMPDEST DUP2 JUMPDEST SWAP3 POP POP POP DUP1 PUSH2 0xC1A JUMPI PUSH1 0x0 SWAP3 POP POP POP PUSH2 0xC6A JUMP JUMPDEST PUSH1 0x0 PUSH2 0x2710 PUSH2 0xC2A DUP5 PUSH1 0x5 PUSH2 0x43C1 JUMP JUMPDEST PUSH2 0xC34 SWAP2 SWAP1 PUSH2 0x4299 JUMP JUMPDEST SWAP1 POP PUSH1 0x0 DUP3 PUSH2 0xC4B DUP4 PUSH8 0xDE0B6B3A7640000 PUSH2 0x43C1 JUMP JUMPDEST PUSH2 0xC55 SWAP2 SWAP1 PUSH2 0x4299 JUMP JUMPDEST SWAP1 POP PUSH2 0xC63 DUP2 PUSH2 0x16D PUSH2 0x43C1 JUMP JUMPDEST SWAP5 POP POP POP POP POP JUMPDEST SWAP3 SWAP2 POP POP JUMP JUMPDEST PUSH1 0x2 SLOAD PUSH2 0x100 SWAP1 DIV PUSH1 0x1 PUSH1 0x1 PUSH1 0xA0 SHL SUB AND SWAP1 JUMP JUMPDEST PUSH2 0xC8C PUSH2 0x2ACB JUMP JUMPDEST PUSH1 0x1 PUSH1 0x1 PUSH1 0xA0 SHL SUB DUP3 AND PUSH1 0x0 SWAP1 DUP2 MSTORE PUSH1 0x1 PUSH1 0x20 MSTORE PUSH1 0x40 SWAP1 KECCAK256 SLOAD PUSH1 0xFF AND PUSH2 0xCC4 JUMPI PUSH1 0x40 MLOAD PUSH3 0x461BCD PUSH1 0xE5 SHL DUP2 MSTORE PUSH1 0x4 ADD PUSH2 0x86D SWAP1 PUSH2 0x3BD2 JUMP JUMPDEST PUSH1 0xC PUSH1 0x0 DUP1 JUMPDEST DUP4 MLOAD DUP2 LT ISZERO PUSH2 0xDC4 JUMPI PUSH1 0x0 DUP5 DUP3 DUP2 MLOAD DUP2 LT PUSH2 0xCF5 JUMPI PUSH4 0x4E487B71 PUSH1 0xE0 SHL PUSH1 0x0 MSTORE PUSH1 0x32 PUSH1 0x4 MSTORE PUSH1 0x24 PUSH1 0x0 REVERT JUMPDEST PUSH1 0x20 MUL PUSH1 0x20 ADD ADD MLOAD SWAP1 POP DUP1 PUSH1 0x0 ADD MLOAD PUSH1 0xFF AND PUSH1 0x0 EQ DUP1 ISZERO PUSH2 0xD28 JUMPI POP DUP1 PUSH1 0x40 ADD MLOAD PUSH1 0x2 EQ DUP1 PUSH2 0xD28 JUMPI POP DUP1 PUSH1 0x40 ADD MLOAD PUSH1 0x3 EQ JUMPDEST ISZERO PUSH2 0xD37 JUMPI PUSH1 0x1 SWAP3 POP POP PUSH2 0xDC4 JUMP JUMPDEST DUP1 PUSH1 0x0 ADD MLOAD PUSH1 0xFF AND PUSH1 0x1 EQ DUP1 ISZERO PUSH2 0xD55 JUMPI POP DUP1 PUSH1 0x20 ADD MLOAD PUSH1 0xFF AND PUSH1 0x2 EQ JUMPDEST DUP1 ISZERO PUSH2 0xD65 JUMPI POP PUSH1 0x0 DUP2 PUSH1 0x60 ADD MLOAD GT JUMPDEST ISZERO PUSH2 0xD74 JUMPI PUSH1 0x1 SWAP3 POP POP PUSH2 0xDC4 JUMP JUMPDEST DUP1 PUSH1 0x0 ADD MLOAD PUSH1 0xFF AND PUSH1 0x2 EQ DUP1 ISZERO PUSH2 0xD92 JUMPI POP DUP1 PUSH1 0x20 ADD MLOAD PUSH1 0xFF AND PUSH1 0x2 EQ JUMPDEST DUP1 ISZERO PUSH2 0xDA2 JUMPI POP PUSH1 0x0 DUP2 PUSH1 0x60 ADD MLOAD GT JUMPDEST ISZERO PUSH2 0xDB1 JUMPI PUSH1 0x1 SWAP3 POP POP PUSH2 0xDC4 JUMP JUMPDEST POP DUP1 PUSH2 0xDBC DUP2 PUSH2 0x4423 JUMP JUMPDEST SWAP2 POP POP PUSH2 0xCCA JUMP JUMPDEST POP DUP1 DUP1 ISZERO PUSH2 0xDEB JUMPI POP PUSH1 0xB SLOAD ISZERO DUP1 PUSH2 0xDEB JUMPI POP PUSH1 0xB SLOAD PUSH2 0xDE7 SWAP1 PUSH3 0x15180 PUSH2 0x4281 JUMP JUMPDEST TIMESTAMP LT ISZERO JUMPDEST ISZERO PUSH2 0xE09 JUMPI PUSH1 0xE SLOAD PUSH1 0x9 SSTORE PUSH1 0xF SLOAD PUSH1 0xA SSTORE PUSH2 0xE05 TIMESTAMP PUSH2 0x2AF5 JUMP JUMPDEST PUSH1 0xB SSTORE JUMPDEST PUSH1 0x0 JUMPDEST DUP4 MLOAD DUP2 LT ISZERO PUSH2 0x17CC JUMPI PUSH1 0x0 DUP5 DUP3 DUP2 MLOAD DUP2 LT PUSH2 0xE37 JUMPI PUSH4 0x4E487B71 PUSH1 0xE0 SHL PUSH1 0x0 MSTORE PUSH1 0x32 PUSH1 0x4 MSTORE PUSH1 0x24 PUSH1 0x0 REVERT JUMPDEST PUSH1 0x20 MUL PUSH1 0x20 ADD ADD MLOAD SWAP1 POP DUP1 PUSH1 0x0 ADD MLOAD PUSH1 0xFF AND PUSH1 0x0 EQ ISZERO PUSH2 0xEE2 JUMPI PUSH1 0x40 DUP2 ADD MLOAD PUSH2 0xE66 JUMPI PUSH1 0x60 DUP2 ADD MLOAD DUP5 SSTORE PUSH2 0xEDD JUMP JUMPDEST DUP1 PUSH1 0x40 ADD MLOAD PUSH1 0x1 EQ ISZERO PUSH2 0xE82 JUMPI PUSH1 0x60 DUP2 ADD MLOAD PUSH1 0x1 DUP6 ADD SSTORE PUSH2 0xEDD JUMP JUMPDEST DUP1 PUSH1 0x40 ADD MLOAD PUSH1 0x2 EQ ISZERO PUSH2 0xEB2 JUMPI DUP1 PUSH1 0x60 ADD MLOAD DUP5 PUSH1 0x2 ADD PUSH1 0x0 DUP3 DUP3 SLOAD PUSH2 0xEA7 SWAP2 SWAP1 PUSH2 0x4281 JUMP JUMPDEST SWAP1 SWAP2 SSTORE POP PUSH2 0xEDD SWAP1 POP JUMP JUMPDEST DUP1 PUSH1 0x40 ADD MLOAD PUSH1 0x3 EQ ISZERO PUSH2 0xEDD JUMPI DUP1 PUSH1 0x60 ADD MLOAD DUP5 PUSH1 0x3 ADD PUSH1 0x0 DUP3 DUP3 SLOAD PUSH2 0xED7 SWAP2 SWAP1 PUSH2 0x4281 JUMP JUMPDEST SWAP1 SWAP2 SSTORE POP POP JUMPDEST PUSH2 0x17B9 JUMP JUMPDEST DUP1 PUSH1 0x0 ADD MLOAD PUSH1 0xFF AND PUSH1 0x1 EQ ISZERO PUSH2 0x12B4 JUMPI PUSH1 0x20 DUP2 ADD MLOAD PUSH1 0xFF AND PUSH2 0x109B JUMPI PUSH1 0x40 DUP1 DUP3 ADD MLOAD PUSH1 0x0 SWAP1 DUP2 MSTORE PUSH1 0x18 PUSH1 0x20 MSTORE KECCAK256 DUP1 SLOAD PUSH1 0x1 PUSH1 0x1 PUSH1 0xA0 SHL SUB AND PUSH2 0x100F JUMPI PUSH1 0x80 DUP3 ADD DUP1 MLOAD DUP3 SLOAD PUSH1 0x1 PUSH1 0x1 PUSH1 0xA0 SHL SUB NOT SWAP1 DUP2 AND PUSH1 0x1 PUSH1 0x1 PUSH1 0xA0 SHL SUB SWAP3 DUP4 AND OR DUP5 SSTORE PUSH1 0xA0 DUP6 ADD MLOAD PUSH1 0x1 DUP1 DUP7 ADD DUP1 SLOAD PUSH1 0x1 PUSH1 0xA0 SHL SWAP5 AND SWAP3 DUP6 AND SWAP3 SWAP1 SWAP3 OR PUSH1 0xFF PUSH1 0xA0 SHL NOT AND SWAP3 SWAP1 SWAP3 OR SWAP1 SSTORE PUSH1 0x40 DUP1 DUP7 ADD DUP1 MLOAD PUSH1 0x11 DUP1 SLOAD DUP1 DUP7 ADD DUP3 SSTORE PUSH1 0x0 SWAP2 DUP3 MSTORE PUSH32 0x31ECC21A745E3968A04E9570E4425BC18FA8019C68028196B546D1669C200C68 ADD SWAP2 SWAP1 SWAP2 SSTORE SWAP5 MLOAD SWAP1 SWAP4 AND DUP5 MSTORE PUSH1 0x15 PUSH1 0x20 SWAP1 DUP2 MSTORE SWAP1 DUP5 KECCAK256 DUP4 MLOAD DUP2 SLOAD DUP1 DUP6 ADD DUP4 SSTORE SWAP2 DUP7 MSTORE SWAP2 SWAP1 SWAP5 KECCAK256 SWAP1 SWAP4 ADD SWAP3 SWAP1 SWAP3 SSTORE MLOAD PUSH2 0xFD4 SWAP2 PUSH2 0x4281 JUMP JUMPDEST PUSH1 0x8 SSTORE PUSH1 0x4 SLOAD PUSH1 0x40 DUP1 DUP5 ADD MLOAD SWAP1 MLOAD PUSH1 0x0 DUP1 MLOAD PUSH1 0x20 PUSH2 0x44B2 DUP4 CODECOPY DUP2 MLOAD SWAP2 MSTORE SWAP3 PUSH2 0x1002 SWAP3 SWAP1 SWAP2 PUSH1 0x1 SWAP1 DUP2 SWAP1 PUSH2 0x41A5 JUMP JUMPDEST PUSH1 0x40 MLOAD DUP1 SWAP2 SUB SWAP1 LOG1 PUSH2 0x1095 JUMP JUMPDEST PUSH1 0x60 DUP3 ADD MLOAD PUSH2 0x1095 JUMPI PUSH1 0x1 DUP2 ADD DUP1 SLOAD PUSH1 0xFF PUSH1 0xA0 SHL NOT AND SWAP1 SSTORE PUSH1 0x40 DUP3 ADD MLOAD PUSH2 0x1038 SWAP1 PUSH1 0x11 SWAP1 PUSH2 0x2B0E JUMP JUMPDEST DUP1 SLOAD PUSH1 0x1 PUSH1 0x1 PUSH1 0xA0 SHL SUB AND PUSH1 0x0 SWAP1 DUP2 MSTORE PUSH1 0x15 PUSH1 0x20 MSTORE PUSH1 0x40 SWAP1 DUP2 SWAP1 KECCAK256 SWAP1 DUP4 ADD MLOAD PUSH2 0x1061 SWAP2 SWAP1 PUSH2 0x2B0E JUMP JUMPDEST PUSH1 0x0 DUP1 MLOAD PUSH1 0x20 PUSH2 0x44B2 DUP4 CODECOPY DUP2 MLOAD SWAP2 MSTORE PUSH1 0x4 SLOAD DUP4 PUSH1 0x40 ADD MLOAD PUSH1 0x1 PUSH1 0x0 PUSH1 0x40 MLOAD PUSH2 0x108C SWAP5 SWAP4 SWAP3 SWAP2 SWAP1 PUSH2 0x41A5 JUMP JUMPDEST PUSH1 0x40 MLOAD DUP1 SWAP2 SUB SWAP1 LOG1 JUMPDEST POP PUSH2 0xEDD JUMP JUMPDEST DUP1 PUSH1 0x20 ADD MLOAD PUSH1 0xFF AND PUSH1 0x1 EQ ISZERO PUSH2 0x10D3 JUMPI PUSH1 0x40 DUP1 DUP3 ADD MLOAD PUSH1 0x0 SWAP1 DUP2 MSTORE PUSH1 0x19 PUSH1 0x20 MSTORE KECCAK256 PUSH1 0xC0 DUP3 ADD MLOAD DUP2 SSTORE PUSH1 0xE0 DUP3 ADD MLOAD PUSH1 0x1 SWAP1 SWAP2 ADD SSTORE PUSH2 0xEDD JUMP JUMPDEST DUP1 PUSH1 0x20 ADD MLOAD PUSH1 0xFF AND PUSH1 0x2 EQ ISZERO PUSH2 0xEDD JUMPI PUSH1 0x40 DUP1 DUP3 ADD DUP1 MLOAD PUSH1 0x0 SWAP1 DUP2 MSTORE PUSH1 0x1A PUSH1 0x20 SWAP1 DUP2 MSTORE DUP4 DUP3 KECCAK256 SWAP3 MLOAD DUP3 MSTORE PUSH1 0x18 SWAP1 MSTORE SWAP2 SWAP1 SWAP2 KECCAK256 DUP2 SLOAD ISZERO DUP1 ISZERO PUSH2 0x111D JUMPI POP DUP1 SLOAD PUSH1 0x1 PUSH1 0x1 PUSH1 0xA0 SHL SUB AND ISZERO ISZERO JUMPDEST ISZERO PUSH2 0x1167 JUMPI PUSH1 0x60 DUP4 ADD MLOAD DUP1 DUP4 SSTORE PUSH1 0x1 DUP8 ADD DUP1 SLOAD PUSH1 0x0 SWAP1 PUSH2 0x113E SWAP1 DUP5 SWAP1 PUSH2 0x4281 JUMP JUMPDEST SWAP1 SWAP2 SSTORE POP POP PUSH1 0x60 DUP4 ADD MLOAD PUSH1 0x3 DUP8 ADD DUP1 SLOAD PUSH1 0x0 SWAP1 PUSH2 0x115C SWAP1 DUP5 SWAP1 PUSH2 0x4281 JUMP JUMPDEST SWAP1 SWAP2 SSTORE POP PUSH2 0x12AD SWAP1 POP JUMP JUMPDEST PUSH1 0x1 DUP2 DUP2 ADD SLOAD PUSH1 0x1 PUSH1 0xA0 SHL SWAP1 DIV PUSH1 0xFF AND EQ ISZERO PUSH2 0x12AD JUMPI PUSH1 0x60 DUP4 ADD MLOAD DUP3 SLOAD LT ISZERO PUSH2 0x11A2 JUMPI PUSH1 0x40 MLOAD PUSH3 0x461BCD PUSH1 0xE5 SHL DUP2 MSTORE PUSH1 0x4 ADD PUSH2 0x86D SWAP1 PUSH2 0x3C25 JUMP JUMPDEST DUP3 PUSH1 0x60 ADD MLOAD DUP3 PUSH1 0x0 ADD PUSH1 0x0 DUP3 DUP3 SLOAD PUSH2 0x11BA SWAP2 SWAP1 PUSH2 0x43E0 JUMP JUMPDEST SWAP1 SWAP2 SSTORE POP POP PUSH1 0x60 DUP4 ADD MLOAD PUSH1 0x1 DUP4 ADD DUP1 SLOAD PUSH1 0x0 SWAP1 PUSH2 0x11D8 SWAP1 DUP5 SWAP1 PUSH2 0x4281 JUMP JUMPDEST SWAP1 SWAP2 SSTORE POP POP PUSH1 0x60 DUP4 ADD MLOAD DUP7 SLOAD DUP8 SWAP1 PUSH1 0x0 SWAP1 PUSH2 0x11F4 SWAP1 DUP5 SWAP1 PUSH2 0x43E0 JUMP JUMPDEST SWAP1 SWAP2 SSTORE POP POP DUP2 SLOAD ISZERO PUSH2 0x1207 JUMPI PUSH1 0x2 PUSH2 0x120A JUMP JUMPDEST PUSH1 0x3 JUMPDEST PUSH1 0x1 DUP3 ADD DUP1 SLOAD PUSH1 0xFF SWAP3 SWAP1 SWAP3 AND PUSH1 0x1 PUSH1 0xA0 SHL MUL PUSH1 0xFF PUSH1 0xA0 SHL NOT SWAP1 SWAP3 AND SWAP2 SWAP1 SWAP2 OR SWAP1 SSTORE DUP2 SLOAD PUSH2 0x1269 JUMPI PUSH2 0x1240 PUSH1 0x11 DUP5 PUSH1 0x40 ADD MLOAD PUSH2 0x2B0E JUMP JUMPDEST DUP1 SLOAD PUSH1 0x1 PUSH1 0x1 PUSH1 0xA0 SHL SUB AND PUSH1 0x0 SWAP1 DUP2 MSTORE PUSH1 0x15 PUSH1 0x20 MSTORE PUSH1 0x40 SWAP1 DUP2 SWAP1 KECCAK256 SWAP1 DUP5 ADD MLOAD PUSH2 0x1269 SWAP2 SWAP1 PUSH2 0x2B0E JUMP JUMPDEST PUSH1 0x0 DUP1 MLOAD PUSH1 0x20 PUSH2 0x44B2 DUP4 CODECOPY DUP2 MLOAD SWAP2 MSTORE PUSH1 0x4 SLOAD DUP5 PUSH1 0x40 ADD MLOAD PUSH1 0x1 DUP5 PUSH1 0x1 ADD PUSH1 0x14 SWAP1 SLOAD SWAP1 PUSH2 0x100 EXP SWAP1 DIV PUSH1 0xFF AND PUSH1 0x40 MLOAD PUSH2 0x12A4 SWAP5 SWAP4 SWAP3 SWAP2 SWAP1 PUSH2 0x41A5 JUMP JUMPDEST PUSH1 0x40 MLOAD DUP1 SWAP2 SUB SWAP1 LOG1 JUMPDEST POP POP PUSH2 0x17B9 JUMP JUMPDEST DUP1 PUSH1 0x0 ADD MLOAD PUSH1 0xFF AND PUSH1 0x2 EQ ISZERO PUSH2 0x164F JUMPI PUSH1 0x20 DUP2 ADD MLOAD PUSH1 0xFF AND PUSH2 0x1451 JUMPI PUSH1 0x40 DUP1 DUP3 ADD MLOAD PUSH1 0x0 SWAP1 DUP2 MSTORE PUSH1 0x1B PUSH1 0x20 MSTORE KECCAK256 DUP1 SLOAD PUSH1 0x1 PUSH1 0x1 PUSH1 0xA0 SHL SUB AND PUSH2 0x13D5 JUMPI PUSH1 0x80 DUP3 ADD DUP1 MLOAD DUP3 SLOAD PUSH1 0x1 PUSH1 0x1 PUSH1 0xA0 SHL SUB NOT SWAP1 DUP2 AND PUSH1 0x1 PUSH1 0x1 PUSH1 0xA0 SHL SUB SWAP3 DUP4 AND OR DUP5 SSTORE PUSH1 0xA0 DUP6 ADD MLOAD PUSH1 0x1 DUP1 DUP7 ADD DUP1 SLOAD PUSH1 0x1 PUSH1 0xA0 SHL SWAP5 AND SWAP3 DUP6 AND SWAP3 SWAP1 SWAP3 OR PUSH1 0xFF PUSH1 0xA0 SHL NOT AND SWAP3 SWAP1 SWAP3 OR SWAP1 SSTORE PUSH1 0x40 DUP1 DUP7 ADD DUP1 MLOAD PUSH1 0x12 DUP1 SLOAD DUP1 DUP7 ADD DUP3 SSTORE PUSH1 0x0 SWAP2 DUP3 MSTORE PUSH32 0xBB8A6A4669BA250D26CD7A459ECA9D215F8307E33AEBE50379BC5A3617EC3444 ADD SWAP2 SWAP1 SWAP2 SSTORE SWAP5 MLOAD SWAP1 SWAP4 AND DUP5 MSTORE PUSH1 0x15 PUSH1 0x20 SWAP1 DUP2 MSTORE SWAP1 DUP5 KECCAK256 DUP4 MLOAD DUP2 SLOAD DUP1 DUP6 ADD DUP4 SSTORE SWAP2 DUP7 MSTORE SWAP2 SWAP1 SWAP5 KECCAK256 SWAP1 SWAP4 ADD SWAP3 SWAP1 SWAP3 SSTORE MLOAD PUSH2 0x13A6 SWAP2 PUSH2 0x4281 JUMP JUMPDEST PUSH1 0x8 SSTORE PUSH1 0x4 SLOAD PUSH1 0x40 DUP1 DUP5 ADD MLOAD SWAP1 MLOAD PUSH1 0x0 DUP1 MLOAD PUSH1 0x20 PUSH2 0x44B2 DUP4 CODECOPY DUP2 MLOAD SWAP2 MSTORE SWAP3 PUSH2 0x1002 SWAP3 SWAP1 SWAP2 PUSH1 0x0 SWAP1 PUSH1 0x1 SWAP1 PUSH2 0x41A5 JUMP JUMPDEST PUSH1 0x60 DUP3 ADD MLOAD PUSH2 0x1095 JUMPI PUSH1 0x1 DUP2 ADD DUP1 SLOAD PUSH1 0xFF PUSH1 0xA0 SHL NOT AND SWAP1 SSTORE PUSH1 0x40 DUP3 ADD MLOAD PUSH2 0x13FE SWAP1 PUSH1 0x12 SWAP1 PUSH2 0x2B0E JUMP JUMPDEST DUP1 SLOAD PUSH1 0x1 PUSH1 0x1 PUSH1 0xA0 SHL SUB AND PUSH1 0x0 SWAP1 DUP2 MSTORE PUSH1 0x15 PUSH1 0x20 MSTORE PUSH1 0x40 SWAP1 DUP2 SWAP1 KECCAK256 SWAP1 DUP4 ADD MLOAD PUSH2 0x1427 SWAP2 SWAP1 PUSH2 0x2B0E JUMP JUMPDEST PUSH1 0x0 DUP1 MLOAD PUSH1 0x20 PUSH2 0x44B2 DUP4 CODECOPY DUP2 MLOAD SWAP2 MSTORE PUSH1 0x4 SLOAD DUP4 PUSH1 0x40 ADD MLOAD PUSH1 0x0 DUP1 PUSH1 0x40 MLOAD PUSH2 0x108C SWAP5 SWAP4 SWAP3 SWAP2 SWAP1 PUSH2 0x41A5 JUMP JUMPDEST DUP1 PUSH1 0x20 ADD MLOAD PUSH1 0xFF AND PUSH1 0x1 EQ ISZERO PUSH2 0x1489 JUMPI PUSH1 0x40 DUP1 DUP3 ADD MLOAD PUSH1 0x0 SWAP1 DUP2 MSTORE PUSH1 0x1C PUSH1 0x20 MSTORE KECCAK256 PUSH1 0xC0 DUP3 ADD MLOAD DUP2 SSTORE PUSH1 0xE0 DUP3 ADD MLOAD PUSH1 0x1 SWAP1 SWAP2 ADD SSTORE PUSH2 0xEDD JUMP JUMPDEST DUP1 PUSH1 0x20 ADD MLOAD PUSH1 0xFF AND PUSH1 0x2 EQ ISZERO PUSH2 0xEDD JUMPI PUSH1 0x40 DUP1 DUP3 ADD DUP1 MLOAD PUSH1 0x0 SWAP1 DUP2 MSTORE PUSH1 0x1D PUSH1 0x20 SWAP1 DUP2 MSTORE DUP4 DUP3 KECCAK256 SWAP3 MLOAD DUP3 MSTORE PUSH1 0x1B SWAP1 MSTORE SWAP2 SWAP1 SWAP2 KECCAK256 DUP2 SLOAD ISZERO DUP1 ISZERO PUSH2 0x14D3 JUMPI POP DUP1 SLOAD PUSH1 0x1 PUSH1 0x1 PUSH1 0xA0 SHL SUB AND ISZERO ISZERO JUMPDEST ISZERO PUSH2 0x1510 JUMPI PUSH1 0x60 DUP4 ADD MLOAD DUP1 DUP4 SSTORE DUP7 SLOAD DUP8 SWAP1 PUSH1 0x0 SWAP1 PUSH2 0x14F2 SWAP1 DUP5 SWAP1 PUSH2 0x4281 JUMP JUMPDEST SWAP1 SWAP2 SSTORE POP POP PUSH1 0x60 DUP4 ADD MLOAD PUSH1 0x2 DUP8 ADD DUP1 SLOAD PUSH1 0x0 SWAP1 PUSH2 0x115C SWAP1 DUP5 SWAP1 PUSH2 0x4281 JUMP JUMPDEST PUSH1 0x1 DUP2 DUP2 ADD SLOAD PUSH1 0x1 PUSH1 0xA0 SHL SWAP1 DIV PUSH1 0xFF AND EQ ISZERO PUSH2 0x12AD JUMPI PUSH1 0x60 DUP4 ADD MLOAD DUP3 SLOAD LT ISZERO PUSH2 0x154B JUMPI PUSH1 0x40 MLOAD PUSH3 0x461BCD PUSH1 0xE5 SHL DUP2 MSTORE PUSH1 0x4 ADD PUSH2 0x86D SWAP1 PUSH2 0x3C25 JUMP JUMPDEST DUP3 PUSH1 0x60 ADD MLOAD DUP3 PUSH1 0x0 ADD PUSH1 0x0 DUP3 DUP3 SLOAD PUSH2 0x1563 SWAP2 SWAP1 PUSH2 0x43E0 JUMP JUMPDEST SWAP1 SWAP2 SSTORE POP POP PUSH1 0x60 DUP4 ADD MLOAD PUSH1 0x1 DUP4 ADD DUP1 SLOAD PUSH1 0x0 SWAP1 PUSH2 0x1581 SWAP1 DUP5 SWAP1 PUSH2 0x4281 JUMP JUMPDEST SWAP1 SWAP2 SSTORE POP POP PUSH1 0x60 DUP4 ADD MLOAD PUSH1 0x1 DUP8 ADD DUP1 SLOAD PUSH1 0x0 SWAP1 PUSH2 0x159F SWAP1 DUP5 SWAP1 PUSH2 0x43E0 JUMP JUMPDEST SWAP1 SWAP2 SSTORE POP POP DUP2 SLOAD ISZERO PUSH2 0x15B2 JUMPI PUSH1 0x2 PUSH2 0x15B5 JUMP JUMPDEST PUSH1 0x3 JUMPDEST PUSH1 0x1 DUP3 ADD DUP1 SLOAD PUSH1 0xFF SWAP3 SWAP1 SWAP3 AND PUSH1 0x1 PUSH1 0xA0 SHL MUL PUSH1 0xFF PUSH1 0xA0 SHL NOT SWAP1 SWAP3 AND SWAP2 SWAP1 SWAP2 OR SWAP1 SSTORE DUP2 SLOAD PUSH2 0x1614 JUMPI PUSH2 0x15EB PUSH1 0x12 DUP5 PUSH1 0x40 ADD MLOAD PUSH2 0x2B0E JUMP JUMPDEST DUP1 SLOAD PUSH1 0x1 PUSH1 0x1 PUSH1 0xA0 SHL SUB AND PUSH1 0x0 SWAP1 DUP2 MSTORE PUSH1 0x15 PUSH1 0x20 MSTORE PUSH1 0x40 SWAP1 DUP2 SWAP1 KECCAK256 SWAP1 DUP5 ADD MLOAD PUSH2 0x1614 SWAP2 SWAP1 PUSH2 0x2B0E JUMP JUMPDEST PUSH1 0x0 DUP1 MLOAD PUSH1 0x20 PUSH2 0x44B2 DUP4 CODECOPY DUP2 MLOAD SWAP2 MSTORE PUSH1 0x4 SLOAD DUP5 PUSH1 0x40 ADD MLOAD PUSH1 0x0 DUP5 PUSH1 0x1 ADD PUSH1 0x14 SWAP1 SLOAD SWAP1 PUSH2 0x100 EXP SWAP1 DIV PUSH1 0xFF AND PUSH1 0x40 MLOAD PUSH2 0x12A4 SWAP5 SWAP4 SWAP3 SWAP2 SWAP1 PUSH2 0x41A5 JUMP JUMPDEST DUP1 PUSH1 0x0 ADD MLOAD PUSH1 0xFF AND PUSH1 0x3 EQ ISZERO PUSH2 0x17B9 JUMPI PUSH1 0x40 DUP1 MLOAD PUSH1 0xC0 DUP1 DUP3 ADD DUP4 MSTORE PUSH1 0x60 DUP5 DUP2 ADD MLOAD DUP4 MSTORE SWAP1 DUP5 ADD DUP1 MLOAD PUSH1 0x80 SWAP1 DUP2 SHR PUSH1 0x20 DUP6 ADD SWAP1 DUP2 MSTORE SWAP2 MLOAD PUSH16 0xFFFFFFFFFFFFFFFFFFFFFFFFFFFFFFFF SWAP1 DUP2 AND SWAP6 DUP6 ADD SWAP6 DUP7 MSTORE PUSH1 0xE0 DUP8 ADD DUP1 MLOAD DUP4 SHR SWAP5 DUP7 ADD SWAP5 DUP6 MSTORE MLOAD AND SWAP1 DUP5 ADD SWAP1 DUP2 MSTORE TIMESTAMP PUSH1 0xA0 DUP6 ADD SWAP1 DUP2 MSTORE PUSH1 0x17 DUP1 SLOAD PUSH1 0x1 DUP2 ADD DUP3 SSTORE PUSH1 0x0 SWAP2 SWAP1 SWAP2 MSTORE SWAP5 MLOAD PUSH32 0xC624B66CC0138B8FABC209247F72D758E1CF3343756D543BADBF24212BED8C15 PUSH1 0x6 SWAP1 SWAP7 MUL SWAP6 DUP7 ADD SSTORE SWAP2 MLOAD PUSH32 0xC624B66CC0138B8FABC209247F72D758E1CF3343756D543BADBF24212BED8C16 DUP6 ADD SSTORE SWAP4 MLOAD PUSH32 0xC624B66CC0138B8FABC209247F72D758E1CF3343756D543BADBF24212BED8C17 DUP5 ADD SSTORE SWAP1 MLOAD PUSH32 0xC624B66CC0138B8FABC209247F72D758E1CF3343756D543BADBF24212BED8C18 DUP4 ADD SSTORE SWAP2 MLOAD PUSH32 0xC624B66CC0138B8FABC209247F72D758E1CF3343756D543BADBF24212BED8C19 DUP3 ADD SSTORE SWAP1 MLOAD PUSH32 0xC624B66CC0138B8FABC209247F72D758E1CF3343756D543BADBF24212BED8C1A SWAP1 SWAP2 ADD SSTORE JUMPDEST POP DUP1 PUSH2 0x17C4 DUP2 PUSH2 0x4423 JUMP JUMPDEST SWAP2 POP POP PUSH2 0xE0C JUMP JUMPDEST POP DUP2 SLOAD ISZERO DUP1 ISZERO SWAP1 PUSH2 0x17E1 JUMPI POP PUSH1 0x0 DUP3 PUSH1 0x1 ADD SLOAD GT JUMPDEST ISZERO PUSH2 0x180D JUMPI PUSH1 0x1 DUP3 ADD SLOAD DUP3 SLOAD PUSH2 0x17FF SWAP1 PUSH8 0xDE0B6B3A7640000 PUSH2 0x43C1 JUMP JUMPDEST PUSH2 0x1809 SWAP2 SWAP1 PUSH2 0x4299 JUMP JUMPDEST PUSH1 0x10 SSTORE JUMPDEST PUSH32 0x8BBCB78ED74088D6EABDCEF17BCBDDCF7339DEA6ADFA7BEBD83304BFA04DCD3A PUSH1 0x4 SLOAD DUP4 PUSH1 0x0 ADD SLOAD DUP5 PUSH1 0x1 ADD SLOAD PUSH1 0x40 MLOAD PUSH2 0x184A SWAP4 SWAP3 SWAP2 SWAP1 PUSH2 0x41C5 JUMP JUMPDEST PUSH1 0x40 MLOAD DUP1 SWAP2 SUB SWAP1 LOG1 PUSH2 0x185A PUSH2 0x2C03 JUMP JUMPDEST POP POP PUSH2 0x1864 PUSH2 0x2EE7 JUMP JUMPDEST POP POP JUMP JUMPDEST PUSH1 0x60 PUSH1 0x11 DUP1 SLOAD DUP1 PUSH1 0x20 MUL PUSH1 0x20 ADD PUSH1 0x40 MLOAD SWAP1 DUP2 ADD PUSH1 0x40 MSTORE DUP1 SWAP3 SWAP2 SWAP1 DUP2 DUP2 MSTORE PUSH1 0x20 ADD DUP3 DUP1 SLOAD DUP1 ISZERO PUSH2 0x18B6 JUMPI PUSH1 0x20 MUL DUP3 ADD SWAP2 SWAP1 PUSH1 0x0 MSTORE PUSH1 0x20 PUSH1 0x0 KECCAK256 SWAP1 JUMPDEST DUP2 SLOAD DUP2 MSTORE PUSH1 0x20 ADD SWAP1 PUSH1 0x1 ADD SWAP1 DUP1 DUP4 GT PUSH2 0x18A2 JUMPI JUMPDEST POP POP POP POP POP SWAP1 POP SWAP1 JUMP JUMPDEST PUSH1 0x8 SLOAD DUP2 JUMP JUMPDEST PUSH1 0x7 SLOAD PUSH1 0x1 PUSH1 0x1 PUSH1 0xA0 SHL SUB AND DUP2 JUMP JUMPDEST PUSH1 0x1E PUSH1 0x20 MSTORE PUSH1 0x0 SWAP1 DUP2 MSTORE PUSH1 0x40 SWAP1 KECCAK256 DUP1 SLOAD PUSH1 0x1 DUP3 ADD SLOAD PUSH1 0x2 DUP4 ADD SLOAD PUSH1 0x3 DUP5 ADD SLOAD PUSH1 0x4 DUP6 ADD SLOAD PUSH1 0x5 SWAP1 SWAP6 ADD SLOAD PUSH1 0x1 PUSH1 0x1 PUSH1 0xA0 SHL SUB SWAP5 DUP6 AND SWAP6 SWAP4 SWAP1 SWAP5 AND SWAP4 SWAP2 SWAP3 SWAP1 SWAP2 PUSH1 0xFF AND DUP7 JUMP JUMPDEST PUSH1 0x13 DUP2 DUP2 SLOAD DUP2 LT PUSH2 0x192A JUMPI PUSH1 0x0 DUP1 REVERT JUMPDEST PUSH1 0x0 SWAP2 DUP3 MSTORE PUSH1 0x20 SWAP1 SWAP2 KECCAK256 ADD SLOAD SWAP1 POP DUP2 JUMP JUMPDEST PUSH1 0x2 SLOAD PUSH1 0xFF AND DUP2 JUMP JUMPDEST PUSH1 0xC SLOAD PUSH1 0xD SLOAD PUSH1 0xE SLOAD PUSH1 0xF SLOAD SWAP1 SWAP2 SWAP3 SWAP4 JUMP JUMPDEST PUSH1 0x1D PUSH1 0x20 MSTORE PUSH1 0x0 SWAP1 DUP2 MSTORE PUSH1 0x40 SWAP1 KECCAK256 DUP1 SLOAD PUSH1 0x1 SWAP1 SWAP2 ADD SLOAD DUP3 JUMP JUMPDEST PUSH1 0x0 SWAP1 DUP2 MSTORE PUSH1 0x18 PUSH1 0x20 SWAP1 DUP2 MSTORE PUSH1 0x40 SWAP2 DUP3 SWAP1 KECCAK256 DUP3 MLOAD PUSH1 0x60 DUP2 ADD DUP5 MSTORE DUP2 SLOAD PUSH1 0x1 PUSH1 0x1 PUSH1 0xA0 SHL SUB SWAP1 DUP2 AND DUP1 DUP4 MSTORE PUSH1 0x1 SWAP1 SWAP4 ADD SLOAD SWAP1 DUP2 AND SWAP4 DUP3 ADD DUP5 SWAP1 MSTORE PUSH1 0x1 PUSH1 0xA0 SHL SWAP1 DIV PUSH1 0xFF AND SWAP4 ADD DUP4 SWAP1 MSTORE SWAP3 SWAP1 SWAP2 SWAP1 JUMP JUMPDEST PUSH1 0x3 SLOAD PUSH1 0x1 PUSH1 0xA0 SHL SWAP1 DIV PUSH1 0xFF AND SWAP1 JUMP JUMPDEST PUSH1 0x7 SLOAD PUSH1 0x1 PUSH1 0x1 PUSH1 0xA0 SHL SUB AND ISZERO PUSH2 0x19F6 JUMPI PUSH1 0x40 MLOAD PUSH3 0x461BCD PUSH1 0xE5 SHL DUP2 MSTORE PUSH1 0x4 ADD PUSH2 0x86D SWAP1 PUSH2 0x3E47 JUMP JUMPDEST PUSH1 0x1 PUSH1 0x1 PUSH1 0xA0 SHL SUB DUP2 AND PUSH2 0x1A1C JUMPI PUSH1 0x40 MLOAD PUSH3 0x461BCD PUSH1 0xE5 SHL DUP2 MSTORE PUSH1 0x4 ADD PUSH2 0x86D SWAP1 PUSH2 0x3D3D JUMP JUMPDEST PUSH1 0x7 DUP1 SLOAD PUSH1 0x1 PUSH1 0x1 PUSH1 0xA0 SHL SUB NOT AND PUSH1 0x1 PUSH1 0x1 PUSH1 0xA0 SHL SUB SWAP3 SWAP1 SWAP3 AND SWAP2 SWAP1 SWAP2 OR SWAP1 SSTORE JUMP JUMPDEST PUSH1 0x17 SLOAD SWAP1 JUMP JUMPDEST PUSH1 0x3 SLOAD PUSH1 0x1 PUSH1 0xA8 SHL SWAP1 DIV PUSH1 0xFF AND SWAP1 JUMP JUMPDEST PUSH1 0x60 PUSH1 0x14 DUP1 SLOAD DUP1 PUSH1 0x20 MUL PUSH1 0x20 ADD PUSH1 0x40 MLOAD SWAP1 DUP2 ADD PUSH1 0x40 MSTORE DUP1 SWAP3 SWAP2 SWAP1 DUP2 DUP2 MSTORE PUSH1 0x20 ADD DUP3 DUP1 SLOAD DUP1 ISZERO PUSH2 0x18B6 JUMPI PUSH1 0x20 MUL DUP3 ADD SWAP2 SWAP1 PUSH1 0x0 MSTORE PUSH1 0x20 PUSH1 0x0 KECCAK256 SWAP1 DUP2 SLOAD DUP2 MSTORE PUSH1 0x20 ADD SWAP1 PUSH1 0x1 ADD SWAP1 DUP1 DUP4 GT PUSH2 0x18A2 JUMPI POP POP POP POP POP SWAP1 POP SWAP1 JUMP JUMPDEST PUSH1 0x3 SLOAD PUSH1 0x1 PUSH1 0x1 PUSH1 0xA0 SHL SUB AND SWAP1 JUMP JUMPDEST PUSH1 0x0 SWAP1 DUP2 MSTORE PUSH1 0x1D PUSH1 0x20 SWAP1 DUP2 MSTORE PUSH1 0x40 SWAP2 DUP3 SWAP1 KECCAK256 DUP3 MLOAD DUP1 DUP5 ADD SWAP1 SWAP4 MSTORE DUP1 SLOAD DUP1 DUP5 MSTORE PUSH1 0x1 SWAP1 SWAP2 ADD SLOAD SWAP3 SWAP1 SWAP2 ADD DUP3 SWAP1 MSTORE SWAP2 JUMP JUMPDEST PUSH1 0x1 PUSH1 0x1 PUSH1 0xA0 SHL SUB DUP2 AND PUSH1 0x0 SWAP1 DUP2 MSTORE PUSH1 0x15 PUSH1 0x20 SWAP1 DUP2 MSTORE PUSH1 0x40 SWAP2 DUP3 SWAP1 KECCAK256 DUP1 SLOAD DUP4 MLOAD DUP2 DUP5 MUL DUP2 ADD DUP5 ADD SWAP1 SWAP5 MSTORE DUP1 DUP5 MSTORE PUSH1 0x60 SWAP4 SWAP3 DUP4 ADD DUP3 DUP3 DUP1 ISZERO PUSH2 0xADB JUMPI PUSH1 0x20 MUL DUP3 ADD SWAP2 SWAP1 PUSH1 0x0 MSTORE PUSH1 0x20 PUSH1 0x0 KECCAK256 SWAP1 DUP2 SLOAD DUP2 MSTORE PUSH1 0x20 ADD SWAP1 PUSH1 0x1 ADD SWAP1 DUP1 DUP4 GT PUSH2 0xAC7 JUMPI POP POP POP POP POP SWAP1 POP SWAP2 SWAP1 POP JUMP JUMPDEST PUSH1 0x16 PUSH1 0x20 MSTORE DUP2 PUSH1 0x0 MSTORE PUSH1 0x40 PUSH1 0x0 KECCAK256 DUP2 DUP2 SLOAD DUP2 LT PUSH2 0x99E JUMPI PUSH1 0x0 DUP1 REVERT JUMPDEST PUSH1 0x1 PUSH1 0x20 MSTORE PUSH1 0x0 SWAP1 DUP2 MSTORE PUSH1 0x40 SWAP1 KECCAK256 SLOAD PUSH1 0xFF AND DUP2 JUMP JUMPDEST PUSH1 0x8 SLOAD SWAP1 JUMP JUMPDEST PUSH1 0x1A PUSH1 0x20 MSTORE PUSH1 0x0 SWAP1 DUP2 MSTORE PUSH1 0x40 SWAP1 KECCAK256 DUP1 SLOAD PUSH1 0x1 SWAP1 SWAP2 ADD SLOAD DUP3 JUMP JUMPDEST PUSH2 0x1BAA PUSH2 0x2ACB JUMP JUMPDEST PUSH1 0x1 PUSH1 0x1 PUSH1 0xA0 SHL SUB DUP3 AND PUSH1 0x0 SWAP1 DUP2 MSTORE PUSH1 0x1 PUSH1 0x20 MSTORE PUSH1 0x40 SWAP1 KECCAK256 SLOAD PUSH1 0xFF AND PUSH2 0x1BE2 JUMPI PUSH1 0x40 MLOAD PUSH3 0x461BCD PUSH1 0xE5 SHL DUP2 MSTORE PUSH1 0x4 ADD PUSH2 0x86D SWAP1 PUSH2 0x3BD2 JUMP JUMPDEST PUSH1 0x0 JUMPDEST DUP2 MLOAD DUP2 LT ISZERO PUSH2 0x1E5F JUMPI PUSH1 0x0 DUP3 DUP3 DUP2 MLOAD DUP2 LT PUSH2 0x1C10 JUMPI PUSH4 0x4E487B71 PUSH1 0xE0 SHL PUSH1 0x0 MSTORE PUSH1 0x32 PUSH1 0x4 MSTORE PUSH1 0x24 PUSH1 0x0 REVERT JUMPDEST PUSH1 0x20 MUL PUSH1 0x20 ADD ADD MLOAD SWAP1 POP PUSH1 0x0 PUSH1 0x8 SLOAD SWAP1 POP DUP2 PUSH1 0x0 ADD MLOAD PUSH1 0xFF AND PUSH1 0x0 EQ ISZERO PUSH2 0x1D2A JUMPI PUSH1 0x0 DUP2 DUP2 MSTORE PUSH1 0x1E PUSH1 0x20 SWAP1 DUP2 MSTORE PUSH1 0x40 DUP1 DUP4 KECCAK256 DUP1 SLOAD PUSH1 0x1 PUSH1 0x1 PUSH1 0xA0 SHL SUB DUP1 DUP12 AND PUSH1 0x1 PUSH1 0x1 PUSH1 0xA0 SHL SUB NOT SWAP3 DUP4 AND OR DUP4 SSTORE DUP8 DUP6 ADD DUP1 MLOAD PUSH1 0x1 DUP1 DUP7 ADD DUP1 SLOAD SWAP3 DUP6 AND SWAP3 SWAP1 SWAP6 AND SWAP2 SWAP1 SWAP2 OR SWAP1 SWAP4 SSTORE DUP9 DUP6 ADD MLOAD PUSH1 0x2 DUP6 ADD SSTORE PUSH1 0x3 DUP5 ADD DUP8 SWAP1 SSTORE PUSH1 0x4 DUP5 ADD DUP9 SWAP1 SSTORE PUSH1 0x5 DUP5 ADD DUP1 SLOAD PUSH1 0xFF NOT AND SWAP1 SSTORE PUSH1 0x13 DUP1 SLOAD DUP1 DUP6 ADD DUP3 SSTORE SWAP1 DUP9 MSTORE PUSH32 0x66DE8FFDA797E3DE9C05E8FC57B3BF0EC28A930D40B0D285D93C06501CF6A090 ADD DUP9 SWAP1 SSTORE MLOAD AND DUP6 MSTORE PUSH1 0x16 DUP5 MSTORE DUP3 DUP6 KECCAK256 DUP1 SLOAD DUP1 DUP4 ADD DUP3 SSTORE SWAP1 DUP7 MSTORE SWAP4 DUP6 KECCAK256 SWAP1 SWAP4 ADD DUP6 SWAP1 SSTORE SWAP1 MLOAD SWAP1 SWAP3 PUSH32 0xA8EE5BCD7EC950B2508F50465B08E5BD5F8FF88001514273D4FD42076C7CDE1D SWAP3 PUSH2 0x1D1C SWAP3 DUP7 SWAP3 SWAP1 PUSH2 0x417E JUMP JUMPDEST PUSH1 0x40 MLOAD DUP1 SWAP2 SUB SWAP1 LOG1 POP PUSH2 0x1E3C JUMP JUMPDEST DUP2 PUSH1 0x0 ADD MLOAD PUSH1 0xFF AND PUSH1 0x1 EQ ISZERO PUSH2 0x1E24 JUMPI PUSH1 0x0 DUP2 DUP2 MSTORE PUSH1 0x1F PUSH1 0x20 SWAP1 DUP2 MSTORE PUSH1 0x40 DUP1 DUP4 KECCAK256 DUP1 SLOAD PUSH1 0x1 PUSH1 0x1 PUSH1 0xA0 SHL SUB DUP1 DUP12 AND PUSH1 0x1 PUSH1 0x1 PUSH1 0xA0 SHL SUB NOT SWAP3 DUP4 AND OR DUP4 SSTORE DUP8 DUP6 ADD DUP1 MLOAD PUSH1 0x1 DUP1 DUP7 ADD DUP1 SLOAD SWAP3 DUP6 AND SWAP3 SWAP1 SWAP6 AND SWAP2 SWAP1 SWAP2 OR SWAP1 SWAP4 SSTORE DUP9 DUP6 ADD MLOAD PUSH1 0x2 DUP6 ADD SSTORE PUSH1 0x3 DUP5 ADD DUP8 SWAP1 SSTORE PUSH1 0x4 DUP5 ADD DUP9 SWAP1 SSTORE PUSH1 0x5 DUP5 ADD DUP1 SLOAD PUSH1 0xFF NOT AND SWAP1 SSTORE PUSH1 0x14 DUP1 SLOAD DUP1 DUP6 ADD DUP3 SSTORE SWAP1 DUP9 MSTORE PUSH32 0xCE6D7B5282BD9A3661AE061FEED1DBDA4E52AB073B1F9285BE6E155D9C38D4EC ADD DUP9 SWAP1 SSTORE MLOAD AND DUP6 MSTORE PUSH1 0x16 DUP5 MSTORE DUP3 DUP6 KECCAK256 DUP1 SLOAD SWAP2 DUP3 ADD DUP2 SSTORE DUP6 MSTORE SWAP3 DUP5 KECCAK256 SWAP1 SWAP3 ADD DUP5 SWAP1 SSTORE MLOAD SWAP1 SWAP2 PUSH32 0xA8EE5BCD7EC950B2508F50465B08E5BD5F8FF88001514273D4FD42076C7CDE1D SWAP2 PUSH2 0x1D1C SWAP2 DUP6 SWAP2 DUP2 SWAP1 PUSH2 0x417E JUMP JUMPDEST PUSH1 0x40 MLOAD PUSH3 0x461BCD PUSH1 0xE5 SHL DUP2 MSTORE PUSH1 0x4 ADD PUSH2 0x86D SWAP1 PUSH2 0x3EA6 JUMP JUMPDEST PUSH2 0x1E47 DUP2 PUSH1 0x1 PUSH2 0x4281 JUMP JUMPDEST PUSH1 0x8 SSTORE POP DUP2 SWAP1 POP PUSH2 0x1E57 DUP2 PUSH2 0x4423 JUMP JUMPDEST SWAP2 POP POP PUSH2 0x1BE5 JUMP JUMPDEST POP PUSH2 0x1864 PUSH2 0x2EE7 JUMP JUMPDEST PUSH1 0x60 PUSH1 0x13 DUP1 SLOAD DUP1 PUSH1 0x20 MUL PUSH1 0x20 ADD PUSH1 0x40 MLOAD SWAP1 DUP2 ADD PUSH1 0x40 MSTORE DUP1 SWAP3 SWAP2 SWAP1 DUP2 DUP2 MSTORE PUSH1 0x20 ADD DUP3 DUP1 SLOAD DUP1 ISZERO PUSH2 0x18B6 JUMPI PUSH1 0x20 MUL DUP3 ADD SWAP2 SWAP1 PUSH1 0x0 MSTORE PUSH1 0x20 PUSH1 0x0 KECCAK256 SWAP1 DUP2 SLOAD DUP2 MSTORE PUSH1 0x20 ADD SWAP1 PUSH1 0x1 ADD SWAP1 DUP1 DUP4 GT PUSH2 0x18A2 JUMPI POP POP POP POP POP SWAP1 POP SWAP1 JUMP JUMPDEST PUSH2 0x1EC6 PUSH2 0x3552 JUMP JUMPDEST PUSH1 0x17 SLOAD PUSH2 0x1EE5 JUMPI PUSH1 0x40 MLOAD PUSH3 0x461BCD PUSH1 0xE5 SHL DUP2 MSTORE PUSH1 0x4 ADD PUSH2 0x86D SWAP1 PUSH2 0x3BA6 JUMP JUMPDEST PUSH1 0x0 NOT PUSH1 0x0 DUP1 JUMPDEST PUSH1 0x17 SLOAD DUP2 LT ISZERO PUSH2 0x1FD9 JUMPI PUSH1 0x0 PUSH1 0x17 DUP3 DUP2 SLOAD DUP2 LT PUSH2 0x1F19 JUMPI PUSH4 0x4E487B71 PUSH1 0xE0 SHL PUSH1 0x0 MSTORE PUSH1 0x32 PUSH1 0x4 MSTORE PUSH1 0x24 PUSH1 0x0 REVERT JUMPDEST SWAP1 PUSH1 0x0 MSTORE PUSH1 0x20 PUSH1 0x0 KECCAK256 SWAP1 PUSH1 0x6 MUL ADD PUSH1 0x5 ADD SLOAD DUP7 LT PUSH2 0x1F76 JUMPI PUSH1 0x17 DUP3 DUP2 SLOAD DUP2 LT PUSH2 0x1F52 JUMPI PUSH4 0x4E487B71 PUSH1 0xE0 SHL PUSH1 0x0 MSTORE PUSH1 0x32 PUSH1 0x4 MSTORE PUSH1 0x24 PUSH1 0x0 REVERT JUMPDEST SWAP1 PUSH1 0x0 MSTORE PUSH1 0x20 PUSH1 0x0 KECCAK256 SWAP1 PUSH1 0x6 MUL ADD PUSH1 0x5 ADD SLOAD DUP7 PUSH2 0x1F6F SWAP2 SWAP1 PUSH2 0x43E0 JUMP JUMPDEST SWAP1 POP PUSH2 0x1FB7 JUMP JUMPDEST DUP6 PUSH1 0x17 DUP4 DUP2 SLOAD DUP2 LT PUSH2 0x1F98 JUMPI PUSH4 0x4E487B71 PUSH1 0xE0 SHL PUSH1 0x0 MSTORE PUSH1 0x32 PUSH1 0x4 MSTORE PUSH1 0x24 PUSH1 0x0 REVERT JUMPDEST SWAP1 PUSH1 0x0 MSTORE PUSH1 0x20 PUSH1 0x0 KECCAK256 SWAP1 PUSH1 0x6 MUL ADD PUSH1 0x5 ADD SLOAD PUSH2 0x1FB4 SWAP2 SWAP1 PUSH2 0x43E0 JUMP JUMPDEST SWAP1 POP JUMPDEST DUP4 DUP2 LT ISZERO PUSH2 0x1FC6 JUMPI DUP1 SWAP4 POP DUP2 SWAP3 POP JUMPDEST POP DUP1 PUSH2 0x1FD1 DUP2 PUSH2 0x4423 JUMP JUMPDEST SWAP2 POP POP PUSH2 0x1EEC JUMP JUMPDEST POP PUSH1 0x17 DUP2 DUP2 SLOAD DUP2 LT PUSH2 0x1FFB JUMPI PUSH4 0x4E487B71 PUSH1 0xE0 SHL PUSH1 0x0 MSTORE PUSH1 0x32 PUSH1 0x4 MSTORE PUSH1 0x24 PUSH1 0x0 REVERT JUMPDEST SWAP1 PUSH1 0x0 MSTORE PUSH1 0x20 PUSH1 0x0 KECCAK256 SWAP1 PUSH1 0x6 MUL ADD PUSH1 0x40 MLOAD DUP1 PUSH1 0xC0 ADD PUSH1 0x40 MSTORE SWAP1 DUP2 PUSH1 0x0 DUP3 ADD SLOAD DUP2 MSTORE PUSH1 0x20 ADD PUSH1 0x1 DUP3 ADD SLOAD DUP2 MSTORE PUSH1 0x20 ADD PUSH1 0x2 DUP3 ADD SLOAD DUP2 MSTORE PUSH1 0x20 ADD PUSH1 0x3 DUP3 ADD SLOAD DUP2 MSTORE PUSH1 0x20 ADD PUSH1 0x4 DUP3 ADD SLOAD DUP2 MSTORE PUSH1 0x20 ADD PUSH1 0x5 DUP3 ADD SLOAD DUP2 MSTORE POP POP SWAP3 POP POP POP SWAP2 SWAP1 POP JUMP JUMPDEST PUSH2 0x2061 PUSH2 0x3588 JUMP JUMPDEST POP PUSH1 0x0 SWAP1 DUP2 MSTORE PUSH1 0x1E PUSH1 0x20 SWAP1 DUP2 MSTORE PUSH1 0x40 SWAP2 DUP3 SWAP1 KECCAK256 DUP3 MLOAD PUSH1 0xC0 DUP2 ADD DUP5 MSTORE DUP2 SLOAD PUSH1 0x1 PUSH1 0x1 PUSH1 0xA0 SHL SUB SWAP1 DUP2 AND DUP3 MSTORE PUSH1 0x1 DUP4 ADD SLOAD AND SWAP3 DUP2 ADD SWAP3 SWAP1 SWAP3 MSTORE PUSH1 0x2 DUP2 ADD SLOAD SWAP3 DUP3 ADD SWAP3 SWAP1 SWAP3 MSTORE PUSH1 0x3 DUP3 ADD SLOAD PUSH1 0x60 DUP3 ADD MSTORE PUSH1 0x4 DUP3 ADD SLOAD PUSH1 0x80 DUP3 ADD MSTORE PUSH1 0x5 SWAP1 SWAP2 ADD SLOAD PUSH1 0xFF AND PUSH1 0xA0 DUP3 ADD MSTORE SWAP1 JUMP JUMPDEST PUSH1 0x4 SLOAD DUP2 JUMP JUMPDEST PUSH1 0x0 SWAP1 DUP2 MSTORE PUSH1 0x1B PUSH1 0x20 SWAP1 DUP2 MSTORE PUSH1 0x40 SWAP2 DUP3 SWAP1 KECCAK256 DUP3 MLOAD PUSH1 0x60 DUP2 ADD DUP5 MSTORE DUP2 SLOAD PUSH1 0x1 PUSH1 0x1 PUSH1 0xA0 SHL SUB SWAP1 DUP2 AND DUP1 DUP4 MSTORE PUSH1 0x1 SWAP1 SWAP4 ADD SLOAD SWAP1 DUP2 AND SWAP4 DUP3 ADD DUP5 SWAP1 MSTORE PUSH1 0x1 PUSH1 0xA0 SHL SWAP1 DIV PUSH1 0xFF AND SWAP4 ADD DUP4 SWAP1 MSTORE SWAP3 SWAP1 SWAP2 SWAP1 JUMP JUMPDEST PUSH2 0x2125 PUSH2 0x3552 JUMP JUMPDEST PUSH1 0x17 SLOAD DUP3 LT PUSH2 0x2146 JUMPI PUSH1 0x40 MLOAD PUSH3 0x461BCD PUSH1 0xE5 SHL DUP2 MSTORE PUSH1 0x4 ADD PUSH2 0x86D SWAP1 PUSH2 0x3C80 JUMP JUMPDEST PUSH1 0x17 DUP3 DUP2 SLOAD DUP2 LT PUSH2 0x2167 JUMPI PUSH4 0x4E487B71 PUSH1 0xE0 SHL PUSH1 0x0 MSTORE PUSH1 0x32 PUSH1 0x4 MSTORE PUSH1 0x24 PUSH1 0x0 REVERT JUMPDEST SWAP1 PUSH1 0x0 MSTORE PUSH1 0x20 PUSH1 0x0 KECCAK256 SWAP1 PUSH1 0x6 MUL ADD PUSH1 0x40 MLOAD DUP1 PUSH1 0xC0 ADD PUSH1 0x40 MSTORE SWAP1 DUP2 PUSH1 0x0 DUP3 ADD SLOAD DUP2 MSTORE PUSH1 0x20 ADD PUSH1 0x1 DUP3 ADD SLOAD DUP2 MSTORE PUSH1 0x20 ADD PUSH1 0x2 DUP3 ADD SLOAD DUP2 MSTORE PUSH1 0x20 ADD PUSH1 0x3 DUP3 ADD SLOAD DUP2 MSTORE PUSH1 0x20 ADD PUSH1 0x4 DUP3 ADD SLOAD DUP2 MSTORE PUSH1 0x20 ADD PUSH1 0x5 DUP3 ADD SLOAD DUP2 MSTORE POP POP SWAP1 POP SWAP2 SWAP1 POP JUMP JUMPDEST PUSH1 0x4 SLOAD ISZERO PUSH2 0x21E3 JUMPI PUSH1 0x40 MLOAD PUSH3 0x461BCD PUSH1 0xE5 SHL DUP2 MSTORE PUSH1 0x4 ADD PUSH2 0x86D SWAP1 PUSH2 0x3D0D JUMP JUMPDEST PUSH1 0x4 SSTORE JUMP JUMPDEST PUSH1 0x60 PUSH1 0x12 DUP1 SLOAD DUP1 PUSH1 0x20 MUL PUSH1 0x20 ADD PUSH1 0x40 MLOAD SWAP1 DUP2 ADD PUSH1 0x40 MSTORE DUP1 SWAP3 SWAP2 SWAP1 DUP2 DUP2 MSTORE PUSH1 0x20 ADD DUP3 DUP1 SLOAD DUP1 ISZERO PUSH2 0x18B6 JUMPI PUSH1 0x20 MUL DUP3 ADD SWAP2 SWAP1 PUSH1 0x0 MSTORE PUSH1 0x20 PUSH1 0x0 KECCAK256 SWAP1 DUP2 SLOAD DUP2 MSTORE PUSH1 0x20 ADD SWAP1 PUSH1 0x1 ADD SWAP1 DUP1 DUP4 GT PUSH2 0x18A2 JUMPI POP POP POP POP POP SWAP1 POP SWAP1 JUMP JUMPDEST PUSH1 0x9 SLOAD PUSH1 0xA SLOAD PUSH1 0xB SLOAD DUP4 JUMP JUMPDEST PUSH1 0x14 DUP2 DUP2 SLOAD DUP2 LT PUSH2 0x192A JUMPI PUSH1 0x0 DUP1 REVERT JUMPDEST PUSH1 0x10 SLOAD DUP2 JUMP JUMPDEST PUSH1 0x6 SLOAD PUSH1 0x1 PUSH1 0x1 PUSH1 0xA0 SHL SUB AND ISZERO PUSH2 0x2289 JUMPI PUSH1 0x40 MLOAD PUSH3 0x461BCD PUSH1 0xE5 SHL DUP2 MSTORE PUSH1 0x4 ADD PUSH2 0x86D SWAP1 PUSH2 0x3BF7 JUMP JUMPDEST PUSH1 0x1 PUSH1 0x1 PUSH1 0xA0 SHL SUB DUP2 AND PUSH2 0x22AF JUMPI PUSH1 0x40 MLOAD PUSH3 0x461BCD PUSH1 0xE5 SHL DUP2 MSTORE PUSH1 0x4 ADD PUSH2 0x86D SWAP1 PUSH2 0x3CA7 JUMP JUMPDEST PUSH1 0x6 DUP1 SLOAD PUSH1 0x1 PUSH1 0x1 PUSH1 0xA0 SHL SUB NOT AND PUSH1 0x1 PUSH1 0x1 PUSH1 0xA0 SHL SUB SWAP3 SWAP1 SWAP3 AND SWAP2 SWAP1 SWAP2 OR SWAP1 SSTORE JUMP JUMPDEST PUSH1 0x1F PUSH1 0x20 MSTORE PUSH1 0x0 SWAP1 DUP2 MSTORE PUSH1 0x40 SWAP1 KECCAK256 DUP1 SLOAD PUSH1 0x1 DUP3 ADD SLOAD PUSH1 0x2 DUP4 ADD SLOAD PUSH1 0x3 DUP5 ADD SLOAD PUSH1 0x4 DUP6 ADD SLOAD PUSH1 0x5 SWAP1 SWAP6 ADD SLOAD PUSH1 0x1 PUSH1 0x1 PUSH1 0xA0 SHL SUB SWAP5 DUP6 AND SWAP6 SWAP4 SWAP1 SWAP5 AND SWAP4 SWAP2 SWAP3 SWAP1 SWAP2 PUSH1 0xFF AND DUP7 JUMP JUMPDEST PUSH1 0x0 SWAP1 DUP2 MSTORE PUSH1 0x1C PUSH1 0x20 SWAP1 DUP2 MSTORE PUSH1 0x40 SWAP2 DUP3 SWAP1 KECCAK256 DUP3 MLOAD DUP1 DUP5 ADD SWAP1 SWAP4 MSTORE DUP1 SLOAD DUP1 DUP5 MSTORE PUSH1 0x1 SWAP1 SWAP2 ADD SLOAD SWAP3 SWAP1 SWAP2 ADD DUP3 SWAP1 MSTORE SWAP2 JUMP JUMPDEST POP PUSH1 0x10 SLOAD SWAP1 JUMP JUMPDEST PUSH1 0x5 SLOAD PUSH1 0x1 PUSH1 0x1 PUSH1 0xA0 SHL SUB AND ISZERO PUSH2 0x2375 JUMPI PUSH1 0x40 MLOAD PUSH3 0x461BCD PUSH1 0xE5 SHL DUP2 MSTORE PUSH1 0x4 ADD PUSH2 0x86D SWAP1 PUSH2 0x40A6 JUMP JUMPDEST PUSH1 0x1 PUSH1 0x1 PUSH1 0xA0 SHL SUB DUP2 AND PUSH2 0x239B JUMPI PUSH1 0x40 MLOAD PUSH3 0x461BCD PUSH1 0xE5 SHL DUP2 MSTORE PUSH1 0x4 ADD PUSH2 0x86D SWAP1 PUSH2 0x4011 JUMP JUMPDEST PUSH1 0x5 DUP1 SLOAD PUSH1 0x1 PUSH1 0x1 PUSH1 0xA0 SHL SUB NOT AND PUSH1 0x1 PUSH1 0x1 PUSH1 0xA0 SHL SUB SWAP3 SWAP1 SWAP3 AND SWAP2 SWAP1 SWAP2 OR SWAP1 SSTORE JUMP JUMPDEST PUSH2 0x23C5 PUSH2 0x3588 JUMP JUMPDEST POP PUSH1 0x0 SWAP1 DUP2 MSTORE PUSH1 0x1F PUSH1 0x20 SWAP1 DUP2 MSTORE PUSH1 0x40 SWAP2 DUP3 SWAP1 KECCAK256 DUP3 MLOAD PUSH1 0xC0 DUP2 ADD DUP5 MSTORE DUP2 SLOAD PUSH1 0x1 PUSH1 0x1 PUSH1 0xA0 SHL SUB SWAP1 DUP2 AND DUP3 MSTORE PUSH1 0x1 DUP4 ADD SLOAD AND SWAP3 DUP2 ADD SWAP3 SWAP1 SWAP3 MSTORE PUSH1 0x2 DUP2 ADD SLOAD SWAP3 DUP3 ADD SWAP3 SWAP1 SWAP3 MSTORE PUSH1 0x3 DUP3 ADD SLOAD PUSH1 0x60 DUP3 ADD MSTORE PUSH1 0x4 DUP3 ADD SLOAD PUSH1 0x80 DUP3 ADD MSTORE PUSH1 0x5 SWAP1 SWAP2 ADD SLOAD PUSH1 0xFF AND PUSH1 0xA0 DUP3 ADD MSTORE SWAP1 JUMP JUMPDEST PUSH1 0x2 SLOAD PUSH2 0x100 SWAP1 DIV PUSH1 0x1 PUSH1 0x1 PUSH1 0xA0 SHL SUB AND ISZERO DUP1 ISZERO PUSH2 0x2454 JUMPI POP PUSH1 0x3 SLOAD PUSH1 0x1 PUSH1 0x1 PUSH1 0xA0 SHL SUB AND ISZERO JUMPDEST PUSH2 0x2470 JUMPI PUSH1 0x40 MLOAD PUSH3 0x461BCD PUSH1 0xE5 SHL DUP2 MSTORE PUSH1 0x4 ADD PUSH2 0x86D SWAP1 PUSH2 0x3F9B JUMP JUMPDEST DUP1 PUSH1 0x1 PUSH1 0x1 PUSH1 0xA0 SHL SUB AND DUP3 PUSH1 0x1 PUSH1 0x1 PUSH1 0xA0 SHL SUB AND EQ ISZERO PUSH2 0x24A2 JUMPI PUSH1 0x40 MLOAD PUSH3 0x461BCD PUSH1 0xE5 SHL DUP2 MSTORE PUSH1 0x4 ADD PUSH2 0x86D SWAP1 PUSH2 0x3DE1 JUMP JUMPDEST PUSH1 0x1 PUSH1 0x1 PUSH1 0xA0 SHL SUB DUP3 AND ISZERO ISZERO DUP1 PUSH2 0x24C1 JUMPI POP PUSH1 0x1 PUSH1 0x1 PUSH1 0xA0 SHL SUB DUP2 AND ISZERO ISZERO JUMPDEST PUSH2 0x24DD JUMPI PUSH1 0x40 MLOAD PUSH3 0x461BCD PUSH1 0xE5 SHL DUP2 MSTORE PUSH1 0x4 ADD PUSH2 0x86D SWAP1 PUSH2 0x3F00 JUMP JUMPDEST PUSH1 0x2 DUP1 SLOAD PUSH2 0x100 PUSH1 0x1 PUSH1 0xA8 SHL SUB NOT AND PUSH2 0x100 PUSH1 0x1 PUSH1 0x1 PUSH1 0xA0 SHL SUB DUP6 DUP2 AND SWAP2 DUP3 MUL SWAP3 SWAP1 SWAP3 OR SWAP1 SWAP3 SSTORE PUSH1 0x3 DUP1 SLOAD PUSH1 0x1 PUSH1 0x1 PUSH1 0xA0 SHL SUB NOT AND SWAP2 DUP5 AND SWAP2 SWAP1 SWAP2 OR SWAP1 SSTORE ISZERO PUSH2 0x2596 JUMPI DUP2 PUSH1 0x1 PUSH1 0x1 PUSH1 0xA0 SHL SUB AND PUSH4 0x313CE567 PUSH1 0x40 MLOAD DUP2 PUSH4 0xFFFFFFFF AND PUSH1 0xE0 SHL DUP2 MSTORE PUSH1 0x4 ADD PUSH1 0x20 PUSH1 0x40 MLOAD DUP1 DUP4 SUB DUP2 DUP7 DUP1 EXTCODESIZE ISZERO DUP1 ISZERO PUSH2 0x2559 JUMPI PUSH1 0x0 DUP1 REVERT JUMPDEST POP GAS STATICCALL ISZERO DUP1 ISZERO PUSH2 0x256D JUMPI RETURNDATASIZE PUSH1 0x0 DUP1 RETURNDATACOPY RETURNDATASIZE PUSH1 0x0 REVERT JUMPDEST POP POP POP POP PUSH1 0x40 MLOAD RETURNDATASIZE PUSH1 0x1F NOT PUSH1 0x1F DUP3 ADD AND DUP3 ADD DUP1 PUSH1 0x40 MSTORE POP DUP2 ADD SWAP1 PUSH2 0x2591 SWAP2 SWAP1 PUSH2 0x39BA JUMP JUMPDEST PUSH2 0x2599 JUMP JUMPDEST PUSH1 0x12 JUMPDEST PUSH1 0x3 DUP1 SLOAD PUSH1 0xFF SWAP3 SWAP1 SWAP3 AND PUSH1 0x1 PUSH1 0xA0 SHL MUL PUSH1 0xFF PUSH1 0xA0 SHL NOT SWAP1 SWAP3 AND SWAP2 SWAP1 SWAP2 OR SWAP1 SSTORE PUSH1 0x1 PUSH1 0x1 PUSH1 0xA0 SHL SUB DUP2 AND ISZERO PUSH2 0x263D JUMPI DUP1 PUSH1 0x1 PUSH1 0x1 PUSH1 0xA0 SHL SUB AND PUSH4 0x313CE567 PUSH1 0x40 MLOAD DUP2 PUSH4 0xFFFFFFFF AND PUSH1 0xE0 SHL DUP2 MSTORE PUSH1 0x4 ADD PUSH1 0x20 PUSH1 0x40 MLOAD DUP1 DUP4 SUB DUP2 DUP7 DUP1 EXTCODESIZE ISZERO DUP1 ISZERO PUSH2 0x2600 JUMPI PUSH1 0x0 DUP1 REVERT JUMPDEST POP GAS STATICCALL ISZERO DUP1 ISZERO PUSH2 0x2614 JUMPI RETURNDATASIZE PUSH1 0x0 DUP1 RETURNDATACOPY RETURNDATASIZE PUSH1 0x0 REVERT JUMPDEST POP POP POP POP PUSH1 0x40 MLOAD RETURNDATASIZE PUSH1 0x1F NOT PUSH1 0x1F DUP3 ADD AND DUP3 ADD DUP1 PUSH1 0x40 MSTORE POP DUP2 ADD SWAP1 PUSH2 0x2638 SWAP2 SWAP1 PUSH2 0x39BA JUMP JUMPDEST PUSH2 0x2640 JUMP JUMPDEST PUSH1 0x12 JUMPDEST PUSH1 0x3 PUSH1 0x15 PUSH2 0x100 EXP DUP2 SLOAD DUP2 PUSH1 0xFF MUL NOT AND SWAP1 DUP4 PUSH1 0xFF AND MUL OR SWAP1 SSTORE POP POP POP JUMP JUMPDEST PUSH1 0x11 DUP2 DUP2 SLOAD DUP2 LT PUSH2 0x192A JUMPI PUSH1 0x0 DUP1 REVERT JUMPDEST PUSH1 0x19 PUSH1 0x20 MSTORE PUSH1 0x0 SWAP1 DUP2 MSTORE PUSH1 0x40 SWAP1 KECCAK256 DUP1 SLOAD PUSH1 0x1 SWAP1 SWAP2 ADD SLOAD DUP3 JUMP JUMPDEST PUSH1 0x17 DUP2 DUP2 SLOAD DUP2 LT PUSH2 0x2697 JUMPI PUSH1 0x0 DUP1 REVERT JUMPDEST PUSH1 0x0 SWAP2 DUP3 MSTORE PUSH1 0x20 SWAP1 SWAP2 KECCAK256 PUSH1 0x6 SWAP1 SWAP2 MUL ADD DUP1 SLOAD PUSH1 0x1 DUP3 ADD SLOAD PUSH1 0x2 DUP4 ADD SLOAD PUSH1 0x3 DUP5 ADD SLOAD PUSH1 0x4 DUP6 ADD SLOAD PUSH1 0x5 SWAP1 SWAP6 ADD SLOAD SWAP4 SWAP6 POP SWAP2 SWAP4 SWAP1 SWAP3 DUP7 JUMP JUMPDEST PUSH1 0x1C PUSH1 0x20 MSTORE PUSH1 0x0 SWAP1 DUP2 MSTORE PUSH1 0x40 SWAP1 KECCAK256 DUP1 SLOAD PUSH1 0x1 SWAP1 SWAP2 ADD SLOAD DUP3 JUMP JUMPDEST PUSH1 0x12 DUP2 DUP2 SLOAD DUP2 LT PUSH2 0x192A JUMPI PUSH1 0x0 DUP1 REVERT JUMPDEST POP PUSH1 0x7 SLOAD PUSH1 0x1 PUSH1 0x1 PUSH1 0xA0 SHL SUB AND SWAP1 JUMP JUMPDEST PUSH1 0x4 SLOAD SWAP1 JUMP JUMPDEST PUSH1 0x6 SLOAD PUSH1 0x1 PUSH1 0x1 PUSH1 0xA0 SHL SUB AND DUP2 JUMP JUMPDEST PUSH1 0x5 SLOAD PUSH1 0x1 PUSH1 0x1 PUSH1 0xA0 SHL SUB AND DUP2 JUMP JUMPDEST PUSH2 0x2732 PUSH2 0x2ACB JUMP JUMPDEST PUSH1 0x1 PUSH1 0x1 PUSH1 0xA0 SHL SUB DUP5 AND PUSH1 0x0 SWAP1 DUP2 MSTORE PUSH1 0x1 PUSH1 0x20 MSTORE PUSH1 0x40 SWAP1 KECCAK256 SLOAD PUSH1 0xFF AND PUSH2 0x276A JUMPI PUSH1 0x40 MLOAD PUSH3 0x461BCD PUSH1 0xE5 SHL DUP2 MSTORE PUSH1 0x4 ADD PUSH2 0x86D SWAP1 PUSH2 0x3BD2 JUMP JUMPDEST PUSH1 0xC PUSH1 0x0 PUSH1 0x1 PUSH1 0x1 PUSH1 0xA0 SHL SUB DUP6 AND ISZERO PUSH2 0x27F3 JUMPI DUP5 PUSH1 0x1 PUSH1 0x1 PUSH1 0xA0 SHL SUB AND PUSH4 0x313CE567 PUSH1 0x40 MLOAD DUP2 PUSH4 0xFFFFFFFF AND PUSH1 0xE0 SHL DUP2 MSTORE PUSH1 0x4 ADD PUSH1 0x20 PUSH1 0x40 MLOAD DUP1 DUP4 SUB DUP2 DUP7 DUP1 EXTCODESIZE ISZERO DUP1 ISZERO PUSH2 0x27B6 JUMPI PUSH1 0x0 DUP1 REVERT JUMPDEST POP GAS STATICCALL ISZERO DUP1 ISZERO PUSH2 0x27CA JUMPI RETURNDATASIZE PUSH1 0x0 DUP1 RETURNDATACOPY RETURNDATASIZE PUSH1 0x0 REVERT JUMPDEST POP POP POP POP PUSH1 0x40 MLOAD RETURNDATASIZE PUSH1 0x1F NOT PUSH1 0x1F DUP3 ADD AND DUP3 ADD DUP1 PUSH1 0x40 MSTORE POP DUP2 ADD SWAP1 PUSH2 0x27EE SWAP2 SWAP1 PUSH2 0x39BA JUMP JUMPDEST PUSH2 0x27F6 JUMP JUMPDEST PUSH1 0x12 JUMPDEST SWAP1 POP PUSH1 0x0 PUSH2 0x2804 DUP6 DUP4 PUSH2 0x2EEE JUMP JUMPDEST PUSH1 0xB SLOAD SWAP1 SWAP2 POP ISZERO DUP1 PUSH2 0x2825 JUMPI POP PUSH1 0xB SLOAD PUSH2 0x2821 SWAP1 PUSH3 0x15180 PUSH2 0x4281 JUMP JUMPDEST TIMESTAMP LT ISZERO JUMPDEST ISZERO PUSH2 0x2843 JUMPI PUSH1 0xE SLOAD PUSH1 0x9 SSTORE PUSH1 0xF SLOAD PUSH1 0xA SSTORE PUSH2 0x283F TIMESTAMP PUSH2 0x2AF5 JUMP JUMPDEST PUSH1 0xB SSTORE JUMPDEST PUSH1 0x2 SLOAD PUSH1 0x1 PUSH1 0x1 PUSH1 0xA0 SHL SUB DUP8 DUP2 AND PUSH2 0x100 SWAP1 SWAP3 DIV AND EQ ISZERO PUSH2 0x295C JUMPI DUP3 SLOAD DUP2 GT ISZERO PUSH2 0x287F JUMPI PUSH1 0x40 MLOAD PUSH3 0x461BCD PUSH1 0xE5 SHL DUP2 MSTORE PUSH1 0x4 ADD PUSH2 0x86D SWAP1 PUSH2 0x4040 JUMP JUMPDEST DUP1 DUP4 PUSH1 0x0 ADD PUSH1 0x0 DUP3 DUP3 SLOAD PUSH2 0x2893 SWAP2 SWAP1 PUSH2 0x43E0 JUMP JUMPDEST SWAP3 POP POP DUP2 SWAP1 SSTORE POP DUP1 DUP4 PUSH1 0x2 ADD PUSH1 0x0 DUP3 DUP3 SLOAD PUSH2 0x28AE SWAP2 SWAP1 PUSH2 0x4281 JUMP JUMPDEST SWAP1 SWAP2 SSTORE POP POP PUSH1 0x1 PUSH1 0x1 PUSH1 0xA0 SHL SUB DUP7 AND PUSH2 0x2943 JUMPI PUSH1 0x0 DUP5 PUSH1 0x1 PUSH1 0x1 PUSH1 0xA0 SHL SUB AND DUP7 PUSH1 0x40 MLOAD PUSH2 0x28DA SWAP1 PUSH2 0x3A3A JUMP JUMPDEST PUSH1 0x0 PUSH1 0x40 MLOAD DUP1 DUP4 SUB DUP2 DUP6 DUP8 GAS CALL SWAP3 POP POP POP RETURNDATASIZE DUP1 PUSH1 0x0 DUP2 EQ PUSH2 0x2917 JUMPI PUSH1 0x40 MLOAD SWAP2 POP PUSH1 0x1F NOT PUSH1 0x3F RETURNDATASIZE ADD AND DUP3 ADD PUSH1 0x40 MSTORE RETURNDATASIZE DUP3 MSTORE RETURNDATASIZE PUSH1 0x0 PUSH1 0x20 DUP5 ADD RETURNDATACOPY PUSH2 0x291C JUMP JUMPDEST PUSH1 0x60 SWAP2 POP JUMPDEST POP POP SWAP1 POP DUP1 PUSH2 0x293D JUMPI PUSH1 0x40 MLOAD PUSH3 0x461BCD PUSH1 0xE5 SHL DUP2 MSTORE PUSH1 0x4 ADD PUSH2 0x86D SWAP1 PUSH2 0x3F37 JUMP JUMPDEST POP PUSH2 0x2957 JUMP JUMPDEST PUSH2 0x2957 PUSH1 0x1 PUSH1 0x1 PUSH1 0xA0 SHL SUB DUP8 AND DUP6 DUP8 PUSH2 0x2F5C JUMP JUMPDEST PUSH2 0x29DD JUMP JUMPDEST PUSH1 0x3 SLOAD PUSH1 0x1 PUSH1 0x1 PUSH1 0xA0 SHL SUB DUP8 DUP2 AND SWAP2 AND EQ ISZERO PUSH2 0x29C5 JUMPI DUP1 DUP4 PUSH1 0x1 ADD SLOAD LT ISZERO PUSH2 0x2996 JUMPI PUSH1 0x40 MLOAD PUSH3 0x461BCD PUSH1 0xE5 SHL DUP2 MSTORE PUSH1 0x4 ADD PUSH2 0x86D SWAP1 PUSH2 0x3E18 JUMP JUMPDEST DUP1 DUP4 PUSH1 0x1 ADD PUSH1 0x0 DUP3 DUP3 SLOAD PUSH2 0x29AA SWAP2 SWAP1 PUSH2 0x43E0 JUMP JUMPDEST SWAP3 POP POP DUP2 SWAP1 SSTORE POP DUP1 DUP4 PUSH1 0x3 ADD PUSH1 0x0 DUP3 DUP3 SLOAD PUSH2 0x28AE SWAP2 SWAP1 PUSH2 0x4281 JUMP JUMPDEST PUSH1 0x40 MLOAD PUSH3 0x461BCD PUSH1 0xE5 SHL DUP2 MSTORE PUSH1 0x4 ADD PUSH2 0x86D SWAP1 PUSH2 0x3DBA JUMP JUMPDEST DUP3 SLOAD ISZERO DUP1 ISZERO SWAP1 PUSH2 0x29F1 JUMPI POP PUSH1 0x0 DUP4 PUSH1 0x1 ADD SLOAD GT JUMPDEST ISZERO PUSH2 0x2A1D JUMPI PUSH1 0x1 DUP4 ADD SLOAD DUP4 SLOAD PUSH2 0x2A0F SWAP1 PUSH8 0xDE0B6B3A7640000 PUSH2 0x43C1 JUMP JUMPDEST PUSH2 0x2A19 SWAP2 SWAP1 PUSH2 0x4299 JUMP JUMPDEST PUSH1 0x10 SSTORE JUMPDEST PUSH32 0x8BBCB78ED74088D6EABDCEF17BCBDDCF7339DEA6ADFA7BEBD83304BFA04DCD3A PUSH1 0x4 SLOAD DUP5 PUSH1 0x0 ADD SLOAD DUP6 PUSH1 0x1 ADD SLOAD PUSH1 0x40 MLOAD PUSH2 0x2A5A SWAP4 SWAP3 SWAP2 SWAP1 PUSH2 0x41C5 JUMP JUMPDEST PUSH1 0x40 MLOAD DUP1 SWAP2 SUB SWAP1 LOG1 PUSH2 0x2A6A PUSH2 0x2FB2 JUMP JUMPDEST POP POP POP PUSH2 0x2A75 PUSH2 0x2EE7 JUMP JUMPDEST POP POP POP POP JUMP JUMPDEST PUSH1 0xC SLOAD PUSH1 0xD SLOAD PUSH1 0xE SLOAD PUSH1 0xF SLOAD DUP5 JUMP JUMPDEST PUSH1 0x0 DUP1 PUSH2 0x2A9A PUSH3 0x15180 DUP6 PUSH2 0x443E JUMP JUMPDEST PUSH2 0x2AA4 SWAP1 DUP6 PUSH2 0x43E0 JUMP JUMPDEST SWAP1 POP PUSH1 0x0 PUSH2 0x2AB5 PUSH3 0x15180 DUP6 PUSH2 0x443E JUMP JUMPDEST PUSH2 0x2ABF SWAP1 DUP6 PUSH2 0x43E0 JUMP JUMPDEST SWAP2 SWAP1 SWAP2 EQ SWAP5 SWAP4 POP POP POP POP JUMP JUMPDEST PUSH1 0x2 PUSH1 0x0 SLOAD EQ ISZERO PUSH2 0x2AEE JUMPI PUSH1 0x40 MLOAD PUSH3 0x461BCD PUSH1 0xE5 SHL DUP2 MSTORE PUSH1 0x4 ADD PUSH2 0x86D SWAP1 PUSH2 0x406F JUMP JUMPDEST PUSH1 0x2 PUSH1 0x0 SSTORE JUMP JUMPDEST PUSH1 0x0 PUSH2 0x2B04 PUSH3 0x15180 DUP4 PUSH2 0x443E JUMP JUMPDEST PUSH2 0xC6A SWAP1 DUP4 PUSH2 0x43E0 JUMP JUMPDEST PUSH1 0x0 JUMPDEST DUP3 SLOAD DUP2 LT ISZERO PUSH2 0x2BFE JUMPI DUP2 DUP4 DUP3 DUP2 SLOAD DUP2 LT PUSH2 0x2B3B JUMPI PUSH4 0x4E487B71 PUSH1 0xE0 SHL PUSH1 0x0 MSTORE PUSH1 0x32 PUSH1 0x4 MSTORE PUSH1 0x24 PUSH1 0x0 REVERT JUMPDEST SWAP1 PUSH1 0x0 MSTORE PUSH1 0x20 PUSH1 0x0 KECCAK256 ADD SLOAD EQ ISZERO PUSH2 0x2BEC JUMPI DUP3 SLOAD DUP4 SWAP1 PUSH2 0x2B5C SWAP1 PUSH1 0x1 SWAP1 PUSH2 0x43E0 JUMP JUMPDEST DUP2 SLOAD DUP2 LT PUSH2 0x2B7A JUMPI PUSH4 0x4E487B71 PUSH1 0xE0 SHL PUSH1 0x0 MSTORE PUSH1 0x32 PUSH1 0x4 MSTORE PUSH1 0x24 PUSH1 0x0 REVERT JUMPDEST SWAP1 PUSH1 0x0 MSTORE PUSH1 0x20 PUSH1 0x0 KECCAK256 ADD SLOAD DUP4 DUP3 DUP2 SLOAD DUP2 LT PUSH2 0x2BA5 JUMPI PUSH4 0x4E487B71 PUSH1 0xE0 SHL PUSH1 0x0 MSTORE PUSH1 0x32 PUSH1 0x4 MSTORE PUSH1 0x24 PUSH1 0x0 REVERT JUMPDEST SWAP1 PUSH1 0x0 MSTORE PUSH1 0x20 PUSH1 0x0 KECCAK256 ADD DUP2 SWAP1 SSTORE POP DUP3 DUP1 SLOAD DUP1 PUSH2 0x2BD1 JUMPI PUSH4 0x4E487B71 PUSH1 0xE0 SHL PUSH1 0x0 MSTORE PUSH1 0x31 PUSH1 0x4 MSTORE PUSH1 0x24 PUSH1 0x0 REVERT JUMPDEST PUSH1 0x1 SWAP1 SUB DUP2 DUP2 SWAP1 PUSH1 0x0 MSTORE PUSH1 0x20 PUSH1 0x0 KECCAK256 ADD PUSH1 0x0 SWAP1 SSTORE SWAP1 SSTORE PUSH2 0x2BFE JUMP JUMPDEST DUP1 PUSH2 0x2BF6 DUP2 PUSH2 0x4423 JUMP JUMPDEST SWAP2 POP POP PUSH2 0x2B11 JUMP JUMPDEST POP POP POP JUMP JUMPDEST PUSH1 0x5 SLOAD PUSH1 0x1 PUSH1 0x1 PUSH1 0xA0 SHL SUB AND PUSH2 0x2C18 JUMPI PUSH2 0x2EE5 JUMP JUMPDEST PUSH1 0x0 JUMPDEST PUSH1 0x11 SLOAD DUP2 LT ISZERO PUSH2 0x2D7D JUMPI PUSH1 0x0 PUSH1 0x11 DUP3 DUP2 SLOAD DUP2 LT PUSH2 0x2C48 JUMPI PUSH4 0x4E487B71 PUSH1 0xE0 SHL PUSH1 0x0 MSTORE PUSH1 0x32 PUSH1 0x4 MSTORE PUSH1 0x24 PUSH1 0x0 REVERT JUMPDEST PUSH1 0x0 SWAP2 DUP3 MSTORE PUSH1 0x20 DUP1 DUP4 KECCAK256 SWAP1 SWAP2 ADD SLOAD DUP1 DUP4 MSTORE PUSH1 0x18 DUP3 MSTORE PUSH1 0x40 DUP1 DUP5 KECCAK256 DUP2 MLOAD PUSH1 0x60 DUP2 ADD DUP4 MSTORE DUP2 SLOAD PUSH1 0x1 PUSH1 0x1 PUSH1 0xA0 SHL SUB SWAP1 DUP2 AND DUP3 MSTORE PUSH1 0x1 SWAP3 DUP4 ADD SLOAD SWAP1 DUP2 AND DUP3 DUP8 ADD MSTORE PUSH1 0xFF PUSH1 0x1 PUSH1 0xA0 SHL SWAP1 SWAP2 DIV DUP2 AND DUP3 DUP6 ADD SWAP1 DUP2 MSTORE DUP6 DUP9 MSTORE PUSH1 0x1A DUP8 MSTORE SWAP7 DUP5 SWAP1 KECCAK256 DUP5 MLOAD DUP1 DUP7 ADD SWAP1 SWAP6 MSTORE DUP1 SLOAD DUP6 MSTORE DUP4 ADD SLOAD SWAP6 DUP5 ADD SWAP6 SWAP1 SWAP6 MSTORE SWAP5 MLOAD SWAP3 SWAP6 POP SWAP1 SWAP3 SWAP2 SWAP1 SWAP2 AND EQ DUP1 PUSH2 0x2CD7 JUMPI POP DUP2 PUSH1 0x40 ADD MLOAD PUSH1 0xFF AND PUSH1 0x2 EQ JUMPDEST ISZERO PUSH2 0x2D67 JUMPI PUSH1 0x5 SLOAD PUSH1 0x4 DUP1 SLOAD PUSH1 0x2 SLOAD PUSH1 0x3 SLOAD DUP7 MLOAD PUSH1 0x20 DUP9 ADD MLOAD DUP8 MLOAD PUSH1 0x40 DUP1 DUP12 ADD MLOAD SWAP1 MLOAD PUSH4 0xDD8DCA45 PUSH1 0xE0 SHL DUP2 MSTORE PUSH1 0x1 PUSH1 0x1 PUSH1 0xA0 SHL SUB SWAP10 DUP11 AND SWAP10 PUSH4 0xDD8DCA45 SWAP10 PUSH2 0x2D3A SWAP10 SWAP9 PUSH2 0x100 SWAP1 DIV DUP3 AND SWAP8 SWAP1 SWAP2 AND SWAP6 DUP15 SWAP6 PUSH1 0x1 SWAP6 SWAP2 SWAP5 SWAP1 SWAP4 SWAP2 SWAP3 SWAP1 SWAP2 ADD PUSH2 0x412C JUMP JUMPDEST PUSH1 0x0 PUSH1 0x40 MLOAD DUP1 DUP4 SUB DUP2 PUSH1 0x0 DUP8 DUP1 EXTCODESIZE ISZERO DUP1 ISZERO PUSH2 0x2D54 JUMPI PUSH1 0x0 DUP1 REVERT JUMPDEST POP GAS CALL SWAP3 POP POP POP DUP1 ISZERO PUSH2 0x2D65 JUMPI POP PUSH1 0x1 JUMPDEST POP JUMPDEST POP POP POP DUP1 DUP1 PUSH2 0x2D75 SWAP1 PUSH2 0x4423 JUMP JUMPDEST SWAP2 POP POP PUSH2 0x2C1B JUMP JUMPDEST POP PUSH1 0x0 JUMPDEST PUSH1 0x12 SLOAD DUP2 LT ISZERO PUSH2 0x2EE3 JUMPI PUSH1 0x0 PUSH1 0x12 DUP3 DUP2 SLOAD DUP2 LT PUSH2 0x2DAE JUMPI PUSH4 0x4E487B71 PUSH1 0xE0 SHL PUSH1 0x0 MSTORE PUSH1 0x32 PUSH1 0x4 MSTORE PUSH1 0x24 PUSH1 0x0 REVERT JUMPDEST PUSH1 0x0 SWAP2 DUP3 MSTORE PUSH1 0x20 DUP1 DUP4 KECCAK256 SWAP1 SWAP2 ADD SLOAD DUP1 DUP4 MSTORE PUSH1 0x1B DUP3 MSTORE PUSH1 0x40 DUP1 DUP5 KECCAK256 DUP2 MLOAD PUSH1 0x60 DUP2 ADD DUP4 MSTORE DUP2 SLOAD PUSH1 0x1 PUSH1 0x1 PUSH1 0xA0 SHL SUB SWAP1 DUP2 AND DUP3 MSTORE PUSH1 0x1 SWAP3 DUP4 ADD SLOAD SWAP1 DUP2 AND DUP3 DUP8 ADD MSTORE PUSH1 0xFF PUSH1 0x1 PUSH1 0xA0 SHL SWAP1 SWAP2 DIV DUP2 AND DUP3 DUP6 ADD SWAP1 DUP2 MSTORE DUP6 DUP9 MSTORE PUSH1 0x1D DUP8 MSTORE SWAP7 DUP5 SWAP1 KECCAK256 DUP5 MLOAD DUP1 DUP7 ADD SWAP1 SWAP6 MSTORE DUP1 SLOAD DUP6 MSTORE DUP4 ADD SLOAD SWAP6 DUP5 ADD SWAP6 SWAP1 SWAP6 MSTORE SWAP5 MLOAD SWAP3 SWAP6 POP SWAP1 SWAP3 SWAP2 SWAP1 SWAP2 AND EQ DUP1 PUSH2 0x2E3D JUMPI POP DUP2 PUSH1 0x40 ADD MLOAD PUSH1 0xFF AND PUSH1 0x2 EQ JUMPDEST ISZERO PUSH2 0x2ECD JUMPI PUSH1 0x5 SLOAD PUSH1 0x4 DUP1 SLOAD PUSH1 0x2 SLOAD PUSH1 0x3 SLOAD DUP7 MLOAD PUSH1 0x20 DUP9 ADD MLOAD DUP8 MLOAD PUSH1 0x40 DUP1 DUP12 ADD MLOAD SWAP1 MLOAD PUSH4 0xDD8DCA45 PUSH1 0xE0 SHL DUP2 MSTORE PUSH1 0x1 PUSH1 0x1 PUSH1 0xA0 SHL SUB SWAP10 DUP11 AND SWAP10 PUSH4 0xDD8DCA45 SWAP10 PUSH2 0x2EA0 SWAP10 SWAP9 PUSH2 0x100 SWAP1 DIV DUP3 AND SWAP8 SWAP1 SWAP2 AND SWAP6 DUP15 SWAP6 PUSH1 0x0 SWAP6 SWAP2 SWAP5 SWAP1 SWAP4 SWAP2 SWAP3 SWAP1 SWAP2 ADD PUSH2 0x412C JUMP JUMPDEST PUSH1 0x0 PUSH1 0x40 MLOAD DUP1 DUP4 SUB DUP2 PUSH1 0x0 DUP8 DUP1 EXTCODESIZE ISZERO DUP1 ISZERO PUSH2 0x2EBA JUMPI PUSH1 0x0 DUP1 REVERT JUMPDEST POP GAS CALL SWAP3 POP POP POP DUP1 ISZERO PUSH2 0x2ECB JUMPI POP PUSH1 0x1 JUMPDEST POP JUMPDEST POP POP POP DUP1 DUP1 PUSH2 0x2EDB SWAP1 PUSH2 0x4423 JUMP JUMPDEST SWAP2 POP POP PUSH2 0x2D81 JUMP JUMPDEST POP JUMPDEST JUMP JUMPDEST PUSH1 0x1 PUSH1 0x0 SSTORE JUMP JUMPDEST PUSH1 0x0 DUP2 PUSH1 0xFF AND PUSH1 0x12 EQ ISZERO PUSH2 0x2F03 JUMPI POP DUP2 PUSH2 0xC6A JUMP JUMPDEST PUSH1 0x12 DUP3 PUSH1 0xFF AND LT ISZERO PUSH2 0x2F39 JUMPI PUSH2 0x2F1D PUSH1 0xFF DUP4 AND PUSH1 0x12 PUSH2 0x43E0 JUMP JUMPDEST PUSH2 0x2F28 SWAP1 PUSH1 0xA PUSH2 0x42F3 JUMP JUMPDEST PUSH2 0x2F32 SWAP1 DUP5 PUSH2 0x43C1 JUMP JUMPDEST SWAP1 POP PUSH2 0xC6A JUMP JUMPDEST PUSH2 0x2F47 PUSH1 0x12 PUSH1 0xFF DUP5 AND PUSH2 0x43E0 JUMP JUMPDEST PUSH2 0x2F52 SWAP1 PUSH1 0xA PUSH2 0x42F3 JUMP JUMPDEST PUSH2 0x2F32 SWAP1 DUP5 PUSH2 0x4299 JUMP JUMPDEST PUSH2 0x2BFE DUP4 PUSH4 0xA9059CBB PUSH1 0xE0 SHL DUP5 DUP5 PUSH1 0x40 MLOAD PUSH1 0x24 ADD PUSH2 0x2F7B SWAP3 SWAP2 SWAP1 PUSH2 0x3B0B JUMP JUMPDEST PUSH1 0x40 DUP1 MLOAD PUSH1 0x1F NOT DUP2 DUP5 SUB ADD DUP2 MSTORE SWAP2 SWAP1 MSTORE PUSH1 0x20 DUP2 ADD DUP1 MLOAD PUSH1 0x1 PUSH1 0x1 PUSH1 0xE0 SHL SUB AND PUSH1 0x1 PUSH1 0x1 PUSH1 0xE0 SHL SUB NOT SWAP1 SWAP4 AND SWAP3 SWAP1 SWAP3 OR SWAP1 SWAP2 MSTORE PUSH2 0x338C JUMP JUMPDEST PUSH1 0x6 SLOAD PUSH1 0x1 PUSH1 0x1 PUSH1 0xA0 SHL SUB AND PUSH2 0x2FC7 JUMPI PUSH2 0x2EE5 JUMP JUMPDEST PUSH1 0x0 PUSH2 0x2FD4 PUSH1 0x2 TIMESTAMP PUSH2 0x443E JUMP JUMPDEST ISZERO SWAP1 POP PUSH1 0x0 DUP2 PUSH2 0x2FE5 JUMPI PUSH1 0x12 PUSH2 0x2FE8 JUMP JUMPDEST PUSH1 0x11 JUMPDEST DUP1 SLOAD DUP1 PUSH1 0x20 MUL PUSH1 0x20 ADD PUSH1 0x40 MLOAD SWAP1 DUP2 ADD PUSH1 0x40 MSTORE DUP1 SWAP3 SWAP2 SWAP1 DUP2 DUP2 MSTORE PUSH1 0x20 ADD DUP3 DUP1 SLOAD DUP1 ISZERO PUSH2 0x3032 JUMPI PUSH1 0x20 MUL DUP3 ADD SWAP2 SWAP1 PUSH1 0x0 MSTORE PUSH1 0x20 PUSH1 0x0 KECCAK256 SWAP1 JUMPDEST DUP2 SLOAD DUP2 MSTORE PUSH1 0x20 ADD SWAP1 PUSH1 0x1 ADD SWAP1 DUP1 DUP4 GT PUSH2 0x301E JUMPI JUMPDEST POP POP POP POP POP SWAP1 POP PUSH1 0x0 DUP3 PUSH2 0x3056 JUMPI PUSH1 0x2 SLOAD PUSH2 0x100 SWAP1 DIV PUSH1 0x1 PUSH1 0x1 PUSH1 0xA0 SHL SUB AND PUSH2 0x3063 JUMP JUMPDEST PUSH1 0x3 SLOAD PUSH1 0x1 PUSH1 0x1 PUSH1 0xA0 SHL SUB AND JUMPDEST SWAP1 POP DUP2 MLOAD PUSH1 0x0 EQ ISZERO PUSH2 0x3077 JUMPI POP POP POP PUSH2 0x2EE5 JUMP JUMPDEST PUSH1 0x0 DUP3 MLOAD PUSH8 0xFFFFFFFFFFFFFFFF DUP2 GT ISZERO PUSH2 0x30A1 JUMPI PUSH4 0x4E487B71 PUSH1 0xE0 SHL PUSH1 0x0 MSTORE PUSH1 0x41 PUSH1 0x4 MSTORE PUSH1 0x24 PUSH1 0x0 REVERT JUMPDEST PUSH1 0x40 MLOAD SWAP1 DUP1 DUP3 MSTORE DUP1 PUSH1 0x20 MUL PUSH1 0x20 ADD DUP3 ADD PUSH1 0x40 MSTORE DUP1 ISZERO PUSH2 0x30CA JUMPI DUP2 PUSH1 0x20 ADD PUSH1 0x20 DUP3 MUL DUP1 CALLDATASIZE DUP4 CALLDATACOPY ADD SWAP1 POP JUMPDEST POP SWAP1 POP PUSH1 0x0 DUP1 JUMPDEST DUP5 MLOAD DUP2 LT ISZERO PUSH2 0x3252 JUMPI PUSH1 0x0 DUP7 PUSH2 0x312E JUMPI PUSH1 0x1B PUSH1 0x0 DUP8 DUP5 DUP2 MLOAD DUP2 LT PUSH2 0x3105 JUMPI PUSH4 0x4E487B71 PUSH1 0xE0 SHL PUSH1 0x0 MSTORE PUSH1 0x32 PUSH1 0x4 MSTORE PUSH1 0x24 PUSH1 0x0 REVERT JUMPDEST PUSH1 0x20 SWAP1 DUP2 MUL SWAP2 SWAP1 SWAP2 ADD DUP2 ADD MLOAD DUP3 MSTORE DUP2 ADD SWAP2 SWAP1 SWAP2 MSTORE PUSH1 0x40 ADD PUSH1 0x0 KECCAK256 SLOAD PUSH1 0x1 PUSH1 0x1 PUSH1 0xA0 SHL SUB AND PUSH2 0x3177 JUMP JUMPDEST PUSH1 0x18 PUSH1 0x0 DUP8 DUP5 DUP2 MLOAD DUP2 LT PUSH2 0x3152 JUMPI PUSH4 0x4E487B71 PUSH1 0xE0 SHL PUSH1 0x0 MSTORE PUSH1 0x32 PUSH1 0x4 MSTORE PUSH1 0x24 PUSH1 0x0 REVERT JUMPDEST PUSH1 0x20 SWAP1 DUP2 MUL SWAP2 SWAP1 SWAP2 ADD DUP2 ADD MLOAD DUP3 MSTORE DUP2 ADD SWAP2 SWAP1 SWAP2 MSTORE PUSH1 0x40 ADD PUSH1 0x0 KECCAK256 SLOAD PUSH1 0x1 PUSH1 0x1 PUSH1 0xA0 SHL SUB AND JUMPDEST SWAP1 POP PUSH1 0x1 PUSH1 0x1 PUSH1 0xA0 SHL SUB DUP2 AND ISZERO PUSH2 0x323F JUMPI PUSH1 0x0 DUP1 JUMPDEST DUP5 DUP2 LT ISZERO PUSH2 0x31F0 JUMPI DUP3 PUSH1 0x1 PUSH1 0x1 PUSH1 0xA0 SHL SUB AND DUP7 DUP3 DUP2 MLOAD DUP2 LT PUSH2 0x31BE JUMPI PUSH4 0x4E487B71 PUSH1 0xE0 SHL PUSH1 0x0 MSTORE PUSH1 0x32 PUSH1 0x4 MSTORE PUSH1 0x24 PUSH1 0x0 REVERT JUMPDEST PUSH1 0x20 MUL PUSH1 0x20 ADD ADD MLOAD PUSH1 0x1 PUSH1 0x1 PUSH1 0xA0 SHL SUB AND EQ ISZERO PUSH2 0x31DE JUMPI PUSH1 0x1 SWAP2 POP PUSH2 0x31F0 JUMP JUMPDEST DUP1 PUSH2 0x31E8 DUP2 PUSH2 0x4423 JUMP JUMPDEST SWAP2 POP POP PUSH2 0x318C JUMP JUMPDEST POP DUP1 PUSH2 0x323D JUMPI DUP2 DUP6 DUP6 DUP2 MLOAD DUP2 LT PUSH2 0x3217 JUMPI PUSH4 0x4E487B71 PUSH1 0xE0 SHL PUSH1 0x0 MSTORE PUSH1 0x32 PUSH1 0x4 MSTORE PUSH1 0x24 PUSH1 0x0 REVERT JUMPDEST PUSH1 0x1 PUSH1 0x1 PUSH1 0xA0 SHL SUB SWAP1 SWAP3 AND PUSH1 0x20 SWAP3 DUP4 MUL SWAP2 SWAP1 SWAP2 ADD SWAP1 SWAP2 ADD MSTORE DUP4 PUSH2 0x3239 DUP2 PUSH2 0x4423 JUMP JUMPDEST SWAP5 POP POP JUMPDEST POP JUMPDEST POP DUP1 PUSH2 0x324A DUP2 PUSH2 0x4423 JUMP JUMPDEST SWAP2 POP POP PUSH2 0x30D1 JUMP JUMPDEST POP PUSH1 0x0 DUP2 PUSH8 0xFFFFFFFFFFFFFFFF DUP2 GT ISZERO PUSH2 0x327C JUMPI PUSH4 0x4E487B71 PUSH1 0xE0 SHL PUSH1 0x0 MSTORE PUSH1 0x41 PUSH1 0x4 MSTORE PUSH1 0x24 PUSH1 0x0 REVERT JUMPDEST PUSH1 0x40 MLOAD SWAP1 DUP1 DUP3 MSTORE DUP1 PUSH1 0x20 MUL PUSH1 0x20 ADD DUP3 ADD PUSH1 0x40 MSTORE DUP1 ISZERO PUSH2 0x32A5 JUMPI DUP2 PUSH1 0x20 ADD PUSH1 0x20 DUP3 MUL DUP1 CALLDATASIZE DUP4 CALLDATACOPY ADD SWAP1 POP JUMPDEST POP SWAP1 POP PUSH1 0x0 JUMPDEST DUP3 DUP2 LT ISZERO PUSH2 0x3325 JUMPI DUP4 DUP2 DUP2 MLOAD DUP2 LT PUSH2 0x32D3 JUMPI PUSH4 0x4E487B71 PUSH1 0xE0 SHL PUSH1 0x0 MSTORE PUSH1 0x32 PUSH1 0x4 MSTORE PUSH1 0x24 PUSH1 0x0 REVERT JUMPDEST PUSH1 0x20 MUL PUSH1 0x20 ADD ADD MLOAD DUP3 DUP3 DUP2 MLOAD DUP2 LT PUSH2 0x32FB JUMPI PUSH4 0x4E487B71 PUSH1 0xE0 SHL PUSH1 0x0 MSTORE PUSH1 0x32 PUSH1 0x4 MSTORE PUSH1 0x24 PUSH1 0x0 REVERT JUMPDEST PUSH1 0x1 PUSH1 0x1 PUSH1 0xA0 SHL SUB SWAP1 SWAP3 AND PUSH1 0x20 SWAP3 DUP4 MUL SWAP2 SWAP1 SWAP2 ADD SWAP1 SWAP2 ADD MSTORE DUP1 PUSH2 0x331D DUP2 PUSH2 0x4423 JUMP JUMPDEST SWAP2 POP POP PUSH2 0x32AB JUMP JUMPDEST POP PUSH1 0x6 SLOAD PUSH1 0x40 MLOAD PUSH4 0x5AB3BAF1 PUSH1 0xE1 SHL DUP2 MSTORE PUSH1 0x1 PUSH1 0x1 PUSH1 0xA0 SHL SUB SWAP1 SWAP2 AND SWAP1 PUSH4 0xB56775E2 SWAP1 PUSH2 0x3358 SWAP1 DUP8 SWAP1 DUP6 SWAP1 PUSH1 0x4 ADD PUSH2 0x3AAF JUMP JUMPDEST PUSH1 0x0 PUSH1 0x40 MLOAD DUP1 DUP4 SUB DUP2 PUSH1 0x0 DUP8 DUP1 EXTCODESIZE ISZERO DUP1 ISZERO PUSH2 0x3372 JUMPI PUSH1 0x0 DUP1 REVERT JUMPDEST POP GAS CALL SWAP3 POP POP POP DUP1 ISZERO PUSH2 0x3383 JUMPI POP PUSH1 0x1 JUMPDEST POP POP POP POP POP POP POP JUMP JUMPDEST PUSH1 0x0 PUSH2 0x33E1 DUP3 PUSH1 0x40 MLOAD DUP1 PUSH1 0x40 ADD PUSH1 0x40 MSTORE DUP1 PUSH1 0x20 DUP2 MSTORE PUSH1 0x20 ADD PUSH32 0x5361666545524332303A206C6F772D6C6576656C2063616C6C206661696C6564 DUP2 MSTORE POP DUP6 PUSH1 0x1 PUSH1 0x1 PUSH1 0xA0 SHL SUB AND PUSH2 0x341E SWAP1 SWAP3 SWAP2 SWAP1 PUSH4 0xFFFFFFFF AND JUMP JUMPDEST SWAP1 POP DUP1 MLOAD PUSH1 0x0 EQ DUP1 PUSH2 0x3402 JUMPI POP DUP1 DUP1 PUSH1 0x20 ADD SWAP1 MLOAD DUP2 ADD SWAP1 PUSH2 0x3402 SWAP2 SWAP1 PUSH2 0x3946 JUMP JUMPDEST PUSH2 0x2BFE JUMPI PUSH1 0x40 MLOAD PUSH3 0x461BCD PUSH1 0xE5 SHL DUP2 MSTORE PUSH1 0x4 ADD PUSH2 0x86D SWAP1 PUSH2 0x3FC7 JUMP JUMPDEST PUSH1 0x60 PUSH2 0x342D DUP5 DUP5 PUSH1 0x0 DUP6 PUSH2 0x3437 JUMP JUMPDEST SWAP1 POP JUMPDEST SWAP4 SWAP3 POP POP POP JUMP JUMPDEST PUSH1 0x60 DUP3 SELFBALANCE LT ISZERO PUSH2 0x3459 JUMPI PUSH1 0x40 MLOAD PUSH3 0x461BCD PUSH1 0xE5 SHL DUP2 MSTORE PUSH1 0x4 ADD PUSH2 0x86D SWAP1 PUSH2 0x3D74 JUMP JUMPDEST PUSH1 0x0 DUP1 DUP7 PUSH1 0x1 PUSH1 0x1 PUSH1 0xA0 SHL SUB AND DUP6 DUP8 PUSH1 0x40 MLOAD PUSH2 0x3475 SWAP2 SWAP1 PUSH2 0x3A1E JUMP JUMPDEST PUSH1 0x0 PUSH1 0x40 MLOAD DUP1 DUP4 SUB DUP2 DUP6 DUP8 GAS CALL SWAP3 POP POP POP RETURNDATASIZE DUP1 PUSH1 0x0 DUP2 EQ PUSH2 0x34B2 JUMPI PUSH1 0x40 MLOAD SWAP2 POP PUSH1 0x1F NOT PUSH1 0x3F RETURNDATASIZE ADD AND DUP3 ADD PUSH1 0x40 MSTORE RETURNDATASIZE DUP3 MSTORE RETURNDATASIZE PUSH1 0x0 PUSH1 0x20 DUP5 ADD RETURNDATACOPY PUSH2 0x34B7 JUMP JUMPDEST PUSH1 0x60 SWAP2 POP JUMPDEST POP SWAP2 POP SWAP2 POP PUSH2 0x34C8 DUP8 DUP4 DUP4 DUP8 PUSH2 0x34D5 JUMP JUMPDEST SWAP3 POP POP POP JUMPDEST SWAP5 SWAP4 POP POP POP POP JUMP JUMPDEST PUSH1 0x60 DUP4 ISZERO PUSH2 0x350F JUMPI DUP3 MLOAD PUSH2 0x3508 JUMPI PUSH2 0x34EC DUP6 PUSH2 0x3519 JUMP JUMPDEST PUSH2 0x3508 JUMPI PUSH1 0x40 MLOAD PUSH3 0x461BCD PUSH1 0xE5 SHL DUP2 MSTORE PUSH1 0x4 ADD PUSH2 0x86D SWAP1 PUSH2 0x3F64 JUMP JUMPDEST POP DUP2 PUSH2 0x34CD JUMP JUMPDEST PUSH2 0x34CD DUP4 DUP4 PUSH2 0x3528 JUMP JUMPDEST PUSH1 0x1 PUSH1 0x1 PUSH1 0xA0 SHL SUB AND EXTCODESIZE ISZERO ISZERO SWAP1 JUMP JUMPDEST DUP2 MLOAD ISZERO PUSH2 0x3538 JUMPI DUP2 MLOAD DUP1 DUP4 PUSH1 0x20 ADD REVERT JUMPDEST DUP1 PUSH1 0x40 MLOAD PUSH3 0x461BCD PUSH1 0xE5 SHL DUP2 MSTORE PUSH1 0x4 ADD PUSH2 0x86D SWAP2 SWAP1 PUSH2 0x3B73 JUMP JUMPDEST PUSH1 0x40 MLOAD DUP1 PUSH1 0xC0 ADD PUSH1 0x40 MSTORE DUP1 PUSH1 0x0 DUP2 MSTORE PUSH1 0x20 ADD PUSH1 0x0 DUP2 MSTORE PUSH1 0x20 ADD PUSH1 0x0 DUP2 MSTORE PUSH1 0x20 ADD PUSH1 0x0 DUP2 MSTORE PUSH1 0x20 ADD PUSH1 0x0 DUP2 MSTORE PUSH1 0x20 ADD PUSH1 0x0 DUP2 MSTORE POP SWAP1 JUMP JUMPDEST PUSH1 0x40 MLOAD DUP1 PUSH1 0xC0 ADD PUSH1 0x40 MSTORE DUP1 PUSH1 0x0 PUSH1 0x1 PUSH1 0x1 PUSH1 0xA0 SHL SUB AND DUP2 MSTORE PUSH1 0x20 ADD PUSH1 0x0 PUSH1 0x1 PUSH1 0x1 PUSH1 0xA0 SHL SUB AND DUP2 MSTORE PUSH1 0x20 ADD PUSH1 0x0 DUP2 MSTORE PUSH1 0x20 ADD PUSH1 0x0 DUP2 MSTORE PUSH1 0x20 ADD PUSH1 0x0 DUP2 MSTORE PUSH1 0x20 ADD PUSH1 0x0 PUSH1 0xFF AND DUP2 MSTORE POP SWAP1 JUMP JUMPDEST DUP1 CALLDATALOAD PUSH1 0x1 PUSH1 0x1 PUSH1 0xA0 SHL SUB DUP2 AND DUP2 EQ PUSH2 0xAE3 JUMPI PUSH1 0x0 DUP1 REVERT JUMPDEST DUP1 CALLDATALOAD PUSH2 0xAE3 DUP2 PUSH2 0x44A2 JUMP JUMPDEST PUSH1 0x0 PUSH1 0x20 DUP3 DUP5 SUB SLT ISZERO PUSH2 0x3606 JUMPI DUP1 DUP2 REVERT JUMPDEST PUSH2 0x3430 DUP3 PUSH2 0x35D3 JUMP JUMPDEST PUSH1 0x0 DUP1 PUSH1 0x40 DUP4 DUP6 SUB SLT ISZERO PUSH2 0x3621 JUMPI DUP1 DUP2 REVERT JUMPDEST PUSH2 0x362A DUP4 PUSH2 0x35D3 JUMP JUMPDEST SWAP2 POP PUSH2 0x3638 PUSH1 0x20 DUP5 ADD PUSH2 0x35D3 JUMP JUMPDEST SWAP1 POP SWAP3 POP SWAP3 SWAP1 POP JUMP JUMPDEST PUSH1 0x0 DUP1 PUSH1 0x0 DUP1 PUSH1 0x80 DUP6 DUP8 SUB SLT ISZERO PUSH2 0x3656 JUMPI DUP2 DUP3 REVERT JUMPDEST PUSH2 0x365F DUP6 PUSH2 0x35D3 JUMP JUMPDEST SWAP4 POP PUSH2 0x366D PUSH1 0x20 DUP7 ADD PUSH2 0x35D3 JUMP JUMPDEST SWAP3 POP PUSH1 0x40 DUP6 ADD CALLDATALOAD SWAP2 POP PUSH2 0x3682 PUSH1 0x60 DUP7 ADD PUSH2 0x35D3 JUMP JUMPDEST SWAP1 POP SWAP3 SWAP6 SWAP2 SWAP5 POP SWAP3 POP JUMP JUMPDEST PUSH1 0x0 DUP1 PUSH1 0x40 DUP1 DUP5 DUP7 SUB SLT ISZERO PUSH2 0x36A0 JUMPI DUP3 DUP4 REVERT JUMPDEST PUSH2 0x36A9 DUP5 PUSH2 0x35D3 JUMP JUMPDEST SWAP3 POP PUSH1 0x20 DUP1 DUP6 ADD CALLDATALOAD PUSH8 0xFFFFFFFFFFFFFFFF DUP2 GT ISZERO PUSH2 0x36C5 JUMPI DUP4 DUP5 REVERT JUMPDEST DUP6 ADD PUSH1 0x1F DUP2 ADD DUP8 SGT PUSH2 0x36D5 JUMPI DUP4 DUP5 REVERT JUMPDEST DUP1 CALLDATALOAD PUSH2 0x36E8 PUSH2 0x36E3 DUP3 PUSH2 0x425D JUMP JUMPDEST PUSH2 0x422C JUMP JUMPDEST DUP2 DUP2 MSTORE DUP4 DUP2 ADD SWAP1 DUP4 DUP6 ADD PUSH1 0x60 DUP1 DUP6 MUL DUP7 ADD DUP8 ADD DUP13 LT ISZERO PUSH2 0x3706 JUMPI DUP9 DUP10 REVERT JUMPDEST DUP9 SWAP6 POP JUMPDEST DUP5 DUP7 LT ISZERO PUSH2 0x3763 JUMPI DUP1 DUP3 DUP14 SUB SLT ISZERO PUSH2 0x3720 JUMPI DUP9 DUP10 REVERT JUMPDEST PUSH2 0x3729 DUP2 PUSH2 0x422C JUMP JUMPDEST DUP3 CALLDATALOAD PUSH2 0x3734 DUP2 PUSH2 0x44A2 JUMP JUMPDEST DUP2 MSTORE PUSH2 0x3741 DUP4 DUP10 ADD PUSH2 0x35D3 JUMP JUMPDEST DUP2 DUP10 ADD MSTORE DUP3 DUP10 ADD CALLDATALOAD DUP10 DUP3 ADD MSTORE DUP5 MSTORE PUSH1 0x1 SWAP6 SWAP1 SWAP6 ADD SWAP5 SWAP3 DUP7 ADD SWAP3 SWAP1 DUP2 ADD SWAP1 PUSH2 0x370A JUMP JUMPDEST POP SWAP8 SWAP11 SWAP1 SWAP10 POP SWAP8 POP POP POP POP POP POP POP POP JUMP JUMPDEST PUSH1 0x0 DUP1 PUSH1 0x40 DUP1 DUP5 DUP7 SUB SLT ISZERO PUSH2 0x3787 JUMPI DUP3 DUP4 REVERT JUMPDEST PUSH2 0x3790 DUP5 PUSH2 0x35D3 JUMP JUMPDEST SWAP3 POP PUSH1 0x20 DUP1 DUP6 ADD CALLDATALOAD PUSH8 0xFFFFFFFFFFFFFFFF DUP2 GT ISZERO PUSH2 0x37AC JUMPI DUP4 DUP5 REVERT JUMPDEST DUP6 ADD PUSH1 0x1F DUP2 ADD DUP8 SGT PUSH2 0x37BC JUMPI DUP4 DUP5 REVERT JUMPDEST DUP1 CALLDATALOAD PUSH2 0x37CA PUSH2 0x36E3 DUP3 PUSH2 0x425D JUMP JUMPDEST DUP2 DUP2 MSTORE DUP4 DUP2 ADD SWAP1 DUP4 DUP6 ADD PUSH2 0x100 DUP1 DUP6 MUL DUP7 ADD DUP8 ADD DUP13 LT ISZERO PUSH2 0x37E9 JUMPI DUP9 DUP10 REVERT JUMPDEST DUP9 SWAP6 POP JUMPDEST DUP5 DUP7 LT ISZERO PUSH2 0x3763 JUMPI DUP1 DUP3 DUP14 SUB SLT ISZERO PUSH2 0x3803 JUMPI DUP9 DUP10 REVERT JUMPDEST PUSH2 0x380C DUP2 PUSH2 0x422C JUMP JUMPDEST DUP3 CALLDATALOAD PUSH2 0x3817 DUP2 PUSH2 0x44A2 JUMP JUMPDEST DUP2 MSTORE PUSH2 0x3824 DUP4 DUP10 ADD PUSH2 0x35EA JUMP JUMPDEST DUP2 DUP10 ADD MSTORE DUP3 DUP10 ADD CALLDATALOAD DUP10 DUP3 ADD MSTORE PUSH1 0x60 DUP1 DUP5 ADD CALLDATALOAD SWAP1 DUP3 ADD MSTORE PUSH1 0x80 PUSH2 0x3847 DUP2 DUP6 ADD PUSH2 0x35D3 JUMP JUMPDEST SWAP1 DUP3 ADD MSTORE PUSH1 0xA0 PUSH2 0x3858 DUP5 DUP3 ADD PUSH2 0x35D3 JUMP JUMPDEST SWAP1 DUP3 ADD MSTORE PUSH1 0xC0 DUP4 DUP2 ADD CALLDATALOAD SWAP1 DUP3 ADD MSTORE PUSH1 0xE0 DUP1 DUP5 ADD CALLDATALOAD SWAP1 DUP3 ADD MSTORE DUP5 MSTORE PUSH1 0x1 SWAP6 SWAP1 SWAP6 ADD SWAP5 SWAP3 DUP7 ADD SWAP3 SWAP1 DUP2 ADD SWAP1 PUSH2 0x37ED JUMP JUMPDEST PUSH1 0x0 DUP1 PUSH1 0x40 DUP4 DUP6 SUB SLT ISZERO PUSH2 0x3898 JUMPI DUP2 DUP3 REVERT JUMPDEST PUSH2 0x38A1 DUP4 PUSH2 0x35D3 JUMP JUMPDEST SWAP5 PUSH1 0x20 SWAP4 SWAP1 SWAP4 ADD CALLDATALOAD SWAP4 POP POP POP JUMP JUMPDEST PUSH1 0x0 PUSH1 0x20 DUP1 DUP4 DUP6 SUB SLT ISZERO PUSH2 0x38C1 JUMPI DUP2 DUP3 REVERT JUMPDEST DUP3 CALLDATALOAD PUSH8 0xFFFFFFFFFFFFFFFF DUP2 GT ISZERO PUSH2 0x38D7 JUMPI DUP3 DUP4 REVERT JUMPDEST DUP4 ADD PUSH1 0x1F DUP2 ADD DUP6 SGT PUSH2 0x38E7 JUMPI DUP3 DUP4 REVERT JUMPDEST DUP1 CALLDATALOAD PUSH2 0x38F5 PUSH2 0x36E3 DUP3 PUSH2 0x425D JUMP JUMPDEST DUP2 DUP2 MSTORE DUP4 DUP2 ADD SWAP1 DUP4 DUP6 ADD DUP6 DUP5 MUL DUP6 ADD DUP7 ADD DUP10 LT ISZERO PUSH2 0x3911 JUMPI DUP7 DUP8 REVERT JUMPDEST DUP7 SWAP5 POP JUMPDEST DUP4 DUP6 LT ISZERO PUSH2 0x393A JUMPI PUSH2 0x3926 DUP2 PUSH2 0x35D3 JUMP JUMPDEST DUP4 MSTORE PUSH1 0x1 SWAP5 SWAP1 SWAP5 ADD SWAP4 SWAP2 DUP6 ADD SWAP2 DUP6 ADD PUSH2 0x3915 JUMP JUMPDEST POP SWAP8 SWAP7 POP POP POP POP POP POP POP JUMP JUMPDEST PUSH1 0x0 PUSH1 0x20 DUP3 DUP5 SUB SLT ISZERO PUSH2 0x3957 JUMPI DUP1 DUP2 REVERT JUMPDEST DUP2 MLOAD PUSH2 0x3430 DUP2 PUSH2 0x4494 JUMP JUMPDEST PUSH1 0x0 DUP1 PUSH1 0x40 DUP4 DUP6 SUB SLT ISZERO PUSH2 0x3974 JUMPI DUP2 DUP3 REVERT JUMPDEST DUP3 CALLDATALOAD PUSH2 0x38A1 DUP2 PUSH2 0x4494 JUMP JUMPDEST PUSH1 0x0 PUSH1 0x20 DUP3 DUP5 SUB SLT ISZERO PUSH2 0x3990 JUMPI DUP1 DUP2 REVERT JUMPDEST POP CALLDATALOAD SWAP2 SWAP1 POP JUMP JUMPDEST PUSH1 0x0 DUP1 PUSH1 0x40 DUP4 DUP6 SUB SLT ISZERO PUSH2 0x39A9 JUMPI DUP2 DUP3 REVERT JUMPDEST POP POP DUP1 MLOAD PUSH1 0x20 SWAP1 SWAP2 ADD MLOAD SWAP1 SWAP3 SWAP1 SWAP2 POP JUMP JUMPDEST PUSH1 0x0 PUSH1 0x20 DUP3 DUP5 SUB SLT ISZERO PUSH2 0x39CB JUMPI DUP1 DUP2 REVERT JUMPDEST DUP2 MLOAD PUSH2 0x3430 DUP2 PUSH2 0x44A2 JUMP JUMPDEST DUP1 MLOAD PUSH1 0x1 PUSH1 0x1 PUSH1 0xA0 SHL SUB SWAP1 DUP2 AND DUP4 MSTORE PUSH1 0x20 DUP1 DUP4 ADD MLOAD SWAP1 SWAP2 AND SWAP1 DUP4 ADD MSTORE PUSH1 0x40 DUP1 DUP3 ADD MLOAD SWAP1 DUP4 ADD MSTORE PUSH1 0x60 DUP1 DUP3 ADD MLOAD SWAP1 DUP4 ADD MSTORE PUSH1 0x80 DUP1 DUP3 ADD MLOAD SWAP1 DUP4 ADD MSTORE PUSH1 0xA0 SWAP1 DUP2 ADD MLOAD PUSH1 0xFF AND SWAP2 ADD MSTORE JUMP JUMPDEST PUSH1 0x0 DUP3 MLOAD PUSH2 0x3A30 DUP2 DUP5 PUSH1 0x20 DUP8 ADD PUSH2 0x43F7 JUMP JUMPDEST SWAP2 SWAP1 SWAP2 ADD SWAP3 SWAP2 POP POP JUMP JUMPDEST SWAP1 JUMP JUMPDEST PUSH1 0x1 PUSH1 0x1 PUSH1 0xA0 SHL SUB SWAP2 SWAP1 SWAP2 AND DUP2 MSTORE PUSH1 0x20 ADD SWAP1 JUMP JUMPDEST PUSH1 0x1 PUSH1 0x1 PUSH1 0xA0 SHL SUB SWAP7 DUP8 AND DUP2 MSTORE SWAP5 SWAP1 SWAP6 AND PUSH1 0x20 DUP6 ADD MSTORE PUSH1 0x40 DUP5 ADD SWAP3 SWAP1 SWAP3 MSTORE PUSH1 0x60 DUP4 ADD MSTORE PUSH1 0x80 DUP3 ADD MSTORE PUSH1 0xFF SWAP1 SWAP2 AND PUSH1 0xA0 DUP3 ADD MSTORE PUSH1 0xC0 ADD SWAP1 JUMP JUMPDEST PUSH1 0x1 PUSH1 0x1 PUSH1 0xA0 SHL SUB SWAP4 DUP5 AND DUP2 MSTORE SWAP2 SWAP1 SWAP3 AND PUSH1 0x20 DUP3 ADD MSTORE PUSH1 0xFF SWAP1 SWAP2 AND PUSH1 0x40 DUP3 ADD MSTORE PUSH1 0x60 ADD SWAP1 JUMP JUMPDEST PUSH1 0x1 PUSH1 0x1 PUSH1 0xA0 SHL SUB DUP4 DUP2 AND DUP3 MSTORE PUSH1 0x40 PUSH1 0x20 DUP1 DUP5 ADD DUP3 SWAP1 MSTORE DUP5 MLOAD SWAP2 DUP5 ADD DUP3 SWAP1 MSTORE PUSH1 0x0 SWAP3 DUP6 DUP3 ADD SWAP3 SWAP1 SWAP2 SWAP1 PUSH1 0x60 DUP7 ADD SWAP1 DUP6 JUMPDEST DUP2 DUP2 LT ISZERO PUSH2 0x3AFD JUMPI DUP6 MLOAD DUP6 AND DUP4 MSTORE SWAP5 DUP4 ADD SWAP5 SWAP2 DUP4 ADD SWAP2 PUSH1 0x1 ADD PUSH2 0x3ADF JUMP JUMPDEST POP SWAP1 SWAP9 SWAP8 POP POP POP POP POP POP POP POP JUMP JUMPDEST PUSH1 0x1 PUSH1 0x1 PUSH1 0xA0 SHL SUB SWAP3 SWAP1 SWAP3 AND DUP3 MSTORE PUSH1 0x20 DUP3 ADD MSTORE PUSH1 0x40 ADD SWAP1 JUMP JUMPDEST PUSH1 0x20 DUP1 DUP3 MSTORE DUP3 MLOAD DUP3 DUP3 ADD DUP2 SWAP1 MSTORE PUSH1 0x0 SWAP2 SWAP1 DUP5 DUP3 ADD SWAP1 PUSH1 0x40 DUP6 ADD SWAP1 DUP5 JUMPDEST DUP2 DUP2 LT ISZERO PUSH2 0x3B5C JUMPI DUP4 MLOAD DUP4 MSTORE SWAP3 DUP5 ADD SWAP3 SWAP2 DUP5 ADD SWAP2 PUSH1 0x1 ADD PUSH2 0x3B40 JUMP JUMPDEST POP SWAP1 SWAP7 SWAP6 POP POP POP POP POP POP JUMP JUMPDEST SWAP1 ISZERO ISZERO DUP2 MSTORE PUSH1 0x20 ADD SWAP1 JUMP JUMPDEST PUSH1 0x0 PUSH1 0x20 DUP3 MSTORE DUP3 MLOAD DUP1 PUSH1 0x20 DUP5 ADD MSTORE PUSH2 0x3B92 DUP2 PUSH1 0x40 DUP6 ADD PUSH1 0x20 DUP8 ADD PUSH2 0x43F7 JUMP JUMPDEST PUSH1 0x1F ADD PUSH1 0x1F NOT AND SWAP2 SWAP1 SWAP2 ADD PUSH1 0x40 ADD SWAP3 SWAP2 POP POP JUMP JUMPDEST PUSH1 0x20 DUP1 DUP3 MSTORE PUSH1 0x12 SWAP1 DUP3 ADD MSTORE PUSH18 0x4E6F20686973746F726963616C2064617461 PUSH1 0x70 SHL PUSH1 0x40 DUP3 ADD MSTORE PUSH1 0x60 ADD SWAP1 JUMP JUMPDEST PUSH1 0x20 DUP1 DUP3 MSTORE PUSH1 0xB SWAP1 DUP3 ADD MSTORE PUSH11 0x526F75746572206F6E6C79 PUSH1 0xA8 SHL PUSH1 0x40 DUP3 ADD MSTORE PUSH1 0x60 ADD SWAP1 JUMP JUMPDEST PUSH1 0x20 DUP1 DUP3 MSTORE PUSH1 0x14 SWAP1 DUP3 ADD MSTORE PUSH20 0x149959DA5CDD1C9E48185B1C9958591E481CD95D PUSH1 0x62 SHL PUSH1 0x40 DUP3 ADD MSTORE PUSH1 0x60 ADD SWAP1 JUMP JUMPDEST PUSH1 0x20 DUP1 DUP3 MSTORE PUSH1 0x14 SWAP1 DUP3 ADD MSTORE PUSH20 0x496E73756666696369656E742070656E64696E67 PUSH1 0x60 SHL PUSH1 0x40 DUP3 ADD MSTORE PUSH1 0x60 ADD SWAP1 JUMP JUMPDEST PUSH1 0x20 DUP1 DUP3 MSTORE PUSH1 0x13 SWAP1 DUP3 ADD MSTORE PUSH19 0x139BC81C9BDD5D195C9CC81C1C9BDD9A591959 PUSH1 0x6A SHL PUSH1 0x40 DUP3 ADD MSTORE PUSH1 0x60 ADD SWAP1 JUMP JUMPDEST PUSH1 0x20 DUP1 DUP3 MSTORE PUSH1 0xD SWAP1 DUP3 ADD MSTORE PUSH13 0x92DCECC2D8D2C840D2DCC8CAF PUSH1 0x9B SHL PUSH1 0x40 DUP3 ADD MSTORE PUSH1 0x60 ADD SWAP1 JUMP JUMPDEST PUSH1 0x20 DUP1 DUP3 MSTORE PUSH1 0x18 SWAP1 DUP3 ADD MSTORE PUSH32 0x496E76616C696420726567697374727920616464726573730000000000000000 PUSH1 0x40 DUP3 ADD MSTORE PUSH1 0x60 ADD SWAP1 JUMP JUMPDEST PUSH1 0x20 DUP1 DUP3 MSTORE PUSH1 0x15 SWAP1 DUP3 ADD MSTORE PUSH21 0x496E76616C6964206D6178497465726174696F6E73 PUSH1 0x58 SHL PUSH1 0x40 DUP3 ADD MSTORE PUSH1 0x60 ADD SWAP1 JUMP JUMPDEST PUSH1 0x20 DUP1 DUP3 MSTORE PUSH1 0x16 SWAP1 DUP3 ADD MSTORE PUSH22 0x131A5CDD1A5B99C8125108185B1C9958591E481CD95D PUSH1 0x52 SHL PUSH1 0x40 DUP3 ADD MSTORE PUSH1 0x60 ADD SWAP1 JUMP JUMPDEST PUSH1 0x20 DUP1 DUP3 MSTORE PUSH1 0x19 SWAP1 DUP3 ADD MSTORE PUSH32 0x496E76616C6964206C6971756964697479206164647265737300000000000000 PUSH1 0x40 DUP3 ADD MSTORE PUSH1 0x60 ADD SWAP1 JUMP JUMPDEST PUSH1 0x20 DUP1 DUP3 MSTORE PUSH1 0x26 SWAP1 DUP3 ADD MSTORE PUSH32 0x416464726573733A20696E73756666696369656E742062616C616E636520666F PUSH1 0x40 DUP3 ADD MSTORE PUSH6 0x1C8818D85B1B PUSH1 0xD2 SHL PUSH1 0x60 DUP3 ADD MSTORE PUSH1 0x80 ADD SWAP1 JUMP JUMPDEST PUSH1 0x20 DUP1 DUP3 MSTORE PUSH1 0xD SWAP1 DUP3 ADD MSTORE PUSH13 0x24B73B30B634B2103A37B5B2B7 PUSH1 0x99 SHL PUSH1 0x40 DUP3 ADD MSTORE PUSH1 0x60 ADD SWAP1 JUMP JUMPDEST PUSH1 0x20 DUP1 DUP3 MSTORE PUSH1 0x18 SWAP1 DUP3 ADD MSTORE PUSH32 0x546F6B656E73206D75737420626520646966666572656E740000000000000000 PUSH1 0x40 DUP3 ADD MSTORE PUSH1 0x60 ADD SWAP1 JUMP JUMPDEST PUSH1 0x20 DUP1 DUP3 MSTORE PUSH1 0x15 SWAP1 DUP3 ADD MSTORE PUSH21 0x496E73756666696369656E74207942616C616E6365 PUSH1 0x58 SHL PUSH1 0x40 DUP3 ADD MSTORE PUSH1 0x60 ADD SWAP1 JUMP JUMPDEST PUSH1 0x20 DUP1 DUP3 MSTORE PUSH1 0x15 SWAP1 DUP3 ADD MSTORE PUSH21 0x131A5C5D5A591A5D1E48185B1C9958591E481CD95D PUSH1 0x5A SHL PUSH1 0x40 DUP3 ADD MSTORE PUSH1 0x60 ADD SWAP1 JUMP JUMPDEST PUSH1 0x20 DUP1 DUP3 MSTORE PUSH1 0x16 SWAP1 DUP3 ADD MSTORE PUSH22 0x496E76616C696420726F757465722061646472657373 PUSH1 0x50 SHL PUSH1 0x40 DUP3 ADD MSTORE PUSH1 0x60 ADD SWAP1 JUMP JUMPDEST PUSH1 0x20 DUP1 DUP3 MSTORE PUSH1 0x13 SWAP1 DUP3 ADD MSTORE PUSH19 0x496E76616C6964207061796F75742074797065 PUSH1 0x68 SHL PUSH1 0x40 DUP3 ADD MSTORE PUSH1 0x60 ADD SWAP1 JUMP JUMPDEST PUSH1 0x20 DUP1 DUP3 MSTORE PUSH1 0x13 SWAP1 DUP3 ADD MSTORE PUSH19 0x149BDD5D195C9CC8185B1C9958591E481CD95D PUSH1 0x6A SHL PUSH1 0x40 DUP3 ADD MSTORE PUSH1 0x60 ADD SWAP1 JUMP JUMPDEST PUSH1 0x20 DUP1 DUP3 MSTORE PUSH1 0x1A SWAP1 DUP3 ADD MSTORE PUSH32 0x426F746820746F6B656E732063616E6E6F74206265207A65726F000000000000 PUSH1 0x40 DUP3 ADD MSTORE PUSH1 0x60 ADD SWAP1 JUMP JUMPDEST PUSH1 0x20 DUP1 DUP3 MSTORE PUSH1 0x13 SWAP1 DUP3 ADD MSTORE PUSH19 0x115512081D1C985B9CD9995C8819985A5B1959 PUSH1 0x6A SHL PUSH1 0x40 DUP3 ADD MSTORE PUSH1 0x60 ADD SWAP1 JUMP JUMPDEST PUSH1 0x20 DUP1 DUP3 MSTORE PUSH1 0x1D SWAP1 DUP3 ADD MSTORE PUSH32 0x416464726573733A2063616C6C20746F206E6F6E2D636F6E7472616374000000 PUSH1 0x40 DUP3 ADD MSTORE PUSH1 0x60 ADD SWAP1 JUMP JUMPDEST PUSH1 0x20 DUP1 DUP3 MSTORE PUSH1 0x12 SWAP1 DUP3 ADD MSTORE PUSH18 0x151BDAD95B9CC8185B1C9958591E481CD95D PUSH1 0x72 SHL PUSH1 0x40 DUP3 ADD MSTORE PUSH1 0x60 ADD SWAP1 JUMP JUMPDEST PUSH1 0x20 DUP1 DUP3 MSTORE PUSH1 0x2A SWAP1 DUP3 ADD MSTORE PUSH32 0x5361666545524332303A204552433230206F7065726174696F6E20646964206E PUSH1 0x40 DUP3 ADD MSTORE PUSH10 0x1BDD081CDD58D8D95959 PUSH1 0xB2 SHL PUSH1 0x60 DUP3 ADD MSTORE PUSH1 0x80 ADD SWAP1 JUMP JUMPDEST PUSH1 0x20 DUP1 DUP3 MSTORE PUSH1 0x15 SWAP1 DUP3 ADD MSTORE PUSH21 0x496E76616C6964206167656E742061646472657373 PUSH1 0x58 SHL PUSH1 0x40 DUP3 ADD MSTORE PUSH1 0x60 ADD SWAP1 JUMP JUMPDEST PUSH1 0x20 DUP1 DUP3 MSTORE PUSH1 0x15 SWAP1 DUP3 ADD MSTORE PUSH21 0x496E73756666696369656E74207842616C616E6365 PUSH1 0x58 SHL PUSH1 0x40 DUP3 ADD MSTORE PUSH1 0x60 ADD SWAP1 JUMP JUMPDEST PUSH1 0x20 DUP1 DUP3 MSTORE PUSH1 0x1F SWAP1 DUP3 ADD MSTORE PUSH32 0x5265656E7472616E637947756172643A207265656E7472616E742063616C6C00 PUSH1 0x40 DUP3 ADD MSTORE PUSH1 0x60 ADD SWAP1 JUMP JUMPDEST PUSH1 0x20 DUP1 DUP3 MSTORE PUSH1 0x11 SWAP1 DUP3 ADD MSTORE PUSH17 0x1059D95B9D08185B1C9958591E481CD95D PUSH1 0x7A SHL PUSH1 0x40 DUP3 ADD MSTORE PUSH1 0x60 ADD SWAP1 JUMP JUMPDEST PUSH1 0x0 PUSH1 0xC0 DUP3 ADD SWAP1 POP DUP3 MLOAD DUP3 MSTORE PUSH1 0x20 DUP4 ADD MLOAD PUSH1 0x20 DUP4 ADD MSTORE PUSH1 0x40 DUP4 ADD MLOAD PUSH1 0x40 DUP4 ADD MSTORE PUSH1 0x60 DUP4 ADD MLOAD PUSH1 0x60 DUP4 ADD MSTORE PUSH1 0x80 DUP4 ADD MLOAD PUSH1 0x80 DUP4 ADD MSTORE PUSH1 0xA0 DUP4 ADD MLOAD PUSH1 0xA0 DUP4 ADD MSTORE SWAP3 SWAP2 POP POP JUMP JUMPDEST PUSH1 0xC0 DUP2 ADD PUSH2 0xC6A DUP3 DUP5 PUSH2 0x39D6 JUMP JUMPDEST SWAP1 DUP2 MSTORE PUSH1 0x20 ADD SWAP1 JUMP JUMPDEST SWAP9 DUP10 MSTORE PUSH1 0x1 PUSH1 0x1 PUSH1 0xA0 SHL SUB SWAP8 DUP9 AND PUSH1 0x20 DUP11 ADD MSTORE SWAP6 DUP8 AND PUSH1 0x40 DUP10 ADD MSTORE PUSH1 0x60 DUP9 ADD SWAP5 SWAP1 SWAP5 MSTORE SWAP2 ISZERO ISZERO PUSH1 0x80 DUP8 ADD MSTORE DUP5 AND PUSH1 0xA0 DUP7 ADD MSTORE SWAP1 SWAP3 AND PUSH1 0xC0 DUP5 ADD MSTORE PUSH1 0xE0 DUP4 ADD SWAP2 SWAP1 SWAP2 MSTORE PUSH1 0xFF AND PUSH2 0x100 DUP3 ADD MSTORE PUSH2 0x120 ADD SWAP1 JUMP JUMPDEST SWAP3 DUP4 MSTORE SWAP1 ISZERO ISZERO PUSH1 0x20 DUP4 ADD MSTORE PUSH1 0xFF AND PUSH1 0x40 DUP3 ADD MSTORE PUSH1 0x60 ADD SWAP1 JUMP JUMPDEST SWAP2 DUP3 MSTORE PUSH1 0x20 DUP3 ADD MSTORE PUSH1 0x40 ADD SWAP1 JUMP JUMPDEST SWAP4 DUP5 MSTORE PUSH1 0x20 DUP5 ADD SWAP3 SWAP1 SWAP3 MSTORE ISZERO ISZERO PUSH1 0x40 DUP4 ADD MSTORE PUSH1 0xFF AND PUSH1 0x60 DUP3 ADD MSTORE PUSH1 0x80 ADD SWAP1 JUMP JUMPDEST SWAP3 DUP4 MSTORE PUSH1 0x20 DUP4 ADD SWAP2 SWAP1 SWAP2 MSTORE PUSH1 0x40 DUP3 ADD MSTORE PUSH1 0x60 ADD SWAP1 JUMP JUMPDEST SWAP4 DUP5 MSTORE PUSH1 0x20 DUP5 ADD SWAP3 SWAP1 SWAP3 MSTORE PUSH1 0x40 DUP4 ADD MSTORE PUSH1 0x60 DUP3 ADD MSTORE PUSH1 0x80 ADD SWAP1 JUMP JUMPDEST SWAP6 DUP7 MSTORE PUSH1 0x20 DUP7 ADD SWAP5 SWAP1 SWAP5 MSTORE PUSH1 0x40 DUP6 ADD SWAP3 SWAP1 SWAP3 MSTORE PUSH1 0x60 DUP5 ADD MSTORE PUSH1 0x80 DUP4 ADD MSTORE PUSH1 0xA0 DUP3 ADD MSTORE PUSH1 0xC0 ADD SWAP1 JUMP JUMPDEST PUSH1 0xFF SWAP2 SWAP1 SWAP2 AND DUP2 MSTORE PUSH1 0x20 ADD SWAP1 JUMP JUMPDEST PUSH1 0x40 MLOAD PUSH1 0x1F DUP3 ADD PUSH1 0x1F NOT AND DUP2 ADD PUSH8 0xFFFFFFFFFFFFFFFF DUP2 GT DUP3 DUP3 LT OR ISZERO PUSH2 0x4255 JUMPI PUSH2 0x4255 PUSH2 0x447E JUMP JUMPDEST PUSH1 0x40 MSTORE SWAP2 SWAP1 POP JUMP JUMPDEST PUSH1 0x0 PUSH8 0xFFFFFFFFFFFFFFFF DUP3 GT ISZERO PUSH2 0x4277 JUMPI PUSH2 0x4277 PUSH2 0x447E JUMP JUMPDEST POP PUSH1 0x20 SWAP1 DUP2 MUL ADD SWAP1 JUMP JUMPDEST PUSH1 0x0 DUP3 NOT DUP3 GT ISZERO PUSH2 0x4294 JUMPI PUSH2 0x4294 PUSH2 0x4452 JUMP JUMPDEST POP ADD SWAP1 JUMP JUMPDEST PUSH1 0x0 DUP3 PUSH2 0x42A8 JUMPI PUSH2 0x42A8 PUSH2 0x4468 JUMP JUMPDEST POP DIV SWAP1 JUMP JUMPDEST DUP1 DUP3 JUMPDEST PUSH1 0x1 DUP1 DUP7 GT PUSH2 0x42BF JUMPI POP PUSH2 0x42EA JUMP JUMPDEST DUP2 DUP8 DIV DUP3 GT ISZERO PUSH2 0x42D1 JUMPI PUSH2 0x42D1 PUSH2 0x4452 JUMP JUMPDEST DUP1 DUP7 AND ISZERO PUSH2 0x42DE JUMPI SWAP2 DUP2 MUL SWAP2 JUMPDEST SWAP5 SWAP1 SWAP5 SHR SWAP4 DUP1 MUL PUSH2 0x42B0 JUMP JUMPDEST SWAP5 POP SWAP5 SWAP3 POP POP POP JUMP JUMPDEST PUSH1 0x0 PUSH2 0x3430 PUSH1 0x0 NOT DUP5 DUP5 PUSH1 0x0 DUP3 PUSH2 0x430C JUMPI POP PUSH1 0x1 PUSH2 0x3430 JUMP JUMPDEST DUP2 PUSH2 0x4319 JUMPI POP PUSH1 0x0 PUSH2 0x3430 JUMP JUMPDEST DUP2 PUSH1 0x1 DUP2 EQ PUSH2 0x432F JUMPI PUSH1 0x2 DUP2 EQ PUSH2 0x4339 JUMPI PUSH2 0x4366 JUMP JUMPDEST PUSH1 0x1 SWAP2 POP POP PUSH2 0x3430 JUMP JUMPDEST PUSH1 0xFF DUP5 GT ISZERO PUSH2 0x434A JUMPI PUSH2 0x434A PUSH2 0x4452 JUMP JUMPDEST PUSH1 0x1 DUP5 SHL SWAP2 POP DUP5 DUP3 GT ISZERO PUSH2 0x4360 JUMPI PUSH2 0x4360 PUSH2 0x4452 JUMP JUMPDEST POP PUSH2 0x3430 JUMP JUMPDEST POP PUSH1 0x20 DUP4 LT PUSH2 0x133 DUP4 LT AND PUSH1 0x4E DUP5 LT PUSH1 0xB DUP5 LT AND OR ISZERO PUSH2 0x4399 JUMPI POP DUP2 DUP2 EXP DUP4 DUP2 GT ISZERO PUSH2 0x4394 JUMPI PUSH2 0x4394 PUSH2 0x4452 JUMP JUMPDEST PUSH2 0x3430 JUMP JUMPDEST PUSH2 0x43A6 DUP5 DUP5 DUP5 PUSH1 0x1 PUSH2 0x42AD JUMP JUMPDEST DUP1 DUP7 DIV DUP3 GT ISZERO PUSH2 0x43B8 JUMPI PUSH2 0x43B8 PUSH2 0x4452 JUMP JUMPDEST MUL SWAP5 SWAP4 POP POP POP POP JUMP JUMPDEST PUSH1 0x0 DUP2 PUSH1 0x0 NOT DIV DUP4 GT DUP3 ISZERO ISZERO AND ISZERO PUSH2 0x43DB JUMPI PUSH2 0x43DB PUSH2 0x4452 JUMP JUMPDEST POP MUL SWAP1 JUMP JUMPDEST PUSH1 0x0 DUP3 DUP3 LT ISZERO PUSH2 0x43F2 JUMPI PUSH2 0x43F2 PUSH2 0x4452 JUMP JUMPDEST POP SUB SWAP1 JUMP JUMPDEST PUSH1 0x0 JUMPDEST DUP4 DUP2 LT ISZERO PUSH2 0x4412 JUMPI DUP2 DUP2 ADD MLOAD DUP4 DUP3 ADD MSTORE PUSH1 0x20 ADD PUSH2 0x43FA JUMP JUMPDEST DUP4 DUP2 GT ISZERO PUSH2 0x2A75 JUMPI POP POP PUSH1 0x0 SWAP2 ADD MSTORE JUMP JUMPDEST PUSH1 0x0 PUSH1 0x0 NOT DUP3 EQ ISZERO PUSH2 0x4437 JUMPI PUSH2 0x4437 PUSH2 0x4452 JUMP JUMPDEST POP PUSH1 0x1 ADD SWAP1 JUMP JUMPDEST PUSH1 0x0 DUP3 PUSH2 0x444D JUMPI PUSH2 0x444D PUSH2 0x4468 JUMP JUMPDEST POP MOD SWAP1 JUMP JUMPDEST PUSH4 0x4E487B71 PUSH1 0xE0 SHL PUSH1 0x0 MSTORE PUSH1 0x11 PUSH1 0x4 MSTORE PUSH1 0x24 PUSH1 0x0 REVERT JUMPDEST PUSH4 0x4E487B71 PUSH1 0xE0 SHL PUSH1 0x0 MSTORE PUSH1 0x12 PUSH1 0x4 MSTORE PUSH1 0x24 PUSH1 0x0 REVERT JUMPDEST PUSH4 0x4E487B71 PUSH1 0xE0 SHL PUSH1 0x0 MSTORE PUSH1 0x41 PUSH1 0x4 MSTORE PUSH1 0x24 PUSH1 0x0 REVERT JUMPDEST DUP1 ISZERO ISZERO DUP2 EQ PUSH2 0x2EE3 JUMPI PUSH1 0x0 DUP1 REVERT JUMPDEST PUSH1 0xFF DUP2 AND DUP2 EQ PUSH2 0x2EE3 JUMPI PUSH1 0x0 DUP1 REVERT INVALID EQ PUSH10 0xFD73C723A0C016743EF5 0xEE OR ORIGIN CALLDATACOPY 0xC1 0xA5 0xD1 DUP14 DIFFICULTY MSIZE PUSH5 0x22DC7D77B0 0xE5 PUSH6 0x7705A2646970 PUSH7 0x7358221220B196 0xFC PUSH29 0xB820D9A3E2116A7F96E722DF72EEB11D48055F11352BF43136259CDC64 PUSH20 0x6F6C634300080100330000000000000000000000 "
		},
		"gasEstimates": {
			"creation": {
				"codeDepositCost": "3534200",
				"executionCost": "23972",
				"totalCost": "3558172"
			},
			"external": {
				"agent()": "1158",
				"buyOrderAmounts(uint256)": "2095",
				"buyOrderCores(uint256)": "2195",
				"buyOrderPricings(uint256)": "2115",
				"decimalsA()": "1175",
				"decimalsB()": "1153",
				"getBuyOrderAmounts(uint256)": "2189",
				"getBuyOrderCore(uint256)": "2306",
				"getBuyOrderPricing(uint256)": "2145",
				"getHistoricalDataByNearestTimestamp(uint256)": "infinite",
				"getHistoricalDataView(uint256)": "7377",
				"getListingId()": "1161",
				"getLongPayout(uint256)": "5908",
				"getNextOrderId()": "1097",
				"getSellOrderAmounts(uint256)": "2143",
				"getSellOrderCore(uint256)": "2350",
				"getSellOrderPricing(uint256)": "2144",
				"getShortPayout(uint256)": "5952",
				"historicalData(uint256)": "6317",
				"historicalDataLengthView()": "1096",
				"lastDayFee()": "2813",
				"liquidityAddress()": "1204",
				"liquidityAddressView(uint256)": "1260",
				"listingId()": "1140",
				"listingPriceView()": "1163",
				"listingVolumeBalancesView()": "3644",
				"longPayoutByIndexView()": "infinite",
				"longPayouts(uint256)": "5495",
				"longPayoutsByIndex(uint256)": "2087",
				"makerPendingOrders(address,uint256)": "2279",
				"makerPendingOrdersView(address)": "infinite",
				"nextOrderId()": "1140",
				"pendingBuyOrders(uint256)": "2085",
				"pendingBuyOrdersView()": "infinite",
				"pendingSellOrders(uint256)": "2085",
				"pendingSellOrdersView()": "infinite",
				"price()": "1117",
				"prices(uint256)": "1197",
				"queryYield(bool,uint256)": "infinite",
				"registryAddress()": "1136",
				"routers(address)": "1397",
				"routersSet()": "1153",
				"sellOrderAmounts(uint256)": "2072",
				"sellOrderCores(uint256)": "2217",
				"sellOrderPricings(uint256)": "2071",
				"setAgent(address)": "22156",
				"setLiquidityAddress(address)": "22178",
				"setListingId(uint256)": "21134",
				"setRegistry(address)": "22155",
				"setRouters(address[])": "infinite",
				"setTokens(address,address)": "infinite",
				"shortPayoutByIndexView()": "infinite",
				"shortPayouts(uint256)": "5559",
				"shortPayoutsByIndex(uint256)": "2063",
				"ssUpdate(address,(uint8,address,uint256)[])": "infinite",
				"tokenA()": "1216",
				"tokenB()": "1204",
				"transact(address,address,uint256,address)": "infinite",
				"update(address,(uint8,uint8,uint256,uint256,address,address,uint256,uint256)[])": "infinite",
				"userPayoutIDs(address,uint256)": "2276",
				"userPayoutIDsView(address)": "infinite",
				"volumeBalance()": "3632",
				"volumeBalances(uint256)": "2023"
			},
			"internal": {
				"_findVolumeChange(bool,uint256,uint256)": "infinite",
				"_floorToMidnight(uint256)": "164",
				"_isSameDay(uint256,uint256)": "infinite",
				"_updateRegistry()": "infinite",
				"denormalize(uint256,uint8)": "infinite",
				"globalizeUpdate()": "infinite",
				"normalize(uint256,uint8)": "infinite",
				"removePendingOrder(uint256[] storage pointer,uint256)": "infinite"
			}
		},
		"methodIdentifiers": {
			"agent()": "f5ff5c76",
			"buyOrderAmounts(uint256)": "85439639",
			"buyOrderCores(uint256)": "02e2f156",
			"buyOrderPricings(uint256)": "db6d7c53",
			"decimalsA()": "50894e9f",
			"decimalsB()": "57cbf16c",
			"getBuyOrderAmounts(uint256)": "03b63cc4",
			"getBuyOrderCore(uint256)": "4b66cd4b",
			"getBuyOrderPricing(uint256)": "080735de",
			"getHistoricalDataByNearestTimestamp(uint256)": "8dee80d8",
			"getHistoricalDataView(uint256)": "99ac4de3",
			"getListingId()": "eb510caf",
			"getLongPayout(uint256)": "91776ee7",
			"getNextOrderId()": "8158900b",
			"getSellOrderAmounts(uint256)": "60a3e765",
			"getSellOrderCore(uint256)": "957faf7e",
			"getSellOrderPricing(uint256)": "baba1dc8",
			"getShortPayout(uint256)": "c794836c",
			"historicalData(uint256)": "e963eb33",
			"historicalDataLengthView()": "55fa1262",
			"lastDayFee()": "9e1eb73e",
			"liquidityAddress()": "3221c93f",
			"liquidityAddressView(uint256)": "e9c89134",
			"listingId()": "9405dfdd",
			"listingPriceView()": "05ca6aa6",
			"listingVolumeBalancesView()": "40d87ebe",
			"longPayoutByIndexView()": "8b73097b",
			"longPayouts(uint256)": "355883fc",
			"longPayoutsByIndex(uint256)": "3899b14a",
			"makerPendingOrders(address,uint256)": "01cfbbb2",
			"makerPendingOrdersView(address)": "6d8d6189",
			"nextOrderId()": "2a58b330",
			"pendingBuyOrders(uint256)": "cbfb8060",
			"pendingBuyOrdersView()": "27a4d4c5",
			"pendingSellOrders(uint256)": "e9bfddd5",
			"pendingSellOrdersView()": "9de500b3",
			"price()": "a035b1fe",
			"prices(uint256)": "bc31c1c1",
			"queryYield(bool,uint256)": "0d996f82",
			"registryAddress()": "ed9aab51",
			"routers(address)": "80dd9a1f",
			"routersSet()": "3ad57db6",
			"sellOrderAmounts(uint256)": "418a1adc",
			"sellOrderCores(uint256)": "039216dc",
			"sellOrderPricings(uint256)": "e9a3fa7d",
			"setAgent(address)": "bcf685ed",
			"setLiquidityAddress(address)": "525fa81f",
			"setListingId(uint256)": "9cd649b7",
			"setRegistry(address)": "a91ee0dc",
			"setRouters(address[])": "00b439f9",
			"setTokens(address,address)": "cbc7854e",
			"shortPayoutByIndexView()": "59b5994c",
			"shortPayouts(uint256)": "b6dd26b7",
			"shortPayoutsByIndex(uint256)": "9e2cb888",
			"ssUpdate(address,(uint8,address,uint256)[])": "88413c17",
			"tokenA()": "0fc63d10",
			"tokenB()": "5f64b55b",
			"transact(address,address,uint256,address)": "f9b44c85",
			"update(address,(uint8,uint8,uint256,uint256,address,address,uint256,uint256)[])": "13e2b18e",
			"userPayoutIDs(address,uint256)": "7d5fd394",
			"userPayoutIDsView(address)": "0a580928",
			"volumeBalance()": "fd59264a",
			"volumeBalances(uint256)": "015f8dd9"
		}
	},
	"abi": [
		{
			"anonymous": false,
			"inputs": [
				{
					"indexed": false,
					"internalType": "uint256",
					"name": "listingId",
					"type": "uint256"
				},
				{
					"indexed": false,
					"internalType": "uint256",
					"name": "xBalance",
					"type": "uint256"
				},
				{
					"indexed": false,
					"internalType": "uint256",
					"name": "yBalance",
					"type": "uint256"
				}
			],
			"name": "BalancesUpdated",
			"type": "event"
		},
		{
			"anonymous": false,
			"inputs": [
				{
					"indexed": false,
					"internalType": "uint256",
					"name": "listingId",
					"type": "uint256"
				},
				{
					"indexed": false,
					"internalType": "uint256",
					"name": "orderId",
					"type": "uint256"
				},
				{
					"indexed": false,
					"internalType": "bool",
					"name": "isBuy",
					"type": "bool"
				},
				{
					"indexed": false,
					"internalType": "uint8",
					"name": "status",
					"type": "uint8"
				}
			],
			"name": "OrderUpdated",
			"type": "event"
		},
		{
			"anonymous": false,
			"inputs": [
				{
					"indexed": false,
					"internalType": "uint256",
					"name": "orderId",
					"type": "uint256"
				},
				{
					"indexed": false,
					"internalType": "bool",
					"name": "isLong",
					"type": "bool"
				},
				{
					"indexed": false,
					"internalType": "uint8",
					"name": "status",
					"type": "uint8"
				}
			],
			"name": "PayoutOrderCreated",
			"type": "event"
		},
		{
			"inputs": [],
			"name": "agent",
			"outputs": [
				{
					"internalType": "address",
					"name": "",
					"type": "address"
				}
			],
			"stateMutability": "view",
			"type": "function"
		},
		{
			"inputs": [
				{
					"internalType": "uint256",
					"name": "",
					"type": "uint256"
				}
			],
			"name": "buyOrderAmounts",
			"outputs": [
				{
					"internalType": "uint256",
					"name": "pending",
					"type": "uint256"
				},
				{
					"internalType": "uint256",
					"name": "filled",
					"type": "uint256"
				}
			],
			"stateMutability": "view",
			"type": "function"
		},
		{
			"inputs": [
				{
					"internalType": "uint256",
					"name": "",
					"type": "uint256"
				}
			],
			"name": "buyOrderCores",
			"outputs": [
				{
					"internalType": "address",
					"name": "makerAddress",
					"type": "address"
				},
				{
					"internalType": "address",
					"name": "recipientAddress",
					"type": "address"
				},
				{
					"internalType": "uint8",
					"name": "status",
					"type": "uint8"
				}
			],
			"stateMutability": "view",
			"type": "function"
		},
		{
			"inputs": [
				{
					"internalType": "uint256",
					"name": "",
					"type": "uint256"
				}
			],
			"name": "buyOrderPricings",
			"outputs": [
				{
					"internalType": "uint256",
					"name": "maxPrice",
					"type": "uint256"
				},
				{
					"internalType": "uint256",
					"name": "minPrice",
					"type": "uint256"
				}
			],
			"stateMutability": "view",
			"type": "function"
		},
		{
			"inputs": [],
			"name": "decimalsA",
			"outputs": [
				{
					"internalType": "uint8",
					"name": "",
					"type": "uint8"
				}
			],
			"stateMutability": "view",
			"type": "function"
		},
		{
			"inputs": [],
			"name": "decimalsB",
			"outputs": [
				{
					"internalType": "uint8",
					"name": "",
					"type": "uint8"
				}
			],
			"stateMutability": "view",
			"type": "function"
		},
		{
			"inputs": [
				{
					"internalType": "uint256",
					"name": "orderId",
					"type": "uint256"
				}
			],
			"name": "getBuyOrderAmounts",
			"outputs": [
				{
					"internalType": "uint256",
					"name": "pending",
					"type": "uint256"
				},
				{
					"internalType": "uint256",
					"name": "filled",
					"type": "uint256"
				}
			],
			"stateMutability": "view",
			"type": "function"
		},
		{
			"inputs": [
				{
					"internalType": "uint256",
					"name": "orderId",
					"type": "uint256"
				}
			],
			"name": "getBuyOrderCore",
			"outputs": [
				{
					"internalType": "address",
					"name": "makerAddress",
					"type": "address"
				},
				{
					"internalType": "address",
					"name": "recipientAddress",
					"type": "address"
				},
				{
					"internalType": "uint8",
					"name": "status",
					"type": "uint8"
				}
			],
			"stateMutability": "view",
			"type": "function"
		},
		{
			"inputs": [
				{
					"internalType": "uint256",
					"name": "orderId",
					"type": "uint256"
				}
			],
			"name": "getBuyOrderPricing",
			"outputs": [
				{
					"internalType": "uint256",
					"name": "maxPrice",
					"type": "uint256"
				},
				{
					"internalType": "uint256",
					"name": "minPrice",
					"type": "uint256"
				}
			],
			"stateMutability": "view",
			"type": "function"
		},
		{
			"inputs": [
				{
					"internalType": "uint256",
					"name": "targetTimestamp",
					"type": "uint256"
				}
			],
			"name": "getHistoricalDataByNearestTimestamp",
			"outputs": [
				{
					"components": [
						{
							"internalType": "uint256",
							"name": "price",
							"type": "uint256"
						},
						{
							"internalType": "uint256",
							"name": "xBalance",
							"type": "uint256"
						},
						{
							"internalType": "uint256",
							"name": "yBalance",
							"type": "uint256"
						},
						{
							"internalType": "uint256",
							"name": "xVolume",
							"type": "uint256"
						},
						{
							"internalType": "uint256",
							"name": "yVolume",
							"type": "uint256"
						},
						{
							"internalType": "uint256",
							"name": "timestamp",
							"type": "uint256"
						}
					],
					"internalType": "struct SSListingTemplate.HistoricalData",
					"name": "",
					"type": "tuple"
				}
			],
			"stateMutability": "view",
			"type": "function"
		},
		{
			"inputs": [
				{
					"internalType": "uint256",
					"name": "index",
					"type": "uint256"
				}
			],
			"name": "getHistoricalDataView",
			"outputs": [
				{
					"components": [
						{
							"internalType": "uint256",
							"name": "price",
							"type": "uint256"
						},
						{
							"internalType": "uint256",
							"name": "xBalance",
							"type": "uint256"
						},
						{
							"internalType": "uint256",
							"name": "yBalance",
							"type": "uint256"
						},
						{
							"internalType": "uint256",
							"name": "xVolume",
							"type": "uint256"
						},
						{
							"internalType": "uint256",
							"name": "yVolume",
							"type": "uint256"
						},
						{
							"internalType": "uint256",
							"name": "timestamp",
							"type": "uint256"
						}
					],
					"internalType": "struct SSListingTemplate.HistoricalData",
					"name": "",
					"type": "tuple"
				}
			],
			"stateMutability": "view",
			"type": "function"
		},
		{
			"inputs": [],
			"name": "getListingId",
			"outputs": [
				{
					"internalType": "uint256",
					"name": "",
					"type": "uint256"
				}
			],
			"stateMutability": "view",
			"type": "function"
		},
		{
			"inputs": [
				{
					"internalType": "uint256",
					"name": "orderId",
					"type": "uint256"
				}
			],
			"name": "getLongPayout",
			"outputs": [
				{
					"components": [
						{
							"internalType": "address",
							"name": "makerAddress",
							"type": "address"
						},
						{
							"internalType": "address",
							"name": "recipientAddress",
							"type": "address"
						},
						{
							"internalType": "uint256",
							"name": "required",
							"type": "uint256"
						},
						{
							"internalType": "uint256",
							"name": "filled",
							"type": "uint256"
						},
						{
							"internalType": "uint256",
							"name": "orderId",
							"type": "uint256"
						},
						{
							"internalType": "uint8",
							"name": "status",
							"type": "uint8"
						}
					],
					"internalType": "struct SSListingTemplate.LongPayoutStruct",
					"name": "",
					"type": "tuple"
				}
			],
			"stateMutability": "view",
			"type": "function"
		},
		{
			"inputs": [],
			"name": "getNextOrderId",
			"outputs": [
				{
					"internalType": "uint256",
					"name": "",
					"type": "uint256"
				}
			],
			"stateMutability": "view",
			"type": "function"
		},
		{
			"inputs": [
				{
					"internalType": "uint256",
					"name": "orderId",
					"type": "uint256"
				}
			],
			"name": "getSellOrderAmounts",
			"outputs": [
				{
					"internalType": "uint256",
					"name": "pending",
					"type": "uint256"
				},
				{
					"internalType": "uint256",
					"name": "filled",
					"type": "uint256"
				}
			],
			"stateMutability": "view",
			"type": "function"
		},
		{
			"inputs": [
				{
					"internalType": "uint256",
					"name": "orderId",
					"type": "uint256"
				}
			],
			"name": "getSellOrderCore",
			"outputs": [
				{
					"internalType": "address",
					"name": "makerAddress",
					"type": "address"
				},
				{
					"internalType": "address",
					"name": "recipientAddress",
					"type": "address"
				},
				{
					"internalType": "uint8",
					"name": "status",
					"type": "uint8"
				}
			],
			"stateMutability": "view",
			"type": "function"
		},
		{
			"inputs": [
				{
					"internalType": "uint256",
					"name": "orderId",
					"type": "uint256"
				}
			],
			"name": "getSellOrderPricing",
			"outputs": [
				{
					"internalType": "uint256",
					"name": "maxPrice",
					"type": "uint256"
				},
				{
					"internalType": "uint256",
					"name": "minPrice",
					"type": "uint256"
				}
			],
			"stateMutability": "view",
			"type": "function"
		},
		{
			"inputs": [
				{
					"internalType": "uint256",
					"name": "orderId",
					"type": "uint256"
				}
			],
			"name": "getShortPayout",
			"outputs": [
				{
					"components": [
						{
							"internalType": "address",
							"name": "makerAddress",
							"type": "address"
						},
						{
							"internalType": "address",
							"name": "recipientAddress",
							"type": "address"
						},
						{
							"internalType": "uint256",
							"name": "amount",
							"type": "uint256"
						},
						{
							"internalType": "uint256",
							"name": "filled",
							"type": "uint256"
						},
						{
							"internalType": "uint256",
							"name": "orderId",
							"type": "uint256"
						},
						{
							"internalType": "uint8",
							"name": "status",
							"type": "uint8"
						}
					],
					"internalType": "struct SSListingTemplate.ShortPayoutStruct",
					"name": "",
					"type": "tuple"
				}
			],
			"stateMutability": "view",
			"type": "function"
		},
		{
			"inputs": [
				{
					"internalType": "uint256",
					"name": "",
					"type": "uint256"
				}
			],
			"name": "historicalData",
			"outputs": [
				{
					"internalType": "uint256",
					"name": "price",
					"type": "uint256"
				},
				{
					"internalType": "uint256",
					"name": "xBalance",
					"type": "uint256"
				},
				{
					"internalType": "uint256",
					"name": "yBalance",
					"type": "uint256"
				},
				{
					"internalType": "uint256",
					"name": "xVolume",
					"type": "uint256"
				},
				{
					"internalType": "uint256",
					"name": "yVolume",
					"type": "uint256"
				},
				{
					"internalType": "uint256",
					"name": "timestamp",
					"type": "uint256"
				}
			],
			"stateMutability": "view",
			"type": "function"
		},
		{
			"inputs": [],
			"name": "historicalDataLengthView",
			"outputs": [
				{
					"internalType": "uint256",
					"name": "",
					"type": "uint256"
				}
			],
			"stateMutability": "view",
			"type": "function"
		},
		{
			"inputs": [],
			"name": "lastDayFee",
			"outputs": [
				{
					"internalType": "uint256",
					"name": "xFees",
					"type": "uint256"
				},
				{
					"internalType": "uint256",
					"name": "yFees",
					"type": "uint256"
				},
				{
					"internalType": "uint256",
					"name": "timestamp",
					"type": "uint256"
				}
			],
			"stateMutability": "view",
			"type": "function"
		},
		{
			"inputs": [],
			"name": "liquidityAddress",
			"outputs": [
				{
					"internalType": "address",
					"name": "",
					"type": "address"
				}
			],
			"stateMutability": "view",
			"type": "function"
		},
		{
			"inputs": [
				{
					"internalType": "uint256",
					"name": "",
					"type": "uint256"
				}
			],
			"name": "liquidityAddressView",
			"outputs": [
				{
					"internalType": "address",
					"name": "",
					"type": "address"
				}
			],
			"stateMutability": "view",
			"type": "function"
		},
		{
			"inputs": [],
			"name": "listingId",
			"outputs": [
				{
					"internalType": "uint256",
					"name": "",
					"type": "uint256"
				}
			],
			"stateMutability": "view",
			"type": "function"
		},
		{
			"inputs": [],
			"name": "listingPriceView",
			"outputs": [
				{
					"internalType": "uint256",
					"name": "",
					"type": "uint256"
				}
			],
			"stateMutability": "view",
			"type": "function"
		},
		{
			"inputs": [],
			"name": "listingVolumeBalancesView",
			"outputs": [
				{
					"internalType": "uint256",
					"name": "xBalance",
					"type": "uint256"
				},
				{
					"internalType": "uint256",
					"name": "yBalance",
					"type": "uint256"
				},
				{
					"internalType": "uint256",
					"name": "xVolume",
					"type": "uint256"
				},
				{
					"internalType": "uint256",
					"name": "yVolume",
					"type": "uint256"
				}
			],
			"stateMutability": "view",
			"type": "function"
		},
		{
			"inputs": [],
			"name": "longPayoutByIndexView",
			"outputs": [
				{
					"internalType": "uint256[]",
					"name": "",
					"type": "uint256[]"
				}
			],
			"stateMutability": "view",
			"type": "function"
		},
		{
			"inputs": [
				{
					"internalType": "uint256",
					"name": "",
					"type": "uint256"
				}
			],
			"name": "longPayouts",
			"outputs": [
				{
					"internalType": "address",
					"name": "makerAddress",
					"type": "address"
				},
				{
					"internalType": "address",
					"name": "recipientAddress",
					"type": "address"
				},
				{
					"internalType": "uint256",
					"name": "required",
					"type": "uint256"
				},
				{
					"internalType": "uint256",
					"name": "filled",
					"type": "uint256"
				},
				{
					"internalType": "uint256",
					"name": "orderId",
					"type": "uint256"
				},
				{
					"internalType": "uint8",
					"name": "status",
					"type": "uint8"
				}
			],
			"stateMutability": "view",
			"type": "function"
		},
		{
			"inputs": [
				{
					"internalType": "uint256",
					"name": "",
					"type": "uint256"
				}
			],
			"name": "longPayoutsByIndex",
			"outputs": [
				{
					"internalType": "uint256",
					"name": "",
					"type": "uint256"
				}
			],
			"stateMutability": "view",
			"type": "function"
		},
		{
			"inputs": [
				{
					"internalType": "address",
					"name": "",
					"type": "address"
				},
				{
					"internalType": "uint256",
					"name": "",
					"type": "uint256"
				}
			],
			"name": "makerPendingOrders",
			"outputs": [
				{
					"internalType": "uint256",
					"name": "",
					"type": "uint256"
				}
			],
			"stateMutability": "view",
			"type": "function"
		},
		{
			"inputs": [
				{
					"internalType": "address",
					"name": "maker",
					"type": "address"
				}
			],
			"name": "makerPendingOrdersView",
			"outputs": [
				{
					"internalType": "uint256[]",
					"name": "",
					"type": "uint256[]"
				}
			],
			"stateMutability": "view",
			"type": "function"
		},
		{
			"inputs": [],
			"name": "nextOrderId",
			"outputs": [
				{
					"internalType": "uint256",
					"name": "",
					"type": "uint256"
				}
			],
			"stateMutability": "view",
			"type": "function"
		},
		{
			"inputs": [
				{
					"internalType": "uint256",
					"name": "",
					"type": "uint256"
				}
			],
			"name": "pendingBuyOrders",
			"outputs": [
				{
					"internalType": "uint256",
					"name": "",
					"type": "uint256"
				}
			],
			"stateMutability": "view",
			"type": "function"
		},
		{
			"inputs": [],
			"name": "pendingBuyOrdersView",
			"outputs": [
				{
					"internalType": "uint256[]",
					"name": "",
					"type": "uint256[]"
				}
			],
			"stateMutability": "view",
			"type": "function"
		},
		{
			"inputs": [
				{
					"internalType": "uint256",
					"name": "",
					"type": "uint256"
				}
			],
			"name": "pendingSellOrders",
			"outputs": [
				{
					"internalType": "uint256",
					"name": "",
					"type": "uint256"
				}
			],
			"stateMutability": "view",
			"type": "function"
		},
		{
			"inputs": [],
			"name": "pendingSellOrdersView",
			"outputs": [
				{
					"internalType": "uint256[]",
					"name": "",
					"type": "uint256[]"
				}
			],
			"stateMutability": "view",
			"type": "function"
		},
		{
			"inputs": [],
			"name": "price",
			"outputs": [
				{
					"internalType": "uint256",
					"name": "",
					"type": "uint256"
				}
			],
			"stateMutability": "view",
			"type": "function"
		},
		{
			"inputs": [
				{
					"internalType": "uint256",
					"name": "",
					"type": "uint256"
				}
			],
			"name": "prices",
			"outputs": [
				{
					"internalType": "uint256",
					"name": "",
					"type": "uint256"
				}
			],
			"stateMutability": "view",
			"type": "function"
		},
		{
			"inputs": [
				{
					"internalType": "bool",
					"name": "isA",
					"type": "bool"
				},
				{
					"internalType": "uint256",
					"name": "maxIterations",
					"type": "uint256"
				}
			],
			"name": "queryYield",
			"outputs": [
				{
					"internalType": "uint256",
					"name": "",
					"type": "uint256"
				}
			],
			"stateMutability": "view",
			"type": "function"
		},
		{
			"inputs": [],
			"name": "registryAddress",
			"outputs": [
				{
					"internalType": "address",
					"name": "",
					"type": "address"
				}
			],
			"stateMutability": "view",
			"type": "function"
		},
		{
			"inputs": [
				{
					"internalType": "address",
					"name": "",
					"type": "address"
				}
			],
			"name": "routers",
			"outputs": [
				{
					"internalType": "bool",
					"name": "",
					"type": "bool"
				}
			],
			"stateMutability": "view",
			"type": "function"
		},
		{
			"inputs": [],
			"name": "routersSet",
			"outputs": [
				{
					"internalType": "bool",
					"name": "",
					"type": "bool"
				}
			],
			"stateMutability": "view",
			"type": "function"
		},
		{
			"inputs": [
				{
					"internalType": "uint256",
					"name": "",
					"type": "uint256"
				}
			],
			"name": "sellOrderAmounts",
			"outputs": [
				{
					"internalType": "uint256",
					"name": "pending",
					"type": "uint256"
				},
				{
					"internalType": "uint256",
					"name": "filled",
					"type": "uint256"
				}
			],
			"stateMutability": "view",
			"type": "function"
		},
		{
			"inputs": [
				{
					"internalType": "uint256",
					"name": "",
					"type": "uint256"
				}
			],
			"name": "sellOrderCores",
			"outputs": [
				{
					"internalType": "address",
					"name": "makerAddress",
					"type": "address"
				},
				{
					"internalType": "address",
					"name": "recipientAddress",
					"type": "address"
				},
				{
					"internalType": "uint8",
					"name": "status",
					"type": "uint8"
				}
			],
			"stateMutability": "view",
			"type": "function"
		},
		{
			"inputs": [
				{
					"internalType": "uint256",
					"name": "",
					"type": "uint256"
				}
			],
			"name": "sellOrderPricings",
			"outputs": [
				{
					"internalType": "uint256",
					"name": "maxPrice",
					"type": "uint256"
				},
				{
					"internalType": "uint256",
					"name": "minPrice",
					"type": "uint256"
				}
			],
			"stateMutability": "view",
			"type": "function"
		},
		{
			"inputs": [
				{
					"internalType": "address",
					"name": "_agent",
					"type": "address"
				}
			],
			"name": "setAgent",
			"outputs": [],
			"stateMutability": "nonpayable",
			"type": "function"
		},
		{
			"inputs": [
				{
					"internalType": "address",
					"name": "_liquidityAddress",
					"type": "address"
				}
			],
			"name": "setLiquidityAddress",
			"outputs": [],
			"stateMutability": "nonpayable",
			"type": "function"
		},
		{
			"inputs": [
				{
					"internalType": "uint256",
					"name": "_listingId",
					"type": "uint256"
				}
			],
			"name": "setListingId",
			"outputs": [],
			"stateMutability": "nonpayable",
			"type": "function"
		},
		{
			"inputs": [
				{
					"internalType": "address",
					"name": "_registryAddress",
					"type": "address"
				}
			],
			"name": "setRegistry",
			"outputs": [],
			"stateMutability": "nonpayable",
			"type": "function"
		},
		{
			"inputs": [
				{
					"internalType": "address[]",
					"name": "_routers",
					"type": "address[]"
				}
			],
			"name": "setRouters",
			"outputs": [],
			"stateMutability": "nonpayable",
			"type": "function"
		},
		{
			"inputs": [
				{
					"internalType": "address",
					"name": "_tokenA",
					"type": "address"
				},
				{
					"internalType": "address",
					"name": "_tokenB",
					"type": "address"
				}
			],
			"name": "setTokens",
			"outputs": [],
			"stateMutability": "nonpayable",
			"type": "function"
		},
		{
			"inputs": [],
			"name": "shortPayoutByIndexView",
			"outputs": [
				{
					"internalType": "uint256[]",
					"name": "",
					"type": "uint256[]"
				}
			],
			"stateMutability": "view",
			"type": "function"
		},
		{
			"inputs": [
				{
					"internalType": "uint256",
					"name": "",
					"type": "uint256"
				}
			],
			"name": "shortPayouts",
			"outputs": [
				{
					"internalType": "address",
					"name": "makerAddress",
					"type": "address"
				},
				{
					"internalType": "address",
					"name": "recipientAddress",
					"type": "address"
				},
				{
					"internalType": "uint256",
					"name": "amount",
					"type": "uint256"
				},
				{
					"internalType": "uint256",
					"name": "filled",
					"type": "uint256"
				},
				{
					"internalType": "uint256",
					"name": "orderId",
					"type": "uint256"
				},
				{
					"internalType": "uint8",
					"name": "status",
					"type": "uint8"
				}
			],
			"stateMutability": "view",
			"type": "function"
		},
		{
			"inputs": [
				{
					"internalType": "uint256",
					"name": "",
					"type": "uint256"
				}
			],
			"name": "shortPayoutsByIndex",
			"outputs": [
				{
					"internalType": "uint256",
					"name": "",
					"type": "uint256"
				}
			],
			"stateMutability": "view",
			"type": "function"
		},
		{
			"inputs": [
				{
					"internalType": "address",
					"name": "caller",
					"type": "address"
				},
				{
					"components": [
						{
							"internalType": "uint8",
							"name": "payoutType",
							"type": "uint8"
						},
						{
							"internalType": "address",
							"name": "recipient",
							"type": "address"
						},
						{
							"internalType": "uint256",
							"name": "required",
							"type": "uint256"
						}
					],
					"internalType": "struct SSListingTemplate.PayoutUpdate[]",
					"name": "payoutUpdates",
					"type": "tuple[]"
				}
			],
			"name": "ssUpdate",
			"outputs": [],
			"stateMutability": "nonpayable",
			"type": "function"
		},
		{
			"inputs": [],
			"name": "tokenA",
			"outputs": [
				{
					"internalType": "address",
					"name": "",
					"type": "address"
				}
			],
			"stateMutability": "view",
			"type": "function"
		},
		{
			"inputs": [],
			"name": "tokenB",
			"outputs": [
				{
					"internalType": "address",
					"name": "",
					"type": "address"
				}
			],
			"stateMutability": "view",
			"type": "function"
		},
		{
			"inputs": [
				{
					"internalType": "address",
					"name": "caller",
					"type": "address"
				},
				{
					"internalType": "address",
					"name": "token",
					"type": "address"
				},
				{
					"internalType": "uint256",
					"name": "amount",
					"type": "uint256"
				},
				{
					"internalType": "address",
					"name": "recipient",
					"type": "address"
				}
			],
			"name": "transact",
			"outputs": [],
			"stateMutability": "nonpayable",
			"type": "function"
		},
		{
			"inputs": [
				{
					"internalType": "address",
					"name": "caller",
					"type": "address"
				},
				{
					"components": [
						{
							"internalType": "uint8",
							"name": "updateType",
							"type": "uint8"
						},
						{
							"internalType": "uint8",
							"name": "structId",
							"type": "uint8"
						},
						{
							"internalType": "uint256",
							"name": "index",
							"type": "uint256"
						},
						{
							"internalType": "uint256",
							"name": "value",
							"type": "uint256"
						},
						{
							"internalType": "address",
							"name": "addr",
							"type": "address"
						},
						{
							"internalType": "address",
							"name": "recipient",
							"type": "address"
						},
						{
							"internalType": "uint256",
							"name": "maxPrice",
							"type": "uint256"
						},
						{
							"internalType": "uint256",
							"name": "minPrice",
							"type": "uint256"
						}
					],
					"internalType": "struct SSListingTemplate.UpdateType[]",
					"name": "updates",
					"type": "tuple[]"
				}
			],
			"name": "update",
			"outputs": [],
			"stateMutability": "nonpayable",
			"type": "function"
		},
		{
			"inputs": [
				{
					"internalType": "address",
					"name": "",
					"type": "address"
				},
				{
					"internalType": "uint256",
					"name": "",
					"type": "uint256"
				}
			],
			"name": "userPayoutIDs",
			"outputs": [
				{
					"internalType": "uint256",
					"name": "",
					"type": "uint256"
				}
			],
			"stateMutability": "view",
			"type": "function"
		},
		{
			"inputs": [
				{
					"internalType": "address",
					"name": "user",
					"type": "address"
				}
			],
			"name": "userPayoutIDsView",
			"outputs": [
				{
					"internalType": "uint256[]",
					"name": "",
					"type": "uint256[]"
				}
			],
			"stateMutability": "view",
			"type": "function"
		},
		{
			"inputs": [],
			"name": "volumeBalance",
			"outputs": [
				{
					"internalType": "uint256",
					"name": "xBalance",
					"type": "uint256"
				},
				{
					"internalType": "uint256",
					"name": "yBalance",
					"type": "uint256"
				},
				{
					"internalType": "uint256",
					"name": "xVolume",
					"type": "uint256"
				},
				{
					"internalType": "uint256",
					"name": "yVolume",
					"type": "uint256"
				}
			],
			"stateMutability": "view",
			"type": "function"
		},
		{
			"inputs": [
				{
					"internalType": "uint256",
					"name": "",
					"type": "uint256"
				}
			],
			"name": "volumeBalances",
			"outputs": [
				{
					"internalType": "uint256",
					"name": "xBalance",
					"type": "uint256"
				},
				{
					"internalType": "uint256",
					"name": "yBalance",
					"type": "uint256"
				}
			],
			"stateMutability": "view",
			"type": "function"
		}
	]
}