{
	"data": {
		"bytecode": {
			"linkReferences": {},
			"object": "608060405234801561001057600080fd5b506001600d8190556000600e55600f5561177a8061002f6000396000f3fe608060405234801561001057600080fd5b506004361061014d5760003560e01c806397967408116100c3578063ddd793f01161007c578063ddd793f0146103db578063e53a438e146103fb578063f43111381461043c578063f478fdee1461045d578063f5ff5c76146104b4578063fa91454d146104c75761014d565b80639796740814610335578063a20baee614610387578063ad565fca14610396578063affed0e0146103b6578063ba7687cb146103bf578063d5db0057146103c85761014d565b806364848ea41161011557806364848ea4146102065780636ab37d0f1461022657806379720d401461023957806380994f951461027e578063840b590b146102f35780638bab83b6146103065761014d565b8063093f7cab1461015257806312a2fa761461017857806316f8a111146101815780634389aea3146101a957806363cd5c7e146101bc575b600080fd5b6101656101603660046112d0565b6104da565b6040519081526020015b60405180910390f35b610165600f5481565b61019461018f366004611341565b610518565b6040805192835260208301919091520161016f565b6101656101b73660046112a7565b61081d565b6101eb6101ca3660046113ee565b60046020526000908152604090208054600182015460029092015490919083565b6040805193845260208401929092529082015260600161016f565b6101656102143660046113ee565b600b6020526000908152604090205481565b610165610234366004611479565b610942565b6102656102473660046113ee565b60026020526000908152604090205460ff8082169161010090041682565b60408051921515835260ff90911660208301520161016f565b6102c561028c3660046113ee565b600160208190526000918252604090912080549181015460028201546003909201546001600160a01b0393841693909116919060ff1684565b604080516001600160a01b0395861681529490931660208501529183015260ff16606082015260800161016f565b6101656103013660046112a7565b610973565b6101eb6103143660046113ee565b60066020526000908152604090208054600182015460029092015490919083565b6103686103433660046113ee565b60056020526000908152604090208054600182015460029092015460ff909116919083565b6040805160ff909416845260208401929092529082015260600161016f565b610165670de0b6b3a764000081565b6101656103a43660046113ee565b60096020526000908152604090205481565b610165600e5481565b610165600d5481565b6101656103d636600461141e565b610a73565b6101656103e93660046113ee565b600a6020526000908152604090205481565b6104246104093660046113ee565b600c602052600090815260409020546001600160a01b031681565b6040516001600160a01b03909116815260200161016f565b61044f61044a36600461138d565b610b6b565b60405161016f9291906114de565b61049461046b3660046113ee565b600360208190526000918252604090912080546001820154600283015492909301549092919084565b60408051948552602085019390935291830152606082015260800161016f565b600054610424906001600160a01b031681565b6101656104d536600461130e565b610f45565b6007602052826000526040600020602052816000526040600020818154811061050257600080fd5b9060005260206000200160009250925050505481565b60008060008451116105665760405162461bcd60e51b8152602060048201526012602482015271456d70747920707269636520737472696e6760701b60448201526064015b60405180910390fd5b6000836001600160a01b03166357cbf16c6040518163ffffffff1660e01b815260040160206040518083038186803b1580156105a157600080fd5b505afa1580156105b5573d6000803e3d6000fd5b505050506040513d601f19601f820116820180604052508101906105d9919061145d565b604051600360fc1b6020820152909150602101604051602081830303815290604052805190602001208560405160200161061391906114c2565b6040516020818303038152906040528051906020012014806106815750604051620302d360ec1b6020820152602301604051602081830303815290604052805190602001208560405160200161066991906114c2565b60405160208183030381529060405280519060200120145b156107215760405163bc31c1c160e01b81526001600160a01b038516600482018190529063bc31c1c19060240160206040518083038186803b1580156106c657600080fd5b505afa1580156106da573d6000803e3d6000fd5b505050506040513d601f19601f820116820180604052508101906106fe9190611406565b925082915061070d83826111a2565b925061071982826111a2565b915050610816565b60008061074787604051806040016040528060018152602001602d60f81b815250610b6b565b9150915061075482610f45565b94506000815111610765578461076e565b61076e81610f45565b9350600085116107b45760405162461bcd60e51b8152602060048201526011602482015270496e76616c6964206d696e20707269636560781b604482015260640161055d565b848410156107fa5760405162461bcd60e51b8152602060048201526013602482015272496e76616c69642070726963652072616e676560681b604482015260640161055d565b61080485846111a2565b945061081084846111a2565b93505050505b9250929050565b60006001600160a01b03831661085157670de0b6b3a76400006108408184611662565b61084a919061151b565b905061093c565b6000836001600160a01b031663313ce5676040518163ffffffff1660e01b815260040160206040518083038186803b15801561088c57600080fd5b505afa1580156108a0573d6000803e3d6000fd5b505050506040513d601f19601f820116820180604052508101906108c4919061145d565b905060128160ff1611156109115760405162461bcd60e51b8152602060048201526014602482015273556e737570706f7274656420646563696d616c7360601b604482015260640161055d565b61091c81600a611590565b61092e670de0b6b3a764000085611662565b610938919061151b565b9150505b92915050565b6008602052816000526040600020818154811061095e57600080fd5b90600052602060002001600091509150505481565b60006001600160a01b0383166109955761084a670de0b6b3a76400008361151b565b6000836001600160a01b031663313ce5676040518163ffffffff1660e01b815260040160206040518083038186803b1580156109d057600080fd5b505afa1580156109e4573d6000803e3d6000fd5b505050506040513d601f19601f82011682018060405250810190610a08919061145d565b905060128160ff161115610a555760405162461bcd60e51b8152602060048201526014602482015273556e737570706f7274656420646563696d616c7360601b604482015260640161055d565b670de0b6b3a7640000610a6982600a611590565b61092e9085611662565b600080836001600160a01b03166357cbf16c6040518163ffffffff1660e01b815260040160206040518083038186803b158015610aaf57600080fd5b505afa158015610ac3573d6000803e3d6000fd5b505050506040513d601f19601f82011682018060405250810190610ae7919061145d565b90508260ff168160ff161415610b005784915050610b64565b8260ff168160ff161015610b3b57610b1e60ff808316908516611681565b610b2990600a611581565b610b339086611662565b915050610b64565b610b4b60ff808516908316611681565b610b5690600a611581565b610b60908661151b565b9150505b9392505050565b6060806000845111610bae5760405162461bcd60e51b815260206004820152600c60248201526b456d70747920737472696e6760a01b604482015260640161055d565b604051602d60f81b60208201526021016040516020818303038152906040528051906020012083604051602001610be591906114c2565b6040516020818303038152906040528051906020012014610c3c5760405162461bcd60e51b815260206004820152601160248201527024b73b30b634b2103232b634b6b4ba32b960791b604482015260640161055d565b83518490849060005b82518451610c539190611681565b610c5e906001611503565b811015610d1d57600160005b8451811015610cfa57848181518110610c9357634e487b7160e01b600052603260045260246000fd5b01602001516001600160f81b03191686610cad8386611503565b81518110610ccb57634e487b7160e01b600052603260045260246000fd5b01602001516001600160f81b03191614610ce85760009150610cfa565b80610cf2816116eb565b915050610c6a565b508015610d0a5781925050610d1d565b5080610d15816116eb565b915050610c45565b508251811415610d4457866040518060200160405280600081525094509450505050610816565b60008167ffffffffffffffff811115610d6d57634e487b7160e01b600052604160045260246000fd5b6040519080825280601f01601f191660200182016040528015610d97576020820181803683370190505b50905060008351838651610dab9190611681565b610db59190611681565b67ffffffffffffffff811115610ddb57634e487b7160e01b600052604160045260246000fd5b6040519080825280601f01601f191660200182016040528015610e05576020820181803683370190505b50905060005b83811015610e8757858181518110610e3357634e487b7160e01b600052603260045260246000fd5b602001015160f81c60f81b838281518110610e5e57634e487b7160e01b600052603260045260246000fd5b60200101906001600160f81b031916908160001a90535080610e7f816116eb565b915050610e0b565b5060005b8451848751610e9a9190611681565b610ea49190611681565b811015610f36578581865186610eba9190611503565b610ec49190611503565b81518110610ee257634e487b7160e01b600052603260045260246000fd5b602001015160f81c60f81b828281518110610f0d57634e487b7160e01b600052603260045260246000fd5b60200101906001600160f81b031916908160001a90535080610f2e816116eb565b915050610e8b565b50909890975095505050505050565b80516000908290610f875760405162461bcd60e51b815260206004820152600c60248201526b456d70747920737472696e6760a01b604482015260640161055d565b6000806000805b845181101561115357848181518110610fb757634e487b7160e01b600052603260045260246000fd5b6020910101516001600160f81b031916601760f91b141561101d5782156110145760405162461bcd60e51b81526020600482015260116024820152704d756c7469706c6520646563696d616c7360781b604482015260640161055d565b60019250611141565b603060f81b85828151811061104257634e487b7160e01b600052603260045260246000fd5b01602001516001600160f81b031916108015906110915750603960f81b85828151811061107f57634e487b7160e01b600052603260045260246000fd5b01602001516001600160f81b03191611155b6110d15760405162461bcd60e51b815260206004820152601160248201527024b73b30b634b21031b430b930b1ba32b960791b604482015260640161055d565b82156110f257816110e1816116eb565b92505060128211156110f257611141565b603085828151811061111457634e487b7160e01b600052603260045260246000fd5b0160200151611126919060f81c611698565b60ff1661113485600a611662565b61113e9190611503565b93505b8061114b816116eb565b915050610f8e565b50811561118157611165816012611681565b61117090600a611581565b61117a9084611662565b9250611196565b611193670de0b6b3a764000084611662565b92505b5090925050505b919050565b60008160ff16601214156111b757508161093c565b60128260ff1610156111e6576111d160ff83166012611681565b6111dc90600a611581565b61084a9084611662565b6111f4601260ff8416611681565b6111ff90600a611581565b610b64908461151b565b80356001600160a01b038116811461119d57600080fd5b600082601f830112611230578081fd5b813567ffffffffffffffff8082111561124b5761124b61171c565b604051601f8301601f19908116603f011681019082821181831017156112735761127361171c565b8160405283815286602085880101111561128b578485fd5b8360208701602083013792830160200193909352509392505050565b600080604083850312156112b9578182fd5b6112c283611209565b946020939093013593505050565b6000806000606084860312156112e4578081fd5b6112ed84611209565b925060208401356112fd81611732565b929592945050506040919091013590565b60006020828403121561131f578081fd5b813567ffffffffffffffff811115611335578182fd5b61093884828501611220565b60008060408385031215611353578182fd5b823567ffffffffffffffff811115611369578283fd5b61137585828601611220565b92505061138460208401611209565b90509250929050565b6000806040838503121561139f578182fd5b823567ffffffffffffffff808211156113b6578384fd5b6113c286838701611220565b935060208501359150808211156113d7578283fd5b506113e485828601611220565b9150509250929050565b6000602082840312156113ff578081fd5b5035919050565b600060208284031215611417578081fd5b5051919050565b600080600060608486031215611432578283fd5b8335925061144260208501611209565b9150604084013561145281611732565b809150509250925092565b60006020828403121561146e578081fd5b8151610b6481611732565b6000806040838503121561148b578182fd5b82356112c281611732565b600081518084526114ae8160208601602086016116bb565b601f01601f19169290920160200192915050565b600082516114d48184602087016116bb565b9190910192915050565b6000604082526114f16040830185611496565b8281036020840152610b608185611496565b6000821982111561151657611516611706565b500190565b60008261153657634e487b7160e01b81526012600452602481fd5b500490565b80825b600180861161154d5750611578565b81870482111561155f5761155f611706565b8086161561156c57918102915b9490941c93800261153e565b94509492505050565b6000610b64600019848461159e565b6000610b6460001960ff8516845b6000826115ad57506001610b64565b816115ba57506000610b64565b81600181146115d057600281146115da57611607565b6001915050610b64565b60ff8411156115eb576115eb611706565b6001841b91508482111561160157611601611706565b50610b64565b5060208310610133831016604e8410600b841016171561163a575081810a8381111561163557611635611706565b610b64565b611647848484600161153b565b80860482111561165957611659611706565b02949350505050565b600081600019048311821515161561167c5761167c611706565b500290565b60008282101561169357611693611706565b500390565b600060ff821660ff8416808210156116b2576116b2611706565b90039392505050565b60005b838110156116d65781810151838201526020016116be565b838111156116e5576000848401525b50505050565b60006000198214156116ff576116ff611706565b5060010190565b634e487b7160e01b600052601160045260246000fd5b634e487b7160e01b600052604160045260246000fd5b60ff8116811461174157600080fd5b5056fea2646970667358221220666e9b8328b9242d5967d4560998ac5808025439127f58b26096b843af02cd5b64736f6c63430008020033",
			"opcodes": "PUSH1 0x80 PUSH1 0x40 MSTORE CALLVALUE DUP1 ISZERO PUSH2 0x10 JUMPI PUSH1 0x0 DUP1 REVERT JUMPDEST POP PUSH1 0x1 PUSH1 0xD DUP2 SWAP1 SSTORE PUSH1 0x0 PUSH1 0xE SSTORE PUSH1 0xF SSTORE PUSH2 0x177A DUP1 PUSH2 0x2F PUSH1 0x0 CODECOPY PUSH1 0x0 RETURN INVALID PUSH1 0x80 PUSH1 0x40 MSTORE CALLVALUE DUP1 ISZERO PUSH2 0x10 JUMPI PUSH1 0x0 DUP1 REVERT JUMPDEST POP PUSH1 0x4 CALLDATASIZE LT PUSH2 0x14D JUMPI PUSH1 0x0 CALLDATALOAD PUSH1 0xE0 SHR DUP1 PUSH4 0x97967408 GT PUSH2 0xC3 JUMPI DUP1 PUSH4 0xDDD793F0 GT PUSH2 0x7C JUMPI DUP1 PUSH4 0xDDD793F0 EQ PUSH2 0x3DB JUMPI DUP1 PUSH4 0xE53A438E EQ PUSH2 0x3FB JUMPI DUP1 PUSH4 0xF4311138 EQ PUSH2 0x43C JUMPI DUP1 PUSH4 0xF478FDEE EQ PUSH2 0x45D JUMPI DUP1 PUSH4 0xF5FF5C76 EQ PUSH2 0x4B4 JUMPI DUP1 PUSH4 0xFA91454D EQ PUSH2 0x4C7 JUMPI PUSH2 0x14D JUMP JUMPDEST DUP1 PUSH4 0x97967408 EQ PUSH2 0x335 JUMPI DUP1 PUSH4 0xA20BAEE6 EQ PUSH2 0x387 JUMPI DUP1 PUSH4 0xAD565FCA EQ PUSH2 0x396 JUMPI DUP1 PUSH4 0xAFFED0E0 EQ PUSH2 0x3B6 JUMPI DUP1 PUSH4 0xBA7687CB EQ PUSH2 0x3BF JUMPI DUP1 PUSH4 0xD5DB0057 EQ PUSH2 0x3C8 JUMPI PUSH2 0x14D JUMP JUMPDEST DUP1 PUSH4 0x64848EA4 GT PUSH2 0x115 JUMPI DUP1 PUSH4 0x64848EA4 EQ PUSH2 0x206 JUMPI DUP1 PUSH4 0x6AB37D0F EQ PUSH2 0x226 JUMPI DUP1 PUSH4 0x79720D40 EQ PUSH2 0x239 JUMPI DUP1 PUSH4 0x80994F95 EQ PUSH2 0x27E JUMPI DUP1 PUSH4 0x840B590B EQ PUSH2 0x2F3 JUMPI DUP1 PUSH4 0x8BAB83B6 EQ PUSH2 0x306 JUMPI PUSH2 0x14D JUMP JUMPDEST DUP1 PUSH4 0x93F7CAB EQ PUSH2 0x152 JUMPI DUP1 PUSH4 0x12A2FA76 EQ PUSH2 0x178 JUMPI DUP1 PUSH4 0x16F8A111 EQ PUSH2 0x181 JUMPI DUP1 PUSH4 0x4389AEA3 EQ PUSH2 0x1A9 JUMPI DUP1 PUSH4 0x63CD5C7E EQ PUSH2 0x1BC JUMPI JUMPDEST PUSH1 0x0 DUP1 REVERT JUMPDEST PUSH2 0x165 PUSH2 0x160 CALLDATASIZE PUSH1 0x4 PUSH2 0x12D0 JUMP JUMPDEST PUSH2 0x4DA JUMP JUMPDEST PUSH1 0x40 MLOAD SWAP1 DUP2 MSTORE PUSH1 0x20 ADD JUMPDEST PUSH1 0x40 MLOAD DUP1 SWAP2 SUB SWAP1 RETURN JUMPDEST PUSH2 0x165 PUSH1 0xF SLOAD DUP2 JUMP JUMPDEST PUSH2 0x194 PUSH2 0x18F CALLDATASIZE PUSH1 0x4 PUSH2 0x1341 JUMP JUMPDEST PUSH2 0x518 JUMP JUMPDEST PUSH1 0x40 DUP1 MLOAD SWAP3 DUP4 MSTORE PUSH1 0x20 DUP4 ADD SWAP2 SWAP1 SWAP2 MSTORE ADD PUSH2 0x16F JUMP JUMPDEST PUSH2 0x165 PUSH2 0x1B7 CALLDATASIZE PUSH1 0x4 PUSH2 0x12A7 JUMP JUMPDEST PUSH2 0x81D JUMP JUMPDEST PUSH2 0x1EB PUSH2 0x1CA CALLDATASIZE PUSH1 0x4 PUSH2 0x13EE JUMP JUMPDEST PUSH1 0x4 PUSH1 0x20 MSTORE PUSH1 0x0 SWAP1 DUP2 MSTORE PUSH1 0x40 SWAP1 KECCAK256 DUP1 SLOAD PUSH1 0x1 DUP3 ADD SLOAD PUSH1 0x2 SWAP1 SWAP3 ADD SLOAD SWAP1 SWAP2 SWAP1 DUP4 JUMP JUMPDEST PUSH1 0x40 DUP1 MLOAD SWAP4 DUP5 MSTORE PUSH1 0x20 DUP5 ADD SWAP3 SWAP1 SWAP3 MSTORE SWAP1 DUP3 ADD MSTORE PUSH1 0x60 ADD PUSH2 0x16F JUMP JUMPDEST PUSH2 0x165 PUSH2 0x214 CALLDATASIZE PUSH1 0x4 PUSH2 0x13EE JUMP JUMPDEST PUSH1 0xB PUSH1 0x20 MSTORE PUSH1 0x0 SWAP1 DUP2 MSTORE PUSH1 0x40 SWAP1 KECCAK256 SLOAD DUP2 JUMP JUMPDEST PUSH2 0x165 PUSH2 0x234 CALLDATASIZE PUSH1 0x4 PUSH2 0x1479 JUMP JUMPDEST PUSH2 0x942 JUMP JUMPDEST PUSH2 0x265 PUSH2 0x247 CALLDATASIZE PUSH1 0x4 PUSH2 0x13EE JUMP JUMPDEST PUSH1 0x2 PUSH1 0x20 MSTORE PUSH1 0x0 SWAP1 DUP2 MSTORE PUSH1 0x40 SWAP1 KECCAK256 SLOAD PUSH1 0xFF DUP1 DUP3 AND SWAP2 PUSH2 0x100 SWAP1 DIV AND DUP3 JUMP JUMPDEST PUSH1 0x40 DUP1 MLOAD SWAP3 ISZERO ISZERO DUP4 MSTORE PUSH1 0xFF SWAP1 SWAP2 AND PUSH1 0x20 DUP4 ADD MSTORE ADD PUSH2 0x16F JUMP JUMPDEST PUSH2 0x2C5 PUSH2 0x28C CALLDATASIZE PUSH1 0x4 PUSH2 0x13EE JUMP JUMPDEST PUSH1 0x1 PUSH1 0x20 DUP2 SWAP1 MSTORE PUSH1 0x0 SWAP2 DUP3 MSTORE PUSH1 0x40 SWAP1 SWAP2 KECCAK256 DUP1 SLOAD SWAP2 DUP2 ADD SLOAD PUSH1 0x2 DUP3 ADD SLOAD PUSH1 0x3 SWAP1 SWAP3 ADD SLOAD PUSH1 0x1 PUSH1 0x1 PUSH1 0xA0 SHL SUB SWAP4 DUP5 AND SWAP4 SWAP1 SWAP2 AND SWAP2 SWAP1 PUSH1 0xFF AND DUP5 JUMP JUMPDEST PUSH1 0x40 DUP1 MLOAD PUSH1 0x1 PUSH1 0x1 PUSH1 0xA0 SHL SUB SWAP6 DUP7 AND DUP2 MSTORE SWAP5 SWAP1 SWAP4 AND PUSH1 0x20 DUP6 ADD MSTORE SWAP2 DUP4 ADD MSTORE PUSH1 0xFF AND PUSH1 0x60 DUP3 ADD MSTORE PUSH1 0x80 ADD PUSH2 0x16F JUMP JUMPDEST PUSH2 0x165 PUSH2 0x301 CALLDATASIZE PUSH1 0x4 PUSH2 0x12A7 JUMP JUMPDEST PUSH2 0x973 JUMP JUMPDEST PUSH2 0x1EB PUSH2 0x314 CALLDATASIZE PUSH1 0x4 PUSH2 0x13EE JUMP JUMPDEST PUSH1 0x6 PUSH1 0x20 MSTORE PUSH1 0x0 SWAP1 DUP2 MSTORE PUSH1 0x40 SWAP1 KECCAK256 DUP1 SLOAD PUSH1 0x1 DUP3 ADD SLOAD PUSH1 0x2 SWAP1 SWAP3 ADD SLOAD SWAP1 SWAP2 SWAP1 DUP4 JUMP JUMPDEST PUSH2 0x368 PUSH2 0x343 CALLDATASIZE PUSH1 0x4 PUSH2 0x13EE JUMP JUMPDEST PUSH1 0x5 PUSH1 0x20 MSTORE PUSH1 0x0 SWAP1 DUP2 MSTORE PUSH1 0x40 SWAP1 KECCAK256 DUP1 SLOAD PUSH1 0x1 DUP3 ADD SLOAD PUSH1 0x2 SWAP1 SWAP3 ADD SLOAD PUSH1 0xFF SWAP1 SWAP2 AND SWAP2 SWAP1 DUP4 JUMP JUMPDEST PUSH1 0x40 DUP1 MLOAD PUSH1 0xFF SWAP1 SWAP5 AND DUP5 MSTORE PUSH1 0x20 DUP5 ADD SWAP3 SWAP1 SWAP3 MSTORE SWAP1 DUP3 ADD MSTORE PUSH1 0x60 ADD PUSH2 0x16F JUMP JUMPDEST PUSH2 0x165 PUSH8 0xDE0B6B3A7640000 DUP2 JUMP JUMPDEST PUSH2 0x165 PUSH2 0x3A4 CALLDATASIZE PUSH1 0x4 PUSH2 0x13EE JUMP JUMPDEST PUSH1 0x9 PUSH1 0x20 MSTORE PUSH1 0x0 SWAP1 DUP2 MSTORE PUSH1 0x40 SWAP1 KECCAK256 SLOAD DUP2 JUMP JUMPDEST PUSH2 0x165 PUSH1 0xE SLOAD DUP2 JUMP JUMPDEST PUSH2 0x165 PUSH1 0xD SLOAD DUP2 JUMP JUMPDEST PUSH2 0x165 PUSH2 0x3D6 CALLDATASIZE PUSH1 0x4 PUSH2 0x141E JUMP JUMPDEST PUSH2 0xA73 JUMP JUMPDEST PUSH2 0x165 PUSH2 0x3E9 CALLDATASIZE PUSH1 0x4 PUSH2 0x13EE JUMP JUMPDEST PUSH1 0xA PUSH1 0x20 MSTORE PUSH1 0x0 SWAP1 DUP2 MSTORE PUSH1 0x40 SWAP1 KECCAK256 SLOAD DUP2 JUMP JUMPDEST PUSH2 0x424 PUSH2 0x409 CALLDATASIZE PUSH1 0x4 PUSH2 0x13EE JUMP JUMPDEST PUSH1 0xC PUSH1 0x20 MSTORE PUSH1 0x0 SWAP1 DUP2 MSTORE PUSH1 0x40 SWAP1 KECCAK256 SLOAD PUSH1 0x1 PUSH1 0x1 PUSH1 0xA0 SHL SUB AND DUP2 JUMP JUMPDEST PUSH1 0x40 MLOAD PUSH1 0x1 PUSH1 0x1 PUSH1 0xA0 SHL SUB SWAP1 SWAP2 AND DUP2 MSTORE PUSH1 0x20 ADD PUSH2 0x16F JUMP JUMPDEST PUSH2 0x44F PUSH2 0x44A CALLDATASIZE PUSH1 0x4 PUSH2 0x138D JUMP JUMPDEST PUSH2 0xB6B JUMP JUMPDEST PUSH1 0x40 MLOAD PUSH2 0x16F SWAP3 SWAP2 SWAP1 PUSH2 0x14DE JUMP JUMPDEST PUSH2 0x494 PUSH2 0x46B CALLDATASIZE PUSH1 0x4 PUSH2 0x13EE JUMP JUMPDEST PUSH1 0x3 PUSH1 0x20 DUP2 SWAP1 MSTORE PUSH1 0x0 SWAP2 DUP3 MSTORE PUSH1 0x40 SWAP1 SWAP2 KECCAK256 DUP1 SLOAD PUSH1 0x1 DUP3 ADD SLOAD PUSH1 0x2 DUP4 ADD SLOAD SWAP3 SWAP1 SWAP4 ADD SLOAD SWAP1 SWAP3 SWAP2 SWAP1 DUP5 JUMP JUMPDEST PUSH1 0x40 DUP1 MLOAD SWAP5 DUP6 MSTORE PUSH1 0x20 DUP6 ADD SWAP4 SWAP1 SWAP4 MSTORE SWAP2 DUP4 ADD MSTORE PUSH1 0x60 DUP3 ADD MSTORE PUSH1 0x80 ADD PUSH2 0x16F JUMP JUMPDEST PUSH1 0x0 SLOAD PUSH2 0x424 SWAP1 PUSH1 0x1 PUSH1 0x1 PUSH1 0xA0 SHL SUB AND DUP2 JUMP JUMPDEST PUSH2 0x165 PUSH2 0x4D5 CALLDATASIZE PUSH1 0x4 PUSH2 0x130E JUMP JUMPDEST PUSH2 0xF45 JUMP JUMPDEST PUSH1 0x7 PUSH1 0x20 MSTORE DUP3 PUSH1 0x0 MSTORE PUSH1 0x40 PUSH1 0x0 KECCAK256 PUSH1 0x20 MSTORE DUP2 PUSH1 0x0 MSTORE PUSH1 0x40 PUSH1 0x0 KECCAK256 DUP2 DUP2 SLOAD DUP2 LT PUSH2 0x502 JUMPI PUSH1 0x0 DUP1 REVERT JUMPDEST SWAP1 PUSH1 0x0 MSTORE PUSH1 0x20 PUSH1 0x0 KECCAK256 ADD PUSH1 0x0 SWAP3 POP SWAP3 POP POP POP SLOAD DUP2 JUMP JUMPDEST PUSH1 0x0 DUP1 PUSH1 0x0 DUP5 MLOAD GT PUSH2 0x566 JUMPI PUSH1 0x40 MLOAD PUSH3 0x461BCD PUSH1 0xE5 SHL DUP2 MSTORE PUSH1 0x20 PUSH1 0x4 DUP3 ADD MSTORE PUSH1 0x12 PUSH1 0x24 DUP3 ADD MSTORE PUSH18 0x456D70747920707269636520737472696E67 PUSH1 0x70 SHL PUSH1 0x44 DUP3 ADD MSTORE PUSH1 0x64 ADD JUMPDEST PUSH1 0x40 MLOAD DUP1 SWAP2 SUB SWAP1 REVERT JUMPDEST PUSH1 0x0 DUP4 PUSH1 0x1 PUSH1 0x1 PUSH1 0xA0 SHL SUB AND PUSH4 0x57CBF16C PUSH1 0x40 MLOAD DUP2 PUSH4 0xFFFFFFFF AND PUSH1 0xE0 SHL DUP2 MSTORE PUSH1 0x4 ADD PUSH1 0x20 PUSH1 0x40 MLOAD DUP1 DUP4 SUB DUP2 DUP7 DUP1 EXTCODESIZE ISZERO DUP1 ISZERO PUSH2 0x5A1 JUMPI PUSH1 0x0 DUP1 REVERT JUMPDEST POP GAS STATICCALL ISZERO DUP1 ISZERO PUSH2 0x5B5 JUMPI RETURNDATASIZE PUSH1 0x0 DUP1 RETURNDATACOPY RETURNDATASIZE PUSH1 0x0 REVERT JUMPDEST POP POP POP POP PUSH1 0x40 MLOAD RETURNDATASIZE PUSH1 0x1F NOT PUSH1 0x1F DUP3 ADD AND DUP3 ADD DUP1 PUSH1 0x40 MSTORE POP DUP2 ADD SWAP1 PUSH2 0x5D9 SWAP2 SWAP1 PUSH2 0x145D JUMP JUMPDEST PUSH1 0x40 MLOAD PUSH1 0x3 PUSH1 0xFC SHL PUSH1 0x20 DUP3 ADD MSTORE SWAP1 SWAP2 POP PUSH1 0x21 ADD PUSH1 0x40 MLOAD PUSH1 0x20 DUP2 DUP4 SUB SUB DUP2 MSTORE SWAP1 PUSH1 0x40 MSTORE DUP1 MLOAD SWAP1 PUSH1 0x20 ADD KECCAK256 DUP6 PUSH1 0x40 MLOAD PUSH1 0x20 ADD PUSH2 0x613 SWAP2 SWAP1 PUSH2 0x14C2 JUMP JUMPDEST PUSH1 0x40 MLOAD PUSH1 0x20 DUP2 DUP4 SUB SUB DUP2 MSTORE SWAP1 PUSH1 0x40 MSTORE DUP1 MLOAD SWAP1 PUSH1 0x20 ADD KECCAK256 EQ DUP1 PUSH2 0x681 JUMPI POP PUSH1 0x40 MLOAD PUSH3 0x302D3 PUSH1 0xEC SHL PUSH1 0x20 DUP3 ADD MSTORE PUSH1 0x23 ADD PUSH1 0x40 MLOAD PUSH1 0x20 DUP2 DUP4 SUB SUB DUP2 MSTORE SWAP1 PUSH1 0x40 MSTORE DUP1 MLOAD SWAP1 PUSH1 0x20 ADD KECCAK256 DUP6 PUSH1 0x40 MLOAD PUSH1 0x20 ADD PUSH2 0x669 SWAP2 SWAP1 PUSH2 0x14C2 JUMP JUMPDEST PUSH1 0x40 MLOAD PUSH1 0x20 DUP2 DUP4 SUB SUB DUP2 MSTORE SWAP1 PUSH1 0x40 MSTORE DUP1 MLOAD SWAP1 PUSH1 0x20 ADD KECCAK256 EQ JUMPDEST ISZERO PUSH2 0x721 JUMPI PUSH1 0x40 MLOAD PUSH4 0xBC31C1C1 PUSH1 0xE0 SHL DUP2 MSTORE PUSH1 0x1 PUSH1 0x1 PUSH1 0xA0 SHL SUB DUP6 AND PUSH1 0x4 DUP3 ADD DUP2 SWAP1 MSTORE SWAP1 PUSH4 0xBC31C1C1 SWAP1 PUSH1 0x24 ADD PUSH1 0x20 PUSH1 0x40 MLOAD DUP1 DUP4 SUB DUP2 DUP7 DUP1 EXTCODESIZE ISZERO DUP1 ISZERO PUSH2 0x6C6 JUMPI PUSH1 0x0 DUP1 REVERT JUMPDEST POP GAS STATICCALL ISZERO DUP1 ISZERO PUSH2 0x6DA JUMPI RETURNDATASIZE PUSH1 0x0 DUP1 RETURNDATACOPY RETURNDATASIZE PUSH1 0x0 REVERT JUMPDEST POP POP POP POP PUSH1 0x40 MLOAD RETURNDATASIZE PUSH1 0x1F NOT PUSH1 0x1F DUP3 ADD AND DUP3 ADD DUP1 PUSH1 0x40 MSTORE POP DUP2 ADD SWAP1 PUSH2 0x6FE SWAP2 SWAP1 PUSH2 0x1406 JUMP JUMPDEST SWAP3 POP DUP3 SWAP2 POP PUSH2 0x70D DUP4 DUP3 PUSH2 0x11A2 JUMP JUMPDEST SWAP3 POP PUSH2 0x719 DUP3 DUP3 PUSH2 0x11A2 JUMP JUMPDEST SWAP2 POP POP PUSH2 0x816 JUMP JUMPDEST PUSH1 0x0 DUP1 PUSH2 0x747 DUP8 PUSH1 0x40 MLOAD DUP1 PUSH1 0x40 ADD PUSH1 0x40 MSTORE DUP1 PUSH1 0x1 DUP2 MSTORE PUSH1 0x20 ADD PUSH1 0x2D PUSH1 0xF8 SHL DUP2 MSTORE POP PUSH2 0xB6B JUMP JUMPDEST SWAP2 POP SWAP2 POP PUSH2 0x754 DUP3 PUSH2 0xF45 JUMP JUMPDEST SWAP5 POP PUSH1 0x0 DUP2 MLOAD GT PUSH2 0x765 JUMPI DUP5 PUSH2 0x76E JUMP JUMPDEST PUSH2 0x76E DUP2 PUSH2 0xF45 JUMP JUMPDEST SWAP4 POP PUSH1 0x0 DUP6 GT PUSH2 0x7B4 JUMPI PUSH1 0x40 MLOAD PUSH3 0x461BCD PUSH1 0xE5 SHL DUP2 MSTORE PUSH1 0x20 PUSH1 0x4 DUP3 ADD MSTORE PUSH1 0x11 PUSH1 0x24 DUP3 ADD MSTORE PUSH17 0x496E76616C6964206D696E207072696365 PUSH1 0x78 SHL PUSH1 0x44 DUP3 ADD MSTORE PUSH1 0x64 ADD PUSH2 0x55D JUMP JUMPDEST DUP5 DUP5 LT ISZERO PUSH2 0x7FA JUMPI PUSH1 0x40 MLOAD PUSH3 0x461BCD PUSH1 0xE5 SHL DUP2 MSTORE PUSH1 0x20 PUSH1 0x4 DUP3 ADD MSTORE PUSH1 0x13 PUSH1 0x24 DUP3 ADD MSTORE PUSH19 0x496E76616C69642070726963652072616E6765 PUSH1 0x68 SHL PUSH1 0x44 DUP3 ADD MSTORE PUSH1 0x64 ADD PUSH2 0x55D JUMP JUMPDEST PUSH2 0x804 DUP6 DUP5 PUSH2 0x11A2 JUMP JUMPDEST SWAP5 POP PUSH2 0x810 DUP5 DUP5 PUSH2 0x11A2 JUMP JUMPDEST SWAP4 POP POP POP POP JUMPDEST SWAP3 POP SWAP3 SWAP1 POP JUMP JUMPDEST PUSH1 0x0 PUSH1 0x1 PUSH1 0x1 PUSH1 0xA0 SHL SUB DUP4 AND PUSH2 0x851 JUMPI PUSH8 0xDE0B6B3A7640000 PUSH2 0x840 DUP2 DUP5 PUSH2 0x1662 JUMP JUMPDEST PUSH2 0x84A SWAP2 SWAP1 PUSH2 0x151B JUMP JUMPDEST SWAP1 POP PUSH2 0x93C JUMP JUMPDEST PUSH1 0x0 DUP4 PUSH1 0x1 PUSH1 0x1 PUSH1 0xA0 SHL SUB AND PUSH4 0x313CE567 PUSH1 0x40 MLOAD DUP2 PUSH4 0xFFFFFFFF AND PUSH1 0xE0 SHL DUP2 MSTORE PUSH1 0x4 ADD PUSH1 0x20 PUSH1 0x40 MLOAD DUP1 DUP4 SUB DUP2 DUP7 DUP1 EXTCODESIZE ISZERO DUP1 ISZERO PUSH2 0x88C JUMPI PUSH1 0x0 DUP1 REVERT JUMPDEST POP GAS STATICCALL ISZERO DUP1 ISZERO PUSH2 0x8A0 JUMPI RETURNDATASIZE PUSH1 0x0 DUP1 RETURNDATACOPY RETURNDATASIZE PUSH1 0x0 REVERT JUMPDEST POP POP POP POP PUSH1 0x40 MLOAD RETURNDATASIZE PUSH1 0x1F NOT PUSH1 0x1F DUP3 ADD AND DUP3 ADD DUP1 PUSH1 0x40 MSTORE POP DUP2 ADD SWAP1 PUSH2 0x8C4 SWAP2 SWAP1 PUSH2 0x145D JUMP JUMPDEST SWAP1 POP PUSH1 0x12 DUP2 PUSH1 0xFF AND GT ISZERO PUSH2 0x911 JUMPI PUSH1 0x40 MLOAD PUSH3 0x461BCD PUSH1 0xE5 SHL DUP2 MSTORE PUSH1 0x20 PUSH1 0x4 DUP3 ADD MSTORE PUSH1 0x14 PUSH1 0x24 DUP3 ADD MSTORE PUSH20 0x556E737570706F7274656420646563696D616C73 PUSH1 0x60 SHL PUSH1 0x44 DUP3 ADD MSTORE PUSH1 0x64 ADD PUSH2 0x55D JUMP JUMPDEST PUSH2 0x91C DUP2 PUSH1 0xA PUSH2 0x1590 JUMP JUMPDEST PUSH2 0x92E PUSH8 0xDE0B6B3A7640000 DUP6 PUSH2 0x1662 JUMP JUMPDEST PUSH2 0x938 SWAP2 SWAP1 PUSH2 0x151B JUMP JUMPDEST SWAP2 POP POP JUMPDEST SWAP3 SWAP2 POP POP JUMP JUMPDEST PUSH1 0x8 PUSH1 0x20 MSTORE DUP2 PUSH1 0x0 MSTORE PUSH1 0x40 PUSH1 0x0 KECCAK256 DUP2 DUP2 SLOAD DUP2 LT PUSH2 0x95E JUMPI PUSH1 0x0 DUP1 REVERT JUMPDEST SWAP1 PUSH1 0x0 MSTORE PUSH1 0x20 PUSH1 0x0 KECCAK256 ADD PUSH1 0x0 SWAP2 POP SWAP2 POP POP SLOAD DUP2 JUMP JUMPDEST PUSH1 0x0 PUSH1 0x1 PUSH1 0x1 PUSH1 0xA0 SHL SUB DUP4 AND PUSH2 0x995 JUMPI PUSH2 0x84A PUSH8 0xDE0B6B3A7640000 DUP4 PUSH2 0x151B JUMP JUMPDEST PUSH1 0x0 DUP4 PUSH1 0x1 PUSH1 0x1 PUSH1 0xA0 SHL SUB AND PUSH4 0x313CE567 PUSH1 0x40 MLOAD DUP2 PUSH4 0xFFFFFFFF AND PUSH1 0xE0 SHL DUP2 MSTORE PUSH1 0x4 ADD PUSH1 0x20 PUSH1 0x40 MLOAD DUP1 DUP4 SUB DUP2 DUP7 DUP1 EXTCODESIZE ISZERO DUP1 ISZERO PUSH2 0x9D0 JUMPI PUSH1 0x0 DUP1 REVERT JUMPDEST POP GAS STATICCALL ISZERO DUP1 ISZERO PUSH2 0x9E4 JUMPI RETURNDATASIZE PUSH1 0x0 DUP1 RETURNDATACOPY RETURNDATASIZE PUSH1 0x0 REVERT JUMPDEST POP POP POP POP PUSH1 0x40 MLOAD RETURNDATASIZE PUSH1 0x1F NOT PUSH1 0x1F DUP3 ADD AND DUP3 ADD DUP1 PUSH1 0x40 MSTORE POP DUP2 ADD SWAP1 PUSH2 0xA08 SWAP2 SWAP1 PUSH2 0x145D JUMP JUMPDEST SWAP1 POP PUSH1 0x12 DUP2 PUSH1 0xFF AND GT ISZERO PUSH2 0xA55 JUMPI PUSH1 0x40 MLOAD PUSH3 0x461BCD PUSH1 0xE5 SHL DUP2 MSTORE PUSH1 0x20 PUSH1 0x4 DUP3 ADD MSTORE PUSH1 0x14 PUSH1 0x24 DUP3 ADD MSTORE PUSH20 0x556E737570706F7274656420646563696D616C73 PUSH1 0x60 SHL PUSH1 0x44 DUP3 ADD MSTORE PUSH1 0x64 ADD PUSH2 0x55D JUMP JUMPDEST PUSH8 0xDE0B6B3A7640000 PUSH2 0xA69 DUP3 PUSH1 0xA PUSH2 0x1590 JUMP JUMPDEST PUSH2 0x92E SWAP1 DUP6 PUSH2 0x1662 JUMP JUMPDEST PUSH1 0x0 DUP1 DUP4 PUSH1 0x1 PUSH1 0x1 PUSH1 0xA0 SHL SUB AND PUSH4 0x57CBF16C PUSH1 0x40 MLOAD DUP2 PUSH4 0xFFFFFFFF AND PUSH1 0xE0 SHL DUP2 MSTORE PUSH1 0x4 ADD PUSH1 0x20 PUSH1 0x40 MLOAD DUP1 DUP4 SUB DUP2 DUP7 DUP1 EXTCODESIZE ISZERO DUP1 ISZERO PUSH2 0xAAF JUMPI PUSH1 0x0 DUP1 REVERT JUMPDEST POP GAS STATICCALL ISZERO DUP1 ISZERO PUSH2 0xAC3 JUMPI RETURNDATASIZE PUSH1 0x0 DUP1 RETURNDATACOPY RETURNDATASIZE PUSH1 0x0 REVERT JUMPDEST POP POP POP POP PUSH1 0x40 MLOAD RETURNDATASIZE PUSH1 0x1F NOT PUSH1 0x1F DUP3 ADD AND DUP3 ADD DUP1 PUSH1 0x40 MSTORE POP DUP2 ADD SWAP1 PUSH2 0xAE7 SWAP2 SWAP1 PUSH2 0x145D JUMP JUMPDEST SWAP1 POP DUP3 PUSH1 0xFF AND DUP2 PUSH1 0xFF AND EQ ISZERO PUSH2 0xB00 JUMPI DUP5 SWAP2 POP POP PUSH2 0xB64 JUMP JUMPDEST DUP3 PUSH1 0xFF AND DUP2 PUSH1 0xFF AND LT ISZERO PUSH2 0xB3B JUMPI PUSH2 0xB1E PUSH1 0xFF DUP1 DUP4 AND SWAP1 DUP6 AND PUSH2 0x1681 JUMP JUMPDEST PUSH2 0xB29 SWAP1 PUSH1 0xA PUSH2 0x1581 JUMP JUMPDEST PUSH2 0xB33 SWAP1 DUP7 PUSH2 0x1662 JUMP JUMPDEST SWAP2 POP POP PUSH2 0xB64 JUMP JUMPDEST PUSH2 0xB4B PUSH1 0xFF DUP1 DUP6 AND SWAP1 DUP4 AND PUSH2 0x1681 JUMP JUMPDEST PUSH2 0xB56 SWAP1 PUSH1 0xA PUSH2 0x1581 JUMP JUMPDEST PUSH2 0xB60 SWAP1 DUP7 PUSH2 0x151B JUMP JUMPDEST SWAP2 POP POP JUMPDEST SWAP4 SWAP3 POP POP POP JUMP JUMPDEST PUSH1 0x60 DUP1 PUSH1 0x0 DUP5 MLOAD GT PUSH2 0xBAE JUMPI PUSH1 0x40 MLOAD PUSH3 0x461BCD PUSH1 0xE5 SHL DUP2 MSTORE PUSH1 0x20 PUSH1 0x4 DUP3 ADD MSTORE PUSH1 0xC PUSH1 0x24 DUP3 ADD MSTORE PUSH12 0x456D70747920737472696E67 PUSH1 0xA0 SHL PUSH1 0x44 DUP3 ADD MSTORE PUSH1 0x64 ADD PUSH2 0x55D JUMP JUMPDEST PUSH1 0x40 MLOAD PUSH1 0x2D PUSH1 0xF8 SHL PUSH1 0x20 DUP3 ADD MSTORE PUSH1 0x21 ADD PUSH1 0x40 MLOAD PUSH1 0x20 DUP2 DUP4 SUB SUB DUP2 MSTORE SWAP1 PUSH1 0x40 MSTORE DUP1 MLOAD SWAP1 PUSH1 0x20 ADD KECCAK256 DUP4 PUSH1 0x40 MLOAD PUSH1 0x20 ADD PUSH2 0xBE5 SWAP2 SWAP1 PUSH2 0x14C2 JUMP JUMPDEST PUSH1 0x40 MLOAD PUSH1 0x20 DUP2 DUP4 SUB SUB DUP2 MSTORE SWAP1 PUSH1 0x40 MSTORE DUP1 MLOAD SWAP1 PUSH1 0x20 ADD KECCAK256 EQ PUSH2 0xC3C JUMPI PUSH1 0x40 MLOAD PUSH3 0x461BCD PUSH1 0xE5 SHL DUP2 MSTORE PUSH1 0x20 PUSH1 0x4 DUP3 ADD MSTORE PUSH1 0x11 PUSH1 0x24 DUP3 ADD MSTORE PUSH17 0x24B73B30B634B2103232B634B6B4BA32B9 PUSH1 0x79 SHL PUSH1 0x44 DUP3 ADD MSTORE PUSH1 0x64 ADD PUSH2 0x55D JUMP JUMPDEST DUP4 MLOAD DUP5 SWAP1 DUP5 SWAP1 PUSH1 0x0 JUMPDEST DUP3 MLOAD DUP5 MLOAD PUSH2 0xC53 SWAP2 SWAP1 PUSH2 0x1681 JUMP JUMPDEST PUSH2 0xC5E SWAP1 PUSH1 0x1 PUSH2 0x1503 JUMP JUMPDEST DUP2 LT ISZERO PUSH2 0xD1D JUMPI PUSH1 0x1 PUSH1 0x0 JUMPDEST DUP5 MLOAD DUP2 LT ISZERO PUSH2 0xCFA JUMPI DUP5 DUP2 DUP2 MLOAD DUP2 LT PUSH2 0xC93 JUMPI PUSH4 0x4E487B71 PUSH1 0xE0 SHL PUSH1 0x0 MSTORE PUSH1 0x32 PUSH1 0x4 MSTORE PUSH1 0x24 PUSH1 0x0 REVERT JUMPDEST ADD PUSH1 0x20 ADD MLOAD PUSH1 0x1 PUSH1 0x1 PUSH1 0xF8 SHL SUB NOT AND DUP7 PUSH2 0xCAD DUP4 DUP7 PUSH2 0x1503 JUMP JUMPDEST DUP2 MLOAD DUP2 LT PUSH2 0xCCB JUMPI PUSH4 0x4E487B71 PUSH1 0xE0 SHL PUSH1 0x0 MSTORE PUSH1 0x32 PUSH1 0x4 MSTORE PUSH1 0x24 PUSH1 0x0 REVERT JUMPDEST ADD PUSH1 0x20 ADD MLOAD PUSH1 0x1 PUSH1 0x1 PUSH1 0xF8 SHL SUB NOT AND EQ PUSH2 0xCE8 JUMPI PUSH1 0x0 SWAP2 POP PUSH2 0xCFA JUMP JUMPDEST DUP1 PUSH2 0xCF2 DUP2 PUSH2 0x16EB JUMP JUMPDEST SWAP2 POP POP PUSH2 0xC6A JUMP JUMPDEST POP DUP1 ISZERO PUSH2 0xD0A JUMPI DUP2 SWAP3 POP POP PUSH2 0xD1D JUMP JUMPDEST POP DUP1 PUSH2 0xD15 DUP2 PUSH2 0x16EB JUMP JUMPDEST SWAP2 POP POP PUSH2 0xC45 JUMP JUMPDEST POP DUP3 MLOAD DUP2 EQ ISZERO PUSH2 0xD44 JUMPI DUP7 PUSH1 0x40 MLOAD DUP1 PUSH1 0x20 ADD PUSH1 0x40 MSTORE DUP1 PUSH1 0x0 DUP2 MSTORE POP SWAP5 POP SWAP5 POP POP POP POP PUSH2 0x816 JUMP JUMPDEST PUSH1 0x0 DUP2 PUSH8 0xFFFFFFFFFFFFFFFF DUP2 GT ISZERO PUSH2 0xD6D JUMPI PUSH4 0x4E487B71 PUSH1 0xE0 SHL PUSH1 0x0 MSTORE PUSH1 0x41 PUSH1 0x4 MSTORE PUSH1 0x24 PUSH1 0x0 REVERT JUMPDEST PUSH1 0x40 MLOAD SWAP1 DUP1 DUP3 MSTORE DUP1 PUSH1 0x1F ADD PUSH1 0x1F NOT AND PUSH1 0x20 ADD DUP3 ADD PUSH1 0x40 MSTORE DUP1 ISZERO PUSH2 0xD97 JUMPI PUSH1 0x20 DUP3 ADD DUP2 DUP1 CALLDATASIZE DUP4 CALLDATACOPY ADD SWAP1 POP JUMPDEST POP SWAP1 POP PUSH1 0x0 DUP4 MLOAD DUP4 DUP7 MLOAD PUSH2 0xDAB SWAP2 SWAP1 PUSH2 0x1681 JUMP JUMPDEST PUSH2 0xDB5 SWAP2 SWAP1 PUSH2 0x1681 JUMP JUMPDEST PUSH8 0xFFFFFFFFFFFFFFFF DUP2 GT ISZERO PUSH2 0xDDB JUMPI PUSH4 0x4E487B71 PUSH1 0xE0 SHL PUSH1 0x0 MSTORE PUSH1 0x41 PUSH1 0x4 MSTORE PUSH1 0x24 PUSH1 0x0 REVERT JUMPDEST PUSH1 0x40 MLOAD SWAP1 DUP1 DUP3 MSTORE DUP1 PUSH1 0x1F ADD PUSH1 0x1F NOT AND PUSH1 0x20 ADD DUP3 ADD PUSH1 0x40 MSTORE DUP1 ISZERO PUSH2 0xE05 JUMPI PUSH1 0x20 DUP3 ADD DUP2 DUP1 CALLDATASIZE DUP4 CALLDATACOPY ADD SWAP1 POP JUMPDEST POP SWAP1 POP PUSH1 0x0 JUMPDEST DUP4 DUP2 LT ISZERO PUSH2 0xE87 JUMPI DUP6 DUP2 DUP2 MLOAD DUP2 LT PUSH2 0xE33 JUMPI PUSH4 0x4E487B71 PUSH1 0xE0 SHL PUSH1 0x0 MSTORE PUSH1 0x32 PUSH1 0x4 MSTORE PUSH1 0x24 PUSH1 0x0 REVERT JUMPDEST PUSH1 0x20 ADD ADD MLOAD PUSH1 0xF8 SHR PUSH1 0xF8 SHL DUP4 DUP3 DUP2 MLOAD DUP2 LT PUSH2 0xE5E JUMPI PUSH4 0x4E487B71 PUSH1 0xE0 SHL PUSH1 0x0 MSTORE PUSH1 0x32 PUSH1 0x4 MSTORE PUSH1 0x24 PUSH1 0x0 REVERT JUMPDEST PUSH1 0x20 ADD ADD SWAP1 PUSH1 0x1 PUSH1 0x1 PUSH1 0xF8 SHL SUB NOT AND SWAP1 DUP2 PUSH1 0x0 BYTE SWAP1 MSTORE8 POP DUP1 PUSH2 0xE7F DUP2 PUSH2 0x16EB JUMP JUMPDEST SWAP2 POP POP PUSH2 0xE0B JUMP JUMPDEST POP PUSH1 0x0 JUMPDEST DUP5 MLOAD DUP5 DUP8 MLOAD PUSH2 0xE9A SWAP2 SWAP1 PUSH2 0x1681 JUMP JUMPDEST PUSH2 0xEA4 SWAP2 SWAP1 PUSH2 0x1681 JUMP JUMPDEST DUP2 LT ISZERO PUSH2 0xF36 JUMPI DUP6 DUP2 DUP7 MLOAD DUP7 PUSH2 0xEBA SWAP2 SWAP1 PUSH2 0x1503 JUMP JUMPDEST PUSH2 0xEC4 SWAP2 SWAP1 PUSH2 0x1503 JUMP JUMPDEST DUP2 MLOAD DUP2 LT PUSH2 0xEE2 JUMPI PUSH4 0x4E487B71 PUSH1 0xE0 SHL PUSH1 0x0 MSTORE PUSH1 0x32 PUSH1 0x4 MSTORE PUSH1 0x24 PUSH1 0x0 REVERT JUMPDEST PUSH1 0x20 ADD ADD MLOAD PUSH1 0xF8 SHR PUSH1 0xF8 SHL DUP3 DUP3 DUP2 MLOAD DUP2 LT PUSH2 0xF0D JUMPI PUSH4 0x4E487B71 PUSH1 0xE0 SHL PUSH1 0x0 MSTORE PUSH1 0x32 PUSH1 0x4 MSTORE PUSH1 0x24 PUSH1 0x0 REVERT JUMPDEST PUSH1 0x20 ADD ADD SWAP1 PUSH1 0x1 PUSH1 0x1 PUSH1 0xF8 SHL SUB NOT AND SWAP1 DUP2 PUSH1 0x0 BYTE SWAP1 MSTORE8 POP DUP1 PUSH2 0xF2E DUP2 PUSH2 0x16EB JUMP JUMPDEST SWAP2 POP POP PUSH2 0xE8B JUMP JUMPDEST POP SWAP1 SWAP9 SWAP1 SWAP8 POP SWAP6 POP POP POP POP POP POP JUMP JUMPDEST DUP1 MLOAD PUSH1 0x0 SWAP1 DUP3 SWAP1 PUSH2 0xF87 JUMPI PUSH1 0x40 MLOAD PUSH3 0x461BCD PUSH1 0xE5 SHL DUP2 MSTORE PUSH1 0x20 PUSH1 0x4 DUP3 ADD MSTORE PUSH1 0xC PUSH1 0x24 DUP3 ADD MSTORE PUSH12 0x456D70747920737472696E67 PUSH1 0xA0 SHL PUSH1 0x44 DUP3 ADD MSTORE PUSH1 0x64 ADD PUSH2 0x55D JUMP JUMPDEST PUSH1 0x0 DUP1 PUSH1 0x0 DUP1 JUMPDEST DUP5 MLOAD DUP2 LT ISZERO PUSH2 0x1153 JUMPI DUP5 DUP2 DUP2 MLOAD DUP2 LT PUSH2 0xFB7 JUMPI PUSH4 0x4E487B71 PUSH1 0xE0 SHL PUSH1 0x0 MSTORE PUSH1 0x32 PUSH1 0x4 MSTORE PUSH1 0x24 PUSH1 0x0 REVERT JUMPDEST PUSH1 0x20 SWAP2 ADD ADD MLOAD PUSH1 0x1 PUSH1 0x1 PUSH1 0xF8 SHL SUB NOT AND PUSH1 0x17 PUSH1 0xF9 SHL EQ ISZERO PUSH2 0x101D JUMPI DUP3 ISZERO PUSH2 0x1014 JUMPI PUSH1 0x40 MLOAD PUSH3 0x461BCD PUSH1 0xE5 SHL DUP2 MSTORE PUSH1 0x20 PUSH1 0x4 DUP3 ADD MSTORE PUSH1 0x11 PUSH1 0x24 DUP3 ADD MSTORE PUSH17 0x4D756C7469706C6520646563696D616C73 PUSH1 0x78 SHL PUSH1 0x44 DUP3 ADD MSTORE PUSH1 0x64 ADD PUSH2 0x55D JUMP JUMPDEST PUSH1 0x1 SWAP3 POP PUSH2 0x1141 JUMP JUMPDEST PUSH1 0x30 PUSH1 0xF8 SHL DUP6 DUP3 DUP2 MLOAD DUP2 LT PUSH2 0x1042 JUMPI PUSH4 0x4E487B71 PUSH1 0xE0 SHL PUSH1 0x0 MSTORE PUSH1 0x32 PUSH1 0x4 MSTORE PUSH1 0x24 PUSH1 0x0 REVERT JUMPDEST ADD PUSH1 0x20 ADD MLOAD PUSH1 0x1 PUSH1 0x1 PUSH1 0xF8 SHL SUB NOT AND LT DUP1 ISZERO SWAP1 PUSH2 0x1091 JUMPI POP PUSH1 0x39 PUSH1 0xF8 SHL DUP6 DUP3 DUP2 MLOAD DUP2 LT PUSH2 0x107F JUMPI PUSH4 0x4E487B71 PUSH1 0xE0 SHL PUSH1 0x0 MSTORE PUSH1 0x32 PUSH1 0x4 MSTORE PUSH1 0x24 PUSH1 0x0 REVERT JUMPDEST ADD PUSH1 0x20 ADD MLOAD PUSH1 0x1 PUSH1 0x1 PUSH1 0xF8 SHL SUB NOT AND GT ISZERO JUMPDEST PUSH2 0x10D1 JUMPI PUSH1 0x40 MLOAD PUSH3 0x461BCD PUSH1 0xE5 SHL DUP2 MSTORE PUSH1 0x20 PUSH1 0x4 DUP3 ADD MSTORE PUSH1 0x11 PUSH1 0x24 DUP3 ADD MSTORE PUSH17 0x24B73B30B634B21031B430B930B1BA32B9 PUSH1 0x79 SHL PUSH1 0x44 DUP3 ADD MSTORE PUSH1 0x64 ADD PUSH2 0x55D JUMP JUMPDEST DUP3 ISZERO PUSH2 0x10F2 JUMPI DUP2 PUSH2 0x10E1 DUP2 PUSH2 0x16EB JUMP JUMPDEST SWAP3 POP POP PUSH1 0x12 DUP3 GT ISZERO PUSH2 0x10F2 JUMPI PUSH2 0x1141 JUMP JUMPDEST PUSH1 0x30 DUP6 DUP3 DUP2 MLOAD DUP2 LT PUSH2 0x1114 JUMPI PUSH4 0x4E487B71 PUSH1 0xE0 SHL PUSH1 0x0 MSTORE PUSH1 0x32 PUSH1 0x4 MSTORE PUSH1 0x24 PUSH1 0x0 REVERT JUMPDEST ADD PUSH1 0x20 ADD MLOAD PUSH2 0x1126 SWAP2 SWAP1 PUSH1 0xF8 SHR PUSH2 0x1698 JUMP JUMPDEST PUSH1 0xFF AND PUSH2 0x1134 DUP6 PUSH1 0xA PUSH2 0x1662 JUMP JUMPDEST PUSH2 0x113E SWAP2 SWAP1 PUSH2 0x1503 JUMP JUMPDEST SWAP4 POP JUMPDEST DUP1 PUSH2 0x114B DUP2 PUSH2 0x16EB JUMP JUMPDEST SWAP2 POP POP PUSH2 0xF8E JUMP JUMPDEST POP DUP2 ISZERO PUSH2 0x1181 JUMPI PUSH2 0x1165 DUP2 PUSH1 0x12 PUSH2 0x1681 JUMP JUMPDEST PUSH2 0x1170 SWAP1 PUSH1 0xA PUSH2 0x1581 JUMP JUMPDEST PUSH2 0x117A SWAP1 DUP5 PUSH2 0x1662 JUMP JUMPDEST SWAP3 POP PUSH2 0x1196 JUMP JUMPDEST PUSH2 0x1193 PUSH8 0xDE0B6B3A7640000 DUP5 PUSH2 0x1662 JUMP JUMPDEST SWAP3 POP JUMPDEST POP SWAP1 SWAP3 POP POP POP JUMPDEST SWAP2 SWAP1 POP JUMP JUMPDEST PUSH1 0x0 DUP2 PUSH1 0xFF AND PUSH1 0x12 EQ ISZERO PUSH2 0x11B7 JUMPI POP DUP2 PUSH2 0x93C JUMP JUMPDEST PUSH1 0x12 DUP3 PUSH1 0xFF AND LT ISZERO PUSH2 0x11E6 JUMPI PUSH2 0x11D1 PUSH1 0xFF DUP4 AND PUSH1 0x12 PUSH2 0x1681 JUMP JUMPDEST PUSH2 0x11DC SWAP1 PUSH1 0xA PUSH2 0x1581 JUMP JUMPDEST PUSH2 0x84A SWAP1 DUP5 PUSH2 0x1662 JUMP JUMPDEST PUSH2 0x11F4 PUSH1 0x12 PUSH1 0xFF DUP5 AND PUSH2 0x1681 JUMP JUMPDEST PUSH2 0x11FF SWAP1 PUSH1 0xA PUSH2 0x1581 JUMP JUMPDEST PUSH2 0xB64 SWAP1 DUP5 PUSH2 0x151B JUMP JUMPDEST DUP1 CALLDATALOAD PUSH1 0x1 PUSH1 0x1 PUSH1 0xA0 SHL SUB DUP2 AND DUP2 EQ PUSH2 0x119D JUMPI PUSH1 0x0 DUP1 REVERT JUMPDEST PUSH1 0x0 DUP3 PUSH1 0x1F DUP4 ADD SLT PUSH2 0x1230 JUMPI DUP1 DUP2 REVERT JUMPDEST DUP2 CALLDATALOAD PUSH8 0xFFFFFFFFFFFFFFFF DUP1 DUP3 GT ISZERO PUSH2 0x124B JUMPI PUSH2 0x124B PUSH2 0x171C JUMP JUMPDEST PUSH1 0x40 MLOAD PUSH1 0x1F DUP4 ADD PUSH1 0x1F NOT SWAP1 DUP2 AND PUSH1 0x3F ADD AND DUP2 ADD SWAP1 DUP3 DUP3 GT DUP2 DUP4 LT OR ISZERO PUSH2 0x1273 JUMPI PUSH2 0x1273 PUSH2 0x171C JUMP JUMPDEST DUP2 PUSH1 0x40 MSTORE DUP4 DUP2 MSTORE DUP7 PUSH1 0x20 DUP6 DUP9 ADD ADD GT ISZERO PUSH2 0x128B JUMPI DUP5 DUP6 REVERT JUMPDEST DUP4 PUSH1 0x20 DUP8 ADD PUSH1 0x20 DUP4 ADD CALLDATACOPY SWAP3 DUP4 ADD PUSH1 0x20 ADD SWAP4 SWAP1 SWAP4 MSTORE POP SWAP4 SWAP3 POP POP POP JUMP JUMPDEST PUSH1 0x0 DUP1 PUSH1 0x40 DUP4 DUP6 SUB SLT ISZERO PUSH2 0x12B9 JUMPI DUP2 DUP3 REVERT JUMPDEST PUSH2 0x12C2 DUP4 PUSH2 0x1209 JUMP JUMPDEST SWAP5 PUSH1 0x20 SWAP4 SWAP1 SWAP4 ADD CALLDATALOAD SWAP4 POP POP POP JUMP JUMPDEST PUSH1 0x0 DUP1 PUSH1 0x0 PUSH1 0x60 DUP5 DUP7 SUB SLT ISZERO PUSH2 0x12E4 JUMPI DUP1 DUP2 REVERT JUMPDEST PUSH2 0x12ED DUP5 PUSH2 0x1209 JUMP JUMPDEST SWAP3 POP PUSH1 0x20 DUP5 ADD CALLDATALOAD PUSH2 0x12FD DUP2 PUSH2 0x1732 JUMP JUMPDEST SWAP3 SWAP6 SWAP3 SWAP5 POP POP POP PUSH1 0x40 SWAP2 SWAP1 SWAP2 ADD CALLDATALOAD SWAP1 JUMP JUMPDEST PUSH1 0x0 PUSH1 0x20 DUP3 DUP5 SUB SLT ISZERO PUSH2 0x131F JUMPI DUP1 DUP2 REVERT JUMPDEST DUP2 CALLDATALOAD PUSH8 0xFFFFFFFFFFFFFFFF DUP2 GT ISZERO PUSH2 0x1335 JUMPI DUP2 DUP3 REVERT JUMPDEST PUSH2 0x938 DUP5 DUP3 DUP6 ADD PUSH2 0x1220 JUMP JUMPDEST PUSH1 0x0 DUP1 PUSH1 0x40 DUP4 DUP6 SUB SLT ISZERO PUSH2 0x1353 JUMPI DUP2 DUP3 REVERT JUMPDEST DUP3 CALLDATALOAD PUSH8 0xFFFFFFFFFFFFFFFF DUP2 GT ISZERO PUSH2 0x1369 JUMPI DUP3 DUP4 REVERT JUMPDEST PUSH2 0x1375 DUP6 DUP3 DUP7 ADD PUSH2 0x1220 JUMP JUMPDEST SWAP3 POP POP PUSH2 0x1384 PUSH1 0x20 DUP5 ADD PUSH2 0x1209 JUMP JUMPDEST SWAP1 POP SWAP3 POP SWAP3 SWAP1 POP JUMP JUMPDEST PUSH1 0x0 DUP1 PUSH1 0x40 DUP4 DUP6 SUB SLT ISZERO PUSH2 0x139F JUMPI DUP2 DUP3 REVERT JUMPDEST DUP3 CALLDATALOAD PUSH8 0xFFFFFFFFFFFFFFFF DUP1 DUP3 GT ISZERO PUSH2 0x13B6 JUMPI DUP4 DUP5 REVERT JUMPDEST PUSH2 0x13C2 DUP7 DUP4 DUP8 ADD PUSH2 0x1220 JUMP JUMPDEST SWAP4 POP PUSH1 0x20 DUP6 ADD CALLDATALOAD SWAP2 POP DUP1 DUP3 GT ISZERO PUSH2 0x13D7 JUMPI DUP3 DUP4 REVERT JUMPDEST POP PUSH2 0x13E4 DUP6 DUP3 DUP7 ADD PUSH2 0x1220 JUMP JUMPDEST SWAP2 POP POP SWAP3 POP SWAP3 SWAP1 POP JUMP JUMPDEST PUSH1 0x0 PUSH1 0x20 DUP3 DUP5 SUB SLT ISZERO PUSH2 0x13FF JUMPI DUP1 DUP2 REVERT JUMPDEST POP CALLDATALOAD SWAP2 SWAP1 POP JUMP JUMPDEST PUSH1 0x0 PUSH1 0x20 DUP3 DUP5 SUB SLT ISZERO PUSH2 0x1417 JUMPI DUP1 DUP2 REVERT JUMPDEST POP MLOAD SWAP2 SWAP1 POP JUMP JUMPDEST PUSH1 0x0 DUP1 PUSH1 0x0 PUSH1 0x60 DUP5 DUP7 SUB SLT ISZERO PUSH2 0x1432 JUMPI DUP3 DUP4 REVERT JUMPDEST DUP4 CALLDATALOAD SWAP3 POP PUSH2 0x1442 PUSH1 0x20 DUP6 ADD PUSH2 0x1209 JUMP JUMPDEST SWAP2 POP PUSH1 0x40 DUP5 ADD CALLDATALOAD PUSH2 0x1452 DUP2 PUSH2 0x1732 JUMP JUMPDEST DUP1 SWAP2 POP POP SWAP3 POP SWAP3 POP SWAP3 JUMP JUMPDEST PUSH1 0x0 PUSH1 0x20 DUP3 DUP5 SUB SLT ISZERO PUSH2 0x146E JUMPI DUP1 DUP2 REVERT JUMPDEST DUP2 MLOAD PUSH2 0xB64 DUP2 PUSH2 0x1732 JUMP JUMPDEST PUSH1 0x0 DUP1 PUSH1 0x40 DUP4 DUP6 SUB SLT ISZERO PUSH2 0x148B JUMPI DUP2 DUP3 REVERT JUMPDEST DUP3 CALLDATALOAD PUSH2 0x12C2 DUP2 PUSH2 0x1732 JUMP JUMPDEST PUSH1 0x0 DUP2 MLOAD DUP1 DUP5 MSTORE PUSH2 0x14AE DUP2 PUSH1 0x20 DUP7 ADD PUSH1 0x20 DUP7 ADD PUSH2 0x16BB JUMP JUMPDEST PUSH1 0x1F ADD PUSH1 0x1F NOT AND SWAP3 SWAP1 SWAP3 ADD PUSH1 0x20 ADD SWAP3 SWAP2 POP POP JUMP JUMPDEST PUSH1 0x0 DUP3 MLOAD PUSH2 0x14D4 DUP2 DUP5 PUSH1 0x20 DUP8 ADD PUSH2 0x16BB JUMP JUMPDEST SWAP2 SWAP1 SWAP2 ADD SWAP3 SWAP2 POP POP JUMP JUMPDEST PUSH1 0x0 PUSH1 0x40 DUP3 MSTORE PUSH2 0x14F1 PUSH1 0x40 DUP4 ADD DUP6 PUSH2 0x1496 JUMP JUMPDEST DUP3 DUP2 SUB PUSH1 0x20 DUP5 ADD MSTORE PUSH2 0xB60 DUP2 DUP6 PUSH2 0x1496 JUMP JUMPDEST PUSH1 0x0 DUP3 NOT DUP3 GT ISZERO PUSH2 0x1516 JUMPI PUSH2 0x1516 PUSH2 0x1706 JUMP JUMPDEST POP ADD SWAP1 JUMP JUMPDEST PUSH1 0x0 DUP3 PUSH2 0x1536 JUMPI PUSH4 0x4E487B71 PUSH1 0xE0 SHL DUP2 MSTORE PUSH1 0x12 PUSH1 0x4 MSTORE PUSH1 0x24 DUP2 REVERT JUMPDEST POP DIV SWAP1 JUMP JUMPDEST DUP1 DUP3 JUMPDEST PUSH1 0x1 DUP1 DUP7 GT PUSH2 0x154D JUMPI POP PUSH2 0x1578 JUMP JUMPDEST DUP2 DUP8 DIV DUP3 GT ISZERO PUSH2 0x155F JUMPI PUSH2 0x155F PUSH2 0x1706 JUMP JUMPDEST DUP1 DUP7 AND ISZERO PUSH2 0x156C JUMPI SWAP2 DUP2 MUL SWAP2 JUMPDEST SWAP5 SWAP1 SWAP5 SHR SWAP4 DUP1 MUL PUSH2 0x153E JUMP JUMPDEST SWAP5 POP SWAP5 SWAP3 POP POP POP JUMP JUMPDEST PUSH1 0x0 PUSH2 0xB64 PUSH1 0x0 NOT DUP5 DUP5 PUSH2 0x159E JUMP JUMPDEST PUSH1 0x0 PUSH2 0xB64 PUSH1 0x0 NOT PUSH1 0xFF DUP6 AND DUP5 JUMPDEST PUSH1 0x0 DUP3 PUSH2 0x15AD JUMPI POP PUSH1 0x1 PUSH2 0xB64 JUMP JUMPDEST DUP2 PUSH2 0x15BA JUMPI POP PUSH1 0x0 PUSH2 0xB64 JUMP JUMPDEST DUP2 PUSH1 0x1 DUP2 EQ PUSH2 0x15D0 JUMPI PUSH1 0x2 DUP2 EQ PUSH2 0x15DA JUMPI PUSH2 0x1607 JUMP JUMPDEST PUSH1 0x1 SWAP2 POP POP PUSH2 0xB64 JUMP JUMPDEST PUSH1 0xFF DUP5 GT ISZERO PUSH2 0x15EB JUMPI PUSH2 0x15EB PUSH2 0x1706 JUMP JUMPDEST PUSH1 0x1 DUP5 SHL SWAP2 POP DUP5 DUP3 GT ISZERO PUSH2 0x1601 JUMPI PUSH2 0x1601 PUSH2 0x1706 JUMP JUMPDEST POP PUSH2 0xB64 JUMP JUMPDEST POP PUSH1 0x20 DUP4 LT PUSH2 0x133 DUP4 LT AND PUSH1 0x4E DUP5 LT PUSH1 0xB DUP5 LT AND OR ISZERO PUSH2 0x163A JUMPI POP DUP2 DUP2 EXP DUP4 DUP2 GT ISZERO PUSH2 0x1635 JUMPI PUSH2 0x1635 PUSH2 0x1706 JUMP JUMPDEST PUSH2 0xB64 JUMP JUMPDEST PUSH2 0x1647 DUP5 DUP5 DUP5 PUSH1 0x1 PUSH2 0x153B JUMP JUMPDEST DUP1 DUP7 DIV DUP3 GT ISZERO PUSH2 0x1659 JUMPI PUSH2 0x1659 PUSH2 0x1706 JUMP JUMPDEST MUL SWAP5 SWAP4 POP POP POP POP JUMP JUMPDEST PUSH1 0x0 DUP2 PUSH1 0x0 NOT DIV DUP4 GT DUP3 ISZERO ISZERO AND ISZERO PUSH2 0x167C JUMPI PUSH2 0x167C PUSH2 0x1706 JUMP JUMPDEST POP MUL SWAP1 JUMP JUMPDEST PUSH1 0x0 DUP3 DUP3 LT ISZERO PUSH2 0x1693 JUMPI PUSH2 0x1693 PUSH2 0x1706 JUMP JUMPDEST POP SUB SWAP1 JUMP JUMPDEST PUSH1 0x0 PUSH1 0xFF DUP3 AND PUSH1 0xFF DUP5 AND DUP1 DUP3 LT ISZERO PUSH2 0x16B2 JUMPI PUSH2 0x16B2 PUSH2 0x1706 JUMP JUMPDEST SWAP1 SUB SWAP4 SWAP3 POP POP POP JUMP JUMPDEST PUSH1 0x0 JUMPDEST DUP4 DUP2 LT ISZERO PUSH2 0x16D6 JUMPI DUP2 DUP2 ADD MLOAD DUP4 DUP3 ADD MSTORE PUSH1 0x20 ADD PUSH2 0x16BE JUMP JUMPDEST DUP4 DUP2 GT ISZERO PUSH2 0x16E5 JUMPI PUSH1 0x0 DUP5 DUP5 ADD MSTORE JUMPDEST POP POP POP POP JUMP JUMPDEST PUSH1 0x0 PUSH1 0x0 NOT DUP3 EQ ISZERO PUSH2 0x16FF JUMPI PUSH2 0x16FF PUSH2 0x1706 JUMP JUMPDEST POP PUSH1 0x1 ADD SWAP1 JUMP JUMPDEST PUSH4 0x4E487B71 PUSH1 0xE0 SHL PUSH1 0x0 MSTORE PUSH1 0x11 PUSH1 0x4 MSTORE PUSH1 0x24 PUSH1 0x0 REVERT JUMPDEST PUSH4 0x4E487B71 PUSH1 0xE0 SHL PUSH1 0x0 MSTORE PUSH1 0x41 PUSH1 0x4 MSTORE PUSH1 0x24 PUSH1 0x0 REVERT JUMPDEST PUSH1 0xFF DUP2 AND DUP2 EQ PUSH2 0x1741 JUMPI PUSH1 0x0 DUP1 REVERT JUMPDEST POP JUMP INVALID LOG2 PUSH5 0x6970667358 0x22 SLT KECCAK256 PUSH7 0x6E9B8328B9242D MSIZE PUSH8 0xD4560998AC580802 SLOAD CODECOPY SLT PUSH32 0x58B26096B843AF02CD5B64736F6C634300080200330000000000000000000000 "
		},
		"gasEstimates": {
			"creation": {
				"codeDepositCost": "1202000",
				"executionCost": "46269",
				"totalCost": "1248269"
			},
			"external": {
				"DECIMAL_PRECISION()": "229",
				"agent()": "1147",
				"convertPriceToDecimals(uint256,address,uint8)": "infinite",
				"denormalizeAmount(address,uint256)": "infinite",
				"historicalInterestHeight()": "1095",
				"historicalInterestTimestamps(uint256)": "1150",
				"leverageParams(uint256)": "2854",
				"longIOByHeight(uint256)": "1194",
				"marginParams(uint256)": "2925",
				"nonce()": "1073",
				"normalizeAmount(address,uint256)": "infinite",
				"parseEntryPrice(string,address)": "infinite",
				"parseUint(string)": "infinite",
				"pendingPositions(address,uint8,uint256)": "2309",
				"positionCoreBase(uint256)": "3804",
				"positionCoreStatus(uint256)": "1267",
				"positionIdCounter()": "1030",
				"positionToken(uint256)": "1221",
				"positionsByType(uint8,uint256)": "2160",
				"priceParams(uint256)": "3737",
				"riskParams(uint256)": "2946",
				"shortIOByHeight(uint256)": "1149",
				"splitString(string,string)": "infinite"
			},
			"internal": {
				"addExcessMarginInternal(uint256,uint256,address,address,uint8,uint256)": "infinite",
				"cancelAllLongInternal(address,uint256)": "infinite",
				"cancelAllShortInternal(address,uint256)": "infinite",
				"closeAllLongsInternal(address,uint256)": "infinite",
				"closeAllShortInternal(address,uint256)": "infinite",
				"computeLongPayout(struct SSDUtilityPartial.ClosePositionMargin memory,struct SSDUtilityPartial.LeverageParams memory,uint256)": "infinite",
				"computeShortPayout(struct SSDUtilityPartial.ClosePositionMargin memory,struct SSDUtilityPartial.PriceParams memory,struct SSDUtilityPartial.MarginParams memory,struct SSDUtilityPartial.LeverageParams memory,uint256)": "infinite",
				"denormalizePayout(uint256,uint8)": "infinite",
				"executeClosePosition(struct SSDUtilityPartial.PositionAction memory,struct SSDUtilityPartial.PositionCoreBase memory,struct SSDUtilityPartial.PositionCoreStatus memory,struct SSDUtilityPartial.ExecutionContextBase memory)": "infinite",
				"executePositions(struct SSDUtilityPartial.PositionAction memory[] memory,address)": "infinite",
				"fetchPositionData(uint256)": "infinite",
				"finalizeActions(struct SSDUtilityPartial.PositionAction memory[] memory,uint256)": "infinite",
				"finalizeClose(struct SSDUtilityPartial.ClosePositionBase memory,struct SSDUtilityPartial.ClosePositionMargin memory,uint8,uint256)": "infinite",
				"getCurrentPrice(address)": "infinite",
				"internalCancelPosition(struct SSDUtilityPartial.ClosePositionBase memory,struct SSDUtilityPartial.ClosePositionMargin memory,uint8)": "infinite",
				"internalCloseLongPosition(struct SSDUtilityPartial.ClosePositionBase memory,struct SSDUtilityPartial.ClosePositionMargin memory,struct SSDUtilityPartial.LongCloseParams memory)": "infinite",
				"internalCloseShortPosition(struct SSDUtilityPartial.ClosePositionBase memory,struct SSDUtilityPartial.ClosePositionMargin memory,struct SSDUtilityPartial.ShortCloseParams memory)": "infinite",
				"prepareCloseLong(struct SSDUtilityPartial.ClosePositionBase memory,struct SSDUtilityPartial.ClosePositionMargin memory)": "infinite",
				"prepareCloseShort(struct SSDUtilityPartial.ClosePositionBase memory,struct SSDUtilityPartial.ClosePositionMargin memory)": "infinite",
				"prepareExecution(address)": "infinite",
				"processActiveActions(struct SSDUtilityPartial.ExecutionContextBase memory,struct SSDUtilityPartial.ExecutionContextCounts memory,uint8,struct SSDUtilityPartial.PositionAction memory[] memory)": "infinite",
				"processActivePosition(struct SSDUtilityPartial.PositionCoreBase memory,struct SSDUtilityPartial.PositionCoreStatus memory,struct SSDUtilityPartial.PriceParams memory,struct SSDUtilityPartial.RiskParams memory,uint256,address)": "infinite",
				"processPendingActions(struct SSDUtilityPartial.ExecutionContextBase memory,struct SSDUtilityPartial.ExecutionContextCounts memory,uint8,struct SSDUtilityPartial.PositionAction memory[] memory)": "infinite",
				"processPendingPosition(struct SSDUtilityPartial.PositionCoreBase memory,struct SSDUtilityPartial.PositionCoreStatus memory,struct SSDUtilityPartial.PriceParams memory,uint256)": "infinite",
				"updatePositionStatusHelper(uint256,struct SSDUtilityPartial.PositionCoreBase memory,struct SSDUtilityPartial.PositionCoreStatus memory)": "infinite",
				"updateSLInternal(uint256,uint256)": "infinite",
				"updateTPInternal(uint256,uint256)": "infinite",
				"validatePositionStatus(struct SSDUtilityPartial.PositionCoreStatus memory)": "infinite"
			}
		},
		"methodIdentifiers": {
			"DECIMAL_PRECISION()": "a20baee6",
			"agent()": "f5ff5c76",
			"convertPriceToDecimals(uint256,address,uint8)": "d5db0057",
			"denormalizeAmount(address,uint256)": "840b590b",
			"historicalInterestHeight()": "ba7687cb",
			"historicalInterestTimestamps(uint256)": "64848ea4",
			"leverageParams(uint256)": "97967408",
			"longIOByHeight(uint256)": "ad565fca",
			"marginParams(uint256)": "63cd5c7e",
			"nonce()": "affed0e0",
			"normalizeAmount(address,uint256)": "4389aea3",
			"parseEntryPrice(string,address)": "16f8a111",
			"parseUint(string)": "fa91454d",
			"pendingPositions(address,uint8,uint256)": "093f7cab",
			"positionCoreBase(uint256)": "80994f95",
			"positionCoreStatus(uint256)": "79720d40",
			"positionIdCounter()": "12a2fa76",
			"positionToken(uint256)": "e53a438e",
			"positionsByType(uint8,uint256)": "6ab37d0f",
			"priceParams(uint256)": "f478fdee",
			"riskParams(uint256)": "8bab83b6",
			"shortIOByHeight(uint256)": "ddd793f0",
			"splitString(string,string)": "f4311138"
		}
	},
	"abi": [
		{
			"inputs": [],
			"name": "DECIMAL_PRECISION",
			"outputs": [
				{
					"internalType": "uint256",
					"name": "",
					"type": "uint256"
				}
			],
			"stateMutability": "view",
			"type": "function"
		},
		{
			"inputs": [],
			"name": "agent",
			"outputs": [
				{
					"internalType": "address",
					"name": "",
					"type": "address"
				}
			],
			"stateMutability": "view",
			"type": "function"
		},
		{
			"inputs": [
				{
					"internalType": "uint256",
					"name": "price",
					"type": "uint256"
				},
				{
					"internalType": "address",
					"name": "listingAddress",
					"type": "address"
				},
				{
					"internalType": "uint8",
					"name": "targetDecimals",
					"type": "uint8"
				}
			],
			"name": "convertPriceToDecimals",
			"outputs": [
				{
					"internalType": "uint256",
					"name": "",
					"type": "uint256"
				}
			],
			"stateMutability": "view",
			"type": "function"
		},
		{
			"inputs": [
				{
					"internalType": "address",
					"name": "token",
					"type": "address"
				},
				{
					"internalType": "uint256",
					"name": "normalizedAmount",
					"type": "uint256"
				}
			],
			"name": "denormalizeAmount",
			"outputs": [
				{
					"internalType": "uint256",
					"name": "",
					"type": "uint256"
				}
			],
			"stateMutability": "view",
			"type": "function"
		},
		{
			"inputs": [],
			"name": "historicalInterestHeight",
			"outputs": [
				{
					"internalType": "uint256",
					"name": "",
					"type": "uint256"
				}
			],
			"stateMutability": "view",
			"type": "function"
		},
		{
			"inputs": [
				{
					"internalType": "uint256",
					"name": "",
					"type": "uint256"
				}
			],
			"name": "historicalInterestTimestamps",
			"outputs": [
				{
					"internalType": "uint256",
					"name": "",
					"type": "uint256"
				}
			],
			"stateMutability": "view",
			"type": "function"
		},
		{
			"inputs": [
				{
					"internalType": "uint256",
					"name": "",
					"type": "uint256"
				}
			],
			"name": "leverageParams",
			"outputs": [
				{
					"internalType": "uint8",
					"name": "leverageVal",
					"type": "uint8"
				},
				{
					"internalType": "uint256",
					"name": "leverageAmount",
					"type": "uint256"
				},
				{
					"internalType": "uint256",
					"name": "loanInitial",
					"type": "uint256"
				}
			],
			"stateMutability": "view",
			"type": "function"
		},
		{
			"inputs": [
				{
					"internalType": "uint256",
					"name": "",
					"type": "uint256"
				}
			],
			"name": "longIOByHeight",
			"outputs": [
				{
					"internalType": "uint256",
					"name": "",
					"type": "uint256"
				}
			],
			"stateMutability": "view",
			"type": "function"
		},
		{
			"inputs": [
				{
					"internalType": "uint256",
					"name": "",
					"type": "uint256"
				}
			],
			"name": "marginParams",
			"outputs": [
				{
					"internalType": "uint256",
					"name": "marginInitial",
					"type": "uint256"
				},
				{
					"internalType": "uint256",
					"name": "marginTaxed",
					"type": "uint256"
				},
				{
					"internalType": "uint256",
					"name": "marginExcess",
					"type": "uint256"
				}
			],
			"stateMutability": "view",
			"type": "function"
		},
		{
			"inputs": [],
			"name": "nonce",
			"outputs": [
				{
					"internalType": "uint256",
					"name": "",
					"type": "uint256"
				}
			],
			"stateMutability": "view",
			"type": "function"
		},
		{
			"inputs": [
				{
					"internalType": "address",
					"name": "token",
					"type": "address"
				},
				{
					"internalType": "uint256",
					"name": "amount",
					"type": "uint256"
				}
			],
			"name": "normalizeAmount",
			"outputs": [
				{
					"internalType": "uint256",
					"name": "",
					"type": "uint256"
				}
			],
			"stateMutability": "view",
			"type": "function"
		},
		{
			"inputs": [
				{
					"internalType": "string",
					"name": "entryPrice",
					"type": "string"
				},
				{
					"internalType": "address",
					"name": "listingAddress",
					"type": "address"
				}
			],
			"name": "parseEntryPrice",
			"outputs": [
				{
					"internalType": "uint256",
					"name": "minPrice",
					"type": "uint256"
				},
				{
					"internalType": "uint256",
					"name": "maxPrice",
					"type": "uint256"
				}
			],
			"stateMutability": "view",
			"type": "function"
		},
		{
			"inputs": [
				{
					"internalType": "string",
					"name": "str",
					"type": "string"
				}
			],
			"name": "parseUint",
			"outputs": [
				{
					"internalType": "uint256",
					"name": "",
					"type": "uint256"
				}
			],
			"stateMutability": "pure",
			"type": "function"
		},
		{
			"inputs": [
				{
					"internalType": "address",
					"name": "",
					"type": "address"
				},
				{
					"internalType": "uint8",
					"name": "",
					"type": "uint8"
				},
				{
					"internalType": "uint256",
					"name": "",
					"type": "uint256"
				}
			],
			"name": "pendingPositions",
			"outputs": [
				{
					"internalType": "uint256",
					"name": "",
					"type": "uint256"
				}
			],
			"stateMutability": "view",
			"type": "function"
		},
		{
			"inputs": [
				{
					"internalType": "uint256",
					"name": "",
					"type": "uint256"
				}
			],
			"name": "positionCoreBase",
			"outputs": [
				{
					"internalType": "address",
					"name": "makerAddress",
					"type": "address"
				},
				{
					"internalType": "address",
					"name": "listingAddress",
					"type": "address"
				},
				{
					"internalType": "uint256",
					"name": "positionId",
					"type": "uint256"
				},
				{
					"internalType": "uint8",
					"name": "positionType",
					"type": "uint8"
				}
			],
			"stateMutability": "view",
			"type": "function"
		},
		{
			"inputs": [
				{
					"internalType": "uint256",
					"name": "",
					"type": "uint256"
				}
			],
			"name": "positionCoreStatus",
			"outputs": [
				{
					"internalType": "bool",
					"name": "status1",
					"type": "bool"
				},
				{
					"internalType": "uint8",
					"name": "status2",
					"type": "uint8"
				}
			],
			"stateMutability": "view",
			"type": "function"
		},
		{
			"inputs": [],
			"name": "positionIdCounter",
			"outputs": [
				{
					"internalType": "uint256",
					"name": "",
					"type": "uint256"
				}
			],
			"stateMutability": "view",
			"type": "function"
		},
		{
			"inputs": [
				{
					"internalType": "uint256",
					"name": "",
					"type": "uint256"
				}
			],
			"name": "positionToken",
			"outputs": [
				{
					"internalType": "address",
					"name": "",
					"type": "address"
				}
			],
			"stateMutability": "view",
			"type": "function"
		},
		{
			"inputs": [
				{
					"internalType": "uint8",
					"name": "",
					"type": "uint8"
				},
				{
					"internalType": "uint256",
					"name": "",
					"type": "uint256"
				}
			],
			"name": "positionsByType",
			"outputs": [
				{
					"internalType": "uint256",
					"name": "",
					"type": "uint256"
				}
			],
			"stateMutability": "view",
			"type": "function"
		},
		{
			"inputs": [
				{
					"internalType": "uint256",
					"name": "",
					"type": "uint256"
				}
			],
			"name": "priceParams",
			"outputs": [
				{
					"internalType": "uint256",
					"name": "priceMin",
					"type": "uint256"
				},
				{
					"internalType": "uint256",
					"name": "priceMax",
					"type": "uint256"
				},
				{
					"internalType": "uint256",
					"name": "priceAtEntry",
					"type": "uint256"
				},
				{
					"internalType": "uint256",
					"name": "priceClose",
					"type": "uint256"
				}
			],
			"stateMutability": "view",
			"type": "function"
		},
		{
			"inputs": [
				{
					"internalType": "uint256",
					"name": "",
					"type": "uint256"
				}
			],
			"name": "riskParams",
			"outputs": [
				{
					"internalType": "uint256",
					"name": "priceLiquidation",
					"type": "uint256"
				},
				{
					"internalType": "uint256",
					"name": "priceStopLoss",
					"type": "uint256"
				},
				{
					"internalType": "uint256",
					"name": "priceTakeProfit",
					"type": "uint256"
				}
			],
			"stateMutability": "view",
			"type": "function"
		},
		{
			"inputs": [
				{
					"internalType": "uint256",
					"name": "",
					"type": "uint256"
				}
			],
			"name": "shortIOByHeight",
			"outputs": [
				{
					"internalType": "uint256",
					"name": "",
					"type": "uint256"
				}
			],
			"stateMutability": "view",
			"type": "function"
		},
		{
			"inputs": [
				{
					"internalType": "string",
					"name": "str",
					"type": "string"
				},
				{
					"internalType": "string",
					"name": "delimiter",
					"type": "string"
				}
			],
			"name": "splitString",
			"outputs": [
				{
					"internalType": "string",
					"name": "",
					"type": "string"
				},
				{
					"internalType": "string",
					"name": "",
					"type": "string"
				}
			],
			"stateMutability": "pure",
			"type": "function"
		}
	]
}