{
	"ShockSpace/utils/SSMainPartial.sol": {
		"SSMainPartial": {
			"abi": [
				{
					"anonymous": false,
					"inputs": [
						{
							"indexed": true,
							"internalType": "address",
							"name": "previousOwner",
							"type": "address"
						},
						{
							"indexed": true,
							"internalType": "address",
							"name": "newOwner",
							"type": "address"
						}
					],
					"name": "OwnershipTransferred",
					"type": "event"
				},
				{
					"inputs": [
						{
							"internalType": "address",
							"name": "",
							"type": "address"
						},
						{
							"internalType": "uint256",
							"name": "",
							"type": "uint256"
						}
					],
					"name": "activeBuyOrders",
					"outputs": [
						{
							"internalType": "uint256",
							"name": "",
							"type": "uint256"
						}
					],
					"stateMutability": "view",
					"type": "function"
				},
				{
					"inputs": [
						{
							"internalType": "address",
							"name": "",
							"type": "address"
						},
						{
							"internalType": "uint256",
							"name": "",
							"type": "uint256"
						}
					],
					"name": "activeLongPayouts",
					"outputs": [
						{
							"internalType": "uint256",
							"name": "",
							"type": "uint256"
						}
					],
					"stateMutability": "view",
					"type": "function"
				},
				{
					"inputs": [
						{
							"internalType": "address",
							"name": "",
							"type": "address"
						},
						{
							"internalType": "uint256",
							"name": "",
							"type": "uint256"
						}
					],
					"name": "activeSellOrders",
					"outputs": [
						{
							"internalType": "uint256",
							"name": "",
							"type": "uint256"
						}
					],
					"stateMutability": "view",
					"type": "function"
				},
				{
					"inputs": [
						{
							"internalType": "address",
							"name": "",
							"type": "address"
						},
						{
							"internalType": "uint256",
							"name": "",
							"type": "uint256"
						}
					],
					"name": "activeShortPayouts",
					"outputs": [
						{
							"internalType": "uint256",
							"name": "",
							"type": "uint256"
						}
					],
					"stateMutability": "view",
					"type": "function"
				},
				{
					"inputs": [],
					"name": "agent",
					"outputs": [
						{
							"internalType": "address",
							"name": "",
							"type": "address"
						}
					],
					"stateMutability": "view",
					"type": "function"
				},
				{
					"inputs": [
						{
							"internalType": "address",
							"name": "",
							"type": "address"
						}
					],
					"name": "decimalsA",
					"outputs": [
						{
							"internalType": "uint8",
							"name": "",
							"type": "uint8"
						}
					],
					"stateMutability": "view",
					"type": "function"
				},
				{
					"inputs": [
						{
							"internalType": "address",
							"name": "",
							"type": "address"
						}
					],
					"name": "decimalsB",
					"outputs": [
						{
							"internalType": "uint8",
							"name": "",
							"type": "uint8"
						}
					],
					"stateMutability": "view",
					"type": "function"
				},
				{
					"inputs": [
						{
							"internalType": "address",
							"name": "",
							"type": "address"
						}
					],
					"name": "isValidListing",
					"outputs": [
						{
							"internalType": "bool",
							"name": "",
							"type": "bool"
						}
					],
					"stateMutability": "view",
					"type": "function"
				},
				{
					"inputs": [
						{
							"internalType": "address",
							"name": "",
							"type": "address"
						}
					],
					"name": "liquidityAddress",
					"outputs": [
						{
							"internalType": "address",
							"name": "",
							"type": "address"
						}
					],
					"stateMutability": "view",
					"type": "function"
				},
				{
					"inputs": [
						{
							"internalType": "address",
							"name": "",
							"type": "address"
						},
						{
							"internalType": "address",
							"name": "",
							"type": "address"
						},
						{
							"internalType": "uint256",
							"name": "",
							"type": "uint256"
						}
					],
					"name": "makerActiveOrders",
					"outputs": [
						{
							"internalType": "uint256",
							"name": "",
							"type": "uint256"
						}
					],
					"stateMutability": "view",
					"type": "function"
				},
				{
					"inputs": [
						{
							"internalType": "address",
							"name": "",
							"type": "address"
						},
						{
							"internalType": "uint256",
							"name": "",
							"type": "uint256"
						}
					],
					"name": "orderPendingAmounts",
					"outputs": [
						{
							"internalType": "uint256",
							"name": "",
							"type": "uint256"
						}
					],
					"stateMutability": "view",
					"type": "function"
				},
				{
					"inputs": [],
					"name": "owner",
					"outputs": [
						{
							"internalType": "address",
							"name": "",
							"type": "address"
						}
					],
					"stateMutability": "view",
					"type": "function"
				},
				{
					"inputs": [
						{
							"internalType": "address",
							"name": "",
							"type": "address"
						},
						{
							"internalType": "uint256",
							"name": "",
							"type": "uint256"
						}
					],
					"name": "payoutPendingAmounts",
					"outputs": [
						{
							"internalType": "uint256",
							"name": "",
							"type": "uint256"
						}
					],
					"stateMutability": "view",
					"type": "function"
				},
				{
					"inputs": [],
					"name": "renounceOwnership",
					"outputs": [],
					"stateMutability": "nonpayable",
					"type": "function"
				},
				{
					"inputs": [
						{
							"internalType": "address",
							"name": "newAgent",
							"type": "address"
						}
					],
					"name": "setAgent",
					"outputs": [],
					"stateMutability": "nonpayable",
					"type": "function"
				},
				{
					"inputs": [
						{
							"internalType": "address",
							"name": "",
							"type": "address"
						}
					],
					"name": "tokenA",
					"outputs": [
						{
							"internalType": "address",
							"name": "",
							"type": "address"
						}
					],
					"stateMutability": "view",
					"type": "function"
				},
				{
					"inputs": [
						{
							"internalType": "address",
							"name": "",
							"type": "address"
						}
					],
					"name": "tokenB",
					"outputs": [
						{
							"internalType": "address",
							"name": "",
							"type": "address"
						}
					],
					"stateMutability": "view",
					"type": "function"
				},
				{
					"inputs": [
						{
							"internalType": "address",
							"name": "newOwner",
							"type": "address"
						}
					],
					"name": "transferOwnership",
					"outputs": [],
					"stateMutability": "nonpayable",
					"type": "function"
				}
			],
			"devdoc": {
				"kind": "dev",
				"methods": {
					"owner()": {
						"details": "Returns the address of the current owner."
					},
					"renounceOwnership()": {
						"details": "Leaves the contract without owner. It will not be possible to call `onlyOwner` functions. Can only be called by the current owner. NOTE: Renouncing ownership will leave the contract without an owner, thereby disabling any functionality that is only available to the owner."
					},
					"transferOwnership(address)": {
						"details": "Transfers ownership of the contract to a new account (`newOwner`). Can only be called by the current owner."
					}
				},
				"version": 1
			},
			"evm": {
				"assembly": "    /* \"ShockSpace/utils/SSMainPartial.sol\":7868:9777  contract SSMainPartial is ReentrancyGuard, Ownable {... */\n  mstore(0x40, 0x80)\n  callvalue\n  dup1\n  iszero\n  tag_1\n  jumpi\n  0x00\n  dup1\n  revert\ntag_1:\n  pop\n    /* \"ShockSpace/imports/ReentrancyGuard.sol\":1716:1717  1 */\n  0x01\n    /* \"ShockSpace/imports/ReentrancyGuard.sol\":1821:1828  _status */\n  0x00\n    /* \"ShockSpace/imports/ReentrancyGuard.sol\":1821:1843  _status = _NOT_ENTERED */\n  sstore\n    /* \"ShockSpace/imports/Ownable.sol\":929:961  _transferOwnership(_msgSender()) */\n  tag_6\n    /* \"ShockSpace/imports/Ownable.sol\":948:960  _msgSender() */\n  tag_7\n    /* \"ShockSpace/imports/Ownable.sol\":948:958  _msgSender */\n  tag_8\n    /* \"ShockSpace/imports/Ownable.sol\":948:960  _msgSender() */\n  jump\t// in\ntag_7:\n    /* \"ShockSpace/imports/Ownable.sol\":929:947  _transferOwnership */\n  tag_9\n    /* \"ShockSpace/imports/Ownable.sol\":929:961  _transferOwnership(_msgSender()) */\n  jump\t// in\ntag_6:\n    /* \"ShockSpace/utils/SSMainPartial.sol\":7868:9777  contract SSMainPartial is ReentrancyGuard, Ownable {... */\n  jump(tag_10)\n    /* \"ShockSpace/imports/Context.sol\":640:736  function _msgSender() internal view virtual returns (address) {... */\ntag_8:\n    /* \"ShockSpace/imports/Context.sol\":719:729  msg.sender */\n  caller\n    /* \"ShockSpace/imports/Context.sol\":640:736  function _msgSender() internal view virtual returns (address) {... */\n  swap1\n  jump\t// out\n    /* \"ShockSpace/imports/Ownable.sol\":2419:2606  function _transferOwnership(address newOwner) internal virtual {... */\ntag_9:\n    /* \"ShockSpace/imports/Ownable.sol\":2511:2517  _owner */\n  0x01\n  dup1\n  sload\n  sub(shl(0xa0, 0x01), 0x01)\n    /* \"ShockSpace/imports/Ownable.sol\":2527:2544  _owner = newOwner */\n  dup4\n  dup2\n  and\n  not(sub(shl(0xa0, 0x01), 0x01))\n  dup4\n  and\n  dup2\n  or\n  swap1\n  swap4\n  sstore\n    /* \"ShockSpace/imports/Ownable.sol\":2559:2599  OwnershipTransferred(oldOwner, newOwner) */\n  mload(0x40)\n    /* \"ShockSpace/imports/Ownable.sol\":2511:2517  _owner */\n  swap2\n  and\n  swap2\n    /* \"ShockSpace/imports/Ownable.sol\":2527:2544  _owner = newOwner */\n  swap1\n    /* \"ShockSpace/imports/Ownable.sol\":2511:2517  _owner */\n  dup3\n  swap1\n    /* \"ShockSpace/imports/Ownable.sol\":2559:2599  OwnershipTransferred(oldOwner, newOwner) */\n  0x8be0079c531659141344cd1fd0a4f28419497f9722a3daafe3b4186f6b6457e0\n  swap1\n    /* \"ShockSpace/imports/Ownable.sol\":2492:2508  address oldOwner */\n  0x00\n  swap1\n    /* \"ShockSpace/imports/Ownable.sol\":2559:2599  OwnershipTransferred(oldOwner, newOwner) */\n  log3\n    /* \"ShockSpace/imports/Ownable.sol\":2419:2606  function _transferOwnership(address newOwner) internal virtual {... */\n  pop\n  pop\n  jump\t// out\n    /* \"ShockSpace/utils/SSMainPartial.sol\":7868:9777  contract SSMainPartial is ReentrancyGuard, Ownable {... */\ntag_10:\n  dataSize(sub_0)\n  dup1\n  dataOffset(sub_0)\n  0x00\n  codecopy\n  0x00\n  return\nstop\n\nsub_0: assembly {\n        /* \"ShockSpace/utils/SSMainPartial.sol\":7868:9777  contract SSMainPartial is ReentrancyGuard, Ownable {... */\n      mstore(0x40, 0x80)\n      callvalue\n      dup1\n      iszero\n      tag_1\n      jumpi\n      0x00\n      dup1\n      revert\n    tag_1:\n      pop\n      jumpi(tag_2, lt(calldatasize, 0x04))\n      shr(0xe0, calldataload(0x00))\n      dup1\n      0x9e9b5f97\n      gt\n      tag_21\n      jumpi\n      dup1\n      0xe5061d89\n      gt\n      tag_22\n      jumpi\n      dup1\n      0xe5061d89\n      eq\n      tag_16\n      jumpi\n      dup1\n      0xed1a8b45\n      eq\n      tag_17\n      jumpi\n      dup1\n      0xf2fde38b\n      eq\n      tag_18\n      jumpi\n      dup1\n      0xf5ff5c76\n      eq\n      tag_19\n      jumpi\n      dup1\n      0xff4c2254\n      eq\n      tag_20\n      jumpi\n      jump(tag_2)\n    tag_22:\n      dup1\n      0x9e9b5f97\n      eq\n      tag_12\n      jumpi\n      dup1\n      0xaa624ffa\n      eq\n      tag_13\n      jumpi\n      dup1\n      0xbc5a318a\n      eq\n      tag_14\n      jumpi\n      dup1\n      0xbcf685ed\n      eq\n      tag_15\n      jumpi\n      jump(tag_2)\n    tag_21:\n      dup1\n      0x69d70075\n      gt\n      tag_23\n      jumpi\n      dup1\n      0x69d70075\n      eq\n      tag_7\n      jumpi\n      dup1\n      0x715018a6\n      eq\n      tag_8\n      jumpi\n      dup1\n      0x8da5cb5b\n      eq\n      tag_9\n      jumpi\n      dup1\n      0x943450dd\n      eq\n      tag_10\n      jumpi\n      dup1\n      0x9cb52525\n      eq\n      tag_11\n      jumpi\n      jump(tag_2)\n    tag_23:\n      dup1\n      0x7b5562\n      eq\n      tag_3\n      jumpi\n      dup1\n      0x0aa666c2\n      eq\n      tag_4\n      jumpi\n      dup1\n      0x29f2ebb9\n      eq\n      tag_5\n      jumpi\n      dup1\n      0x39c7fcef\n      eq\n      tag_6\n      jumpi\n    tag_2:\n      0x00\n      dup1\n      revert\n        /* \"ShockSpace/utils/SSMainPartial.sol\":9174:9226  mapping(address => uint256[]) public activeBuyOrders */\n    tag_3:\n      tag_24\n      tag_25\n      calldatasize\n      0x04\n      tag_26\n      jump\t// in\n    tag_25:\n      tag_27\n      jump\t// in\n    tag_24:\n      mload(0x40)\n      tag_28\n      swap2\n      swap1\n      tag_29\n      jump\t// in\n    tag_28:\n      mload(0x40)\n      dup1\n      swap2\n      sub\n      swap1\n      return\n        /* \"ShockSpace/utils/SSMainPartial.sol\":9093:9168  mapping(address => mapping(uint256 => uint256)) public payoutPendingAmounts */\n    tag_4:\n      tag_24\n      tag_31\n      calldatasize\n      0x04\n      tag_26\n      jump\t// in\n    tag_31:\n      tag_32\n      jump\t// in\n        /* \"ShockSpace/utils/SSMainPartial.sol\":9351:9406  mapping(address => uint256[]) public activeShortPayouts */\n    tag_5:\n      tag_24\n      tag_35\n      calldatasize\n      0x04\n      tag_26\n      jump\t// in\n    tag_35:\n      tag_36\n      jump\t// in\n        /* \"ShockSpace/utils/SSMainPartial.sol\":8714:8760  mapping(address => bool) public isValidListing */\n    tag_6:\n      tag_38\n      tag_39\n      calldatasize\n      0x04\n      tag_40\n      jump\t// in\n    tag_39:\n      tag_41\n      jump\t// in\n    tag_38:\n      mload(0x40)\n      tag_28\n      swap2\n      swap1\n      tag_43\n      jump\t// in\n        /* \"ShockSpace/utils/SSMainPartial.sol\":8766:8817  mapping(address => address) public liquidityAddress */\n    tag_7:\n      tag_44\n      tag_45\n      calldatasize\n      0x04\n      tag_40\n      jump\t// in\n    tag_45:\n      tag_46\n      jump\t// in\n    tag_44:\n      mload(0x40)\n      tag_28\n      swap2\n      swap1\n      tag_48\n      jump\t// in\n        /* \"ShockSpace/imports/Ownable.sol\":1817:1918  function renounceOwnership() public virtual onlyOwner {... */\n    tag_8:\n      tag_49\n      tag_50\n      jump\t// in\n    tag_49:\n      stop\n        /* \"ShockSpace/imports/Ownable.sol\":1194:1279  function owner() public view virtual returns (address) {... */\n    tag_9:\n      tag_44\n      tag_52\n      jump\t// in\n        /* \"ShockSpace/utils/SSMainPartial.sol\":8823:8864  mapping(address => address) public tokenA */\n    tag_10:\n      tag_44\n      tag_55\n      calldatasize\n      0x04\n      tag_40\n      jump\t// in\n    tag_55:\n      tag_56\n      jump\t// in\n        /* \"ShockSpace/utils/SSMainPartial.sol\":8870:8911  mapping(address => address) public tokenB */\n    tag_11:\n      tag_44\n      tag_59\n      calldatasize\n      0x04\n      tag_40\n      jump\t// in\n    tag_59:\n      tag_60\n      jump\t// in\n        /* \"ShockSpace/utils/SSMainPartial.sol\":8965:9007  mapping(address => uint8) public decimalsB */\n    tag_12:\n      tag_62\n      tag_63\n      calldatasize\n      0x04\n      tag_40\n      jump\t// in\n    tag_63:\n      tag_64\n      jump\t// in\n    tag_62:\n      mload(0x40)\n      tag_28\n      swap2\n      swap1\n      tag_66\n      jump\t// in\n        /* \"ShockSpace/utils/SSMainPartial.sol\":8917:8959  mapping(address => uint8) public decimalsA */\n    tag_13:\n      tag_62\n      tag_68\n      calldatasize\n      0x04\n      tag_40\n      jump\t// in\n    tag_68:\n      tag_69\n      jump\t// in\n        /* \"ShockSpace/utils/SSMainPartial.sol\":9412:9486  mapping(address => mapping(address => uint256[])) public makerActiveOrders */\n    tag_14:\n      tag_24\n      tag_72\n      calldatasize\n      0x04\n      tag_73\n      jump\t// in\n    tag_72:\n      tag_74\n      jump\t// in\n        /* \"ShockSpace/utils/SSMainPartial.sol\":9621:9775  function setAgent(address newAgent) external onlyOwner {... */\n    tag_15:\n      tag_49\n      tag_77\n      calldatasize\n      0x04\n      tag_40\n      jump\t// in\n    tag_77:\n      tag_78\n      jump\t// in\n        /* \"ShockSpace/utils/SSMainPartial.sol\":9232:9285  mapping(address => uint256[]) public activeSellOrders */\n    tag_16:\n      tag_24\n      tag_80\n      calldatasize\n      0x04\n      tag_26\n      jump\t// in\n    tag_80:\n      tag_81\n      jump\t// in\n        /* \"ShockSpace/utils/SSMainPartial.sol\":9013:9087  mapping(address => mapping(uint256 => uint256)) public orderPendingAmounts */\n    tag_17:\n      tag_24\n      tag_84\n      calldatasize\n      0x04\n      tag_26\n      jump\t// in\n    tag_84:\n      tag_85\n      jump\t// in\n        /* \"ShockSpace/imports/Ownable.sol\":2067:2265  function transferOwnership(address newOwner) public virtual onlyOwner {... */\n    tag_18:\n      tag_49\n      tag_88\n      calldatasize\n      0x04\n      tag_40\n      jump\t// in\n    tag_88:\n      tag_89\n      jump\t// in\n        /* \"ShockSpace/utils/SSMainPartial.sol\":7958:7978  address public agent */\n    tag_19:\n      tag_44\n      tag_91\n      jump\t// in\n        /* \"ShockSpace/utils/SSMainPartial.sol\":9291:9345  mapping(address => uint256[]) public activeLongPayouts */\n    tag_20:\n      tag_24\n      tag_94\n      calldatasize\n      0x04\n      tag_26\n      jump\t// in\n    tag_94:\n      tag_95\n      jump\t// in\n        /* \"ShockSpace/utils/SSMainPartial.sol\":9174:9226  mapping(address => uint256[]) public activeBuyOrders */\n    tag_27:\n      mstore(0x20, 0x0b)\n      dup2\n      0x00\n      mstore\n      keccak256(0x00, 0x40)\n      dup2\n      dup2\n      sload\n      dup2\n      lt\n      tag_97\n      jumpi\n      0x00\n      dup1\n      revert\n    tag_97:\n      swap1\n      0x00\n      mstore\n      keccak256(0x00, 0x20)\n      add\n      0x00\n      swap2\n      pop\n      swap2\n      pop\n      pop\n      sload\n      dup2\n      jump\t// out\n        /* \"ShockSpace/utils/SSMainPartial.sol\":9093:9168  mapping(address => mapping(uint256 => uint256)) public payoutPendingAmounts */\n    tag_32:\n      0x0a\n      0x20\n      swap1\n      dup2\n      mstore\n      0x00\n      swap3\n      dup4\n      mstore\n      0x40\n      dup1\n      dup5\n      keccak256\n      swap1\n      swap2\n      mstore\n      swap1\n      dup3\n      mstore\n      swap1\n      keccak256\n      sload\n      dup2\n      jump\t// out\n        /* \"ShockSpace/utils/SSMainPartial.sol\":9351:9406  mapping(address => uint256[]) public activeShortPayouts */\n    tag_36:\n      mstore(0x20, 0x0e)\n      dup2\n      0x00\n      mstore\n      keccak256(0x00, 0x40)\n      dup2\n      dup2\n      sload\n      dup2\n      lt\n      tag_97\n      jumpi\n      0x00\n      dup1\n      revert\n        /* \"ShockSpace/utils/SSMainPartial.sol\":8714:8760  mapping(address => bool) public isValidListing */\n    tag_41:\n      mstore(0x20, 0x03)\n      0x00\n      swap1\n      dup2\n      mstore\n      0x40\n      swap1\n      keccak256\n      sload\n      0xff\n      and\n      dup2\n      jump\t// out\n        /* \"ShockSpace/utils/SSMainPartial.sol\":8766:8817  mapping(address => address) public liquidityAddress */\n    tag_46:\n      mstore(0x20, 0x04)\n      0x00\n      swap1\n      dup2\n      mstore\n      0x40\n      swap1\n      keccak256\n      sload\n      sub(shl(0xa0, 0x01), 0x01)\n      and\n      dup2\n      jump\t// out\n        /* \"ShockSpace/imports/Ownable.sol\":1817:1918  function renounceOwnership() public virtual onlyOwner {... */\n    tag_50:\n        /* \"ShockSpace/imports/Ownable.sol\":1087:1100  _checkOwner() */\n      tag_102\n        /* \"ShockSpace/imports/Ownable.sol\":1087:1098  _checkOwner */\n      tag_103\n        /* \"ShockSpace/imports/Ownable.sol\":1087:1100  _checkOwner() */\n      jump\t// in\n    tag_102:\n        /* \"ShockSpace/imports/Ownable.sol\":1881:1911  _transferOwnership(address(0)) */\n      tag_105\n        /* \"ShockSpace/imports/Ownable.sol\":1908:1909  0 */\n      0x00\n        /* \"ShockSpace/imports/Ownable.sol\":1881:1899  _transferOwnership */\n      tag_106\n        /* \"ShockSpace/imports/Ownable.sol\":1881:1911  _transferOwnership(address(0)) */\n      jump\t// in\n    tag_105:\n        /* \"ShockSpace/imports/Ownable.sol\":1817:1918  function renounceOwnership() public virtual onlyOwner {... */\n      jump\t// out\n        /* \"ShockSpace/imports/Ownable.sol\":1194:1279  function owner() public view virtual returns (address) {... */\n    tag_52:\n        /* \"ShockSpace/imports/Ownable.sol\":1266:1272  _owner */\n      and(sub(shl(0xa0, 0x01), 0x01), sload(0x01))\n        /* \"ShockSpace/imports/Ownable.sol\":1194:1279  function owner() public view virtual returns (address) {... */\n      swap1\n      jump\t// out\n        /* \"ShockSpace/utils/SSMainPartial.sol\":8823:8864  mapping(address => address) public tokenA */\n    tag_56:\n      mstore(0x20, 0x05)\n      0x00\n      swap1\n      dup2\n      mstore\n      0x40\n      swap1\n      keccak256\n      sload\n      sub(shl(0xa0, 0x01), 0x01)\n      and\n      dup2\n      jump\t// out\n        /* \"ShockSpace/utils/SSMainPartial.sol\":8870:8911  mapping(address => address) public tokenB */\n    tag_60:\n      mstore(0x20, 0x06)\n      0x00\n      swap1\n      dup2\n      mstore\n      0x40\n      swap1\n      keccak256\n      sload\n      sub(shl(0xa0, 0x01), 0x01)\n      and\n      dup2\n      jump\t// out\n        /* \"ShockSpace/utils/SSMainPartial.sol\":8965:9007  mapping(address => uint8) public decimalsB */\n    tag_64:\n      mstore(0x20, 0x08)\n      0x00\n      swap1\n      dup2\n      mstore\n      0x40\n      swap1\n      keccak256\n      sload\n      0xff\n      and\n      dup2\n      jump\t// out\n        /* \"ShockSpace/utils/SSMainPartial.sol\":8917:8959  mapping(address => uint8) public decimalsA */\n    tag_69:\n      mstore(0x20, 0x07)\n      0x00\n      swap1\n      dup2\n      mstore\n      0x40\n      swap1\n      keccak256\n      sload\n      0xff\n      and\n      dup2\n      jump\t// out\n        /* \"ShockSpace/utils/SSMainPartial.sol\":9412:9486  mapping(address => mapping(address => uint256[])) public makerActiveOrders */\n    tag_74:\n      mstore(0x20, 0x0f)\n      dup3\n      0x00\n      mstore\n      mstore(0x20, keccak256(0x00, 0x40))\n      dup2\n      0x00\n      mstore\n      keccak256(0x00, 0x40)\n      dup2\n      dup2\n      sload\n      dup2\n      lt\n      tag_108\n      jumpi\n      0x00\n      dup1\n      revert\n    tag_108:\n      swap1\n      0x00\n      mstore\n      keccak256(0x00, 0x20)\n      add\n      0x00\n      swap3\n      pop\n      swap3\n      pop\n      pop\n      pop\n      sload\n      dup2\n      jump\t// out\n        /* \"ShockSpace/utils/SSMainPartial.sol\":9621:9775  function setAgent(address newAgent) external onlyOwner {... */\n    tag_78:\n        /* \"ShockSpace/imports/Ownable.sol\":1087:1100  _checkOwner() */\n      tag_111\n        /* \"ShockSpace/imports/Ownable.sol\":1087:1098  _checkOwner */\n      tag_103\n        /* \"ShockSpace/imports/Ownable.sol\":1087:1100  _checkOwner() */\n      jump\t// in\n    tag_111:\n      sub(shl(0xa0, 0x01), 0x01)\n        /* \"ShockSpace/utils/SSMainPartial.sol\":9694:9716  newAgent != address(0) */\n      dup2\n      and\n        /* \"ShockSpace/utils/SSMainPartial.sol\":9686:9742  require(newAgent != address(0), \"Invalid agent address\") */\n      tag_113\n      jumpi\n      mload(0x40)\n      shl(0xe5, 0x461bcd)\n      dup2\n      mstore\n      0x04\n      add\n      tag_114\n      swap1\n      tag_115\n      jump\t// in\n    tag_114:\n      mload(0x40)\n      dup1\n      swap2\n      sub\n      swap1\n      revert\n    tag_113:\n        /* \"ShockSpace/utils/SSMainPartial.sol\":9752:9757  agent */\n      0x02\n        /* \"ShockSpace/utils/SSMainPartial.sol\":9752:9768  agent = newAgent */\n      dup1\n      sload\n      not(sub(shl(0xa0, 0x01), 0x01))\n      and\n      sub(shl(0xa0, 0x01), 0x01)\n      swap3\n      swap1\n      swap3\n      and\n      swap2\n      swap1\n      swap2\n      or\n      swap1\n      sstore\n        /* \"ShockSpace/utils/SSMainPartial.sol\":9621:9775  function setAgent(address newAgent) external onlyOwner {... */\n      jump\t// out\n        /* \"ShockSpace/utils/SSMainPartial.sol\":9232:9285  mapping(address => uint256[]) public activeSellOrders */\n    tag_81:\n      mstore(0x20, 0x0c)\n      dup2\n      0x00\n      mstore\n      keccak256(0x00, 0x40)\n      dup2\n      dup2\n      sload\n      dup2\n      lt\n      tag_97\n      jumpi\n      0x00\n      dup1\n      revert\n        /* \"ShockSpace/utils/SSMainPartial.sol\":9013:9087  mapping(address => mapping(uint256 => uint256)) public orderPendingAmounts */\n    tag_85:\n      0x09\n      0x20\n      swap1\n      dup2\n      mstore\n      0x00\n      swap3\n      dup4\n      mstore\n      0x40\n      dup1\n      dup5\n      keccak256\n      swap1\n      swap2\n      mstore\n      swap1\n      dup3\n      mstore\n      swap1\n      keccak256\n      sload\n      dup2\n      jump\t// out\n        /* \"ShockSpace/imports/Ownable.sol\":2067:2265  function transferOwnership(address newOwner) public virtual onlyOwner {... */\n    tag_89:\n        /* \"ShockSpace/imports/Ownable.sol\":1087:1100  _checkOwner() */\n      tag_119\n        /* \"ShockSpace/imports/Ownable.sol\":1087:1098  _checkOwner */\n      tag_103\n        /* \"ShockSpace/imports/Ownable.sol\":1087:1100  _checkOwner() */\n      jump\t// in\n    tag_119:\n      sub(shl(0xa0, 0x01), 0x01)\n        /* \"ShockSpace/imports/Ownable.sol\":2155:2177  newOwner != address(0) */\n      dup2\n      and\n        /* \"ShockSpace/imports/Ownable.sol\":2147:2220  require(newOwner != address(0), \"Ownable: new owner is the zero address\") */\n      tag_121\n      jumpi\n      mload(0x40)\n      shl(0xe5, 0x461bcd)\n      dup2\n      mstore\n      0x04\n      add\n      tag_114\n      swap1\n      tag_123\n      jump\t// in\n    tag_121:\n        /* \"ShockSpace/imports/Ownable.sol\":2230:2258  _transferOwnership(newOwner) */\n      tag_124\n        /* \"ShockSpace/imports/Ownable.sol\":2249:2257  newOwner */\n      dup2\n        /* \"ShockSpace/imports/Ownable.sol\":2230:2248  _transferOwnership */\n      tag_106\n        /* \"ShockSpace/imports/Ownable.sol\":2230:2258  _transferOwnership(newOwner) */\n      jump\t// in\n    tag_124:\n        /* \"ShockSpace/imports/Ownable.sol\":2067:2265  function transferOwnership(address newOwner) public virtual onlyOwner {... */\n      pop\n      jump\t// out\n        /* \"ShockSpace/utils/SSMainPartial.sol\":7958:7978  address public agent */\n    tag_91:\n      and(sub(shl(0xa0, 0x01), 0x01), sload(0x02))\n      dup2\n      jump\t// out\n        /* \"ShockSpace/utils/SSMainPartial.sol\":9291:9345  mapping(address => uint256[]) public activeLongPayouts */\n    tag_95:\n      mstore(0x20, 0x0d)\n      dup2\n      0x00\n      mstore\n      keccak256(0x00, 0x40)\n      dup2\n      dup2\n      sload\n      dup2\n      lt\n      tag_97\n      jumpi\n      0x00\n      dup1\n      revert\n        /* \"ShockSpace/imports/Ownable.sol\":1352:1482  function _checkOwner() internal view virtual {... */\n    tag_103:\n        /* \"ShockSpace/imports/Ownable.sol\":1426:1438  _msgSender() */\n      tag_128\n        /* \"ShockSpace/imports/Ownable.sol\":1426:1436  _msgSender */\n      tag_129\n        /* \"ShockSpace/imports/Ownable.sol\":1426:1438  _msgSender() */\n      jump\t// in\n    tag_128:\n      sub(shl(0xa0, 0x01), 0x01)\n        /* \"ShockSpace/imports/Ownable.sol\":1415:1438  owner() == _msgSender() */\n      and\n        /* \"ShockSpace/imports/Ownable.sol\":1415:1422  owner() */\n      tag_130\n        /* \"ShockSpace/imports/Ownable.sol\":1415:1420  owner */\n      tag_52\n        /* \"ShockSpace/imports/Ownable.sol\":1415:1422  owner() */\n      jump\t// in\n    tag_130:\n      sub(shl(0xa0, 0x01), 0x01)\n        /* \"ShockSpace/imports/Ownable.sol\":1415:1438  owner() == _msgSender() */\n      and\n      eq\n        /* \"ShockSpace/imports/Ownable.sol\":1407:1475  require(owner() == _msgSender(), \"Ownable: caller is not the owner\") */\n      tag_105\n      jumpi\n      mload(0x40)\n      shl(0xe5, 0x461bcd)\n      dup2\n      mstore\n      0x04\n      add\n      tag_114\n      swap1\n      tag_133\n      jump\t// in\n        /* \"ShockSpace/imports/Ownable.sol\":2419:2606  function _transferOwnership(address newOwner) internal virtual {... */\n    tag_106:\n        /* \"ShockSpace/imports/Ownable.sol\":2511:2517  _owner */\n      0x01\n      dup1\n      sload\n      sub(shl(0xa0, 0x01), 0x01)\n        /* \"ShockSpace/imports/Ownable.sol\":2527:2544  _owner = newOwner */\n      dup4\n      dup2\n      and\n      not(sub(shl(0xa0, 0x01), 0x01))\n      dup4\n      and\n      dup2\n      or\n      swap1\n      swap4\n      sstore\n        /* \"ShockSpace/imports/Ownable.sol\":2559:2599  OwnershipTransferred(oldOwner, newOwner) */\n      mload(0x40)\n        /* \"ShockSpace/imports/Ownable.sol\":2511:2517  _owner */\n      swap2\n      and\n      swap2\n        /* \"ShockSpace/imports/Ownable.sol\":2527:2544  _owner = newOwner */\n      swap1\n        /* \"ShockSpace/imports/Ownable.sol\":2511:2517  _owner */\n      dup3\n      swap1\n        /* \"ShockSpace/imports/Ownable.sol\":2559:2599  OwnershipTransferred(oldOwner, newOwner) */\n      0x8be0079c531659141344cd1fd0a4f28419497f9722a3daafe3b4186f6b6457e0\n      swap1\n        /* \"ShockSpace/imports/Ownable.sol\":2492:2508  address oldOwner */\n      0x00\n      swap1\n        /* \"ShockSpace/imports/Ownable.sol\":2559:2599  OwnershipTransferred(oldOwner, newOwner) */\n      log3\n        /* \"ShockSpace/imports/Ownable.sol\":2419:2606  function _transferOwnership(address newOwner) internal virtual {... */\n      pop\n      pop\n      jump\t// out\n        /* \"ShockSpace/imports/Context.sol\":640:736  function _msgSender() internal view virtual returns (address) {... */\n    tag_129:\n        /* \"ShockSpace/imports/Context.sol\":719:729  msg.sender */\n      caller\n        /* \"ShockSpace/imports/Context.sol\":640:736  function _msgSender() internal view virtual returns (address) {... */\n      swap1\n      jump\t// out\n        /* \"#utility.yul\":14:189   */\n    tag_137:\n        /* \"#utility.yul\":84:104   */\n      dup1\n      calldataload\n      sub(shl(0xa0, 0x01), 0x01)\n        /* \"#utility.yul\":133:164   */\n      dup2\n      and\n        /* \"#utility.yul\":123:165   */\n      dup2\n      eq\n        /* \"#utility.yul\":113:115   */\n      tag_139\n      jumpi\n        /* \"#utility.yul\":179:180   */\n      0x00\n        /* \"#utility.yul\":176:177   */\n      dup1\n        /* \"#utility.yul\":169:181   */\n      revert\n        /* \"#utility.yul\":113:115   */\n    tag_139:\n        /* \"#utility.yul\":65:189   */\n      swap2\n      swap1\n      pop\n      jump\t// out\n        /* \"#utility.yul\":194:392   */\n    tag_40:\n      0x00\n        /* \"#utility.yul\":306:308   */\n      0x20\n        /* \"#utility.yul\":294:303   */\n      dup3\n        /* \"#utility.yul\":285:292   */\n      dup5\n        /* \"#utility.yul\":281:304   */\n      sub\n        /* \"#utility.yul\":277:309   */\n      slt\n        /* \"#utility.yul\":274:276   */\n      iszero\n      tag_141\n      jumpi\n        /* \"#utility.yul\":327:333   */\n      dup1\n        /* \"#utility.yul\":319:325   */\n      dup2\n        /* \"#utility.yul\":312:334   */\n      revert\n        /* \"#utility.yul\":274:276   */\n    tag_141:\n        /* \"#utility.yul\":355:386   */\n      tag_142\n        /* \"#utility.yul\":376:385   */\n      dup3\n        /* \"#utility.yul\":355:386   */\n      tag_137\n      jump\t// in\n    tag_142:\n        /* \"#utility.yul\":345:386   */\n      swap4\n        /* \"#utility.yul\":264:392   */\n      swap3\n      pop\n      pop\n      pop\n      jump\t// out\n        /* \"#utility.yul\":397:739   */\n    tag_73:\n      0x00\n      dup1\n      0x00\n        /* \"#utility.yul\":543:545   */\n      0x60\n        /* \"#utility.yul\":531:540   */\n      dup5\n        /* \"#utility.yul\":522:529   */\n      dup7\n        /* \"#utility.yul\":518:541   */\n      sub\n        /* \"#utility.yul\":514:546   */\n      slt\n        /* \"#utility.yul\":511:513   */\n      iszero\n      tag_144\n      jumpi\n        /* \"#utility.yul\":564:570   */\n      dup2\n        /* \"#utility.yul\":556:562   */\n      dup3\n        /* \"#utility.yul\":549:571   */\n      revert\n        /* \"#utility.yul\":511:513   */\n    tag_144:\n        /* \"#utility.yul\":592:623   */\n      tag_145\n        /* \"#utility.yul\":613:622   */\n      dup5\n        /* \"#utility.yul\":592:623   */\n      tag_137\n      jump\t// in\n    tag_145:\n        /* \"#utility.yul\":582:623   */\n      swap3\n      pop\n        /* \"#utility.yul\":642:682   */\n      tag_146\n        /* \"#utility.yul\":678:680   */\n      0x20\n        /* \"#utility.yul\":667:676   */\n      dup6\n        /* \"#utility.yul\":663:681   */\n      add\n        /* \"#utility.yul\":642:682   */\n      tag_137\n      jump\t// in\n    tag_146:\n        /* \"#utility.yul\":632:682   */\n      swap2\n      pop\n        /* \"#utility.yul\":729:731   */\n      0x40\n        /* \"#utility.yul\":718:727   */\n      dup5\n        /* \"#utility.yul\":714:732   */\n      add\n        /* \"#utility.yul\":701:733   */\n      calldataload\n        /* \"#utility.yul\":691:733   */\n      swap1\n      pop\n        /* \"#utility.yul\":501:739   */\n      swap3\n      pop\n      swap3\n      pop\n      swap3\n      jump\t// out\n        /* \"#utility.yul\":744:1010   */\n    tag_26:\n      0x00\n      dup1\n        /* \"#utility.yul\":873:875   */\n      0x40\n        /* \"#utility.yul\":861:870   */\n      dup4\n        /* \"#utility.yul\":852:859   */\n      dup6\n        /* \"#utility.yul\":848:871   */\n      sub\n        /* \"#utility.yul\":844:876   */\n      slt\n        /* \"#utility.yul\":841:843   */\n      iszero\n      tag_148\n      jumpi\n        /* \"#utility.yul\":894:900   */\n      dup2\n        /* \"#utility.yul\":886:892   */\n      dup3\n        /* \"#utility.yul\":879:901   */\n      revert\n        /* \"#utility.yul\":841:843   */\n    tag_148:\n        /* \"#utility.yul\":922:953   */\n      tag_149\n        /* \"#utility.yul\":943:952   */\n      dup4\n        /* \"#utility.yul\":922:953   */\n      tag_137\n      jump\t// in\n    tag_149:\n        /* \"#utility.yul\":912:953   */\n      swap5\n        /* \"#utility.yul\":1000:1002   */\n      0x20\n        /* \"#utility.yul\":985:1003   */\n      swap4\n      swap1\n      swap4\n      add\n        /* \"#utility.yul\":972:1004   */\n      calldataload\n      swap4\n      pop\n      pop\n      pop\n        /* \"#utility.yul\":831:1010   */\n      jump\t// out\n        /* \"#utility.yul\":1015:1218   */\n    tag_48:\n      sub(shl(0xa0, 0x01), 0x01)\n        /* \"#utility.yul\":1179:1211   */\n      swap2\n      swap1\n      swap2\n      and\n        /* \"#utility.yul\":1161:1212   */\n      dup2\n      mstore\n        /* \"#utility.yul\":1149:1151   */\n      0x20\n        /* \"#utility.yul\":1134:1152   */\n      add\n      swap1\n        /* \"#utility.yul\":1116:1218   */\n      jump\t// out\n        /* \"#utility.yul\":1223:1410   */\n    tag_43:\n        /* \"#utility.yul\":1388:1402   */\n      swap1\n      iszero\n        /* \"#utility.yul\":1381:1403   */\n      iszero\n        /* \"#utility.yul\":1363:1404   */\n      dup2\n      mstore\n        /* \"#utility.yul\":1351:1353   */\n      0x20\n        /* \"#utility.yul\":1336:1354   */\n      add\n      swap1\n        /* \"#utility.yul\":1318:1410   */\n      jump\t// out\n        /* \"#utility.yul\":1415:1817   */\n    tag_123:\n        /* \"#utility.yul\":1617:1619   */\n      0x20\n        /* \"#utility.yul\":1599:1620   */\n      dup1\n      dup3\n      mstore\n        /* \"#utility.yul\":1656:1658   */\n      0x26\n        /* \"#utility.yul\":1636:1654   */\n      swap1\n      dup3\n      add\n        /* \"#utility.yul\":1629:1659   */\n      mstore\n        /* \"#utility.yul\":1695:1729   */\n      0x4f776e61626c653a206e6577206f776e657220697320746865207a65726f2061\n        /* \"#utility.yul\":1690:1692   */\n      0x40\n        /* \"#utility.yul\":1675:1693   */\n      dup3\n      add\n        /* \"#utility.yul\":1668:1730   */\n      mstore\n      shl(0xd0, 0x646472657373)\n        /* \"#utility.yul\":1761:1763   */\n      0x60\n        /* \"#utility.yul\":1746:1764   */\n      dup3\n      add\n        /* \"#utility.yul\":1739:1775   */\n      mstore\n        /* \"#utility.yul\":1807:1810   */\n      0x80\n        /* \"#utility.yul\":1792:1811   */\n      add\n      swap1\n        /* \"#utility.yul\":1589:1817   */\n      jump\t// out\n        /* \"#utility.yul\":1822:2178   */\n    tag_133:\n        /* \"#utility.yul\":2024:2026   */\n      0x20\n        /* \"#utility.yul\":2006:2027   */\n      dup1\n      dup3\n      mstore\n        /* \"#utility.yul\":2043:2061   */\n      dup2\n      dup2\n      add\n        /* \"#utility.yul\":2036:2066   */\n      mstore\n        /* \"#utility.yul\":2102:2136   */\n      0x4f776e61626c653a2063616c6c6572206973206e6f7420746865206f776e6572\n        /* \"#utility.yul\":2097:2099   */\n      0x40\n        /* \"#utility.yul\":2082:2100   */\n      dup3\n      add\n        /* \"#utility.yul\":2075:2137   */\n      mstore\n        /* \"#utility.yul\":2169:2171   */\n      0x60\n        /* \"#utility.yul\":2154:2172   */\n      add\n      swap1\n        /* \"#utility.yul\":1996:2178   */\n      jump\t// out\n        /* \"#utility.yul\":2183:2528   */\n    tag_115:\n        /* \"#utility.yul\":2385:2387   */\n      0x20\n        /* \"#utility.yul\":2367:2388   */\n      dup1\n      dup3\n      mstore\n        /* \"#utility.yul\":2424:2426   */\n      0x15\n        /* \"#utility.yul\":2404:2422   */\n      swap1\n      dup3\n      add\n        /* \"#utility.yul\":2397:2427   */\n      mstore\n      shl(0x58, 0x496e76616c6964206167656e742061646472657373)\n        /* \"#utility.yul\":2458:2460   */\n      0x40\n        /* \"#utility.yul\":2443:2461   */\n      dup3\n      add\n        /* \"#utility.yul\":2436:2487   */\n      mstore\n        /* \"#utility.yul\":2519:2521   */\n      0x60\n        /* \"#utility.yul\":2504:2522   */\n      add\n      swap1\n        /* \"#utility.yul\":2357:2528   */\n      jump\t// out\n        /* \"#utility.yul\":2533:2710   */\n    tag_29:\n        /* \"#utility.yul\":2679:2704   */\n      swap1\n      dup2\n      mstore\n        /* \"#utility.yul\":2667:2669   */\n      0x20\n        /* \"#utility.yul\":2652:2670   */\n      add\n      swap1\n        /* \"#utility.yul\":2634:2710   */\n      jump\t// out\n        /* \"#utility.yul\":2715:2899   */\n    tag_66:\n        /* \"#utility.yul\":2887:2891   */\n      0xff\n        /* \"#utility.yul\":2875:2892   */\n      swap2\n      swap1\n      swap2\n      and\n        /* \"#utility.yul\":2857:2893   */\n      dup2\n      mstore\n        /* \"#utility.yul\":2845:2847   */\n      0x20\n        /* \"#utility.yul\":2830:2848   */\n      add\n      swap1\n        /* \"#utility.yul\":2812:2899   */\n      jump\t// out\n\n    auxdata: 0xa2646970667358221220981d8c2d8abd630911a561fc3fb89f05f304cf9ceba5bb7a5fe7b944fee4c5bb64736f6c63430008010033\n}\n",
				"bytecode": {
					"linkReferences": {},
					"object": "608060405234801561001057600080fd5b50600160005561002661002161002b565b61002f565b610081565b3390565b600180546001600160a01b038381166001600160a01b0319831681179093556040519116919082907f8be0079c531659141344cd1fd0a4f28419497f9722a3daafe3b4186f6b6457e090600090a35050565b61072c806100906000396000f3fe608060405234801561001057600080fd5b50600436106101155760003560e01c80639e9b5f97116100a2578063e5061d8911610071578063e5061d891461023a578063ed1a8b451461024d578063f2fde38b14610260578063f5ff5c7614610273578063ff4c22541461027b57610115565b80639e9b5f97146101e1578063aa624ffa14610201578063bc5a318a14610214578063bcf685ed1461022757610115565b806369d70075116100e957806369d7007514610189578063715018a6146101a95780638da5cb5b146101b3578063943450dd146101bb5780639cb52525146101ce57610115565b80627b55621461011a5780630aa666c21461014357806329f2ebb91461015657806339c7fcef14610169575b600080fd5b61012d6101283660046105ed565b61028e565b60405161013a91906106df565b60405180910390f35b61012d6101513660046105ed565b6102bf565b61012d6101643660046105ed565b6102dc565b61017c610177366004610591565b6102f8565b60405161013a919061062a565b61019c610197366004610591565b61030d565b60405161013a9190610616565b6101b1610328565b005b61019c61033c565b61019c6101c9366004610591565b61034b565b61019c6101dc366004610591565b610366565b6101f46101ef366004610591565b610381565b60405161013a91906106e8565b6101f461020f366004610591565b610396565b61012d6102223660046105b2565b6103ab565b6101b1610235366004610591565b6103e9565b61012d6102483660046105ed565b610442565b61012d61025b3660046105ed565b61045e565b6101b161026e366004610591565b61047b565b61019c6104b5565b61012d6102893660046105ed565b6104c4565b600b60205281600052604060002081815481106102aa57600080fd5b90600052602060002001600091509150505481565b600a60209081526000928352604080842090915290825290205481565b600e60205281600052604060002081815481106102aa57600080fd5b60036020526000908152604090205460ff1681565b6004602052600090815260409020546001600160a01b031681565b6103306104e0565b61033a600061051f565b565b6001546001600160a01b031690565b6005602052600090815260409020546001600160a01b031681565b6006602052600090815260409020546001600160a01b031681565b60086020526000908152604090205460ff1681565b60076020526000908152604090205460ff1681565b600f60205282600052604060002060205281600052604060002081815481106103d357600080fd5b9060005260206000200160009250925050505481565b6103f16104e0565b6001600160a01b0381166104205760405162461bcd60e51b8152600401610417906106b0565b60405180910390fd5b600280546001600160a01b0319166001600160a01b0392909216919091179055565b600c60205281600052604060002081815481106102aa57600080fd5b600960209081526000928352604080842090915290825290205481565b6104836104e0565b6001600160a01b0381166104a95760405162461bcd60e51b815260040161041790610635565b6104b28161051f565b50565b6002546001600160a01b031681565b600d60205281600052604060002081815481106102aa57600080fd5b6104e8610571565b6001600160a01b03166104f961033c565b6001600160a01b03161461033a5760405162461bcd60e51b81526004016104179061067b565b600180546001600160a01b038381166001600160a01b0319831681179093556040519116919082907f8be0079c531659141344cd1fd0a4f28419497f9722a3daafe3b4186f6b6457e090600090a35050565b3390565b80356001600160a01b038116811461058c57600080fd5b919050565b6000602082840312156105a2578081fd5b6105ab82610575565b9392505050565b6000806000606084860312156105c6578182fd5b6105cf84610575565b92506105dd60208501610575565b9150604084013590509250925092565b600080604083850312156105ff578182fd5b61060883610575565b946020939093013593505050565b6001600160a01b0391909116815260200190565b901515815260200190565b60208082526026908201527f4f776e61626c653a206e6577206f776e657220697320746865207a65726f206160408201526564647265737360d01b606082015260800190565b6020808252818101527f4f776e61626c653a2063616c6c6572206973206e6f7420746865206f776e6572604082015260600190565b602080825260159082015274496e76616c6964206167656e74206164647265737360581b604082015260600190565b90815260200190565b60ff9190911681526020019056fea2646970667358221220981d8c2d8abd630911a561fc3fb89f05f304cf9ceba5bb7a5fe7b944fee4c5bb64736f6c63430008010033",
					"opcodes": "PUSH1 0x80 PUSH1 0x40 MSTORE CALLVALUE DUP1 ISZERO PUSH2 0x10 JUMPI PUSH1 0x0 DUP1 REVERT JUMPDEST POP PUSH1 0x1 PUSH1 0x0 SSTORE PUSH2 0x26 PUSH2 0x21 PUSH2 0x2B JUMP JUMPDEST PUSH2 0x2F JUMP JUMPDEST PUSH2 0x81 JUMP JUMPDEST CALLER SWAP1 JUMP JUMPDEST PUSH1 0x1 DUP1 SLOAD PUSH1 0x1 PUSH1 0x1 PUSH1 0xA0 SHL SUB DUP4 DUP2 AND PUSH1 0x1 PUSH1 0x1 PUSH1 0xA0 SHL SUB NOT DUP4 AND DUP2 OR SWAP1 SWAP4 SSTORE PUSH1 0x40 MLOAD SWAP2 AND SWAP2 SWAP1 DUP3 SWAP1 PUSH32 0x8BE0079C531659141344CD1FD0A4F28419497F9722A3DAAFE3B4186F6B6457E0 SWAP1 PUSH1 0x0 SWAP1 LOG3 POP POP JUMP JUMPDEST PUSH2 0x72C DUP1 PUSH2 0x90 PUSH1 0x0 CODECOPY PUSH1 0x0 RETURN INVALID PUSH1 0x80 PUSH1 0x40 MSTORE CALLVALUE DUP1 ISZERO PUSH2 0x10 JUMPI PUSH1 0x0 DUP1 REVERT JUMPDEST POP PUSH1 0x4 CALLDATASIZE LT PUSH2 0x115 JUMPI PUSH1 0x0 CALLDATALOAD PUSH1 0xE0 SHR DUP1 PUSH4 0x9E9B5F97 GT PUSH2 0xA2 JUMPI DUP1 PUSH4 0xE5061D89 GT PUSH2 0x71 JUMPI DUP1 PUSH4 0xE5061D89 EQ PUSH2 0x23A JUMPI DUP1 PUSH4 0xED1A8B45 EQ PUSH2 0x24D JUMPI DUP1 PUSH4 0xF2FDE38B EQ PUSH2 0x260 JUMPI DUP1 PUSH4 0xF5FF5C76 EQ PUSH2 0x273 JUMPI DUP1 PUSH4 0xFF4C2254 EQ PUSH2 0x27B JUMPI PUSH2 0x115 JUMP JUMPDEST DUP1 PUSH4 0x9E9B5F97 EQ PUSH2 0x1E1 JUMPI DUP1 PUSH4 0xAA624FFA EQ PUSH2 0x201 JUMPI DUP1 PUSH4 0xBC5A318A EQ PUSH2 0x214 JUMPI DUP1 PUSH4 0xBCF685ED EQ PUSH2 0x227 JUMPI PUSH2 0x115 JUMP JUMPDEST DUP1 PUSH4 0x69D70075 GT PUSH2 0xE9 JUMPI DUP1 PUSH4 0x69D70075 EQ PUSH2 0x189 JUMPI DUP1 PUSH4 0x715018A6 EQ PUSH2 0x1A9 JUMPI DUP1 PUSH4 0x8DA5CB5B EQ PUSH2 0x1B3 JUMPI DUP1 PUSH4 0x943450DD EQ PUSH2 0x1BB JUMPI DUP1 PUSH4 0x9CB52525 EQ PUSH2 0x1CE JUMPI PUSH2 0x115 JUMP JUMPDEST DUP1 PUSH3 0x7B5562 EQ PUSH2 0x11A JUMPI DUP1 PUSH4 0xAA666C2 EQ PUSH2 0x143 JUMPI DUP1 PUSH4 0x29F2EBB9 EQ PUSH2 0x156 JUMPI DUP1 PUSH4 0x39C7FCEF EQ PUSH2 0x169 JUMPI JUMPDEST PUSH1 0x0 DUP1 REVERT JUMPDEST PUSH2 0x12D PUSH2 0x128 CALLDATASIZE PUSH1 0x4 PUSH2 0x5ED JUMP JUMPDEST PUSH2 0x28E JUMP JUMPDEST PUSH1 0x40 MLOAD PUSH2 0x13A SWAP2 SWAP1 PUSH2 0x6DF JUMP JUMPDEST PUSH1 0x40 MLOAD DUP1 SWAP2 SUB SWAP1 RETURN JUMPDEST PUSH2 0x12D PUSH2 0x151 CALLDATASIZE PUSH1 0x4 PUSH2 0x5ED JUMP JUMPDEST PUSH2 0x2BF JUMP JUMPDEST PUSH2 0x12D PUSH2 0x164 CALLDATASIZE PUSH1 0x4 PUSH2 0x5ED JUMP JUMPDEST PUSH2 0x2DC JUMP JUMPDEST PUSH2 0x17C PUSH2 0x177 CALLDATASIZE PUSH1 0x4 PUSH2 0x591 JUMP JUMPDEST PUSH2 0x2F8 JUMP JUMPDEST PUSH1 0x40 MLOAD PUSH2 0x13A SWAP2 SWAP1 PUSH2 0x62A JUMP JUMPDEST PUSH2 0x19C PUSH2 0x197 CALLDATASIZE PUSH1 0x4 PUSH2 0x591 JUMP JUMPDEST PUSH2 0x30D JUMP JUMPDEST PUSH1 0x40 MLOAD PUSH2 0x13A SWAP2 SWAP1 PUSH2 0x616 JUMP JUMPDEST PUSH2 0x1B1 PUSH2 0x328 JUMP JUMPDEST STOP JUMPDEST PUSH2 0x19C PUSH2 0x33C JUMP JUMPDEST PUSH2 0x19C PUSH2 0x1C9 CALLDATASIZE PUSH1 0x4 PUSH2 0x591 JUMP JUMPDEST PUSH2 0x34B JUMP JUMPDEST PUSH2 0x19C PUSH2 0x1DC CALLDATASIZE PUSH1 0x4 PUSH2 0x591 JUMP JUMPDEST PUSH2 0x366 JUMP JUMPDEST PUSH2 0x1F4 PUSH2 0x1EF CALLDATASIZE PUSH1 0x4 PUSH2 0x591 JUMP JUMPDEST PUSH2 0x381 JUMP JUMPDEST PUSH1 0x40 MLOAD PUSH2 0x13A SWAP2 SWAP1 PUSH2 0x6E8 JUMP JUMPDEST PUSH2 0x1F4 PUSH2 0x20F CALLDATASIZE PUSH1 0x4 PUSH2 0x591 JUMP JUMPDEST PUSH2 0x396 JUMP JUMPDEST PUSH2 0x12D PUSH2 0x222 CALLDATASIZE PUSH1 0x4 PUSH2 0x5B2 JUMP JUMPDEST PUSH2 0x3AB JUMP JUMPDEST PUSH2 0x1B1 PUSH2 0x235 CALLDATASIZE PUSH1 0x4 PUSH2 0x591 JUMP JUMPDEST PUSH2 0x3E9 JUMP JUMPDEST PUSH2 0x12D PUSH2 0x248 CALLDATASIZE PUSH1 0x4 PUSH2 0x5ED JUMP JUMPDEST PUSH2 0x442 JUMP JUMPDEST PUSH2 0x12D PUSH2 0x25B CALLDATASIZE PUSH1 0x4 PUSH2 0x5ED JUMP JUMPDEST PUSH2 0x45E JUMP JUMPDEST PUSH2 0x1B1 PUSH2 0x26E CALLDATASIZE PUSH1 0x4 PUSH2 0x591 JUMP JUMPDEST PUSH2 0x47B JUMP JUMPDEST PUSH2 0x19C PUSH2 0x4B5 JUMP JUMPDEST PUSH2 0x12D PUSH2 0x289 CALLDATASIZE PUSH1 0x4 PUSH2 0x5ED JUMP JUMPDEST PUSH2 0x4C4 JUMP JUMPDEST PUSH1 0xB PUSH1 0x20 MSTORE DUP2 PUSH1 0x0 MSTORE PUSH1 0x40 PUSH1 0x0 KECCAK256 DUP2 DUP2 SLOAD DUP2 LT PUSH2 0x2AA JUMPI PUSH1 0x0 DUP1 REVERT JUMPDEST SWAP1 PUSH1 0x0 MSTORE PUSH1 0x20 PUSH1 0x0 KECCAK256 ADD PUSH1 0x0 SWAP2 POP SWAP2 POP POP SLOAD DUP2 JUMP JUMPDEST PUSH1 0xA PUSH1 0x20 SWAP1 DUP2 MSTORE PUSH1 0x0 SWAP3 DUP4 MSTORE PUSH1 0x40 DUP1 DUP5 KECCAK256 SWAP1 SWAP2 MSTORE SWAP1 DUP3 MSTORE SWAP1 KECCAK256 SLOAD DUP2 JUMP JUMPDEST PUSH1 0xE PUSH1 0x20 MSTORE DUP2 PUSH1 0x0 MSTORE PUSH1 0x40 PUSH1 0x0 KECCAK256 DUP2 DUP2 SLOAD DUP2 LT PUSH2 0x2AA JUMPI PUSH1 0x0 DUP1 REVERT JUMPDEST PUSH1 0x3 PUSH1 0x20 MSTORE PUSH1 0x0 SWAP1 DUP2 MSTORE PUSH1 0x40 SWAP1 KECCAK256 SLOAD PUSH1 0xFF AND DUP2 JUMP JUMPDEST PUSH1 0x4 PUSH1 0x20 MSTORE PUSH1 0x0 SWAP1 DUP2 MSTORE PUSH1 0x40 SWAP1 KECCAK256 SLOAD PUSH1 0x1 PUSH1 0x1 PUSH1 0xA0 SHL SUB AND DUP2 JUMP JUMPDEST PUSH2 0x330 PUSH2 0x4E0 JUMP JUMPDEST PUSH2 0x33A PUSH1 0x0 PUSH2 0x51F JUMP JUMPDEST JUMP JUMPDEST PUSH1 0x1 SLOAD PUSH1 0x1 PUSH1 0x1 PUSH1 0xA0 SHL SUB AND SWAP1 JUMP JUMPDEST PUSH1 0x5 PUSH1 0x20 MSTORE PUSH1 0x0 SWAP1 DUP2 MSTORE PUSH1 0x40 SWAP1 KECCAK256 SLOAD PUSH1 0x1 PUSH1 0x1 PUSH1 0xA0 SHL SUB AND DUP2 JUMP JUMPDEST PUSH1 0x6 PUSH1 0x20 MSTORE PUSH1 0x0 SWAP1 DUP2 MSTORE PUSH1 0x40 SWAP1 KECCAK256 SLOAD PUSH1 0x1 PUSH1 0x1 PUSH1 0xA0 SHL SUB AND DUP2 JUMP JUMPDEST PUSH1 0x8 PUSH1 0x20 MSTORE PUSH1 0x0 SWAP1 DUP2 MSTORE PUSH1 0x40 SWAP1 KECCAK256 SLOAD PUSH1 0xFF AND DUP2 JUMP JUMPDEST PUSH1 0x7 PUSH1 0x20 MSTORE PUSH1 0x0 SWAP1 DUP2 MSTORE PUSH1 0x40 SWAP1 KECCAK256 SLOAD PUSH1 0xFF AND DUP2 JUMP JUMPDEST PUSH1 0xF PUSH1 0x20 MSTORE DUP3 PUSH1 0x0 MSTORE PUSH1 0x40 PUSH1 0x0 KECCAK256 PUSH1 0x20 MSTORE DUP2 PUSH1 0x0 MSTORE PUSH1 0x40 PUSH1 0x0 KECCAK256 DUP2 DUP2 SLOAD DUP2 LT PUSH2 0x3D3 JUMPI PUSH1 0x0 DUP1 REVERT JUMPDEST SWAP1 PUSH1 0x0 MSTORE PUSH1 0x20 PUSH1 0x0 KECCAK256 ADD PUSH1 0x0 SWAP3 POP SWAP3 POP POP POP SLOAD DUP2 JUMP JUMPDEST PUSH2 0x3F1 PUSH2 0x4E0 JUMP JUMPDEST PUSH1 0x1 PUSH1 0x1 PUSH1 0xA0 SHL SUB DUP2 AND PUSH2 0x420 JUMPI PUSH1 0x40 MLOAD PUSH3 0x461BCD PUSH1 0xE5 SHL DUP2 MSTORE PUSH1 0x4 ADD PUSH2 0x417 SWAP1 PUSH2 0x6B0 JUMP JUMPDEST PUSH1 0x40 MLOAD DUP1 SWAP2 SUB SWAP1 REVERT JUMPDEST PUSH1 0x2 DUP1 SLOAD PUSH1 0x1 PUSH1 0x1 PUSH1 0xA0 SHL SUB NOT AND PUSH1 0x1 PUSH1 0x1 PUSH1 0xA0 SHL SUB SWAP3 SWAP1 SWAP3 AND SWAP2 SWAP1 SWAP2 OR SWAP1 SSTORE JUMP JUMPDEST PUSH1 0xC PUSH1 0x20 MSTORE DUP2 PUSH1 0x0 MSTORE PUSH1 0x40 PUSH1 0x0 KECCAK256 DUP2 DUP2 SLOAD DUP2 LT PUSH2 0x2AA JUMPI PUSH1 0x0 DUP1 REVERT JUMPDEST PUSH1 0x9 PUSH1 0x20 SWAP1 DUP2 MSTORE PUSH1 0x0 SWAP3 DUP4 MSTORE PUSH1 0x40 DUP1 DUP5 KECCAK256 SWAP1 SWAP2 MSTORE SWAP1 DUP3 MSTORE SWAP1 KECCAK256 SLOAD DUP2 JUMP JUMPDEST PUSH2 0x483 PUSH2 0x4E0 JUMP JUMPDEST PUSH1 0x1 PUSH1 0x1 PUSH1 0xA0 SHL SUB DUP2 AND PUSH2 0x4A9 JUMPI PUSH1 0x40 MLOAD PUSH3 0x461BCD PUSH1 0xE5 SHL DUP2 MSTORE PUSH1 0x4 ADD PUSH2 0x417 SWAP1 PUSH2 0x635 JUMP JUMPDEST PUSH2 0x4B2 DUP2 PUSH2 0x51F JUMP JUMPDEST POP JUMP JUMPDEST PUSH1 0x2 SLOAD PUSH1 0x1 PUSH1 0x1 PUSH1 0xA0 SHL SUB AND DUP2 JUMP JUMPDEST PUSH1 0xD PUSH1 0x20 MSTORE DUP2 PUSH1 0x0 MSTORE PUSH1 0x40 PUSH1 0x0 KECCAK256 DUP2 DUP2 SLOAD DUP2 LT PUSH2 0x2AA JUMPI PUSH1 0x0 DUP1 REVERT JUMPDEST PUSH2 0x4E8 PUSH2 0x571 JUMP JUMPDEST PUSH1 0x1 PUSH1 0x1 PUSH1 0xA0 SHL SUB AND PUSH2 0x4F9 PUSH2 0x33C JUMP JUMPDEST PUSH1 0x1 PUSH1 0x1 PUSH1 0xA0 SHL SUB AND EQ PUSH2 0x33A JUMPI PUSH1 0x40 MLOAD PUSH3 0x461BCD PUSH1 0xE5 SHL DUP2 MSTORE PUSH1 0x4 ADD PUSH2 0x417 SWAP1 PUSH2 0x67B JUMP JUMPDEST PUSH1 0x1 DUP1 SLOAD PUSH1 0x1 PUSH1 0x1 PUSH1 0xA0 SHL SUB DUP4 DUP2 AND PUSH1 0x1 PUSH1 0x1 PUSH1 0xA0 SHL SUB NOT DUP4 AND DUP2 OR SWAP1 SWAP4 SSTORE PUSH1 0x40 MLOAD SWAP2 AND SWAP2 SWAP1 DUP3 SWAP1 PUSH32 0x8BE0079C531659141344CD1FD0A4F28419497F9722A3DAAFE3B4186F6B6457E0 SWAP1 PUSH1 0x0 SWAP1 LOG3 POP POP JUMP JUMPDEST CALLER SWAP1 JUMP JUMPDEST DUP1 CALLDATALOAD PUSH1 0x1 PUSH1 0x1 PUSH1 0xA0 SHL SUB DUP2 AND DUP2 EQ PUSH2 0x58C JUMPI PUSH1 0x0 DUP1 REVERT JUMPDEST SWAP2 SWAP1 POP JUMP JUMPDEST PUSH1 0x0 PUSH1 0x20 DUP3 DUP5 SUB SLT ISZERO PUSH2 0x5A2 JUMPI DUP1 DUP2 REVERT JUMPDEST PUSH2 0x5AB DUP3 PUSH2 0x575 JUMP JUMPDEST SWAP4 SWAP3 POP POP POP JUMP JUMPDEST PUSH1 0x0 DUP1 PUSH1 0x0 PUSH1 0x60 DUP5 DUP7 SUB SLT ISZERO PUSH2 0x5C6 JUMPI DUP2 DUP3 REVERT JUMPDEST PUSH2 0x5CF DUP5 PUSH2 0x575 JUMP JUMPDEST SWAP3 POP PUSH2 0x5DD PUSH1 0x20 DUP6 ADD PUSH2 0x575 JUMP JUMPDEST SWAP2 POP PUSH1 0x40 DUP5 ADD CALLDATALOAD SWAP1 POP SWAP3 POP SWAP3 POP SWAP3 JUMP JUMPDEST PUSH1 0x0 DUP1 PUSH1 0x40 DUP4 DUP6 SUB SLT ISZERO PUSH2 0x5FF JUMPI DUP2 DUP3 REVERT JUMPDEST PUSH2 0x608 DUP4 PUSH2 0x575 JUMP JUMPDEST SWAP5 PUSH1 0x20 SWAP4 SWAP1 SWAP4 ADD CALLDATALOAD SWAP4 POP POP POP JUMP JUMPDEST PUSH1 0x1 PUSH1 0x1 PUSH1 0xA0 SHL SUB SWAP2 SWAP1 SWAP2 AND DUP2 MSTORE PUSH1 0x20 ADD SWAP1 JUMP JUMPDEST SWAP1 ISZERO ISZERO DUP2 MSTORE PUSH1 0x20 ADD SWAP1 JUMP JUMPDEST PUSH1 0x20 DUP1 DUP3 MSTORE PUSH1 0x26 SWAP1 DUP3 ADD MSTORE PUSH32 0x4F776E61626C653A206E6577206F776E657220697320746865207A65726F2061 PUSH1 0x40 DUP3 ADD MSTORE PUSH6 0x646472657373 PUSH1 0xD0 SHL PUSH1 0x60 DUP3 ADD MSTORE PUSH1 0x80 ADD SWAP1 JUMP JUMPDEST PUSH1 0x20 DUP1 DUP3 MSTORE DUP2 DUP2 ADD MSTORE PUSH32 0x4F776E61626C653A2063616C6C6572206973206E6F7420746865206F776E6572 PUSH1 0x40 DUP3 ADD MSTORE PUSH1 0x60 ADD SWAP1 JUMP JUMPDEST PUSH1 0x20 DUP1 DUP3 MSTORE PUSH1 0x15 SWAP1 DUP3 ADD MSTORE PUSH21 0x496E76616C6964206167656E742061646472657373 PUSH1 0x58 SHL PUSH1 0x40 DUP3 ADD MSTORE PUSH1 0x60 ADD SWAP1 JUMP JUMPDEST SWAP1 DUP2 MSTORE PUSH1 0x20 ADD SWAP1 JUMP JUMPDEST PUSH1 0xFF SWAP2 SWAP1 SWAP2 AND DUP2 MSTORE PUSH1 0x20 ADD SWAP1 JUMP INVALID LOG2 PUSH5 0x6970667358 0x22 SLT KECCAK256 SWAP9 SAR DUP13 0x2D DUP11 0xBD PUSH4 0x911A561 0xFC EXTCODEHASH 0xB8 SWAP16 SDIV RETURN DIV 0xCF SWAP13 0xEB 0xA5 0xBB PUSH27 0x5FE7B944FEE4C5BB64736F6C634300080100330000000000000000 "
				},
				"gasEstimates": {
					"creation": {
						"codeDepositCost": "367200",
						"executionCost": "42882",
						"totalCost": "410082"
					},
					"external": {
						"activeBuyOrders(address,uint256)": "2189",
						"activeLongPayouts(address,uint256)": "2275",
						"activeSellOrders(address,uint256)": "2187",
						"activeShortPayouts(address,uint256)": "2233",
						"agent()": "1158",
						"decimalsA(address)": "1315",
						"decimalsB(address)": "1293",
						"isValidListing(address)": "1354",
						"liquidityAddress(address)": "1317",
						"makerActiveOrders(address,address,uint256)": "infinite",
						"orderPendingAmounts(address,uint256)": "1389",
						"owner()": "1137",
						"payoutPendingAmounts(address,uint256)": "1391",
						"renounceOwnership()": "infinite",
						"setAgent(address)": "22249",
						"tokenA(address)": "1383",
						"tokenB(address)": "1405",
						"transferOwnership(address)": "23792"
					}
				},
				"methodIdentifiers": {
					"activeBuyOrders(address,uint256)": "007b5562",
					"activeLongPayouts(address,uint256)": "ff4c2254",
					"activeSellOrders(address,uint256)": "e5061d89",
					"activeShortPayouts(address,uint256)": "29f2ebb9",
					"agent()": "f5ff5c76",
					"decimalsA(address)": "aa624ffa",
					"decimalsB(address)": "9e9b5f97",
					"isValidListing(address)": "39c7fcef",
					"liquidityAddress(address)": "69d70075",
					"makerActiveOrders(address,address,uint256)": "bc5a318a",
					"orderPendingAmounts(address,uint256)": "ed1a8b45",
					"owner()": "8da5cb5b",
					"payoutPendingAmounts(address,uint256)": "0aa666c2",
					"renounceOwnership()": "715018a6",
					"setAgent(address)": "bcf685ed",
					"tokenA(address)": "943450dd",
					"tokenB(address)": "9cb52525",
					"transferOwnership(address)": "f2fde38b"
				}
			},
			"storageLayout": {
				"storage": [
					{
						"astId": 569,
						"contract": "ShockSpace/utils/SSMainPartial.sol:SSMainPartial",
						"label": "_status",
						"offset": 0,
						"slot": "0",
						"type": "t_uint256"
					},
					{
						"astId": 453,
						"contract": "ShockSpace/utils/SSMainPartial.sol:SSMainPartial",
						"label": "_owner",
						"offset": 0,
						"slot": "1",
						"type": "t_address"
					},
					{
						"astId": 1508,
						"contract": "ShockSpace/utils/SSMainPartial.sol:SSMainPartial",
						"label": "agent",
						"offset": 0,
						"slot": "2",
						"type": "t_address"
					},
					{
						"astId": 1564,
						"contract": "ShockSpace/utils/SSMainPartial.sol:SSMainPartial",
						"label": "isValidListing",
						"offset": 0,
						"slot": "3",
						"type": "t_mapping(t_address,t_bool)"
					},
					{
						"astId": 1568,
						"contract": "ShockSpace/utils/SSMainPartial.sol:SSMainPartial",
						"label": "liquidityAddress",
						"offset": 0,
						"slot": "4",
						"type": "t_mapping(t_address,t_address)"
					},
					{
						"astId": 1572,
						"contract": "ShockSpace/utils/SSMainPartial.sol:SSMainPartial",
						"label": "tokenA",
						"offset": 0,
						"slot": "5",
						"type": "t_mapping(t_address,t_address)"
					},
					{
						"astId": 1576,
						"contract": "ShockSpace/utils/SSMainPartial.sol:SSMainPartial",
						"label": "tokenB",
						"offset": 0,
						"slot": "6",
						"type": "t_mapping(t_address,t_address)"
					},
					{
						"astId": 1580,
						"contract": "ShockSpace/utils/SSMainPartial.sol:SSMainPartial",
						"label": "decimalsA",
						"offset": 0,
						"slot": "7",
						"type": "t_mapping(t_address,t_uint8)"
					},
					{
						"astId": 1584,
						"contract": "ShockSpace/utils/SSMainPartial.sol:SSMainPartial",
						"label": "decimalsB",
						"offset": 0,
						"slot": "8",
						"type": "t_mapping(t_address,t_uint8)"
					},
					{
						"astId": 1590,
						"contract": "ShockSpace/utils/SSMainPartial.sol:SSMainPartial",
						"label": "orderPendingAmounts",
						"offset": 0,
						"slot": "9",
						"type": "t_mapping(t_address,t_mapping(t_uint256,t_uint256))"
					},
					{
						"astId": 1596,
						"contract": "ShockSpace/utils/SSMainPartial.sol:SSMainPartial",
						"label": "payoutPendingAmounts",
						"offset": 0,
						"slot": "10",
						"type": "t_mapping(t_address,t_mapping(t_uint256,t_uint256))"
					},
					{
						"astId": 1601,
						"contract": "ShockSpace/utils/SSMainPartial.sol:SSMainPartial",
						"label": "activeBuyOrders",
						"offset": 0,
						"slot": "11",
						"type": "t_mapping(t_address,t_array(t_uint256)dyn_storage)"
					},
					{
						"astId": 1606,
						"contract": "ShockSpace/utils/SSMainPartial.sol:SSMainPartial",
						"label": "activeSellOrders",
						"offset": 0,
						"slot": "12",
						"type": "t_mapping(t_address,t_array(t_uint256)dyn_storage)"
					},
					{
						"astId": 1611,
						"contract": "ShockSpace/utils/SSMainPartial.sol:SSMainPartial",
						"label": "activeLongPayouts",
						"offset": 0,
						"slot": "13",
						"type": "t_mapping(t_address,t_array(t_uint256)dyn_storage)"
					},
					{
						"astId": 1616,
						"contract": "ShockSpace/utils/SSMainPartial.sol:SSMainPartial",
						"label": "activeShortPayouts",
						"offset": 0,
						"slot": "14",
						"type": "t_mapping(t_address,t_array(t_uint256)dyn_storage)"
					},
					{
						"astId": 1623,
						"contract": "ShockSpace/utils/SSMainPartial.sol:SSMainPartial",
						"label": "makerActiveOrders",
						"offset": 0,
						"slot": "15",
						"type": "t_mapping(t_address,t_mapping(t_address,t_array(t_uint256)dyn_storage))"
					}
				],
				"types": {
					"t_address": {
						"encoding": "inplace",
						"label": "address",
						"numberOfBytes": "20"
					},
					"t_array(t_uint256)dyn_storage": {
						"base": "t_uint256",
						"encoding": "dynamic_array",
						"label": "uint256[]",
						"numberOfBytes": "32"
					},
					"t_bool": {
						"encoding": "inplace",
						"label": "bool",
						"numberOfBytes": "1"
					},
					"t_mapping(t_address,t_address)": {
						"encoding": "mapping",
						"key": "t_address",
						"label": "mapping(address => address)",
						"numberOfBytes": "32",
						"value": "t_address"
					},
					"t_mapping(t_address,t_array(t_uint256)dyn_storage)": {
						"encoding": "mapping",
						"key": "t_address",
						"label": "mapping(address => uint256[])",
						"numberOfBytes": "32",
						"value": "t_array(t_uint256)dyn_storage"
					},
					"t_mapping(t_address,t_bool)": {
						"encoding": "mapping",
						"key": "t_address",
						"label": "mapping(address => bool)",
						"numberOfBytes": "32",
						"value": "t_bool"
					},
					"t_mapping(t_address,t_mapping(t_address,t_array(t_uint256)dyn_storage))": {
						"encoding": "mapping",
						"key": "t_address",
						"label": "mapping(address => mapping(address => uint256[]))",
						"numberOfBytes": "32",
						"value": "t_mapping(t_address,t_array(t_uint256)dyn_storage)"
					},
					"t_mapping(t_address,t_mapping(t_uint256,t_uint256))": {
						"encoding": "mapping",
						"key": "t_address",
						"label": "mapping(address => mapping(uint256 => uint256))",
						"numberOfBytes": "32",
						"value": "t_mapping(t_uint256,t_uint256)"
					},
					"t_mapping(t_address,t_uint8)": {
						"encoding": "mapping",
						"key": "t_address",
						"label": "mapping(address => uint8)",
						"numberOfBytes": "32",
						"value": "t_uint8"
					},
					"t_mapping(t_uint256,t_uint256)": {
						"encoding": "mapping",
						"key": "t_uint256",
						"label": "mapping(uint256 => uint256)",
						"numberOfBytes": "32",
						"value": "t_uint256"
					},
					"t_uint256": {
						"encoding": "inplace",
						"label": "uint256",
						"numberOfBytes": "32"
					},
					"t_uint8": {
						"encoding": "inplace",
						"label": "uint8",
						"numberOfBytes": "1"
					}
				}
			},
			"userdoc": {
				"kind": "user",
				"methods": {},
				"version": 1
			}
		}
	}
}