{
	"ShockSpace/utils/SSSettlementPartial.sol": {
		"SSSettlementPartial": {
			"abi": [
				{
					"anonymous": false,
					"inputs": [
						{
							"indexed": true,
							"internalType": "address",
							"name": "previousOwner",
							"type": "address"
						},
						{
							"indexed": true,
							"internalType": "address",
							"name": "newOwner",
							"type": "address"
						}
					],
					"name": "OwnershipTransferred",
					"type": "event"
				},
				{
					"inputs": [
						{
							"internalType": "address",
							"name": "",
							"type": "address"
						},
						{
							"internalType": "uint256",
							"name": "",
							"type": "uint256"
						}
					],
					"name": "activeBuyOrders",
					"outputs": [
						{
							"internalType": "uint256",
							"name": "",
							"type": "uint256"
						}
					],
					"stateMutability": "view",
					"type": "function"
				},
				{
					"inputs": [
						{
							"internalType": "address",
							"name": "",
							"type": "address"
						},
						{
							"internalType": "uint256",
							"name": "",
							"type": "uint256"
						}
					],
					"name": "activeLongPayouts",
					"outputs": [
						{
							"internalType": "uint256",
							"name": "",
							"type": "uint256"
						}
					],
					"stateMutability": "view",
					"type": "function"
				},
				{
					"inputs": [
						{
							"internalType": "address",
							"name": "",
							"type": "address"
						},
						{
							"internalType": "uint256",
							"name": "",
							"type": "uint256"
						}
					],
					"name": "activeSellOrders",
					"outputs": [
						{
							"internalType": "uint256",
							"name": "",
							"type": "uint256"
						}
					],
					"stateMutability": "view",
					"type": "function"
				},
				{
					"inputs": [
						{
							"internalType": "address",
							"name": "",
							"type": "address"
						},
						{
							"internalType": "uint256",
							"name": "",
							"type": "uint256"
						}
					],
					"name": "activeShortPayouts",
					"outputs": [
						{
							"internalType": "uint256",
							"name": "",
							"type": "uint256"
						}
					],
					"stateMutability": "view",
					"type": "function"
				},
				{
					"inputs": [],
					"name": "agent",
					"outputs": [
						{
							"internalType": "address",
							"name": "",
							"type": "address"
						}
					],
					"stateMutability": "view",
					"type": "function"
				},
				{
					"inputs": [
						{
							"internalType": "address",
							"name": "",
							"type": "address"
						}
					],
					"name": "decimalsA",
					"outputs": [
						{
							"internalType": "uint8",
							"name": "",
							"type": "uint8"
						}
					],
					"stateMutability": "view",
					"type": "function"
				},
				{
					"inputs": [
						{
							"internalType": "address",
							"name": "",
							"type": "address"
						}
					],
					"name": "decimalsB",
					"outputs": [
						{
							"internalType": "uint8",
							"name": "",
							"type": "uint8"
						}
					],
					"stateMutability": "view",
					"type": "function"
				},
				{
					"inputs": [
						{
							"internalType": "address",
							"name": "listing",
							"type": "address"
						},
						{
							"internalType": "uint256",
							"name": "orderId",
							"type": "uint256"
						},
						{
							"internalType": "uint256",
							"name": "amount",
							"type": "uint256"
						}
					],
					"name": "executeBuyOrder",
					"outputs": [
						{
							"components": [
								{
									"internalType": "uint8",
									"name": "updateType",
									"type": "uint8"
								},
								{
									"internalType": "uint8",
									"name": "structId",
									"type": "uint8"
								},
								{
									"internalType": "uint256",
									"name": "index",
									"type": "uint256"
								},
								{
									"internalType": "uint256",
									"name": "value",
									"type": "uint256"
								},
								{
									"internalType": "address",
									"name": "addr",
									"type": "address"
								},
								{
									"internalType": "address",
									"name": "recipient",
									"type": "address"
								},
								{
									"internalType": "uint256",
									"name": "maxPrice",
									"type": "uint256"
								},
								{
									"internalType": "uint256",
									"name": "minPrice",
									"type": "uint256"
								}
							],
							"internalType": "struct ISSListingTemplate.UpdateType[]",
							"name": "",
							"type": "tuple[]"
						}
					],
					"stateMutability": "nonpayable",
					"type": "function"
				},
				{
					"inputs": [
						{
							"internalType": "address",
							"name": "listing",
							"type": "address"
						},
						{
							"internalType": "uint256",
							"name": "orderId",
							"type": "uint256"
						}
					],
					"name": "executeLongPayout",
					"outputs": [
						{
							"components": [
								{
									"internalType": "uint8",
									"name": "payoutType",
									"type": "uint8"
								},
								{
									"internalType": "address",
									"name": "recipient",
									"type": "address"
								},
								{
									"internalType": "uint256",
									"name": "required",
									"type": "uint256"
								}
							],
							"internalType": "struct ISSListingTemplate.PayoutUpdate[]",
							"name": "",
							"type": "tuple[]"
						}
					],
					"stateMutability": "nonpayable",
					"type": "function"
				},
				{
					"inputs": [
						{
							"internalType": "address",
							"name": "listing",
							"type": "address"
						},
						{
							"internalType": "uint256",
							"name": "orderId",
							"type": "uint256"
						},
						{
							"internalType": "uint256",
							"name": "amount",
							"type": "uint256"
						}
					],
					"name": "executeSellOrder",
					"outputs": [
						{
							"components": [
								{
									"internalType": "uint8",
									"name": "updateType",
									"type": "uint8"
								},
								{
									"internalType": "uint8",
									"name": "structId",
									"type": "uint8"
								},
								{
									"internalType": "uint256",
									"name": "index",
									"type": "uint256"
								},
								{
									"internalType": "uint256",
									"name": "value",
									"type": "uint256"
								},
								{
									"internalType": "address",
									"name": "addr",
									"type": "address"
								},
								{
									"internalType": "address",
									"name": "recipient",
									"type": "address"
								},
								{
									"internalType": "uint256",
									"name": "maxPrice",
									"type": "uint256"
								},
								{
									"internalType": "uint256",
									"name": "minPrice",
									"type": "uint256"
								}
							],
							"internalType": "struct ISSListingTemplate.UpdateType[]",
							"name": "",
							"type": "tuple[]"
						}
					],
					"stateMutability": "nonpayable",
					"type": "function"
				},
				{
					"inputs": [
						{
							"internalType": "address",
							"name": "listing",
							"type": "address"
						},
						{
							"internalType": "uint256",
							"name": "orderId",
							"type": "uint256"
						}
					],
					"name": "executeShortPayout",
					"outputs": [
						{
							"components": [
								{
									"internalType": "uint8",
									"name": "payoutType",
									"type": "uint8"
								},
								{
									"internalType": "address",
									"name": "recipient",
									"type": "address"
								},
								{
									"internalType": "uint256",
									"name": "required",
									"type": "uint256"
								}
							],
							"internalType": "struct ISSListingTemplate.PayoutUpdate[]",
							"name": "",
							"type": "tuple[]"
						}
					],
					"stateMutability": "nonpayable",
					"type": "function"
				},
				{
					"inputs": [
						{
							"internalType": "address",
							"name": "",
							"type": "address"
						}
					],
					"name": "isValidListing",
					"outputs": [
						{
							"internalType": "bool",
							"name": "",
							"type": "bool"
						}
					],
					"stateMutability": "view",
					"type": "function"
				},
				{
					"inputs": [
						{
							"internalType": "address",
							"name": "",
							"type": "address"
						}
					],
					"name": "liquidityAddress",
					"outputs": [
						{
							"internalType": "address",
							"name": "",
							"type": "address"
						}
					],
					"stateMutability": "view",
					"type": "function"
				},
				{
					"inputs": [
						{
							"internalType": "address",
							"name": "",
							"type": "address"
						},
						{
							"internalType": "address",
							"name": "",
							"type": "address"
						},
						{
							"internalType": "uint256",
							"name": "",
							"type": "uint256"
						}
					],
					"name": "makerActiveOrders",
					"outputs": [
						{
							"internalType": "uint256",
							"name": "",
							"type": "uint256"
						}
					],
					"stateMutability": "view",
					"type": "function"
				},
				{
					"inputs": [
						{
							"internalType": "address",
							"name": "",
							"type": "address"
						},
						{
							"internalType": "uint256",
							"name": "",
							"type": "uint256"
						}
					],
					"name": "orderPendingAmounts",
					"outputs": [
						{
							"internalType": "uint256",
							"name": "",
							"type": "uint256"
						}
					],
					"stateMutability": "view",
					"type": "function"
				},
				{
					"inputs": [],
					"name": "owner",
					"outputs": [
						{
							"internalType": "address",
							"name": "",
							"type": "address"
						}
					],
					"stateMutability": "view",
					"type": "function"
				},
				{
					"inputs": [
						{
							"internalType": "address",
							"name": "",
							"type": "address"
						},
						{
							"internalType": "uint256",
							"name": "",
							"type": "uint256"
						}
					],
					"name": "payoutPendingAmounts",
					"outputs": [
						{
							"internalType": "uint256",
							"name": "",
							"type": "uint256"
						}
					],
					"stateMutability": "view",
					"type": "function"
				},
				{
					"inputs": [],
					"name": "renounceOwnership",
					"outputs": [],
					"stateMutability": "nonpayable",
					"type": "function"
				},
				{
					"inputs": [
						{
							"internalType": "address",
							"name": "newAgent",
							"type": "address"
						}
					],
					"name": "setAgent",
					"outputs": [],
					"stateMutability": "nonpayable",
					"type": "function"
				},
				{
					"inputs": [
						{
							"internalType": "address",
							"name": "",
							"type": "address"
						}
					],
					"name": "tokenA",
					"outputs": [
						{
							"internalType": "address",
							"name": "",
							"type": "address"
						}
					],
					"stateMutability": "view",
					"type": "function"
				},
				{
					"inputs": [
						{
							"internalType": "address",
							"name": "",
							"type": "address"
						}
					],
					"name": "tokenB",
					"outputs": [
						{
							"internalType": "address",
							"name": "",
							"type": "address"
						}
					],
					"stateMutability": "view",
					"type": "function"
				},
				{
					"inputs": [
						{
							"internalType": "address",
							"name": "newOwner",
							"type": "address"
						}
					],
					"name": "transferOwnership",
					"outputs": [],
					"stateMutability": "nonpayable",
					"type": "function"
				}
			],
			"devdoc": {
				"kind": "dev",
				"methods": {
					"owner()": {
						"details": "Returns the address of the current owner."
					},
					"renounceOwnership()": {
						"details": "Leaves the contract without owner. It will not be possible to call `onlyOwner` functions. Can only be called by the current owner. NOTE: Renouncing ownership will leave the contract without an owner, thereby disabling any functionality that is only available to the owner."
					},
					"transferOwnership(address)": {
						"details": "Transfers ownership of the contract to a new account (`newOwner`). Can only be called by the current owner."
					}
				},
				"version": 1
			},
			"evm": {
				"assembly": "    /* \"ShockSpace/utils/SSSettlementPartial.sol\":2907:20390  contract SSSettlementPartial is SSOrderPartial {... */\n  mstore(0x40, 0x80)\n  callvalue\n  dup1\n  iszero\n  tag_1\n  jumpi\n  0x00\n  dup1\n  revert\ntag_1:\n  pop\n    /* \"ShockSpace/imports/ReentrancyGuard.sol\":1716:1717  1 */\n  0x01\n    /* \"ShockSpace/imports/ReentrancyGuard.sol\":1821:1828  _status */\n  0x00\n    /* \"ShockSpace/imports/ReentrancyGuard.sol\":1821:1843  _status = _NOT_ENTERED */\n  sstore\n    /* \"ShockSpace/imports/Ownable.sol\":929:961  _transferOwnership(_msgSender()) */\n  tag_6\n    /* \"ShockSpace/imports/Ownable.sol\":948:960  _msgSender() */\n  tag_7\n    /* \"ShockSpace/imports/Ownable.sol\":948:958  _msgSender */\n  tag_8\n    /* \"ShockSpace/imports/Ownable.sol\":948:960  _msgSender() */\n  jump\t// in\ntag_7:\n    /* \"ShockSpace/imports/Ownable.sol\":929:947  _transferOwnership */\n  tag_9\n    /* \"ShockSpace/imports/Ownable.sol\":929:961  _transferOwnership(_msgSender()) */\n  jump\t// in\ntag_6:\n    /* \"ShockSpace/utils/SSSettlementPartial.sol\":2907:20390  contract SSSettlementPartial is SSOrderPartial {... */\n  jump(tag_10)\n    /* \"ShockSpace/imports/Context.sol\":640:736  function _msgSender() internal view virtual returns (address) {... */\ntag_8:\n    /* \"ShockSpace/imports/Context.sol\":719:729  msg.sender */\n  caller\n    /* \"ShockSpace/imports/Context.sol\":640:736  function _msgSender() internal view virtual returns (address) {... */\n  swap1\n  jump\t// out\n    /* \"ShockSpace/imports/Ownable.sol\":2419:2606  function _transferOwnership(address newOwner) internal virtual {... */\ntag_9:\n    /* \"ShockSpace/imports/Ownable.sol\":2511:2517  _owner */\n  0x01\n  dup1\n  sload\n  sub(shl(0xa0, 0x01), 0x01)\n    /* \"ShockSpace/imports/Ownable.sol\":2527:2544  _owner = newOwner */\n  dup4\n  dup2\n  and\n  not(sub(shl(0xa0, 0x01), 0x01))\n  dup4\n  and\n  dup2\n  or\n  swap1\n  swap4\n  sstore\n    /* \"ShockSpace/imports/Ownable.sol\":2559:2599  OwnershipTransferred(oldOwner, newOwner) */\n  mload(0x40)\n    /* \"ShockSpace/imports/Ownable.sol\":2511:2517  _owner */\n  swap2\n  and\n  swap2\n    /* \"ShockSpace/imports/Ownable.sol\":2527:2544  _owner = newOwner */\n  swap1\n    /* \"ShockSpace/imports/Ownable.sol\":2511:2517  _owner */\n  dup3\n  swap1\n    /* \"ShockSpace/imports/Ownable.sol\":2559:2599  OwnershipTransferred(oldOwner, newOwner) */\n  0x8be0079c531659141344cd1fd0a4f28419497f9722a3daafe3b4186f6b6457e0\n  swap1\n    /* \"ShockSpace/imports/Ownable.sol\":2492:2508  address oldOwner */\n  0x00\n  swap1\n    /* \"ShockSpace/imports/Ownable.sol\":2559:2599  OwnershipTransferred(oldOwner, newOwner) */\n  log3\n    /* \"ShockSpace/imports/Ownable.sol\":2419:2606  function _transferOwnership(address newOwner) internal virtual {... */\n  pop\n  pop\n  jump\t// out\n    /* \"ShockSpace/utils/SSSettlementPartial.sol\":2907:20390  contract SSSettlementPartial is SSOrderPartial {... */\ntag_10:\n  dataSize(sub_0)\n  dup1\n  dataOffset(sub_0)\n  0x00\n  codecopy\n  0x00\n  return\nstop\n\nsub_0: assembly {\n        /* \"ShockSpace/utils/SSSettlementPartial.sol\":2907:20390  contract SSSettlementPartial is SSOrderPartial {... */\n      mstore(0x40, 0x80)\n      callvalue\n      dup1\n      iszero\n      tag_1\n      jumpi\n      0x00\n      dup1\n      revert\n    tag_1:\n      pop\n      jumpi(tag_2, lt(calldatasize, 0x04))\n      shr(0xe0, calldataload(0x00))\n      dup1\n      0x9cb52525\n      gt\n      tag_25\n      jumpi\n      dup1\n      0xc285c607\n      gt\n      tag_26\n      jumpi\n      dup1\n      0xc285c607\n      eq\n      tag_19\n      jumpi\n      dup1\n      0xe5061d89\n      eq\n      tag_20\n      jumpi\n      dup1\n      0xed1a8b45\n      eq\n      tag_21\n      jumpi\n      dup1\n      0xf2fde38b\n      eq\n      tag_22\n      jumpi\n      dup1\n      0xf5ff5c76\n      eq\n      tag_23\n      jumpi\n      dup1\n      0xff4c2254\n      eq\n      tag_24\n      jumpi\n      jump(tag_2)\n    tag_26:\n      dup1\n      0x9cb52525\n      eq\n      tag_14\n      jumpi\n      dup1\n      0x9e9b5f97\n      eq\n      tag_15\n      jumpi\n      dup1\n      0xaa624ffa\n      eq\n      tag_16\n      jumpi\n      dup1\n      0xbc5a318a\n      eq\n      tag_17\n      jumpi\n      dup1\n      0xbcf685ed\n      eq\n      tag_18\n      jumpi\n      jump(tag_2)\n    tag_25:\n      dup1\n      0x69d70075\n      gt\n      tag_27\n      jumpi\n      dup1\n      0x69d70075\n      eq\n      tag_8\n      jumpi\n      dup1\n      0x6cb4ea85\n      eq\n      tag_9\n      jumpi\n      dup1\n      0x715018a6\n      eq\n      tag_10\n      jumpi\n      dup1\n      0x7601f9fe\n      eq\n      tag_11\n      jumpi\n      dup1\n      0x8da5cb5b\n      eq\n      tag_12\n      jumpi\n      dup1\n      0x943450dd\n      eq\n      tag_13\n      jumpi\n      jump(tag_2)\n    tag_27:\n      dup1\n      0x7b5562\n      eq\n      tag_3\n      jumpi\n      dup1\n      0x0aa666c2\n      eq\n      tag_4\n      jumpi\n      dup1\n      0x29f2ebb9\n      eq\n      tag_5\n      jumpi\n      dup1\n      0x39c7fcef\n      eq\n      tag_6\n      jumpi\n      dup1\n      0x5fbc13ef\n      eq\n      tag_7\n      jumpi\n    tag_2:\n      0x00\n      dup1\n      revert\n        /* \"ShockSpace/utils/SSMainPartial.sol\":9174:9226  mapping(address => uint256[]) public activeBuyOrders */\n    tag_3:\n      tag_28\n      tag_29\n      calldatasize\n      0x04\n      tag_30\n      jump\t// in\n    tag_29:\n      tag_31\n      jump\t// in\n    tag_28:\n      mload(0x40)\n      tag_32\n      swap2\n      swap1\n      tag_33\n      jump\t// in\n    tag_32:\n      mload(0x40)\n      dup1\n      swap2\n      sub\n      swap1\n      return\n        /* \"ShockSpace/utils/SSMainPartial.sol\":9093:9168  mapping(address => mapping(uint256 => uint256)) public payoutPendingAmounts */\n    tag_4:\n      tag_28\n      tag_35\n      calldatasize\n      0x04\n      tag_30\n      jump\t// in\n    tag_35:\n      tag_36\n      jump\t// in\n        /* \"ShockSpace/utils/SSMainPartial.sol\":9351:9406  mapping(address => uint256[]) public activeShortPayouts */\n    tag_5:\n      tag_28\n      tag_39\n      calldatasize\n      0x04\n      tag_30\n      jump\t// in\n    tag_39:\n      tag_40\n      jump\t// in\n        /* \"ShockSpace/utils/SSMainPartial.sol\":8714:8760  mapping(address => bool) public isValidListing */\n    tag_6:\n      tag_42\n      tag_43\n      calldatasize\n      0x04\n      tag_44\n      jump\t// in\n    tag_43:\n      tag_45\n      jump\t// in\n    tag_42:\n      mload(0x40)\n      tag_32\n      swap2\n      swap1\n      tag_47\n      jump\t// in\n        /* \"ShockSpace/utils/SSSettlementPartial.sol\":10904:12281  function executeSellOrder(... */\n    tag_7:\n      tag_48\n      tag_49\n      calldatasize\n      0x04\n      tag_50\n      jump\t// in\n    tag_49:\n      tag_51\n      jump\t// in\n    tag_48:\n      mload(0x40)\n      tag_32\n      swap2\n      swap1\n      tag_53\n      jump\t// in\n        /* \"ShockSpace/utils/SSMainPartial.sol\":8766:8817  mapping(address => address) public liquidityAddress */\n    tag_8:\n      tag_54\n      tag_55\n      calldatasize\n      0x04\n      tag_44\n      jump\t// in\n    tag_55:\n      tag_56\n      jump\t// in\n    tag_54:\n      mload(0x40)\n      tag_32\n      swap2\n      swap1\n      tag_58\n      jump\t// in\n        /* \"ShockSpace/utils/SSSettlementPartial.sol\":16019:16526  function executeLongPayout(... */\n    tag_9:\n      tag_59\n      tag_60\n      calldatasize\n      0x04\n      tag_30\n      jump\t// in\n    tag_60:\n      tag_61\n      jump\t// in\n    tag_59:\n      mload(0x40)\n      tag_32\n      swap2\n      swap1\n      tag_63\n      jump\t// in\n        /* \"ShockSpace/imports/Ownable.sol\":1817:1918  function renounceOwnership() public virtual onlyOwner {... */\n    tag_10:\n      tag_64\n      tag_65\n      jump\t// in\n    tag_64:\n      stop\n        /* \"ShockSpace/utils/SSSettlementPartial.sol\":9526:10898  function executeBuyOrder(... */\n    tag_11:\n      tag_48\n      tag_67\n      calldatasize\n      0x04\n      tag_50\n      jump\t// in\n    tag_67:\n      tag_68\n      jump\t// in\n        /* \"ShockSpace/imports/Ownable.sol\":1194:1279  function owner() public view virtual returns (address) {... */\n    tag_12:\n      tag_54\n      tag_71\n      jump\t// in\n        /* \"ShockSpace/utils/SSMainPartial.sol\":8823:8864  mapping(address => address) public tokenA */\n    tag_13:\n      tag_54\n      tag_74\n      calldatasize\n      0x04\n      tag_44\n      jump\t// in\n    tag_74:\n      tag_75\n      jump\t// in\n        /* \"ShockSpace/utils/SSMainPartial.sol\":8870:8911  mapping(address => address) public tokenB */\n    tag_14:\n      tag_54\n      tag_78\n      calldatasize\n      0x04\n      tag_44\n      jump\t// in\n    tag_78:\n      tag_79\n      jump\t// in\n        /* \"ShockSpace/utils/SSMainPartial.sol\":8965:9007  mapping(address => uint8) public decimalsB */\n    tag_15:\n      tag_81\n      tag_82\n      calldatasize\n      0x04\n      tag_44\n      jump\t// in\n    tag_82:\n      tag_83\n      jump\t// in\n    tag_81:\n      mload(0x40)\n      tag_32\n      swap2\n      swap1\n      tag_85\n      jump\t// in\n        /* \"ShockSpace/utils/SSMainPartial.sol\":8917:8959  mapping(address => uint8) public decimalsA */\n    tag_16:\n      tag_81\n      tag_87\n      calldatasize\n      0x04\n      tag_44\n      jump\t// in\n    tag_87:\n      tag_88\n      jump\t// in\n        /* \"ShockSpace/utils/SSMainPartial.sol\":9412:9486  mapping(address => mapping(address => uint256[])) public makerActiveOrders */\n    tag_17:\n      tag_28\n      tag_91\n      calldatasize\n      0x04\n      tag_92\n      jump\t// in\n    tag_91:\n      tag_93\n      jump\t// in\n        /* \"ShockSpace/utils/SSMainPartial.sol\":9621:9775  function setAgent(address newAgent) external onlyOwner {... */\n    tag_18:\n      tag_64\n      tag_96\n      calldatasize\n      0x04\n      tag_44\n      jump\t// in\n    tag_96:\n      tag_97\n      jump\t// in\n        /* \"ShockSpace/utils/SSSettlementPartial.sol\":16532:17039  function executeShortPayout(... */\n    tag_19:\n      tag_59\n      tag_99\n      calldatasize\n      0x04\n      tag_30\n      jump\t// in\n    tag_99:\n      tag_100\n      jump\t// in\n        /* \"ShockSpace/utils/SSMainPartial.sol\":9232:9285  mapping(address => uint256[]) public activeSellOrders */\n    tag_20:\n      tag_28\n      tag_103\n      calldatasize\n      0x04\n      tag_30\n      jump\t// in\n    tag_103:\n      tag_104\n      jump\t// in\n        /* \"ShockSpace/utils/SSMainPartial.sol\":9013:9087  mapping(address => mapping(uint256 => uint256)) public orderPendingAmounts */\n    tag_21:\n      tag_28\n      tag_107\n      calldatasize\n      0x04\n      tag_30\n      jump\t// in\n    tag_107:\n      tag_108\n      jump\t// in\n        /* \"ShockSpace/imports/Ownable.sol\":2067:2265  function transferOwnership(address newOwner) public virtual onlyOwner {... */\n    tag_22:\n      tag_64\n      tag_111\n      calldatasize\n      0x04\n      tag_44\n      jump\t// in\n    tag_111:\n      tag_112\n      jump\t// in\n        /* \"ShockSpace/utils/SSMainPartial.sol\":7958:7978  address public agent */\n    tag_23:\n      tag_54\n      tag_114\n      jump\t// in\n        /* \"ShockSpace/utils/SSMainPartial.sol\":9291:9345  mapping(address => uint256[]) public activeLongPayouts */\n    tag_24:\n      tag_28\n      tag_117\n      calldatasize\n      0x04\n      tag_30\n      jump\t// in\n    tag_117:\n      tag_118\n      jump\t// in\n        /* \"ShockSpace/utils/SSMainPartial.sol\":9174:9226  mapping(address => uint256[]) public activeBuyOrders */\n    tag_31:\n      mstore(0x20, 0x0b)\n      dup2\n      0x00\n      mstore\n      keccak256(0x00, 0x40)\n      dup2\n      dup2\n      sload\n      dup2\n      lt\n      tag_120\n      jumpi\n      0x00\n      dup1\n      revert\n    tag_120:\n      swap1\n      0x00\n      mstore\n      keccak256(0x00, 0x20)\n      add\n      0x00\n      swap2\n      pop\n      swap2\n      pop\n      pop\n      sload\n      dup2\n      jump\t// out\n        /* \"ShockSpace/utils/SSMainPartial.sol\":9093:9168  mapping(address => mapping(uint256 => uint256)) public payoutPendingAmounts */\n    tag_36:\n      0x0a\n      0x20\n      swap1\n      dup2\n      mstore\n      0x00\n      swap3\n      dup4\n      mstore\n      0x40\n      dup1\n      dup5\n      keccak256\n      swap1\n      swap2\n      mstore\n      swap1\n      dup3\n      mstore\n      swap1\n      keccak256\n      sload\n      dup2\n      jump\t// out\n        /* \"ShockSpace/utils/SSMainPartial.sol\":9351:9406  mapping(address => uint256[]) public activeShortPayouts */\n    tag_40:\n      mstore(0x20, 0x0e)\n      dup2\n      0x00\n      mstore\n      keccak256(0x00, 0x40)\n      dup2\n      dup2\n      sload\n      dup2\n      lt\n      tag_120\n      jumpi\n      0x00\n      dup1\n      revert\n        /* \"ShockSpace/utils/SSMainPartial.sol\":8714:8760  mapping(address => bool) public isValidListing */\n    tag_45:\n      mstore(0x20, 0x03)\n      0x00\n      swap1\n      dup2\n      mstore\n      0x40\n      swap1\n      keccak256\n      sload\n      0xff\n      and\n      dup2\n      jump\t// out\n        /* \"ShockSpace/utils/SSSettlementPartial.sol\":10904:12281  function executeSellOrder(... */\n    tag_51:\n        /* \"ShockSpace/utils/SSSettlementPartial.sol\":11247:11291  listingContract.getSellOrderPricing(orderId) */\n      mload(0x40)\n      shl(0xe3, 0x175743b9)\n      dup2\n      mstore\n        /* \"ShockSpace/utils/SSSettlementPartial.sol\":11026:11064  ISSListingTemplate.UpdateType[] memory */\n      0x60\n      swap1\n        /* \"ShockSpace/utils/SSSettlementPartial.sol\":11132:11139  listing */\n      dup5\n      swap1\n        /* \"ShockSpace/utils/SSSettlementPartial.sol\":11076:11110  ISSListingTemplate listingContract */\n      0x00\n      swap1\n      dup2\n      swap1\n      sub(shl(0xa0, 0x01), 0x01)\n        /* \"ShockSpace/utils/SSSettlementPartial.sol\":11247:11282  listingContract.getSellOrderPricing */\n      dup5\n      and\n      swap1\n      0xbaba1dc8\n      swap1\n        /* \"ShockSpace/utils/SSSettlementPartial.sol\":11247:11291  listingContract.getSellOrderPricing(orderId) */\n      tag_125\n      swap1\n        /* \"ShockSpace/utils/SSSettlementPartial.sol\":11283:11290  orderId */\n      dup10\n      swap1\n        /* \"ShockSpace/utils/SSSettlementPartial.sol\":11247:11291  listingContract.getSellOrderPricing(orderId) */\n      0x04\n      add\n      tag_33\n      jump\t// in\n    tag_125:\n      0x40\n      dup1\n      mload\n      dup1\n      dup4\n      sub\n      dup2\n      dup7\n      dup1\n      extcodesize\n      iszero\n      dup1\n      iszero\n      tag_126\n      jumpi\n      0x00\n      dup1\n      revert\n    tag_126:\n      pop\n      gas\n      staticcall\n      iszero\n      dup1\n      iszero\n      tag_128\n      jumpi\n      returndatasize\n      0x00\n      dup1\n      returndatacopy\n      revert(0x00, returndatasize)\n    tag_128:\n      pop\n      pop\n      pop\n      pop\n      mload(0x40)\n      returndatasize\n      not(0x1f)\n      0x1f\n      dup3\n      add\n      and\n      dup3\n      add\n      dup1\n      0x40\n      mstore\n      pop\n      dup2\n      add\n      swap1\n      tag_129\n      swap2\n      swap1\n      tag_130\n      jump\t// in\n    tag_129:\n        /* \"ShockSpace/utils/SSSettlementPartial.sol\":11348:11392  listingContract.getSellOrderAmounts(orderId) */\n      mload(0x40)\n      shl(0xe0, 0x60a3e765)\n      dup2\n      mstore\n        /* \"ShockSpace/utils/SSSettlementPartial.sol\":11224:11291  (maxPrice, minPrice) = listingContract.getSellOrderPricing(orderId) */\n      swap2\n      swap4\n      pop\n      swap2\n      pop\n        /* \"ShockSpace/utils/SSSettlementPartial.sol\":11305:11320  uint256 pending */\n      0x00\n      swap1\n      sub(shl(0xa0, 0x01), 0x01)\n        /* \"ShockSpace/utils/SSSettlementPartial.sol\":11348:11383  listingContract.getSellOrderAmounts */\n      dup6\n      and\n      swap1\n      0x60a3e765\n      swap1\n        /* \"ShockSpace/utils/SSSettlementPartial.sol\":11348:11392  listingContract.getSellOrderAmounts(orderId) */\n      tag_131\n      swap1\n        /* \"ShockSpace/utils/SSSettlementPartial.sol\":11384:11391  orderId */\n      dup11\n      swap1\n        /* \"ShockSpace/utils/SSSettlementPartial.sol\":11348:11392  listingContract.getSellOrderAmounts(orderId) */\n      0x04\n      add\n      tag_33\n      jump\t// in\n    tag_131:\n      0x40\n      dup1\n      mload\n      dup1\n      dup4\n      sub\n      dup2\n      dup7\n      dup1\n      extcodesize\n      iszero\n      dup1\n      iszero\n      tag_132\n      jumpi\n      0x00\n      dup1\n      revert\n    tag_132:\n      pop\n      gas\n      staticcall\n      iszero\n      dup1\n      iszero\n      tag_134\n      jumpi\n      returndatasize\n      0x00\n      dup1\n      returndatacopy\n      revert(0x00, returndatasize)\n    tag_134:\n      pop\n      pop\n      pop\n      pop\n      mload(0x40)\n      returndatasize\n      not(0x1f)\n      0x1f\n      dup3\n      add\n      and\n      dup3\n      add\n      dup1\n      0x40\n      mstore\n      pop\n      dup2\n      add\n      swap1\n      tag_135\n      swap2\n      swap1\n      tag_130\n      jump\t// in\n    tag_135:\n      pop\n        /* \"ShockSpace/utils/SSSettlementPartial.sol\":11334:11392  (pending, ) = listingContract.getSellOrderAmounts(orderId) */\n      swap1\n      pop\n        /* \"ShockSpace/utils/SSSettlementPartial.sol\":11410:11422  pending == 0 */\n      dup1\n      iszero\n      dup1\n        /* \"ShockSpace/utils/SSSettlementPartial.sol\":11410:11437  pending == 0 || amount == 0 */\n      tag_136\n      jumpi\n      pop\n        /* \"ShockSpace/utils/SSSettlementPartial.sol\":11426:11437  amount == 0 */\n      dup6\n      iszero\n        /* \"ShockSpace/utils/SSSettlementPartial.sol\":11410:11437  pending == 0 || amount == 0 */\n    tag_136:\n        /* \"ShockSpace/utils/SSSettlementPartial.sol\":11406:11517  if (pending == 0 || amount == 0) {... */\n      iszero\n      tag_137\n      jumpi\n        /* \"ShockSpace/utils/SSSettlementPartial.sol\":11464:11502  new ISSListingTemplate.UpdateType[](0) */\n      0x40\n      dup1\n      mload\n        /* \"ShockSpace/utils/SSSettlementPartial.sol\":11500:11501  0 */\n      0x00\n        /* \"ShockSpace/utils/SSSettlementPartial.sol\":11464:11502  new ISSListingTemplate.UpdateType[](0) */\n      dup1\n      dup3\n      mstore\n      0x20\n      dup3\n      add\n      swap1\n      swap3\n      mstore\n      swap1\n      jump(tag_139)\n    tag_140:\n      tag_141\n      tag_142\n      jump\t// in\n    tag_141:\n      dup2\n      mstore\n      0x20\n      add\n      swap1\n      0x01\n      swap1\n      sub\n      swap1\n      dup2\n      tag_140\n      jumpi\n      swap1\n      pop\n    tag_139:\n      pop\n        /* \"ShockSpace/utils/SSSettlementPartial.sol\":11457:11502  return new ISSListingTemplate.UpdateType[](0) */\n      swap5\n      pop\n      pop\n      pop\n      pop\n      pop\n      jump(tag_124)\n        /* \"ShockSpace/utils/SSSettlementPartial.sol\":11406:11517  if (pending == 0 || amount == 0) {... */\n    tag_137:\n        /* \"ShockSpace/utils/SSSettlementPartial.sol\":11531:11547  uint256 xBalance */\n      0x00\n        /* \"ShockSpace/utils/SSSettlementPartial.sol\":11549:11565  uint256 yBalance */\n      dup1\n        /* \"ShockSpace/utils/SSSettlementPartial.sol\":11573:11588  listingContract */\n      dup6\n      sub(shl(0xa0, 0x01), 0x01)\n        /* \"ShockSpace/utils/SSSettlementPartial.sol\":11573:11614  listingContract.listingVolumeBalancesView */\n      and\n      0x40d87ebe\n        /* \"ShockSpace/utils/SSSettlementPartial.sol\":11573:11616  listingContract.listingVolumeBalancesView() */\n      mload(0x40)\n      dup2\n      0xffffffff\n      and\n      0xe0\n      shl\n      dup2\n      mstore\n      0x04\n      add\n      0x80\n      mload(0x40)\n      dup1\n      dup4\n      sub\n      dup2\n      dup7\n      dup1\n      extcodesize\n      iszero\n      dup1\n      iszero\n      tag_143\n      jumpi\n      0x00\n      dup1\n      revert\n    tag_143:\n      pop\n      gas\n      staticcall\n      iszero\n      dup1\n      iszero\n      tag_145\n      jumpi\n      returndatasize\n      0x00\n      dup1\n      returndatacopy\n      revert(0x00, returndatasize)\n    tag_145:\n      pop\n      pop\n      pop\n      pop\n      mload(0x40)\n      returndatasize\n      not(0x1f)\n      0x1f\n      dup3\n      add\n      and\n      dup3\n      add\n      dup1\n      0x40\n      mstore\n      pop\n      dup2\n      add\n      swap1\n      tag_146\n      swap2\n      swap1\n      tag_147\n      jump\t// in\n    tag_146:\n        /* \"ShockSpace/utils/SSSettlementPartial.sol\":11530:11616  (uint256 xBalance, uint256 yBalance, , ) = listingContract.listingVolumeBalancesView() */\n      pop\n      pop\n      swap2\n      pop\n      swap2\n      pop\n        /* \"ShockSpace/utils/SSSettlementPartial.sol\":11630:11649  uint256 impactPrice */\n      0x00\n        /* \"ShockSpace/utils/SSSettlementPartial.sol\":11663:11664  0 */\n      dup1\n        /* \"ShockSpace/utils/SSSettlementPartial.sol\":11652:11660  xBalance */\n      dup4\n        /* \"ShockSpace/utils/SSSettlementPartial.sol\":11652:11664  xBalance > 0 */\n      gt\n        /* \"ShockSpace/utils/SSSettlementPartial.sol\":11652:11710  xBalance > 0 ? (yBalance * 1e18) / (xBalance + amount) : 0 */\n      tag_148\n      jumpi\n        /* \"ShockSpace/utils/SSSettlementPartial.sol\":11709:11710  0 */\n      0x00\n        /* \"ShockSpace/utils/SSSettlementPartial.sol\":11652:11710  xBalance > 0 ? (yBalance * 1e18) / (xBalance + amount) : 0 */\n      jump(tag_154)\n    tag_148:\n        /* \"ShockSpace/utils/SSSettlementPartial.sol\":11688:11705  xBalance + amount */\n      tag_150\n        /* \"ShockSpace/utils/SSSettlementPartial.sol\":11699:11705  amount */\n      dup10\n        /* \"ShockSpace/utils/SSSettlementPartial.sol\":11688:11696  xBalance */\n      dup5\n        /* \"ShockSpace/utils/SSSettlementPartial.sol\":11688:11705  xBalance + amount */\n      tag_151\n      jump\t// in\n    tag_150:\n        /* \"ShockSpace/utils/SSSettlementPartial.sol\":11668:11683  yBalance * 1e18 */\n      tag_152\n        /* \"ShockSpace/utils/SSSettlementPartial.sol\":11668:11676  yBalance */\n      dup4\n        /* \"ShockSpace/utils/SSSettlementPartial.sol\":11679:11683  1e18 */\n      0x0de0b6b3a7640000\n        /* \"ShockSpace/utils/SSSettlementPartial.sol\":11668:11683  yBalance * 1e18 */\n      tag_153\n      jump\t// in\n    tag_152:\n        /* \"ShockSpace/utils/SSSettlementPartial.sol\":11667:11706  (yBalance * 1e18) / (xBalance + amount) */\n      tag_154\n      swap2\n      swap1\n      tag_155\n      jump\t// in\n    tag_154:\n        /* \"ShockSpace/utils/SSSettlementPartial.sol\":11630:11710  uint256 impactPrice = xBalance > 0 ? (yBalance * 1e18) / (xBalance + amount) : 0 */\n      swap1\n      pop\n        /* \"ShockSpace/utils/SSSettlementPartial.sol\":11742:11750  maxPrice */\n      dup6\n        /* \"ShockSpace/utils/SSSettlementPartial.sol\":11728:11739  impactPrice */\n      dup2\n        /* \"ShockSpace/utils/SSSettlementPartial.sol\":11728:11750  impactPrice > maxPrice */\n      gt\n        /* \"ShockSpace/utils/SSSettlementPartial.sol\":11728:11776  impactPrice > maxPrice || impactPrice < minPrice */\n      dup1\n      tag_156\n      jumpi\n      pop\n        /* \"ShockSpace/utils/SSSettlementPartial.sol\":11768:11776  minPrice */\n      dup5\n        /* \"ShockSpace/utils/SSSettlementPartial.sol\":11754:11765  impactPrice */\n      dup2\n        /* \"ShockSpace/utils/SSSettlementPartial.sol\":11754:11776  impactPrice < minPrice */\n      lt\n        /* \"ShockSpace/utils/SSSettlementPartial.sol\":11728:11776  impactPrice > maxPrice || impactPrice < minPrice */\n    tag_156:\n        /* \"ShockSpace/utils/SSSettlementPartial.sol\":11724:11856  if (impactPrice > maxPrice || impactPrice < minPrice) {... */\n      iszero\n      tag_157\n      jumpi\n        /* \"ShockSpace/utils/SSSettlementPartial.sol\":11803:11841  new ISSListingTemplate.UpdateType[](0) */\n      0x40\n      dup1\n      mload\n        /* \"ShockSpace/utils/SSSettlementPartial.sol\":11839:11840  0 */\n      0x00\n        /* \"ShockSpace/utils/SSSettlementPartial.sol\":11803:11841  new ISSListingTemplate.UpdateType[](0) */\n      dup1\n      dup3\n      mstore\n      0x20\n      dup3\n      add\n      swap1\n      swap3\n      mstore\n      swap1\n      jump(tag_159)\n    tag_160:\n      tag_161\n      tag_142\n      jump\t// in\n    tag_161:\n      dup2\n      mstore\n      0x20\n      add\n      swap1\n      0x01\n      swap1\n      sub\n      swap1\n      dup2\n      tag_160\n      jumpi\n      swap1\n      pop\n    tag_159:\n      pop\n        /* \"ShockSpace/utils/SSSettlementPartial.sol\":11796:11841  return new ISSListingTemplate.UpdateType[](0) */\n      swap8\n      pop\n      pop\n      pop\n      pop\n      pop\n      pop\n      pop\n      pop\n      jump(tag_124)\n        /* \"ShockSpace/utils/SSSettlementPartial.sol\":11724:11856  if (impactPrice > maxPrice || impactPrice < minPrice) {... */\n    tag_157:\n        /* \"ShockSpace/utils/SSSettlementPartial.sol\":10904:12281  function executeSellOrder(... */\n      pop\n      pop\n      pop\n      pop\n      pop\n      pop\n        /* \"ShockSpace/utils/SSSettlementPartial.sol\":11889:11909  address tokenAddress */\n      0x00\n        /* \"ShockSpace/utils/SSSettlementPartial.sol\":11923:11937  uint8 decimals */\n      dup1\n        /* \"ShockSpace/utils/SSSettlementPartial.sol\":11951:11971  address makerAddress */\n      0x00\n        /* \"ShockSpace/utils/SSSettlementPartial.sol\":11985:12002  address recipient */\n      dup1\n        /* \"ShockSpace/utils/SSSettlementPartial.sol\":12016:12028  uint8 status */\n      0x00\n        /* \"ShockSpace/utils/SSSettlementPartial.sol\":12042:12064  uint256 amountReceived */\n      dup1\n        /* \"ShockSpace/utils/SSSettlementPartial.sol\":12078:12104  uint256 normalizedReceived */\n      0x00\n        /* \"ShockSpace/utils/SSSettlementPartial.sol\":12117:12163  _prepSellOrderUpdate(listing, orderId, amount) */\n      tag_162\n        /* \"ShockSpace/utils/SSSettlementPartial.sol\":12138:12145  listing */\n      dup13\n        /* \"ShockSpace/utils/SSSettlementPartial.sol\":12147:12154  orderId */\n      dup13\n        /* \"ShockSpace/utils/SSSettlementPartial.sol\":12156:12162  amount */\n      dup13\n        /* \"ShockSpace/utils/SSSettlementPartial.sol\":12117:12137  _prepSellOrderUpdate */\n      tag_163\n        /* \"ShockSpace/utils/SSSettlementPartial.sol\":12117:12163  _prepSellOrderUpdate(listing, orderId, amount) */\n      jump\t// in\n    tag_162:\n        /* \"ShockSpace/utils/SSSettlementPartial.sol\":11875:12163  (... */\n      swap7\n      pop\n      swap7\n      pop\n      swap7\n      pop\n      swap7\n      pop\n      swap7\n      pop\n      swap7\n      pop\n      swap7\n      pop\n        /* \"ShockSpace/utils/SSSettlementPartial.sol\":12180:12274  _executeSellOrderUpdate(listing, orderId, normalizedReceived, makerAddress, recipient, status) */\n      tag_164\n        /* \"ShockSpace/utils/SSSettlementPartial.sol\":12204:12211  listing */\n      dup13\n        /* \"ShockSpace/utils/SSSettlementPartial.sol\":12213:12220  orderId */\n      dup13\n        /* \"ShockSpace/utils/SSSettlementPartial.sol\":12222:12240  normalizedReceived */\n      dup4\n        /* \"ShockSpace/utils/SSSettlementPartial.sol\":12242:12254  makerAddress */\n      dup9\n        /* \"ShockSpace/utils/SSSettlementPartial.sol\":12256:12265  recipient */\n      dup9\n        /* \"ShockSpace/utils/SSSettlementPartial.sol\":12267:12273  status */\n      dup9\n        /* \"ShockSpace/utils/SSSettlementPartial.sol\":12180:12203  _executeSellOrderUpdate */\n      tag_165\n        /* \"ShockSpace/utils/SSSettlementPartial.sol\":12180:12274  _executeSellOrderUpdate(listing, orderId, normalizedReceived, makerAddress, recipient, status) */\n      jump\t// in\n    tag_164:\n        /* \"ShockSpace/utils/SSSettlementPartial.sol\":12173:12274  return _executeSellOrderUpdate(listing, orderId, normalizedReceived, makerAddress, recipient, status) */\n      swap9\n      pop\n      pop\n      pop\n      pop\n      pop\n      pop\n      pop\n      pop\n      pop\n        /* \"ShockSpace/utils/SSSettlementPartial.sol\":10904:12281  function executeSellOrder(... */\n    tag_124:\n      swap4\n      swap3\n      pop\n      pop\n      pop\n      jump\t// out\n        /* \"ShockSpace/utils/SSMainPartial.sol\":8766:8817  mapping(address => address) public liquidityAddress */\n    tag_56:\n      mstore(0x20, 0x04)\n      0x00\n      swap1\n      dup2\n      mstore\n      0x40\n      swap1\n      keccak256\n      sload\n      sub(shl(0xa0, 0x01), 0x01)\n      and\n      dup2\n      jump\t// out\n        /* \"ShockSpace/utils/SSSettlementPartial.sol\":16019:16526  function executeLongPayout(... */\n    tag_61:\n        /* \"ShockSpace/utils/SSSettlementPartial.sol\":16296:16334  listingContract.getLongPayout(orderId) */\n      mload(0x40)\n      shl(0xe0, 0x91776ee7)\n      dup2\n      mstore\n        /* \"ShockSpace/utils/SSSettlementPartial.sol\":16118:16158  ISSListingTemplate.PayoutUpdate[] memory */\n      0x60\n      swap1\n        /* \"ShockSpace/utils/SSSettlementPartial.sol\":16226:16233  listing */\n      dup4\n      swap1\n        /* \"ShockSpace/utils/SSSettlementPartial.sol\":16170:16204  ISSListingTemplate listingContract */\n      0x00\n      swap1\n      sub(shl(0xa0, 0x01), 0x01)\n        /* \"ShockSpace/utils/SSSettlementPartial.sol\":16296:16325  listingContract.getLongPayout */\n      dup4\n      and\n      swap1\n      0x91776ee7\n      swap1\n        /* \"ShockSpace/utils/SSSettlementPartial.sol\":16296:16334  listingContract.getLongPayout(orderId) */\n      tag_167\n      swap1\n        /* \"ShockSpace/utils/SSSettlementPartial.sol\":16326:16333  orderId */\n      dup8\n      swap1\n        /* \"ShockSpace/utils/SSSettlementPartial.sol\":16296:16334  listingContract.getLongPayout(orderId) */\n      0x04\n      add\n      tag_33\n      jump\t// in\n    tag_167:\n      0xc0\n      mload(0x40)\n      dup1\n      dup4\n      sub\n      dup2\n      dup7\n      dup1\n      extcodesize\n      iszero\n      dup1\n      iszero\n      tag_168\n      jumpi\n      0x00\n      dup1\n      revert\n    tag_168:\n      pop\n      gas\n      staticcall\n      iszero\n      dup1\n      iszero\n      tag_170\n      jumpi\n      returndatasize\n      0x00\n      dup1\n      returndatacopy\n      revert(0x00, returndatasize)\n    tag_170:\n      pop\n      pop\n      pop\n      pop\n      mload(0x40)\n      returndatasize\n      not(0x1f)\n      0x1f\n      dup3\n      add\n      and\n      dup3\n      add\n      dup1\n      0x40\n      mstore\n      pop\n      dup2\n      add\n      swap1\n      tag_171\n      swap2\n      swap1\n      tag_172\n      jump\t// in\n    tag_171:\n        /* \"ShockSpace/utils/SSSettlementPartial.sol\":16244:16334  ISSListingTemplate.LongPayoutStruct memory payout = listingContract.getLongPayout(orderId) */\n      swap1\n      pop\n        /* \"ShockSpace/utils/SSSettlementPartial.sol\":16348:16354  payout */\n      dup1\n        /* \"ShockSpace/utils/SSSettlementPartial.sol\":16348:16363  payout.required */\n      0x40\n      add\n      mload\n        /* \"ShockSpace/utils/SSSettlementPartial.sol\":16367:16368  0 */\n      0x00\n        /* \"ShockSpace/utils/SSSettlementPartial.sol\":16348:16368  payout.required == 0 */\n      eq\n        /* \"ShockSpace/utils/SSSettlementPartial.sol\":16344:16442  if (payout.required == 0) {... */\n      iszero\n      tag_173\n      jumpi\n        /* \"ShockSpace/utils/SSSettlementPartial.sol\":16391:16431  new ISSListingTemplate.PayoutUpdate[](0) */\n      0x40\n      dup1\n      mload\n        /* \"ShockSpace/utils/SSSettlementPartial.sol\":16429:16430  0 */\n      0x00\n        /* \"ShockSpace/utils/SSSettlementPartial.sol\":16391:16431  new ISSListingTemplate.PayoutUpdate[](0) */\n      dup1\n      dup3\n      mstore\n      0x20\n      dup3\n      add\n      swap1\n      swap3\n      mstore\n      swap1\n      jump(tag_175)\n    tag_176:\n      tag_177\n      tag_178\n      jump\t// in\n    tag_177:\n      dup2\n      mstore\n      0x20\n      add\n      swap1\n      0x01\n      swap1\n      sub\n      swap1\n      dup2\n      tag_176\n      jumpi\n      swap1\n      pop\n    tag_175:\n      pop\n        /* \"ShockSpace/utils/SSSettlementPartial.sol\":16384:16431  return new ISSListingTemplate.PayoutUpdate[](0) */\n      swap3\n      pop\n      pop\n      pop\n      jump(tag_166)\n        /* \"ShockSpace/utils/SSSettlementPartial.sol\":16344:16442  if (payout.required == 0) {... */\n    tag_173:\n        /* \"ShockSpace/utils/SSSettlementPartial.sol\":16458:16519  _processPayoutUpdate(listing, orderId, payout.required, true) */\n      tag_179\n        /* \"ShockSpace/utils/SSSettlementPartial.sol\":16479:16486  listing */\n      dup6\n        /* \"ShockSpace/utils/SSSettlementPartial.sol\":16488:16495  orderId */\n      dup6\n        /* \"ShockSpace/utils/SSSettlementPartial.sol\":16497:16503  payout */\n      dup4\n        /* \"ShockSpace/utils/SSSettlementPartial.sol\":16497:16512  payout.required */\n      0x40\n      add\n      mload\n        /* \"ShockSpace/utils/SSSettlementPartial.sol\":16514:16518  true */\n      0x01\n        /* \"ShockSpace/utils/SSSettlementPartial.sol\":16458:16478  _processPayoutUpdate */\n      tag_180\n        /* \"ShockSpace/utils/SSSettlementPartial.sol\":16458:16519  _processPayoutUpdate(listing, orderId, payout.required, true) */\n      jump\t// in\n    tag_179:\n        /* \"ShockSpace/utils/SSSettlementPartial.sol\":16451:16519  return _processPayoutUpdate(listing, orderId, payout.required, true) */\n      swap3\n      pop\n      pop\n      pop\n        /* \"ShockSpace/utils/SSSettlementPartial.sol\":16019:16526  function executeLongPayout(... */\n    tag_166:\n      swap3\n      swap2\n      pop\n      pop\n      jump\t// out\n        /* \"ShockSpace/imports/Ownable.sol\":1817:1918  function renounceOwnership() public virtual onlyOwner {... */\n    tag_65:\n        /* \"ShockSpace/imports/Ownable.sol\":1087:1100  _checkOwner() */\n      tag_182\n        /* \"ShockSpace/imports/Ownable.sol\":1087:1098  _checkOwner */\n      tag_183\n        /* \"ShockSpace/imports/Ownable.sol\":1087:1100  _checkOwner() */\n      jump\t// in\n    tag_182:\n        /* \"ShockSpace/imports/Ownable.sol\":1881:1911  _transferOwnership(address(0)) */\n      tag_185\n        /* \"ShockSpace/imports/Ownable.sol\":1908:1909  0 */\n      0x00\n        /* \"ShockSpace/imports/Ownable.sol\":1881:1899  _transferOwnership */\n      tag_186\n        /* \"ShockSpace/imports/Ownable.sol\":1881:1911  _transferOwnership(address(0)) */\n      jump\t// in\n    tag_185:\n        /* \"ShockSpace/imports/Ownable.sol\":1817:1918  function renounceOwnership() public virtual onlyOwner {... */\n      jump\t// out\n        /* \"ShockSpace/utils/SSSettlementPartial.sol\":9526:10898  function executeBuyOrder(... */\n    tag_68:\n        /* \"ShockSpace/utils/SSSettlementPartial.sol\":9868:9911  listingContract.getBuyOrderPricing(orderId) */\n      mload(0x40)\n      shl(0xe1, 0x04039aef)\n      dup2\n      mstore\n        /* \"ShockSpace/utils/SSSettlementPartial.sol\":9647:9685  ISSListingTemplate.UpdateType[] memory */\n      0x60\n      swap1\n        /* \"ShockSpace/utils/SSSettlementPartial.sol\":9753:9760  listing */\n      dup5\n      swap1\n        /* \"ShockSpace/utils/SSSettlementPartial.sol\":9697:9731  ISSListingTemplate listingContract */\n      0x00\n      swap1\n      dup2\n      swap1\n      sub(shl(0xa0, 0x01), 0x01)\n        /* \"ShockSpace/utils/SSSettlementPartial.sol\":9868:9902  listingContract.getBuyOrderPricing */\n      dup5\n      and\n      swap1\n      0x080735de\n      swap1\n        /* \"ShockSpace/utils/SSSettlementPartial.sol\":9868:9911  listingContract.getBuyOrderPricing(orderId) */\n      tag_188\n      swap1\n        /* \"ShockSpace/utils/SSSettlementPartial.sol\":9903:9910  orderId */\n      dup10\n      swap1\n        /* \"ShockSpace/utils/SSSettlementPartial.sol\":9868:9911  listingContract.getBuyOrderPricing(orderId) */\n      0x04\n      add\n      tag_33\n      jump\t// in\n    tag_188:\n      0x40\n      dup1\n      mload\n      dup1\n      dup4\n      sub\n      dup2\n      dup7\n      dup1\n      extcodesize\n      iszero\n      dup1\n      iszero\n      tag_189\n      jumpi\n      0x00\n      dup1\n      revert\n    tag_189:\n      pop\n      gas\n      staticcall\n      iszero\n      dup1\n      iszero\n      tag_191\n      jumpi\n      returndatasize\n      0x00\n      dup1\n      returndatacopy\n      revert(0x00, returndatasize)\n    tag_191:\n      pop\n      pop\n      pop\n      pop\n      mload(0x40)\n      returndatasize\n      not(0x1f)\n      0x1f\n      dup3\n      add\n      and\n      dup3\n      add\n      dup1\n      0x40\n      mstore\n      pop\n      dup2\n      add\n      swap1\n      tag_192\n      swap2\n      swap1\n      tag_130\n      jump\t// in\n    tag_192:\n        /* \"ShockSpace/utils/SSSettlementPartial.sol\":9968:10011  listingContract.getBuyOrderAmounts(orderId) */\n      mload(0x40)\n      shl(0xe2, 0xed8f31)\n      dup2\n      mstore\n        /* \"ShockSpace/utils/SSSettlementPartial.sol\":9845:9911  (maxPrice, minPrice) = listingContract.getBuyOrderPricing(orderId) */\n      swap2\n      swap4\n      pop\n      swap2\n      pop\n        /* \"ShockSpace/utils/SSSettlementPartial.sol\":9925:9940  uint256 pending */\n      0x00\n      swap1\n      sub(shl(0xa0, 0x01), 0x01)\n        /* \"ShockSpace/utils/SSSettlementPartial.sol\":9968:10002  listingContract.getBuyOrderAmounts */\n      dup6\n      and\n      swap1\n      0x03b63cc4\n      swap1\n        /* \"ShockSpace/utils/SSSettlementPartial.sol\":9968:10011  listingContract.getBuyOrderAmounts(orderId) */\n      tag_193\n      swap1\n        /* \"ShockSpace/utils/SSSettlementPartial.sol\":10003:10010  orderId */\n      dup11\n      swap1\n        /* \"ShockSpace/utils/SSSettlementPartial.sol\":9968:10011  listingContract.getBuyOrderAmounts(orderId) */\n      0x04\n      add\n      tag_33\n      jump\t// in\n    tag_193:\n      0x40\n      dup1\n      mload\n      dup1\n      dup4\n      sub\n      dup2\n      dup7\n      dup1\n      extcodesize\n      iszero\n      dup1\n      iszero\n      tag_194\n      jumpi\n      0x00\n      dup1\n      revert\n    tag_194:\n      pop\n      gas\n      staticcall\n      iszero\n      dup1\n      iszero\n      tag_196\n      jumpi\n      returndatasize\n      0x00\n      dup1\n      returndatacopy\n      revert(0x00, returndatasize)\n    tag_196:\n      pop\n      pop\n      pop\n      pop\n      mload(0x40)\n      returndatasize\n      not(0x1f)\n      0x1f\n      dup3\n      add\n      and\n      dup3\n      add\n      dup1\n      0x40\n      mstore\n      pop\n      dup2\n      add\n      swap1\n      tag_197\n      swap2\n      swap1\n      tag_130\n      jump\t// in\n    tag_197:\n      pop\n        /* \"ShockSpace/utils/SSSettlementPartial.sol\":9954:10011  (pending, ) = listingContract.getBuyOrderAmounts(orderId) */\n      swap1\n      pop\n        /* \"ShockSpace/utils/SSSettlementPartial.sol\":10029:10041  pending == 0 */\n      dup1\n      iszero\n      dup1\n        /* \"ShockSpace/utils/SSSettlementPartial.sol\":10029:10056  pending == 0 || amount == 0 */\n      tag_198\n      jumpi\n      pop\n        /* \"ShockSpace/utils/SSSettlementPartial.sol\":10045:10056  amount == 0 */\n      dup6\n      iszero\n        /* \"ShockSpace/utils/SSSettlementPartial.sol\":10029:10056  pending == 0 || amount == 0 */\n    tag_198:\n        /* \"ShockSpace/utils/SSSettlementPartial.sol\":10025:10136  if (pending == 0 || amount == 0) {... */\n      iszero\n      tag_199\n      jumpi\n        /* \"ShockSpace/utils/SSSettlementPartial.sol\":10083:10121  new ISSListingTemplate.UpdateType[](0) */\n      0x40\n      dup1\n      mload\n        /* \"ShockSpace/utils/SSSettlementPartial.sol\":10119:10120  0 */\n      0x00\n        /* \"ShockSpace/utils/SSSettlementPartial.sol\":10083:10121  new ISSListingTemplate.UpdateType[](0) */\n      dup1\n      dup3\n      mstore\n      0x20\n      dup3\n      add\n      swap1\n      swap3\n      mstore\n      swap1\n      jump(tag_139)\n    tag_202:\n      tag_203\n      tag_142\n      jump\t// in\n    tag_203:\n      dup2\n      mstore\n      0x20\n      add\n      swap1\n      0x01\n      swap1\n      sub\n      swap1\n      dup2\n      tag_202\n      jumpi\n      swap1\n      pop\n      pop\n        /* \"ShockSpace/utils/SSSettlementPartial.sol\":10076:10121  return new ISSListingTemplate.UpdateType[](0) */\n      swap5\n      pop\n      pop\n      pop\n      pop\n      pop\n      jump(tag_124)\n        /* \"ShockSpace/utils/SSSettlementPartial.sol\":10025:10136  if (pending == 0 || amount == 0) {... */\n    tag_199:\n        /* \"ShockSpace/utils/SSSettlementPartial.sol\":10150:10166  uint256 xBalance */\n      0x00\n        /* \"ShockSpace/utils/SSSettlementPartial.sol\":10168:10184  uint256 yBalance */\n      dup1\n        /* \"ShockSpace/utils/SSSettlementPartial.sol\":10192:10207  listingContract */\n      dup6\n      sub(shl(0xa0, 0x01), 0x01)\n        /* \"ShockSpace/utils/SSSettlementPartial.sol\":10192:10233  listingContract.listingVolumeBalancesView */\n      and\n      0x40d87ebe\n        /* \"ShockSpace/utils/SSSettlementPartial.sol\":10192:10235  listingContract.listingVolumeBalancesView() */\n      mload(0x40)\n      dup2\n      0xffffffff\n      and\n      0xe0\n      shl\n      dup2\n      mstore\n      0x04\n      add\n      0x80\n      mload(0x40)\n      dup1\n      dup4\n      sub\n      dup2\n      dup7\n      dup1\n      extcodesize\n      iszero\n      dup1\n      iszero\n      tag_204\n      jumpi\n      0x00\n      dup1\n      revert\n    tag_204:\n      pop\n      gas\n      staticcall\n      iszero\n      dup1\n      iszero\n      tag_206\n      jumpi\n      returndatasize\n      0x00\n      dup1\n      returndatacopy\n      revert(0x00, returndatasize)\n    tag_206:\n      pop\n      pop\n      pop\n      pop\n      mload(0x40)\n      returndatasize\n      not(0x1f)\n      0x1f\n      dup3\n      add\n      and\n      dup3\n      add\n      dup1\n      0x40\n      mstore\n      pop\n      dup2\n      add\n      swap1\n      tag_207\n      swap2\n      swap1\n      tag_147\n      jump\t// in\n    tag_207:\n        /* \"ShockSpace/utils/SSSettlementPartial.sol\":10149:10235  (uint256 xBalance, uint256 yBalance, , ) = listingContract.listingVolumeBalancesView() */\n      pop\n      pop\n      swap2\n      pop\n      swap2\n      pop\n        /* \"ShockSpace/utils/SSSettlementPartial.sol\":10249:10268  uint256 impactPrice */\n      0x00\n        /* \"ShockSpace/utils/SSSettlementPartial.sol\":10282:10283  0 */\n      dup1\n        /* \"ShockSpace/utils/SSSettlementPartial.sol\":10271:10279  yBalance */\n      dup3\n        /* \"ShockSpace/utils/SSSettlementPartial.sol\":10271:10283  yBalance > 0 */\n      gt\n        /* \"ShockSpace/utils/SSSettlementPartial.sol\":10271:10329  yBalance > 0 ? (xBalance * 1e18) / (yBalance + amount) : 0 */\n      tag_208\n      jumpi\n        /* \"ShockSpace/utils/SSSettlementPartial.sol\":10328:10329  0 */\n      0x00\n        /* \"ShockSpace/utils/SSSettlementPartial.sol\":10271:10329  yBalance > 0 ? (xBalance * 1e18) / (yBalance + amount) : 0 */\n      jump(tag_212)\n    tag_208:\n        /* \"ShockSpace/utils/SSSettlementPartial.sol\":10307:10324  yBalance + amount */\n      tag_210\n        /* \"ShockSpace/utils/SSSettlementPartial.sol\":10318:10324  amount */\n      dup10\n        /* \"ShockSpace/utils/SSSettlementPartial.sol\":10307:10315  yBalance */\n      dup4\n        /* \"ShockSpace/utils/SSSettlementPartial.sol\":10307:10324  yBalance + amount */\n      tag_151\n      jump\t// in\n    tag_210:\n        /* \"ShockSpace/utils/SSSettlementPartial.sol\":10287:10302  xBalance * 1e18 */\n      tag_211\n        /* \"ShockSpace/utils/SSSettlementPartial.sol\":10287:10295  xBalance */\n      dup5\n        /* \"ShockSpace/utils/SSSettlementPartial.sol\":10298:10302  1e18 */\n      0x0de0b6b3a7640000\n        /* \"ShockSpace/utils/SSSettlementPartial.sol\":10287:10302  xBalance * 1e18 */\n      tag_153\n      jump\t// in\n    tag_211:\n        /* \"ShockSpace/utils/SSSettlementPartial.sol\":10286:10325  (xBalance * 1e18) / (yBalance + amount) */\n      tag_212\n      swap2\n      swap1\n      tag_155\n      jump\t// in\n    tag_212:\n        /* \"ShockSpace/utils/SSSettlementPartial.sol\":10249:10329  uint256 impactPrice = yBalance > 0 ? (xBalance * 1e18) / (yBalance + amount) : 0 */\n      swap1\n      pop\n        /* \"ShockSpace/utils/SSSettlementPartial.sol\":10361:10369  maxPrice */\n      dup6\n        /* \"ShockSpace/utils/SSSettlementPartial.sol\":10347:10358  impactPrice */\n      dup2\n        /* \"ShockSpace/utils/SSSettlementPartial.sol\":10347:10369  impactPrice > maxPrice */\n      gt\n        /* \"ShockSpace/utils/SSSettlementPartial.sol\":10347:10395  impactPrice > maxPrice || impactPrice < minPrice */\n      dup1\n      tag_213\n      jumpi\n      pop\n        /* \"ShockSpace/utils/SSSettlementPartial.sol\":10387:10395  minPrice */\n      dup5\n        /* \"ShockSpace/utils/SSSettlementPartial.sol\":10373:10384  impactPrice */\n      dup2\n        /* \"ShockSpace/utils/SSSettlementPartial.sol\":10373:10395  impactPrice < minPrice */\n      lt\n        /* \"ShockSpace/utils/SSSettlementPartial.sol\":10347:10395  impactPrice > maxPrice || impactPrice < minPrice */\n    tag_213:\n        /* \"ShockSpace/utils/SSSettlementPartial.sol\":10343:10475  if (impactPrice > maxPrice || impactPrice < minPrice) {... */\n      iszero\n      tag_214\n      jumpi\n        /* \"ShockSpace/utils/SSSettlementPartial.sol\":10422:10460  new ISSListingTemplate.UpdateType[](0) */\n      0x40\n      dup1\n      mload\n        /* \"ShockSpace/utils/SSSettlementPartial.sol\":10458:10459  0 */\n      0x00\n        /* \"ShockSpace/utils/SSSettlementPartial.sol\":10422:10460  new ISSListingTemplate.UpdateType[](0) */\n      dup1\n      dup3\n      mstore\n      0x20\n      dup3\n      add\n      swap1\n      swap3\n      mstore\n      swap1\n      jump(tag_159)\n    tag_217:\n      tag_218\n      tag_142\n      jump\t// in\n    tag_218:\n      dup2\n      mstore\n      0x20\n      add\n      swap1\n      0x01\n      swap1\n      sub\n      swap1\n      dup2\n      tag_217\n      jumpi\n      swap1\n      pop\n      pop\n        /* \"ShockSpace/utils/SSSettlementPartial.sol\":10415:10460  return new ISSListingTemplate.UpdateType[](0) */\n      swap8\n      pop\n      pop\n      pop\n      pop\n      pop\n      pop\n      pop\n      pop\n      jump(tag_124)\n        /* \"ShockSpace/utils/SSSettlementPartial.sol\":10343:10475  if (impactPrice > maxPrice || impactPrice < minPrice) {... */\n    tag_214:\n        /* \"ShockSpace/utils/SSSettlementPartial.sol\":9526:10898  function executeBuyOrder(... */\n      pop\n      pop\n      pop\n      pop\n      pop\n      pop\n        /* \"ShockSpace/utils/SSSettlementPartial.sol\":10508:10528  address tokenAddress */\n      0x00\n        /* \"ShockSpace/utils/SSSettlementPartial.sol\":10542:10556  uint8 decimals */\n      dup1\n        /* \"ShockSpace/utils/SSSettlementPartial.sol\":10570:10590  address makerAddress */\n      0x00\n        /* \"ShockSpace/utils/SSSettlementPartial.sol\":10604:10621  address recipient */\n      dup1\n        /* \"ShockSpace/utils/SSSettlementPartial.sol\":10635:10647  uint8 status */\n      0x00\n        /* \"ShockSpace/utils/SSSettlementPartial.sol\":10661:10683  uint256 amountReceived */\n      dup1\n        /* \"ShockSpace/utils/SSSettlementPartial.sol\":10697:10723  uint256 normalizedReceived */\n      0x00\n        /* \"ShockSpace/utils/SSSettlementPartial.sol\":10736:10781  _prepBuyOrderUpdate(listing, orderId, amount) */\n      tag_219\n        /* \"ShockSpace/utils/SSSettlementPartial.sol\":10756:10763  listing */\n      dup13\n        /* \"ShockSpace/utils/SSSettlementPartial.sol\":10765:10772  orderId */\n      dup13\n        /* \"ShockSpace/utils/SSSettlementPartial.sol\":10774:10780  amount */\n      dup13\n        /* \"ShockSpace/utils/SSSettlementPartial.sol\":10736:10755  _prepBuyOrderUpdate */\n      tag_220\n        /* \"ShockSpace/utils/SSSettlementPartial.sol\":10736:10781  _prepBuyOrderUpdate(listing, orderId, amount) */\n      jump\t// in\n    tag_219:\n        /* \"ShockSpace/utils/SSSettlementPartial.sol\":10494:10781  (... */\n      swap7\n      pop\n      swap7\n      pop\n      swap7\n      pop\n      swap7\n      pop\n      swap7\n      pop\n      swap7\n      pop\n      swap7\n      pop\n        /* \"ShockSpace/utils/SSSettlementPartial.sol\":10798:10891  _executeBuyOrderUpdate(listing, orderId, normalizedReceived, makerAddress, recipient, status) */\n      tag_164\n        /* \"ShockSpace/utils/SSSettlementPartial.sol\":10821:10828  listing */\n      dup13\n        /* \"ShockSpace/utils/SSSettlementPartial.sol\":10830:10837  orderId */\n      dup13\n        /* \"ShockSpace/utils/SSSettlementPartial.sol\":10839:10857  normalizedReceived */\n      dup4\n        /* \"ShockSpace/utils/SSSettlementPartial.sol\":10859:10871  makerAddress */\n      dup9\n        /* \"ShockSpace/utils/SSSettlementPartial.sol\":10873:10882  recipient */\n      dup9\n        /* \"ShockSpace/utils/SSSettlementPartial.sol\":10884:10890  status */\n      dup9\n        /* \"ShockSpace/utils/SSSettlementPartial.sol\":10798:10820  _executeBuyOrderUpdate */\n      tag_222\n        /* \"ShockSpace/utils/SSSettlementPartial.sol\":10798:10891  _executeBuyOrderUpdate(listing, orderId, normalizedReceived, makerAddress, recipient, status) */\n      jump\t// in\n        /* \"ShockSpace/imports/Ownable.sol\":1194:1279  function owner() public view virtual returns (address) {... */\n    tag_71:\n        /* \"ShockSpace/imports/Ownable.sol\":1266:1272  _owner */\n      and(sub(shl(0xa0, 0x01), 0x01), sload(0x01))\n        /* \"ShockSpace/imports/Ownable.sol\":1194:1279  function owner() public view virtual returns (address) {... */\n      swap1\n      jump\t// out\n        /* \"ShockSpace/utils/SSMainPartial.sol\":8823:8864  mapping(address => address) public tokenA */\n    tag_75:\n      mstore(0x20, 0x05)\n      0x00\n      swap1\n      dup2\n      mstore\n      0x40\n      swap1\n      keccak256\n      sload\n      sub(shl(0xa0, 0x01), 0x01)\n      and\n      dup2\n      jump\t// out\n        /* \"ShockSpace/utils/SSMainPartial.sol\":8870:8911  mapping(address => address) public tokenB */\n    tag_79:\n      mstore(0x20, 0x06)\n      0x00\n      swap1\n      dup2\n      mstore\n      0x40\n      swap1\n      keccak256\n      sload\n      sub(shl(0xa0, 0x01), 0x01)\n      and\n      dup2\n      jump\t// out\n        /* \"ShockSpace/utils/SSMainPartial.sol\":8965:9007  mapping(address => uint8) public decimalsB */\n    tag_83:\n      mstore(0x20, 0x08)\n      0x00\n      swap1\n      dup2\n      mstore\n      0x40\n      swap1\n      keccak256\n      sload\n      0xff\n      and\n      dup2\n      jump\t// out\n        /* \"ShockSpace/utils/SSMainPartial.sol\":8917:8959  mapping(address => uint8) public decimalsA */\n    tag_88:\n      mstore(0x20, 0x07)\n      0x00\n      swap1\n      dup2\n      mstore\n      0x40\n      swap1\n      keccak256\n      sload\n      0xff\n      and\n      dup2\n      jump\t// out\n        /* \"ShockSpace/utils/SSMainPartial.sol\":9412:9486  mapping(address => mapping(address => uint256[])) public makerActiveOrders */\n    tag_93:\n      mstore(0x20, 0x0f)\n      dup3\n      0x00\n      mstore\n      mstore(0x20, keccak256(0x00, 0x40))\n      dup2\n      0x00\n      mstore\n      keccak256(0x00, 0x40)\n      dup2\n      dup2\n      sload\n      dup2\n      lt\n      tag_224\n      jumpi\n      0x00\n      dup1\n      revert\n    tag_224:\n      swap1\n      0x00\n      mstore\n      keccak256(0x00, 0x20)\n      add\n      0x00\n      swap3\n      pop\n      swap3\n      pop\n      pop\n      pop\n      sload\n      dup2\n      jump\t// out\n        /* \"ShockSpace/utils/SSMainPartial.sol\":9621:9775  function setAgent(address newAgent) external onlyOwner {... */\n    tag_97:\n        /* \"ShockSpace/imports/Ownable.sol\":1087:1100  _checkOwner() */\n      tag_227\n        /* \"ShockSpace/imports/Ownable.sol\":1087:1098  _checkOwner */\n      tag_183\n        /* \"ShockSpace/imports/Ownable.sol\":1087:1100  _checkOwner() */\n      jump\t// in\n    tag_227:\n      sub(shl(0xa0, 0x01), 0x01)\n        /* \"ShockSpace/utils/SSMainPartial.sol\":9694:9716  newAgent != address(0) */\n      dup2\n      and\n        /* \"ShockSpace/utils/SSMainPartial.sol\":9686:9742  require(newAgent != address(0), \"Invalid agent address\") */\n      tag_229\n      jumpi\n      mload(0x40)\n      shl(0xe5, 0x461bcd)\n      dup2\n      mstore\n      0x04\n      add\n      tag_230\n      swap1\n      tag_231\n      jump\t// in\n    tag_230:\n      mload(0x40)\n      dup1\n      swap2\n      sub\n      swap1\n      revert\n    tag_229:\n        /* \"ShockSpace/utils/SSMainPartial.sol\":9752:9757  agent */\n      0x02\n        /* \"ShockSpace/utils/SSMainPartial.sol\":9752:9768  agent = newAgent */\n      dup1\n      sload\n      not(sub(shl(0xa0, 0x01), 0x01))\n      and\n      sub(shl(0xa0, 0x01), 0x01)\n      swap3\n      swap1\n      swap3\n      and\n      swap2\n      swap1\n      swap2\n      or\n      swap1\n      sstore\n        /* \"ShockSpace/utils/SSMainPartial.sol\":9621:9775  function setAgent(address newAgent) external onlyOwner {... */\n      jump\t// out\n        /* \"ShockSpace/utils/SSSettlementPartial.sol\":16532:17039  function executeShortPayout(... */\n    tag_100:\n        /* \"ShockSpace/utils/SSSettlementPartial.sol\":16811:16850  listingContract.getShortPayout(orderId) */\n      mload(0x40)\n      shl(0xe2, 0x31e520db)\n      dup2\n      mstore\n        /* \"ShockSpace/utils/SSSettlementPartial.sol\":16632:16672  ISSListingTemplate.PayoutUpdate[] memory */\n      0x60\n      swap1\n        /* \"ShockSpace/utils/SSSettlementPartial.sol\":16740:16747  listing */\n      dup4\n      swap1\n        /* \"ShockSpace/utils/SSSettlementPartial.sol\":16684:16718  ISSListingTemplate listingContract */\n      0x00\n      swap1\n      sub(shl(0xa0, 0x01), 0x01)\n        /* \"ShockSpace/utils/SSSettlementPartial.sol\":16811:16841  listingContract.getShortPayout */\n      dup4\n      and\n      swap1\n      0xc794836c\n      swap1\n        /* \"ShockSpace/utils/SSSettlementPartial.sol\":16811:16850  listingContract.getShortPayout(orderId) */\n      tag_233\n      swap1\n        /* \"ShockSpace/utils/SSSettlementPartial.sol\":16842:16849  orderId */\n      dup8\n      swap1\n        /* \"ShockSpace/utils/SSSettlementPartial.sol\":16811:16850  listingContract.getShortPayout(orderId) */\n      0x04\n      add\n      tag_33\n      jump\t// in\n    tag_233:\n      0xc0\n      mload(0x40)\n      dup1\n      dup4\n      sub\n      dup2\n      dup7\n      dup1\n      extcodesize\n      iszero\n      dup1\n      iszero\n      tag_234\n      jumpi\n      0x00\n      dup1\n      revert\n    tag_234:\n      pop\n      gas\n      staticcall\n      iszero\n      dup1\n      iszero\n      tag_236\n      jumpi\n      returndatasize\n      0x00\n      dup1\n      returndatacopy\n      revert(0x00, returndatasize)\n    tag_236:\n      pop\n      pop\n      pop\n      pop\n      mload(0x40)\n      returndatasize\n      not(0x1f)\n      0x1f\n      dup3\n      add\n      and\n      dup3\n      add\n      dup1\n      0x40\n      mstore\n      pop\n      dup2\n      add\n      swap1\n      tag_237\n      swap2\n      swap1\n      tag_172\n      jump\t// in\n    tag_237:\n        /* \"ShockSpace/utils/SSSettlementPartial.sol\":16758:16850  ISSListingTemplate.ShortPayoutStruct memory payout = listingContract.getShortPayout(orderId) */\n      swap1\n      pop\n        /* \"ShockSpace/utils/SSSettlementPartial.sol\":16864:16870  payout */\n      dup1\n        /* \"ShockSpace/utils/SSSettlementPartial.sol\":16864:16877  payout.amount */\n      0x40\n      add\n      mload\n        /* \"ShockSpace/utils/SSSettlementPartial.sol\":16881:16882  0 */\n      0x00\n        /* \"ShockSpace/utils/SSSettlementPartial.sol\":16864:16882  payout.amount == 0 */\n      eq\n        /* \"ShockSpace/utils/SSSettlementPartial.sol\":16860:16956  if (payout.amount == 0) {... */\n      iszero\n      tag_239\n      jumpi\n        /* \"ShockSpace/utils/SSSettlementPartial.sol\":16905:16945  new ISSListingTemplate.PayoutUpdate[](0) */\n      0x40\n      dup1\n      mload\n        /* \"ShockSpace/utils/SSSettlementPartial.sol\":16943:16944  0 */\n      0x00\n        /* \"ShockSpace/utils/SSSettlementPartial.sol\":16905:16945  new ISSListingTemplate.PayoutUpdate[](0) */\n      dup1\n      dup3\n      mstore\n      0x20\n      dup3\n      add\n      swap1\n      swap3\n      mstore\n      swap1\n      jump(tag_175)\n    tag_242:\n      tag_243\n      tag_178\n      jump\t// in\n    tag_243:\n      dup2\n      mstore\n      0x20\n      add\n      swap1\n      0x01\n      swap1\n      sub\n      swap1\n      dup2\n      tag_242\n      jumpi\n      swap1\n      pop\n      pop\n        /* \"ShockSpace/utils/SSSettlementPartial.sol\":16898:16945  return new ISSListingTemplate.PayoutUpdate[](0) */\n      swap3\n      pop\n      pop\n      pop\n      jump(tag_166)\n        /* \"ShockSpace/utils/SSSettlementPartial.sol\":16860:16956  if (payout.amount == 0) {... */\n    tag_239:\n        /* \"ShockSpace/utils/SSSettlementPartial.sol\":16972:17032  _processPayoutUpdate(listing, orderId, payout.amount, false) */\n      tag_179\n        /* \"ShockSpace/utils/SSSettlementPartial.sol\":16993:17000  listing */\n      dup6\n        /* \"ShockSpace/utils/SSSettlementPartial.sol\":17002:17009  orderId */\n      dup6\n        /* \"ShockSpace/utils/SSSettlementPartial.sol\":17011:17017  payout */\n      dup4\n        /* \"ShockSpace/utils/SSSettlementPartial.sol\":17011:17024  payout.amount */\n      0x40\n      add\n      mload\n        /* \"ShockSpace/utils/SSSettlementPartial.sol\":17026:17031  false */\n      0x00\n        /* \"ShockSpace/utils/SSSettlementPartial.sol\":16972:16992  _processPayoutUpdate */\n      tag_180\n        /* \"ShockSpace/utils/SSSettlementPartial.sol\":16972:17032  _processPayoutUpdate(listing, orderId, payout.amount, false) */\n      jump\t// in\n        /* \"ShockSpace/utils/SSMainPartial.sol\":9232:9285  mapping(address => uint256[]) public activeSellOrders */\n    tag_104:\n      mstore(0x20, 0x0c)\n      dup2\n      0x00\n      mstore\n      keccak256(0x00, 0x40)\n      dup2\n      dup2\n      sload\n      dup2\n      lt\n      tag_120\n      jumpi\n      0x00\n      dup1\n      revert\n        /* \"ShockSpace/utils/SSMainPartial.sol\":9013:9087  mapping(address => mapping(uint256 => uint256)) public orderPendingAmounts */\n    tag_108:\n      0x09\n      0x20\n      swap1\n      dup2\n      mstore\n      0x00\n      swap3\n      dup4\n      mstore\n      0x40\n      dup1\n      dup5\n      keccak256\n      swap1\n      swap2\n      mstore\n      swap1\n      dup3\n      mstore\n      swap1\n      keccak256\n      sload\n      dup2\n      jump\t// out\n        /* \"ShockSpace/imports/Ownable.sol\":2067:2265  function transferOwnership(address newOwner) public virtual onlyOwner {... */\n    tag_112:\n        /* \"ShockSpace/imports/Ownable.sol\":1087:1100  _checkOwner() */\n      tag_248\n        /* \"ShockSpace/imports/Ownable.sol\":1087:1098  _checkOwner */\n      tag_183\n        /* \"ShockSpace/imports/Ownable.sol\":1087:1100  _checkOwner() */\n      jump\t// in\n    tag_248:\n      sub(shl(0xa0, 0x01), 0x01)\n        /* \"ShockSpace/imports/Ownable.sol\":2155:2177  newOwner != address(0) */\n      dup2\n      and\n        /* \"ShockSpace/imports/Ownable.sol\":2147:2220  require(newOwner != address(0), \"Ownable: new owner is the zero address\") */\n      tag_250\n      jumpi\n      mload(0x40)\n      shl(0xe5, 0x461bcd)\n      dup2\n      mstore\n      0x04\n      add\n      tag_230\n      swap1\n      tag_252\n      jump\t// in\n    tag_250:\n        /* \"ShockSpace/imports/Ownable.sol\":2230:2258  _transferOwnership(newOwner) */\n      tag_253\n        /* \"ShockSpace/imports/Ownable.sol\":2249:2257  newOwner */\n      dup2\n        /* \"ShockSpace/imports/Ownable.sol\":2230:2248  _transferOwnership */\n      tag_186\n        /* \"ShockSpace/imports/Ownable.sol\":2230:2258  _transferOwnership(newOwner) */\n      jump\t// in\n    tag_253:\n        /* \"ShockSpace/imports/Ownable.sol\":2067:2265  function transferOwnership(address newOwner) public virtual onlyOwner {... */\n      pop\n      jump\t// out\n        /* \"ShockSpace/utils/SSMainPartial.sol\":7958:7978  address public agent */\n    tag_114:\n      and(sub(shl(0xa0, 0x01), 0x01), sload(0x02))\n      dup2\n      jump\t// out\n        /* \"ShockSpace/utils/SSMainPartial.sol\":9291:9345  mapping(address => uint256[]) public activeLongPayouts */\n    tag_118:\n      mstore(0x20, 0x0d)\n      dup2\n      0x00\n      mstore\n      keccak256(0x00, 0x40)\n      dup2\n      dup2\n      sload\n      dup2\n      lt\n      tag_120\n      jumpi\n      0x00\n      dup1\n      revert\n        /* \"ShockSpace/utils/SSSettlementPartial.sol\":6516:7202  function _prepSellOrderUpdate(... */\n    tag_163:\n        /* \"ShockSpace/utils/SSSettlementPartial.sol\":6653:6673  address tokenAddress */\n      0x00\n      dup1\n      dup1\n      dup1\n      dup1\n      dup1\n      dup1\n        /* \"ShockSpace/utils/SSSettlementPartial.sol\":6917:6924  listing */\n      dup10\n        /* \"ShockSpace/utils/SSSettlementPartial.sol\":6962:6998  _getTokenAndDecimals(listing, false) */\n      tag_257\n        /* \"ShockSpace/utils/SSSettlementPartial.sol\":6917:6924  listing */\n      dup2\n        /* \"ShockSpace/utils/SSSettlementPartial.sol\":6653:6673  address tokenAddress */\n      dup4\n        /* \"ShockSpace/utils/SSSettlementPartial.sol\":6962:6982  _getTokenAndDecimals */\n      tag_258\n        /* \"ShockSpace/utils/SSSettlementPartial.sol\":6962:6998  _getTokenAndDecimals(listing, false) */\n      jump\t// in\n    tag_257:\n        /* \"ShockSpace/utils/SSSettlementPartial.sol\":7044:7085  listingContract.getSellOrderCore(orderId) */\n      mload(0x40)\n      shl(0xe1, 0x4abfd7bf)\n      dup2\n      mstore\n        /* \"ShockSpace/utils/SSSettlementPartial.sol\":6935:6998  (tokenAddress, decimals) = _getTokenAndDecimals(listing, false) */\n      swap2\n      swap10\n      pop\n      swap8\n      pop\n      sub(shl(0xa0, 0x01), 0x01)\n        /* \"ShockSpace/utils/SSSettlementPartial.sol\":7044:7076  listingContract.getSellOrderCore */\n      dup3\n      and\n      swap1\n      0x957faf7e\n      swap1\n        /* \"ShockSpace/utils/SSSettlementPartial.sol\":7044:7085  listingContract.getSellOrderCore(orderId) */\n      tag_259\n      swap1\n        /* \"ShockSpace/utils/SSSettlementPartial.sol\":7077:7084  orderId */\n      dup14\n      swap1\n        /* \"ShockSpace/utils/SSSettlementPartial.sol\":7044:7085  listingContract.getSellOrderCore(orderId) */\n      0x04\n      add\n      tag_33\n      jump\t// in\n    tag_259:\n      0x60\n      mload(0x40)\n      dup1\n      dup4\n      sub\n      dup2\n      dup7\n      dup1\n      extcodesize\n      iszero\n      dup1\n      iszero\n      tag_260\n      jumpi\n      0x00\n      dup1\n      revert\n    tag_260:\n      pop\n      gas\n      staticcall\n      iszero\n      dup1\n      iszero\n      tag_262\n      jumpi\n      returndatasize\n      0x00\n      dup1\n      returndatacopy\n      revert(0x00, returndatasize)\n    tag_262:\n      pop\n      pop\n      pop\n      pop\n      mload(0x40)\n      returndatasize\n      not(0x1f)\n      0x1f\n      dup3\n      add\n      and\n      dup3\n      add\n      dup1\n      0x40\n      mstore\n      pop\n      dup2\n      add\n      swap1\n      tag_263\n      swap2\n      swap1\n      tag_264\n      jump\t// in\n    tag_263:\n        /* \"ShockSpace/utils/SSSettlementPartial.sol\":7008:7085  (makerAddress, recipient, status) = listingContract.getSellOrderCore(orderId) */\n      swap2\n      swap8\n      pop\n      swap6\n      pop\n      swap4\n      pop\n        /* \"ShockSpace/utils/SSSettlementPartial.sol\":7134:7195  _executeTransaction(listing, tokenAddress, amount, recipient) */\n      tag_265\n        /* \"ShockSpace/utils/SSSettlementPartial.sol\":7154:7161  listing */\n      dup12\n        /* \"ShockSpace/utils/SSSettlementPartial.sol\":7163:7175  tokenAddress */\n      dup10\n        /* \"ShockSpace/utils/SSSettlementPartial.sol\":7177:7183  amount */\n      dup12\n        /* \"ShockSpace/utils/SSSettlementPartial.sol\":7008:7085  (makerAddress, recipient, status) = listingContract.getSellOrderCore(orderId) */\n      dup9\n        /* \"ShockSpace/utils/SSSettlementPartial.sol\":7134:7153  _executeTransaction */\n      tag_266\n        /* \"ShockSpace/utils/SSSettlementPartial.sol\":7134:7195  _executeTransaction(listing, tokenAddress, amount, recipient) */\n      jump\t// in\n    tag_265:\n        /* \"ShockSpace/utils/SSSettlementPartial.sol\":6516:7202  function _prepSellOrderUpdate(... */\n      swap9\n      swap13\n      swap8\n      swap12\n      pop\n      swap6\n      swap10\n      pop\n      swap4\n      swap8\n      pop\n      swap2\n      swap6\n        /* \"ShockSpace/utils/SSSettlementPartial.sol\":7095:7195  (amountReceived, normalizedReceived) = _executeTransaction(listing, tokenAddress, amount, recipient) */\n      swap4\n      swap5\n        /* \"ShockSpace/utils/SSSettlementPartial.sol\":6516:7202  function _prepSellOrderUpdate(... */\n      swap3\n      pop\n      pop\n      pop\n      jump\t// out\n        /* \"ShockSpace/utils/SSSettlementPartial.sol\":8009:8806  function _executeSellOrderUpdate(... */\n    tag_165:\n        /* \"ShockSpace/utils/SSSettlementPartial.sol\":8231:8269  ISSListingTemplate.UpdateType[] memory */\n      0x60\n        /* \"ShockSpace/utils/SSSettlementPartial.sol\":8285:8308  normalizedReceived == 0 */\n      dup5\n        /* \"ShockSpace/utils/SSSettlementPartial.sol\":8281:8380  if (normalizedReceived == 0) {... */\n      tag_268\n      jumpi\n        /* \"ShockSpace/utils/SSSettlementPartial.sol\":8331:8369  new ISSListingTemplate.UpdateType[](0) */\n      0x40\n      dup1\n      mload\n        /* \"ShockSpace/utils/SSSettlementPartial.sol\":8367:8368  0 */\n      0x00\n        /* \"ShockSpace/utils/SSSettlementPartial.sol\":8331:8369  new ISSListingTemplate.UpdateType[](0) */\n      dup1\n      dup3\n      mstore\n      0x20\n      dup3\n      add\n      swap1\n      swap3\n      mstore\n      swap1\n      jump(tag_270)\n    tag_271:\n      tag_272\n      tag_142\n      jump\t// in\n    tag_272:\n      dup2\n      mstore\n      0x20\n      add\n      swap1\n      0x01\n      swap1\n      sub\n      swap1\n      dup2\n      tag_271\n      jumpi\n      swap1\n      pop\n    tag_270:\n      pop\n        /* \"ShockSpace/utils/SSSettlementPartial.sol\":8324:8369  return new ISSListingTemplate.UpdateType[](0) */\n      swap1\n      pop\n      jump(tag_267)\n        /* \"ShockSpace/utils/SSSettlementPartial.sol\":8281:8380  if (normalizedReceived == 0) {... */\n    tag_268:\n      sub(shl(0xa0, 0x01), 0x01)\n        /* \"ShockSpace/utils/SSSettlementPartial.sol\":8413:8441  orderPendingAmounts[listing] */\n      dup8\n      and\n        /* \"ShockSpace/utils/SSSettlementPartial.sol\":8389:8410  uint256 pendingAmount */\n      0x00\n        /* \"ShockSpace/utils/SSSettlementPartial.sol\":8413:8441  orderPendingAmounts[listing] */\n      swap1\n      dup2\n      mstore\n        /* \"ShockSpace/utils/SSSettlementPartial.sol\":8413:8432  orderPendingAmounts */\n      0x09\n        /* \"ShockSpace/utils/SSSettlementPartial.sol\":8413:8441  orderPendingAmounts[listing] */\n      0x20\n      swap1\n      dup2\n      mstore\n      0x40\n      dup1\n      dup4\n      keccak256\n        /* \"ShockSpace/utils/SSSettlementPartial.sol\":8413:8450  orderPendingAmounts[listing][orderId] */\n      dup10\n      dup5\n      mstore\n      swap1\n      swap2\n      mstore\n      dup2\n      keccak256\n      sload\n      swap1\n        /* \"ShockSpace/utils/SSSettlementPartial.sol\":8509:8706  _createOrderUpdates(... */\n      tag_273\n        /* \"ShockSpace/utils/SSSettlementPartial.sol\":8442:8449  orderId */\n      dup9\n        /* \"ShockSpace/utils/SSSettlementPartial.sol\":8563:8581  normalizedReceived */\n      dup9\n        /* \"ShockSpace/utils/SSSettlementPartial.sol\":8595:8607  makerAddress */\n      dup9\n        /* \"ShockSpace/utils/SSSettlementPartial.sol\":8621:8630  recipient */\n      dup9\n        /* \"ShockSpace/utils/SSSettlementPartial.sol\":8644:8650  status */\n      dup9\n        /* \"ShockSpace/utils/SSSettlementPartial.sol\":8389:8410  uint256 pendingAmount */\n      dup7\n        /* \"ShockSpace/utils/SSSettlementPartial.sol\":8413:8450  orderPendingAmounts[listing][orderId] */\n      dup9\n        /* \"ShockSpace/utils/SSSettlementPartial.sol\":8509:8528  _createOrderUpdates */\n      tag_274\n        /* \"ShockSpace/utils/SSSettlementPartial.sol\":8509:8706  _createOrderUpdates(... */\n      jump\t// in\n    tag_273:\n      sub(shl(0xa0, 0x01), 0x01)\n        /* \"ShockSpace/utils/SSSettlementPartial.sol\":8716:8744  orderPendingAmounts[listing] */\n      dup11\n      and\n      0x00\n      swap1\n      dup2\n      mstore\n        /* \"ShockSpace/utils/SSSettlementPartial.sol\":8716:8735  orderPendingAmounts */\n      0x09\n        /* \"ShockSpace/utils/SSSettlementPartial.sol\":8716:8744  orderPendingAmounts[listing] */\n      0x20\n      swap1\n      dup2\n      mstore\n      0x40\n      dup1\n      dup4\n      keccak256\n        /* \"ShockSpace/utils/SSSettlementPartial.sol\":8716:8753  orderPendingAmounts[listing][orderId] */\n      dup13\n      dup5\n      mstore\n      swap1\n      swap2\n      mstore\n      dup2\n      keccak256\n        /* \"ShockSpace/utils/SSSettlementPartial.sol\":8716:8775  orderPendingAmounts[listing][orderId] -= normalizedReceived */\n      dup1\n      sload\n        /* \"ShockSpace/utils/SSSettlementPartial.sol\":8460:8706  ISSListingTemplate.UpdateType[] memory updates = _createOrderUpdates(... */\n      swap3\n      swap4\n      pop\n        /* \"ShockSpace/utils/SSSettlementPartial.sol\":8757:8775  normalizedReceived */\n      dup10\n      swap3\n        /* \"ShockSpace/utils/SSSettlementPartial.sol\":8716:8753  orderPendingAmounts[listing][orderId] */\n      swap1\n      swap2\n        /* \"ShockSpace/utils/SSSettlementPartial.sol\":8716:8744  orderPendingAmounts[listing] */\n      swap1\n        /* \"ShockSpace/utils/SSSettlementPartial.sol\":8716:8775  orderPendingAmounts[listing][orderId] -= normalizedReceived */\n      tag_275\n      swap1\n        /* \"ShockSpace/utils/SSSettlementPartial.sol\":8757:8775  normalizedReceived */\n      dup5\n      swap1\n        /* \"ShockSpace/utils/SSSettlementPartial.sol\":8716:8775  orderPendingAmounts[listing][orderId] -= normalizedReceived */\n      tag_276\n      jump\t// in\n    tag_275:\n      swap1\n      swap2\n      sstore\n      pop\n        /* \"ShockSpace/utils/SSSettlementPartial.sol\":8792:8799  updates */\n      swap1\n      swap3\n      pop\n      pop\n      pop\n        /* \"ShockSpace/utils/SSSettlementPartial.sol\":8009:8806  function _executeSellOrderUpdate(... */\n    tag_267:\n      swap7\n      swap6\n      pop\n      pop\n      pop\n      pop\n      pop\n      pop\n      jump\t// out\n        /* \"ShockSpace/utils/SSSettlementPartial.sol\":8812:9520  function _processPayoutUpdate(... */\n    tag_180:\n        /* \"ShockSpace/utils/SSSettlementPartial.sol\":9144:9184  new ISSListingTemplate.PayoutUpdate[](1) */\n      0x40\n      dup1\n      mload\n        /* \"ShockSpace/utils/SSSettlementPartial.sol\":9182:9183  1 */\n      0x01\n        /* \"ShockSpace/utils/SSSettlementPartial.sol\":9144:9184  new ISSListingTemplate.PayoutUpdate[](1) */\n      dup1\n      dup3\n      mstore\n      dup2\n      dup4\n      add\n      swap1\n      swap3\n      mstore\n        /* \"ShockSpace/utils/SSSettlementPartial.sol\":8961:9001  ISSListingTemplate.PayoutUpdate[] memory */\n      0x60\n      swap2\n        /* \"ShockSpace/utils/SSSettlementPartial.sol\":9069:9076  listing */\n      dup7\n      swap2\n        /* \"ShockSpace/utils/SSSettlementPartial.sol\":9013:9047  ISSListingTemplate listingContract */\n      0x00\n      swap2\n        /* \"ShockSpace/utils/SSSettlementPartial.sol\":9144:9184  new ISSListingTemplate.PayoutUpdate[](1) */\n      dup2\n      0x20\n      add\n    tag_280:\n      tag_281\n      tag_178\n      jump\t// in\n    tag_281:\n      dup2\n      mstore\n      0x20\n      add\n      swap1\n      0x01\n      swap1\n      sub\n      swap1\n      dup2\n      tag_280\n      jumpi\n      swap1\n      pop\n      pop\n        /* \"ShockSpace/utils/SSSettlementPartial.sol\":9087:9184  ISSListingTemplate.PayoutUpdate[] memory payoutUpdates = new ISSListingTemplate.PayoutUpdate[](1) */\n      swap1\n      pop\n        /* \"ShockSpace/utils/SSSettlementPartial.sol\":9213:9361  ISSListingTemplate.PayoutUpdate({... */\n      mload(0x40)\n      dup1\n      0x60\n      add\n      0x40\n      mstore\n      dup1\n        /* \"ShockSpace/utils/SSSettlementPartial.sol\":9271:9277  isLong */\n      dup6\n        /* \"ShockSpace/utils/SSSettlementPartial.sol\":9271:9285  isLong ? 0 : 1 */\n      tag_282\n      jumpi\n        /* \"ShockSpace/utils/SSSettlementPartial.sol\":9284:9285  1 */\n      0x01\n        /* \"ShockSpace/utils/SSSettlementPartial.sol\":9271:9285  isLong ? 0 : 1 */\n      jump(tag_283)\n    tag_282:\n        /* \"ShockSpace/utils/SSSettlementPartial.sol\":9280:9281  0 */\n      0x00\n        /* \"ShockSpace/utils/SSSettlementPartial.sol\":9271:9285  isLong ? 0 : 1 */\n    tag_283:\n        /* \"ShockSpace/utils/SSSettlementPartial.sol\":9213:9361  ISSListingTemplate.PayoutUpdate({... */\n      0xff\n      and\n      dup2\n      mstore\n      0x20\n      add\n        /* \"ShockSpace/utils/SSSettlementPartial.sol\":9318:9319  0 */\n      0x00\n      sub(shl(0xa0, 0x01), 0x01)\n        /* \"ShockSpace/utils/SSSettlementPartial.sol\":9213:9361  ISSListingTemplate.PayoutUpdate({... */\n      and\n      dup2\n      mstore\n      0x20\n      add\n        /* \"ShockSpace/utils/SSSettlementPartial.sol\":9344:9350  amount */\n      dup7\n        /* \"ShockSpace/utils/SSSettlementPartial.sol\":9213:9361  ISSListingTemplate.PayoutUpdate({... */\n      dup2\n      mstore\n      pop\n        /* \"ShockSpace/utils/SSSettlementPartial.sol\":9194:9207  payoutUpdates */\n      dup2\n        /* \"ShockSpace/utils/SSSettlementPartial.sol\":9208:9209  0 */\n      0x00\n        /* \"ShockSpace/utils/SSSettlementPartial.sol\":9194:9210  payoutUpdates[0] */\n      dup2\n      mload\n      dup2\n      lt\n      tag_284\n      jumpi\n      mstore(0x00, shl(0xe0, 0x4e487b71))\n      mstore(0x04, 0x32)\n      revert(0x00, 0x24)\n    tag_284:\n      0x20\n      swap1\n      dup2\n      mul\n      swap2\n      swap1\n      swap2\n      add\n      add\n        /* \"ShockSpace/utils/SSSettlementPartial.sol\":9194:9361  payoutUpdates[0] = ISSListingTemplate.PayoutUpdate({... */\n      mstore\n        /* \"ShockSpace/utils/SSSettlementPartial.sol\":9371:9425  listingContract.ssUpdate(address(this), payoutUpdates) */\n      mload(0x40)\n      shl(0xe0, 0x88413c17)\n      dup2\n      mstore\n      sub(shl(0xa0, 0x01), 0x01)\n        /* \"ShockSpace/utils/SSSettlementPartial.sol\":9371:9395  listingContract.ssUpdate */\n      dup4\n      and\n      swap1\n      0x88413c17\n      swap1\n        /* \"ShockSpace/utils/SSSettlementPartial.sol\":9371:9425  listingContract.ssUpdate(address(this), payoutUpdates) */\n      tag_285\n      swap1\n        /* \"ShockSpace/utils/SSSettlementPartial.sol\":9404:9408  this */\n      address\n      swap1\n        /* \"ShockSpace/utils/SSSettlementPartial.sol\":9411:9424  payoutUpdates */\n      dup6\n      swap1\n        /* \"ShockSpace/utils/SSSettlementPartial.sol\":9371:9425  listingContract.ssUpdate(address(this), payoutUpdates) */\n      0x04\n      add\n      tag_286\n      jump\t// in\n    tag_285:\n      0x00\n      mload(0x40)\n      dup1\n      dup4\n      sub\n      dup2\n      0x00\n      dup8\n      dup1\n      extcodesize\n      iszero\n      dup1\n      iszero\n      tag_287\n      jumpi\n      0x00\n      dup1\n      revert\n    tag_287:\n      pop\n      gas\n      call\n      iszero\n      dup1\n      iszero\n      tag_289\n      jumpi\n      returndatasize\n      0x00\n      dup1\n      returndatacopy\n      revert(0x00, returndatasize)\n    tag_289:\n      pop\n      pop\n      pop\n      pop\n      sub(shl(0xa0, 0x01), 0x01)\n        /* \"ShockSpace/utils/SSSettlementPartial.sol\":9435:9464  payoutPendingAmounts[listing] */\n      dup8\n      and\n      0x00\n      swap1\n      dup2\n      mstore\n        /* \"ShockSpace/utils/SSSettlementPartial.sol\":9435:9455  payoutPendingAmounts */\n      0x0a\n        /* \"ShockSpace/utils/SSSettlementPartial.sol\":9435:9464  payoutPendingAmounts[listing] */\n      0x20\n      swap1\n      dup2\n      mstore\n      0x40\n      dup1\n      dup4\n      keccak256\n        /* \"ShockSpace/utils/SSSettlementPartial.sol\":9435:9473  payoutPendingAmounts[listing][orderId] */\n      dup10\n      dup5\n      mstore\n      swap1\n      swap2\n      mstore\n      dup2\n      keccak256\n        /* \"ShockSpace/utils/SSSettlementPartial.sol\":9435:9483  payoutPendingAmounts[listing][orderId] -= amount */\n      dup1\n      sload\n        /* \"ShockSpace/utils/SSSettlementPartial.sol\":9477:9483  amount */\n      dup8\n      swap3\n        /* \"ShockSpace/utils/SSSettlementPartial.sol\":9435:9464  payoutPendingAmounts[listing] */\n      swap1\n        /* \"ShockSpace/utils/SSSettlementPartial.sol\":9435:9483  payoutPendingAmounts[listing][orderId] -= amount */\n      tag_290\n      swap1\n        /* \"ShockSpace/utils/SSSettlementPartial.sol\":9477:9483  amount */\n      dup5\n      swap1\n        /* \"ShockSpace/utils/SSSettlementPartial.sol\":9435:9483  payoutPendingAmounts[listing][orderId] -= amount */\n      tag_276\n      jump\t// in\n    tag_290:\n      swap1\n      swap2\n      sstore\n      pop\n        /* \"ShockSpace/utils/SSSettlementPartial.sol\":9500:9513  payoutUpdates */\n      swap1\n      swap8\n        /* \"ShockSpace/utils/SSSettlementPartial.sol\":8812:9520  function _processPayoutUpdate(... */\n      swap7\n      pop\n      pop\n      pop\n      pop\n      pop\n      pop\n      pop\n      jump\t// out\n        /* \"ShockSpace/imports/Ownable.sol\":1352:1482  function _checkOwner() internal view virtual {... */\n    tag_183:\n        /* \"ShockSpace/imports/Ownable.sol\":1426:1438  _msgSender() */\n      tag_292\n        /* \"ShockSpace/imports/Ownable.sol\":1426:1436  _msgSender */\n      tag_293\n        /* \"ShockSpace/imports/Ownable.sol\":1426:1438  _msgSender() */\n      jump\t// in\n    tag_292:\n      sub(shl(0xa0, 0x01), 0x01)\n        /* \"ShockSpace/imports/Ownable.sol\":1415:1438  owner() == _msgSender() */\n      and\n        /* \"ShockSpace/imports/Ownable.sol\":1415:1422  owner() */\n      tag_294\n        /* \"ShockSpace/imports/Ownable.sol\":1415:1420  owner */\n      tag_71\n        /* \"ShockSpace/imports/Ownable.sol\":1415:1422  owner() */\n      jump\t// in\n    tag_294:\n      sub(shl(0xa0, 0x01), 0x01)\n        /* \"ShockSpace/imports/Ownable.sol\":1415:1438  owner() == _msgSender() */\n      and\n      eq\n        /* \"ShockSpace/imports/Ownable.sol\":1407:1475  require(owner() == _msgSender(), \"Ownable: caller is not the owner\") */\n      tag_185\n      jumpi\n      mload(0x40)\n      shl(0xe5, 0x461bcd)\n      dup2\n      mstore\n      0x04\n      add\n      tag_230\n      swap1\n      tag_297\n      jump\t// in\n        /* \"ShockSpace/imports/Ownable.sol\":2419:2606  function _transferOwnership(address newOwner) internal virtual {... */\n    tag_186:\n        /* \"ShockSpace/imports/Ownable.sol\":2511:2517  _owner */\n      0x01\n      dup1\n      sload\n      sub(shl(0xa0, 0x01), 0x01)\n        /* \"ShockSpace/imports/Ownable.sol\":2527:2544  _owner = newOwner */\n      dup4\n      dup2\n      and\n      not(sub(shl(0xa0, 0x01), 0x01))\n      dup4\n      and\n      dup2\n      or\n      swap1\n      swap4\n      sstore\n        /* \"ShockSpace/imports/Ownable.sol\":2559:2599  OwnershipTransferred(oldOwner, newOwner) */\n      mload(0x40)\n        /* \"ShockSpace/imports/Ownable.sol\":2511:2517  _owner */\n      swap2\n      and\n      swap2\n        /* \"ShockSpace/imports/Ownable.sol\":2527:2544  _owner = newOwner */\n      swap1\n        /* \"ShockSpace/imports/Ownable.sol\":2511:2517  _owner */\n      dup3\n      swap1\n        /* \"ShockSpace/imports/Ownable.sol\":2559:2599  OwnershipTransferred(oldOwner, newOwner) */\n      0x8be0079c531659141344cd1fd0a4f28419497f9722a3daafe3b4186f6b6457e0\n      swap1\n        /* \"ShockSpace/imports/Ownable.sol\":2492:2508  address oldOwner */\n      0x00\n      swap1\n        /* \"ShockSpace/imports/Ownable.sol\":2559:2599  OwnershipTransferred(oldOwner, newOwner) */\n      log3\n        /* \"ShockSpace/imports/Ownable.sol\":2419:2606  function _transferOwnership(address newOwner) internal virtual {... */\n      pop\n      pop\n      jump\t// out\n        /* \"ShockSpace/utils/SSSettlementPartial.sol\":5827:6510  function _prepBuyOrderUpdate(... */\n    tag_220:\n        /* \"ShockSpace/utils/SSSettlementPartial.sol\":5963:5983  address tokenAddress */\n      0x00\n      dup1\n      dup1\n      dup1\n      dup1\n      dup1\n      dup1\n        /* \"ShockSpace/utils/SSSettlementPartial.sol\":6227:6234  listing */\n      dup10\n        /* \"ShockSpace/utils/SSSettlementPartial.sol\":6272:6307  _getTokenAndDecimals(listing, true) */\n      tag_300\n        /* \"ShockSpace/utils/SSSettlementPartial.sol\":6227:6234  listing */\n      dup2\n        /* \"ShockSpace/utils/SSSettlementPartial.sol\":6302:6306  true */\n      0x01\n        /* \"ShockSpace/utils/SSSettlementPartial.sol\":6272:6292  _getTokenAndDecimals */\n      tag_258\n        /* \"ShockSpace/utils/SSSettlementPartial.sol\":6272:6307  _getTokenAndDecimals(listing, true) */\n      jump\t// in\n    tag_300:\n        /* \"ShockSpace/utils/SSSettlementPartial.sol\":6353:6393  listingContract.getBuyOrderCore(orderId) */\n      mload(0x40)\n      shl(0xe0, 0x4b66cd4b)\n      dup2\n      mstore\n        /* \"ShockSpace/utils/SSSettlementPartial.sol\":6245:6307  (tokenAddress, decimals) = _getTokenAndDecimals(listing, true) */\n      swap2\n      swap10\n      pop\n      swap8\n      pop\n      sub(shl(0xa0, 0x01), 0x01)\n        /* \"ShockSpace/utils/SSSettlementPartial.sol\":6353:6384  listingContract.getBuyOrderCore */\n      dup3\n      and\n      swap1\n      0x4b66cd4b\n      swap1\n        /* \"ShockSpace/utils/SSSettlementPartial.sol\":6353:6393  listingContract.getBuyOrderCore(orderId) */\n      tag_259\n      swap1\n        /* \"ShockSpace/utils/SSSettlementPartial.sol\":6385:6392  orderId */\n      dup14\n      swap1\n        /* \"ShockSpace/utils/SSSettlementPartial.sol\":6353:6393  listingContract.getBuyOrderCore(orderId) */\n      0x04\n      add\n      tag_33\n      jump\t// in\n        /* \"ShockSpace/utils/SSSettlementPartial.sol\":7208:8003  function _executeBuyOrderUpdate(... */\n    tag_222:\n        /* \"ShockSpace/utils/SSSettlementPartial.sol\":7429:7467  ISSListingTemplate.UpdateType[] memory */\n      0x60\n        /* \"ShockSpace/utils/SSSettlementPartial.sol\":7483:7506  normalizedReceived == 0 */\n      dup5\n        /* \"ShockSpace/utils/SSSettlementPartial.sol\":7479:7578  if (normalizedReceived == 0) {... */\n      tag_308\n      jumpi\n        /* \"ShockSpace/utils/SSSettlementPartial.sol\":7529:7567  new ISSListingTemplate.UpdateType[](0) */\n      0x40\n      dup1\n      mload\n        /* \"ShockSpace/utils/SSSettlementPartial.sol\":7565:7566  0 */\n      0x00\n        /* \"ShockSpace/utils/SSSettlementPartial.sol\":7529:7567  new ISSListingTemplate.UpdateType[](0) */\n      dup1\n      dup3\n      mstore\n      0x20\n      dup3\n      add\n      swap1\n      swap3\n      mstore\n      swap1\n      jump(tag_270)\n    tag_311:\n      tag_312\n      tag_142\n      jump\t// in\n    tag_312:\n      dup2\n      mstore\n      0x20\n      add\n      swap1\n      0x01\n      swap1\n      sub\n      swap1\n      dup2\n      tag_311\n      jumpi\n      swap1\n      pop\n      pop\n        /* \"ShockSpace/utils/SSSettlementPartial.sol\":7522:7567  return new ISSListingTemplate.UpdateType[](0) */\n      swap1\n      pop\n      jump(tag_267)\n        /* \"ShockSpace/utils/SSSettlementPartial.sol\":7479:7578  if (normalizedReceived == 0) {... */\n    tag_308:\n      sub(shl(0xa0, 0x01), 0x01)\n        /* \"ShockSpace/utils/SSSettlementPartial.sol\":7611:7639  orderPendingAmounts[listing] */\n      dup8\n      and\n        /* \"ShockSpace/utils/SSSettlementPartial.sol\":7587:7608  uint256 pendingAmount */\n      0x00\n        /* \"ShockSpace/utils/SSSettlementPartial.sol\":7611:7639  orderPendingAmounts[listing] */\n      swap1\n      dup2\n      mstore\n        /* \"ShockSpace/utils/SSSettlementPartial.sol\":7611:7630  orderPendingAmounts */\n      0x09\n        /* \"ShockSpace/utils/SSSettlementPartial.sol\":7611:7639  orderPendingAmounts[listing] */\n      0x20\n      swap1\n      dup2\n      mstore\n      0x40\n      dup1\n      dup4\n      keccak256\n        /* \"ShockSpace/utils/SSSettlementPartial.sol\":7611:7648  orderPendingAmounts[listing][orderId] */\n      dup10\n      dup5\n      mstore\n      swap1\n      swap2\n      mstore\n      dup2\n      keccak256\n      sload\n      swap1\n        /* \"ShockSpace/utils/SSSettlementPartial.sol\":7707:7903  _createOrderUpdates(... */\n      tag_273\n        /* \"ShockSpace/utils/SSSettlementPartial.sol\":7640:7647  orderId */\n      dup9\n        /* \"ShockSpace/utils/SSSettlementPartial.sol\":7761:7779  normalizedReceived */\n      dup9\n        /* \"ShockSpace/utils/SSSettlementPartial.sol\":7793:7805  makerAddress */\n      dup9\n        /* \"ShockSpace/utils/SSSettlementPartial.sol\":7819:7828  recipient */\n      dup9\n        /* \"ShockSpace/utils/SSSettlementPartial.sol\":7842:7848  status */\n      dup9\n        /* \"ShockSpace/utils/SSSettlementPartial.sol\":7862:7866  true */\n      0x01\n        /* \"ShockSpace/utils/SSSettlementPartial.sol\":7611:7648  orderPendingAmounts[listing][orderId] */\n      dup9\n        /* \"ShockSpace/utils/SSSettlementPartial.sol\":7707:7726  _createOrderUpdates */\n      tag_274\n        /* \"ShockSpace/utils/SSSettlementPartial.sol\":7707:7903  _createOrderUpdates(... */\n      jump\t// in\n        /* \"ShockSpace/utils/SSSettlementPartial.sol\":3534:3817  function _getTokenAndDecimals(... */\n    tag_258:\n        /* \"ShockSpace/utils/SSSettlementPartial.sol\":3638:3658  address tokenAddress */\n      0x00\n        /* \"ShockSpace/utils/SSSettlementPartial.sol\":3660:3674  uint8 decimals */\n      dup1\n        /* \"ShockSpace/utils/SSSettlementPartial.sol\":3701:3706  isBuy */\n      dup3\n        /* \"ShockSpace/utils/SSSettlementPartial.sol\":3701:3742  isBuy ? tokenB[listing] : tokenA[listing] */\n      tag_316\n      jumpi\n      sub(shl(0xa0, 0x01), 0x01)\n        /* \"ShockSpace/utils/SSSettlementPartial.sol\":3727:3742  tokenA[listing] */\n      dup1\n      dup6\n      and\n      0x00\n      swap1\n      dup2\n      mstore\n        /* \"ShockSpace/utils/SSSettlementPartial.sol\":3727:3733  tokenA */\n      0x05\n        /* \"ShockSpace/utils/SSSettlementPartial.sol\":3727:3742  tokenA[listing] */\n      0x20\n      mstore\n      0x40\n      swap1\n      keccak256\n      sload\n      and\n        /* \"ShockSpace/utils/SSSettlementPartial.sol\":3701:3742  isBuy ? tokenB[listing] : tokenA[listing] */\n      jump(tag_317)\n    tag_316:\n      sub(shl(0xa0, 0x01), 0x01)\n        /* \"ShockSpace/utils/SSSettlementPartial.sol\":3709:3724  tokenB[listing] */\n      dup1\n      dup6\n      and\n      0x00\n      swap1\n      dup2\n      mstore\n        /* \"ShockSpace/utils/SSSettlementPartial.sol\":3709:3715  tokenB */\n      0x06\n        /* \"ShockSpace/utils/SSSettlementPartial.sol\":3709:3724  tokenB[listing] */\n      0x20\n      mstore\n      0x40\n      swap1\n      keccak256\n      sload\n      and\n        /* \"ShockSpace/utils/SSSettlementPartial.sol\":3701:3742  isBuy ? tokenB[listing] : tokenA[listing] */\n    tag_317:\n        /* \"ShockSpace/utils/SSSettlementPartial.sol\":3686:3742  tokenAddress = isBuy ? tokenB[listing] : tokenA[listing] */\n      swap2\n      pop\n        /* \"ShockSpace/utils/SSSettlementPartial.sol\":3763:3768  isBuy */\n      dup3\n        /* \"ShockSpace/utils/SSSettlementPartial.sol\":3763:3810  isBuy ? decimalsB[listing] : decimalsA[listing] */\n      tag_318\n      jumpi\n      sub(shl(0xa0, 0x01), 0x01)\n        /* \"ShockSpace/utils/SSSettlementPartial.sol\":3792:3810  decimalsA[listing] */\n      dup5\n      and\n      0x00\n      swap1\n      dup2\n      mstore\n        /* \"ShockSpace/utils/SSSettlementPartial.sol\":3792:3801  decimalsA */\n      0x07\n        /* \"ShockSpace/utils/SSSettlementPartial.sol\":3792:3810  decimalsA[listing] */\n      0x20\n      mstore\n      0x40\n      swap1\n      keccak256\n      sload\n      0xff\n      and\n        /* \"ShockSpace/utils/SSSettlementPartial.sol\":3763:3810  isBuy ? decimalsB[listing] : decimalsA[listing] */\n      jump(tag_319)\n    tag_318:\n      sub(shl(0xa0, 0x01), 0x01)\n        /* \"ShockSpace/utils/SSSettlementPartial.sol\":3771:3789  decimalsB[listing] */\n      dup5\n      and\n      0x00\n      swap1\n      dup2\n      mstore\n        /* \"ShockSpace/utils/SSSettlementPartial.sol\":3771:3780  decimalsB */\n      0x08\n        /* \"ShockSpace/utils/SSSettlementPartial.sol\":3771:3789  decimalsB[listing] */\n      0x20\n      mstore\n      0x40\n      swap1\n      keccak256\n      sload\n      0xff\n      and\n        /* \"ShockSpace/utils/SSSettlementPartial.sol\":3763:3810  isBuy ? decimalsB[listing] : decimalsA[listing] */\n    tag_319:\n        /* \"ShockSpace/utils/SSSettlementPartial.sol\":3752:3810  decimals = isBuy ? decimalsB[listing] : decimalsA[listing] */\n      swap1\n      pop\n        /* \"ShockSpace/utils/SSSettlementPartial.sol\":3534:3817  function _getTokenAndDecimals(... */\n      swap3\n      pop\n      swap3\n      swap1\n      pop\n      jump\t// out\n        /* \"ShockSpace/utils/SSSettlementPartial.sol\":3823:4737  function _executeTransaction(... */\n    tag_266:\n        /* \"ShockSpace/utils/SSSettlementPartial.sol\":3982:4004  uint256 amountReceived */\n      0x00\n      dup1\n        /* \"ShockSpace/utils/SSSettlementPartial.sol\":4100:4107  listing */\n      dup6\n        /* \"ShockSpace/utils/SSSettlementPartial.sol\":3982:4004  uint256 amountReceived */\n      dup2\n      sub(shl(0xa0, 0x01), 0x01)\n        /* \"ShockSpace/utils/SSSettlementPartial.sol\":4135:4161  tokenAddress == address(0) */\n      dup8\n      and\n      iszero\n        /* \"ShockSpace/utils/SSSettlementPartial.sol\":4135:4200  tokenAddress == address(0) ? 18 : IERC20(tokenAddress).decimals() */\n      tag_321\n      jumpi\n        /* \"ShockSpace/utils/SSSettlementPartial.sol\":4176:4188  tokenAddress */\n      dup7\n      sub(shl(0xa0, 0x01), 0x01)\n        /* \"ShockSpace/utils/SSSettlementPartial.sol\":4169:4198  IERC20(tokenAddress).decimals */\n      and\n      0x313ce567\n        /* \"ShockSpace/utils/SSSettlementPartial.sol\":4169:4200  IERC20(tokenAddress).decimals() */\n      mload(0x40)\n      dup2\n      0xffffffff\n      and\n      0xe0\n      shl\n      dup2\n      mstore\n      0x04\n      add\n      0x20\n      mload(0x40)\n      dup1\n      dup4\n      sub\n      dup2\n      dup7\n      dup1\n      extcodesize\n      iszero\n      dup1\n      iszero\n      tag_322\n      jumpi\n      0x00\n      dup1\n      revert\n    tag_322:\n      pop\n      gas\n      staticcall\n      iszero\n      dup1\n      iszero\n      tag_324\n      jumpi\n      returndatasize\n      0x00\n      dup1\n      returndatacopy\n      revert(0x00, returndatasize)\n    tag_324:\n      pop\n      pop\n      pop\n      pop\n      mload(0x40)\n      returndatasize\n      not(0x1f)\n      0x1f\n      dup3\n      add\n      and\n      dup3\n      add\n      dup1\n      0x40\n      mstore\n      pop\n      dup2\n      add\n      swap1\n      tag_325\n      swap2\n      swap1\n      tag_326\n      jump\t// in\n    tag_325:\n        /* \"ShockSpace/utils/SSSettlementPartial.sol\":4135:4200  tokenAddress == address(0) ? 18 : IERC20(tokenAddress).decimals() */\n      jump(tag_327)\n    tag_321:\n        /* \"ShockSpace/utils/SSSettlementPartial.sol\":4164:4166  18 */\n      0x12\n        /* \"ShockSpace/utils/SSSettlementPartial.sol\":4135:4200  tokenAddress == address(0) ? 18 : IERC20(tokenAddress).decimals() */\n    tag_327:\n        /* \"ShockSpace/utils/SSSettlementPartial.sol\":4118:4200  uint8 decimals = tokenAddress == address(0) ? 18 : IERC20(tokenAddress).decimals() */\n      swap1\n      pop\n        /* \"ShockSpace/utils/SSSettlementPartial.sol\":4210:4228  uint256 preBalance */\n      0x00\n      sub(shl(0xa0, 0x01), 0x01)\n        /* \"ShockSpace/utils/SSSettlementPartial.sol\":4231:4257  tokenAddress == address(0) */\n      dup9\n      and\n      iszero\n        /* \"ShockSpace/utils/SSSettlementPartial.sol\":4231:4329  tokenAddress == address(0) ? address(this).balance : IERC20(tokenAddress).balanceOf(address(this)) */\n      tag_328\n      jumpi\n        /* \"ShockSpace/utils/SSSettlementPartial.sol\":4284:4329  IERC20(tokenAddress).balanceOf(address(this)) */\n      mload(0x40)\n      shl(0xe0, 0x70a08231)\n      dup2\n      mstore\n      sub(shl(0xa0, 0x01), 0x01)\n        /* \"ShockSpace/utils/SSSettlementPartial.sol\":4284:4314  IERC20(tokenAddress).balanceOf */\n      dup10\n      and\n      swap1\n      0x70a08231\n      swap1\n        /* \"ShockSpace/utils/SSSettlementPartial.sol\":4284:4329  IERC20(tokenAddress).balanceOf(address(this)) */\n      tag_329\n      swap1\n        /* \"ShockSpace/utils/SSSettlementPartial.sol\":4323:4327  this */\n      address\n      swap1\n        /* \"ShockSpace/utils/SSSettlementPartial.sol\":4284:4329  IERC20(tokenAddress).balanceOf(address(this)) */\n      0x04\n      add\n      tag_58\n      jump\t// in\n    tag_329:\n      0x20\n      mload(0x40)\n      dup1\n      dup4\n      sub\n      dup2\n      dup7\n      dup1\n      extcodesize\n      iszero\n      dup1\n      iszero\n      tag_330\n      jumpi\n      0x00\n      dup1\n      revert\n    tag_330:\n      pop\n      gas\n      staticcall\n      iszero\n      dup1\n      iszero\n      tag_332\n      jumpi\n      returndatasize\n      0x00\n      dup1\n      returndatacopy\n      revert(0x00, returndatasize)\n    tag_332:\n      pop\n      pop\n      pop\n      pop\n      mload(0x40)\n      returndatasize\n      not(0x1f)\n      0x1f\n      dup3\n      add\n      and\n      dup3\n      add\n      dup1\n      0x40\n      mstore\n      pop\n      dup2\n      add\n      swap1\n      tag_333\n      swap2\n      swap1\n      tag_334\n      jump\t// in\n    tag_333:\n        /* \"ShockSpace/utils/SSSettlementPartial.sol\":4231:4329  tokenAddress == address(0) ? address(this).balance : IERC20(tokenAddress).balanceOf(address(this)) */\n      jump(tag_335)\n    tag_328:\n        /* \"ShockSpace/utils/SSSettlementPartial.sol\":4260:4281  address(this).balance */\n      selfbalance\n        /* \"ShockSpace/utils/SSSettlementPartial.sol\":4231:4329  tokenAddress == address(0) ? address(this).balance : IERC20(tokenAddress).balanceOf(address(this)) */\n    tag_335:\n        /* \"ShockSpace/utils/SSSettlementPartial.sol\":4339:4411  listingContract.transact(address(this), tokenAddress, amount, recipient) */\n      mload(0x40)\n      shl(0xe0, 0xf9b44c85)\n      dup2\n      mstore\n        /* \"ShockSpace/utils/SSSettlementPartial.sol\":4210:4329  uint256 preBalance = tokenAddress == address(0) ? address(this).balance : IERC20(tokenAddress).balanceOf(address(this)) */\n      swap1\n      swap2\n      pop\n      sub(shl(0xa0, 0x01), 0x01)\n        /* \"ShockSpace/utils/SSSettlementPartial.sol\":4339:4363  listingContract.transact */\n      dup5\n      and\n      swap1\n      0xf9b44c85\n      swap1\n        /* \"ShockSpace/utils/SSSettlementPartial.sol\":4339:4411  listingContract.transact(address(this), tokenAddress, amount, recipient) */\n      tag_336\n      swap1\n        /* \"ShockSpace/utils/SSSettlementPartial.sol\":4372:4376  this */\n      address\n      swap1\n        /* \"ShockSpace/utils/SSSettlementPartial.sol\":4379:4391  tokenAddress */\n      dup13\n      swap1\n        /* \"ShockSpace/utils/SSSettlementPartial.sol\":4393:4399  amount */\n      dup13\n      swap1\n        /* \"ShockSpace/utils/SSSettlementPartial.sol\":4401:4410  recipient */\n      dup13\n      swap1\n        /* \"ShockSpace/utils/SSSettlementPartial.sol\":4339:4411  listingContract.transact(address(this), tokenAddress, amount, recipient) */\n      0x04\n      add\n      tag_337\n      jump\t// in\n    tag_336:\n      0x00\n      mload(0x40)\n      dup1\n      dup4\n      sub\n      dup2\n      0x00\n      dup8\n      dup1\n      extcodesize\n      iszero\n      dup1\n      iszero\n      tag_338\n      jumpi\n      0x00\n      dup1\n      revert\n    tag_338:\n      pop\n      gas\n      call\n      iszero\n      dup1\n      iszero\n      tag_340\n      jumpi\n      returndatasize\n      0x00\n      dup1\n      returndatacopy\n      revert(0x00, returndatasize)\n    tag_340:\n      pop\n        /* \"ShockSpace/utils/SSSettlementPartial.sol\":4421:4440  uint256 postBalance */\n      0x00\n      swap3\n      pop\n      pop\n      pop\n      sub(shl(0xa0, 0x01), 0x01)\n        /* \"ShockSpace/utils/SSSettlementPartial.sol\":4443:4469  tokenAddress == address(0) */\n      dup10\n      and\n      iszero\n        /* \"ShockSpace/utils/SSSettlementPartial.sol\":4443:4541  tokenAddress == address(0) ? address(this).balance : IERC20(tokenAddress).balanceOf(address(this)) */\n      tag_341\n      jumpi\n        /* \"ShockSpace/utils/SSSettlementPartial.sol\":4496:4541  IERC20(tokenAddress).balanceOf(address(this)) */\n      mload(0x40)\n      shl(0xe0, 0x70a08231)\n      dup2\n      mstore\n      sub(shl(0xa0, 0x01), 0x01)\n        /* \"ShockSpace/utils/SSSettlementPartial.sol\":4496:4526  IERC20(tokenAddress).balanceOf */\n      dup11\n      and\n      swap1\n      0x70a08231\n      swap1\n        /* \"ShockSpace/utils/SSSettlementPartial.sol\":4496:4541  IERC20(tokenAddress).balanceOf(address(this)) */\n      tag_342\n      swap1\n        /* \"ShockSpace/utils/SSSettlementPartial.sol\":4535:4539  this */\n      address\n      swap1\n        /* \"ShockSpace/utils/SSSettlementPartial.sol\":4496:4541  IERC20(tokenAddress).balanceOf(address(this)) */\n      0x04\n      add\n      tag_58\n      jump\t// in\n    tag_342:\n      0x20\n      mload(0x40)\n      dup1\n      dup4\n      sub\n      dup2\n      dup7\n      dup1\n      extcodesize\n      iszero\n      dup1\n      iszero\n      tag_343\n      jumpi\n      0x00\n      dup1\n      revert\n    tag_343:\n      pop\n      gas\n      staticcall\n      iszero\n      dup1\n      iszero\n      tag_345\n      jumpi\n      returndatasize\n      0x00\n      dup1\n      returndatacopy\n      revert(0x00, returndatasize)\n    tag_345:\n      pop\n      pop\n      pop\n      pop\n      mload(0x40)\n      returndatasize\n      not(0x1f)\n      0x1f\n      dup3\n      add\n      and\n      dup3\n      add\n      dup1\n      0x40\n      mstore\n      pop\n      dup2\n      add\n      swap1\n      tag_346\n      swap2\n      swap1\n      tag_334\n      jump\t// in\n    tag_346:\n        /* \"ShockSpace/utils/SSSettlementPartial.sol\":4443:4541  tokenAddress == address(0) ? address(this).balance : IERC20(tokenAddress).balanceOf(address(this)) */\n      jump(tag_347)\n    tag_341:\n        /* \"ShockSpace/utils/SSSettlementPartial.sol\":4472:4493  address(this).balance */\n      selfbalance\n        /* \"ShockSpace/utils/SSSettlementPartial.sol\":4443:4541  tokenAddress == address(0) ? address(this).balance : IERC20(tokenAddress).balanceOf(address(this)) */\n    tag_347:\n        /* \"ShockSpace/utils/SSSettlementPartial.sol\":4421:4541  uint256 postBalance = tokenAddress == address(0) ? address(this).balance : IERC20(tokenAddress).balanceOf(address(this)) */\n      swap1\n      pop\n        /* \"ShockSpace/utils/SSSettlementPartial.sol\":4582:4592  preBalance */\n      dup2\n        /* \"ShockSpace/utils/SSSettlementPartial.sol\":4568:4579  postBalance */\n      dup2\n        /* \"ShockSpace/utils/SSSettlementPartial.sol\":4568:4592  postBalance > preBalance */\n      gt\n        /* \"ShockSpace/utils/SSSettlementPartial.sol\":4568:4623  postBalance > preBalance ? postBalance - preBalance : 0 */\n      tag_348\n      jumpi\n        /* \"ShockSpace/utils/SSSettlementPartial.sol\":4622:4623  0 */\n      0x00\n        /* \"ShockSpace/utils/SSSettlementPartial.sol\":4568:4623  postBalance > preBalance ? postBalance - preBalance : 0 */\n      jump(tag_350)\n    tag_348:\n        /* \"ShockSpace/utils/SSSettlementPartial.sol\":4595:4619  postBalance - preBalance */\n      tag_350\n        /* \"ShockSpace/utils/SSSettlementPartial.sol\":4609:4619  preBalance */\n      dup3\n        /* \"ShockSpace/utils/SSSettlementPartial.sol\":4595:4606  postBalance */\n      dup3\n        /* \"ShockSpace/utils/SSSettlementPartial.sol\":4595:4619  postBalance - preBalance */\n      tag_276\n      jump\t// in\n    tag_350:\n        /* \"ShockSpace/utils/SSSettlementPartial.sol\":4551:4623  amountReceived = postBalance > preBalance ? postBalance - preBalance : 0 */\n      swap6\n      pop\n        /* \"ShockSpace/utils/SSSettlementPartial.sol\":4671:4672  0 */\n      0x00\n        /* \"ShockSpace/utils/SSSettlementPartial.sol\":4654:4668  amountReceived */\n      dup7\n        /* \"ShockSpace/utils/SSSettlementPartial.sol\":4654:4672  amountReceived > 0 */\n      gt\n        /* \"ShockSpace/utils/SSSettlementPartial.sol\":4654:4730  amountReceived > 0 ? listingContract.normalize(amountReceived, decimals) : 0 */\n      tag_351\n      jumpi\n        /* \"ShockSpace/utils/SSSettlementPartial.sol\":4729:4730  0 */\n      0x00\n        /* \"ShockSpace/utils/SSSettlementPartial.sol\":4654:4730  amountReceived > 0 ? listingContract.normalize(amountReceived, decimals) : 0 */\n      jump(tag_358)\n    tag_351:\n        /* \"ShockSpace/utils/SSSettlementPartial.sol\":4675:4726  listingContract.normalize(amountReceived, decimals) */\n      mload(0x40)\n      shl(0xe0, 0x41ef492b)\n      dup2\n      mstore\n      sub(shl(0xa0, 0x01), 0x01)\n        /* \"ShockSpace/utils/SSSettlementPartial.sol\":4675:4700  listingContract.normalize */\n      dup6\n      and\n      swap1\n      0x41ef492b\n      swap1\n        /* \"ShockSpace/utils/SSSettlementPartial.sol\":4675:4726  listingContract.normalize(amountReceived, decimals) */\n      tag_353\n      swap1\n        /* \"ShockSpace/utils/SSSettlementPartial.sol\":4701:4715  amountReceived */\n      dup10\n      swap1\n        /* \"ShockSpace/utils/SSSettlementPartial.sol\":4717:4725  decimals */\n      dup8\n      swap1\n        /* \"ShockSpace/utils/SSSettlementPartial.sol\":4675:4726  listingContract.normalize(amountReceived, decimals) */\n      0x04\n      add\n      tag_354\n      jump\t// in\n    tag_353:\n      0x20\n      mload(0x40)\n      dup1\n      dup4\n      sub\n      dup2\n      dup7\n      dup1\n      extcodesize\n      iszero\n      dup1\n      iszero\n      tag_355\n      jumpi\n      0x00\n      dup1\n      revert\n    tag_355:\n      pop\n      gas\n      staticcall\n      iszero\n      dup1\n      iszero\n      tag_357\n      jumpi\n      returndatasize\n      0x00\n      dup1\n      returndatacopy\n      revert(0x00, returndatasize)\n    tag_357:\n      pop\n      pop\n      pop\n      pop\n      mload(0x40)\n      returndatasize\n      not(0x1f)\n      0x1f\n      dup3\n      add\n      and\n      dup3\n      add\n      dup1\n      0x40\n      mstore\n      pop\n      dup2\n      add\n      swap1\n      tag_358\n      swap2\n      swap1\n      tag_334\n      jump\t// in\n    tag_358:\n        /* \"ShockSpace/utils/SSSettlementPartial.sol\":4633:4730  normalizedReceived = amountReceived > 0 ? listingContract.normalize(amountReceived, decimals) : 0 */\n      swap5\n      pop\n        /* \"ShockSpace/utils/SSSettlementPartial.sol\":3823:4737  function _executeTransaction(... */\n      pop\n      pop\n      pop\n      pop\n      swap5\n      pop\n      swap5\n      swap3\n      pop\n      pop\n      pop\n      jump\t// out\n        /* \"ShockSpace/utils/SSSettlementPartial.sol\":4743:5821  function _createOrderUpdates(... */\n    tag_274:\n        /* \"ShockSpace/utils/SSSettlementPartial.sol\":5091:5129  new ISSListingTemplate.UpdateType[](2) */\n      0x40\n      dup1\n      mload\n        /* \"ShockSpace/utils/SSSettlementPartial.sol\":5127:5128  2 */\n      0x02\n        /* \"ShockSpace/utils/SSSettlementPartial.sol\":5091:5129  new ISSListingTemplate.UpdateType[](2) */\n      dup1\n      dup3\n      mstore\n        /* \"ShockSpace/utils/SSSettlementPartial.sol\":4992:5030  ISSListingTemplate.UpdateType[] memory */\n      0x60\n        /* \"ShockSpace/utils/SSSettlementPartial.sol\":5091:5129  new ISSListingTemplate.UpdateType[](2) */\n      dup3\n      dup2\n      add\n      swap1\n      swap4\n      mstore\n        /* \"ShockSpace/utils/SSSettlementPartial.sol\":5042:5088  ISSListingTemplate.UpdateType[] memory updates */\n      0x00\n      swap2\n        /* \"ShockSpace/utils/SSSettlementPartial.sol\":5091:5129  new ISSListingTemplate.UpdateType[](2) */\n      swap1\n      dup2\n      0x20\n      add\n    tag_362:\n      tag_363\n      tag_142\n      jump\t// in\n    tag_363:\n      dup2\n      mstore\n      0x20\n      add\n      swap1\n      0x01\n      swap1\n      sub\n      swap1\n      dup2\n      tag_362\n      jumpi\n      swap1\n      pop\n      pop\n        /* \"ShockSpace/utils/SSSettlementPartial.sol\":5042:5129  ISSListingTemplate.UpdateType[] memory updates = new ISSListingTemplate.UpdateType[](2) */\n      swap1\n      pop\n        /* \"ShockSpace/utils/SSSettlementPartial.sol\":5152:5439  ISSListingTemplate.UpdateType({... */\n      mload(0x40)\n      dup1\n      0x0100\n      add\n      0x40\n      mstore\n      dup1\n        /* \"ShockSpace/utils/SSSettlementPartial.sol\":5208:5213  isBuy */\n      dup6\n        /* \"ShockSpace/utils/SSSettlementPartial.sol\":5208:5221  isBuy ? 1 : 2 */\n      tag_364\n      jumpi\n        /* \"ShockSpace/utils/SSSettlementPartial.sol\":5220:5221  2 */\n      0x02\n        /* \"ShockSpace/utils/SSSettlementPartial.sol\":5208:5221  isBuy ? 1 : 2 */\n      jump(tag_365)\n    tag_364:\n        /* \"ShockSpace/utils/SSSettlementPartial.sol\":5216:5217  1 */\n      0x01\n        /* \"ShockSpace/utils/SSSettlementPartial.sol\":5208:5221  isBuy ? 1 : 2 */\n    tag_365:\n        /* \"ShockSpace/utils/SSSettlementPartial.sol\":5152:5439  ISSListingTemplate.UpdateType({... */\n      0xff\n      and\n      dup2\n      mstore\n      0x20\n      add\n        /* \"ShockSpace/utils/SSSettlementPartial.sol\":5245:5246  2 */\n      0x02\n        /* \"ShockSpace/utils/SSSettlementPartial.sol\":5152:5439  ISSListingTemplate.UpdateType({... */\n      0xff\n      and\n      dup2\n      mstore\n      0x20\n      add\n        /* \"ShockSpace/utils/SSSettlementPartial.sol\":5267:5274  orderId */\n      dup11\n        /* \"ShockSpace/utils/SSSettlementPartial.sol\":5152:5439  ISSListingTemplate.UpdateType({... */\n      dup2\n      mstore\n      0x20\n      add\n        /* \"ShockSpace/utils/SSSettlementPartial.sol\":5295:5313  normalizedReceived */\n      dup10\n        /* \"ShockSpace/utils/SSSettlementPartial.sol\":5152:5439  ISSListingTemplate.UpdateType({... */\n      dup2\n      mstore\n      0x20\n      add\n        /* \"ShockSpace/utils/SSSettlementPartial.sol\":5341:5342  0 */\n      0x00\n      sub(shl(0xa0, 0x01), 0x01)\n        /* \"ShockSpace/utils/SSSettlementPartial.sol\":5152:5439  ISSListingTemplate.UpdateType({... */\n      and\n      dup2\n      mstore\n      0x20\n      add\n        /* \"ShockSpace/utils/SSSettlementPartial.sol\":5376:5377  0 */\n      0x00\n      sub(shl(0xa0, 0x01), 0x01)\n        /* \"ShockSpace/utils/SSSettlementPartial.sol\":5152:5439  ISSListingTemplate.UpdateType({... */\n      and\n      dup2\n      mstore\n      0x20\n      add\n        /* \"ShockSpace/utils/SSSettlementPartial.sol\":5402:5403  0 */\n      0x00\n        /* \"ShockSpace/utils/SSSettlementPartial.sol\":5152:5439  ISSListingTemplate.UpdateType({... */\n      dup2\n      mstore\n      0x20\n      add\n        /* \"ShockSpace/utils/SSSettlementPartial.sol\":5427:5428  0 */\n      0x00\n        /* \"ShockSpace/utils/SSSettlementPartial.sol\":5152:5439  ISSListingTemplate.UpdateType({... */\n      dup2\n      mstore\n      pop\n        /* \"ShockSpace/utils/SSSettlementPartial.sol\":5139:5146  updates */\n      dup2\n        /* \"ShockSpace/utils/SSSettlementPartial.sol\":5147:5148  0 */\n      0x00\n        /* \"ShockSpace/utils/SSSettlementPartial.sol\":5139:5149  updates[0] */\n      dup2\n      mload\n      dup2\n      lt\n      tag_366\n      jumpi\n      mstore(0x00, shl(0xe0, 0x4e487b71))\n      mstore(0x04, 0x32)\n      revert(0x00, 0x24)\n    tag_366:\n      0x20\n      mul\n      0x20\n      add\n      add\n        /* \"ShockSpace/utils/SSSettlementPartial.sol\":5139:5439  updates[0] = ISSListingTemplate.UpdateType({... */\n      dup2\n      swap1\n      mstore\n      pop\n        /* \"ShockSpace/utils/SSSettlementPartial.sol\":5462:5790  ISSListingTemplate.UpdateType({... */\n      mload(0x40)\n      dup1\n      0x0100\n      add\n      0x40\n      mstore\n      dup1\n        /* \"ShockSpace/utils/SSSettlementPartial.sol\":5518:5523  isBuy */\n      dup6\n        /* \"ShockSpace/utils/SSSettlementPartial.sol\":5518:5531  isBuy ? 1 : 2 */\n      tag_367\n      jumpi\n        /* \"ShockSpace/utils/SSSettlementPartial.sol\":5530:5531  2 */\n      0x02\n        /* \"ShockSpace/utils/SSSettlementPartial.sol\":5518:5531  isBuy ? 1 : 2 */\n      jump(tag_368)\n    tag_367:\n        /* \"ShockSpace/utils/SSSettlementPartial.sol\":5526:5527  1 */\n      0x01\n        /* \"ShockSpace/utils/SSSettlementPartial.sol\":5518:5531  isBuy ? 1 : 2 */\n    tag_368:\n        /* \"ShockSpace/utils/SSSettlementPartial.sol\":5462:5790  ISSListingTemplate.UpdateType({... */\n      0xff\n      and\n      dup2\n      mstore\n      0x20\n      add\n        /* \"ShockSpace/utils/SSSettlementPartial.sol\":5555:5556  0 */\n      0x00\n        /* \"ShockSpace/utils/SSSettlementPartial.sol\":5462:5790  ISSListingTemplate.UpdateType({... */\n      0xff\n      and\n      dup2\n      mstore\n      0x20\n      add\n        /* \"ShockSpace/utils/SSSettlementPartial.sol\":5577:5584  orderId */\n      dup11\n        /* \"ShockSpace/utils/SSSettlementPartial.sol\":5462:5790  ISSListingTemplate.UpdateType({... */\n      dup2\n      mstore\n      0x20\n      add\n        /* \"ShockSpace/utils/SSSettlementPartial.sol\":5605:5611  status */\n      dup7\n        /* \"ShockSpace/utils/SSSettlementPartial.sol\":5605:5616  status == 1 */\n      0xff\n      and\n        /* \"ShockSpace/utils/SSSettlementPartial.sol\":5615:5616  1 */\n      0x01\n        /* \"ShockSpace/utils/SSSettlementPartial.sol\":5605:5616  status == 1 */\n      eq\n        /* \"ShockSpace/utils/SSSettlementPartial.sol\":5605:5655  status == 1 && normalizedReceived >= pendingAmount */\n      dup1\n      iszero\n      tag_369\n      jumpi\n      pop\n        /* \"ShockSpace/utils/SSSettlementPartial.sol\":5642:5655  pendingAmount */\n      dup5\n        /* \"ShockSpace/utils/SSSettlementPartial.sol\":5620:5638  normalizedReceived */\n      dup11\n        /* \"ShockSpace/utils/SSSettlementPartial.sol\":5620:5655  normalizedReceived >= pendingAmount */\n      lt\n      iszero\n        /* \"ShockSpace/utils/SSSettlementPartial.sol\":5605:5655  status == 1 && normalizedReceived >= pendingAmount */\n    tag_369:\n        /* \"ShockSpace/utils/SSSettlementPartial.sol\":5605:5663  status == 1 && normalizedReceived >= pendingAmount ? 3 : 2 */\n      tag_370\n      jumpi\n        /* \"ShockSpace/utils/SSSettlementPartial.sol\":5662:5663  2 */\n      0x02\n        /* \"ShockSpace/utils/SSSettlementPartial.sol\":5605:5663  status == 1 && normalizedReceived >= pendingAmount ? 3 : 2 */\n      jump(tag_371)\n    tag_370:\n        /* \"ShockSpace/utils/SSSettlementPartial.sol\":5658:5659  3 */\n      0x03\n        /* \"ShockSpace/utils/SSSettlementPartial.sol\":5605:5663  status == 1 && normalizedReceived >= pendingAmount ? 3 : 2 */\n    tag_371:\n        /* \"ShockSpace/utils/SSSettlementPartial.sol\":5462:5790  ISSListingTemplate.UpdateType({... */\n      0xff\n      and\n      dup2\n      mstore\n      0x20\n      add\n        /* \"ShockSpace/utils/SSSettlementPartial.sol\":5683:5695  makerAddress */\n      dup9\n      sub(shl(0xa0, 0x01), 0x01)\n        /* \"ShockSpace/utils/SSSettlementPartial.sol\":5462:5790  ISSListingTemplate.UpdateType({... */\n      and\n      dup2\n      mstore\n      0x20\n      add\n        /* \"ShockSpace/utils/SSSettlementPartial.sol\":5720:5729  recipient */\n      dup8\n      sub(shl(0xa0, 0x01), 0x01)\n        /* \"ShockSpace/utils/SSSettlementPartial.sol\":5462:5790  ISSListingTemplate.UpdateType({... */\n      and\n      dup2\n      mstore\n      0x20\n      add\n        /* \"ShockSpace/utils/SSSettlementPartial.sol\":5753:5754  0 */\n      0x00\n        /* \"ShockSpace/utils/SSSettlementPartial.sol\":5462:5790  ISSListingTemplate.UpdateType({... */\n      dup2\n      mstore\n      0x20\n      add\n        /* \"ShockSpace/utils/SSSettlementPartial.sol\":5778:5779  0 */\n      0x00\n        /* \"ShockSpace/utils/SSSettlementPartial.sol\":5462:5790  ISSListingTemplate.UpdateType({... */\n      dup2\n      mstore\n      pop\n        /* \"ShockSpace/utils/SSSettlementPartial.sol\":5449:5456  updates */\n      dup2\n        /* \"ShockSpace/utils/SSSettlementPartial.sol\":5457:5458  1 */\n      0x01\n        /* \"ShockSpace/utils/SSSettlementPartial.sol\":5449:5459  updates[1] */\n      dup2\n      mload\n      dup2\n      lt\n      tag_372\n      jumpi\n      mstore(0x00, shl(0xe0, 0x4e487b71))\n      mstore(0x04, 0x32)\n      revert(0x00, 0x24)\n    tag_372:\n      0x20\n      swap1\n      dup2\n      mul\n      swap2\n      swap1\n      swap2\n      add\n      add\n        /* \"ShockSpace/utils/SSSettlementPartial.sol\":5449:5790  updates[1] = ISSListingTemplate.UpdateType({... */\n      mstore\n        /* \"ShockSpace/utils/SSSettlementPartial.sol\":5807:5814  updates */\n      swap9\n        /* \"ShockSpace/utils/SSSettlementPartial.sol\":4743:5821  function _createOrderUpdates(... */\n      swap8\n      pop\n      pop\n      pop\n      pop\n      pop\n      pop\n      pop\n      pop\n      jump\t// out\n        /* \"ShockSpace/imports/Context.sol\":640:736  function _msgSender() internal view virtual returns (address) {... */\n    tag_293:\n        /* \"ShockSpace/imports/Context.sol\":719:729  msg.sender */\n      caller\n        /* \"ShockSpace/imports/Context.sol\":640:736  function _msgSender() internal view virtual returns (address) {... */\n      swap1\n      jump\t// out\n    tag_142:\n      mload(0x40)\n      dup1\n      0x0100\n      add\n      0x40\n      mstore\n      dup1\n      and(0xff, 0x00)\n      dup2\n      mstore\n      0x20\n      add\n      and(0xff, 0x00)\n      dup2\n      mstore\n      0x20\n      add\n      0x00\n      dup2\n      mstore\n      0x20\n      add\n      0x00\n      dup2\n      mstore\n      0x20\n      add\n      and(sub(shl(0xa0, 0x01), 0x01), 0x00)\n      dup2\n      mstore\n      0x20\n      add\n      and(sub(shl(0xa0, 0x01), 0x01), 0x00)\n      dup2\n      mstore\n      0x20\n      add\n      0x00\n      dup2\n      mstore\n      0x20\n      add\n      0x00\n      dup2\n      mstore\n      pop\n      swap1\n      jump\t// out\n    tag_178:\n      0x40\n      dup1\n      mload\n      0x60\n      dup2\n      add\n      dup3\n      mstore\n      0x00\n      dup1\n      dup3\n      mstore\n      0x20\n      dup3\n      add\n      dup2\n      swap1\n      mstore\n      swap2\n      dup2\n      add\n      swap2\n      swap1\n      swap2\n      mstore\n      swap1\n      jump\t// out\n        /* \"#utility.yul\":14:156   */\n    tag_375:\n        /* \"#utility.yul\":95:108   */\n      dup1\n      mload\n        /* \"#utility.yul\":117:150   */\n      tag_377\n        /* \"#utility.yul\":95:108   */\n      dup2\n        /* \"#utility.yul\":117:150   */\n      tag_378\n      jump\t// in\n    tag_377:\n        /* \"#utility.yul\":76:156   */\n      swap2\n      swap1\n      pop\n      jump\t// out\n        /* \"#utility.yul\":161:1071   */\n    tag_379:\n      0x00\n        /* \"#utility.yul\":286:290   */\n      0xc0\n        /* \"#utility.yul\":274:283   */\n      dup3\n        /* \"#utility.yul\":269:272   */\n      dup5\n        /* \"#utility.yul\":265:284   */\n      sub\n        /* \"#utility.yul\":261:291   */\n      slt\n        /* \"#utility.yul\":258:260   */\n      iszero\n      tag_381\n      jumpi\n        /* \"#utility.yul\":308:313   */\n      dup1\n        /* \"#utility.yul\":301:306   */\n      dup2\n        /* \"#utility.yul\":294:314   */\n      revert\n        /* \"#utility.yul\":258:260   */\n    tag_381:\n        /* \"#utility.yul\":345:347   */\n      0x40\n        /* \"#utility.yul\":339:348   */\n      mload\n        /* \"#utility.yul\":387:391   */\n      0xc0\n        /* \"#utility.yul\":379:385   */\n      dup2\n        /* \"#utility.yul\":375:392   */\n      add\n        /* \"#utility.yul\":458:464   */\n      dup2\n        /* \"#utility.yul\":446:456   */\n      dup2\n        /* \"#utility.yul\":443:465   */\n      lt\n        /* \"#utility.yul\":422:440   */\n      0xffffffffffffffff\n        /* \"#utility.yul\":410:420   */\n      dup3\n        /* \"#utility.yul\":407:441   */\n      gt\n        /* \"#utility.yul\":404:466   */\n      or\n        /* \"#utility.yul\":401:403   */\n      iszero\n      tag_382\n      jumpi\n      shl(0xe0, 0x4e487b71)\n        /* \"#utility.yul\":489:524   */\n      dup4\n      mstore\n        /* \"#utility.yul\":547:551   */\n      0x41\n        /* \"#utility.yul\":544:545   */\n      0x04\n        /* \"#utility.yul\":537:552   */\n      mstore\n        /* \"#utility.yul\":579:583   */\n      0x24\n        /* \"#utility.yul\":496:501   */\n      dup4\n        /* \"#utility.yul\":565:584   */\n      revert\n        /* \"#utility.yul\":401:403   */\n    tag_382:\n        /* \"#utility.yul\":610:612   */\n      0x40\n        /* \"#utility.yul\":603:625   */\n      mstore\n        /* \"#utility.yul\":643:649   */\n      swap1\n      pop\n      dup1\n        /* \"#utility.yul\":673:715   */\n      tag_383\n        /* \"#utility.yul\":705:714   */\n      dup4\n        /* \"#utility.yul\":673:715   */\n      tag_375\n      jump\t// in\n    tag_383:\n        /* \"#utility.yul\":665:671   */\n      dup2\n        /* \"#utility.yul\":658:716   */\n      mstore\n        /* \"#utility.yul\":749:800   */\n      tag_384\n        /* \"#utility.yul\":796:798   */\n      0x20\n        /* \"#utility.yul\":785:794   */\n      dup5\n        /* \"#utility.yul\":781:799   */\n      add\n        /* \"#utility.yul\":749:800   */\n      tag_375\n      jump\t// in\n    tag_384:\n        /* \"#utility.yul\":744:746   */\n      0x20\n        /* \"#utility.yul\":736:742   */\n      dup3\n        /* \"#utility.yul\":732:747   */\n      add\n        /* \"#utility.yul\":725:801   */\n      mstore\n        /* \"#utility.yul\":855:857   */\n      0x40\n        /* \"#utility.yul\":844:853   */\n      dup4\n        /* \"#utility.yul\":840:858   */\n      add\n        /* \"#utility.yul\":834:859   */\n      mload\n        /* \"#utility.yul\":829:831   */\n      0x40\n        /* \"#utility.yul\":821:827   */\n      dup3\n        /* \"#utility.yul\":817:832   */\n      add\n        /* \"#utility.yul\":810:860   */\n      mstore\n        /* \"#utility.yul\":914:916   */\n      0x60\n        /* \"#utility.yul\":903:912   */\n      dup4\n        /* \"#utility.yul\":899:917   */\n      add\n        /* \"#utility.yul\":893:918   */\n      mload\n        /* \"#utility.yul\":888:890   */\n      0x60\n        /* \"#utility.yul\":880:886   */\n      dup3\n        /* \"#utility.yul\":876:891   */\n      add\n        /* \"#utility.yul\":869:919   */\n      mstore\n        /* \"#utility.yul\":974:977   */\n      0x80\n        /* \"#utility.yul\":963:972   */\n      dup4\n        /* \"#utility.yul\":959:978   */\n      add\n        /* \"#utility.yul\":953:979   */\n      mload\n        /* \"#utility.yul\":947:950   */\n      0x80\n        /* \"#utility.yul\":939:945   */\n      dup3\n        /* \"#utility.yul\":935:951   */\n      add\n        /* \"#utility.yul\":928:980   */\n      mstore\n        /* \"#utility.yul\":1014:1064   */\n      tag_385\n        /* \"#utility.yul\":1059:1062   */\n      0xa0\n        /* \"#utility.yul\":1048:1057   */\n      dup5\n        /* \"#utility.yul\":1044:1063   */\n      add\n        /* \"#utility.yul\":1014:1064   */\n      tag_386\n      jump\t// in\n    tag_385:\n        /* \"#utility.yul\":1008:1011   */\n      0xa0\n        /* \"#utility.yul\":1000:1006   */\n      dup3\n        /* \"#utility.yul\":996:1012   */\n      add\n        /* \"#utility.yul\":989:1065   */\n      mstore\n      pop\n        /* \"#utility.yul\":248:1071   */\n      swap3\n      swap2\n      pop\n      pop\n      jump\t// out\n        /* \"#utility.yul\":1076:1238   */\n    tag_386:\n        /* \"#utility.yul\":1155:1168   */\n      dup1\n      mload\n        /* \"#utility.yul\":1208:1212   */\n      0xff\n        /* \"#utility.yul\":1197:1213   */\n      dup2\n      and\n        /* \"#utility.yul\":1187:1214   */\n      dup2\n      eq\n        /* \"#utility.yul\":1177:1179   */\n      tag_377\n      jumpi\n        /* \"#utility.yul\":1228:1229   */\n      0x00\n        /* \"#utility.yul\":1225:1226   */\n      dup1\n        /* \"#utility.yul\":1218:1230   */\n      revert\n        /* \"#utility.yul\":1243:1502   */\n    tag_44:\n      0x00\n        /* \"#utility.yul\":1355:1357   */\n      0x20\n        /* \"#utility.yul\":1343:1352   */\n      dup3\n        /* \"#utility.yul\":1334:1341   */\n      dup5\n        /* \"#utility.yul\":1330:1353   */\n      sub\n        /* \"#utility.yul\":1326:1358   */\n      slt\n        /* \"#utility.yul\":1323:1325   */\n      iszero\n      tag_390\n      jumpi\n        /* \"#utility.yul\":1376:1382   */\n      dup1\n        /* \"#utility.yul\":1368:1374   */\n      dup2\n        /* \"#utility.yul\":1361:1383   */\n      revert\n        /* \"#utility.yul\":1323:1325   */\n    tag_390:\n        /* \"#utility.yul\":1420:1429   */\n      dup2\n        /* \"#utility.yul\":1407:1430   */\n      calldataload\n        /* \"#utility.yul\":1439:1472   */\n      tag_124\n        /* \"#utility.yul\":1466:1471   */\n      dup2\n        /* \"#utility.yul\":1439:1472   */\n      tag_378\n      jump\t// in\n        /* \"#utility.yul\":1507:1977   */\n    tag_92:\n      0x00\n      dup1\n      0x00\n        /* \"#utility.yul\":1653:1655   */\n      0x60\n        /* \"#utility.yul\":1641:1650   */\n      dup5\n        /* \"#utility.yul\":1632:1639   */\n      dup7\n        /* \"#utility.yul\":1628:1651   */\n      sub\n        /* \"#utility.yul\":1624:1656   */\n      slt\n        /* \"#utility.yul\":1621:1623   */\n      iszero\n      tag_393\n      jumpi\n        /* \"#utility.yul\":1674:1680   */\n      dup2\n        /* \"#utility.yul\":1666:1672   */\n      dup3\n        /* \"#utility.yul\":1659:1681   */\n      revert\n        /* \"#utility.yul\":1621:1623   */\n    tag_393:\n        /* \"#utility.yul\":1718:1727   */\n      dup4\n        /* \"#utility.yul\":1705:1728   */\n      calldataload\n        /* \"#utility.yul\":1737:1770   */\n      tag_394\n        /* \"#utility.yul\":1764:1769   */\n      dup2\n        /* \"#utility.yul\":1737:1770   */\n      tag_378\n      jump\t// in\n    tag_394:\n        /* \"#utility.yul\":1789:1794   */\n      swap3\n      pop\n        /* \"#utility.yul\":1846:1848   */\n      0x20\n        /* \"#utility.yul\":1831:1849   */\n      dup5\n      add\n        /* \"#utility.yul\":1818:1850   */\n      calldataload\n        /* \"#utility.yul\":1859:1894   */\n      tag_395\n        /* \"#utility.yul\":1818:1850   */\n      dup2\n        /* \"#utility.yul\":1859:1894   */\n      tag_378\n      jump\t// in\n    tag_395:\n        /* \"#utility.yul\":1611:1977   */\n      swap3\n      swap6\n        /* \"#utility.yul\":1913:1920   */\n      swap3\n      swap5\n      pop\n      pop\n      pop\n        /* \"#utility.yul\":1967:1969   */\n      0x40\n        /* \"#utility.yul\":1952:1970   */\n      swap2\n      swap1\n      swap2\n      add\n        /* \"#utility.yul\":1939:1971   */\n      calldataload\n      swap1\n        /* \"#utility.yul\":1611:1977   */\n      jump\t// out\n        /* \"#utility.yul\":1982:2464   */\n    tag_264:\n      0x00\n      dup1\n      0x00\n        /* \"#utility.yul\":2137:2139   */\n      0x60\n        /* \"#utility.yul\":2125:2134   */\n      dup5\n        /* \"#utility.yul\":2116:2123   */\n      dup7\n        /* \"#utility.yul\":2112:2135   */\n      sub\n        /* \"#utility.yul\":2108:2140   */\n      slt\n        /* \"#utility.yul\":2105:2107   */\n      iszero\n      tag_397\n      jumpi\n        /* \"#utility.yul\":2158:2164   */\n      dup3\n        /* \"#utility.yul\":2150:2156   */\n      dup4\n        /* \"#utility.yul\":2143:2165   */\n      revert\n        /* \"#utility.yul\":2105:2107   */\n    tag_397:\n        /* \"#utility.yul\":2195:2204   */\n      dup4\n        /* \"#utility.yul\":2189:2205   */\n      mload\n        /* \"#utility.yul\":2214:2247   */\n      tag_398\n        /* \"#utility.yul\":2241:2246   */\n      dup2\n        /* \"#utility.yul\":2214:2247   */\n      tag_378\n      jump\t// in\n    tag_398:\n        /* \"#utility.yul\":2316:2318   */\n      0x20\n        /* \"#utility.yul\":2301:2319   */\n      dup6\n      add\n        /* \"#utility.yul\":2295:2320   */\n      mload\n        /* \"#utility.yul\":2266:2271   */\n      swap1\n      swap4\n      pop\n        /* \"#utility.yul\":2329:2364   */\n      tag_399\n        /* \"#utility.yul\":2295:2320   */\n      dup2\n        /* \"#utility.yul\":2329:2364   */\n      tag_378\n      jump\t// in\n    tag_399:\n        /* \"#utility.yul\":2383:2390   */\n      swap2\n      pop\n        /* \"#utility.yul\":2409:2458   */\n      tag_400\n        /* \"#utility.yul\":2454:2456   */\n      0x40\n        /* \"#utility.yul\":2439:2457   */\n      dup6\n      add\n        /* \"#utility.yul\":2409:2458   */\n      tag_386\n      jump\t// in\n    tag_400:\n        /* \"#utility.yul\":2399:2458   */\n      swap1\n      pop\n        /* \"#utility.yul\":2095:2464   */\n      swap3\n      pop\n      swap3\n      pop\n      swap3\n      jump\t// out\n        /* \"#utility.yul\":2469:2796   */\n    tag_30:\n      0x00\n      dup1\n        /* \"#utility.yul\":2598:2600   */\n      0x40\n        /* \"#utility.yul\":2586:2595   */\n      dup4\n        /* \"#utility.yul\":2577:2584   */\n      dup6\n        /* \"#utility.yul\":2573:2596   */\n      sub\n        /* \"#utility.yul\":2569:2601   */\n      slt\n        /* \"#utility.yul\":2566:2568   */\n      iszero\n      tag_402\n      jumpi\n        /* \"#utility.yul\":2619:2625   */\n      dup2\n        /* \"#utility.yul\":2611:2617   */\n      dup3\n        /* \"#utility.yul\":2604:2626   */\n      revert\n        /* \"#utility.yul\":2566:2568   */\n    tag_402:\n        /* \"#utility.yul\":2663:2672   */\n      dup3\n        /* \"#utility.yul\":2650:2673   */\n      calldataload\n        /* \"#utility.yul\":2682:2715   */\n      tag_403\n        /* \"#utility.yul\":2709:2714   */\n      dup2\n        /* \"#utility.yul\":2682:2715   */\n      tag_378\n      jump\t// in\n    tag_403:\n        /* \"#utility.yul\":2734:2739   */\n      swap5\n        /* \"#utility.yul\":2786:2788   */\n      0x20\n        /* \"#utility.yul\":2771:2789   */\n      swap4\n      swap1\n      swap4\n      add\n        /* \"#utility.yul\":2758:2790   */\n      calldataload\n      swap4\n      pop\n      pop\n      pop\n        /* \"#utility.yul\":2556:2796   */\n      jump\t// out\n        /* \"#utility.yul\":2801:3196   */\n    tag_50:\n      0x00\n      dup1\n      0x00\n        /* \"#utility.yul\":2947:2949   */\n      0x60\n        /* \"#utility.yul\":2935:2944   */\n      dup5\n        /* \"#utility.yul\":2926:2933   */\n      dup7\n        /* \"#utility.yul\":2922:2945   */\n      sub\n        /* \"#utility.yul\":2918:2950   */\n      slt\n        /* \"#utility.yul\":2915:2917   */\n      iszero\n      tag_405\n      jumpi\n        /* \"#utility.yul\":2968:2974   */\n      dup3\n        /* \"#utility.yul\":2960:2966   */\n      dup4\n        /* \"#utility.yul\":2953:2975   */\n      revert\n        /* \"#utility.yul\":2915:2917   */\n    tag_405:\n        /* \"#utility.yul\":3012:3021   */\n      dup4\n        /* \"#utility.yul\":2999:3022   */\n      calldataload\n        /* \"#utility.yul\":3031:3064   */\n      tag_406\n        /* \"#utility.yul\":3058:3063   */\n      dup2\n        /* \"#utility.yul\":3031:3064   */\n      tag_378\n      jump\t// in\n    tag_406:\n        /* \"#utility.yul\":3083:3088   */\n      swap6\n        /* \"#utility.yul\":3135:3137   */\n      0x20\n        /* \"#utility.yul\":3120:3138   */\n      dup6\n      add\n        /* \"#utility.yul\":3107:3139   */\n      calldataload\n      swap6\n      pop\n        /* \"#utility.yul\":3186:3188   */\n      0x40\n        /* \"#utility.yul\":3171:3189   */\n      swap1\n      swap5\n      add\n        /* \"#utility.yul\":3158:3190   */\n      calldataload\n      swap4\n        /* \"#utility.yul\":2905:3196   */\n      swap3\n      pop\n      pop\n      pop\n      jump\t// out\n        /* \"#utility.yul\":3201:3482   */\n    tag_172:\n      0x00\n        /* \"#utility.yul\":3358:3361   */\n      0xc0\n        /* \"#utility.yul\":3346:3355   */\n      dup3\n        /* \"#utility.yul\":3337:3344   */\n      dup5\n        /* \"#utility.yul\":3333:3356   */\n      sub\n        /* \"#utility.yul\":3329:3362   */\n      slt\n        /* \"#utility.yul\":3326:3328   */\n      iszero\n      tag_408\n      jumpi\n        /* \"#utility.yul\":3380:3386   */\n      dup1\n        /* \"#utility.yul\":3372:3378   */\n      dup2\n        /* \"#utility.yul\":3365:3387   */\n      revert\n        /* \"#utility.yul\":3326:3328   */\n    tag_408:\n        /* \"#utility.yul\":3408:3476   */\n      tag_124\n        /* \"#utility.yul\":3468:3475   */\n      dup4\n        /* \"#utility.yul\":3457:3466   */\n      dup4\n        /* \"#utility.yul\":3408:3476   */\n      tag_379\n      jump\t// in\n        /* \"#utility.yul\":3774:3968   */\n    tag_334:\n      0x00\n        /* \"#utility.yul\":3897:3899   */\n      0x20\n        /* \"#utility.yul\":3885:3894   */\n      dup3\n        /* \"#utility.yul\":3876:3883   */\n      dup5\n        /* \"#utility.yul\":3872:3895   */\n      sub\n        /* \"#utility.yul\":3868:3900   */\n      slt\n        /* \"#utility.yul\":3865:3867   */\n      iszero\n      tag_414\n      jumpi\n        /* \"#utility.yul\":3918:3924   */\n      dup1\n        /* \"#utility.yul\":3910:3916   */\n      dup2\n        /* \"#utility.yul\":3903:3925   */\n      revert\n        /* \"#utility.yul\":3865:3867   */\n    tag_414:\n      pop\n        /* \"#utility.yul\":3946:3962   */\n      mload\n      swap2\n        /* \"#utility.yul\":3855:3968   */\n      swap1\n      pop\n      jump\t// out\n        /* \"#utility.yul\":3973:4228   */\n    tag_130:\n      0x00\n      dup1\n        /* \"#utility.yul\":4113:4115   */\n      0x40\n        /* \"#utility.yul\":4101:4110   */\n      dup4\n        /* \"#utility.yul\":4092:4099   */\n      dup6\n        /* \"#utility.yul\":4088:4111   */\n      sub\n        /* \"#utility.yul\":4084:4116   */\n      slt\n        /* \"#utility.yul\":4081:4083   */\n      iszero\n      tag_416\n      jumpi\n        /* \"#utility.yul\":4134:4140   */\n      dup2\n        /* \"#utility.yul\":4126:4132   */\n      dup3\n        /* \"#utility.yul\":4119:4141   */\n      revert\n        /* \"#utility.yul\":4081:4083   */\n    tag_416:\n      pop\n      pop\n        /* \"#utility.yul\":4162:4178   */\n      dup1\n      mload\n        /* \"#utility.yul\":4218:4220   */\n      0x20\n        /* \"#utility.yul\":4203:4221   */\n      swap1\n      swap2\n      add\n        /* \"#utility.yul\":4197:4222   */\n      mload\n        /* \"#utility.yul\":4162:4178   */\n      swap1\n      swap3\n        /* \"#utility.yul\":4197:4222   */\n      swap1\n      swap2\n      pop\n        /* \"#utility.yul\":4071:4228   */\n      jump\t// out\n        /* \"#utility.yul\":4233:4611   */\n    tag_147:\n      0x00\n      dup1\n      0x00\n      dup1\n        /* \"#utility.yul\":4407:4410   */\n      0x80\n        /* \"#utility.yul\":4395:4404   */\n      dup6\n        /* \"#utility.yul\":4386:4393   */\n      dup8\n        /* \"#utility.yul\":4382:4405   */\n      sub\n        /* \"#utility.yul\":4378:4411   */\n      slt\n        /* \"#utility.yul\":4375:4377   */\n      iszero\n      tag_418\n      jumpi\n        /* \"#utility.yul\":4429:4435   */\n      dup1\n        /* \"#utility.yul\":4421:4427   */\n      dup2\n        /* \"#utility.yul\":4414:4436   */\n      revert\n        /* \"#utility.yul\":4375:4377   */\n    tag_418:\n      pop\n      pop\n        /* \"#utility.yul\":4457:4473   */\n      dup3\n      mload\n        /* \"#utility.yul\":4513:4515   */\n      0x20\n        /* \"#utility.yul\":4498:4516   */\n      dup5\n      add\n        /* \"#utility.yul\":4492:4517   */\n      mload\n        /* \"#utility.yul\":4557:4559   */\n      0x40\n        /* \"#utility.yul\":4542:4560   */\n      dup6\n      add\n        /* \"#utility.yul\":4536:4561   */\n      mload\n        /* \"#utility.yul\":4601:4603   */\n      0x60\n        /* \"#utility.yul\":4586:4604   */\n      swap1\n      swap6\n      add\n        /* \"#utility.yul\":4580:4605   */\n      mload\n        /* \"#utility.yul\":4457:4473   */\n      swap2\n      swap7\n        /* \"#utility.yul\":4492:4517   */\n      swap1\n      swap6\n      pop\n        /* \"#utility.yul\":4580:4605   */\n      swap1\n      swap3\n      pop\n        /* \"#utility.yul\":4365:4611   */\n      swap1\n      pop\n      jump\t// out\n        /* \"#utility.yul\":4616:4832   */\n    tag_326:\n      0x00\n        /* \"#utility.yul\":4737:4739   */\n      0x20\n        /* \"#utility.yul\":4725:4734   */\n      dup3\n        /* \"#utility.yul\":4716:4723   */\n      dup5\n        /* \"#utility.yul\":4712:4735   */\n      sub\n        /* \"#utility.yul\":4708:4740   */\n      slt\n        /* \"#utility.yul\":4705:4707   */\n      iszero\n      tag_420\n      jumpi\n        /* \"#utility.yul\":4758:4764   */\n      dup1\n        /* \"#utility.yul\":4750:4756   */\n      dup2\n        /* \"#utility.yul\":4743:4765   */\n      revert\n        /* \"#utility.yul\":4705:4707   */\n    tag_420:\n        /* \"#utility.yul\":4786:4826   */\n      tag_124\n        /* \"#utility.yul\":4816:4825   */\n      dup3\n        /* \"#utility.yul\":4786:4826   */\n      tag_386\n      jump\t// in\n        /* \"#utility.yul\":4837:4943   */\n    tag_422:\n      sub(shl(0xa0, 0x01), 0x01)\n        /* \"#utility.yul\":4905:4936   */\n      and\n        /* \"#utility.yul\":4893:4937   */\n      swap1\n      mstore\n        /* \"#utility.yul\":4883:4943   */\n      jump\t// out\n        /* \"#utility.yul\":4948:5608   */\n    tag_424:\n      0x00\n        /* \"#utility.yul\":5058:5063   */\n      dup2\n        /* \"#utility.yul\":5052:5064   */\n      mload\n        /* \"#utility.yul\":5085:5091   */\n      dup1\n        /* \"#utility.yul\":5080:5083   */\n      dup5\n        /* \"#utility.yul\":5073:5092   */\n      mstore\n        /* \"#utility.yul\":5111:5115   */\n      0x20\n        /* \"#utility.yul\":5140:5142   */\n      dup1\n        /* \"#utility.yul\":5135:5138   */\n      dup6\n        /* \"#utility.yul\":5131:5143   */\n      add\n        /* \"#utility.yul\":5124:5143   */\n      swap5\n      pop\n        /* \"#utility.yul\":5177:5179   */\n      dup1\n        /* \"#utility.yul\":5170:5175   */\n      dup5\n        /* \"#utility.yul\":5166:5180   */\n      add\n        /* \"#utility.yul\":5198:5201   */\n      dup4\n        /* \"#utility.yul\":5210:5583   */\n    tag_426:\n        /* \"#utility.yul\":5224:5230   */\n      dup4\n        /* \"#utility.yul\":5221:5222   */\n      dup2\n        /* \"#utility.yul\":5218:5231   */\n      lt\n        /* \"#utility.yul\":5210:5583   */\n      iszero\n      tag_428\n      jumpi\n        /* \"#utility.yul\":5283:5296   */\n      dup2\n      mload\n        /* \"#utility.yul\":5325:5334   */\n      dup1\n      mload\n        /* \"#utility.yul\":5336:5340   */\n      0xff\n        /* \"#utility.yul\":5321:5341   */\n      and\n        /* \"#utility.yul\":5309:5342   */\n      dup9\n      mstore\n        /* \"#utility.yul\":5386:5397   */\n      dup4\n      dup2\n      add\n        /* \"#utility.yul\":5380:5398   */\n      mload\n      sub(shl(0xa0, 0x01), 0x01)\n        /* \"#utility.yul\":5376:5420   */\n      and\n        /* \"#utility.yul\":5362:5374   */\n      dup5\n      dup10\n      add\n        /* \"#utility.yul\":5355:5421   */\n      mstore\n        /* \"#utility.yul\":5444:5448   */\n      0x40\n        /* \"#utility.yul\":5488:5499   */\n      swap1\n      dup2\n      add\n        /* \"#utility.yul\":5482:5500   */\n      mload\n        /* \"#utility.yul\":5468:5480   */\n      swap1\n      dup9\n      add\n        /* \"#utility.yul\":5461:5501   */\n      mstore\n        /* \"#utility.yul\":5530:5534   */\n      0x60\n        /* \"#utility.yul\":5521:5535   */\n      swap1\n      swap7\n      add\n      swap6\n        /* \"#utility.yul\":5558:5573   */\n      swap1\n      dup3\n      add\n      swap1\n        /* \"#utility.yul\":5417:5418   */\n      0x01\n        /* \"#utility.yul\":5239:5248   */\n      add\n        /* \"#utility.yul\":5210:5583   */\n      jump(tag_426)\n    tag_428:\n      pop\n        /* \"#utility.yul\":5599:5602   */\n      swap5\n      swap6\n        /* \"#utility.yul\":5028:5608   */\n      swap5\n      pop\n      pop\n      pop\n      pop\n      pop\n      jump\t// out\n        /* \"#utility.yul\":5613:5816   */\n    tag_58:\n      sub(shl(0xa0, 0x01), 0x01)\n        /* \"#utility.yul\":5777:5809   */\n      swap2\n      swap1\n      swap2\n      and\n        /* \"#utility.yul\":5759:5810   */\n      dup2\n      mstore\n        /* \"#utility.yul\":5747:5749   */\n      0x20\n        /* \"#utility.yul\":5732:5750   */\n      add\n      swap1\n        /* \"#utility.yul\":5714:5816   */\n      jump\t// out\n        /* \"#utility.yul\":5821:6277   */\n    tag_337:\n      sub(shl(0xa0, 0x01), 0x01)\n        /* \"#utility.yul\":6108:6123   */\n      swap5\n      dup6\n      and\n        /* \"#utility.yul\":6090:6124   */\n      dup2\n      mstore\n        /* \"#utility.yul\":6160:6175   */\n      swap3\n      dup5\n      and\n        /* \"#utility.yul\":6155:6157   */\n      0x20\n        /* \"#utility.yul\":6140:6158   */\n      dup5\n      add\n        /* \"#utility.yul\":6133:6176   */\n      mstore\n        /* \"#utility.yul\":6207:6209   */\n      0x40\n        /* \"#utility.yul\":6192:6210   */\n      dup4\n      add\n        /* \"#utility.yul\":6185:6219   */\n      swap2\n      swap1\n      swap2\n      mstore\n        /* \"#utility.yul\":6255:6270   */\n      swap1\n      swap2\n      and\n        /* \"#utility.yul\":6250:6252   */\n      0x60\n        /* \"#utility.yul\":6235:6253   */\n      dup3\n      add\n        /* \"#utility.yul\":6228:6271   */\n      mstore\n        /* \"#utility.yul\":6039:6042   */\n      0x80\n        /* \"#utility.yul\":6024:6043   */\n      add\n      swap1\n        /* \"#utility.yul\":6006:6277   */\n      jump\t// out\n        /* \"#utility.yul\":6282:6719   */\n    tag_286:\n      sub(shl(0xa0, 0x01), 0x01)\n        /* \"#utility.yul\":6549:6581   */\n      dup4\n      and\n        /* \"#utility.yul\":6531:6582   */\n      dup2\n      mstore\n        /* \"#utility.yul\":6618:6620   */\n      0x40\n        /* \"#utility.yul\":6613:6615   */\n      0x20\n        /* \"#utility.yul\":6598:6616   */\n      dup3\n      add\n        /* \"#utility.yul\":6591:6621   */\n      dup2\n      swap1\n      mstore\n        /* \"#utility.yul\":6282:6719   */\n      0x00\n      swap1\n        /* \"#utility.yul\":6638:6713   */\n      tag_432\n      swap1\n        /* \"#utility.yul\":6694:6712   */\n      dup4\n      add\n        /* \"#utility.yul\":6686:6692   */\n      dup5\n        /* \"#utility.yul\":6638:6713   */\n      tag_424\n      jump\t// in\n    tag_432:\n        /* \"#utility.yul\":6630:6713   */\n      swap5\n        /* \"#utility.yul\":6521:6719   */\n      swap4\n      pop\n      pop\n      pop\n      pop\n      jump\t// out\n        /* \"#utility.yul\":6724:7064   */\n    tag_63:\n      0x00\n        /* \"#utility.yul\":6963:6965   */\n      0x20\n        /* \"#utility.yul\":6952:6961   */\n      dup3\n        /* \"#utility.yul\":6945:6966   */\n      mstore\n        /* \"#utility.yul\":6983:7058   */\n      tag_124\n        /* \"#utility.yul\":7054:7056   */\n      0x20\n        /* \"#utility.yul\":7043:7052   */\n      dup4\n        /* \"#utility.yul\":7039:7057   */\n      add\n        /* \"#utility.yul\":7031:7037   */\n      dup5\n        /* \"#utility.yul\":6983:7058   */\n      tag_424\n      jump\t// in\n        /* \"#utility.yul\":7069:8453   */\n    tag_53:\n        /* \"#utility.yul\":7296:7298   */\n      0x20\n        /* \"#utility.yul\":7348:7369   */\n      dup1\n      dup3\n      mstore\n        /* \"#utility.yul\":7418:7431   */\n      dup3\n      mload\n        /* \"#utility.yul\":7321:7339   */\n      dup3\n      dup3\n      add\n        /* \"#utility.yul\":7440:7462   */\n      dup2\n      swap1\n      mstore\n        /* \"#utility.yul\":7069:8453   */\n      0x00\n      swap2\n        /* \"#utility.yul\":7296:7298   */\n      swap1\n        /* \"#utility.yul\":7481:7483   */\n      0x40\n      swap1\n        /* \"#utility.yul\":7499:7517   */\n      dup2\n      dup6\n      add\n      swap1\n        /* \"#utility.yul\":7540:7555   */\n      dup7\n      dup5\n      add\n        /* \"#utility.yul\":7069:8453   */\n      dup6\n        /* \"#utility.yul\":7586:8427   */\n    tag_436:\n        /* \"#utility.yul\":7600:7606   */\n      dup3\n        /* \"#utility.yul\":7597:7598   */\n      dup2\n        /* \"#utility.yul\":7594:7607   */\n      lt\n        /* \"#utility.yul\":7586:8427   */\n      iszero\n      tag_438\n      jumpi\n        /* \"#utility.yul\":7659:7672   */\n      dup2\n      mload\n        /* \"#utility.yul\":7728:7737   */\n      dup1\n      mload\n        /* \"#utility.yul\":7695:7699   */\n      0xff\n        /* \"#utility.yul\":7724:7742   */\n      swap1\n      dup2\n      and\n        /* \"#utility.yul\":7712:7743   */\n      dup7\n      mstore\n        /* \"#utility.yul\":7787:7798   */\n      dup8\n      dup3\n      add\n        /* \"#utility.yul\":7781:7799   */\n      mload\n        /* \"#utility.yul\":7777:7804   */\n      and\n        /* \"#utility.yul\":7763:7775   */\n      dup8\n      dup7\n      add\n        /* \"#utility.yul\":7756:7805   */\n      mstore\n        /* \"#utility.yul\":7845:7856   */\n      dup6\n      dup2\n      add\n        /* \"#utility.yul\":7839:7857   */\n      mload\n        /* \"#utility.yul\":7825:7837   */\n      dup7\n      dup7\n      add\n        /* \"#utility.yul\":7818:7858   */\n      mstore\n        /* \"#utility.yul\":7881:7885   */\n      0x60\n        /* \"#utility.yul\":7925:7936   */\n      dup1\n      dup3\n      add\n        /* \"#utility.yul\":7919:7937   */\n      mload\n        /* \"#utility.yul\":7905:7917   */\n      swap1\n      dup7\n      add\n        /* \"#utility.yul\":7898:7938   */\n      mstore\n        /* \"#utility.yul\":7961:7965   */\n      0x80\n        /* \"#utility.yul\":8009:8020   */\n      dup1\n      dup3\n      add\n        /* \"#utility.yul\":8003:8021   */\n      mload\n      sub(shl(0xa0, 0x01), 0x01)\n        /* \"#utility.yul\":7999:8043   */\n      and\n        /* \"#utility.yul\":7985:7997   */\n      swap1\n      dup7\n      add\n        /* \"#utility.yul\":7978:8044   */\n      mstore\n        /* \"#utility.yul\":8031:8034   */\n      0xa0\n        /* \"#utility.yul\":8110:8121   */\n      dup1\n      dup3\n      add\n        /* \"#utility.yul\":8104:8122   */\n      mload\n        /* \"#utility.yul\":8135:8183   */\n      tag_439\n        /* \"#utility.yul\":8170:8182   */\n      dup3\n      dup9\n      add\n        /* \"#utility.yul\":8104:8122   */\n      dup3\n        /* \"#utility.yul\":8135:8183   */\n      tag_422\n      jump\t// in\n    tag_439:\n      pop\n      pop\n        /* \"#utility.yul\":8206:8210   */\n      0xc0\n        /* \"#utility.yul\":8250:8261   */\n      dup2\n      dup2\n      add\n        /* \"#utility.yul\":8244:8262   */\n      mload\n        /* \"#utility.yul\":8230:8242   */\n      swap1\n      dup7\n      add\n        /* \"#utility.yul\":8223:8263   */\n      mstore\n        /* \"#utility.yul\":8286:8290   */\n      0xe0\n        /* \"#utility.yul\":8330:8341   */\n      swap1\n      dup2\n      add\n        /* \"#utility.yul\":8324:8342   */\n      mload\n        /* \"#utility.yul\":8310:8322   */\n      swap1\n      dup6\n      add\n        /* \"#utility.yul\":8303:8343   */\n      mstore\n        /* \"#utility.yul\":8372:8378   */\n      0x0100\n        /* \"#utility.yul\":8363:8379   */\n      swap1\n      swap4\n      add\n      swap3\n        /* \"#utility.yul\":8402:8417   */\n      swap1\n      dup6\n      add\n      swap1\n        /* \"#utility.yul\":7622:7623   */\n      0x01\n        /* \"#utility.yul\":7615:7624   */\n      add\n        /* \"#utility.yul\":7586:8427   */\n      jump(tag_436)\n    tag_438:\n      pop\n        /* \"#utility.yul\":8444:8447   */\n      swap2\n      swap8\n        /* \"#utility.yul\":7276:8453   */\n      swap7\n      pop\n      pop\n      pop\n      pop\n      pop\n      pop\n      pop\n      jump\t// out\n        /* \"#utility.yul\":8458:8645   */\n    tag_47:\n        /* \"#utility.yul\":8623:8637   */\n      swap1\n      iszero\n        /* \"#utility.yul\":8616:8638   */\n      iszero\n        /* \"#utility.yul\":8598:8639   */\n      dup2\n      mstore\n        /* \"#utility.yul\":8586:8588   */\n      0x20\n        /* \"#utility.yul\":8571:8589   */\n      add\n      swap1\n        /* \"#utility.yul\":8553:8645   */\n      jump\t// out\n        /* \"#utility.yul\":8650:9052   */\n    tag_252:\n        /* \"#utility.yul\":8852:8854   */\n      0x20\n        /* \"#utility.yul\":8834:8855   */\n      dup1\n      dup3\n      mstore\n        /* \"#utility.yul\":8891:8893   */\n      0x26\n        /* \"#utility.yul\":8871:8889   */\n      swap1\n      dup3\n      add\n        /* \"#utility.yul\":8864:8894   */\n      mstore\n        /* \"#utility.yul\":8930:8964   */\n      0x4f776e61626c653a206e6577206f776e657220697320746865207a65726f2061\n        /* \"#utility.yul\":8925:8927   */\n      0x40\n        /* \"#utility.yul\":8910:8928   */\n      dup3\n      add\n        /* \"#utility.yul\":8903:8965   */\n      mstore\n      shl(0xd0, 0x646472657373)\n        /* \"#utility.yul\":8996:8998   */\n      0x60\n        /* \"#utility.yul\":8981:8999   */\n      dup3\n      add\n        /* \"#utility.yul\":8974:9010   */\n      mstore\n        /* \"#utility.yul\":9042:9045   */\n      0x80\n        /* \"#utility.yul\":9027:9046   */\n      add\n      swap1\n        /* \"#utility.yul\":8824:9052   */\n      jump\t// out\n        /* \"#utility.yul\":9057:9413   */\n    tag_297:\n        /* \"#utility.yul\":9259:9261   */\n      0x20\n        /* \"#utility.yul\":9241:9262   */\n      dup1\n      dup3\n      mstore\n        /* \"#utility.yul\":9278:9296   */\n      dup2\n      dup2\n      add\n        /* \"#utility.yul\":9271:9301   */\n      mstore\n        /* \"#utility.yul\":9337:9371   */\n      0x4f776e61626c653a2063616c6c6572206973206e6f7420746865206f776e6572\n        /* \"#utility.yul\":9332:9334   */\n      0x40\n        /* \"#utility.yul\":9317:9335   */\n      dup3\n      add\n        /* \"#utility.yul\":9310:9372   */\n      mstore\n        /* \"#utility.yul\":9404:9406   */\n      0x60\n        /* \"#utility.yul\":9389:9407   */\n      add\n      swap1\n        /* \"#utility.yul\":9231:9413   */\n      jump\t// out\n        /* \"#utility.yul\":9418:9763   */\n    tag_231:\n        /* \"#utility.yul\":9620:9622   */\n      0x20\n        /* \"#utility.yul\":9602:9623   */\n      dup1\n      dup3\n      mstore\n        /* \"#utility.yul\":9659:9661   */\n      0x15\n        /* \"#utility.yul\":9639:9657   */\n      swap1\n      dup3\n      add\n        /* \"#utility.yul\":9632:9662   */\n      mstore\n      shl(0x58, 0x496e76616c6964206167656e742061646472657373)\n        /* \"#utility.yul\":9693:9695   */\n      0x40\n        /* \"#utility.yul\":9678:9696   */\n      dup3\n      add\n        /* \"#utility.yul\":9671:9722   */\n      mstore\n        /* \"#utility.yul\":9754:9756   */\n      0x60\n        /* \"#utility.yul\":9739:9757   */\n      add\n      swap1\n        /* \"#utility.yul\":9592:9763   */\n      jump\t// out\n        /* \"#utility.yul\":9768:9945   */\n    tag_33:\n        /* \"#utility.yul\":9914:9939   */\n      swap1\n      dup2\n      mstore\n        /* \"#utility.yul\":9902:9904   */\n      0x20\n        /* \"#utility.yul\":9887:9905   */\n      add\n      swap1\n        /* \"#utility.yul\":9869:9945   */\n      jump\t// out\n        /* \"#utility.yul\":9950:10205   */\n    tag_354:\n        /* \"#utility.yul\":10120:10145   */\n      swap2\n      dup3\n      mstore\n        /* \"#utility.yul\":10193:10197   */\n      0xff\n        /* \"#utility.yul\":10181:10198   */\n      and\n        /* \"#utility.yul\":10176:10178   */\n      0x20\n        /* \"#utility.yul\":10161:10179   */\n      dup3\n      add\n        /* \"#utility.yul\":10154:10199   */\n      mstore\n        /* \"#utility.yul\":10108:10110   */\n      0x40\n        /* \"#utility.yul\":10093:10111   */\n      add\n      swap1\n        /* \"#utility.yul\":10075:10205   */\n      jump\t// out\n        /* \"#utility.yul\":10210:10394   */\n    tag_85:\n        /* \"#utility.yul\":10382:10386   */\n      0xff\n        /* \"#utility.yul\":10370:10387   */\n      swap2\n      swap1\n      swap2\n      and\n        /* \"#utility.yul\":10352:10388   */\n      dup2\n      mstore\n        /* \"#utility.yul\":10340:10342   */\n      0x20\n        /* \"#utility.yul\":10325:10343   */\n      add\n      swap1\n        /* \"#utility.yul\":10307:10394   */\n      jump\t// out\n        /* \"#utility.yul\":10399:10527   */\n    tag_151:\n      0x00\n        /* \"#utility.yul\":10470:10471   */\n      dup3\n        /* \"#utility.yul\":10466:10472   */\n      not\n        /* \"#utility.yul\":10463:10464   */\n      dup3\n        /* \"#utility.yul\":10460:10473   */\n      gt\n        /* \"#utility.yul\":10457:10459   */\n      iszero\n      tag_449\n      jumpi\n        /* \"#utility.yul\":10476:10494   */\n      tag_449\n      tag_450\n      jump\t// in\n    tag_449:\n      pop\n        /* \"#utility.yul\":10512:10521   */\n      add\n      swap1\n        /* \"#utility.yul\":10447:10527   */\n      jump\t// out\n        /* \"#utility.yul\":10532:10749   */\n    tag_155:\n      0x00\n        /* \"#utility.yul\":10598:10599   */\n      dup3\n        /* \"#utility.yul\":10588:10590   */\n      tag_452\n      jumpi\n      shl(0xe0, 0x4e487b71)\n        /* \"#utility.yul\":10623:10654   */\n      dup2\n      mstore\n        /* \"#utility.yul\":10677:10681   */\n      0x12\n        /* \"#utility.yul\":10674:10675   */\n      0x04\n        /* \"#utility.yul\":10667:10682   */\n      mstore\n        /* \"#utility.yul\":10705:10709   */\n      0x24\n        /* \"#utility.yul\":10630:10631   */\n      dup2\n        /* \"#utility.yul\":10695:10710   */\n      revert\n        /* \"#utility.yul\":10588:10590   */\n    tag_452:\n      pop\n        /* \"#utility.yul\":10734:10743   */\n      div\n      swap1\n        /* \"#utility.yul\":10578:10749   */\n      jump\t// out\n        /* \"#utility.yul\":10754:10922   */\n    tag_153:\n      0x00\n        /* \"#utility.yul\":10860:10861   */\n      dup2\n        /* \"#utility.yul\":10856:10857   */\n      0x00\n        /* \"#utility.yul\":10852:10858   */\n      not\n        /* \"#utility.yul\":10848:10862   */\n      div\n        /* \"#utility.yul\":10845:10846   */\n      dup4\n        /* \"#utility.yul\":10842:10863   */\n      gt\n        /* \"#utility.yul\":10837:10838   */\n      dup3\n        /* \"#utility.yul\":10830:10839   */\n      iszero\n        /* \"#utility.yul\":10823:10840   */\n      iszero\n        /* \"#utility.yul\":10819:10864   */\n      and\n        /* \"#utility.yul\":10816:10818   */\n      iszero\n      tag_455\n      jumpi\n        /* \"#utility.yul\":10867:10885   */\n      tag_455\n      tag_450\n      jump\t// in\n    tag_455:\n      pop\n        /* \"#utility.yul\":10907:10916   */\n      mul\n      swap1\n        /* \"#utility.yul\":10806:10922   */\n      jump\t// out\n        /* \"#utility.yul\":10927:11052   */\n    tag_276:\n      0x00\n        /* \"#utility.yul\":10995:10996   */\n      dup3\n        /* \"#utility.yul\":10992:10993   */\n      dup3\n        /* \"#utility.yul\":10989:10997   */\n      lt\n        /* \"#utility.yul\":10986:10988   */\n      iszero\n      tag_458\n      jumpi\n        /* \"#utility.yul\":11000:11018   */\n      tag_458\n      tag_450\n      jump\t// in\n    tag_458:\n      pop\n        /* \"#utility.yul\":11037:11046   */\n      sub\n      swap1\n        /* \"#utility.yul\":10976:11052   */\n      jump\t// out\n        /* \"#utility.yul\":11057:11184   */\n    tag_450:\n        /* \"#utility.yul\":11118:11128   */\n      0x4e487b71\n        /* \"#utility.yul\":11113:11116   */\n      0xe0\n        /* \"#utility.yul\":11109:11129   */\n      shl\n        /* \"#utility.yul\":11106:11107   */\n      0x00\n        /* \"#utility.yul\":11099:11130   */\n      mstore\n        /* \"#utility.yul\":11149:11153   */\n      0x11\n        /* \"#utility.yul\":11146:11147   */\n      0x04\n        /* \"#utility.yul\":11139:11154   */\n      mstore\n        /* \"#utility.yul\":11173:11177   */\n      0x24\n        /* \"#utility.yul\":11170:11171   */\n      0x00\n        /* \"#utility.yul\":11163:11178   */\n      revert\n        /* \"#utility.yul\":11189:11322   */\n    tag_378:\n      sub(shl(0xa0, 0x01), 0x01)\n        /* \"#utility.yul\":11266:11297   */\n      dup2\n      and\n        /* \"#utility.yul\":11256:11298   */\n      dup2\n      eq\n        /* \"#utility.yul\":11246:11248   */\n      tag_253\n      jumpi\n        /* \"#utility.yul\":11312:11313   */\n      0x00\n        /* \"#utility.yul\":11309:11310   */\n      dup1\n        /* \"#utility.yul\":11302:11314   */\n      revert\n\n    auxdata: 0xa2646970667358221220c8cec9be44cec4b22c6ae634ee8d9bd3c325983dd5a228df054835b7161b0c9064736f6c63430008010033\n}\n",
				"bytecode": {
					"linkReferences": {},
					"object": "608060405234801561001057600080fd5b50600160005561002661002161002b565b61002f565b610081565b3390565b600180546001600160a01b038381166001600160a01b0319831681179093556040519116919082907f8be0079c531659141344cd1fd0a4f28419497f9722a3daafe3b4186f6b6457e090600090a35050565b611b7e806100906000396000f3fe608060405234801561001057600080fd5b50600436106101415760003560e01c80639cb52525116100b8578063c285c6071161007c578063c285c607146102b9578063e5061d89146102cc578063ed1a8b45146102df578063f2fde38b146102f2578063f5ff5c7614610305578063ff4c22541461030d57610141565b80639cb525251461024d5780639e9b5f9714610260578063aa624ffa14610280578063bc5a318a14610293578063bcf685ed146102a657610141565b806369d700751161010a57806369d70075146101d55780636cb4ea85146101f5578063715018a6146102155780637601f9fe1461021f5780638da5cb5b14610232578063943450dd1461023a57610141565b80627b5562146101465780630aa666c21461016f57806329f2ebb91461018257806339c7fcef146101955780635fbc13ef146101b5575b600080fd5b610159610154366004611741565b610320565b6040516101669190611a87565b60405180910390f35b61015961017d366004611741565b610351565b610159610190366004611741565b61036e565b6101a86101a336600461169e565b61038a565b60405161016691906119d2565b6101c86101c336600461176c565b61039f565b604051610166919061192c565b6101e86101e336600461169e565b610645565b60405161016691906118ae565b610208610203366004611741565b610660565b6040516101669190611919565b61021d61074a565b005b6101c861022d36600461176c565b61075e565b6101e86109ef565b6101e861024836600461169e565b6109fe565b6101e861025b36600461169e565b610a19565b61027361026e36600461169e565b610a34565b6040516101669190611aa1565b61027361028e36600461169e565b610a49565b6101596102a13660046116ba565b610a5e565b61021d6102b436600461169e565b610a9c565b6102086102c7366004611741565b610af5565b6101596102da366004611741565b610bd3565b6101596102ed366004611741565b610bef565b61021d61030036600461169e565b610c0c565b6101e8610c46565b61015961031b366004611741565b610c55565b600b602052816000526040600020818154811061033c57600080fd5b90600052602060002001600091509150505481565b600a60209081526000928352604080842090915290825290205481565b600e602052816000526040600020818154811061033c57600080fd5b60036020526000908152604090205460ff1681565b60405163175743b960e31b8152606090849060009081906001600160a01b0384169063baba1dc8906103d5908990600401611a87565b604080518083038186803b1580156103ec57600080fd5b505afa158015610400573d6000803e3d6000fd5b505050506040513d601f19601f8201168201806040525081019061042491906117d3565b6040516360a3e76560e01b815291935091506000906001600160a01b038516906360a3e76590610458908a90600401611a87565b604080518083038186803b15801561046f57600080fd5b505afa158015610483573d6000803e3d6000fd5b505050506040513d601f19601f820116820180604052508101906104a791906117d3565b5090508015806104b5575085155b156104f75760408051600080825260208201909252906104eb565b6104d8611568565b8152602001906001900390816104d05790505b5094505050505061063e565b600080856001600160a01b03166340d87ebe6040518163ffffffff1660e01b815260040160806040518083038186803b15801561053357600080fd5b505afa158015610547573d6000803e3d6000fd5b505050506040513d601f19601f8201168201806040525081019061056b91906117f6565b50509150915060008083116105815760006105a7565b61058b8984611aaf565b61059d83670de0b6b3a7640000611ae7565b6105a79190611ac7565b9050858111806105b657508481105b156105fb5760408051600080825260208201909252906105ec565b6105d9611568565b8152602001906001900390816105d15790505b5097505050505050505061063e565b50505050505060008060008060008060006106178c8c8c610c71565b96509650965096509650965096506106338c8c83888888610d2d565b985050505050505050505b9392505050565b6004602052600090815260409020546001600160a01b031681565b6040516391776ee760e01b815260609083906000906001600160a01b038316906391776ee790610694908790600401611a87565b60c06040518083038186803b1580156106ac57600080fd5b505afa1580156106c0573d6000803e3d6000fd5b505050506040513d601f19601f820116820180604052508101906106e491906117a0565b905080604001516000141561072e576040805160008082526020820190925290610724565b6107116115c5565b8152602001906001900390816107095790505b5092505050610744565b61073f858583604001516001610ded565b925050505b92915050565b610752610f2b565b61075c6000610f6a565b565b6040516304039aef60e11b8152606090849060009081906001600160a01b0384169063080735de90610794908990600401611a87565b604080518083038186803b1580156107ab57600080fd5b505afa1580156107bf573d6000803e3d6000fd5b505050506040513d601f19601f820116820180604052508101906107e391906117d3565b60405162ed8f3160e21b815291935091506000906001600160a01b038516906303b63cc490610816908a90600401611a87565b604080518083038186803b15801561082d57600080fd5b505afa158015610841573d6000803e3d6000fd5b505050506040513d601f19601f8201168201806040525081019061086591906117d3565b509050801580610873575085155b156108b45760408051600080825260208201909252906104eb565b610896611568565b81526020019060019003908161088e5790505094505050505061063e565b600080856001600160a01b03166340d87ebe6040518163ffffffff1660e01b815260040160806040518083038186803b1580156108f057600080fd5b505afa158015610904573d6000803e3d6000fd5b505050506040513d601f19601f8201168201806040525081019061092891906117f6565b505091509150600080821161093e576000610964565b6109488983611aaf565b61095a84670de0b6b3a7640000611ae7565b6109649190611ac7565b90508581118061097357508481105b156109b75760408051600080825260208201909252906105ec565b610996611568565b81526020019060019003908161098e5790505097505050505050505061063e565b50505050505060008060008060008060006109d38c8c8c610fbc565b96509650965096509650965096506106338c8c83888888611001565b6001546001600160a01b031690565b6005602052600090815260409020546001600160a01b031681565b6006602052600090815260409020546001600160a01b031681565b60086020526000908152604090205460ff1681565b60076020526000908152604090205460ff1681565b600f6020528260005260406000206020528160005260406000208181548110610a8657600080fd5b9060005260206000200160009250925050505481565b610aa4610f2b565b6001600160a01b038116610ad35760405162461bcd60e51b8152600401610aca90611a58565b60405180910390fd5b600280546001600160a01b0319166001600160a01b0392909216919091179055565b6040516331e520db60e21b815260609083906000906001600160a01b0383169063c794836c90610b29908790600401611a87565b60c06040518083038186803b158015610b4157600080fd5b505afa158015610b55573d6000803e3d6000fd5b505050506040513d601f19601f82011682018060405250810190610b7991906117a0565b9050806040015160001415610bc2576040805160008082526020820190925290610724565b610ba66115c5565b815260200190600190039081610b9e5790505092505050610744565b61073f858583604001516000610ded565b600c602052816000526040600020818154811061033c57600080fd5b600960209081526000928352604080842090915290825290205481565b610c14610f2b565b6001600160a01b038116610c3a5760405162461bcd60e51b8152600401610aca906119dd565b610c4381610f6a565b50565b6002546001600160a01b031681565b600d602052816000526040600020818154811061033c57600080fd5b600080808080808089610c848183611075565b604051634abfd7bf60e11b815291995097506001600160a01b0382169063957faf7e90610cb5908d90600401611a87565b60606040518083038186803b158015610ccd57600080fd5b505afa158015610ce1573d6000803e3d6000fd5b505050506040513d601f19601f82011682018060405250810190610d0591906116fa565b91975095509350610d188b898b88611107565b989c979b509599509397509195939492505050565b606084610d6d576040805160008082526020820190925290610d65565b610d52611568565b815260200190600190039081610d4a5790505b509050610de3565b6001600160a01b038716600090815260096020908152604080832089845290915281205490610da1888888888886886113de565b6001600160a01b038a1660009081526009602090815260408083208c8452909152812080549293508992909190610dd9908490611b06565b9091555090925050505b9695505050505050565b6040805160018082528183019092526060918691600091816020015b610e116115c5565b815260200190600190039081610e09579050509050604051806060016040528085610e3d576001610e40565b60005b60ff16815260200160006001600160a01b031681526020018681525081600081518110610e7d57634e487b7160e01b600052603260045260246000fd5b60209081029190910101526040516388413c1760e01b81526001600160a01b038316906388413c1790610eb690309085906004016118ed565b600060405180830381600087803b158015610ed057600080fd5b505af1158015610ee4573d6000803e3d6000fd5b505050506001600160a01b0387166000908152600a6020908152604080832089845290915281208054879290610f1b908490611b06565b9091555090979650505050505050565b610f33611564565b6001600160a01b0316610f446109ef565b6001600160a01b03161461075c5760405162461bcd60e51b8152600401610aca90611a23565b600180546001600160a01b038381166001600160a01b0319831681179093556040519116919082907f8be0079c531659141344cd1fd0a4f28419497f9722a3daafe3b4186f6b6457e090600090a35050565b600080808080808089610fd0816001611075565b604051634b66cd4b60e01b815291995097506001600160a01b03821690634b66cd4b90610cb5908d90600401611a87565b606084611040576040805160008082526020820190925290610d65565b611026611568565b81526020019060019003908161101e579050509050610de3565b6001600160a01b038716600090815260096020908152604080832089845290915281205490610da188888888886001886113de565b6000808261109d576001600160a01b03808516600090815260056020526040902054166110b9565b6001600160a01b03808516600090815260066020526040902054165b9150826110e1576001600160a01b03841660009081526007602052604090205460ff166110fe565b6001600160a01b03841660009081526008602052604090205460ff165b90509250929050565b60008085816001600160a01b0387161561119157866001600160a01b031663313ce5676040518163ffffffff1660e01b815260040160206040518083038186803b15801561115457600080fd5b505afa158015611168573d6000803e3d6000fd5b505050506040513d601f19601f8201168201806040525081019061118c919061182b565b611194565b60125b905060006001600160a01b03881615611228576040516370a0823160e01b81526001600160a01b038916906370a08231906111d39030906004016118ae565b60206040518083038186803b1580156111eb57600080fd5b505afa1580156111ff573d6000803e3d6000fd5b505050506040513d601f19601f8201168201806040525081019061122391906117bb565b61122a565b475b60405163f9b44c8560e01b81529091506001600160a01b0384169063f9b44c859061125f9030908c908c908c906004016118c2565b600060405180830381600087803b15801561127957600080fd5b505af115801561128d573d6000803e3d6000fd5b506000925050506001600160a01b03891615611324576040516370a0823160e01b81526001600160a01b038a16906370a08231906112cf9030906004016118ae565b60206040518083038186803b1580156112e757600080fd5b505afa1580156112fb573d6000803e3d6000fd5b505050506040513d601f19601f8201168201806040525081019061131f91906117bb565b611326565b475b9050818111611336576000611340565b6113408282611b06565b9550600086116113515760006113cf565b6040516341ef492b60e01b81526001600160a01b038516906341ef492b9061137f9089908790600401611a90565b60206040518083038186803b15801561139757600080fd5b505afa1580156113ab573d6000803e3d6000fd5b505050506040513d601f19601f820116820180604052508101906113cf91906117bb565b94505050505094509492505050565b604080516002808252606082810190935260009190816020015b611400611568565b8152602001906001900390816113f85790505090506040518061010001604052808561142d576002611430565b60015b60ff168152602001600260ff1681526020018a815260200189815260200160006001600160a01b0316815260200160006001600160a01b031681526020016000815260200160008152508160008151811061149b57634e487b7160e01b600052603260045260246000fd5b6020026020010181905250604051806101000160405280856114be5760026114c1565b60015b60ff168152602001600060ff1681526020018a81526020018660ff1660011480156114ec5750848a10155b6114f75760026114fa565b60035b60ff168152602001886001600160a01b03168152602001876001600160a01b031681526020016000815260200160008152508160018151811061154d57634e487b7160e01b600052603260045260246000fd5b602090810291909101015298975050505050505050565b3390565b604051806101000160405280600060ff168152602001600060ff168152602001600081526020016000815260200160006001600160a01b0316815260200160006001600160a01b0316815260200160008152602001600081525090565b604080516060810182526000808252602082018190529181019190915290565b80516115f081611b33565b919050565b600060c08284031215611606578081fd5b60405160c0810181811067ffffffffffffffff8211171561163557634e487b7160e01b83526041600452602483fd5b604052905080611644836115e5565b8152611652602084016115e5565b602082015260408301516040820152606083015160608201526080830151608082015261168160a0840161168d565b60a08201525092915050565b805160ff811681146115f057600080fd5b6000602082840312156116af578081fd5b813561063e81611b33565b6000806000606084860312156116ce578182fd5b83356116d981611b33565b925060208401356116e981611b33565b929592945050506040919091013590565b60008060006060848603121561170e578283fd5b835161171981611b33565b602085015190935061172a81611b33565b91506117386040850161168d565b90509250925092565b60008060408385031215611753578182fd5b823561175e81611b33565b946020939093013593505050565b600080600060608486031215611780578283fd5b833561178b81611b33565b95602085013595506040909401359392505050565b600060c082840312156117b1578081fd5b61063e83836115f5565b6000602082840312156117cc578081fd5b5051919050565b600080604083850312156117e5578182fd5b505080516020909101519092909150565b6000806000806080858703121561180b578081fd5b505082516020840151604085015160609095015191969095509092509050565b60006020828403121561183c578081fd5b61063e8261168d565b6001600160a01b03169052565b6000815180845260208085019450808401835b838110156118a3578151805160ff168852838101516001600160a01b0316848901526040908101519088015260609096019590820190600101611865565b509495945050505050565b6001600160a01b0391909116815260200190565b6001600160a01b03948516815292841660208401526040830191909152909116606082015260800190565b6001600160a01b038316815260406020820181905260009061191190830184611852565b949350505050565b60006020825261063e6020830184611852565b602080825282518282018190526000919060409081850190868401855b828110156119c5578151805160ff90811686528782015116878601528581015186860152606080820151908601526080808201516001600160a01b03169086015260a08082015161199c82880182611845565b505060c0818101519086015260e090810151908501526101009093019290850190600101611949565b5091979650505050505050565b901515815260200190565b60208082526026908201527f4f776e61626c653a206e6577206f776e657220697320746865207a65726f206160408201526564647265737360d01b606082015260800190565b6020808252818101527f4f776e61626c653a2063616c6c6572206973206e6f7420746865206f776e6572604082015260600190565b602080825260159082015274496e76616c6964206167656e74206164647265737360581b604082015260600190565b90815260200190565b91825260ff16602082015260400190565b60ff91909116815260200190565b60008219821115611ac257611ac2611b1d565b500190565b600082611ae257634e487b7160e01b81526012600452602481fd5b500490565b6000816000190483118215151615611b0157611b01611b1d565b500290565b600082821015611b1857611b18611b1d565b500390565b634e487b7160e01b600052601160045260246000fd5b6001600160a01b0381168114610c4357600080fdfea2646970667358221220c8cec9be44cec4b22c6ae634ee8d9bd3c325983dd5a228df054835b7161b0c9064736f6c63430008010033",
					"opcodes": "PUSH1 0x80 PUSH1 0x40 MSTORE CALLVALUE DUP1 ISZERO PUSH2 0x10 JUMPI PUSH1 0x0 DUP1 REVERT JUMPDEST POP PUSH1 0x1 PUSH1 0x0 SSTORE PUSH2 0x26 PUSH2 0x21 PUSH2 0x2B JUMP JUMPDEST PUSH2 0x2F JUMP JUMPDEST PUSH2 0x81 JUMP JUMPDEST CALLER SWAP1 JUMP JUMPDEST PUSH1 0x1 DUP1 SLOAD PUSH1 0x1 PUSH1 0x1 PUSH1 0xA0 SHL SUB DUP4 DUP2 AND PUSH1 0x1 PUSH1 0x1 PUSH1 0xA0 SHL SUB NOT DUP4 AND DUP2 OR SWAP1 SWAP4 SSTORE PUSH1 0x40 MLOAD SWAP2 AND SWAP2 SWAP1 DUP3 SWAP1 PUSH32 0x8BE0079C531659141344CD1FD0A4F28419497F9722A3DAAFE3B4186F6B6457E0 SWAP1 PUSH1 0x0 SWAP1 LOG3 POP POP JUMP JUMPDEST PUSH2 0x1B7E DUP1 PUSH2 0x90 PUSH1 0x0 CODECOPY PUSH1 0x0 RETURN INVALID PUSH1 0x80 PUSH1 0x40 MSTORE CALLVALUE DUP1 ISZERO PUSH2 0x10 JUMPI PUSH1 0x0 DUP1 REVERT JUMPDEST POP PUSH1 0x4 CALLDATASIZE LT PUSH2 0x141 JUMPI PUSH1 0x0 CALLDATALOAD PUSH1 0xE0 SHR DUP1 PUSH4 0x9CB52525 GT PUSH2 0xB8 JUMPI DUP1 PUSH4 0xC285C607 GT PUSH2 0x7C JUMPI DUP1 PUSH4 0xC285C607 EQ PUSH2 0x2B9 JUMPI DUP1 PUSH4 0xE5061D89 EQ PUSH2 0x2CC JUMPI DUP1 PUSH4 0xED1A8B45 EQ PUSH2 0x2DF JUMPI DUP1 PUSH4 0xF2FDE38B EQ PUSH2 0x2F2 JUMPI DUP1 PUSH4 0xF5FF5C76 EQ PUSH2 0x305 JUMPI DUP1 PUSH4 0xFF4C2254 EQ PUSH2 0x30D JUMPI PUSH2 0x141 JUMP JUMPDEST DUP1 PUSH4 0x9CB52525 EQ PUSH2 0x24D JUMPI DUP1 PUSH4 0x9E9B5F97 EQ PUSH2 0x260 JUMPI DUP1 PUSH4 0xAA624FFA EQ PUSH2 0x280 JUMPI DUP1 PUSH4 0xBC5A318A EQ PUSH2 0x293 JUMPI DUP1 PUSH4 0xBCF685ED EQ PUSH2 0x2A6 JUMPI PUSH2 0x141 JUMP JUMPDEST DUP1 PUSH4 0x69D70075 GT PUSH2 0x10A JUMPI DUP1 PUSH4 0x69D70075 EQ PUSH2 0x1D5 JUMPI DUP1 PUSH4 0x6CB4EA85 EQ PUSH2 0x1F5 JUMPI DUP1 PUSH4 0x715018A6 EQ PUSH2 0x215 JUMPI DUP1 PUSH4 0x7601F9FE EQ PUSH2 0x21F JUMPI DUP1 PUSH4 0x8DA5CB5B EQ PUSH2 0x232 JUMPI DUP1 PUSH4 0x943450DD EQ PUSH2 0x23A JUMPI PUSH2 0x141 JUMP JUMPDEST DUP1 PUSH3 0x7B5562 EQ PUSH2 0x146 JUMPI DUP1 PUSH4 0xAA666C2 EQ PUSH2 0x16F JUMPI DUP1 PUSH4 0x29F2EBB9 EQ PUSH2 0x182 JUMPI DUP1 PUSH4 0x39C7FCEF EQ PUSH2 0x195 JUMPI DUP1 PUSH4 0x5FBC13EF EQ PUSH2 0x1B5 JUMPI JUMPDEST PUSH1 0x0 DUP1 REVERT JUMPDEST PUSH2 0x159 PUSH2 0x154 CALLDATASIZE PUSH1 0x4 PUSH2 0x1741 JUMP JUMPDEST PUSH2 0x320 JUMP JUMPDEST PUSH1 0x40 MLOAD PUSH2 0x166 SWAP2 SWAP1 PUSH2 0x1A87 JUMP JUMPDEST PUSH1 0x40 MLOAD DUP1 SWAP2 SUB SWAP1 RETURN JUMPDEST PUSH2 0x159 PUSH2 0x17D CALLDATASIZE PUSH1 0x4 PUSH2 0x1741 JUMP JUMPDEST PUSH2 0x351 JUMP JUMPDEST PUSH2 0x159 PUSH2 0x190 CALLDATASIZE PUSH1 0x4 PUSH2 0x1741 JUMP JUMPDEST PUSH2 0x36E JUMP JUMPDEST PUSH2 0x1A8 PUSH2 0x1A3 CALLDATASIZE PUSH1 0x4 PUSH2 0x169E JUMP JUMPDEST PUSH2 0x38A JUMP JUMPDEST PUSH1 0x40 MLOAD PUSH2 0x166 SWAP2 SWAP1 PUSH2 0x19D2 JUMP JUMPDEST PUSH2 0x1C8 PUSH2 0x1C3 CALLDATASIZE PUSH1 0x4 PUSH2 0x176C JUMP JUMPDEST PUSH2 0x39F JUMP JUMPDEST PUSH1 0x40 MLOAD PUSH2 0x166 SWAP2 SWAP1 PUSH2 0x192C JUMP JUMPDEST PUSH2 0x1E8 PUSH2 0x1E3 CALLDATASIZE PUSH1 0x4 PUSH2 0x169E JUMP JUMPDEST PUSH2 0x645 JUMP JUMPDEST PUSH1 0x40 MLOAD PUSH2 0x166 SWAP2 SWAP1 PUSH2 0x18AE JUMP JUMPDEST PUSH2 0x208 PUSH2 0x203 CALLDATASIZE PUSH1 0x4 PUSH2 0x1741 JUMP JUMPDEST PUSH2 0x660 JUMP JUMPDEST PUSH1 0x40 MLOAD PUSH2 0x166 SWAP2 SWAP1 PUSH2 0x1919 JUMP JUMPDEST PUSH2 0x21D PUSH2 0x74A JUMP JUMPDEST STOP JUMPDEST PUSH2 0x1C8 PUSH2 0x22D CALLDATASIZE PUSH1 0x4 PUSH2 0x176C JUMP JUMPDEST PUSH2 0x75E JUMP JUMPDEST PUSH2 0x1E8 PUSH2 0x9EF JUMP JUMPDEST PUSH2 0x1E8 PUSH2 0x248 CALLDATASIZE PUSH1 0x4 PUSH2 0x169E JUMP JUMPDEST PUSH2 0x9FE JUMP JUMPDEST PUSH2 0x1E8 PUSH2 0x25B CALLDATASIZE PUSH1 0x4 PUSH2 0x169E JUMP JUMPDEST PUSH2 0xA19 JUMP JUMPDEST PUSH2 0x273 PUSH2 0x26E CALLDATASIZE PUSH1 0x4 PUSH2 0x169E JUMP JUMPDEST PUSH2 0xA34 JUMP JUMPDEST PUSH1 0x40 MLOAD PUSH2 0x166 SWAP2 SWAP1 PUSH2 0x1AA1 JUMP JUMPDEST PUSH2 0x273 PUSH2 0x28E CALLDATASIZE PUSH1 0x4 PUSH2 0x169E JUMP JUMPDEST PUSH2 0xA49 JUMP JUMPDEST PUSH2 0x159 PUSH2 0x2A1 CALLDATASIZE PUSH1 0x4 PUSH2 0x16BA JUMP JUMPDEST PUSH2 0xA5E JUMP JUMPDEST PUSH2 0x21D PUSH2 0x2B4 CALLDATASIZE PUSH1 0x4 PUSH2 0x169E JUMP JUMPDEST PUSH2 0xA9C JUMP JUMPDEST PUSH2 0x208 PUSH2 0x2C7 CALLDATASIZE PUSH1 0x4 PUSH2 0x1741 JUMP JUMPDEST PUSH2 0xAF5 JUMP JUMPDEST PUSH2 0x159 PUSH2 0x2DA CALLDATASIZE PUSH1 0x4 PUSH2 0x1741 JUMP JUMPDEST PUSH2 0xBD3 JUMP JUMPDEST PUSH2 0x159 PUSH2 0x2ED CALLDATASIZE PUSH1 0x4 PUSH2 0x1741 JUMP JUMPDEST PUSH2 0xBEF JUMP JUMPDEST PUSH2 0x21D PUSH2 0x300 CALLDATASIZE PUSH1 0x4 PUSH2 0x169E JUMP JUMPDEST PUSH2 0xC0C JUMP JUMPDEST PUSH2 0x1E8 PUSH2 0xC46 JUMP JUMPDEST PUSH2 0x159 PUSH2 0x31B CALLDATASIZE PUSH1 0x4 PUSH2 0x1741 JUMP JUMPDEST PUSH2 0xC55 JUMP JUMPDEST PUSH1 0xB PUSH1 0x20 MSTORE DUP2 PUSH1 0x0 MSTORE PUSH1 0x40 PUSH1 0x0 KECCAK256 DUP2 DUP2 SLOAD DUP2 LT PUSH2 0x33C JUMPI PUSH1 0x0 DUP1 REVERT JUMPDEST SWAP1 PUSH1 0x0 MSTORE PUSH1 0x20 PUSH1 0x0 KECCAK256 ADD PUSH1 0x0 SWAP2 POP SWAP2 POP POP SLOAD DUP2 JUMP JUMPDEST PUSH1 0xA PUSH1 0x20 SWAP1 DUP2 MSTORE PUSH1 0x0 SWAP3 DUP4 MSTORE PUSH1 0x40 DUP1 DUP5 KECCAK256 SWAP1 SWAP2 MSTORE SWAP1 DUP3 MSTORE SWAP1 KECCAK256 SLOAD DUP2 JUMP JUMPDEST PUSH1 0xE PUSH1 0x20 MSTORE DUP2 PUSH1 0x0 MSTORE PUSH1 0x40 PUSH1 0x0 KECCAK256 DUP2 DUP2 SLOAD DUP2 LT PUSH2 0x33C JUMPI PUSH1 0x0 DUP1 REVERT JUMPDEST PUSH1 0x3 PUSH1 0x20 MSTORE PUSH1 0x0 SWAP1 DUP2 MSTORE PUSH1 0x40 SWAP1 KECCAK256 SLOAD PUSH1 0xFF AND DUP2 JUMP JUMPDEST PUSH1 0x40 MLOAD PUSH4 0x175743B9 PUSH1 0xE3 SHL DUP2 MSTORE PUSH1 0x60 SWAP1 DUP5 SWAP1 PUSH1 0x0 SWAP1 DUP2 SWAP1 PUSH1 0x1 PUSH1 0x1 PUSH1 0xA0 SHL SUB DUP5 AND SWAP1 PUSH4 0xBABA1DC8 SWAP1 PUSH2 0x3D5 SWAP1 DUP10 SWAP1 PUSH1 0x4 ADD PUSH2 0x1A87 JUMP JUMPDEST PUSH1 0x40 DUP1 MLOAD DUP1 DUP4 SUB DUP2 DUP7 DUP1 EXTCODESIZE ISZERO DUP1 ISZERO PUSH2 0x3EC JUMPI PUSH1 0x0 DUP1 REVERT JUMPDEST POP GAS STATICCALL ISZERO DUP1 ISZERO PUSH2 0x400 JUMPI RETURNDATASIZE PUSH1 0x0 DUP1 RETURNDATACOPY RETURNDATASIZE PUSH1 0x0 REVERT JUMPDEST POP POP POP POP PUSH1 0x40 MLOAD RETURNDATASIZE PUSH1 0x1F NOT PUSH1 0x1F DUP3 ADD AND DUP3 ADD DUP1 PUSH1 0x40 MSTORE POP DUP2 ADD SWAP1 PUSH2 0x424 SWAP2 SWAP1 PUSH2 0x17D3 JUMP JUMPDEST PUSH1 0x40 MLOAD PUSH4 0x60A3E765 PUSH1 0xE0 SHL DUP2 MSTORE SWAP2 SWAP4 POP SWAP2 POP PUSH1 0x0 SWAP1 PUSH1 0x1 PUSH1 0x1 PUSH1 0xA0 SHL SUB DUP6 AND SWAP1 PUSH4 0x60A3E765 SWAP1 PUSH2 0x458 SWAP1 DUP11 SWAP1 PUSH1 0x4 ADD PUSH2 0x1A87 JUMP JUMPDEST PUSH1 0x40 DUP1 MLOAD DUP1 DUP4 SUB DUP2 DUP7 DUP1 EXTCODESIZE ISZERO DUP1 ISZERO PUSH2 0x46F JUMPI PUSH1 0x0 DUP1 REVERT JUMPDEST POP GAS STATICCALL ISZERO DUP1 ISZERO PUSH2 0x483 JUMPI RETURNDATASIZE PUSH1 0x0 DUP1 RETURNDATACOPY RETURNDATASIZE PUSH1 0x0 REVERT JUMPDEST POP POP POP POP PUSH1 0x40 MLOAD RETURNDATASIZE PUSH1 0x1F NOT PUSH1 0x1F DUP3 ADD AND DUP3 ADD DUP1 PUSH1 0x40 MSTORE POP DUP2 ADD SWAP1 PUSH2 0x4A7 SWAP2 SWAP1 PUSH2 0x17D3 JUMP JUMPDEST POP SWAP1 POP DUP1 ISZERO DUP1 PUSH2 0x4B5 JUMPI POP DUP6 ISZERO JUMPDEST ISZERO PUSH2 0x4F7 JUMPI PUSH1 0x40 DUP1 MLOAD PUSH1 0x0 DUP1 DUP3 MSTORE PUSH1 0x20 DUP3 ADD SWAP1 SWAP3 MSTORE SWAP1 PUSH2 0x4EB JUMP JUMPDEST PUSH2 0x4D8 PUSH2 0x1568 JUMP JUMPDEST DUP2 MSTORE PUSH1 0x20 ADD SWAP1 PUSH1 0x1 SWAP1 SUB SWAP1 DUP2 PUSH2 0x4D0 JUMPI SWAP1 POP JUMPDEST POP SWAP5 POP POP POP POP POP PUSH2 0x63E JUMP JUMPDEST PUSH1 0x0 DUP1 DUP6 PUSH1 0x1 PUSH1 0x1 PUSH1 0xA0 SHL SUB AND PUSH4 0x40D87EBE PUSH1 0x40 MLOAD DUP2 PUSH4 0xFFFFFFFF AND PUSH1 0xE0 SHL DUP2 MSTORE PUSH1 0x4 ADD PUSH1 0x80 PUSH1 0x40 MLOAD DUP1 DUP4 SUB DUP2 DUP7 DUP1 EXTCODESIZE ISZERO DUP1 ISZERO PUSH2 0x533 JUMPI PUSH1 0x0 DUP1 REVERT JUMPDEST POP GAS STATICCALL ISZERO DUP1 ISZERO PUSH2 0x547 JUMPI RETURNDATASIZE PUSH1 0x0 DUP1 RETURNDATACOPY RETURNDATASIZE PUSH1 0x0 REVERT JUMPDEST POP POP POP POP PUSH1 0x40 MLOAD RETURNDATASIZE PUSH1 0x1F NOT PUSH1 0x1F DUP3 ADD AND DUP3 ADD DUP1 PUSH1 0x40 MSTORE POP DUP2 ADD SWAP1 PUSH2 0x56B SWAP2 SWAP1 PUSH2 0x17F6 JUMP JUMPDEST POP POP SWAP2 POP SWAP2 POP PUSH1 0x0 DUP1 DUP4 GT PUSH2 0x581 JUMPI PUSH1 0x0 PUSH2 0x5A7 JUMP JUMPDEST PUSH2 0x58B DUP10 DUP5 PUSH2 0x1AAF JUMP JUMPDEST PUSH2 0x59D DUP4 PUSH8 0xDE0B6B3A7640000 PUSH2 0x1AE7 JUMP JUMPDEST PUSH2 0x5A7 SWAP2 SWAP1 PUSH2 0x1AC7 JUMP JUMPDEST SWAP1 POP DUP6 DUP2 GT DUP1 PUSH2 0x5B6 JUMPI POP DUP5 DUP2 LT JUMPDEST ISZERO PUSH2 0x5FB JUMPI PUSH1 0x40 DUP1 MLOAD PUSH1 0x0 DUP1 DUP3 MSTORE PUSH1 0x20 DUP3 ADD SWAP1 SWAP3 MSTORE SWAP1 PUSH2 0x5EC JUMP JUMPDEST PUSH2 0x5D9 PUSH2 0x1568 JUMP JUMPDEST DUP2 MSTORE PUSH1 0x20 ADD SWAP1 PUSH1 0x1 SWAP1 SUB SWAP1 DUP2 PUSH2 0x5D1 JUMPI SWAP1 POP JUMPDEST POP SWAP8 POP POP POP POP POP POP POP POP PUSH2 0x63E JUMP JUMPDEST POP POP POP POP POP POP PUSH1 0x0 DUP1 PUSH1 0x0 DUP1 PUSH1 0x0 DUP1 PUSH1 0x0 PUSH2 0x617 DUP13 DUP13 DUP13 PUSH2 0xC71 JUMP JUMPDEST SWAP7 POP SWAP7 POP SWAP7 POP SWAP7 POP SWAP7 POP SWAP7 POP SWAP7 POP PUSH2 0x633 DUP13 DUP13 DUP4 DUP9 DUP9 DUP9 PUSH2 0xD2D JUMP JUMPDEST SWAP9 POP POP POP POP POP POP POP POP POP JUMPDEST SWAP4 SWAP3 POP POP POP JUMP JUMPDEST PUSH1 0x4 PUSH1 0x20 MSTORE PUSH1 0x0 SWAP1 DUP2 MSTORE PUSH1 0x40 SWAP1 KECCAK256 SLOAD PUSH1 0x1 PUSH1 0x1 PUSH1 0xA0 SHL SUB AND DUP2 JUMP JUMPDEST PUSH1 0x40 MLOAD PUSH4 0x91776EE7 PUSH1 0xE0 SHL DUP2 MSTORE PUSH1 0x60 SWAP1 DUP4 SWAP1 PUSH1 0x0 SWAP1 PUSH1 0x1 PUSH1 0x1 PUSH1 0xA0 SHL SUB DUP4 AND SWAP1 PUSH4 0x91776EE7 SWAP1 PUSH2 0x694 SWAP1 DUP8 SWAP1 PUSH1 0x4 ADD PUSH2 0x1A87 JUMP JUMPDEST PUSH1 0xC0 PUSH1 0x40 MLOAD DUP1 DUP4 SUB DUP2 DUP7 DUP1 EXTCODESIZE ISZERO DUP1 ISZERO PUSH2 0x6AC JUMPI PUSH1 0x0 DUP1 REVERT JUMPDEST POP GAS STATICCALL ISZERO DUP1 ISZERO PUSH2 0x6C0 JUMPI RETURNDATASIZE PUSH1 0x0 DUP1 RETURNDATACOPY RETURNDATASIZE PUSH1 0x0 REVERT JUMPDEST POP POP POP POP PUSH1 0x40 MLOAD RETURNDATASIZE PUSH1 0x1F NOT PUSH1 0x1F DUP3 ADD AND DUP3 ADD DUP1 PUSH1 0x40 MSTORE POP DUP2 ADD SWAP1 PUSH2 0x6E4 SWAP2 SWAP1 PUSH2 0x17A0 JUMP JUMPDEST SWAP1 POP DUP1 PUSH1 0x40 ADD MLOAD PUSH1 0x0 EQ ISZERO PUSH2 0x72E JUMPI PUSH1 0x40 DUP1 MLOAD PUSH1 0x0 DUP1 DUP3 MSTORE PUSH1 0x20 DUP3 ADD SWAP1 SWAP3 MSTORE SWAP1 PUSH2 0x724 JUMP JUMPDEST PUSH2 0x711 PUSH2 0x15C5 JUMP JUMPDEST DUP2 MSTORE PUSH1 0x20 ADD SWAP1 PUSH1 0x1 SWAP1 SUB SWAP1 DUP2 PUSH2 0x709 JUMPI SWAP1 POP JUMPDEST POP SWAP3 POP POP POP PUSH2 0x744 JUMP JUMPDEST PUSH2 0x73F DUP6 DUP6 DUP4 PUSH1 0x40 ADD MLOAD PUSH1 0x1 PUSH2 0xDED JUMP JUMPDEST SWAP3 POP POP POP JUMPDEST SWAP3 SWAP2 POP POP JUMP JUMPDEST PUSH2 0x752 PUSH2 0xF2B JUMP JUMPDEST PUSH2 0x75C PUSH1 0x0 PUSH2 0xF6A JUMP JUMPDEST JUMP JUMPDEST PUSH1 0x40 MLOAD PUSH4 0x4039AEF PUSH1 0xE1 SHL DUP2 MSTORE PUSH1 0x60 SWAP1 DUP5 SWAP1 PUSH1 0x0 SWAP1 DUP2 SWAP1 PUSH1 0x1 PUSH1 0x1 PUSH1 0xA0 SHL SUB DUP5 AND SWAP1 PUSH4 0x80735DE SWAP1 PUSH2 0x794 SWAP1 DUP10 SWAP1 PUSH1 0x4 ADD PUSH2 0x1A87 JUMP JUMPDEST PUSH1 0x40 DUP1 MLOAD DUP1 DUP4 SUB DUP2 DUP7 DUP1 EXTCODESIZE ISZERO DUP1 ISZERO PUSH2 0x7AB JUMPI PUSH1 0x0 DUP1 REVERT JUMPDEST POP GAS STATICCALL ISZERO DUP1 ISZERO PUSH2 0x7BF JUMPI RETURNDATASIZE PUSH1 0x0 DUP1 RETURNDATACOPY RETURNDATASIZE PUSH1 0x0 REVERT JUMPDEST POP POP POP POP PUSH1 0x40 MLOAD RETURNDATASIZE PUSH1 0x1F NOT PUSH1 0x1F DUP3 ADD AND DUP3 ADD DUP1 PUSH1 0x40 MSTORE POP DUP2 ADD SWAP1 PUSH2 0x7E3 SWAP2 SWAP1 PUSH2 0x17D3 JUMP JUMPDEST PUSH1 0x40 MLOAD PUSH3 0xED8F31 PUSH1 0xE2 SHL DUP2 MSTORE SWAP2 SWAP4 POP SWAP2 POP PUSH1 0x0 SWAP1 PUSH1 0x1 PUSH1 0x1 PUSH1 0xA0 SHL SUB DUP6 AND SWAP1 PUSH4 0x3B63CC4 SWAP1 PUSH2 0x816 SWAP1 DUP11 SWAP1 PUSH1 0x4 ADD PUSH2 0x1A87 JUMP JUMPDEST PUSH1 0x40 DUP1 MLOAD DUP1 DUP4 SUB DUP2 DUP7 DUP1 EXTCODESIZE ISZERO DUP1 ISZERO PUSH2 0x82D JUMPI PUSH1 0x0 DUP1 REVERT JUMPDEST POP GAS STATICCALL ISZERO DUP1 ISZERO PUSH2 0x841 JUMPI RETURNDATASIZE PUSH1 0x0 DUP1 RETURNDATACOPY RETURNDATASIZE PUSH1 0x0 REVERT JUMPDEST POP POP POP POP PUSH1 0x40 MLOAD RETURNDATASIZE PUSH1 0x1F NOT PUSH1 0x1F DUP3 ADD AND DUP3 ADD DUP1 PUSH1 0x40 MSTORE POP DUP2 ADD SWAP1 PUSH2 0x865 SWAP2 SWAP1 PUSH2 0x17D3 JUMP JUMPDEST POP SWAP1 POP DUP1 ISZERO DUP1 PUSH2 0x873 JUMPI POP DUP6 ISZERO JUMPDEST ISZERO PUSH2 0x8B4 JUMPI PUSH1 0x40 DUP1 MLOAD PUSH1 0x0 DUP1 DUP3 MSTORE PUSH1 0x20 DUP3 ADD SWAP1 SWAP3 MSTORE SWAP1 PUSH2 0x4EB JUMP JUMPDEST PUSH2 0x896 PUSH2 0x1568 JUMP JUMPDEST DUP2 MSTORE PUSH1 0x20 ADD SWAP1 PUSH1 0x1 SWAP1 SUB SWAP1 DUP2 PUSH2 0x88E JUMPI SWAP1 POP POP SWAP5 POP POP POP POP POP PUSH2 0x63E JUMP JUMPDEST PUSH1 0x0 DUP1 DUP6 PUSH1 0x1 PUSH1 0x1 PUSH1 0xA0 SHL SUB AND PUSH4 0x40D87EBE PUSH1 0x40 MLOAD DUP2 PUSH4 0xFFFFFFFF AND PUSH1 0xE0 SHL DUP2 MSTORE PUSH1 0x4 ADD PUSH1 0x80 PUSH1 0x40 MLOAD DUP1 DUP4 SUB DUP2 DUP7 DUP1 EXTCODESIZE ISZERO DUP1 ISZERO PUSH2 0x8F0 JUMPI PUSH1 0x0 DUP1 REVERT JUMPDEST POP GAS STATICCALL ISZERO DUP1 ISZERO PUSH2 0x904 JUMPI RETURNDATASIZE PUSH1 0x0 DUP1 RETURNDATACOPY RETURNDATASIZE PUSH1 0x0 REVERT JUMPDEST POP POP POP POP PUSH1 0x40 MLOAD RETURNDATASIZE PUSH1 0x1F NOT PUSH1 0x1F DUP3 ADD AND DUP3 ADD DUP1 PUSH1 0x40 MSTORE POP DUP2 ADD SWAP1 PUSH2 0x928 SWAP2 SWAP1 PUSH2 0x17F6 JUMP JUMPDEST POP POP SWAP2 POP SWAP2 POP PUSH1 0x0 DUP1 DUP3 GT PUSH2 0x93E JUMPI PUSH1 0x0 PUSH2 0x964 JUMP JUMPDEST PUSH2 0x948 DUP10 DUP4 PUSH2 0x1AAF JUMP JUMPDEST PUSH2 0x95A DUP5 PUSH8 0xDE0B6B3A7640000 PUSH2 0x1AE7 JUMP JUMPDEST PUSH2 0x964 SWAP2 SWAP1 PUSH2 0x1AC7 JUMP JUMPDEST SWAP1 POP DUP6 DUP2 GT DUP1 PUSH2 0x973 JUMPI POP DUP5 DUP2 LT JUMPDEST ISZERO PUSH2 0x9B7 JUMPI PUSH1 0x40 DUP1 MLOAD PUSH1 0x0 DUP1 DUP3 MSTORE PUSH1 0x20 DUP3 ADD SWAP1 SWAP3 MSTORE SWAP1 PUSH2 0x5EC JUMP JUMPDEST PUSH2 0x996 PUSH2 0x1568 JUMP JUMPDEST DUP2 MSTORE PUSH1 0x20 ADD SWAP1 PUSH1 0x1 SWAP1 SUB SWAP1 DUP2 PUSH2 0x98E JUMPI SWAP1 POP POP SWAP8 POP POP POP POP POP POP POP POP PUSH2 0x63E JUMP JUMPDEST POP POP POP POP POP POP PUSH1 0x0 DUP1 PUSH1 0x0 DUP1 PUSH1 0x0 DUP1 PUSH1 0x0 PUSH2 0x9D3 DUP13 DUP13 DUP13 PUSH2 0xFBC JUMP JUMPDEST SWAP7 POP SWAP7 POP SWAP7 POP SWAP7 POP SWAP7 POP SWAP7 POP SWAP7 POP PUSH2 0x633 DUP13 DUP13 DUP4 DUP9 DUP9 DUP9 PUSH2 0x1001 JUMP JUMPDEST PUSH1 0x1 SLOAD PUSH1 0x1 PUSH1 0x1 PUSH1 0xA0 SHL SUB AND SWAP1 JUMP JUMPDEST PUSH1 0x5 PUSH1 0x20 MSTORE PUSH1 0x0 SWAP1 DUP2 MSTORE PUSH1 0x40 SWAP1 KECCAK256 SLOAD PUSH1 0x1 PUSH1 0x1 PUSH1 0xA0 SHL SUB AND DUP2 JUMP JUMPDEST PUSH1 0x6 PUSH1 0x20 MSTORE PUSH1 0x0 SWAP1 DUP2 MSTORE PUSH1 0x40 SWAP1 KECCAK256 SLOAD PUSH1 0x1 PUSH1 0x1 PUSH1 0xA0 SHL SUB AND DUP2 JUMP JUMPDEST PUSH1 0x8 PUSH1 0x20 MSTORE PUSH1 0x0 SWAP1 DUP2 MSTORE PUSH1 0x40 SWAP1 KECCAK256 SLOAD PUSH1 0xFF AND DUP2 JUMP JUMPDEST PUSH1 0x7 PUSH1 0x20 MSTORE PUSH1 0x0 SWAP1 DUP2 MSTORE PUSH1 0x40 SWAP1 KECCAK256 SLOAD PUSH1 0xFF AND DUP2 JUMP JUMPDEST PUSH1 0xF PUSH1 0x20 MSTORE DUP3 PUSH1 0x0 MSTORE PUSH1 0x40 PUSH1 0x0 KECCAK256 PUSH1 0x20 MSTORE DUP2 PUSH1 0x0 MSTORE PUSH1 0x40 PUSH1 0x0 KECCAK256 DUP2 DUP2 SLOAD DUP2 LT PUSH2 0xA86 JUMPI PUSH1 0x0 DUP1 REVERT JUMPDEST SWAP1 PUSH1 0x0 MSTORE PUSH1 0x20 PUSH1 0x0 KECCAK256 ADD PUSH1 0x0 SWAP3 POP SWAP3 POP POP POP SLOAD DUP2 JUMP JUMPDEST PUSH2 0xAA4 PUSH2 0xF2B JUMP JUMPDEST PUSH1 0x1 PUSH1 0x1 PUSH1 0xA0 SHL SUB DUP2 AND PUSH2 0xAD3 JUMPI PUSH1 0x40 MLOAD PUSH3 0x461BCD PUSH1 0xE5 SHL DUP2 MSTORE PUSH1 0x4 ADD PUSH2 0xACA SWAP1 PUSH2 0x1A58 JUMP JUMPDEST PUSH1 0x40 MLOAD DUP1 SWAP2 SUB SWAP1 REVERT JUMPDEST PUSH1 0x2 DUP1 SLOAD PUSH1 0x1 PUSH1 0x1 PUSH1 0xA0 SHL SUB NOT AND PUSH1 0x1 PUSH1 0x1 PUSH1 0xA0 SHL SUB SWAP3 SWAP1 SWAP3 AND SWAP2 SWAP1 SWAP2 OR SWAP1 SSTORE JUMP JUMPDEST PUSH1 0x40 MLOAD PUSH4 0x31E520DB PUSH1 0xE2 SHL DUP2 MSTORE PUSH1 0x60 SWAP1 DUP4 SWAP1 PUSH1 0x0 SWAP1 PUSH1 0x1 PUSH1 0x1 PUSH1 0xA0 SHL SUB DUP4 AND SWAP1 PUSH4 0xC794836C SWAP1 PUSH2 0xB29 SWAP1 DUP8 SWAP1 PUSH1 0x4 ADD PUSH2 0x1A87 JUMP JUMPDEST PUSH1 0xC0 PUSH1 0x40 MLOAD DUP1 DUP4 SUB DUP2 DUP7 DUP1 EXTCODESIZE ISZERO DUP1 ISZERO PUSH2 0xB41 JUMPI PUSH1 0x0 DUP1 REVERT JUMPDEST POP GAS STATICCALL ISZERO DUP1 ISZERO PUSH2 0xB55 JUMPI RETURNDATASIZE PUSH1 0x0 DUP1 RETURNDATACOPY RETURNDATASIZE PUSH1 0x0 REVERT JUMPDEST POP POP POP POP PUSH1 0x40 MLOAD RETURNDATASIZE PUSH1 0x1F NOT PUSH1 0x1F DUP3 ADD AND DUP3 ADD DUP1 PUSH1 0x40 MSTORE POP DUP2 ADD SWAP1 PUSH2 0xB79 SWAP2 SWAP1 PUSH2 0x17A0 JUMP JUMPDEST SWAP1 POP DUP1 PUSH1 0x40 ADD MLOAD PUSH1 0x0 EQ ISZERO PUSH2 0xBC2 JUMPI PUSH1 0x40 DUP1 MLOAD PUSH1 0x0 DUP1 DUP3 MSTORE PUSH1 0x20 DUP3 ADD SWAP1 SWAP3 MSTORE SWAP1 PUSH2 0x724 JUMP JUMPDEST PUSH2 0xBA6 PUSH2 0x15C5 JUMP JUMPDEST DUP2 MSTORE PUSH1 0x20 ADD SWAP1 PUSH1 0x1 SWAP1 SUB SWAP1 DUP2 PUSH2 0xB9E JUMPI SWAP1 POP POP SWAP3 POP POP POP PUSH2 0x744 JUMP JUMPDEST PUSH2 0x73F DUP6 DUP6 DUP4 PUSH1 0x40 ADD MLOAD PUSH1 0x0 PUSH2 0xDED JUMP JUMPDEST PUSH1 0xC PUSH1 0x20 MSTORE DUP2 PUSH1 0x0 MSTORE PUSH1 0x40 PUSH1 0x0 KECCAK256 DUP2 DUP2 SLOAD DUP2 LT PUSH2 0x33C JUMPI PUSH1 0x0 DUP1 REVERT JUMPDEST PUSH1 0x9 PUSH1 0x20 SWAP1 DUP2 MSTORE PUSH1 0x0 SWAP3 DUP4 MSTORE PUSH1 0x40 DUP1 DUP5 KECCAK256 SWAP1 SWAP2 MSTORE SWAP1 DUP3 MSTORE SWAP1 KECCAK256 SLOAD DUP2 JUMP JUMPDEST PUSH2 0xC14 PUSH2 0xF2B JUMP JUMPDEST PUSH1 0x1 PUSH1 0x1 PUSH1 0xA0 SHL SUB DUP2 AND PUSH2 0xC3A JUMPI PUSH1 0x40 MLOAD PUSH3 0x461BCD PUSH1 0xE5 SHL DUP2 MSTORE PUSH1 0x4 ADD PUSH2 0xACA SWAP1 PUSH2 0x19DD JUMP JUMPDEST PUSH2 0xC43 DUP2 PUSH2 0xF6A JUMP JUMPDEST POP JUMP JUMPDEST PUSH1 0x2 SLOAD PUSH1 0x1 PUSH1 0x1 PUSH1 0xA0 SHL SUB AND DUP2 JUMP JUMPDEST PUSH1 0xD PUSH1 0x20 MSTORE DUP2 PUSH1 0x0 MSTORE PUSH1 0x40 PUSH1 0x0 KECCAK256 DUP2 DUP2 SLOAD DUP2 LT PUSH2 0x33C JUMPI PUSH1 0x0 DUP1 REVERT JUMPDEST PUSH1 0x0 DUP1 DUP1 DUP1 DUP1 DUP1 DUP1 DUP10 PUSH2 0xC84 DUP2 DUP4 PUSH2 0x1075 JUMP JUMPDEST PUSH1 0x40 MLOAD PUSH4 0x4ABFD7BF PUSH1 0xE1 SHL DUP2 MSTORE SWAP2 SWAP10 POP SWAP8 POP PUSH1 0x1 PUSH1 0x1 PUSH1 0xA0 SHL SUB DUP3 AND SWAP1 PUSH4 0x957FAF7E SWAP1 PUSH2 0xCB5 SWAP1 DUP14 SWAP1 PUSH1 0x4 ADD PUSH2 0x1A87 JUMP JUMPDEST PUSH1 0x60 PUSH1 0x40 MLOAD DUP1 DUP4 SUB DUP2 DUP7 DUP1 EXTCODESIZE ISZERO DUP1 ISZERO PUSH2 0xCCD JUMPI PUSH1 0x0 DUP1 REVERT JUMPDEST POP GAS STATICCALL ISZERO DUP1 ISZERO PUSH2 0xCE1 JUMPI RETURNDATASIZE PUSH1 0x0 DUP1 RETURNDATACOPY RETURNDATASIZE PUSH1 0x0 REVERT JUMPDEST POP POP POP POP PUSH1 0x40 MLOAD RETURNDATASIZE PUSH1 0x1F NOT PUSH1 0x1F DUP3 ADD AND DUP3 ADD DUP1 PUSH1 0x40 MSTORE POP DUP2 ADD SWAP1 PUSH2 0xD05 SWAP2 SWAP1 PUSH2 0x16FA JUMP JUMPDEST SWAP2 SWAP8 POP SWAP6 POP SWAP4 POP PUSH2 0xD18 DUP12 DUP10 DUP12 DUP9 PUSH2 0x1107 JUMP JUMPDEST SWAP9 SWAP13 SWAP8 SWAP12 POP SWAP6 SWAP10 POP SWAP4 SWAP8 POP SWAP2 SWAP6 SWAP4 SWAP5 SWAP3 POP POP POP JUMP JUMPDEST PUSH1 0x60 DUP5 PUSH2 0xD6D JUMPI PUSH1 0x40 DUP1 MLOAD PUSH1 0x0 DUP1 DUP3 MSTORE PUSH1 0x20 DUP3 ADD SWAP1 SWAP3 MSTORE SWAP1 PUSH2 0xD65 JUMP JUMPDEST PUSH2 0xD52 PUSH2 0x1568 JUMP JUMPDEST DUP2 MSTORE PUSH1 0x20 ADD SWAP1 PUSH1 0x1 SWAP1 SUB SWAP1 DUP2 PUSH2 0xD4A JUMPI SWAP1 POP JUMPDEST POP SWAP1 POP PUSH2 0xDE3 JUMP JUMPDEST PUSH1 0x1 PUSH1 0x1 PUSH1 0xA0 SHL SUB DUP8 AND PUSH1 0x0 SWAP1 DUP2 MSTORE PUSH1 0x9 PUSH1 0x20 SWAP1 DUP2 MSTORE PUSH1 0x40 DUP1 DUP4 KECCAK256 DUP10 DUP5 MSTORE SWAP1 SWAP2 MSTORE DUP2 KECCAK256 SLOAD SWAP1 PUSH2 0xDA1 DUP9 DUP9 DUP9 DUP9 DUP9 DUP7 DUP9 PUSH2 0x13DE JUMP JUMPDEST PUSH1 0x1 PUSH1 0x1 PUSH1 0xA0 SHL SUB DUP11 AND PUSH1 0x0 SWAP1 DUP2 MSTORE PUSH1 0x9 PUSH1 0x20 SWAP1 DUP2 MSTORE PUSH1 0x40 DUP1 DUP4 KECCAK256 DUP13 DUP5 MSTORE SWAP1 SWAP2 MSTORE DUP2 KECCAK256 DUP1 SLOAD SWAP3 SWAP4 POP DUP10 SWAP3 SWAP1 SWAP2 SWAP1 PUSH2 0xDD9 SWAP1 DUP5 SWAP1 PUSH2 0x1B06 JUMP JUMPDEST SWAP1 SWAP2 SSTORE POP SWAP1 SWAP3 POP POP POP JUMPDEST SWAP7 SWAP6 POP POP POP POP POP POP JUMP JUMPDEST PUSH1 0x40 DUP1 MLOAD PUSH1 0x1 DUP1 DUP3 MSTORE DUP2 DUP4 ADD SWAP1 SWAP3 MSTORE PUSH1 0x60 SWAP2 DUP7 SWAP2 PUSH1 0x0 SWAP2 DUP2 PUSH1 0x20 ADD JUMPDEST PUSH2 0xE11 PUSH2 0x15C5 JUMP JUMPDEST DUP2 MSTORE PUSH1 0x20 ADD SWAP1 PUSH1 0x1 SWAP1 SUB SWAP1 DUP2 PUSH2 0xE09 JUMPI SWAP1 POP POP SWAP1 POP PUSH1 0x40 MLOAD DUP1 PUSH1 0x60 ADD PUSH1 0x40 MSTORE DUP1 DUP6 PUSH2 0xE3D JUMPI PUSH1 0x1 PUSH2 0xE40 JUMP JUMPDEST PUSH1 0x0 JUMPDEST PUSH1 0xFF AND DUP2 MSTORE PUSH1 0x20 ADD PUSH1 0x0 PUSH1 0x1 PUSH1 0x1 PUSH1 0xA0 SHL SUB AND DUP2 MSTORE PUSH1 0x20 ADD DUP7 DUP2 MSTORE POP DUP2 PUSH1 0x0 DUP2 MLOAD DUP2 LT PUSH2 0xE7D JUMPI PUSH4 0x4E487B71 PUSH1 0xE0 SHL PUSH1 0x0 MSTORE PUSH1 0x32 PUSH1 0x4 MSTORE PUSH1 0x24 PUSH1 0x0 REVERT JUMPDEST PUSH1 0x20 SWAP1 DUP2 MUL SWAP2 SWAP1 SWAP2 ADD ADD MSTORE PUSH1 0x40 MLOAD PUSH4 0x88413C17 PUSH1 0xE0 SHL DUP2 MSTORE PUSH1 0x1 PUSH1 0x1 PUSH1 0xA0 SHL SUB DUP4 AND SWAP1 PUSH4 0x88413C17 SWAP1 PUSH2 0xEB6 SWAP1 ADDRESS SWAP1 DUP6 SWAP1 PUSH1 0x4 ADD PUSH2 0x18ED JUMP JUMPDEST PUSH1 0x0 PUSH1 0x40 MLOAD DUP1 DUP4 SUB DUP2 PUSH1 0x0 DUP8 DUP1 EXTCODESIZE ISZERO DUP1 ISZERO PUSH2 0xED0 JUMPI PUSH1 0x0 DUP1 REVERT JUMPDEST POP GAS CALL ISZERO DUP1 ISZERO PUSH2 0xEE4 JUMPI RETURNDATASIZE PUSH1 0x0 DUP1 RETURNDATACOPY RETURNDATASIZE PUSH1 0x0 REVERT JUMPDEST POP POP POP POP PUSH1 0x1 PUSH1 0x1 PUSH1 0xA0 SHL SUB DUP8 AND PUSH1 0x0 SWAP1 DUP2 MSTORE PUSH1 0xA PUSH1 0x20 SWAP1 DUP2 MSTORE PUSH1 0x40 DUP1 DUP4 KECCAK256 DUP10 DUP5 MSTORE SWAP1 SWAP2 MSTORE DUP2 KECCAK256 DUP1 SLOAD DUP8 SWAP3 SWAP1 PUSH2 0xF1B SWAP1 DUP5 SWAP1 PUSH2 0x1B06 JUMP JUMPDEST SWAP1 SWAP2 SSTORE POP SWAP1 SWAP8 SWAP7 POP POP POP POP POP POP POP JUMP JUMPDEST PUSH2 0xF33 PUSH2 0x1564 JUMP JUMPDEST PUSH1 0x1 PUSH1 0x1 PUSH1 0xA0 SHL SUB AND PUSH2 0xF44 PUSH2 0x9EF JUMP JUMPDEST PUSH1 0x1 PUSH1 0x1 PUSH1 0xA0 SHL SUB AND EQ PUSH2 0x75C JUMPI PUSH1 0x40 MLOAD PUSH3 0x461BCD PUSH1 0xE5 SHL DUP2 MSTORE PUSH1 0x4 ADD PUSH2 0xACA SWAP1 PUSH2 0x1A23 JUMP JUMPDEST PUSH1 0x1 DUP1 SLOAD PUSH1 0x1 PUSH1 0x1 PUSH1 0xA0 SHL SUB DUP4 DUP2 AND PUSH1 0x1 PUSH1 0x1 PUSH1 0xA0 SHL SUB NOT DUP4 AND DUP2 OR SWAP1 SWAP4 SSTORE PUSH1 0x40 MLOAD SWAP2 AND SWAP2 SWAP1 DUP3 SWAP1 PUSH32 0x8BE0079C531659141344CD1FD0A4F28419497F9722A3DAAFE3B4186F6B6457E0 SWAP1 PUSH1 0x0 SWAP1 LOG3 POP POP JUMP JUMPDEST PUSH1 0x0 DUP1 DUP1 DUP1 DUP1 DUP1 DUP1 DUP10 PUSH2 0xFD0 DUP2 PUSH1 0x1 PUSH2 0x1075 JUMP JUMPDEST PUSH1 0x40 MLOAD PUSH4 0x4B66CD4B PUSH1 0xE0 SHL DUP2 MSTORE SWAP2 SWAP10 POP SWAP8 POP PUSH1 0x1 PUSH1 0x1 PUSH1 0xA0 SHL SUB DUP3 AND SWAP1 PUSH4 0x4B66CD4B SWAP1 PUSH2 0xCB5 SWAP1 DUP14 SWAP1 PUSH1 0x4 ADD PUSH2 0x1A87 JUMP JUMPDEST PUSH1 0x60 DUP5 PUSH2 0x1040 JUMPI PUSH1 0x40 DUP1 MLOAD PUSH1 0x0 DUP1 DUP3 MSTORE PUSH1 0x20 DUP3 ADD SWAP1 SWAP3 MSTORE SWAP1 PUSH2 0xD65 JUMP JUMPDEST PUSH2 0x1026 PUSH2 0x1568 JUMP JUMPDEST DUP2 MSTORE PUSH1 0x20 ADD SWAP1 PUSH1 0x1 SWAP1 SUB SWAP1 DUP2 PUSH2 0x101E JUMPI SWAP1 POP POP SWAP1 POP PUSH2 0xDE3 JUMP JUMPDEST PUSH1 0x1 PUSH1 0x1 PUSH1 0xA0 SHL SUB DUP8 AND PUSH1 0x0 SWAP1 DUP2 MSTORE PUSH1 0x9 PUSH1 0x20 SWAP1 DUP2 MSTORE PUSH1 0x40 DUP1 DUP4 KECCAK256 DUP10 DUP5 MSTORE SWAP1 SWAP2 MSTORE DUP2 KECCAK256 SLOAD SWAP1 PUSH2 0xDA1 DUP9 DUP9 DUP9 DUP9 DUP9 PUSH1 0x1 DUP9 PUSH2 0x13DE JUMP JUMPDEST PUSH1 0x0 DUP1 DUP3 PUSH2 0x109D JUMPI PUSH1 0x1 PUSH1 0x1 PUSH1 0xA0 SHL SUB DUP1 DUP6 AND PUSH1 0x0 SWAP1 DUP2 MSTORE PUSH1 0x5 PUSH1 0x20 MSTORE PUSH1 0x40 SWAP1 KECCAK256 SLOAD AND PUSH2 0x10B9 JUMP JUMPDEST PUSH1 0x1 PUSH1 0x1 PUSH1 0xA0 SHL SUB DUP1 DUP6 AND PUSH1 0x0 SWAP1 DUP2 MSTORE PUSH1 0x6 PUSH1 0x20 MSTORE PUSH1 0x40 SWAP1 KECCAK256 SLOAD AND JUMPDEST SWAP2 POP DUP3 PUSH2 0x10E1 JUMPI PUSH1 0x1 PUSH1 0x1 PUSH1 0xA0 SHL SUB DUP5 AND PUSH1 0x0 SWAP1 DUP2 MSTORE PUSH1 0x7 PUSH1 0x20 MSTORE PUSH1 0x40 SWAP1 KECCAK256 SLOAD PUSH1 0xFF AND PUSH2 0x10FE JUMP JUMPDEST PUSH1 0x1 PUSH1 0x1 PUSH1 0xA0 SHL SUB DUP5 AND PUSH1 0x0 SWAP1 DUP2 MSTORE PUSH1 0x8 PUSH1 0x20 MSTORE PUSH1 0x40 SWAP1 KECCAK256 SLOAD PUSH1 0xFF AND JUMPDEST SWAP1 POP SWAP3 POP SWAP3 SWAP1 POP JUMP JUMPDEST PUSH1 0x0 DUP1 DUP6 DUP2 PUSH1 0x1 PUSH1 0x1 PUSH1 0xA0 SHL SUB DUP8 AND ISZERO PUSH2 0x1191 JUMPI DUP7 PUSH1 0x1 PUSH1 0x1 PUSH1 0xA0 SHL SUB AND PUSH4 0x313CE567 PUSH1 0x40 MLOAD DUP2 PUSH4 0xFFFFFFFF AND PUSH1 0xE0 SHL DUP2 MSTORE PUSH1 0x4 ADD PUSH1 0x20 PUSH1 0x40 MLOAD DUP1 DUP4 SUB DUP2 DUP7 DUP1 EXTCODESIZE ISZERO DUP1 ISZERO PUSH2 0x1154 JUMPI PUSH1 0x0 DUP1 REVERT JUMPDEST POP GAS STATICCALL ISZERO DUP1 ISZERO PUSH2 0x1168 JUMPI RETURNDATASIZE PUSH1 0x0 DUP1 RETURNDATACOPY RETURNDATASIZE PUSH1 0x0 REVERT JUMPDEST POP POP POP POP PUSH1 0x40 MLOAD RETURNDATASIZE PUSH1 0x1F NOT PUSH1 0x1F DUP3 ADD AND DUP3 ADD DUP1 PUSH1 0x40 MSTORE POP DUP2 ADD SWAP1 PUSH2 0x118C SWAP2 SWAP1 PUSH2 0x182B JUMP JUMPDEST PUSH2 0x1194 JUMP JUMPDEST PUSH1 0x12 JUMPDEST SWAP1 POP PUSH1 0x0 PUSH1 0x1 PUSH1 0x1 PUSH1 0xA0 SHL SUB DUP9 AND ISZERO PUSH2 0x1228 JUMPI PUSH1 0x40 MLOAD PUSH4 0x70A08231 PUSH1 0xE0 SHL DUP2 MSTORE PUSH1 0x1 PUSH1 0x1 PUSH1 0xA0 SHL SUB DUP10 AND SWAP1 PUSH4 0x70A08231 SWAP1 PUSH2 0x11D3 SWAP1 ADDRESS SWAP1 PUSH1 0x4 ADD PUSH2 0x18AE JUMP JUMPDEST PUSH1 0x20 PUSH1 0x40 MLOAD DUP1 DUP4 SUB DUP2 DUP7 DUP1 EXTCODESIZE ISZERO DUP1 ISZERO PUSH2 0x11EB JUMPI PUSH1 0x0 DUP1 REVERT JUMPDEST POP GAS STATICCALL ISZERO DUP1 ISZERO PUSH2 0x11FF JUMPI RETURNDATASIZE PUSH1 0x0 DUP1 RETURNDATACOPY RETURNDATASIZE PUSH1 0x0 REVERT JUMPDEST POP POP POP POP PUSH1 0x40 MLOAD RETURNDATASIZE PUSH1 0x1F NOT PUSH1 0x1F DUP3 ADD AND DUP3 ADD DUP1 PUSH1 0x40 MSTORE POP DUP2 ADD SWAP1 PUSH2 0x1223 SWAP2 SWAP1 PUSH2 0x17BB JUMP JUMPDEST PUSH2 0x122A JUMP JUMPDEST SELFBALANCE JUMPDEST PUSH1 0x40 MLOAD PUSH4 0xF9B44C85 PUSH1 0xE0 SHL DUP2 MSTORE SWAP1 SWAP2 POP PUSH1 0x1 PUSH1 0x1 PUSH1 0xA0 SHL SUB DUP5 AND SWAP1 PUSH4 0xF9B44C85 SWAP1 PUSH2 0x125F SWAP1 ADDRESS SWAP1 DUP13 SWAP1 DUP13 SWAP1 DUP13 SWAP1 PUSH1 0x4 ADD PUSH2 0x18C2 JUMP JUMPDEST PUSH1 0x0 PUSH1 0x40 MLOAD DUP1 DUP4 SUB DUP2 PUSH1 0x0 DUP8 DUP1 EXTCODESIZE ISZERO DUP1 ISZERO PUSH2 0x1279 JUMPI PUSH1 0x0 DUP1 REVERT JUMPDEST POP GAS CALL ISZERO DUP1 ISZERO PUSH2 0x128D JUMPI RETURNDATASIZE PUSH1 0x0 DUP1 RETURNDATACOPY RETURNDATASIZE PUSH1 0x0 REVERT JUMPDEST POP PUSH1 0x0 SWAP3 POP POP POP PUSH1 0x1 PUSH1 0x1 PUSH1 0xA0 SHL SUB DUP10 AND ISZERO PUSH2 0x1324 JUMPI PUSH1 0x40 MLOAD PUSH4 0x70A08231 PUSH1 0xE0 SHL DUP2 MSTORE PUSH1 0x1 PUSH1 0x1 PUSH1 0xA0 SHL SUB DUP11 AND SWAP1 PUSH4 0x70A08231 SWAP1 PUSH2 0x12CF SWAP1 ADDRESS SWAP1 PUSH1 0x4 ADD PUSH2 0x18AE JUMP JUMPDEST PUSH1 0x20 PUSH1 0x40 MLOAD DUP1 DUP4 SUB DUP2 DUP7 DUP1 EXTCODESIZE ISZERO DUP1 ISZERO PUSH2 0x12E7 JUMPI PUSH1 0x0 DUP1 REVERT JUMPDEST POP GAS STATICCALL ISZERO DUP1 ISZERO PUSH2 0x12FB JUMPI RETURNDATASIZE PUSH1 0x0 DUP1 RETURNDATACOPY RETURNDATASIZE PUSH1 0x0 REVERT JUMPDEST POP POP POP POP PUSH1 0x40 MLOAD RETURNDATASIZE PUSH1 0x1F NOT PUSH1 0x1F DUP3 ADD AND DUP3 ADD DUP1 PUSH1 0x40 MSTORE POP DUP2 ADD SWAP1 PUSH2 0x131F SWAP2 SWAP1 PUSH2 0x17BB JUMP JUMPDEST PUSH2 0x1326 JUMP JUMPDEST SELFBALANCE JUMPDEST SWAP1 POP DUP2 DUP2 GT PUSH2 0x1336 JUMPI PUSH1 0x0 PUSH2 0x1340 JUMP JUMPDEST PUSH2 0x1340 DUP3 DUP3 PUSH2 0x1B06 JUMP JUMPDEST SWAP6 POP PUSH1 0x0 DUP7 GT PUSH2 0x1351 JUMPI PUSH1 0x0 PUSH2 0x13CF JUMP JUMPDEST PUSH1 0x40 MLOAD PUSH4 0x41EF492B PUSH1 0xE0 SHL DUP2 MSTORE PUSH1 0x1 PUSH1 0x1 PUSH1 0xA0 SHL SUB DUP6 AND SWAP1 PUSH4 0x41EF492B SWAP1 PUSH2 0x137F SWAP1 DUP10 SWAP1 DUP8 SWAP1 PUSH1 0x4 ADD PUSH2 0x1A90 JUMP JUMPDEST PUSH1 0x20 PUSH1 0x40 MLOAD DUP1 DUP4 SUB DUP2 DUP7 DUP1 EXTCODESIZE ISZERO DUP1 ISZERO PUSH2 0x1397 JUMPI PUSH1 0x0 DUP1 REVERT JUMPDEST POP GAS STATICCALL ISZERO DUP1 ISZERO PUSH2 0x13AB JUMPI RETURNDATASIZE PUSH1 0x0 DUP1 RETURNDATACOPY RETURNDATASIZE PUSH1 0x0 REVERT JUMPDEST POP POP POP POP PUSH1 0x40 MLOAD RETURNDATASIZE PUSH1 0x1F NOT PUSH1 0x1F DUP3 ADD AND DUP3 ADD DUP1 PUSH1 0x40 MSTORE POP DUP2 ADD SWAP1 PUSH2 0x13CF SWAP2 SWAP1 PUSH2 0x17BB JUMP JUMPDEST SWAP5 POP POP POP POP POP SWAP5 POP SWAP5 SWAP3 POP POP POP JUMP JUMPDEST PUSH1 0x40 DUP1 MLOAD PUSH1 0x2 DUP1 DUP3 MSTORE PUSH1 0x60 DUP3 DUP2 ADD SWAP1 SWAP4 MSTORE PUSH1 0x0 SWAP2 SWAP1 DUP2 PUSH1 0x20 ADD JUMPDEST PUSH2 0x1400 PUSH2 0x1568 JUMP JUMPDEST DUP2 MSTORE PUSH1 0x20 ADD SWAP1 PUSH1 0x1 SWAP1 SUB SWAP1 DUP2 PUSH2 0x13F8 JUMPI SWAP1 POP POP SWAP1 POP PUSH1 0x40 MLOAD DUP1 PUSH2 0x100 ADD PUSH1 0x40 MSTORE DUP1 DUP6 PUSH2 0x142D JUMPI PUSH1 0x2 PUSH2 0x1430 JUMP JUMPDEST PUSH1 0x1 JUMPDEST PUSH1 0xFF AND DUP2 MSTORE PUSH1 0x20 ADD PUSH1 0x2 PUSH1 0xFF AND DUP2 MSTORE PUSH1 0x20 ADD DUP11 DUP2 MSTORE PUSH1 0x20 ADD DUP10 DUP2 MSTORE PUSH1 0x20 ADD PUSH1 0x0 PUSH1 0x1 PUSH1 0x1 PUSH1 0xA0 SHL SUB AND DUP2 MSTORE PUSH1 0x20 ADD PUSH1 0x0 PUSH1 0x1 PUSH1 0x1 PUSH1 0xA0 SHL SUB AND DUP2 MSTORE PUSH1 0x20 ADD PUSH1 0x0 DUP2 MSTORE PUSH1 0x20 ADD PUSH1 0x0 DUP2 MSTORE POP DUP2 PUSH1 0x0 DUP2 MLOAD DUP2 LT PUSH2 0x149B JUMPI PUSH4 0x4E487B71 PUSH1 0xE0 SHL PUSH1 0x0 MSTORE PUSH1 0x32 PUSH1 0x4 MSTORE PUSH1 0x24 PUSH1 0x0 REVERT JUMPDEST PUSH1 0x20 MUL PUSH1 0x20 ADD ADD DUP2 SWAP1 MSTORE POP PUSH1 0x40 MLOAD DUP1 PUSH2 0x100 ADD PUSH1 0x40 MSTORE DUP1 DUP6 PUSH2 0x14BE JUMPI PUSH1 0x2 PUSH2 0x14C1 JUMP JUMPDEST PUSH1 0x1 JUMPDEST PUSH1 0xFF AND DUP2 MSTORE PUSH1 0x20 ADD PUSH1 0x0 PUSH1 0xFF AND DUP2 MSTORE PUSH1 0x20 ADD DUP11 DUP2 MSTORE PUSH1 0x20 ADD DUP7 PUSH1 0xFF AND PUSH1 0x1 EQ DUP1 ISZERO PUSH2 0x14EC JUMPI POP DUP5 DUP11 LT ISZERO JUMPDEST PUSH2 0x14F7 JUMPI PUSH1 0x2 PUSH2 0x14FA JUMP JUMPDEST PUSH1 0x3 JUMPDEST PUSH1 0xFF AND DUP2 MSTORE PUSH1 0x20 ADD DUP9 PUSH1 0x1 PUSH1 0x1 PUSH1 0xA0 SHL SUB AND DUP2 MSTORE PUSH1 0x20 ADD DUP8 PUSH1 0x1 PUSH1 0x1 PUSH1 0xA0 SHL SUB AND DUP2 MSTORE PUSH1 0x20 ADD PUSH1 0x0 DUP2 MSTORE PUSH1 0x20 ADD PUSH1 0x0 DUP2 MSTORE POP DUP2 PUSH1 0x1 DUP2 MLOAD DUP2 LT PUSH2 0x154D JUMPI PUSH4 0x4E487B71 PUSH1 0xE0 SHL PUSH1 0x0 MSTORE PUSH1 0x32 PUSH1 0x4 MSTORE PUSH1 0x24 PUSH1 0x0 REVERT JUMPDEST PUSH1 0x20 SWAP1 DUP2 MUL SWAP2 SWAP1 SWAP2 ADD ADD MSTORE SWAP9 SWAP8 POP POP POP POP POP POP POP POP JUMP JUMPDEST CALLER SWAP1 JUMP JUMPDEST PUSH1 0x40 MLOAD DUP1 PUSH2 0x100 ADD PUSH1 0x40 MSTORE DUP1 PUSH1 0x0 PUSH1 0xFF AND DUP2 MSTORE PUSH1 0x20 ADD PUSH1 0x0 PUSH1 0xFF AND DUP2 MSTORE PUSH1 0x20 ADD PUSH1 0x0 DUP2 MSTORE PUSH1 0x20 ADD PUSH1 0x0 DUP2 MSTORE PUSH1 0x20 ADD PUSH1 0x0 PUSH1 0x1 PUSH1 0x1 PUSH1 0xA0 SHL SUB AND DUP2 MSTORE PUSH1 0x20 ADD PUSH1 0x0 PUSH1 0x1 PUSH1 0x1 PUSH1 0xA0 SHL SUB AND DUP2 MSTORE PUSH1 0x20 ADD PUSH1 0x0 DUP2 MSTORE PUSH1 0x20 ADD PUSH1 0x0 DUP2 MSTORE POP SWAP1 JUMP JUMPDEST PUSH1 0x40 DUP1 MLOAD PUSH1 0x60 DUP2 ADD DUP3 MSTORE PUSH1 0x0 DUP1 DUP3 MSTORE PUSH1 0x20 DUP3 ADD DUP2 SWAP1 MSTORE SWAP2 DUP2 ADD SWAP2 SWAP1 SWAP2 MSTORE SWAP1 JUMP JUMPDEST DUP1 MLOAD PUSH2 0x15F0 DUP2 PUSH2 0x1B33 JUMP JUMPDEST SWAP2 SWAP1 POP JUMP JUMPDEST PUSH1 0x0 PUSH1 0xC0 DUP3 DUP5 SUB SLT ISZERO PUSH2 0x1606 JUMPI DUP1 DUP2 REVERT JUMPDEST PUSH1 0x40 MLOAD PUSH1 0xC0 DUP2 ADD DUP2 DUP2 LT PUSH8 0xFFFFFFFFFFFFFFFF DUP3 GT OR ISZERO PUSH2 0x1635 JUMPI PUSH4 0x4E487B71 PUSH1 0xE0 SHL DUP4 MSTORE PUSH1 0x41 PUSH1 0x4 MSTORE PUSH1 0x24 DUP4 REVERT JUMPDEST PUSH1 0x40 MSTORE SWAP1 POP DUP1 PUSH2 0x1644 DUP4 PUSH2 0x15E5 JUMP JUMPDEST DUP2 MSTORE PUSH2 0x1652 PUSH1 0x20 DUP5 ADD PUSH2 0x15E5 JUMP JUMPDEST PUSH1 0x20 DUP3 ADD MSTORE PUSH1 0x40 DUP4 ADD MLOAD PUSH1 0x40 DUP3 ADD MSTORE PUSH1 0x60 DUP4 ADD MLOAD PUSH1 0x60 DUP3 ADD MSTORE PUSH1 0x80 DUP4 ADD MLOAD PUSH1 0x80 DUP3 ADD MSTORE PUSH2 0x1681 PUSH1 0xA0 DUP5 ADD PUSH2 0x168D JUMP JUMPDEST PUSH1 0xA0 DUP3 ADD MSTORE POP SWAP3 SWAP2 POP POP JUMP JUMPDEST DUP1 MLOAD PUSH1 0xFF DUP2 AND DUP2 EQ PUSH2 0x15F0 JUMPI PUSH1 0x0 DUP1 REVERT JUMPDEST PUSH1 0x0 PUSH1 0x20 DUP3 DUP5 SUB SLT ISZERO PUSH2 0x16AF JUMPI DUP1 DUP2 REVERT JUMPDEST DUP2 CALLDATALOAD PUSH2 0x63E DUP2 PUSH2 0x1B33 JUMP JUMPDEST PUSH1 0x0 DUP1 PUSH1 0x0 PUSH1 0x60 DUP5 DUP7 SUB SLT ISZERO PUSH2 0x16CE JUMPI DUP2 DUP3 REVERT JUMPDEST DUP4 CALLDATALOAD PUSH2 0x16D9 DUP2 PUSH2 0x1B33 JUMP JUMPDEST SWAP3 POP PUSH1 0x20 DUP5 ADD CALLDATALOAD PUSH2 0x16E9 DUP2 PUSH2 0x1B33 JUMP JUMPDEST SWAP3 SWAP6 SWAP3 SWAP5 POP POP POP PUSH1 0x40 SWAP2 SWAP1 SWAP2 ADD CALLDATALOAD SWAP1 JUMP JUMPDEST PUSH1 0x0 DUP1 PUSH1 0x0 PUSH1 0x60 DUP5 DUP7 SUB SLT ISZERO PUSH2 0x170E JUMPI DUP3 DUP4 REVERT JUMPDEST DUP4 MLOAD PUSH2 0x1719 DUP2 PUSH2 0x1B33 JUMP JUMPDEST PUSH1 0x20 DUP6 ADD MLOAD SWAP1 SWAP4 POP PUSH2 0x172A DUP2 PUSH2 0x1B33 JUMP JUMPDEST SWAP2 POP PUSH2 0x1738 PUSH1 0x40 DUP6 ADD PUSH2 0x168D JUMP JUMPDEST SWAP1 POP SWAP3 POP SWAP3 POP SWAP3 JUMP JUMPDEST PUSH1 0x0 DUP1 PUSH1 0x40 DUP4 DUP6 SUB SLT ISZERO PUSH2 0x1753 JUMPI DUP2 DUP3 REVERT JUMPDEST DUP3 CALLDATALOAD PUSH2 0x175E DUP2 PUSH2 0x1B33 JUMP JUMPDEST SWAP5 PUSH1 0x20 SWAP4 SWAP1 SWAP4 ADD CALLDATALOAD SWAP4 POP POP POP JUMP JUMPDEST PUSH1 0x0 DUP1 PUSH1 0x0 PUSH1 0x60 DUP5 DUP7 SUB SLT ISZERO PUSH2 0x1780 JUMPI DUP3 DUP4 REVERT JUMPDEST DUP4 CALLDATALOAD PUSH2 0x178B DUP2 PUSH2 0x1B33 JUMP JUMPDEST SWAP6 PUSH1 0x20 DUP6 ADD CALLDATALOAD SWAP6 POP PUSH1 0x40 SWAP1 SWAP5 ADD CALLDATALOAD SWAP4 SWAP3 POP POP POP JUMP JUMPDEST PUSH1 0x0 PUSH1 0xC0 DUP3 DUP5 SUB SLT ISZERO PUSH2 0x17B1 JUMPI DUP1 DUP2 REVERT JUMPDEST PUSH2 0x63E DUP4 DUP4 PUSH2 0x15F5 JUMP JUMPDEST PUSH1 0x0 PUSH1 0x20 DUP3 DUP5 SUB SLT ISZERO PUSH2 0x17CC JUMPI DUP1 DUP2 REVERT JUMPDEST POP MLOAD SWAP2 SWAP1 POP JUMP JUMPDEST PUSH1 0x0 DUP1 PUSH1 0x40 DUP4 DUP6 SUB SLT ISZERO PUSH2 0x17E5 JUMPI DUP2 DUP3 REVERT JUMPDEST POP POP DUP1 MLOAD PUSH1 0x20 SWAP1 SWAP2 ADD MLOAD SWAP1 SWAP3 SWAP1 SWAP2 POP JUMP JUMPDEST PUSH1 0x0 DUP1 PUSH1 0x0 DUP1 PUSH1 0x80 DUP6 DUP8 SUB SLT ISZERO PUSH2 0x180B JUMPI DUP1 DUP2 REVERT JUMPDEST POP POP DUP3 MLOAD PUSH1 0x20 DUP5 ADD MLOAD PUSH1 0x40 DUP6 ADD MLOAD PUSH1 0x60 SWAP1 SWAP6 ADD MLOAD SWAP2 SWAP7 SWAP1 SWAP6 POP SWAP1 SWAP3 POP SWAP1 POP JUMP JUMPDEST PUSH1 0x0 PUSH1 0x20 DUP3 DUP5 SUB SLT ISZERO PUSH2 0x183C JUMPI DUP1 DUP2 REVERT JUMPDEST PUSH2 0x63E DUP3 PUSH2 0x168D JUMP JUMPDEST PUSH1 0x1 PUSH1 0x1 PUSH1 0xA0 SHL SUB AND SWAP1 MSTORE JUMP JUMPDEST PUSH1 0x0 DUP2 MLOAD DUP1 DUP5 MSTORE PUSH1 0x20 DUP1 DUP6 ADD SWAP5 POP DUP1 DUP5 ADD DUP4 JUMPDEST DUP4 DUP2 LT ISZERO PUSH2 0x18A3 JUMPI DUP2 MLOAD DUP1 MLOAD PUSH1 0xFF AND DUP9 MSTORE DUP4 DUP2 ADD MLOAD PUSH1 0x1 PUSH1 0x1 PUSH1 0xA0 SHL SUB AND DUP5 DUP10 ADD MSTORE PUSH1 0x40 SWAP1 DUP2 ADD MLOAD SWAP1 DUP9 ADD MSTORE PUSH1 0x60 SWAP1 SWAP7 ADD SWAP6 SWAP1 DUP3 ADD SWAP1 PUSH1 0x1 ADD PUSH2 0x1865 JUMP JUMPDEST POP SWAP5 SWAP6 SWAP5 POP POP POP POP POP JUMP JUMPDEST PUSH1 0x1 PUSH1 0x1 PUSH1 0xA0 SHL SUB SWAP2 SWAP1 SWAP2 AND DUP2 MSTORE PUSH1 0x20 ADD SWAP1 JUMP JUMPDEST PUSH1 0x1 PUSH1 0x1 PUSH1 0xA0 SHL SUB SWAP5 DUP6 AND DUP2 MSTORE SWAP3 DUP5 AND PUSH1 0x20 DUP5 ADD MSTORE PUSH1 0x40 DUP4 ADD SWAP2 SWAP1 SWAP2 MSTORE SWAP1 SWAP2 AND PUSH1 0x60 DUP3 ADD MSTORE PUSH1 0x80 ADD SWAP1 JUMP JUMPDEST PUSH1 0x1 PUSH1 0x1 PUSH1 0xA0 SHL SUB DUP4 AND DUP2 MSTORE PUSH1 0x40 PUSH1 0x20 DUP3 ADD DUP2 SWAP1 MSTORE PUSH1 0x0 SWAP1 PUSH2 0x1911 SWAP1 DUP4 ADD DUP5 PUSH2 0x1852 JUMP JUMPDEST SWAP5 SWAP4 POP POP POP POP JUMP JUMPDEST PUSH1 0x0 PUSH1 0x20 DUP3 MSTORE PUSH2 0x63E PUSH1 0x20 DUP4 ADD DUP5 PUSH2 0x1852 JUMP JUMPDEST PUSH1 0x20 DUP1 DUP3 MSTORE DUP3 MLOAD DUP3 DUP3 ADD DUP2 SWAP1 MSTORE PUSH1 0x0 SWAP2 SWAP1 PUSH1 0x40 SWAP1 DUP2 DUP6 ADD SWAP1 DUP7 DUP5 ADD DUP6 JUMPDEST DUP3 DUP2 LT ISZERO PUSH2 0x19C5 JUMPI DUP2 MLOAD DUP1 MLOAD PUSH1 0xFF SWAP1 DUP2 AND DUP7 MSTORE DUP8 DUP3 ADD MLOAD AND DUP8 DUP7 ADD MSTORE DUP6 DUP2 ADD MLOAD DUP7 DUP7 ADD MSTORE PUSH1 0x60 DUP1 DUP3 ADD MLOAD SWAP1 DUP7 ADD MSTORE PUSH1 0x80 DUP1 DUP3 ADD MLOAD PUSH1 0x1 PUSH1 0x1 PUSH1 0xA0 SHL SUB AND SWAP1 DUP7 ADD MSTORE PUSH1 0xA0 DUP1 DUP3 ADD MLOAD PUSH2 0x199C DUP3 DUP9 ADD DUP3 PUSH2 0x1845 JUMP JUMPDEST POP POP PUSH1 0xC0 DUP2 DUP2 ADD MLOAD SWAP1 DUP7 ADD MSTORE PUSH1 0xE0 SWAP1 DUP2 ADD MLOAD SWAP1 DUP6 ADD MSTORE PUSH2 0x100 SWAP1 SWAP4 ADD SWAP3 SWAP1 DUP6 ADD SWAP1 PUSH1 0x1 ADD PUSH2 0x1949 JUMP JUMPDEST POP SWAP2 SWAP8 SWAP7 POP POP POP POP POP POP POP JUMP JUMPDEST SWAP1 ISZERO ISZERO DUP2 MSTORE PUSH1 0x20 ADD SWAP1 JUMP JUMPDEST PUSH1 0x20 DUP1 DUP3 MSTORE PUSH1 0x26 SWAP1 DUP3 ADD MSTORE PUSH32 0x4F776E61626C653A206E6577206F776E657220697320746865207A65726F2061 PUSH1 0x40 DUP3 ADD MSTORE PUSH6 0x646472657373 PUSH1 0xD0 SHL PUSH1 0x60 DUP3 ADD MSTORE PUSH1 0x80 ADD SWAP1 JUMP JUMPDEST PUSH1 0x20 DUP1 DUP3 MSTORE DUP2 DUP2 ADD MSTORE PUSH32 0x4F776E61626C653A2063616C6C6572206973206E6F7420746865206F776E6572 PUSH1 0x40 DUP3 ADD MSTORE PUSH1 0x60 ADD SWAP1 JUMP JUMPDEST PUSH1 0x20 DUP1 DUP3 MSTORE PUSH1 0x15 SWAP1 DUP3 ADD MSTORE PUSH21 0x496E76616C6964206167656E742061646472657373 PUSH1 0x58 SHL PUSH1 0x40 DUP3 ADD MSTORE PUSH1 0x60 ADD SWAP1 JUMP JUMPDEST SWAP1 DUP2 MSTORE PUSH1 0x20 ADD SWAP1 JUMP JUMPDEST SWAP2 DUP3 MSTORE PUSH1 0xFF AND PUSH1 0x20 DUP3 ADD MSTORE PUSH1 0x40 ADD SWAP1 JUMP JUMPDEST PUSH1 0xFF SWAP2 SWAP1 SWAP2 AND DUP2 MSTORE PUSH1 0x20 ADD SWAP1 JUMP JUMPDEST PUSH1 0x0 DUP3 NOT DUP3 GT ISZERO PUSH2 0x1AC2 JUMPI PUSH2 0x1AC2 PUSH2 0x1B1D JUMP JUMPDEST POP ADD SWAP1 JUMP JUMPDEST PUSH1 0x0 DUP3 PUSH2 0x1AE2 JUMPI PUSH4 0x4E487B71 PUSH1 0xE0 SHL DUP2 MSTORE PUSH1 0x12 PUSH1 0x4 MSTORE PUSH1 0x24 DUP2 REVERT JUMPDEST POP DIV SWAP1 JUMP JUMPDEST PUSH1 0x0 DUP2 PUSH1 0x0 NOT DIV DUP4 GT DUP3 ISZERO ISZERO AND ISZERO PUSH2 0x1B01 JUMPI PUSH2 0x1B01 PUSH2 0x1B1D JUMP JUMPDEST POP MUL SWAP1 JUMP JUMPDEST PUSH1 0x0 DUP3 DUP3 LT ISZERO PUSH2 0x1B18 JUMPI PUSH2 0x1B18 PUSH2 0x1B1D JUMP JUMPDEST POP SUB SWAP1 JUMP JUMPDEST PUSH4 0x4E487B71 PUSH1 0xE0 SHL PUSH1 0x0 MSTORE PUSH1 0x11 PUSH1 0x4 MSTORE PUSH1 0x24 PUSH1 0x0 REVERT JUMPDEST PUSH1 0x1 PUSH1 0x1 PUSH1 0xA0 SHL SUB DUP2 AND DUP2 EQ PUSH2 0xC43 JUMPI PUSH1 0x0 DUP1 REVERT INVALID LOG2 PUSH5 0x6970667358 0x22 SLT KECCAK256 0xC8 0xCE 0xC9 0xBE DIFFICULTY 0xCE 0xC4 0xB2 0x2C PUSH11 0xE634EE8D9BD3C325983DD5 LOG2 0x28 0xDF SDIV 0x48 CALLDATALOAD 0xB7 AND SHL 0xC SWAP1 PUSH5 0x736F6C6343 STOP ADDMOD ADD STOP CALLER "
				},
				"gasEstimates": {
					"creation": {
						"codeDepositCost": "1407600",
						"executionCost": "43942",
						"totalCost": "1451542"
					},
					"external": {
						"activeBuyOrders(address,uint256)": "2183",
						"activeLongPayouts(address,uint256)": "2291",
						"activeSellOrders(address,uint256)": "2203",
						"activeShortPayouts(address,uint256)": "2227",
						"agent()": "1180",
						"decimalsA(address)": "1331",
						"decimalsB(address)": "1309",
						"executeBuyOrder(address,uint256,uint256)": "infinite",
						"executeLongPayout(address,uint256)": "infinite",
						"executeSellOrder(address,uint256,uint256)": "infinite",
						"executeShortPayout(address,uint256)": "infinite",
						"isValidListing(address)": "1348",
						"liquidityAddress(address)": "1311",
						"makerActiveOrders(address,address,uint256)": "infinite",
						"orderPendingAmounts(address,uint256)": "1405",
						"owner()": "1181",
						"payoutPendingAmounts(address,uint256)": "1385",
						"renounceOwnership()": "infinite",
						"setAgent(address)": "22265",
						"tokenA(address)": "1421",
						"tokenB(address)": "1311",
						"transferOwnership(address)": "infinite"
					},
					"internal": {
						"_computeImpact(address,uint256,bool)": "infinite",
						"_createOrderUpdates(uint256,uint256,address,address,uint8,bool,uint256)": "infinite",
						"_executeBuyOrderUpdate(address,uint256,uint256,address,address,uint8)": "infinite",
						"_executeSellOrderUpdate(address,uint256,uint256,address,address,uint8)": "infinite",
						"_executeTransaction(address,address,uint256,address)": "infinite",
						"_getTokenAndDecimals(address,bool)": "1892",
						"_prepBuyOrderUpdate(address,uint256,uint256)": "infinite",
						"_prepSellOrderUpdate(address,uint256,uint256)": "infinite",
						"_processPayoutUpdate(address,uint256,uint256,bool)": "infinite",
						"executeBuyOrders(address,uint256)": "infinite",
						"executeLongPayouts(address,uint256)": "infinite",
						"executeSellOrders(address,uint256)": "infinite",
						"executeShortPayouts(address,uint256)": "infinite"
					}
				},
				"methodIdentifiers": {
					"activeBuyOrders(address,uint256)": "007b5562",
					"activeLongPayouts(address,uint256)": "ff4c2254",
					"activeSellOrders(address,uint256)": "e5061d89",
					"activeShortPayouts(address,uint256)": "29f2ebb9",
					"agent()": "f5ff5c76",
					"decimalsA(address)": "aa624ffa",
					"decimalsB(address)": "9e9b5f97",
					"executeBuyOrder(address,uint256,uint256)": "7601f9fe",
					"executeLongPayout(address,uint256)": "6cb4ea85",
					"executeSellOrder(address,uint256,uint256)": "5fbc13ef",
					"executeShortPayout(address,uint256)": "c285c607",
					"isValidListing(address)": "39c7fcef",
					"liquidityAddress(address)": "69d70075",
					"makerActiveOrders(address,address,uint256)": "bc5a318a",
					"orderPendingAmounts(address,uint256)": "ed1a8b45",
					"owner()": "8da5cb5b",
					"payoutPendingAmounts(address,uint256)": "0aa666c2",
					"renounceOwnership()": "715018a6",
					"setAgent(address)": "bcf685ed",
					"tokenA(address)": "943450dd",
					"tokenB(address)": "9cb52525",
					"transferOwnership(address)": "f2fde38b"
				}
			},
			"storageLayout": {
				"storage": [
					{
						"astId": 569,
						"contract": "ShockSpace/utils/SSSettlementPartial.sol:SSSettlementPartial",
						"label": "_status",
						"offset": 0,
						"slot": "0",
						"type": "t_uint256"
					},
					{
						"astId": 453,
						"contract": "ShockSpace/utils/SSSettlementPartial.sol:SSSettlementPartial",
						"label": "_owner",
						"offset": 0,
						"slot": "1",
						"type": "t_address"
					},
					{
						"astId": 1508,
						"contract": "ShockSpace/utils/SSSettlementPartial.sol:SSSettlementPartial",
						"label": "agent",
						"offset": 0,
						"slot": "2",
						"type": "t_address"
					},
					{
						"astId": 1564,
						"contract": "ShockSpace/utils/SSSettlementPartial.sol:SSSettlementPartial",
						"label": "isValidListing",
						"offset": 0,
						"slot": "3",
						"type": "t_mapping(t_address,t_bool)"
					},
					{
						"astId": 1568,
						"contract": "ShockSpace/utils/SSSettlementPartial.sol:SSSettlementPartial",
						"label": "liquidityAddress",
						"offset": 0,
						"slot": "4",
						"type": "t_mapping(t_address,t_address)"
					},
					{
						"astId": 1572,
						"contract": "ShockSpace/utils/SSSettlementPartial.sol:SSSettlementPartial",
						"label": "tokenA",
						"offset": 0,
						"slot": "5",
						"type": "t_mapping(t_address,t_address)"
					},
					{
						"astId": 1576,
						"contract": "ShockSpace/utils/SSSettlementPartial.sol:SSSettlementPartial",
						"label": "tokenB",
						"offset": 0,
						"slot": "6",
						"type": "t_mapping(t_address,t_address)"
					},
					{
						"astId": 1580,
						"contract": "ShockSpace/utils/SSSettlementPartial.sol:SSSettlementPartial",
						"label": "decimalsA",
						"offset": 0,
						"slot": "7",
						"type": "t_mapping(t_address,t_uint8)"
					},
					{
						"astId": 1584,
						"contract": "ShockSpace/utils/SSSettlementPartial.sol:SSSettlementPartial",
						"label": "decimalsB",
						"offset": 0,
						"slot": "8",
						"type": "t_mapping(t_address,t_uint8)"
					},
					{
						"astId": 1590,
						"contract": "ShockSpace/utils/SSSettlementPartial.sol:SSSettlementPartial",
						"label": "orderPendingAmounts",
						"offset": 0,
						"slot": "9",
						"type": "t_mapping(t_address,t_mapping(t_uint256,t_uint256))"
					},
					{
						"astId": 1596,
						"contract": "ShockSpace/utils/SSSettlementPartial.sol:SSSettlementPartial",
						"label": "payoutPendingAmounts",
						"offset": 0,
						"slot": "10",
						"type": "t_mapping(t_address,t_mapping(t_uint256,t_uint256))"
					},
					{
						"astId": 1601,
						"contract": "ShockSpace/utils/SSSettlementPartial.sol:SSSettlementPartial",
						"label": "activeBuyOrders",
						"offset": 0,
						"slot": "11",
						"type": "t_mapping(t_address,t_array(t_uint256)dyn_storage)"
					},
					{
						"astId": 1606,
						"contract": "ShockSpace/utils/SSSettlementPartial.sol:SSSettlementPartial",
						"label": "activeSellOrders",
						"offset": 0,
						"slot": "12",
						"type": "t_mapping(t_address,t_array(t_uint256)dyn_storage)"
					},
					{
						"astId": 1611,
						"contract": "ShockSpace/utils/SSSettlementPartial.sol:SSSettlementPartial",
						"label": "activeLongPayouts",
						"offset": 0,
						"slot": "13",
						"type": "t_mapping(t_address,t_array(t_uint256)dyn_storage)"
					},
					{
						"astId": 1616,
						"contract": "ShockSpace/utils/SSSettlementPartial.sol:SSSettlementPartial",
						"label": "activeShortPayouts",
						"offset": 0,
						"slot": "14",
						"type": "t_mapping(t_address,t_array(t_uint256)dyn_storage)"
					},
					{
						"astId": 1623,
						"contract": "ShockSpace/utils/SSSettlementPartial.sol:SSSettlementPartial",
						"label": "makerActiveOrders",
						"offset": 0,
						"slot": "15",
						"type": "t_mapping(t_address,t_mapping(t_address,t_array(t_uint256)dyn_storage))"
					}
				],
				"types": {
					"t_address": {
						"encoding": "inplace",
						"label": "address",
						"numberOfBytes": "20"
					},
					"t_array(t_uint256)dyn_storage": {
						"base": "t_uint256",
						"encoding": "dynamic_array",
						"label": "uint256[]",
						"numberOfBytes": "32"
					},
					"t_bool": {
						"encoding": "inplace",
						"label": "bool",
						"numberOfBytes": "1"
					},
					"t_mapping(t_address,t_address)": {
						"encoding": "mapping",
						"key": "t_address",
						"label": "mapping(address => address)",
						"numberOfBytes": "32",
						"value": "t_address"
					},
					"t_mapping(t_address,t_array(t_uint256)dyn_storage)": {
						"encoding": "mapping",
						"key": "t_address",
						"label": "mapping(address => uint256[])",
						"numberOfBytes": "32",
						"value": "t_array(t_uint256)dyn_storage"
					},
					"t_mapping(t_address,t_bool)": {
						"encoding": "mapping",
						"key": "t_address",
						"label": "mapping(address => bool)",
						"numberOfBytes": "32",
						"value": "t_bool"
					},
					"t_mapping(t_address,t_mapping(t_address,t_array(t_uint256)dyn_storage))": {
						"encoding": "mapping",
						"key": "t_address",
						"label": "mapping(address => mapping(address => uint256[]))",
						"numberOfBytes": "32",
						"value": "t_mapping(t_address,t_array(t_uint256)dyn_storage)"
					},
					"t_mapping(t_address,t_mapping(t_uint256,t_uint256))": {
						"encoding": "mapping",
						"key": "t_address",
						"label": "mapping(address => mapping(uint256 => uint256))",
						"numberOfBytes": "32",
						"value": "t_mapping(t_uint256,t_uint256)"
					},
					"t_mapping(t_address,t_uint8)": {
						"encoding": "mapping",
						"key": "t_address",
						"label": "mapping(address => uint8)",
						"numberOfBytes": "32",
						"value": "t_uint8"
					},
					"t_mapping(t_uint256,t_uint256)": {
						"encoding": "mapping",
						"key": "t_uint256",
						"label": "mapping(uint256 => uint256)",
						"numberOfBytes": "32",
						"value": "t_uint256"
					},
					"t_uint256": {
						"encoding": "inplace",
						"label": "uint256",
						"numberOfBytes": "32"
					},
					"t_uint8": {
						"encoding": "inplace",
						"label": "uint8",
						"numberOfBytes": "1"
					}
				}
			},
			"userdoc": {
				"kind": "user",
				"methods": {},
				"version": 1
			}
		}
	}
}