{
	"contracts/mockups/MockAggregator.sol": {
		"MockAggregator": {
			"abi": [
				{
					"anonymous": false,
					"inputs": [
						{
							"indexed": true,
							"internalType": "int256",
							"name": "current",
							"type": "int256"
						},
						{
							"indexed": true,
							"internalType": "uint256",
							"name": "roundId",
							"type": "uint256"
						},
						{
							"indexed": false,
							"internalType": "uint256",
							"name": "updatedAt",
							"type": "uint256"
						}
					],
					"name": "AnswerUpdated",
					"type": "event"
				},
				{
					"anonymous": false,
					"inputs": [
						{
							"indexed": true,
							"internalType": "uint256",
							"name": "roundId",
							"type": "uint256"
						},
						{
							"indexed": true,
							"internalType": "address",
							"name": "startedBy",
							"type": "address"
						},
						{
							"indexed": false,
							"internalType": "uint256",
							"name": "startedAt",
							"type": "uint256"
						}
					],
					"name": "NewRound",
					"type": "event"
				},
				{
					"anonymous": false,
					"inputs": [
						{
							"indexed": true,
							"internalType": "address",
							"name": "previousOwner",
							"type": "address"
						}
					],
					"name": "OwnershipRenounced",
					"type": "event"
				},
				{
					"anonymous": false,
					"inputs": [
						{
							"indexed": true,
							"internalType": "address",
							"name": "previousOwner",
							"type": "address"
						},
						{
							"indexed": true,
							"internalType": "address",
							"name": "newOwner",
							"type": "address"
						}
					],
					"name": "OwnershipTransferred",
					"type": "event"
				},
				{
					"inputs": [
						{
							"internalType": "uint256",
							"name": "roundId",
							"type": "uint256"
						}
					],
					"name": "getAnswer",
					"outputs": [
						{
							"internalType": "int256",
							"name": "",
							"type": "int256"
						}
					],
					"stateMutability": "view",
					"type": "function"
				},
				{
					"inputs": [
						{
							"internalType": "uint256",
							"name": "roundId",
							"type": "uint256"
						}
					],
					"name": "getTimestamp",
					"outputs": [
						{
							"internalType": "uint256",
							"name": "",
							"type": "uint256"
						}
					],
					"stateMutability": "view",
					"type": "function"
				},
				{
					"inputs": [],
					"name": "isOwner",
					"outputs": [
						{
							"internalType": "bool",
							"name": "",
							"type": "bool"
						}
					],
					"stateMutability": "view",
					"type": "function"
				},
				{
					"inputs": [],
					"name": "latestAnswer",
					"outputs": [
						{
							"internalType": "int256",
							"name": "",
							"type": "int256"
						}
					],
					"stateMutability": "view",
					"type": "function"
				},
				{
					"inputs": [],
					"name": "latestRound",
					"outputs": [
						{
							"internalType": "uint256",
							"name": "",
							"type": "uint256"
						}
					],
					"stateMutability": "view",
					"type": "function"
				},
				{
					"inputs": [],
					"name": "latestTimestamp",
					"outputs": [
						{
							"internalType": "uint256",
							"name": "",
							"type": "uint256"
						}
					],
					"stateMutability": "view",
					"type": "function"
				},
				{
					"inputs": [],
					"name": "owner",
					"outputs": [
						{
							"internalType": "address",
							"name": "",
							"type": "address"
						}
					],
					"stateMutability": "view",
					"type": "function"
				},
				{
					"inputs": [],
					"name": "renounceOwnership",
					"outputs": [],
					"stateMutability": "nonpayable",
					"type": "function"
				},
				{
					"inputs": [
						{
							"internalType": "int256",
							"name": "answer",
							"type": "int256"
						}
					],
					"name": "setAnswer",
					"outputs": [],
					"stateMutability": "nonpayable",
					"type": "function"
				},
				{
					"inputs": [
						{
							"internalType": "address",
							"name": "newOwner",
							"type": "address"
						}
					],
					"name": "transferOwnership",
					"outputs": [],
					"stateMutability": "nonpayable",
					"type": "function"
				}
			],
			"devdoc": {
				"kind": "dev",
				"methods": {},
				"version": 1
			},
			"evm": {
				"assembly": "    /* \"contracts/mockups/MockAggregator.sol\":273:1432  contract MockAggregator is AggregatorInterface, Ownable {... */\n  mstore(0x40, 0x80)\n  callvalue\n  dup1\n  iszero\n  tag_1\n  jumpi\n  revert(0x00, 0x00)\ntag_1:\n  pop\n    /* \"contracts/Ownable.sol\":581:591  msg.sender */\n  caller\n    /* \"contracts/Ownable.sol\":572:578  _owner */\n  0x00\n  0x00\n    /* \"contracts/Ownable.sol\":572:591  _owner = msg.sender */\n  0x0100\n  exp\n  dup2\n  sload\n  dup2\n  0xffffffffffffffffffffffffffffffffffffffff\n  mul\n  not\n  and\n  swap1\n  dup4\n  0xffffffffffffffffffffffffffffffffffffffff\n  and\n  mul\n  or\n  swap1\n  sstore\n  pop\n    /* \"contracts/mockups/MockAggregator.sol\":273:1432  contract MockAggregator is AggregatorInterface, Ownable {... */\n  dataSize(sub_0)\n  dup1\n  dataOffset(sub_0)\n  0x00\n  codecopy\n  0x00\n  return\nstop\n\nsub_0: assembly {\n        /* \"contracts/mockups/MockAggregator.sol\":273:1432  contract MockAggregator is AggregatorInterface, Ownable {... */\n      mstore(0x40, 0x80)\n      callvalue\n      dup1\n      iszero\n      tag_1\n      jumpi\n      revert(0x00, 0x00)\n    tag_1:\n      pop\n      jumpi(tag_2, lt(calldatasize, 0x04))\n      shr(0xe0, calldataload(0x00))\n      dup1\n      0x8f32d59b\n      gt\n      tag_13\n      jumpi\n      dup1\n      0x8f32d59b\n      eq\n      tag_8\n      jumpi\n      dup1\n      0x99213cd8\n      eq\n      tag_9\n      jumpi\n      dup1\n      0xb5ab58dc\n      eq\n      tag_10\n      jumpi\n      dup1\n      0xb633620c\n      eq\n      tag_11\n      jumpi\n      dup1\n      0xf2fde38b\n      eq\n      tag_12\n      jumpi\n      jump(tag_2)\n    tag_13:\n      dup1\n      0x50d25bcd\n      eq\n      tag_3\n      jumpi\n      dup1\n      0x668a0f02\n      eq\n      tag_4\n      jumpi\n      dup1\n      0x715018a6\n      eq\n      tag_5\n      jumpi\n      dup1\n      0x8205bf6a\n      eq\n      tag_6\n      jumpi\n      dup1\n      0x8da5cb5b\n      eq\n      tag_7\n      jumpi\n    tag_2:\n      revert(0x00, 0x00)\n        /* \"contracts/mockups/MockAggregator.sol\":469:646  function latestAnswer() external view override returns (int256) {... */\n    tag_3:\n      tag_14\n      tag_15\n      jump\t// in\n    tag_14:\n      mload(0x40)\n      tag_16\n      swap2\n      swap1\n      tag_17\n      jump\t// in\n    tag_16:\n      mload(0x40)\n      dup1\n      swap2\n      sub\n      swap1\n      return\n        /* \"contracts/mockups/MockAggregator.sol\":846:950  function latestRound() external view override returns (uint256) {... */\n    tag_4:\n      tag_18\n      tag_19\n      jump\t// in\n    tag_18:\n      mload(0x40)\n      tag_20\n      swap2\n      swap1\n      tag_21\n      jump\t// in\n    tag_20:\n      mload(0x40)\n      dup1\n      swap2\n      sub\n      swap1\n      return\n        /* \"contracts/Ownable.sol\":872:998  function renounceOwnership() public onlyOwner {... */\n    tag_5:\n      tag_22\n      tag_23\n      jump\t// in\n    tag_22:\n      stop\n        /* \"contracts/mockups/MockAggregator.sol\":654:838  function latestTimestamp() external view override returns (uint256) {... */\n    tag_6:\n      tag_24\n      tag_25\n      jump\t// in\n    tag_24:\n      mload(0x40)\n      tag_26\n      swap2\n      swap1\n      tag_21\n      jump\t// in\n    tag_26:\n      mload(0x40)\n      dup1\n      swap2\n      sub\n      swap1\n      return\n        /* \"contracts/Ownable.sol\":607:686  function owner() public view returns (address) {... */\n    tag_7:\n      tag_27\n      tag_28\n      jump\t// in\n    tag_27:\n      mload(0x40)\n      tag_29\n      swap2\n      swap1\n      tag_30\n      jump\t// in\n    tag_29:\n      mload(0x40)\n      dup1\n      swap2\n      sub\n      swap1\n      return\n        /* \"contracts/Ownable.sol\":772:864  function isOwner() public view returns (bool) {... */\n    tag_8:\n      tag_31\n      tag_32\n      jump\t// in\n    tag_31:\n      mload(0x40)\n      tag_33\n      swap2\n      swap1\n      tag_34\n      jump\t// in\n    tag_33:\n      mload(0x40)\n      dup1\n      swap2\n      sub\n      swap1\n      return\n        /* \"contracts/mockups/MockAggregator.sol\":1251:1429  function setAnswer(int256 answer) external onlyOwner {... */\n    tag_9:\n      tag_35\n      0x04\n      dup1\n      calldatasize\n      sub\n      dup2\n      add\n      swap1\n      tag_36\n      swap2\n      swap1\n      tag_37\n      jump\t// in\n    tag_36:\n      tag_38\n      jump\t// in\n    tag_35:\n      stop\n        /* \"contracts/mockups/MockAggregator.sol\":958:1093  function getAnswer(... */\n    tag_10:\n      tag_39\n      0x04\n      dup1\n      calldatasize\n      sub\n      dup2\n      add\n      swap1\n      tag_40\n      swap2\n      swap1\n      tag_41\n      jump\t// in\n    tag_40:\n      tag_42\n      jump\t// in\n    tag_39:\n      mload(0x40)\n      tag_43\n      swap2\n      swap1\n      tag_17\n      jump\t// in\n    tag_43:\n      mload(0x40)\n      dup1\n      swap2\n      sub\n      swap1\n      return\n        /* \"contracts/mockups/MockAggregator.sol\":1101:1243  function getTimestamp(... */\n    tag_11:\n      tag_44\n      0x04\n      dup1\n      calldatasize\n      sub\n      dup2\n      add\n      swap1\n      tag_45\n      swap2\n      swap1\n      tag_41\n      jump\t// in\n    tag_45:\n      tag_46\n      jump\t// in\n    tag_44:\n      mload(0x40)\n      tag_47\n      swap2\n      swap1\n      tag_21\n      jump\t// in\n    tag_47:\n      mload(0x40)\n      dup1\n      swap2\n      sub\n      swap1\n      return\n        /* \"contracts/Ownable.sol\":1006:1115  function transferOwnership(address newOwner) public onlyOwner {... */\n    tag_12:\n      tag_48\n      0x04\n      dup1\n      calldatasize\n      sub\n      dup2\n      add\n      swap1\n      tag_49\n      swap2\n      swap1\n      tag_50\n      jump\t// in\n    tag_49:\n      tag_51\n      jump\t// in\n    tag_48:\n      stop\n        /* \"contracts/mockups/MockAggregator.sol\":469:646  function latestAnswer() external view override returns (int256) {... */\n    tag_15:\n        /* \"contracts/mockups/MockAggregator.sol\":525:531  int256 */\n      0x00\n        /* \"contracts/mockups/MockAggregator.sol\":544:557  uint256 round */\n      0x00\n        /* \"contracts/mockups/MockAggregator.sol\":560:570  _nextRound */\n      sload(0x01)\n        /* \"contracts/mockups/MockAggregator.sol\":544:570  uint256 round = _nextRound */\n      swap1\n      pop\n        /* \"contracts/mockups/MockAggregator.sol\":593:594  0 */\n      0x00\n        /* \"contracts/mockups/MockAggregator.sol\":585:590  round */\n      dup2\n        /* \"contracts/mockups/MockAggregator.sol\":585:594  round > 0 */\n      gt\n        /* \"contracts/mockups/MockAggregator.sol\":581:603  if (round > 0) round-- */\n      iszero\n      tag_53\n      jumpi\n        /* \"contracts/mockups/MockAggregator.sol\":596:603  round-- */\n      dup1\n      dup1\n      tag_54\n      swap1\n      tag_55\n      jump\t// in\n    tag_54:\n      swap2\n      pop\n      pop\n        /* \"contracts/mockups/MockAggregator.sol\":581:603  if (round > 0) round-- */\n    tag_53:\n        /* \"contracts/mockups/MockAggregator.sol\":623:631  _answers */\n      0x02\n        /* \"contracts/mockups/MockAggregator.sol\":623:638  _answers[round] */\n      0x00\n        /* \"contracts/mockups/MockAggregator.sol\":632:637  round */\n      dup3\n        /* \"contracts/mockups/MockAggregator.sol\":623:638  _answers[round] */\n      dup2\n      mstore\n      0x20\n      add\n      swap1\n      dup2\n      mstore\n      0x20\n      add\n      0x00\n      keccak256\n      sload\n        /* \"contracts/mockups/MockAggregator.sol\":616:638  return _answers[round] */\n      swap2\n      pop\n      pop\n        /* \"contracts/mockups/MockAggregator.sol\":469:646  function latestAnswer() external view override returns (int256) {... */\n      swap1\n      jump\t// out\n        /* \"contracts/mockups/MockAggregator.sol\":846:950  function latestRound() external view override returns (uint256) {... */\n    tag_19:\n        /* \"contracts/mockups/MockAggregator.sol\":901:908  uint256 */\n      0x00\n        /* \"contracts/mockups/MockAggregator.sol\":941:942  1 */\n      0x01\n        /* \"contracts/mockups/MockAggregator.sol\":928:938  _nextRound */\n      dup1\n      sload\n        /* \"contracts/mockups/MockAggregator.sol\":928:942  _nextRound - 1 */\n      tag_57\n      swap2\n      swap1\n      tag_58\n      jump\t// in\n    tag_57:\n        /* \"contracts/mockups/MockAggregator.sol\":921:942  return _nextRound - 1 */\n      swap1\n      pop\n        /* \"contracts/mockups/MockAggregator.sol\":846:950  function latestRound() external view override returns (uint256) {... */\n      swap1\n      jump\t// out\n        /* \"contracts/Ownable.sol\":872:998  function renounceOwnership() public onlyOwner {... */\n    tag_23:\n        /* \"contracts/Ownable.sol\":734:743  isOwner() */\n      tag_60\n        /* \"contracts/Ownable.sol\":734:741  isOwner */\n      tag_32\n        /* \"contracts/Ownable.sol\":734:743  isOwner() */\n      jump\t// in\n    tag_60:\n        /* \"contracts/Ownable.sol\":726:744  require(isOwner()) */\n      tag_61\n      jumpi\n      revert(0x00, 0x00)\n    tag_61:\n        /* \"contracts/Ownable.sol\":953:959  _owner */\n      0x00\n      0x00\n      swap1\n      sload\n      swap1\n      0x0100\n      exp\n      swap1\n      div\n      0xffffffffffffffffffffffffffffffffffffffff\n      and\n        /* \"contracts/Ownable.sol\":934:960  OwnershipRenounced(_owner) */\n      0xffffffffffffffffffffffffffffffffffffffff\n      and\n      0xf8df31144d9c2f0f6b59d69b8b98abd5459d07f2742c4df920b25aae33c64820\n      mload(0x40)\n      mload(0x40)\n      dup1\n      swap2\n      sub\n      swap1\n      log2\n        /* \"contracts/Ownable.sol\":988:989  0 */\n      0x00\n        /* \"contracts/Ownable.sol\":971:977  _owner */\n      0x00\n      0x00\n        /* \"contracts/Ownable.sol\":971:990  _owner = address(0) */\n      0x0100\n      exp\n      dup2\n      sload\n      dup2\n      0xffffffffffffffffffffffffffffffffffffffff\n      mul\n      not\n      and\n      swap1\n      dup4\n      0xffffffffffffffffffffffffffffffffffffffff\n      and\n      mul\n      or\n      swap1\n      sstore\n      pop\n        /* \"contracts/Ownable.sol\":872:998  function renounceOwnership() public onlyOwner {... */\n      jump\t// out\n        /* \"contracts/mockups/MockAggregator.sol\":654:838  function latestTimestamp() external view override returns (uint256) {... */\n    tag_25:\n        /* \"contracts/mockups/MockAggregator.sol\":713:720  uint256 */\n      0x00\n        /* \"contracts/mockups/MockAggregator.sol\":733:746  uint256 round */\n      0x00\n        /* \"contracts/mockups/MockAggregator.sol\":749:759  _nextRound */\n      sload(0x01)\n        /* \"contracts/mockups/MockAggregator.sol\":733:759  uint256 round = _nextRound */\n      swap1\n      pop\n        /* \"contracts/mockups/MockAggregator.sol\":782:783  0 */\n      0x00\n        /* \"contracts/mockups/MockAggregator.sol\":774:779  round */\n      dup2\n        /* \"contracts/mockups/MockAggregator.sol\":774:783  round > 0 */\n      gt\n        /* \"contracts/mockups/MockAggregator.sol\":770:792  if (round > 0) round-- */\n      iszero\n      tag_64\n      jumpi\n        /* \"contracts/mockups/MockAggregator.sol\":785:792  round-- */\n      dup1\n      dup1\n      tag_65\n      swap1\n      tag_55\n      jump\t// in\n    tag_65:\n      swap2\n      pop\n      pop\n        /* \"contracts/mockups/MockAggregator.sol\":770:792  if (round > 0) round-- */\n    tag_64:\n        /* \"contracts/mockups/MockAggregator.sol\":812:823  _timestamps */\n      0x03\n        /* \"contracts/mockups/MockAggregator.sol\":812:830  _timestamps[round] */\n      0x00\n        /* \"contracts/mockups/MockAggregator.sol\":824:829  round */\n      dup3\n        /* \"contracts/mockups/MockAggregator.sol\":812:830  _timestamps[round] */\n      dup2\n      mstore\n      0x20\n      add\n      swap1\n      dup2\n      mstore\n      0x20\n      add\n      0x00\n      keccak256\n      sload\n        /* \"contracts/mockups/MockAggregator.sol\":805:830  return _timestamps[round] */\n      swap2\n      pop\n      pop\n        /* \"contracts/mockups/MockAggregator.sol\":654:838  function latestTimestamp() external view override returns (uint256) {... */\n      swap1\n      jump\t// out\n        /* \"contracts/Ownable.sol\":607:686  function owner() public view returns (address) {... */\n    tag_28:\n        /* \"contracts/Ownable.sol\":645:652  address */\n      0x00\n        /* \"contracts/Ownable.sol\":672:678  _owner */\n      0x00\n      0x00\n      swap1\n      sload\n      swap1\n      0x0100\n      exp\n      swap1\n      div\n      0xffffffffffffffffffffffffffffffffffffffff\n      and\n        /* \"contracts/Ownable.sol\":665:678  return _owner */\n      swap1\n      pop\n        /* \"contracts/Ownable.sol\":607:686  function owner() public view returns (address) {... */\n      swap1\n      jump\t// out\n        /* \"contracts/Ownable.sol\":772:864  function isOwner() public view returns (bool) {... */\n    tag_32:\n        /* \"contracts/Ownable.sol\":812:816  bool */\n      0x00\n        /* \"contracts/Ownable.sol\":850:856  _owner */\n      0x00\n      0x00\n      swap1\n      sload\n      swap1\n      0x0100\n      exp\n      swap1\n      div\n      0xffffffffffffffffffffffffffffffffffffffff\n      and\n        /* \"contracts/Ownable.sol\":836:856  msg.sender == _owner */\n      0xffffffffffffffffffffffffffffffffffffffff\n      and\n        /* \"contracts/Ownable.sol\":836:846  msg.sender */\n      caller\n        /* \"contracts/Ownable.sol\":836:856  msg.sender == _owner */\n      0xffffffffffffffffffffffffffffffffffffffff\n      and\n      eq\n        /* \"contracts/Ownable.sol\":829:856  return msg.sender == _owner */\n      swap1\n      pop\n        /* \"contracts/Ownable.sol\":772:864  function isOwner() public view returns (bool) {... */\n      swap1\n      jump\t// out\n        /* \"contracts/mockups/MockAggregator.sol\":1251:1429  function setAnswer(int256 answer) external onlyOwner {... */\n    tag_38:\n        /* \"contracts/Ownable.sol\":734:743  isOwner() */\n      tag_69\n        /* \"contracts/Ownable.sol\":734:741  isOwner */\n      tag_32\n        /* \"contracts/Ownable.sol\":734:743  isOwner() */\n      jump\t// in\n    tag_69:\n        /* \"contracts/Ownable.sol\":726:744  require(isOwner()) */\n      tag_70\n      jumpi\n      revert(0x00, 0x00)\n    tag_70:\n        /* \"contracts/mockups/MockAggregator.sol\":1338:1344  answer */\n      dup1\n        /* \"contracts/mockups/MockAggregator.sol\":1315:1323  _answers */\n      0x02\n        /* \"contracts/mockups/MockAggregator.sol\":1315:1335  _answers[_nextRound] */\n      0x00\n        /* \"contracts/mockups/MockAggregator.sol\":1324:1334  _nextRound */\n      sload(0x01)\n        /* \"contracts/mockups/MockAggregator.sol\":1315:1335  _answers[_nextRound] */\n      dup2\n      mstore\n      0x20\n      add\n      swap1\n      dup2\n      mstore\n      0x20\n      add\n      0x00\n      keccak256\n        /* \"contracts/mockups/MockAggregator.sol\":1315:1344  _answers[_nextRound] = answer */\n      dup2\n      swap1\n      sstore\n      pop\n        /* \"contracts/mockups/MockAggregator.sol\":1381:1396  block.timestamp */\n      timestamp\n        /* \"contracts/mockups/MockAggregator.sol\":1355:1366  _timestamps */\n      0x03\n        /* \"contracts/mockups/MockAggregator.sol\":1355:1378  _timestamps[_nextRound] */\n      0x00\n        /* \"contracts/mockups/MockAggregator.sol\":1367:1377  _nextRound */\n      sload(0x01)\n        /* \"contracts/mockups/MockAggregator.sol\":1355:1378  _timestamps[_nextRound] */\n      dup2\n      mstore\n      0x20\n      add\n      swap1\n      dup2\n      mstore\n      0x20\n      add\n      0x00\n      keccak256\n        /* \"contracts/mockups/MockAggregator.sol\":1355:1396  _timestamps[_nextRound] = block.timestamp */\n      dup2\n      swap1\n      sstore\n      pop\n        /* \"contracts/mockups/MockAggregator.sol\":1409:1419  _nextRound */\n      0x01\n      0x00\n        /* \"contracts/mockups/MockAggregator.sol\":1409:1421  _nextRound++ */\n      dup2\n      sload\n      dup1\n      swap3\n      swap2\n      swap1\n      tag_72\n      swap1\n      tag_73\n      jump\t// in\n    tag_72:\n      swap2\n      swap1\n      pop\n      sstore\n      pop\n        /* \"contracts/mockups/MockAggregator.sol\":1251:1429  function setAnswer(int256 answer) external onlyOwner {... */\n      pop\n      jump\t// out\n        /* \"contracts/mockups/MockAggregator.sol\":958:1093  function getAnswer(... */\n    tag_42:\n        /* \"contracts/mockups/MockAggregator.sol\":1042:1048  int256 */\n      0x00\n        /* \"contracts/mockups/MockAggregator.sol\":1068:1076  _answers */\n      0x02\n        /* \"contracts/mockups/MockAggregator.sol\":1068:1085  _answers[roundId] */\n      0x00\n        /* \"contracts/mockups/MockAggregator.sol\":1077:1084  roundId */\n      dup4\n        /* \"contracts/mockups/MockAggregator.sol\":1068:1085  _answers[roundId] */\n      dup2\n      mstore\n      0x20\n      add\n      swap1\n      dup2\n      mstore\n      0x20\n      add\n      0x00\n      keccak256\n      sload\n        /* \"contracts/mockups/MockAggregator.sol\":1061:1085  return _answers[roundId] */\n      swap1\n      pop\n        /* \"contracts/mockups/MockAggregator.sol\":958:1093  function getAnswer(... */\n      swap2\n      swap1\n      pop\n      jump\t// out\n        /* \"contracts/mockups/MockAggregator.sol\":1101:1243  function getTimestamp(... */\n    tag_46:\n        /* \"contracts/mockups/MockAggregator.sol\":1188:1195  uint256 */\n      0x00\n        /* \"contracts/mockups/MockAggregator.sol\":1215:1226  _timestamps */\n      0x03\n        /* \"contracts/mockups/MockAggregator.sol\":1215:1235  _timestamps[roundId] */\n      0x00\n        /* \"contracts/mockups/MockAggregator.sol\":1227:1234  roundId */\n      dup4\n        /* \"contracts/mockups/MockAggregator.sol\":1215:1235  _timestamps[roundId] */\n      dup2\n      mstore\n      0x20\n      add\n      swap1\n      dup2\n      mstore\n      0x20\n      add\n      0x00\n      keccak256\n      sload\n        /* \"contracts/mockups/MockAggregator.sol\":1208:1235  return _timestamps[roundId] */\n      swap1\n      pop\n        /* \"contracts/mockups/MockAggregator.sol\":1101:1243  function getTimestamp(... */\n      swap2\n      swap1\n      pop\n      jump\t// out\n        /* \"contracts/Ownable.sol\":1006:1115  function transferOwnership(address newOwner) public onlyOwner {... */\n    tag_51:\n        /* \"contracts/Ownable.sol\":734:743  isOwner() */\n      tag_77\n        /* \"contracts/Ownable.sol\":734:741  isOwner */\n      tag_32\n        /* \"contracts/Ownable.sol\":734:743  isOwner() */\n      jump\t// in\n    tag_77:\n        /* \"contracts/Ownable.sol\":726:744  require(isOwner()) */\n      tag_78\n      jumpi\n      revert(0x00, 0x00)\n    tag_78:\n        /* \"contracts/Ownable.sol\":1079:1107  _transferOwnership(newOwner) */\n      tag_80\n        /* \"contracts/Ownable.sol\":1098:1106  newOwner */\n      dup2\n        /* \"contracts/Ownable.sol\":1079:1097  _transferOwnership */\n      tag_81\n        /* \"contracts/Ownable.sol\":1079:1107  _transferOwnership(newOwner) */\n      jump\t// in\n    tag_80:\n        /* \"contracts/Ownable.sol\":1006:1115  function transferOwnership(address newOwner) public onlyOwner {... */\n      pop\n      jump\t// out\n        /* \"contracts/Ownable.sol\":1123:1310  function _transferOwnership(address newOwner) internal {... */\n    tag_81:\n        /* \"contracts/Ownable.sol\":1217:1218  0 */\n      0x00\n        /* \"contracts/Ownable.sol\":1197:1219  newOwner != address(0) */\n      0xffffffffffffffffffffffffffffffffffffffff\n      and\n        /* \"contracts/Ownable.sol\":1197:1205  newOwner */\n      dup2\n        /* \"contracts/Ownable.sol\":1197:1219  newOwner != address(0) */\n      0xffffffffffffffffffffffffffffffffffffffff\n      and\n      sub\n        /* \"contracts/Ownable.sol\":1189:1220  require(newOwner != address(0)) */\n      tag_83\n      jumpi\n      revert(0x00, 0x00)\n    tag_83:\n        /* \"contracts/Ownable.sol\":1265:1273  newOwner */\n      dup1\n        /* \"contracts/Ownable.sol\":1236:1274  OwnershipTransferred(_owner, newOwner) */\n      0xffffffffffffffffffffffffffffffffffffffff\n      and\n        /* \"contracts/Ownable.sol\":1257:1263  _owner */\n      0x00\n      0x00\n      swap1\n      sload\n      swap1\n      0x0100\n      exp\n      swap1\n      div\n      0xffffffffffffffffffffffffffffffffffffffff\n      and\n        /* \"contracts/Ownable.sol\":1236:1274  OwnershipTransferred(_owner, newOwner) */\n      0xffffffffffffffffffffffffffffffffffffffff\n      and\n      0x8be0079c531659141344cd1fd0a4f28419497f9722a3daafe3b4186f6b6457e0\n      mload(0x40)\n      mload(0x40)\n      dup1\n      swap2\n      sub\n      swap1\n      log3\n        /* \"contracts/Ownable.sol\":1294:1302  newOwner */\n      dup1\n        /* \"contracts/Ownable.sol\":1285:1291  _owner */\n      0x00\n      0x00\n        /* \"contracts/Ownable.sol\":1285:1302  _owner = newOwner */\n      0x0100\n      exp\n      dup2\n      sload\n      dup2\n      0xffffffffffffffffffffffffffffffffffffffff\n      mul\n      not\n      and\n      swap1\n      dup4\n      0xffffffffffffffffffffffffffffffffffffffff\n      and\n      mul\n      or\n      swap1\n      sstore\n      pop\n        /* \"contracts/Ownable.sol\":1123:1310  function _transferOwnership(address newOwner) internal {... */\n      pop\n      jump\t// out\n        /* \"#utility.yul\":7:83   */\n    tag_84:\n        /* \"#utility.yul\":43:50   */\n      0x00\n        /* \"#utility.yul\":72:77   */\n      dup2\n        /* \"#utility.yul\":61:77   */\n      swap1\n      pop\n        /* \"#utility.yul\":7:83   */\n      swap2\n      swap1\n      pop\n      jump\t// out\n        /* \"#utility.yul\":89:204   */\n    tag_85:\n        /* \"#utility.yul\":174:197   */\n      tag_106\n        /* \"#utility.yul\":191:196   */\n      dup2\n        /* \"#utility.yul\":174:197   */\n      tag_84\n      jump\t// in\n    tag_106:\n        /* \"#utility.yul\":169:172   */\n      dup3\n        /* \"#utility.yul\":162:198   */\n      mstore\n        /* \"#utility.yul\":89:204   */\n      pop\n      pop\n      jump\t// out\n        /* \"#utility.yul\":210:428   */\n    tag_17:\n        /* \"#utility.yul\":301:305   */\n      0x00\n        /* \"#utility.yul\":339:341   */\n      0x20\n        /* \"#utility.yul\":328:337   */\n      dup3\n        /* \"#utility.yul\":324:342   */\n      add\n        /* \"#utility.yul\":316:342   */\n      swap1\n      pop\n        /* \"#utility.yul\":352:421   */\n      tag_108\n        /* \"#utility.yul\":418:419   */\n      0x00\n        /* \"#utility.yul\":407:416   */\n      dup4\n        /* \"#utility.yul\":403:420   */\n      add\n        /* \"#utility.yul\":394:400   */\n      dup5\n        /* \"#utility.yul\":352:421   */\n      tag_85\n      jump\t// in\n    tag_108:\n        /* \"#utility.yul\":210:428   */\n      swap3\n      swap2\n      pop\n      pop\n      jump\t// out\n        /* \"#utility.yul\":434:511   */\n    tag_86:\n        /* \"#utility.yul\":471:478   */\n      0x00\n        /* \"#utility.yul\":500:505   */\n      dup2\n        /* \"#utility.yul\":489:505   */\n      swap1\n      pop\n        /* \"#utility.yul\":434:511   */\n      swap2\n      swap1\n      pop\n      jump\t// out\n        /* \"#utility.yul\":517:635   */\n    tag_87:\n        /* \"#utility.yul\":604:628   */\n      tag_111\n        /* \"#utility.yul\":622:627   */\n      dup2\n        /* \"#utility.yul\":604:628   */\n      tag_86\n      jump\t// in\n    tag_111:\n        /* \"#utility.yul\":599:602   */\n      dup3\n        /* \"#utility.yul\":592:629   */\n      mstore\n        /* \"#utility.yul\":517:635   */\n      pop\n      pop\n      jump\t// out\n        /* \"#utility.yul\":641:863   */\n    tag_21:\n        /* \"#utility.yul\":734:738   */\n      0x00\n        /* \"#utility.yul\":772:774   */\n      0x20\n        /* \"#utility.yul\":761:770   */\n      dup3\n        /* \"#utility.yul\":757:775   */\n      add\n        /* \"#utility.yul\":749:775   */\n      swap1\n      pop\n        /* \"#utility.yul\":785:856   */\n      tag_113\n        /* \"#utility.yul\":853:854   */\n      0x00\n        /* \"#utility.yul\":842:851   */\n      dup4\n        /* \"#utility.yul\":838:855   */\n      add\n        /* \"#utility.yul\":829:835   */\n      dup5\n        /* \"#utility.yul\":785:856   */\n      tag_87\n      jump\t// in\n    tag_113:\n        /* \"#utility.yul\":641:863   */\n      swap3\n      swap2\n      pop\n      pop\n      jump\t// out\n        /* \"#utility.yul\":869:995   */\n    tag_88:\n        /* \"#utility.yul\":906:913   */\n      0x00\n        /* \"#utility.yul\":946:988   */\n      0xffffffffffffffffffffffffffffffffffffffff\n        /* \"#utility.yul\":939:944   */\n      dup3\n        /* \"#utility.yul\":935:989   */\n      and\n        /* \"#utility.yul\":924:989   */\n      swap1\n      pop\n        /* \"#utility.yul\":869:995   */\n      swap2\n      swap1\n      pop\n      jump\t// out\n        /* \"#utility.yul\":1001:1097   */\n    tag_89:\n        /* \"#utility.yul\":1038:1045   */\n      0x00\n        /* \"#utility.yul\":1067:1091   */\n      tag_116\n        /* \"#utility.yul\":1085:1090   */\n      dup3\n        /* \"#utility.yul\":1067:1091   */\n      tag_88\n      jump\t// in\n    tag_116:\n        /* \"#utility.yul\":1056:1091   */\n      swap1\n      pop\n        /* \"#utility.yul\":1001:1097   */\n      swap2\n      swap1\n      pop\n      jump\t// out\n        /* \"#utility.yul\":1103:1221   */\n    tag_90:\n        /* \"#utility.yul\":1190:1214   */\n      tag_118\n        /* \"#utility.yul\":1208:1213   */\n      dup2\n        /* \"#utility.yul\":1190:1214   */\n      tag_89\n      jump\t// in\n    tag_118:\n        /* \"#utility.yul\":1185:1188   */\n      dup3\n        /* \"#utility.yul\":1178:1215   */\n      mstore\n        /* \"#utility.yul\":1103:1221   */\n      pop\n      pop\n      jump\t// out\n        /* \"#utility.yul\":1227:1449   */\n    tag_30:\n        /* \"#utility.yul\":1320:1324   */\n      0x00\n        /* \"#utility.yul\":1358:1360   */\n      0x20\n        /* \"#utility.yul\":1347:1356   */\n      dup3\n        /* \"#utility.yul\":1343:1361   */\n      add\n        /* \"#utility.yul\":1335:1361   */\n      swap1\n      pop\n        /* \"#utility.yul\":1371:1442   */\n      tag_120\n        /* \"#utility.yul\":1439:1440   */\n      0x00\n        /* \"#utility.yul\":1428:1437   */\n      dup4\n        /* \"#utility.yul\":1424:1441   */\n      add\n        /* \"#utility.yul\":1415:1421   */\n      dup5\n        /* \"#utility.yul\":1371:1442   */\n      tag_90\n      jump\t// in\n    tag_120:\n        /* \"#utility.yul\":1227:1449   */\n      swap3\n      swap2\n      pop\n      pop\n      jump\t// out\n        /* \"#utility.yul\":1455:1545   */\n    tag_91:\n        /* \"#utility.yul\":1489:1496   */\n      0x00\n        /* \"#utility.yul\":1532:1537   */\n      dup2\n        /* \"#utility.yul\":1525:1538   */\n      iszero\n        /* \"#utility.yul\":1518:1539   */\n      iszero\n        /* \"#utility.yul\":1507:1539   */\n      swap1\n      pop\n        /* \"#utility.yul\":1455:1545   */\n      swap2\n      swap1\n      pop\n      jump\t// out\n        /* \"#utility.yul\":1551:1660   */\n    tag_92:\n        /* \"#utility.yul\":1632:1653   */\n      tag_123\n        /* \"#utility.yul\":1647:1652   */\n      dup2\n        /* \"#utility.yul\":1632:1653   */\n      tag_91\n      jump\t// in\n    tag_123:\n        /* \"#utility.yul\":1627:1630   */\n      dup3\n        /* \"#utility.yul\":1620:1654   */\n      mstore\n        /* \"#utility.yul\":1551:1660   */\n      pop\n      pop\n      jump\t// out\n        /* \"#utility.yul\":1666:1876   */\n    tag_34:\n        /* \"#utility.yul\":1753:1757   */\n      0x00\n        /* \"#utility.yul\":1791:1793   */\n      0x20\n        /* \"#utility.yul\":1780:1789   */\n      dup3\n        /* \"#utility.yul\":1776:1794   */\n      add\n        /* \"#utility.yul\":1768:1794   */\n      swap1\n      pop\n        /* \"#utility.yul\":1804:1869   */\n      tag_125\n        /* \"#utility.yul\":1866:1867   */\n      0x00\n        /* \"#utility.yul\":1855:1864   */\n      dup4\n        /* \"#utility.yul\":1851:1868   */\n      add\n        /* \"#utility.yul\":1842:1848   */\n      dup5\n        /* \"#utility.yul\":1804:1869   */\n      tag_92\n      jump\t// in\n    tag_125:\n        /* \"#utility.yul\":1666:1876   */\n      swap3\n      swap2\n      pop\n      pop\n      jump\t// out\n        /* \"#utility.yul\":1963:2080   */\n    tag_94:\n        /* \"#utility.yul\":2072:2073   */\n      0x00\n        /* \"#utility.yul\":2069:2070   */\n      0x00\n        /* \"#utility.yul\":2062:2074   */\n      revert\n        /* \"#utility.yul\":2209:2329   */\n    tag_96:\n        /* \"#utility.yul\":2281:2304   */\n      tag_130\n        /* \"#utility.yul\":2298:2303   */\n      dup2\n        /* \"#utility.yul\":2281:2304   */\n      tag_84\n      jump\t// in\n    tag_130:\n        /* \"#utility.yul\":2274:2279   */\n      dup2\n        /* \"#utility.yul\":2271:2305   */\n      eq\n        /* \"#utility.yul\":2261:2323   */\n      tag_131\n      jumpi\n        /* \"#utility.yul\":2319:2320   */\n      0x00\n        /* \"#utility.yul\":2316:2317   */\n      0x00\n        /* \"#utility.yul\":2309:2321   */\n      revert\n        /* \"#utility.yul\":2261:2323   */\n    tag_131:\n        /* \"#utility.yul\":2209:2329   */\n      pop\n      jump\t// out\n        /* \"#utility.yul\":2335:2472   */\n    tag_97:\n        /* \"#utility.yul\":2380:2385   */\n      0x00\n        /* \"#utility.yul\":2418:2424   */\n      dup2\n        /* \"#utility.yul\":2405:2425   */\n      calldataload\n        /* \"#utility.yul\":2396:2425   */\n      swap1\n      pop\n        /* \"#utility.yul\":2434:2466   */\n      tag_133\n        /* \"#utility.yul\":2460:2465   */\n      dup2\n        /* \"#utility.yul\":2434:2466   */\n      tag_96\n      jump\t// in\n    tag_133:\n        /* \"#utility.yul\":2335:2472   */\n      swap3\n      swap2\n      pop\n      pop\n      jump\t// out\n        /* \"#utility.yul\":2478:2805   */\n    tag_37:\n        /* \"#utility.yul\":2536:2542   */\n      0x00\n        /* \"#utility.yul\":2585:2587   */\n      0x20\n        /* \"#utility.yul\":2573:2582   */\n      dup3\n        /* \"#utility.yul\":2564:2571   */\n      dup5\n        /* \"#utility.yul\":2560:2583   */\n      sub\n        /* \"#utility.yul\":2556:2588   */\n      slt\n        /* \"#utility.yul\":2553:2672   */\n      iszero\n      tag_135\n      jumpi\n        /* \"#utility.yul\":2591:2670   */\n      tag_136\n      tag_94\n      jump\t// in\n    tag_136:\n        /* \"#utility.yul\":2553:2672   */\n    tag_135:\n        /* \"#utility.yul\":2711:2712   */\n      0x00\n        /* \"#utility.yul\":2736:2788   */\n      tag_137\n        /* \"#utility.yul\":2780:2787   */\n      dup5\n        /* \"#utility.yul\":2771:2777   */\n      dup3\n        /* \"#utility.yul\":2760:2769   */\n      dup6\n        /* \"#utility.yul\":2756:2778   */\n      add\n        /* \"#utility.yul\":2736:2788   */\n      tag_97\n      jump\t// in\n    tag_137:\n        /* \"#utility.yul\":2726:2788   */\n      swap2\n      pop\n        /* \"#utility.yul\":2682:2798   */\n      pop\n        /* \"#utility.yul\":2478:2805   */\n      swap3\n      swap2\n      pop\n      pop\n      jump\t// out\n        /* \"#utility.yul\":2811:2933   */\n    tag_98:\n        /* \"#utility.yul\":2884:2908   */\n      tag_139\n        /* \"#utility.yul\":2902:2907   */\n      dup2\n        /* \"#utility.yul\":2884:2908   */\n      tag_86\n      jump\t// in\n    tag_139:\n        /* \"#utility.yul\":2877:2882   */\n      dup2\n        /* \"#utility.yul\":2874:2909   */\n      eq\n        /* \"#utility.yul\":2864:2927   */\n      tag_140\n      jumpi\n        /* \"#utility.yul\":2923:2924   */\n      0x00\n        /* \"#utility.yul\":2920:2921   */\n      0x00\n        /* \"#utility.yul\":2913:2925   */\n      revert\n        /* \"#utility.yul\":2864:2927   */\n    tag_140:\n        /* \"#utility.yul\":2811:2933   */\n      pop\n      jump\t// out\n        /* \"#utility.yul\":2939:3078   */\n    tag_99:\n        /* \"#utility.yul\":2985:2990   */\n      0x00\n        /* \"#utility.yul\":3023:3029   */\n      dup2\n        /* \"#utility.yul\":3010:3030   */\n      calldataload\n        /* \"#utility.yul\":3001:3030   */\n      swap1\n      pop\n        /* \"#utility.yul\":3039:3072   */\n      tag_142\n        /* \"#utility.yul\":3066:3071   */\n      dup2\n        /* \"#utility.yul\":3039:3072   */\n      tag_98\n      jump\t// in\n    tag_142:\n        /* \"#utility.yul\":2939:3078   */\n      swap3\n      swap2\n      pop\n      pop\n      jump\t// out\n        /* \"#utility.yul\":3084:3413   */\n    tag_41:\n        /* \"#utility.yul\":3143:3149   */\n      0x00\n        /* \"#utility.yul\":3192:3194   */\n      0x20\n        /* \"#utility.yul\":3180:3189   */\n      dup3\n        /* \"#utility.yul\":3171:3178   */\n      dup5\n        /* \"#utility.yul\":3167:3190   */\n      sub\n        /* \"#utility.yul\":3163:3195   */\n      slt\n        /* \"#utility.yul\":3160:3279   */\n      iszero\n      tag_144\n      jumpi\n        /* \"#utility.yul\":3198:3277   */\n      tag_145\n      tag_94\n      jump\t// in\n    tag_145:\n        /* \"#utility.yul\":3160:3279   */\n    tag_144:\n        /* \"#utility.yul\":3318:3319   */\n      0x00\n        /* \"#utility.yul\":3343:3396   */\n      tag_146\n        /* \"#utility.yul\":3388:3395   */\n      dup5\n        /* \"#utility.yul\":3379:3385   */\n      dup3\n        /* \"#utility.yul\":3368:3377   */\n      dup6\n        /* \"#utility.yul\":3364:3386   */\n      add\n        /* \"#utility.yul\":3343:3396   */\n      tag_99\n      jump\t// in\n    tag_146:\n        /* \"#utility.yul\":3333:3396   */\n      swap2\n      pop\n        /* \"#utility.yul\":3289:3406   */\n      pop\n        /* \"#utility.yul\":3084:3413   */\n      swap3\n      swap2\n      pop\n      pop\n      jump\t// out\n        /* \"#utility.yul\":3419:3541   */\n    tag_100:\n        /* \"#utility.yul\":3492:3516   */\n      tag_148\n        /* \"#utility.yul\":3510:3515   */\n      dup2\n        /* \"#utility.yul\":3492:3516   */\n      tag_89\n      jump\t// in\n    tag_148:\n        /* \"#utility.yul\":3485:3490   */\n      dup2\n        /* \"#utility.yul\":3482:3517   */\n      eq\n        /* \"#utility.yul\":3472:3535   */\n      tag_149\n      jumpi\n        /* \"#utility.yul\":3531:3532   */\n      0x00\n        /* \"#utility.yul\":3528:3529   */\n      0x00\n        /* \"#utility.yul\":3521:3533   */\n      revert\n        /* \"#utility.yul\":3472:3535   */\n    tag_149:\n        /* \"#utility.yul\":3419:3541   */\n      pop\n      jump\t// out\n        /* \"#utility.yul\":3547:3686   */\n    tag_101:\n        /* \"#utility.yul\":3593:3598   */\n      0x00\n        /* \"#utility.yul\":3631:3637   */\n      dup2\n        /* \"#utility.yul\":3618:3638   */\n      calldataload\n        /* \"#utility.yul\":3609:3638   */\n      swap1\n      pop\n        /* \"#utility.yul\":3647:3680   */\n      tag_151\n        /* \"#utility.yul\":3674:3679   */\n      dup2\n        /* \"#utility.yul\":3647:3680   */\n      tag_100\n      jump\t// in\n    tag_151:\n        /* \"#utility.yul\":3547:3686   */\n      swap3\n      swap2\n      pop\n      pop\n      jump\t// out\n        /* \"#utility.yul\":3692:4021   */\n    tag_50:\n        /* \"#utility.yul\":3751:3757   */\n      0x00\n        /* \"#utility.yul\":3800:3802   */\n      0x20\n        /* \"#utility.yul\":3788:3797   */\n      dup3\n        /* \"#utility.yul\":3779:3786   */\n      dup5\n        /* \"#utility.yul\":3775:3798   */\n      sub\n        /* \"#utility.yul\":3771:3803   */\n      slt\n        /* \"#utility.yul\":3768:3887   */\n      iszero\n      tag_153\n      jumpi\n        /* \"#utility.yul\":3806:3885   */\n      tag_154\n      tag_94\n      jump\t// in\n    tag_154:\n        /* \"#utility.yul\":3768:3887   */\n    tag_153:\n        /* \"#utility.yul\":3926:3927   */\n      0x00\n        /* \"#utility.yul\":3951:4004   */\n      tag_155\n        /* \"#utility.yul\":3996:4003   */\n      dup5\n        /* \"#utility.yul\":3987:3993   */\n      dup3\n        /* \"#utility.yul\":3976:3985   */\n      dup6\n        /* \"#utility.yul\":3972:3994   */\n      add\n        /* \"#utility.yul\":3951:4004   */\n      tag_101\n      jump\t// in\n    tag_155:\n        /* \"#utility.yul\":3941:4004   */\n      swap2\n      pop\n        /* \"#utility.yul\":3897:4014   */\n      pop\n        /* \"#utility.yul\":3692:4021   */\n      swap3\n      swap2\n      pop\n      pop\n      jump\t// out\n        /* \"#utility.yul\":4027:4207   */\n    tag_102:\n        /* \"#utility.yul\":4075:4152   */\n      0x4e487b7100000000000000000000000000000000000000000000000000000000\n        /* \"#utility.yul\":4072:4073   */\n      0x00\n        /* \"#utility.yul\":4065:4153   */\n      mstore\n        /* \"#utility.yul\":4172:4176   */\n      0x11\n        /* \"#utility.yul\":4169:4170   */\n      0x04\n        /* \"#utility.yul\":4162:4177   */\n      mstore\n        /* \"#utility.yul\":4196:4200   */\n      0x24\n        /* \"#utility.yul\":4193:4194   */\n      0x00\n        /* \"#utility.yul\":4186:4201   */\n      revert\n        /* \"#utility.yul\":4213:4384   */\n    tag_55:\n        /* \"#utility.yul\":4252:4255   */\n      0x00\n        /* \"#utility.yul\":4275:4299   */\n      tag_158\n        /* \"#utility.yul\":4293:4298   */\n      dup3\n        /* \"#utility.yul\":4275:4299   */\n      tag_86\n      jump\t// in\n    tag_158:\n        /* \"#utility.yul\":4266:4299   */\n      swap2\n      pop\n        /* \"#utility.yul\":4321:4325   */\n      0x00\n        /* \"#utility.yul\":4314:4319   */\n      dup3\n        /* \"#utility.yul\":4311:4326   */\n      sub\n        /* \"#utility.yul\":4308:4349   */\n      tag_159\n      jumpi\n        /* \"#utility.yul\":4329:4347   */\n      tag_160\n      tag_102\n      jump\t// in\n    tag_160:\n        /* \"#utility.yul\":4308:4349   */\n    tag_159:\n        /* \"#utility.yul\":4376:4377   */\n      0x01\n        /* \"#utility.yul\":4369:4374   */\n      dup3\n        /* \"#utility.yul\":4365:4378   */\n      sub\n        /* \"#utility.yul\":4358:4378   */\n      swap1\n      pop\n        /* \"#utility.yul\":4213:4384   */\n      swap2\n      swap1\n      pop\n      jump\t// out\n        /* \"#utility.yul\":4390:4584   */\n    tag_58:\n        /* \"#utility.yul\":4430:4434   */\n      0x00\n        /* \"#utility.yul\":4450:4470   */\n      tag_162\n        /* \"#utility.yul\":4468:4469   */\n      dup3\n        /* \"#utility.yul\":4450:4470   */\n      tag_86\n      jump\t// in\n    tag_162:\n        /* \"#utility.yul\":4445:4470   */\n      swap2\n      pop\n        /* \"#utility.yul\":4484:4504   */\n      tag_163\n        /* \"#utility.yul\":4502:4503   */\n      dup4\n        /* \"#utility.yul\":4484:4504   */\n      tag_86\n      jump\t// in\n    tag_163:\n        /* \"#utility.yul\":4479:4504   */\n      swap3\n      pop\n        /* \"#utility.yul\":4528:4529   */\n      dup3\n        /* \"#utility.yul\":4525:4526   */\n      dup3\n        /* \"#utility.yul\":4521:4530   */\n      sub\n        /* \"#utility.yul\":4513:4530   */\n      swap1\n      pop\n        /* \"#utility.yul\":4552:4553   */\n      dup2\n        /* \"#utility.yul\":4546:4550   */\n      dup2\n        /* \"#utility.yul\":4543:4554   */\n      gt\n        /* \"#utility.yul\":4540:4577   */\n      iszero\n      tag_164\n      jumpi\n        /* \"#utility.yul\":4557:4575   */\n      tag_165\n      tag_102\n      jump\t// in\n    tag_165:\n        /* \"#utility.yul\":4540:4577   */\n    tag_164:\n        /* \"#utility.yul\":4390:4584   */\n      swap3\n      swap2\n      pop\n      pop\n      jump\t// out\n        /* \"#utility.yul\":4590:4823   */\n    tag_73:\n        /* \"#utility.yul\":4629:4632   */\n      0x00\n        /* \"#utility.yul\":4652:4676   */\n      tag_167\n        /* \"#utility.yul\":4670:4675   */\n      dup3\n        /* \"#utility.yul\":4652:4676   */\n      tag_86\n      jump\t// in\n    tag_167:\n        /* \"#utility.yul\":4643:4676   */\n      swap2\n      pop\n        /* \"#utility.yul\":4698:4764   */\n      0xffffffffffffffffffffffffffffffffffffffffffffffffffffffffffffffff\n        /* \"#utility.yul\":4691:4696   */\n      dup3\n        /* \"#utility.yul\":4688:4765   */\n      sub\n        /* \"#utility.yul\":4685:4788   */\n      tag_168\n      jumpi\n        /* \"#utility.yul\":4768:4786   */\n      tag_169\n      tag_102\n      jump\t// in\n    tag_169:\n        /* \"#utility.yul\":4685:4788   */\n    tag_168:\n        /* \"#utility.yul\":4815:4816   */\n      0x01\n        /* \"#utility.yul\":4808:4813   */\n      dup3\n        /* \"#utility.yul\":4804:4817   */\n      add\n        /* \"#utility.yul\":4797:4817   */\n      swap1\n      pop\n        /* \"#utility.yul\":4590:4823   */\n      swap2\n      swap1\n      pop\n      jump\t// out\n\n    auxdata: 0xa2646970667358221220ced0de38576fbda1f24b76fa25a1e0641242655c715bd6abd9916f2a526214d964736f6c634300081c0033\n}\n",
				"bytecode": {
					"linkReferences": {},
					"object": "6080604052348015600e575f5ffd5b50335f5f6101000a81548173ffffffffffffffffffffffffffffffffffffffff021916908373ffffffffffffffffffffffffffffffffffffffff1602179055506108198061005b5f395ff3fe608060405234801561000f575f5ffd5b506004361061009c575f3560e01c80638f32d59b116100645780638f32d59b1461012257806399213cd814610140578063b5ab58dc1461015c578063b633620c1461018c578063f2fde38b146101bc5761009c565b806350d25bcd146100a0578063668a0f02146100be578063715018a6146100dc5780638205bf6a146100e65780638da5cb5b14610104575b5f5ffd5b6100a86101d8565b6040516100b5919061053d565b60405180910390f35b6100c661020e565b6040516100d3919061056e565b60405180910390f35b6100e4610222565b005b6100ee6102d6565b6040516100fb919061056e565b60405180910390f35b61010c61030c565b60405161011991906105c6565b60405180910390f35b61012a610333565b60405161013791906105f9565b60405180910390f35b61015a60048036038101906101559190610640565b610388565b005b61017660048036038101906101719190610695565b6103e2565b604051610183919061053d565b60405180910390f35b6101a660048036038101906101a19190610695565b6103fc565b6040516101b3919061056e565b60405180910390f35b6101d660048036038101906101d191906106ea565b610416565b005b5f5f60015490505f8111156101f65780806101f290610742565b9150505b60025f8281526020019081526020015f205491505090565b5f6001805461021d9190610769565b905090565b61022a610333565b610232575f5ffd5b5f5f9054906101000a900473ffffffffffffffffffffffffffffffffffffffff1673ffffffffffffffffffffffffffffffffffffffff167ff8df31144d9c2f0f6b59d69b8b98abd5459d07f2742c4df920b25aae33c6482060405160405180910390a25f5f5f6101000a81548173ffffffffffffffffffffffffffffffffffffffff021916908373ffffffffffffffffffffffffffffffffffffffff160217905550565b5f5f60015490505f8111156102f45780806102f090610742565b9150505b60035f8281526020019081526020015f205491505090565b5f5f5f9054906101000a900473ffffffffffffffffffffffffffffffffffffffff16905090565b5f5f5f9054906101000a900473ffffffffffffffffffffffffffffffffffffffff1673ffffffffffffffffffffffffffffffffffffffff163373ffffffffffffffffffffffffffffffffffffffff1614905090565b610390610333565b610398575f5ffd5b8060025f60015481526020019081526020015f20819055504260035f60015481526020019081526020015f208190555060015f8154809291906103da9061079c565b919050555050565b5f60025f8381526020019081526020015f20549050919050565b5f60035f8381526020019081526020015f20549050919050565b61041e610333565b610426575f5ffd5b61042f81610432565b50565b5f73ffffffffffffffffffffffffffffffffffffffff168173ffffffffffffffffffffffffffffffffffffffff1603610469575f5ffd5b8073ffffffffffffffffffffffffffffffffffffffff165f5f9054906101000a900473ffffffffffffffffffffffffffffffffffffffff1673ffffffffffffffffffffffffffffffffffffffff167f8be0079c531659141344cd1fd0a4f28419497f9722a3daafe3b4186f6b6457e060405160405180910390a3805f5f6101000a81548173ffffffffffffffffffffffffffffffffffffffff021916908373ffffffffffffffffffffffffffffffffffffffff16021790555050565b5f819050919050565b61053781610525565b82525050565b5f6020820190506105505f83018461052e565b92915050565b5f819050919050565b61056881610556565b82525050565b5f6020820190506105815f83018461055f565b92915050565b5f73ffffffffffffffffffffffffffffffffffffffff82169050919050565b5f6105b082610587565b9050919050565b6105c0816105a6565b82525050565b5f6020820190506105d95f8301846105b7565b92915050565b5f8115159050919050565b6105f3816105df565b82525050565b5f60208201905061060c5f8301846105ea565b92915050565b5f5ffd5b61061f81610525565b8114610629575f5ffd5b50565b5f8135905061063a81610616565b92915050565b5f6020828403121561065557610654610612565b5b5f6106628482850161062c565b91505092915050565b61067481610556565b811461067e575f5ffd5b50565b5f8135905061068f8161066b565b92915050565b5f602082840312156106aa576106a9610612565b5b5f6106b784828501610681565b91505092915050565b6106c9816105a6565b81146106d3575f5ffd5b50565b5f813590506106e4816106c0565b92915050565b5f602082840312156106ff576106fe610612565b5b5f61070c848285016106d6565b91505092915050565b7f4e487b71000000000000000000000000000000000000000000000000000000005f52601160045260245ffd5b5f61074c82610556565b91505f820361075e5761075d610715565b5b600182039050919050565b5f61077382610556565b915061077e83610556565b925082820390508181111561079657610795610715565b5b92915050565b5f6107a682610556565b91507fffffffffffffffffffffffffffffffffffffffffffffffffffffffffffffffff82036107d8576107d7610715565b5b60018201905091905056fea2646970667358221220ced0de38576fbda1f24b76fa25a1e0641242655c715bd6abd9916f2a526214d964736f6c634300081c0033",
					"opcodes": "PUSH1 0x80 PUSH1 0x40 MSTORE CALLVALUE DUP1 ISZERO PUSH1 0xE JUMPI PUSH0 PUSH0 REVERT JUMPDEST POP CALLER PUSH0 PUSH0 PUSH2 0x100 EXP DUP2 SLOAD DUP2 PUSH20 0xFFFFFFFFFFFFFFFFFFFFFFFFFFFFFFFFFFFFFFFF MUL NOT AND SWAP1 DUP4 PUSH20 0xFFFFFFFFFFFFFFFFFFFFFFFFFFFFFFFFFFFFFFFF AND MUL OR SWAP1 SSTORE POP PUSH2 0x819 DUP1 PUSH2 0x5B PUSH0 CODECOPY PUSH0 RETURN INVALID PUSH1 0x80 PUSH1 0x40 MSTORE CALLVALUE DUP1 ISZERO PUSH2 0xF JUMPI PUSH0 PUSH0 REVERT JUMPDEST POP PUSH1 0x4 CALLDATASIZE LT PUSH2 0x9C JUMPI PUSH0 CALLDATALOAD PUSH1 0xE0 SHR DUP1 PUSH4 0x8F32D59B GT PUSH2 0x64 JUMPI DUP1 PUSH4 0x8F32D59B EQ PUSH2 0x122 JUMPI DUP1 PUSH4 0x99213CD8 EQ PUSH2 0x140 JUMPI DUP1 PUSH4 0xB5AB58DC EQ PUSH2 0x15C JUMPI DUP1 PUSH4 0xB633620C EQ PUSH2 0x18C JUMPI DUP1 PUSH4 0xF2FDE38B EQ PUSH2 0x1BC JUMPI PUSH2 0x9C JUMP JUMPDEST DUP1 PUSH4 0x50D25BCD EQ PUSH2 0xA0 JUMPI DUP1 PUSH4 0x668A0F02 EQ PUSH2 0xBE JUMPI DUP1 PUSH4 0x715018A6 EQ PUSH2 0xDC JUMPI DUP1 PUSH4 0x8205BF6A EQ PUSH2 0xE6 JUMPI DUP1 PUSH4 0x8DA5CB5B EQ PUSH2 0x104 JUMPI JUMPDEST PUSH0 PUSH0 REVERT JUMPDEST PUSH2 0xA8 PUSH2 0x1D8 JUMP JUMPDEST PUSH1 0x40 MLOAD PUSH2 0xB5 SWAP2 SWAP1 PUSH2 0x53D JUMP JUMPDEST PUSH1 0x40 MLOAD DUP1 SWAP2 SUB SWAP1 RETURN JUMPDEST PUSH2 0xC6 PUSH2 0x20E JUMP JUMPDEST PUSH1 0x40 MLOAD PUSH2 0xD3 SWAP2 SWAP1 PUSH2 0x56E JUMP JUMPDEST PUSH1 0x40 MLOAD DUP1 SWAP2 SUB SWAP1 RETURN JUMPDEST PUSH2 0xE4 PUSH2 0x222 JUMP JUMPDEST STOP JUMPDEST PUSH2 0xEE PUSH2 0x2D6 JUMP JUMPDEST PUSH1 0x40 MLOAD PUSH2 0xFB SWAP2 SWAP1 PUSH2 0x56E JUMP JUMPDEST PUSH1 0x40 MLOAD DUP1 SWAP2 SUB SWAP1 RETURN JUMPDEST PUSH2 0x10C PUSH2 0x30C JUMP JUMPDEST PUSH1 0x40 MLOAD PUSH2 0x119 SWAP2 SWAP1 PUSH2 0x5C6 JUMP JUMPDEST PUSH1 0x40 MLOAD DUP1 SWAP2 SUB SWAP1 RETURN JUMPDEST PUSH2 0x12A PUSH2 0x333 JUMP JUMPDEST PUSH1 0x40 MLOAD PUSH2 0x137 SWAP2 SWAP1 PUSH2 0x5F9 JUMP JUMPDEST PUSH1 0x40 MLOAD DUP1 SWAP2 SUB SWAP1 RETURN JUMPDEST PUSH2 0x15A PUSH1 0x4 DUP1 CALLDATASIZE SUB DUP2 ADD SWAP1 PUSH2 0x155 SWAP2 SWAP1 PUSH2 0x640 JUMP JUMPDEST PUSH2 0x388 JUMP JUMPDEST STOP JUMPDEST PUSH2 0x176 PUSH1 0x4 DUP1 CALLDATASIZE SUB DUP2 ADD SWAP1 PUSH2 0x171 SWAP2 SWAP1 PUSH2 0x695 JUMP JUMPDEST PUSH2 0x3E2 JUMP JUMPDEST PUSH1 0x40 MLOAD PUSH2 0x183 SWAP2 SWAP1 PUSH2 0x53D JUMP JUMPDEST PUSH1 0x40 MLOAD DUP1 SWAP2 SUB SWAP1 RETURN JUMPDEST PUSH2 0x1A6 PUSH1 0x4 DUP1 CALLDATASIZE SUB DUP2 ADD SWAP1 PUSH2 0x1A1 SWAP2 SWAP1 PUSH2 0x695 JUMP JUMPDEST PUSH2 0x3FC JUMP JUMPDEST PUSH1 0x40 MLOAD PUSH2 0x1B3 SWAP2 SWAP1 PUSH2 0x56E JUMP JUMPDEST PUSH1 0x40 MLOAD DUP1 SWAP2 SUB SWAP1 RETURN JUMPDEST PUSH2 0x1D6 PUSH1 0x4 DUP1 CALLDATASIZE SUB DUP2 ADD SWAP1 PUSH2 0x1D1 SWAP2 SWAP1 PUSH2 0x6EA JUMP JUMPDEST PUSH2 0x416 JUMP JUMPDEST STOP JUMPDEST PUSH0 PUSH0 PUSH1 0x1 SLOAD SWAP1 POP PUSH0 DUP2 GT ISZERO PUSH2 0x1F6 JUMPI DUP1 DUP1 PUSH2 0x1F2 SWAP1 PUSH2 0x742 JUMP JUMPDEST SWAP2 POP POP JUMPDEST PUSH1 0x2 PUSH0 DUP3 DUP2 MSTORE PUSH1 0x20 ADD SWAP1 DUP2 MSTORE PUSH1 0x20 ADD PUSH0 KECCAK256 SLOAD SWAP2 POP POP SWAP1 JUMP JUMPDEST PUSH0 PUSH1 0x1 DUP1 SLOAD PUSH2 0x21D SWAP2 SWAP1 PUSH2 0x769 JUMP JUMPDEST SWAP1 POP SWAP1 JUMP JUMPDEST PUSH2 0x22A PUSH2 0x333 JUMP JUMPDEST PUSH2 0x232 JUMPI PUSH0 PUSH0 REVERT JUMPDEST PUSH0 PUSH0 SWAP1 SLOAD SWAP1 PUSH2 0x100 EXP SWAP1 DIV PUSH20 0xFFFFFFFFFFFFFFFFFFFFFFFFFFFFFFFFFFFFFFFF AND PUSH20 0xFFFFFFFFFFFFFFFFFFFFFFFFFFFFFFFFFFFFFFFF AND PUSH32 0xF8DF31144D9C2F0F6B59D69B8B98ABD5459D07F2742C4DF920B25AAE33C64820 PUSH1 0x40 MLOAD PUSH1 0x40 MLOAD DUP1 SWAP2 SUB SWAP1 LOG2 PUSH0 PUSH0 PUSH0 PUSH2 0x100 EXP DUP2 SLOAD DUP2 PUSH20 0xFFFFFFFFFFFFFFFFFFFFFFFFFFFFFFFFFFFFFFFF MUL NOT AND SWAP1 DUP4 PUSH20 0xFFFFFFFFFFFFFFFFFFFFFFFFFFFFFFFFFFFFFFFF AND MUL OR SWAP1 SSTORE POP JUMP JUMPDEST PUSH0 PUSH0 PUSH1 0x1 SLOAD SWAP1 POP PUSH0 DUP2 GT ISZERO PUSH2 0x2F4 JUMPI DUP1 DUP1 PUSH2 0x2F0 SWAP1 PUSH2 0x742 JUMP JUMPDEST SWAP2 POP POP JUMPDEST PUSH1 0x3 PUSH0 DUP3 DUP2 MSTORE PUSH1 0x20 ADD SWAP1 DUP2 MSTORE PUSH1 0x20 ADD PUSH0 KECCAK256 SLOAD SWAP2 POP POP SWAP1 JUMP JUMPDEST PUSH0 PUSH0 PUSH0 SWAP1 SLOAD SWAP1 PUSH2 0x100 EXP SWAP1 DIV PUSH20 0xFFFFFFFFFFFFFFFFFFFFFFFFFFFFFFFFFFFFFFFF AND SWAP1 POP SWAP1 JUMP JUMPDEST PUSH0 PUSH0 PUSH0 SWAP1 SLOAD SWAP1 PUSH2 0x100 EXP SWAP1 DIV PUSH20 0xFFFFFFFFFFFFFFFFFFFFFFFFFFFFFFFFFFFFFFFF AND PUSH20 0xFFFFFFFFFFFFFFFFFFFFFFFFFFFFFFFFFFFFFFFF AND CALLER PUSH20 0xFFFFFFFFFFFFFFFFFFFFFFFFFFFFFFFFFFFFFFFF AND EQ SWAP1 POP SWAP1 JUMP JUMPDEST PUSH2 0x390 PUSH2 0x333 JUMP JUMPDEST PUSH2 0x398 JUMPI PUSH0 PUSH0 REVERT JUMPDEST DUP1 PUSH1 0x2 PUSH0 PUSH1 0x1 SLOAD DUP2 MSTORE PUSH1 0x20 ADD SWAP1 DUP2 MSTORE PUSH1 0x20 ADD PUSH0 KECCAK256 DUP2 SWAP1 SSTORE POP TIMESTAMP PUSH1 0x3 PUSH0 PUSH1 0x1 SLOAD DUP2 MSTORE PUSH1 0x20 ADD SWAP1 DUP2 MSTORE PUSH1 0x20 ADD PUSH0 KECCAK256 DUP2 SWAP1 SSTORE POP PUSH1 0x1 PUSH0 DUP2 SLOAD DUP1 SWAP3 SWAP2 SWAP1 PUSH2 0x3DA SWAP1 PUSH2 0x79C JUMP JUMPDEST SWAP2 SWAP1 POP SSTORE POP POP JUMP JUMPDEST PUSH0 PUSH1 0x2 PUSH0 DUP4 DUP2 MSTORE PUSH1 0x20 ADD SWAP1 DUP2 MSTORE PUSH1 0x20 ADD PUSH0 KECCAK256 SLOAD SWAP1 POP SWAP2 SWAP1 POP JUMP JUMPDEST PUSH0 PUSH1 0x3 PUSH0 DUP4 DUP2 MSTORE PUSH1 0x20 ADD SWAP1 DUP2 MSTORE PUSH1 0x20 ADD PUSH0 KECCAK256 SLOAD SWAP1 POP SWAP2 SWAP1 POP JUMP JUMPDEST PUSH2 0x41E PUSH2 0x333 JUMP JUMPDEST PUSH2 0x426 JUMPI PUSH0 PUSH0 REVERT JUMPDEST PUSH2 0x42F DUP2 PUSH2 0x432 JUMP JUMPDEST POP JUMP JUMPDEST PUSH0 PUSH20 0xFFFFFFFFFFFFFFFFFFFFFFFFFFFFFFFFFFFFFFFF AND DUP2 PUSH20 0xFFFFFFFFFFFFFFFFFFFFFFFFFFFFFFFFFFFFFFFF AND SUB PUSH2 0x469 JUMPI PUSH0 PUSH0 REVERT JUMPDEST DUP1 PUSH20 0xFFFFFFFFFFFFFFFFFFFFFFFFFFFFFFFFFFFFFFFF AND PUSH0 PUSH0 SWAP1 SLOAD SWAP1 PUSH2 0x100 EXP SWAP1 DIV PUSH20 0xFFFFFFFFFFFFFFFFFFFFFFFFFFFFFFFFFFFFFFFF AND PUSH20 0xFFFFFFFFFFFFFFFFFFFFFFFFFFFFFFFFFFFFFFFF AND PUSH32 0x8BE0079C531659141344CD1FD0A4F28419497F9722A3DAAFE3B4186F6B6457E0 PUSH1 0x40 MLOAD PUSH1 0x40 MLOAD DUP1 SWAP2 SUB SWAP1 LOG3 DUP1 PUSH0 PUSH0 PUSH2 0x100 EXP DUP2 SLOAD DUP2 PUSH20 0xFFFFFFFFFFFFFFFFFFFFFFFFFFFFFFFFFFFFFFFF MUL NOT AND SWAP1 DUP4 PUSH20 0xFFFFFFFFFFFFFFFFFFFFFFFFFFFFFFFFFFFFFFFF AND MUL OR SWAP1 SSTORE POP POP JUMP JUMPDEST PUSH0 DUP2 SWAP1 POP SWAP2 SWAP1 POP JUMP JUMPDEST PUSH2 0x537 DUP2 PUSH2 0x525 JUMP JUMPDEST DUP3 MSTORE POP POP JUMP JUMPDEST PUSH0 PUSH1 0x20 DUP3 ADD SWAP1 POP PUSH2 0x550 PUSH0 DUP4 ADD DUP5 PUSH2 0x52E JUMP JUMPDEST SWAP3 SWAP2 POP POP JUMP JUMPDEST PUSH0 DUP2 SWAP1 POP SWAP2 SWAP1 POP JUMP JUMPDEST PUSH2 0x568 DUP2 PUSH2 0x556 JUMP JUMPDEST DUP3 MSTORE POP POP JUMP JUMPDEST PUSH0 PUSH1 0x20 DUP3 ADD SWAP1 POP PUSH2 0x581 PUSH0 DUP4 ADD DUP5 PUSH2 0x55F JUMP JUMPDEST SWAP3 SWAP2 POP POP JUMP JUMPDEST PUSH0 PUSH20 0xFFFFFFFFFFFFFFFFFFFFFFFFFFFFFFFFFFFFFFFF DUP3 AND SWAP1 POP SWAP2 SWAP1 POP JUMP JUMPDEST PUSH0 PUSH2 0x5B0 DUP3 PUSH2 0x587 JUMP JUMPDEST SWAP1 POP SWAP2 SWAP1 POP JUMP JUMPDEST PUSH2 0x5C0 DUP2 PUSH2 0x5A6 JUMP JUMPDEST DUP3 MSTORE POP POP JUMP JUMPDEST PUSH0 PUSH1 0x20 DUP3 ADD SWAP1 POP PUSH2 0x5D9 PUSH0 DUP4 ADD DUP5 PUSH2 0x5B7 JUMP JUMPDEST SWAP3 SWAP2 POP POP JUMP JUMPDEST PUSH0 DUP2 ISZERO ISZERO SWAP1 POP SWAP2 SWAP1 POP JUMP JUMPDEST PUSH2 0x5F3 DUP2 PUSH2 0x5DF JUMP JUMPDEST DUP3 MSTORE POP POP JUMP JUMPDEST PUSH0 PUSH1 0x20 DUP3 ADD SWAP1 POP PUSH2 0x60C PUSH0 DUP4 ADD DUP5 PUSH2 0x5EA JUMP JUMPDEST SWAP3 SWAP2 POP POP JUMP JUMPDEST PUSH0 PUSH0 REVERT JUMPDEST PUSH2 0x61F DUP2 PUSH2 0x525 JUMP JUMPDEST DUP2 EQ PUSH2 0x629 JUMPI PUSH0 PUSH0 REVERT JUMPDEST POP JUMP JUMPDEST PUSH0 DUP2 CALLDATALOAD SWAP1 POP PUSH2 0x63A DUP2 PUSH2 0x616 JUMP JUMPDEST SWAP3 SWAP2 POP POP JUMP JUMPDEST PUSH0 PUSH1 0x20 DUP3 DUP5 SUB SLT ISZERO PUSH2 0x655 JUMPI PUSH2 0x654 PUSH2 0x612 JUMP JUMPDEST JUMPDEST PUSH0 PUSH2 0x662 DUP5 DUP3 DUP6 ADD PUSH2 0x62C JUMP JUMPDEST SWAP2 POP POP SWAP3 SWAP2 POP POP JUMP JUMPDEST PUSH2 0x674 DUP2 PUSH2 0x556 JUMP JUMPDEST DUP2 EQ PUSH2 0x67E JUMPI PUSH0 PUSH0 REVERT JUMPDEST POP JUMP JUMPDEST PUSH0 DUP2 CALLDATALOAD SWAP1 POP PUSH2 0x68F DUP2 PUSH2 0x66B JUMP JUMPDEST SWAP3 SWAP2 POP POP JUMP JUMPDEST PUSH0 PUSH1 0x20 DUP3 DUP5 SUB SLT ISZERO PUSH2 0x6AA JUMPI PUSH2 0x6A9 PUSH2 0x612 JUMP JUMPDEST JUMPDEST PUSH0 PUSH2 0x6B7 DUP5 DUP3 DUP6 ADD PUSH2 0x681 JUMP JUMPDEST SWAP2 POP POP SWAP3 SWAP2 POP POP JUMP JUMPDEST PUSH2 0x6C9 DUP2 PUSH2 0x5A6 JUMP JUMPDEST DUP2 EQ PUSH2 0x6D3 JUMPI PUSH0 PUSH0 REVERT JUMPDEST POP JUMP JUMPDEST PUSH0 DUP2 CALLDATALOAD SWAP1 POP PUSH2 0x6E4 DUP2 PUSH2 0x6C0 JUMP JUMPDEST SWAP3 SWAP2 POP POP JUMP JUMPDEST PUSH0 PUSH1 0x20 DUP3 DUP5 SUB SLT ISZERO PUSH2 0x6FF JUMPI PUSH2 0x6FE PUSH2 0x612 JUMP JUMPDEST JUMPDEST PUSH0 PUSH2 0x70C DUP5 DUP3 DUP6 ADD PUSH2 0x6D6 JUMP JUMPDEST SWAP2 POP POP SWAP3 SWAP2 POP POP JUMP JUMPDEST PUSH32 0x4E487B7100000000000000000000000000000000000000000000000000000000 PUSH0 MSTORE PUSH1 0x11 PUSH1 0x4 MSTORE PUSH1 0x24 PUSH0 REVERT JUMPDEST PUSH0 PUSH2 0x74C DUP3 PUSH2 0x556 JUMP JUMPDEST SWAP2 POP PUSH0 DUP3 SUB PUSH2 0x75E JUMPI PUSH2 0x75D PUSH2 0x715 JUMP JUMPDEST JUMPDEST PUSH1 0x1 DUP3 SUB SWAP1 POP SWAP2 SWAP1 POP JUMP JUMPDEST PUSH0 PUSH2 0x773 DUP3 PUSH2 0x556 JUMP JUMPDEST SWAP2 POP PUSH2 0x77E DUP4 PUSH2 0x556 JUMP JUMPDEST SWAP3 POP DUP3 DUP3 SUB SWAP1 POP DUP2 DUP2 GT ISZERO PUSH2 0x796 JUMPI PUSH2 0x795 PUSH2 0x715 JUMP JUMPDEST JUMPDEST SWAP3 SWAP2 POP POP JUMP JUMPDEST PUSH0 PUSH2 0x7A6 DUP3 PUSH2 0x556 JUMP JUMPDEST SWAP2 POP PUSH32 0xFFFFFFFFFFFFFFFFFFFFFFFFFFFFFFFFFFFFFFFFFFFFFFFFFFFFFFFFFFFFFFFF DUP3 SUB PUSH2 0x7D8 JUMPI PUSH2 0x7D7 PUSH2 0x715 JUMP JUMPDEST JUMPDEST PUSH1 0x1 DUP3 ADD SWAP1 POP SWAP2 SWAP1 POP JUMP INVALID LOG2 PUSH5 0x6970667358 0x22 SLT KECCAK256 0xCE 0xD0 0xDE CODESIZE JUMPI PUSH16 0xBDA1F24B76FA25A1E0641242655C715B 0xD6 0xAB 0xD9 SWAP2 PUSH16 0x2A526214D964736F6C634300081C0033 "
				},
				"gasEstimates": {
					"creation": {
						"codeDepositCost": "414600",
						"executionCost": "24711",
						"totalCost": "439311"
					},
					"external": {
						"getAnswer(uint256)": "2813",
						"getTimestamp(uint256)": "infinite",
						"isOwner()": "2489",
						"latestAnswer()": "4782",
						"latestRound()": "infinite",
						"latestTimestamp()": "infinite",
						"owner()": "2603",
						"renounceOwnership()": "29949",
						"setAnswer(int256)": "75558",
						"transferOwnership(address)": "30746"
					}
				},
				"methodIdentifiers": {
					"getAnswer(uint256)": "b5ab58dc",
					"getTimestamp(uint256)": "b633620c",
					"isOwner()": "8f32d59b",
					"latestAnswer()": "50d25bcd",
					"latestRound()": "668a0f02",
					"latestTimestamp()": "8205bf6a",
					"owner()": "8da5cb5b",
					"renounceOwnership()": "715018a6",
					"setAnswer(int256)": "99213cd8",
					"transferOwnership(address)": "f2fde38b"
				}
			},
			"storageLayout": {
				"storage": [
					{
						"astId": 11,
						"contract": "contracts/mockups/MockAggregator.sol:MockAggregator",
						"label": "_owner",
						"offset": 0,
						"slot": "0",
						"type": "t_address"
					},
					{
						"astId": 170,
						"contract": "contracts/mockups/MockAggregator.sol:MockAggregator",
						"label": "_nextRound",
						"offset": 0,
						"slot": "1",
						"type": "t_uint256"
					},
					{
						"astId": 174,
						"contract": "contracts/mockups/MockAggregator.sol:MockAggregator",
						"label": "_answers",
						"offset": 0,
						"slot": "2",
						"type": "t_mapping(t_uint256,t_int256)"
					},
					{
						"astId": 178,
						"contract": "contracts/mockups/MockAggregator.sol:MockAggregator",
						"label": "_timestamps",
						"offset": 0,
						"slot": "3",
						"type": "t_mapping(t_uint256,t_uint256)"
					}
				],
				"types": {
					"t_address": {
						"encoding": "inplace",
						"label": "address",
						"numberOfBytes": "20"
					},
					"t_int256": {
						"encoding": "inplace",
						"label": "int256",
						"numberOfBytes": "32"
					},
					"t_mapping(t_uint256,t_int256)": {
						"encoding": "mapping",
						"key": "t_uint256",
						"label": "mapping(uint256 => int256)",
						"numberOfBytes": "32",
						"value": "t_int256"
					},
					"t_mapping(t_uint256,t_uint256)": {
						"encoding": "mapping",
						"key": "t_uint256",
						"label": "mapping(uint256 => uint256)",
						"numberOfBytes": "32",
						"value": "t_uint256"
					},
					"t_uint256": {
						"encoding": "inplace",
						"label": "uint256",
						"numberOfBytes": "32"
					}
				}
			},
			"userdoc": {
				"kind": "user",
				"methods": {},
				"version": 1
			}
		}
	}
}